:100000000C9437070C9454070C9454070C94540721
:100010000C9454070C9454070C9454070C945407F4
:100020000C9454070C9454070C9480110C94C21037
:100030000C9455250C9454070C9454070C945407B5
:100040000C9454070C9454070C9454070C945407C4
:100050000C9454070C948A120C9454070C94540773
:100060000C9454070C9454070C9454070C945407A4
:100070000C9454070C9454070C9454070C94540794
:100080000C9454070C9454070C9454070C94540784
:100090000C9454070C9454070C9454070C94540774
:1000A0000C9454070C9454070C9454077F0A7F0A4D
:1000B000B10AB10A1B0B370B620C620C420BD00B5E
:1000C000E10BE10BD50EFC0EAA10FC0EAA10480F96
:1000D0006B0FAA1060107010FD2600270527082757
:1000E0000B270E27112785288A28942888288D28F1
:1000F000922890283D2A402A432A462A492A4C2AF7
:100100004F2A05010980A101850319012AB70015AD
:100110000126B700950175108100C0050C0901A1E9
:1001200001850419012AA002150126A00295017576
:10013000108100C005010906A1018506050719E027
:1001400029E71500250195087501810205071900A9
:1001500029EF1500250195F07501810205081901A7
:100160002905950575019102950175039101C00559
:10017000010902A1010901A10005091901290815B8
:100180000025019508750181020501093009311525
:1001900081257F95027508810609381581257F958F
:1001A0000175088106050C0A38021581257F950125
:1001B00075088106C0C00660FF0961A101096215CA
:1001C0000026FF009520750881020963150026FFAF
:1001D00000952075089102C005010906A1010507D7
:1001E00019E029E71500250195087501810295019F
:1001F000750881010507190029FF150026FF0095E4
:1002000006750881000508190129059505750191F4
:1002100002950175039101C009027400040100A058
:10022000FA09040000010301010009211101000184
:1002300022400007058103080001090401000203B0
:10024000000000092111010001222200070583039B
:100250002000010705040320000109040200010336
:100260000102000921110100012247000705820354
:100270000800010904030001030000000921110125
:100280000001226D00070585032000011201000214
:1002900000000008973276490100010200012003A6
:1002A0004500720067006F0044006F007800200076
:1002B00045005A00200047006C006F0077000000E6
:1002C00028035A00530041002000540065006300D9
:1002D00068006E006F006C006F00670079002000FE
:1002E0004C0061006200730000000403090429004F
:1002F0002B002A00E100350000001E00140004005D
:100300001D0034003B001F001A0015001B00E00018
:1003100003512000090016000600E2002C00210015
:10032000130017001900E0003A0022000A0007003D
:1003300005000000650004510100000007510000A5
:10034000E30002530057000000070000E70023000D
:100350000D000B000E0000004C0024000F001100E7
:10036000100006513C00250018000800360001006E
:10037000280026001C000C00370001000451270053
:1003800033001200380001003D002D003100340020
:10039000E500010000000100010001000100010072
:1003A0000000010001000100010001000100010046
:1003B000010001000100E000010001000100010056
:1003C0000100E20001000100010001000100E30062
:1003D0000100010001000100010000000100010016
:1003E00001000000010000000100010001570000B1
:1003F00001000000010001000100010001000000F7
:1004000001000100010001000100010001000100E4
:1004100001000100010001000100010001000100D4
:1004200001000100010001000100010001000100C4
:1004300001000100010001000100010000000100B5
:10044000010001000100010000001E001400040072
:100450001D000100B55D1F001A0016001B00010001
:100460000100200008000700060001000100210033
:100470001500090019000100C45C220017000A00E1
:100480000500000001000100100000000100000054
:100490000100010001000000010000000100230034
:1004A0001C000B00110000000100240018000D00CA
:1004B00010000100C65C25000C000E003600010093
:1004C0000100260012000F00370001000100270084
:1004D0001300330038000100C75C01000100010077
:1004E0000100010000000100010001000100010005
:1004F00000003A00140704071D070100CB5C3B0015
:100500001A0716071B07010001003C000807070730
:100510000607010001003D00150709071907010042
:10052000CA5C3E0017070A07050700003E000100ED
:100530000000000001000000C45C01002402000073
:1005400001000000CD5C3F002502210222020000D4
:10055000CC5C40002F0226022F000100B65D410056
:100560003002270230000100C65C42002D02560016
:100570001F020100010043002E022E002002010094
:10058000B75D4400450001000100010000000100CA
:100590000100010001000100000001000100010054
:1005A0000100010001000100010001000100010043
:1005B0000100010001003A000100010001000100FA
:1005C0000100010001000100010001000100010023
:1005D0000100000001000100010000000100000016
:1005E0000100010001000000010000000100010005
:1005F000010001000100000001005F005C005900E3
:1006000062000100010060005D005A00010001006D
:10061000010061005E005B000100010001000100BB
:1006200001000100010001000100010001000100C2
:1006300001000100000001000100010001000100B3
:1006400000000100010001000100010001000100A3
:100650000100EF000100010001000100ED00EE00CB
:100660000100F100010001000100F0000100F200B2
:100670000100010001000100010000000100010073
:100680000100000001000000010001000100000065
:100690000100000001000100A900AA00A80000005C
:1006A00001000100240021001E000100010054008F
:1006B000250022001F0062000C00550026002300C8
:1006C00020006300010056005700000058000100A0
:1006D0000100010001000100010001000000010013
:1006E0000100010001000100000001000000000005
:1006F000000001000100000000004A0000000100AD
:10070000010000004B004E0000000100010000004D
:1007100000004D0000000100010001000000000089
:1007200000000000010001000100000001000000C5
:1007300001000100010000000100000001000100B3
:100740000000000000000000010000000000500058
:1007500000000100010000005200510000000100F3
:100760000100000000004F00000001000100010036
:100770000000000000000100010001000100010074
:100780000100010000000100010001000100010062
:100790000000010001000100010001000100010052
:1007A0000100010001000100010001000100010041
:1007B0000100010001000100010001000100010031
:1007C0000100010001000100010000000100010022
:1007D0000100000001000000010001000100000014
:1007E0000100000001000100010001000100000003
:1007F00001000100240721071E070100010001007C
:10080000250722071F0727070100010026072307E6
:1008100020070100010001000100010001000100AA
:1008200001000100010001000100010000000001C1
:1008300001010101010101010202020202020202A0
:100840000203030303030303030404040404040472
:100850000505050505060606060607070707070836
:10086000080808090909090A0A0A0B0B0B0C0C0CE9
:100870000D0D0D0E0E0E0F0F0F1010111111121283
:1008800013131414151516161717181819191A1A00
:100890001B1B1C1D1D1E1E1F202021222223242461
:1008A000252626272829292A2B2C2D2D2E2F30319D
:1008B0003232333435363738393A3B3C3D3E3F40AF
:1008C0004142434445464748494A4C4D4E4F50519A
:1008D0005354555658595A5B5D5E5F616264656654
:1008E00068696B6C6D6F7072737577787A7B7D7EDB
:1008F0008082838587888A8C8E8F91939596989A2B
:100900009C9EA0A2A3A5A7A9ABADAFB1B3B5B7BA42
:10091000BCBEC0C2C4C6C9CBCDCFD1D4D6D8DBDD16
:10092000DFE2E4E7E9EBEEF0F3F5F8FAFDFF00446F
:10093000345400746484005545650085759500360F
:10094000264600665676009686A60037274700772B
:100950006787003828480088789800392949006955
:100960005979009989A9003A2A4A006A5A7A003BC3
:100970002B4B006B5B7B004C3C5C007C6C8C005D0B
:100980004D6D008D7D9D003E2E4E006E5E7E0144BD
:1009900034540174648401554565018575950136AB
:1009A000264601665676019686A6013727470177C7
:1009B00067870138284801887898013929490169F1
:1009C0005979019989A9013A2A4A016A5A7A013B5F
:1009D0002B4B016B5B7B014C3C5C017C6C8C015DA7
:1009E0004D6D018D7D9D013E2E4E016E5E7E00009F
:1009F00000000000000000000000000000000000F7
:100A000000000000000000000000000000000000E6
:100A100000000000000000000000000000000000D6
:100A200000000000000000000000000000000000C6
:100A300000000000000000000000000000000000B6
:100A400000000000000000000000000000000000A6
:100A50000000000000000000000000000000000096
:100A60000000000000000000000000000000000086
:100A70000000000000000000000000000000DBFF9C
:100A8000FFDBFFFFDBFFFFDBFFFFDBFFFFBCFFFF49
:100A9000BCFFFFBCFFFFBCFFFFBCFFFFBCFFFFBCF8
:100AA000FFFFBCFFFFBCFFFFBCFFFFBCFFFFBCFFA5
:100AB000FFBCFFFFBCFFFFBCFFFFBCFFFFBCFFFF95
:100AC000BCFFFFBCFFFFDBFFFFDBFFFFDBFFFFDB4C
:100AD000FFFFDBFFFFBCFFFFBCFFFFBCFFFFBCFF56
:100AE000FFBCFFFFBCFFFFBCFFFFBCFFFFBCFFFF65
:100AF000BCFFFFBCFFFFBCFFFFBCFFFFBCFFFFBC98
:100B0000FFFF83FFFF83FFFF83FFFFBCFFFF9AFF11
:100B1000FF9AFFFF9AFFFF9AFFFF9AFFFF9AFFFFDE
:100B20009AFFFF9AFFFF9AFFFF9AFFFF9AFFFF9A33
:100B3000FFFF9AFFFF9AFFFF9AFFFF9AFFFFCDFF8B
:100B4000FF9AFFFF9AFFFF9AFFFF9AFFFF9AFFFFAE
:100B50009AFFFF9AFFFF9AFFFF9AFFFF9AFFFF9A03
:100B6000FFFF9AFFFF9AFFFF9AFFFF9AFFFF00CC5B
:100B7000FF9AFFFF9AFFFF9AFFFF00CCFF00CCFF18
:100B800000CCFF9AFFFF9AFFFF9AFFFF9AFFFF9AA0
:100B9000FFFF9AFFFF9AFFFF9AFFFF9AFFFF69FF8F
:100BA000FF69FFFF69FFFF69FFFF69FFFF69FFFF43
:100BB00069FFFF69FFFF69FFFF69FFFF69FFFF69C9
:100BC000FFFF69FFFF69FFFF69FFFF69FFFF69FF23
:100BD000FF69FFFF69FFFF69FFFF000000000000E1
:100BE00000000000000069FFFF69FFFF69FFFF6967
:100BF000FFFF69FFFFF9E4FFF9E4FFF9E4FFF9E41F
:100C0000FFF9E4FFF9E4FFF9E4FFF9E4FFF9E4FF99
:100C1000F9E4FFF9E4FFF9E4FFF9E4FFF9E4FFF98F
:100C2000E4FF0000000000000000000000000000E1
:100C30000086FFD586FFD586FFD5000000000000A6
:100C400086FFD586FFD586FFD50000000000008610
:100C5000FFD586FFD586FFD500000000000086FF87
:100C6000D5000000000000000000000000000000AF
:100C70000000000000000000000000000000000074
:100C80000000000000000000000000000000000064
:100C900000000000000000000000F3DEEA00000099
:100CA0000000000000000000000000000000000044
:100CB0000000000000000000000000000000000034
:100CC000000000000EFFFF0EFFFF0EFFFF69FFFF99
:100CD00023FFFF23FFFF23FFFF0EFFFF69FFFF231B
:100CE000FFFF23FFFF23FFFF000000F9E4FF23FFC6
:100CF000FF23FFFF23FFFF69FFFF00000023FFFF2B
:100D000023FFFF00000000000000000000000000C2
:100D1000000000000000000000000023FFFF0000B2
:100D20000000000000000023FFFF23FFFF23FFFF60
:100D300000000000000000000000000000000000B3
:100D4000000023FFFF23FFFF000000000000000061
:100D50000000000000000000000000000000000093
:100D6000000000EAFFFF000000000000000000EAB1
:100D7000FFFFEAFFFFEAFFFF0000000000000000A5
:100D80000000000000000000000000000000000063
:100D90000000000000000000000000000000000053
:100DA00000000000000000000000000EFFFF000037
:100DB0000000000000000069FFFF0EFFFF69FFFF59
:100DC0000000000000000000000000000000000023
:100DD0000000000000000000000000000000000013
:100DE0000000000000000000000000000000000003
:100DF00086FFD586FFD586FFD5000000000000865F
:100E0000FFD586FFD586FFD500000000000086FFD5
:100E1000D555CB9E86FFD50000000000000AE1FFFB
:100E200000000000000000000000000000000000C2
:100E300000000000000000000000000000000000B2
:100E400000000000000000000000000000000000A2
:100E50000000000000000000000000000000000092
:100E6000000000000000000000000000000011244D
:100E70001FBECFEFDAE0DEBFCDBF12E0A0E0B1E0F1
:100E8000EAE2F8E602C005900D92AE37B107D9F755
:100E900025E0AEE7B2E001C01D92AD3CB207E1F73C
:100EA0000E94F21E0C9413340C940000A5E2B0E0F2
:100EB000ECE5F7E00C94DF2FFC0180819181238128
:100EC0003481232B31F09F3F31F491E08F3F19F4AF
:100ED00003C091E001C090E090FD33C57F0185E043
:100EE000DE01919601900D928A95E1F7D701129655
:100EF0002C9189A19AA1222349F00E94C22A182F7D
:100F0000682F89A19AA10E94362B03C00E94032B4F
:100F1000182F69A17AA1812F0E9404138C01F70177
:100F200082818823E1F0809181059091820500976C
:100F3000B1F08017910799F0FEE08F9FC001112456
:100F4000FC01E05EFE4F208124602083855E9E4F81
:100F5000DC010D931C930E94FD2510928005909159
:100F6000BE05F7018281992309F44DC08111D9C4CE
:100F7000E0918002E330A0F481E08E0F8093800244
:100F8000F0E0EE0FFF1FE35FFB4FD7018D919C91C7
:100F90009183808382E08983CE0101960E945D2E39
:100FA000BFEFE3EDF0E3B150E040F040E1F700C007
:100FB000000080918002833009F0B3C41092800257
:100FC000E3E1F4E0ADE0B4E089E194E03181119631
:100FD0002C91119732132EC030812C9132132AC0DC
:100FE000329612968E179F0789F784E0898381E0F5
:100FF0008093BF058EEF8A831092BE05CE010196C5
:101000000E945D2E8EC49091BF059923C1F0882364
:1010100011F086E001C087E08983D7018C918A8333
:1010200011968C918B838EEF8C83CE0101960E945A
:101030005D2E05C083E089831092BF05DBCFF701E9
:101040008281033BFDE51F07E1F5882309F440C0D9
:1010500090911F0481E0890F8770987F853020F47C
:10106000892B80931F0402C090931F0480911F045A
:101070008770BFEF8B9FC00111249595879595953B
:1010800087959927909389008093880090938B008F
:1010900080938A0090938D0080938C0040911F0470
:1010A0005091200460912104709122048FE090E01F
:1010B0000E94BA3080911D0490911E040E946E28F7
:1010C00007C0043B2DE5120709F096C0811120C12D
:1010D000F70182818111ADC080918B0282720B3C3D
:1010E000FCE51F0709F47CC098F5063C3CE51307B6
:1010F00009F462C0B8F4043CACE51A0709F452C024
:1011000008F055C0033CECE51E0709F0AAC1909118
:10111000C30581E089278093C30510923C0180912B
:10112000C2053CC0083CFCE51F0709F44FC008F4A9
:1011300048C0093C3CE5130709F44DC00A3C9CE556
:10114000190709F08EC140EE54E26DEE74E251C011
:101150000F3CACE51A0709F468C060F40D3CECE5FF
:101160001E0709F442C008F05EC04AEF52E268E090
:1011700073E23FC0073D2CE5120738F4013D3CE522
:10118000130708F0CEC389E051C00F358DE518076D
:1011900009F4C7C366C19FEF9093C805816080932F
:1011A000C205BFC348E255E262E375E222C042E3F2
:1011B00055E268E275E21DC044E155E26EE175E278
:1011C00018C04EE155E264E175E213C04AEF54E203
:1011D00067E075E20EC047E055E26AEF74E209C0CD
:1011E0004DEE54E260EE74E204C048E053E26AEF70
:1011F00072E20E94482695C3033C3CE5130709F4BC
:10120000A6C0063BEDE51E0709F4B6C0073BFDE5A9
:101210001F0709F4BCC0053B2DE5120709F0C4C047
:10122000882309F47EC381E001C085E00E941A2E64
:1012300078C30C359DE5190709F464C060F4011505
:10124000BCE51B07A9F00F3DECE51E0709F009C13D
:101250000E94B9144CC00E35FDE51F0709F44AC0C1
:1012600008F452C0093A3DE5130709F440C0F9C03B
:1012700010928B020E94F62B8FEF94E3ACE081502A
:101280009040A040E1F700C00000F89481E0809316
:10129000E00080E28093D8001092C900EFE1FEE404
:1012A0003197F1F700C000001DBA109268001CBC15
:1012B00010BE1FBA10927A0010926E0010926F004A
:1012C00010927100109272001092C9001092BC002E
:1012D00014B817B81AB81DB810BA1092BC0015B8D7
:1012E00018B81BB81EB811BA0C94003F1AC30E945C
:1012F000562817C38091860282FB882780F991E0E7
:10130000892703C081E001C080E00E94B015A9C018
:1013100080911F0483FB222720F991E0922790FB04
:1013200083F980931F04992329F040E060E080E076
:101330000E943B1A40911F045091200460912104A7
:10134000709122048FE090E00E94BA30C1CE8823D1
:1013500009F4E7C29091C8058091C2059F3F09F04A
:101360001ACF1092C80581608093C20540E060E00A
:1013700080E00E943B1AD5C2882309F4D2C281E0E2
:101380000E941A2E4FEF64E985EC90E00AC0882392
:1013900009F4C7C281E00E941A2E4FEF69E787E87F
:1013A00090E00E940A2EBDC2980137552F3F3105AB
:1013B00011F008F08DCE5801BB243EE0039FF001F0
:1013C0001124DF01A55EBE4F6D01E05EFE4F9081EE
:1013D00080FB90F99083F70182818823E1F10E94DC
:1013E000492590930B0480930A04D60112968C91A0
:1013F00012978F5F12968C9312979091800580912F
:101400008B02892B13968C93139780913203149639
:101410008C9314971696ED91FC911797309731F0B5
:101420001C966D917C911D97C60109958EE08A9D51
:10143000F0018B9DF00D1124E05EFE4F808181FF55
:1014400003C090E080E002C0902F812F909381052F
:10145000809382053DCE91FF3BCECD010E94DF25DA
:1014600037CED70112968C9112970D911C9188233B
:1014700049F0C8010E94C22AD82E682FC8010E94D4
:10148000362B04C0C8010E94032BD82EB8018D2D25
:101490000E9404130E941D138C01982EF701D28024
:1014A000A580A2949FE0A922809111038770B9F0D2
:1014B000DD20A9F0812F807F803421F080E2800F31
:1014C000883068F08091860282FF09C082E00E9425
:1014D0009315809111038770CC24C3948111C12C82
:1014E000B12EB2948FE0B8228B2D90E08C30910514
:1014F00008F0E8C1FC01EA5AFF4F0C94DF32812F5B
:10150000807F1F70882311F01295107FDD20B9F0C5
:10151000112309F4C5C180E2800F883010F09110CA
:1015200006C080918B02182B10938B0205C080910E
:101530008005182B109380050E943E15B1C1802FA5
:101540000E941B2C112309F4BDC1005E083078F104
:10155000992069F1109580918005182310938005DA
:1015600029C0812F807F1F70803211F01295107F6B
:10157000992021F0F1E09F16D9F147C080918602B1
:1015800082FD1BC0DD2069F0112339F080918B02B0
:10159000182B10938B020E943E1580E00E94502C65
:1015A00091C180E00E941B2C112309F48BC1812F73
:1015B0000E9437150E943E1585C1DD2081F0809183
:1015C0003203AA2051F021E0A21207C0182B1817ED
:1015D00009F478C11093320375C1812B10C0AA2081
:1015E00021F031E0A31609F46DC10E9431151FC02E
:1015F000DD2041F081E08A1508F464C1812F0E944A
:10160000112C60C1A1105EC112C0DD2019F0AA200A
:10161000A9F346C1AA2059F0093309F050C19FEF40
:10162000A7EEB3E09150A040B040E1F746C1812F52
:101630000E940A2C47C1812F86958695837019F0E8
:10164000813059F03FC1DD2019F0C801937002C00C
:1016500080E090E00E94BC253BC1DD2019F0C8016C
:10166000937002C080E090E00E94A62531C1802FD7
:10167000DD2019F00E94AF2D02C00E94F52C0E94BF
:10168000CB1E26C1812F837009F041C0D1101EC12D
:10169000302F329536953770330F330F802F8F7080
:1016A00090E0032E02C0880F991F0A94E2F704FF0E
:1016B0000BC04FE050E002C0440F551F3A95E2F7CF
:1016C0009A012095309502C020E030E016951695DD
:1016D0001370123099F068F4409133035091340341
:1016E000113029F0822B932B8423952304C0842B63
:1016F000952B822B932B0E94B82BE8C0822B932B27
:10170000209133033091340382279327F4CFDD20D7
:1017100019F0812F817001C08695882309F4D6C005
:10172000302F329536953770330F330F802F8F70EF
:1017300090E0032E02C0880F991F0A94E2F704FF7D
:101740000BC04FE050E002C0440F551F3A95E2F73E
:101750009A012095309502C020E030E0169516954C
:101760001370123079F0B8F440911D0450911E04AA
:10177000113029F0822B932B842395230EC0842BC8
:10178000952B09C0822B932B20911D0430911E04B0
:101790008227932702C0822B932B0E946A2B96C02C
:1017A0001F70DD2039F0812F0E94A82B802F0E940E
:1017B000112C8CC0802F0E940A2C812F0E94962B06
:1017C00085C0802FE2EF9E1689F1E91538F0F0EF21
:1017D0009F1659F021EF921621F15EC033EF931658
:1017E00061F194EF9916C9F057C0DD2089F0A1107E
:1017F00069C01F7181E090E002C0880F991F1A959F
:10180000E2F720911D0430911E048227932722C005
:10181000A1E0AA1508F456C0ECCF8091860282FDA3
:101820001CC0DD2029F0812F8F7129C0DD20D9F364
:10183000812F8F710E94962B45C0DD2049F01F71CA
:1018400081E090E002C0880F991F1A95E2F702C06C
:1018500080E090E00E946A2B35C0DD2099F01F7176
:10186000812F0E94A82B8091860282FF07C0B8E0DA
:101870001B9FC0011124836080931103812F0E945C
:10188000A82B20C081E00E949315E1E0EA15D0F476
:1018900082E00E94931516C0DD2021F0AA2019F2E3
:1018A000802F7CCEAA2021F2893349F4FFEF27EE66
:1018B00033E0F15020403040E1F700C00000802FBD
:1018C0000E941B2C88EF8B0D843010F40E94D225CF
:1018D000CC20B1F08091110380FD12C0D701129687
:1018E0001C928595859585950E94A82BC7010E941D
:1018F0005607809111038595859585950E94962BB5
:1019000085E0F701DE01119601900D928A95E1F7CD
:1019100009811A81C8010E94032BB8010E94041397
:1019200010C080911103877061F0D70112968C91DD
:10193000882339F08091860282FF03C082E00E94F2
:101940009315A596EBE00C94FB2F8091B10287FFD5
:1019500011C08091E80082FD05C08091C105811110
:10196000F8CF11C08091E8008B770BC08091C10542
:10197000882349F08091E80080FFF8CF8091E8004B
:101980008E778093E8000895982F973068F59093AC
:10199000E900981739F07091EC002091ED0050911A
:1019A000F00003C0242F762F50E021FD02C09F5F7E
:1019B000ECCF3091EB003E7F3093EB003091ED00A7
:1019C0003D7F3093ED003091EB0031603093EB00C0
:1019D0007093EC002093ED005093F0002091EE0006
:1019E00027FDE5CF80E008958F708093E90081E0C6
:1019F00008952091B7023091B8022617370748F0B2
:101A00006115710539F42091E8002E772093E800E4
:101A100001C0B901FC0120E06115710579F18091E7
:101A2000C1058823F1F18530F1F18091E80083FD53
:101A30003CC08091E80082FD2EC08091E80080FFCC
:101A4000EBCF2091F3008091F20090E0922B611592
:101A5000710551F08830910538F421912093F100FF
:101A6000615071090196F3CF21E0089709F020E059
:101A70008091E8008E778093E800CECF2111CFCF00
:101A80000AC08091C105882361F0853061F08091A2
:101A9000E80083FD0AC08091E80082FFF2CF80E079
:101AA000089582E0089583E0089581E008950895FF
:101AB00080918D02089580938702709389026093CC
:101AC00088028091C105843001F585E08093E900AA
:101AD0008FEF9091E800815095FD06C095ED9A95A5
:101AE000F1F700008111F5CF8091E80085FF0DC06E
:101AF00040E050E063E070E087E892E00E94332E1F
:101B00008091E8008E778093E8000895BC0184E01E
:101B10000E945B0D0895BC0183E00E945B0D089557
:101B200022E02093E9002FEF3091E800215035FDAD
:101B300006C035ED3A95F1F700002111F5CF20915F
:101B4000E80025FF0BC040E050E065E070E00E9437
:101B5000332E8091E8008E778093E8000895CF932C
:101B6000DF9320910A01222339F02091850227FF7B
:101B700003C060E225E002C068E021E02093E900B4
:101B80002FEF3091E800215035FD06C035ED3A9534
:101B9000F1F700002111F5CF2091E80025FF1DC0CD
:101BA000EC0180910A01811105C040E050E068E03D
:101BB00070E003C070E040E050E0CE010E94332EA0
:101BC0008091E8008E778093E80080E2FE01AEE825
:101BD000B2E001900D928A95E1F7DF91CF910895DF
:101BE000AAE2B0E0E6EFFDE00C94E72FE1EBF2E0D3
:101BF00089EB92E02091F10021938E179F07D1F796
:101C00008091B202833009F463C030F4813071F006
:101C1000823009F49FC0B6C08A3009F48BC08B3083
:101C200009F46EC0893009F0ADC020C08091B102C6
:101C3000813A09F0A7C08091E800877F8093E8008F
:101C40008091B5029091B602892B21F460E28EE872
:101C500092E003C060E080E090E070E00E94F90C48
:101C60008091E8008B778093E8008CC08091B1026E
:101C7000813209F087C08091B5029091B602009739
:101C800019F0039709F07EC08091E800877F809368
:101C9000E8008091E80082FD05C08091C1058111B6
:101CA000F8CF70C02091F3008091F20090E0922B69
:101CB000029731F48091F100813011F0863021F4E7
:101CC0008091F10080938D028091E8008B7756C05F
:101CD0008091B102813A09F055C08091B50290918E
:101CE000B602892B09F04EC08091E800877F80936F
:101CF000E8008091E80080FFFCCF80910A0139C0A4
:101D00008091B1028132F1F58091B5029091B602D5
:101D1000892BC1F58091E800877F8093E8000E94BD
:101D2000A50C8091B30280930A0110928B020E944D
:101D3000F62B28C08091B102813221F58091E80014
:101D4000877F8093E8000E94A50C8091B402809365
:101D50008C0218C08091B102813AA1F48091E80010
:101D6000877F8093E8008091E80080FFFCCF80911E
:101D70008C028093F1008091E8008E778093E800D8
:101D80000E94A50C8091E80083FFE4C18091B1021C
:101D90009091B202492F50E04A30510508F0DAC163
:101DA000FA01EE59FF4F0C94DF32803821F082386F
:101DB00009F0D0C108C08091AE029091AF02992382
:101DC00089F082600FC08091B5028F70873008F073
:101DD000C1C18093E9008091EB0085FB882780F9E1
:101DE0001092E9009091E800977F9093E80080932B
:101DF000F1001092F10070C1282F2D7F09F0AAC1C7
:101E0000882319F0823061F0A5C18091B30281303E
:101E100009F0A0C1933009F080E08093AF022EC09A
:101E20008091B30281112AC08091B5028F702FEF8B
:101E3000280F263008F08EC18093E9002091EB0036
:101E400020FF1CC0933021F48091EB00806214C00D
:101E50009091EB0090619093EB0021E030E0A901BC
:101E600002C0440F551F8A95E2F74093EA00109292
:101E7000EA008091EB0088608093EB001092E9000B
:101E80008091E800877F8093E8000E94A50C62C1E2
:101E9000811160C11091B3021F778091E3008078B7
:101EA000812B8093E3008091E800877F8093E80096
:101EB0000E94A50C8091E80080FFFCCF8091E30098
:101EC00080688093E300111102C082E001C083E0CA
:101ED0008093C1053FC18058823008F03BC12091FA
:101EE000B3023091B4022C3D53E0350779F583E01D
:101EF0008A838AE289834FB7F894DE01139620E043
:101F00003EE051E2E32FF0E050935700E49120FFD0
:101F100003C0E295EF703F5FEF708E2F90E0EA30E4
:101F200010F0C79601C0C0968D939D932F5F24310A
:101F300049F74FBF8091E800877F8093E8006AE20D
:101F400070E0CE0101960E94F90CB4C08091B502F8
:101F50009091B602432F552743305105A9F068F4FC
:101F60004130510509F405C14230510509F0F2C074
:101F700084E790E0E8E1F2E04BC04132510529F1FD
:101F80004232510589F1E6C0C90199278130910596
:101F9000A1F058F0029709F0DDC0EEE9F2E0E4911B
:101FA0008E2F90E0EEE9F2E030C0EAEEF2E0E4914C
:101FB0008E2F90E0EAEEF2E028C0E0ECF2E0E4914F
:101FC0008E2F90E0E0ECF2E020C08430910508F024
:101FD000C1C0880F991FFC01E45BFE4F0190F081A6
:101FE000E02D89E090E014C08430910508F0B2C083
:101FF000FC01EE0FFF1FEC5BFE4F0190F081E02D26
:10200000DC01A05CBE4F8C9190E0009709F4A2C067
:102010002091E800277F2093E8002091B7023091BB
:10202000B8022817390708F4C90140E0009789F180
:102030002091C105222309F43DC02530D9F120911A
:10204000E80023FD37C02091E80022FD2FC0209139
:10205000E80020FFEBCF4091F3002091F20030E048
:10206000342B009759F02830310540F444914093C7
:10207000F100319601972F5F3F4FF3CF41E02830B9
:10208000310509F040E02091E8002E772093E80028
:10209000CDCF4111CDCF0AC08091C105882351F029
:1020A000853041F08091E80083FD04C08091E80014
:1020B00082FFF2CF8091E8008B778093E8004AC0DE
:1020C000803809F047C08091E800877F8093E8005E
:1020D0008091B0028093F1008091E8008E77D3CE9A
:1020E000811138C08091B3029091B4029927029770
:1020F0008CF58091E800877F8093E8001091B3020F
:102100001093B0020E94A50C111106C08091E3004B
:1021100087FD02C081E001C084E08093C10542E0F8
:1021200061EC81E00E94C40C42E061EC82E00E941C
:10213000C40C42E261EC85E00E94C40C42E261EC16
:1021400083E00E94C40C42E260EC84E00E94C40C74
:102150008091C1058091E80083FF10C08091E80064
:10216000877F8093E8008091EB0080628093EB0092
:1021700005C082E190E0ECE8F2E04ACFAA96E3E005
:102180000C9403301F920F920FB60F9211242F93CD
:102190003F934F935F936F937F938F939F93AF93EF
:1021A000BF93CF93DF93EF93FF93C091E900CF707C
:1021B0008091EC00D82FD17080FDD0E81092E9001A
:1021C0008091F000877F8093F00078940E94F00D5A
:1021D0001092E9008091F00088608093F000CD2B90
:1021E000CF70C093E900FF91EF91DF91CF91BF9144
:1021F000AF919F918F917F916F915F914F913F919F
:102200002F910F900FBE0F901F901895E8EDF0E002
:1022100080818E7F80831092E2001092DA0010920B
:10222000E100A0EEB0E08C9181608C9380818F778B
:10223000808319BCA7EDB0E08C918E7F8C93808158
:102240008F7E808310928A020895A0E0B0E0EBE2D6
:10225000F1E10C94E22FC8EDD0E088818F7E888375
:10226000E7EDF0E080818160808384E082BF81E0DF
:1022700080938A0288818E7F888302EE10E0F801C5
:1022800010821092DA0081EEC82ED12CF601108255
:1022900088818F77888388818068888388818F7D13
:1022A000888319BC1092C1051092B0021092AF023F
:1022B0001092AE0290EEE92EF12CF70180818B7F17
:1022C000808388818160888342E060E080E00E94B2
:1022D000C40CF60180818E7F8083F801808181604B
:1022E0008083808188608083F70180818E7F8083F6
:1022F000888180618883CDB7DEB7E8E00C94FE2F3B
:102300001F920F920FB60F9211242F933F934F936A
:102310005F936F937F938F939F93AF93BF93EF934D
:10232000FF938091E10082FF09C08091E20082FF6B
:1023300005C08091E1008B7F8093E1008091DA00FD
:1023400080FF2AC08091D80080FF26C08091DA00EB
:102350008E7F8093DA008091D90080FF18C080E1E1
:1023600089BD82E189BD09B400FEFDCF81E0809383
:10237000C10580918A0281110FC00E9406110E943E
:1023800025118091E20084608093E20005C019BCB1
:102390001092C10510928A028091E10080FF17C05F
:1023A0008091E20080FF13C08091E2008E7F8093D5
:1023B000E2008091E20080618093E2008091D80089
:1023C00080628093D80019BC85E08093C10580911C
:1023D000E10084FF30C08091E20084FF2CC080E1E6
:1023E00089BD82E189BD09B400FEFDCF8091D8008E
:1023F0008F7D8093D8008091E1008F7E8093E100F3
:102400008091E2008F7E8093E2008091E200816003
:102410008093E2008091B002882311F084E007C02D
:102420008091E30087FD02C081E001C083E08093DA
:10243000C1058091C1058091E10083FF27C0809193
:10244000E20083FF23C08091E100877F8093E10059
:1024500082E08093C1051092B0028091E1008E7FEE
:102460008093E1008091E2008E7F8093E200809172
:10247000E20080618093E20042E060E080E00E9440
:10248000C40C8091F00088608093F000FF91EF9180
:10249000BF91AF919F918F917F916F915F914F917C
:1024A0003F912F910F900FBE0F901F901895209184
:1024B000E4003091E50095E64091EC00842F8170B6
:1024C00040FF23C08091E80080FD1DC08091C105C0
:1024D000882399F0853099F08091EB0085FD11C03B
:1024E0004091E4005091E5002417350729F39150FD
:1024F00011F09A01E1CF84E0089582E0089583E02D
:10250000089581E0089580E008954091E80042FF39
:10251000DDCF089578941F920F920FB60F92112479
:102520008F939F93AF93BF9380918102909182028A
:10253000A0918302B09184020196A11DB11D8093E8
:10254000810290938202A0938302B0938402BF9190
:10255000AF919F918F910F900FBE0F901F90189584
:102560009C014FB7F8948091810290918202A091D2
:102570008302B09184024FBF821B930B089580E0C9
:1025800008959091850292FF0DC0282F2871283060
:1025900019F4877F846006C0282F2471243011F439
:1025A0008B7F886093FF0DC0282F2871283119F484
:1025B000877E846106C0282F2471243111F48B7E1C
:1025C00088612091860220FF0DC0382F3871383085
:1025D00019F4877F816006C0382F3171313011F4D2
:1025E0008E7F886021FF0DC0282F2871283119F4B3
:1025F000877E816106C0282F2171213111F48E7EE2
:10260000886194FD877E08957E30A0F4663090F452
:1026100094E5899FF001112486E0789FE00DF11D7B
:102620001124E60FF11DEE0FFF1FE251FD4F8591C2
:102630009491089580E090E00895CF93DF938238DD
:10264000910569F1B0F48133910509F477C048F43C
:102650008932910509F469C08A32910509F473C081
:1026600092C08533910509F45BC089339105B9F0B7
:102670008AC0833E910591F138F4803E9105D1F0F6
:10268000823E910531F17FC0863E9105D9F1873EAA
:102690009105E9F1843E910509F075C028C02091AB
:1026A000850220FD5BC021FD59C02091860223FDDB
:1026B00061C069C08091850280FD4AC08091860218
:1026C00080FF4CC08091850284FD4EC183EE90E076
:1026D0004DC18091850282FF3EC0F4CF809185027A
:1026E00082FD39C08091860280FD38C0EBCF809199
:1026F000860281FF39C08091850284FD35C187EE55
:1027000090E034C18091850283FF2BC0F4CF80918B
:10271000850283FD26C08091860281FD25C0EBCF16
:102720008091850285FD26C022C08091850285FDAD
:102730001EC08091860283FF1DC00AC08091850261
:1027400086FD1BC01DC08091850286FD19C015C085
:1027500089E390E00BC182EE90E008C180EE90E04A
:1027600005C186EE90E002C184EE90E0FFC085E3F3
:1027700090E0FCC089E290E0F9C08AE290E0F6C007
:1027800081E390E0F3C0811531E5930708F061C063
:10279000811520E59207B0F09C012370332741E0BA
:1027A00050E002C0440F551F2A95E2F7282F2695C6
:1027B000269580E2289F90011124CA01822B932B39
:1027C0009D68D4C0883E910568F5803E910508F06B
:1027D000CDC0883A9105B8F4853A910548F0855AFC
:1027E000E82FF0E0EC5AFE4F808190E09064BEC08C
:1027F0008130910509F4B5C008F4B6C08430910564
:1028000008F4B2C0B3C08F3B910508F0ADC0885A40
:10281000E82FF0E0EE0FFF1FE95AFE4F8081918113
:102820009464A4C0811530E2930758F4811521E027
:10283000920708F09BC08D3E910508F495C0906505
:1028400095C0811530E4930708F48EC09F70906A9C
:102850008DC0811525E5920708F042C0811534E549
:10286000930728F0982F8827846F906A7FC081157E
:1028700023E59207B0F09C012370332741E050E03C
:1028800002C0440F551F2A95E2F7282F269526955A
:1028900080E2289F90011124CA01822B932B9A6811
:1028A00065C0811532E5930728F4982F8827816F3A
:1028B000906A5CC09C012370332741E050E002C065
:1028C000440F551F2A95E2F7282F2695269580E27A
:1028D000289F90011124CA01822B932B9C6846C02B
:1028E000EC01C11589E5D807B0F4C11528E5D20778
:1028F00028F09C2F8827806F906A38C0C11536E574
:10290000D30790F58C2F0E94C1128F7190E0982F01
:10291000882790622BC0C1158AE5D80790F48C2FC8
:102920008F700E94C11294E0D695C7959A95E1F7F1
:10293000CF70D0E0DC2FCC27D0699E01282BC901B5
:1029400015C0CE0190568115904270F48D2F8F7175
:102950000E94C112282F2F71CE0199279062922BCD
:1029600005C081E090E002C080E090E0DF91CF916F
:10297000089568EE7EEF80E090E00E94C63060E04F
:1029800082E090E00E94A83060E083E090E00E9446
:10299000A830109234031092330360E084E090E09A
:1029A0000E94A83064E082E290E00E94A83060E0DB
:1029B00085E090E00E94A83060E086E090E00E9410
:1029C000A8306FEF87E090E00E94A83040E050E030
:1029D000BA0188E090E00E94BA3060E08DE090E0BB
:1029E0000E94A83040E050E0BA0188E190E00E94E7
:1029F000BA3060E087E190E00E94A83040E050E00B
:102A0000BA018CE190E00E94BA3060E070E080E2B0
:102A100090E00E94C63040E050E0BA0188E190E0CA
:102A20000E94BA3010921F041092200410922104C8
:102A30001092220484E080931F0440911F0450915F
:102A4000200460912104709122048FE090E00E94A4
:102A5000BA3040E050E0BA0183E190E00E94BA3021
:102A60000895809132038111109232030895809568
:102A700090918B02892380938B02089590918B0211
:102A800080918005982B9093B9028091320388231E
:102A9000D9F0892B8093B90280910A01882331F003
:102AA0008091850287FF02C08EE101C086E0EBEBDA
:102AB000F2E090E0815028F021912223D9F39F5F2A
:102AC000F9CF91110E94311540E250E062E173E0CC
:102AD00089EB92E00E940634892B21F180E2E9EB38
:102AE000F2E0A2E1B3E001900D928A95E1F7E09166
:102AF0008505F09186053097A9F080910A01882319
:102B000059F08091850287FF07C08091B9028093B8
:102B1000BA0286E08093B9020280F381E02D89EB4E
:102B200092E0099508952091110380958223809366
:102B30001103982F977099F430E0482F082E000C5D
:102B4000550B2417350759F09091860292FF07C064
:102B50008595859585950E94962B10921103089571
:102B6000CF93C0918602C2FB992790F9981791F0F4
:102B700080FBC2F9C09386026091850284E090E0F8
:102B80000E94A8306C2F82E290E00E94A83082E080
:102B90000E949315CF910895809110039091DF02C8
:102BA000891719F08F5F8770FBCF08950F931F93DC
:102BB000CF93DF938091DE0282958F7009F05AC027
:102BC0008091DB02882309F455C080911003109195
:102BD000DF026091D9027091DA02C091DC02D091DB
:102BE000DD0291E06F3F09F090E0292F06E08117A8
:102BF00009F440C0209721F07F3F21F030E003C06E
:102C000031E001C0322F90E030FD31C0089FF0016B
:102C1000099FF00D1124DF01A052BD4F11963C9188
:102C20001197371324C03C91361321C012963C9162
:102C3000129731111CC013964D915C9114974C1B47
:102C40005D0B483C510598F48091DE028F708061E5
:102C50008093DE02EB51FD4F80818F708061808315
:102C600089ED92E00E9456070E94CC1503C00196A0
:102C70008770BDCFDF91CF911F910F910895A1E192
:102C8000B0E0E5E4F6E10C94DF2F8C0185E0F8017B
:102C9000DE011D9601900D928A95E1F7F801E28020
:102CA0009091D9026091DA024091DC025091DD02EC
:102CB0004115510531F06F3F31F481E09F3F19F428
:102CC00003C081E001C080E0F82FF1709F2E80FDED
:102CD0001BC1F80130812181C380D48089EDA82EE9
:102CE00082E0B82EF090DB02F601E41BF50BFF202A
:102CF00009F4C7C08091DE02E83CF10508F092C0FB
:102D0000482F407F09F051C0621311C093130FC0C8
:102D1000FE2CE1100CC08F7080618093DE02C50133
:102D20000E9456078091DE02F80185832AC1C114F2
:102D3000D10431F02F3F31F481E03F3F19F403C05B
:102D400081E001C080E080FD03C081E08E2502C0EB
:102D500080E090E0F82FF170FF2E80FF1CC0809182
:102D600010034091DF0256E0841709F4E8C090E0B8
:102D7000589FF001599FF00D1124E052FD4F6181E1
:102D8000261306C06081631303C06281E61203C08C
:102D900001968770E9CFFE2CEE2009F4F2C08091F5
:102DA000DE0281608093DE0249C0621306C0931385
:102DB00004C0E11002C0F80186C0C8010E94BF2B08
:102DC000882351F1EE2041F12091DE02822F82957D
:102DD0008F7090E0029774F08091D9029091DA029E
:102DE00098878F831986DB86CA862C87CE01079643
:102DF0000E94560786E0F801A9EDB2E001900D921D
:102E00008A95E1F70E94D6150AC06217C9F0C80179
:102E10000E94BF2B81111EC0C8010E945607FF24CB
:102E2000F394AFC0482F407F81F789ED92E00E9474
:102E3000560786E0F50111928A95E9F7F12CA1C0B9
:102E40009313E5CFE110E3CFF8018583C8010E9419
:102E5000560754C0EE2001F32091DE02822F8295A6
:102E60008F7090E0029734F28091D9029091DA024B
:102E70009A8389831B82DD82CC822E83CE010196C8
:102E8000B7CFE83CF105D0F5FE2CEE2029F2621315
:102E900027C0931325C02091DE0220FD18C0822F89
:102EA00082958F70482F50E04115510581F0F8014F
:102EB00025834F30510541F08F5F982F9295907F79
:102EC000822F8F70892B8583C8010E94560786E068
:102ED000F801A9EDB2E001900D928A95E1F751C099
:102EE000C8010E94BF2B811185CF8091DE028160D5
:102EF0008093DE02C8010E94560743C086E0F501B8
:102F000011928A95E9F73DC0EE2009F485CFC801FA
:102F10000E94BF2BF82E882309F47ECF86E0F801AB
:102F2000A9EDB2E001900D928A95E1F78091D90266
:102F30009091DA020E94F62A0E94D61522C03D879F
:102F40002E878D859E850E94F62A292F22952F7027
:102F5000223028F49F7039F0811105C00BC0243055
:102F600028F49F7049F4805E883020F0C8010E94E8
:102F700056079F2CF92C05C0F8019581907F99F791
:102F8000F9CF8F2D6196EBE00C94FB2FA0E0B0E021
:102F9000ECECF7E10C94E22F8091190190911A0169
:102FA000892BA1F0809135038F5F809335038111C8
:102FB0000DC00E94182990E090931A018093190186
:102FC000892B21F40E948F290E945C260DED13E0CD
:102FD0007801D0E0C0E087E0C82ECC0E8C2F0E9494
:102FE000FF298C2D0E94FF298C2F0E94622A8F734B
:102FF000F7019081891721F08083DD24D39401C0EB
:10300000D12C8C2D0E94622A8F73F701978189172A
:1030100019F0878381E001C080E0D82ADD290E9471
:10302000532ACF5FFFEFEF1AFF0AC730A1F61092C5
:103030003A03C0913903CC2309F4C8C00E94492542
:103040002091370330913803AC01421B530B9A0196
:1030500090933803809337034F3F510509F018F4DC
:10306000452B19F102C02FEF30E010923903109276
:103070003603E091DB03F091DC03AF01425F5F4F69
:1030800090E030E08081882341F0281718F010820A
:103090009C2F03C0821B80833C2F3196E417F507D9
:1030A00089F73093390390933603DD2309F47FC009
:1030B000E091DB03F091DC0380913A0390913903B6
:1030C000ADEEB3E0AF01425F5F4F68E2E8012881F7
:1030D0003C91321779F0308131110CC060832C9310
:1030E00098819227282F30E0292B81E0232B09F4A7
:1030F00080E091E0319611960F5F1F4FE417F507BE
:1031000029F780933A0390933903C0913A032091B1
:10311000BE0580913C0390913D032223D9F1892B78
:1031200031F425982D9826982E9827982F988091DD
:103130003C0390913D039170892B79F480913B037E
:10314000882319F026982E9802C0269A2E9A9091DC
:103150003B0381E0892780933B0380913C0390915E
:103160003D038130984760F01092BE0580911D04A8
:1031700090911E040E946E2810923D0310923C0311
:1031800080913C0390913D03019690933D03809381
:103190003C0320C0892BF1F010923D0310923C03B8
:1031A00080911D0490911E040E946E2813C081E03E
:1031B00090913603992309F4A8CF811179CF0E9409
:1031C0004925909338038093370372CFD111F7CFFD
:1031D00080E0EECF8C2FCDB7DEB7E8E00C94FE2F69
:1031E000E42FF0E0EE0FFF1FE351FE4F9081921BA2
:1031F00097FD9195292F38E1239F212D1124620FEE
:103200000895A22F50E0FA01EE0FFF1FE251FE4F8A
:103210009081905297FD9195440F551FFA01E3510B
:10322000FE4F3081232F30E02A1B3109290F311D39
:1032300097FD3A95620F0895E42FF0E0EE0FFF1F1F
:10324000E251FE4F6081621B0895E42FF0E0EE0F23
:10325000FF1FE351FE4F6081621B0895622F0895A6
:10326000E42FF0E0EE0FFF1FE351FE4F408134EEFC
:10327000439F412D1124E82FF0E050E0445E5F4F62
:10328000DA01A21BB1099D01B7FF03C03195219559
:10329000310993E0220F331F9A95E1F7AF01421BEA
:1032A000530B9A0157FF02C020E030E0582F259FB2
:1032B000212D1124822F0895E42FF0E0EE0FFF1F3F
:1032C000E351FE4F408134EE439F412D1124E72FFF
:1032D000F0E050E0445E5F4FDA01A21BB1099D01AE
:1032E000B7FF03C031952195310993E0220F331FB9
:1032F0009A95E1F7AF01421B530B9A0157FF02C0A9
:1033000020E030E0279F212D1124722F0895482FAF
:10331000982F46FD9095E92FEF739F7046FD9F5FB4
:10332000E295EF70EE0FF0E0EB57FE4F2181299F01
:10333000802D212D112482958F702295207F822B44
:103340003081982F930F892F47FD819580580895DC
:103350000F931F93CF93DF93D62F072F182FC42FD0
:10336000822F0E948719EC2FF0E0EE0FFF1FE35130
:10337000FE4F90819058890F87FD8195880F682FA7
:103380002CE0629F612D11246D0F702F812FDF9132
:10339000CF911F910F91089540910B0150910C0115
:1033A00025E038E0429FC001439F900D529F900D51
:1033B0001124875E994C90930C0180930B01890F27
:1033C0000895BC018230910508F40895613E8EE1B4
:1033D000780748F49B0195E0369527959A95E1F793
:1033E00048E0420F01C04FEF91E0242F30E0290F59
:1033F000311D35952795229FF001239FF00DF00D8B
:1034000011246E177F0718F44FEF420F04C02F3FAF
:1034100039F091E0920F491740F78FEF890F089527
:103420008FEF08950F93CF93DF93D72FC82F47FDCA
:103430004195E8E3F0E0CF01841B910947FD9395A6
:10344000889FB001899F700D700D1124229FC001CB
:10345000239F900D900D1124860F971F0E94E11954
:10346000682F660F860F682F600F7D2F8C2FDF91DE
:10347000CF910F9108950E94542308950E9416231E
:103480000895E3ECF5E085E2808380913D01909121
:103490003E01A0913F0181839283A3838CE38483C7
:1034A0008FEF858346E050E06CE170E0CF010E9431
:1034B00098301092C205089520E030E0869F212DBB
:1034C000969F200D311D1124C9010895A0E0B0E0A0
:1034D000ECE6FAE10C94E22FF62E472FE82FF0E00D
:1034E000711106C0E25DF74F8491782F682F73C089
:1034F000272F30E0E25DF74FE491FE2F0E2F10E012
:1035000056E0659FC0011124CFEFD0E0BE010E94BC
:10351000C42F5BEA5603C001579F900D11248F0DF5
:10352000911D8F0D911D982F990F980F7E01E21A12
:10353000F30AE09ED001E19EB00DF09EB00D112483
:103540008B2F499FA0011124452F55277E01E41A96
:10355000F50AE09EA001E19E500DF09E500D112451
:103560006E01C91AD108C29E7001C39EF00CD29E92
:10357000F00C11242F2D3327C21BD30BC09F9001B9
:10358000C19F300DD09F300D1124932F62307105F3
:1035900091F048F461157105E1F061307105B9F4FD
:1035A0009E2FE52F16C06430710569F040F066303B
:1035B000710579F00CC09E2FEB2F832F0AC0EB2FE3
:1035C0008F2F952F06C09B2F8E2FE32F02C09B2F8E
:1035D000852F7E2F692FCDB7DEB7E8E00C94FE2F44
:1035E000A0E0B0E0E6EFFAE10C94E12FD82F809153
:1035F00038018D130DC02091C305237030E0409138
:10360000370150E081E02417350719F480E001C04C
:1036100081E0817080933B018091C80590913A01CF
:10362000981739F080933A0140E060E080E00E9412
:103630003B1AD93019F485E299E10DC0DA3008F06F
:1036400097C1D43009F442C008F47FC0D63009F0E5
:103650003DC18CE599E10E94892EC82F23C080913D
:103660003901DC3009F029C1C82FCC0FCC0FC80FAD
:1036700055E0F52EFC0E80E38F1510F440E3F42E98
:103680006091C70566958091BA059091BB050E942F
:103690005C1AE82ECF1508F4C0C1C1E0FFE2FF15A7
:1036A00008F47DC0809139018F5F80933901C11189
:1036B0006DC382E080933C0180913B01811166C320
:1036C000D11164C383E080933C0160C380913901D0
:1036D000C82FCC0FCC0FC80F15E01C0F113308F00A
:1036E00010E3D090C505C090C6052091C70500E441
:1036F000029F012D1124C11708F041C0EC2EF12CBE
:10370000F701E35BFD4F908180913A018923D9F065
:10371000F701EE0FFF1FE351FE4F6081069FB001DE
:103720001124E5E075956795EA95E1F78091C40568
:10373000680F7D2D8C2D0E94661A462F282F672F2B
:10374000C7010E943E1ACF5FD6CFD130E9F48091F5
:103750003901C82FCC0FCC0FC80F15E01C0F113347
:1037600008F010E36091C4057091C5058091C6050D
:103770000E94661A062FF72EE82EC11790F0C1E0BE
:10378000103308F48FCF0BC0D130E8F480913B01A7
:10379000882329F040E060E080E00E943B1AC0E00E
:1037A00081CFEC2FF0E0DF01A35BBD4F8C919091B6
:1037B0003A01982331F02E2D402F6F2DCF010E941A
:1037C0003E1ACF5FDACF80913901D230D1F5C82FC0
:1037D000CC0FCC0FC80F15E01C0F113308F010E30D
:1037E000F090C5050091C605E090C405B701802F93
:1037F0000E94661AD62EC72EB82E6091C7056E0D90
:103800007F2D802F0E94661A062FF72EE82EC117F3
:1038100008F0B5CF8C2F90E0FC01E35BFD4F3081C9
:1038200020913A01232359F030FF04C02E2D402F60
:103830006F2D03C02B2D4D2D6C2D0E943E1ACF5F96
:10384000E6CFD33009F03CC0C82FCC0FCC0FC80F47
:1038500015E01C0F113308F010E3D090C505C0909F
:10386000C6052091C70500E4029F012D1124C11750
:1038700008F085CFEC2EF12CF701E35BFD4F908132
:1038800080913A018923B9F0F701EE0FFF1FE25151
:10389000FE4F808182958F706091C405809F600D7E
:1038A00011247D2D8C2D0E94661A462F282F672FFC
:1038B000C7010E943E1ACF5FDACFDD3009F4EFC0B6
:1038C000809139018F5F80933901F3CED63008F0B3
:1038D00044C080913901C82FCC0FCC0FC80F15E020
:1038E0001C0F113308F010E3F090C4050091C505DA
:1038F000E090C6056091C7056695669566958091CE
:10390000BA059091BB050E945C1A0E9487198058E5
:1039100087FD8195880F282F3E2D239F212D11246F
:10392000822F6F2D702F0E94661A062FF72EE82E19
:10393000C11708F024CFEC2FF0E0DF01A35BBD4FEF
:103940008C9190913A01982331F02E2D402F6F2DBC
:10395000CF010E943E1ACF5FEBCFD73019F480E33E
:1039600099E179CED83009F0ABCF8EE299E173CEF0
:10397000DE3009F044C080913901C82FCC0FCC0F44
:10398000C80F15E01C0F113308F010E3F090C505C7
:103990000091C605E090C4056091C70566956695DF
:1039A00066958091BA059091BB050E945C1A0E94B1
:1039B0008719805887FD8195880F682F2CE0629FBA
:1039C000612D11246E0D7F2D802F0E94661A062F07
:1039D000F72EE82EC11708F0D2CEEC2FF0E0DF0171
:1039E000A35BBD4F8C9190913A01982331F02E2D1D
:1039F000402F6F2DCF010E943E1ACF5FEBCFDF30FB
:103A000008F092C0DB3019F481E099E124CEDB307C
:103A100008F025CE8CE199E11ECE0C2F10E0F801C4
:103A2000E35BFD4F908180913A018923B1F1F80168
:103A3000EE0FFF1FE351FE4F408150E04057510908
:103A4000F801EE0FFF1FE251FE4F208130E02052BF
:103A50003109449FB001459F700D700D1124229FC4
:103A6000C001239F900D900D1124860F971F0E9477
:103A7000E1199091C505E3E08E9FB0011124759581
:103A800067956E0D792F8091C6050E94661A462FA4
:103A9000282F672FC8010E943E1ACF5FFBCDC82F89
:103AA000CC0FCC0FC80F15E01C0F113308F010E33A
:103AB0006091C70566958091BA059091BB050E94FB
:103AC0005C1AD82EC11708F05ACEEC2EF12CF70153
:103AD000E35BFD4F908180913A01892319F1F70151
:103AE000EE0FFF1FE251FE4F208130E020523109DE
:103AF000F701EE0FFF1FE351FE4F408150E04057AA
:103B000051096091C4057091C5058091C6050D2DC0
:103B10000E94121A0E94661A462F282F672FC7018B
:103B20000E943E1ACF5FCECFD03119F480EF98E1DA
:103B300092CDD03118F488EA99E18DCDD13109F0D8
:103B4000F1C04091D7035091D8036091D90370918F
:103B5000DA038091BA059091BB05A091BC05B091A4
:103B6000BD0584179507A607B70708F418CE8091FE
:103B70003B0181110DC080913901C82FCC0FCC0FB2
:103B8000C80F05E00C0F013308F454C000E352C025
:103B900040E060E080E00E943B1AC7E4EC2EC3E006
:103BA000FC2E00E010E0CFE70E94CC1981FF05C099
:103BB000F7011082118212821DC00E94CC19B82E0A
:103BC0000E94CC198695782F2C2F720F08F47FEF66
:103BD000C801880F991F800F911FFC01E95BFC4F02
:103BE0006F016B2D8091C6050E94661AF6016083F5
:103BF000718382830F5F1F4FF3E0EF0EF11C0033E0
:103C0000110591F6B8CF8C2F90E0FC01E35BFD4FDE
:103C1000308120913A01232361F0FC01EE0FFF1F58
:103C2000E80FF91FE95BFC4F2281408161810E940E
:103C30003E1ACF5FC01738F3C1E0003308F0C0E090
:103C4000003308F42FCD20E010E001501109822F3D
:103C500090E080179107CCF4AC01440F551F480F3A
:103C6000591F495B5C4F0196FC01EE0FFF1F8E0F41
:103C70009F1FFC01E95BFC4F80819181A281FA01C9
:103C800080839183A2832F5FE2CF0E94CC197801B9
:103C9000EE0CFF1C81FF09C00E0D1F1DF801E95B32
:103CA000FC4F10821182128218C00E94CC19D82EAB
:103CB0000E94CC198695782F2FE7720F08F47FEFBA
:103CC0000E0D1F1D095B1C4F6D2D8091C6050E94B6
:103CD000661AF8016083718382832091C70530E101
:103CE000230F08F42FEF60E1822F90E00E945C1A0E
:103CF000BC0188EB9BE00E94C42F8091BA05909193
:103D0000BB05A091BC05B091BD05860F971FA11DF5
:103D1000B11D8093D7039093D803A093D903B09398
:103D2000DA03C0CCDF3F09F0CBCD8091BA0590918A
:103D3000BB05A091BC05B091BD0588279C70AA2742
:103D4000BB272AE0B695A795979587952A95D1F731
:103D500082309105A105B10571F083309105A1056F
:103D6000B10569F040E00197A105B10511F060E0EF
:103D700008C064E102C044E160E080E003C044E1C7
:103D800064E184E10E943B1A82E09DCCCDB7DEB7AE
:103D9000E9E00C94FD2F0E94492520914303211155
:103DA00004C020914403222321F090934103809387
:103DB000400320914503211104C020914603222392
:103DC00021F090933F0380933E03E0918505F091AD
:103DD0008605309731F00480F581E02D82E493E090
:103DE00009950895ACE5B0E0E8EFFEE10C94DB2F17
:103DF00085B7806885BF85B7806885BF84B7877FB2
:103E000084BF0FB6F894A895809160008861809374
:103E10006000109260000FBE90E080E80FB6F8944A
:103E200080936100909361000FBE8FEB92E19093BD
:103E30007F0280937E020E9406110E9425118091CC
:103E4000E20084608093E20078948091C105882329
:103E5000A1F01091E9001F709091EC00892F817002
:103E600090FD80E8182B1092E9008091E80083FD16
:103E70000E94F00D1F701093E90082E084BD93E072
:103E800095BD9AEF97BD80936E000E94182990E02F
:103E900090931A01809319010E94532A0E94992A33
:103EA000EDEDF3E0ADEEB3E011921D9223E0EB3EB9
:103EB000F207D1F78EE090E00E94E5328093DB03B9
:103EC0009093DC03FC010E961192E817F907E1F7D5
:103ED00089EA8093800089E08093810024982C985F
:103EE0003F988AB18F7C8AB96E98479A8BB180636C
:103EF0008BB9769A8FE090E00E948C3060931F041B
:103F000070932004809321049093220467703FEF04
:103F1000639FB0011124759567957595679577270F
:103F2000709389006093880070938B0060938A007F
:103F300070938D0060938C000E948F2980E090E048
:103F40000E949230883E9E4F11F00E94B91482E088
:103F500090E00E9484308093FB0384E090E00E9414
:103F60008430182F82E290E00E948430212F30E0CC
:103F7000382B309386022093850283E090E00E94E4
:103F8000843090E00E94B82B80911D0490911E0413
:103F90000E946E280E945C260E944F260E944F2697
:103FA0008091C20581608093C2058DE091E090937D
:103FB000860580938505F8E1EF2EF12C11E001E0F4
:103FC0008091C105853009F073C050E4B52E63E0DF
:103FD000A62E70E1C72EE2E1DE2E8091C10585306C
:103FE00009F05EC08091C105843009F436C00E949A
:103FF0007A268091230481110DC00E94F01A10923C
:1040000038018091C3058370809337010E94922309
:10401000A0923C0100932304109289050FB6F894F6
:10402000A895E09260000FBEB092600083B7817FD8
:10403000846083BF83B7816083BF7894889583B79A
:104040008E7F83BF0FB6F894A89580916000886139
:1040500080936000109260000FBE8091AF028823B1
:1040600009F4BBCF0E94182990E090931A01809325
:1040700019010E94532A0E94992AEDEEF3E0119251
:1040800083E0EB3FF807D9F70E94C617EDEEF3E0A7
:10409000819181118EC293E0EB3FF907C9F79DCF63
:1040A00010928B020E94F62B0E94D22510922304BC
:1040B0000E94C6174CEFA42E43E0B42EADEEB3E041
:1040C000F50191918D91892724E0EA30F20719F0EA
:1040D0008823B9F332C0811130C00E9449256C0198
:1040E0008091EB039091EC03C816D90609F46BC0DC
:1040F0008FEF64968FAF649765968FAF65976696DE
:104100001FAE66970E9449258160782F68969FAF01
:104110008EAF689764964FAD649765965FAD65976F
:1041200066966FAD669768968FAD68970E949127E7
:10413000D092EC03C092EB0346C03DEE832E33E0F9
:10414000932ED12CF40151904F01F501608065242C
:1041500089F1C12C77247394862D872121F16996EA
:10416000CFAE69976A96DFAE6A9791E0852D872179
:1041700009F490E06B969FAF6B970E944925816090
:10418000782F6D969FAF8EAF6D9769964FAD6997FB
:104190006A965FAD6A976B966FAD6B976D968FADB4
:1041A0006D970E949127C394770CF6E0CF12D4CF7D
:1041B000F5015082D394FFEFAF1ABF0A2EE0D2125E
:1041C000C1CF0E943D258091810590918205892B68
:1041D000C9F080910A0490910B040E94B012893CAE
:1041E000910580F0809181053EE0839FC0011124FC
:1041F000FC01E05EFE4F208122FD04C0855E9E4FE3
:104200000E94FD250E947A2685E0E2E4F3E0DE01CB
:10421000119601900D928A95E1F710924303109246
:1042200044031092450310924603DA80D11004C073
:104230008B81882309F450C0809140039091410301
:104240000E94B0129C019091B805992309F4C9C14C
:104250002531310508F440C09F3F19F09F5F9093CE
:10426000B805DD2061F00E948C2D1D1414F491E03E
:1042700001C09FEF899F802D112480934303DB8031
:10428000DD2061F00E948C2D1D1414F491E001C01A
:104290009FEF899F802D1124809344033091430325
:1042A0003323D1F0209144032223B1F045EB3403B2
:1042B000C0011124992319F09093430302C0109375
:1042C000430335EB2303C0011124992319F0909384
:1042D000440302C010934403DC80D11004C08D81DC
:1042E000882309F450C080913E0390913F030E94BF
:1042F000B0129C019091B705992309F476C125313C
:10430000310508F440C09F3F19F09F5F9093B705B7
:10431000DD2061F00E946C2D1D1414F491E001C0A9
:104320009FEF899F802D112480934503DD80DD2040
:1043300061F00E946C2D1D1414F491E001C09FEFF8
:10434000899F802D112480934603309145033323A8
:10435000D1F0209146032223B1F045EB3403C00194
:104360001124992319F09093450302C0109345033B
:1043700035EB2303C0011124992319F090934603D0
:1043800002C01093460345E050E0BE016F5F7F4FCF
:1043900082E493E00E940634892BA9F480914303C0
:1043A00081110FC08091440381110BC0809145039E
:1043B000811107C081E090914603911103C080E014
:1043C00001C081E080FD0E94CB1E85E0FE01319698
:1043D000A2E4B3E001900D928A95E1F70E94D22504
:1043E00090910C04891721F080930C040E943D25C4
:1043F0008091C105843009F0E3CD8093E90080917C
:10440000E80082FFDDCD8091E80085FF24C00E9496
:10441000571281111EC020E2C22ED12C5E0141E252
:10442000A40EB11C09C08091F100F50181935F01D8
:10443000F1E0CF1AD10869F08091E80085FDF3CF53
:104440008091E8008B778093E8000E9457128823C0
:1044500099F391E001C090E08091E8008B77809320
:10446000E800992309F4ACCD89A18230C9F070F439
:104470008823D1F1813009F0A3CD83E1C82E84E0F7
:10448000D82E99E1A92E94E0B92E3BC0853009F4CD
:1044900087C0863009F484C0843009F091CD73C0A0
:1044A0008BA19AA190930D0480930E048DA19CA1E1
:1044B00090930F04809310048FA19EA190931104F8
:1044C0008093120442E150E063E270E0CE018F5B22
:1044D0009F4F0E94743084E089831093BF058EEF54
:1044E0008A831092BE0560C019828CE0EDE8F1E08D
:1044F000DE01129601900D928A95E1F78EEF8D877D
:1045000053C00E942826F601819391936F01AE1645
:10451000BF06B9F71983809113048A83809114042C
:104520008B83809115048C83809116048D838091F8
:1045300017048E83809118048F838EEF88871093E1
:10454000BE05CE0101960E945D2E42E150E063E27D
:1045500070E0CE0101960E947430FE01319682E136
:1045600083301CF09189928B01C0128A815031975F
:104570008F3FB1F742E150E063E270E0CE01019677
:104580000E9498301DCD8091BF05882309F418CD75
:1045900080E090E00E946A2B8AA10E94A82B10CD97
:1045A0008FEF898384E08A83CE0101960E945D2E7D
:1045B00007CDC9BCD9BC09B400FEFDCF8091D8009D
:1045C0008F7D8093D8008091E00082608093E0002E
:1045D0008091E00081FDFCCF10928B020E94F62BAF
:1045E000FCCC232B09F03ACE77CE2139314008F0AC
:1045F0008CCEC9CEE3ECF5E0248130E1231B08F436
:1046000020E024838091C20581608093C2050895D3
:10461000E3ECF5E0248130E1230F08F42FEF24834D
:104620008091C20581608093C2050895A4E0B0E046
:10463000ECE1F3E20C94E52F8033910588F5122F1D
:10464000042FF62EBC01660F771F660F771F625D81
:10465000764F44E050E0CE0101960E946B30898194
:1046600083704A81282F30E050E9859FC0011124D2
:10467000865C9B4FFC01E40FF11DB497F0824B81E7
:10468000FC01E40FF11DB49700834C81840F911D50
:10469000FC01B4971083F901E85CFB4F81E0808353
:1046A0002496E5E00C940130FF920F931F93CF9373
:1046B000DF93182F062FF42EC0E0D0E02F2D402FCF
:1046C000612FCE010E9416232196C033D105B1F788
:1046D000CDB7DEB7E5E00C9401300F931F93CF9375
:1046E000DF93082F000FEB0114E210932404E5E29E
:1046F000F4E0DE018D91819384E0E533F807D1F792
:1047000023E030E041E150E064E274E0802F0E9459
:104710009F2F105F6096143B41F7DF91CF911F915F
:104720000F91089580913804882329F06AE374E09A
:1047300084E70E946D231092380480913904882305
:1047400029F06AEC74E087E70E946D231092390427
:104750000895E4E2F4E06083418323E030E042E046
:1047600050E0BF01880F0E949F2F0895A0E0B0E0A5
:10477000ECEBF3E20C94E32F262F30E0A901425832
:104780005A4F7A01FA019081911107C0F701108206
:10479000CDB7DEB7E7E00C94FF2FD82EF2E16F9F84
:1047A000E001112400E010E0F801EC0FFD1FE65AD3
:1047B000FA4F4081602F8D2D0E94A9230F5F1F4F5C
:1047C0000231110589F7E2CFCF93DF93C82F4BE079
:1047D0006DEF0E94A92340E06AE08C2F0E94A9237C
:1047E0008FE39CE90197F1F700C0000040E060E032
:1047F0008C2F0E94A92340E061E08C2F0E94A92306
:1048000040E066E08C2F0E94A92340E06DEF8C2FE2
:104810000E94A923D0E040E06D2F8C2F0E94A92395
:10482000DF5FD231C1F740E06D2F8C2F0E94A923AA
:10483000DF5FD432C1F740E06D2F8C2F0E94A92397
:10484000DF5FD43BC1F74BE06DEF8C2F0E94A923B3
:1048500041E06AE08C2F0E94A92340E06DEF8C2F8D
:104860000E94A923DF91CF910895A4E0B0E0EBE38B
:10487000F4E20C94DC2F0E94D32E84E70E94E42300
:1048800087E70E94E4230EE219E072E1772EE8E068
:10489000CE2ED12CEE24E394F12C6624639444E0D4
:1048A00050E0B801CE0101960E946B302A8130E0C1
:1048B000C9018497AB80B12C44E2A41AB108EC8101
:1048C000F0E0B497AC0197FF02C0495F5F4F63E02F
:1048D000559547956A95E1F72981237030E0729EDE
:1048E000B001739E700D1124665A7A4F4B01840EED
:1048F000911CB6010E94CB32D70102C0AA0FBB1F88
:104900008A95E2F7CD01D4019C91892B8C93C50146
:10491000B7FC079653E0959587955A95E1F7729EF7
:10492000A001739E500D1124465A5A4F4A01880E19
:10493000911CC501B6010E94CB32A70102C0440FF1
:10494000551F8A95E2F7CA01D4019C91892B8C935B
:10495000CF01F7FD079643E0959587954A95E1F7D6
:10496000729EA001739E500D1124465A5A4F5A014F
:10497000A80EB11CCF01B6010E94CB32F70102C0D4
:10498000EE0FFF1F8A95E2F7CF01D5019C91892B8D
:104990008C93F901E258FA4F60820C5F1F4FB9E027
:1049A0000E3E1B0709F07BCF60E084E70E94B62330
:1049B00061E087E70E94B6232496EEE00C94F82F7E
:1049C000E3ECF5E0438120E1421B08F440E0818103
:1049D000628190E00E940A2E0895E3ECF5E04381A5
:1049E00020E1420F08F44FEF8181628190E00E9444
:1049F0000A2E0895E3ECF5E0628120E1621B08F4E1
:104A000060E08181438190E00E940A2E0895E3ECEA
:104A1000F5E0628120E1620F08F46FEF818143814C
:104A200090E00E940A2E0895E3ECF5E0818190E089
:104A30004381628108970E940A2E0895E3ECF5E015
:104A4000818190E04381628108960E940A2E089538
:104A50008091C30586958695815009F481E10E9475
:104A60001A2E08958091C305869586958F5F8231B1
:104A700008F081E00E941A2E08952FB7F8946091F3
:104A800081027091820280918302909184022FBFF3
:104A900008952FB7F8948091810290918202A0919D
:104AA0008302B09184022FBF08951F920F920FB618
:104AB0000F9211248F939F93AF93BF938091890599
:104AC000811113C08091810290918202A091830292
:104AD000B09184024196A11DB11D809381029093F3
:104AE0008202A0938302B0938402BF91AF919F9101
:104AF0008F910F900FBE0F901F90189520910A0173
:104B00002223C9F02091850227FF15C0262F269564
:104B1000269526952E31C8F4FC01E20FF11D677031
:104B200081E090E001C0880F6A95EAF78095928154
:104B3000892382830895FC0106962281621301C0B5
:104B400012823196E817F907C1F708952091870579
:104B5000309188052817390771F090938805809364
:104B60008705E0918505F0918605309721F0008456
:104B7000F185E02D099508952091830530918405F4
:104B80002817390771F09093840580938305E0918D
:104B90008505F0918605309721F00680F781E02D9C
:104BA00009950895E0918505F0918605309729F0E3
:104BB0000190F081E02D0995089580E00895CF934C
:104BC000DF93EC01EA85FB85309719F06C857D85D4
:104BD00009958B818095909180058923809380052C
:104BE0008C810E9437150E943E1586E0FE011192CD
:104BF0008A95E9F7DF91CF910895CF93DF93EC0188
:104C00008D8181FD18C082608D83909180058B819C
:104C1000892B8093800590918B028C81892B8093C6
:104C20008B020E943E15E885F985309721F06C854E
:104C30007D85CE01099510928205109281058D81A6
:104C400080FD03C0CE010E94DF25DF91CF91089542
:104C5000CF93DF930E945B3066E070E00E94CB321E
:104C6000D82F0E945B306EE070E00E94CB32C82FDC
:104C70006D2F782F80E00E9404130497C59718F4D5
:104C80008D2F9C2F02C00E942826DF91CF9108957E
:104C9000882311F0FA0101C0FB0109950895809164
:104CA000C305837011F410923C018091C3058C7F81
:104CB00081608093C30508950E94352480E090E0D0
:104CC0000E949230883E9E4F21F00E94B9140E94AB
:104CD000411A46E050E06CE170E083EC95E00E9400
:104CE00074301092C2058091C3058C7F11F40E942C
:104CF000411A0895CF930E943D2560931904709343
:104D00001A0480931B0490931C0420912304211106
:104D100008C0C091C3052C2F237019F0C695C69505
:104D200001C0C0E020913C012130A1F038F02230D8
:104D300009F483C0233009F48DC0B7C01092390143
:104D40006093BA057093BB058093BC059093BD0535
:104D500081E07DC08C2F0E94F01ACC2309F4A5C0FD
:104D600080911F0483FDA1C040911D0450911E0439
:104D700060E070E0BB27A72F962F852F0097A10535
:104D8000B10521F4DB01CA01E0E001C0E8E0AC01BB
:104D9000BD01F4E07695679557954795FA95D1F75B
:104DA000411551056105710519F0EC5FDB01CA0180
:104DB000AC01BD0132E076956795579547953A95D8
:104DC000D1F7411551056105710519F0EE5FDB0161
:104DD000CA01B695A79597958795892B8A2B8B2B1A
:104DE00009F0EF5F8E2F90E0FC013197E730F1057D
:104DF000D8F4E459FF4F0C94DF3281E090E002C018
:104E000082E090E00E949A2850C083E090E0FACFC0
:104E100084E090E0F7CF85E090E0F4CF86E090E08A
:104E2000F1CF87E090E0EECF8091C80581113DC0C1
:104E300040E060E00E943B1A38C0C0933801809186
:104E4000C3058370809337010E94922383E080938F
:104E50003C012BC08091C205882351F046E050E010
:104E60006CE170E083EC95E00E9498301092C205EE
:104E70004091BA055091BB056091BC057091BD058C
:104E80002FB7F8948091810290918202A0918302C1
:104E9000B09184022FBF841B950BA60BB70B4A97CA
:104EA000A105B10510F010923C01CF910895FC01CD
:104EB0008281813039F4958192FD12C090FF10C03B
:104EC00082E00895823039F4858182FD06C080FD3C
:104ED00006C083E0089586E0089585E0089584E0A3
:104EE00008958FE39CE90197F1F700C00000089551
:104EF0008FE39CE90197F1F700C0000008950E943C
:104F00005727833021F481E090E00E946A2B0895B6
:104F10000E945727833021F482E090E00E946A2BA0
:104F20000895A7E1B0E0E7E9F7E20C94E72F4B8B97
:104F30005C8B6D8B7E8B8F8B61111092800586E070
:104F40009E01235F3F4FD901E82F1D92EA95E9F7B3
:104F500095E0FE017396D90101900D929A95E1F7C3
:104F60009C894E895F897B897D879E876F87598B56
:104F7000488BF901DE01179601900D928A95E1F7B1
:104F8000CE0107960E943F1681113EC086E0FE01C9
:104F90003796DE01119601900D928A95E1F7FF8117
:104FA000E8856A857B856115710531F0EF3F31F445
:104FB00081E0FF3F19F403C081E001C080E080FD83
:104FC00023C02091DF0230E0C90101968770992744
:104FD0004091100350E08417950779F1F983EA8333
:104FE0007D836C8396E0929FD001939FB00D112436
:104FF000A052BD4FFE01319601900D929A95E1F7B6
:105000008093DF020E94CC1516E0809110039091EE
:10501000DF02891709F1189FC001112480529D4FAA
:105020000E943F168823C1F08091100390E0019602
:105030008770992780931003E8CF10928B020E940B
:10504000F62B1092DF0210921003E9EDF2E086E0F9
:10505000DF011D928A95E9F76796E3E00C9403302F
:10506000292F33272115310519F0C90148E001C066
:1050700040E09C0164E0369527956A95E1F721159B
:10508000310511F04C5FC9019C0136952795369585
:1050900027952115310511F04E5FC9019C01369508
:1050A0002795232B09F04F5F842F089510928B02D0
:1050B0000E94F62B2FEF84E39CE02150804090402B
:1050C000E1F700C000009AE088E10FB6F894A895D7
:1050D000809360000FBE90936000FFCFCF93DF936B
:1050E000EC010E94302856985E9825982D982698B5
:1050F0002E9827982F9890E0FC013197E730F10522
:10510000A8F4ED58FF4F0C94DF32259A2D9A0EC06B
:10511000259A2D9A269A2E9A09C0259A2D9A04C06E
:10512000259A2D9A269A2E9A279A2F9ACE01DF91A8
:10513000CF910895A0E0B0E0E0EAF8E20C94D92F16
:1051400020E9289F7001299FF00C1124C0E0D0E0D5
:1051500000E010E067018FEFC81AD80A570182E01B
:10516000A80EB11CF701EC0FFD1FE251F64F649140
:10517000F601EC0FFD1FE251F64F7491F501EC0FB3
:10518000FD1FE251F64F8491611107C0711105C0F6
:10519000811103C020E040E03CC00E94661A962EB8
:1051A000372E882E6091C60570E080E090E00E9466
:1051B000D03120E030E04FE753E40E942F312B0143
:1051C0003C01682D70E080E090E00E94D231A301A4
:1051D00092010E945E320E94A131862E692D70E0FC
:1051E00080E090E00E94D231A30192010E945E32E1
:1051F0000E94A131962E632D70E080E090E00E9425
:10520000D231A30192010E945E320E94A131282D69
:10521000492DC8010E943E1A0F5F1F4F2396C039C7
:10522000D10509F09FCFCDB7DEB7E1E10C94F52FA2
:1052300080E290E090931A018093190180918A0591
:1052400081110EC00E94D32E81E080938A052FEF3A
:1052500083ED90E3215080409040E1F700C00000D2
:1052600060E570E080E40E94D92E90931A0180934B
:105270001901892B09F04EC060E570E080E00E94C2
:105280004C2F90931A0180931901892B09F042C089
:1052900060E570E080E00E944C2F90931A018093AB
:1052A0001901892BB9F560E570E08FE30E944C2F5E
:1052B00090931A0180931901892B61F50E94C02FE8
:1052C00060E570E080E40E94D92E90931A018093EB
:1052D0001901892BF9F460E570E08CE00E944C2FF5
:1052E00090931A0180931901892BA1F460E570E075
:1052F00080E00E944C2F90931A0180931901892B12
:1053000049F460E570E08FE30E944C2F90931A01FE
:10531000809319010E94C02F809119010895CF93A5
:10532000DF9356985E9825982D9826982E98279862
:105330002F98C8E8D0E08FEF90E099838883AAE89F
:10534000B0E011969C938E93ECE8F0E0918380831B
:10535000259A2D9A2FEF80E792E0215080409040CF
:10536000E1F700C00000269A2E9A2FEF80E792E026
:10537000215080409040E1F700C00000279A2F9A0A
:105380002FEF80E792E0215080409040E1F700C08D
:10539000000025982D982FEF80E792E02150804063
:1053A0009040E1F700C0000026982E982FEF80E78C
:1053B00092E0215080409040E1F700C00000279823
:1053C0002F9880911F0487702FEF829FC0011124B6
:1053D00095958795959587959927998388831196B3
:1053E0009C938E939183808356985E9825982D98F0
:1053F00026982E9827982F98DF91CF910895CF93D4
:10540000E82F873080F58091190190911A01892B3E
:1054100009F047C0CE2F60E570E080E40E94D92EED
:1054200090931A0180931901892BD1F460E570E003
:1054300082E10E944C2F90931A0180931901892BCD
:1054400079F481E090E001C0880FCA95EAF760E541
:1054500070E080950E944C2F90931A01809319015F
:105460000E94C02F1EC090E0FC013797E730F10585
:10547000C0F4E658FF4F0C94DF32209A289811C0F0
:10548000219A29980EC0229A2A980BC0239A2B9809
:1054900008C0529A5A9805C0539A5B9802C03E9A27
:1054A0004698CF9108952098289821982998229875
:1054B0002A9823982B9852985A9853985B983E981C
:1054C00046980895CF93873040F5809119019091C7
:1054D0001A01892B59F560E570E081E40E94D92E0C
:1054E00090931A0180931901892B11F0C0E011C02B
:1054F00080E590E00E947B2F97FF05C090931A01F2
:1055000080931901F3CFC82FC09510921A01109201
:1055100019010E94C02F8C2F0AC09FB18FB1807FCC
:10552000869586959370892B809501C080E0CF91F8
:1055300008958098889A8198899A84988C9A8598F9
:105540008D9A86988E9A87988F9A089580E090E039
:105550000E94BC2580E090E00E94A6251092800564
:105560000E943E15E2E4F3E085E0DF011D928A959A
:10557000E9F71092B8051092B7051092B9050E948C
:10558000CB1E0895A0E0B0E0E8ECFAE20C94E12F25
:105590007C0100911D0410911E04809133039091B1
:1055A0003403082B192BCFE0D0E0CC24C394D12CAA
:1055B000C6010C2E02C0880F991F0A94E2F78023BF
:1055C0009123892B21F4219798F7B12C09C0BC2E87
:1055D000B7018C2F0E9404130E941D13019799F3A9
:1055E0008B2DCDB7DEB7E9E00C94FD2FCF93DF9381
:1055F000EC010E94C22ABE010E9404130E941D13E6
:10560000DF91CF9108959E3078F5863068F5E82FC8
:10561000F0E086E0989FE00DF11D11249E2F977019
:1056200083E0F695E7958A95E1F7EE0FFF1FEE0F01
:10563000FF1FE557FA4F40E050E080E0219130E055
:10564000092E02C0369527950A94E2F72170332778
:10565000042E01C0220F0A94EAF7822B4F5F5F4F9E
:105660004430510559F7089580E008959E3088F53B
:10567000863078F5E82FF0E086E0989FE00DF11D88
:1056800011248E2F877051E001C0550F8A95EAF7DB
:1056900083E0F695E7958A95E1F7EE0FFF1FEE0F91
:1056A000FF1FE557FA4F20E030E070E04081CB016A
:1056B000022E02C0969587950A94E2F78170819533
:1056C00084278523842781932F5F3F4F2430310522
:1056D00069F70895A0E2B0E0E0E7FBE20C94E62F62
:1056E0000E946E288C018091BF058823A9F02FEFBE
:1056F00080E792E0215080409040E1F700C0000038
:1057000085E08983C8010E9430288A838EEF8B83CD
:10571000CE0101960E945D2E10931E0400931D047D
:105720000E94A62AA096E4E00C94023021E030E02A
:1057300002C0220F331F8A95E2F7209530958091A1
:105740001D0490911E04822393230E946A2B0895C6
:1057500021E030E002C0220F331F8A95E2F78091EA
:105760001D0490911E04822B932B0E946A2B089596
:1057700090933403809333030E94A62A0895CF9315
:10578000FC018081918123813481232B31F09F3F63
:1057900031F491E08F3F19F403C091E001C090E033
:1057A000C92FC17090FD1CC0808191810E94F62A92
:1057B00092959F70963079F010F4925001C09A50F3
:1057C000923088F4803F71F018F4883E60F40AC08B
:1057D000843F49F407C0883E28F0813F21F402C08D
:1057E000C0E001C0C1E08C2FCF91089580910A01E3
:1057F000882331F08091850287FF02C08EE101C0CD
:1058000086E0EBEBF2E0DF011D928A95E9F70E945A
:10581000A62A0895882321F00E9437150E943E157C
:105820000895882339F090918B02892B80938B0205
:105830000E943E150895882391F19CEF980F913AAC
:1058400030F4682F89EB92E00E947E250DC090E233
:10585000980F983060F4877091E001C0990F8A9595
:10586000EAF7892F0E9437150E943E1508959BE59F
:10587000980F933028F480E090E00E94BC250895B2
:1058800098E5980F973128F480E090E00E94A625D3
:1058900008958D3E20F00E94F52C0E94CB1E0895A5
:1058A000CF93882309F49FC0C82F8CEF8C0F813AC7
:1058B00008F05BC080910A018823E1F080918502A5
:1058C00087FF18C0EC2FE695E695E695F0E0E754E3
:1058D000FD4F8281282F30E04C2F477081E090E00F
:1058E00002C0880F991F4A95E2F782239323892BE0
:1058F00059F411C0EBEBF2E08191C81729F082E076
:10590000E13CF807C9F707C06C2F89EB92E00E94D1
:105910007E250E943E1580910A018823B1F0809176
:10592000850287FF12C0EC2FE695E695E695F0E03C
:10593000E754FD4FC77081E090E001C0880FCA9521
:10594000EAF79281892B828320C0ABEBB2E0EFEFC4
:1059500080E09D91C917C9F0EF3F19F4911101C082
:10596000E82F8F5F8630A9F735C080E28C0F883032
:1059700078F4C77081E090E001C0880FCA95EAF71B
:1059800090918B02892B80938B020E943E152BC035
:10599000EBE5EC0FE33040F4F0E0EC5AFE4F808191
:1059A00090E00E94BC251FC0E8E5EC0FE73150F401
:1059B000F0E0EE0FFF1FE95AFE4F808191810E94B7
:1059C000A62511C0CD3E78F08C2F0E94AF2D0E94ED
:1059D000CB1E09C0EF3FC9F20E2E000CFF0BE7549F
:1059E000FD4FC283D2CFCF9108958D3E39F490916F
:1059F000440397FF35C01092440359C08E3E29F4EA
:105A0000909144031916BCF32BC0909143038F3E31
:105A100029F497FF25C01092430349C0803F19F431
:105A20001916CCF31DC090914503893F29F419162E
:105A3000BCF4109245033BC08A3F19F497FF10C095
:105A4000F8CF8B3F39F49091460397FF09C010922D
:105A500046032DC08C3F21F4909146031916BCF3E8
:105A60009FE0980F983080F421E030E0A90102C057
:105A7000440F551F9A95E2F7CA0180959091420311
:105A800089238093420313C08D3F21F48091B9058F
:105A90008E7F0BC08E3F21F48091B9058D7F05C0AC
:105AA0008F3F29F48091B9058B7F8093B905809150
:105AB0004303811106C080914403811102C01092FA
:105AC000B80580914503811106C08091460381117C
:105AD00002C01092B70508958091B90580FD18C0E5
