:100000000C9458060C9475060C9475060C947506A1
:100010000C9475060C9475060C9475060C94750674
:100020000C9475060C9475060C9485320C94573319
:100030000C94FA2A0C9475060C9475060C947506AB
:100040000C9475060C9475060C9475060C94750644
:100050000C9475060C94622B0C9475060C94750622
:100060000C9475060C9475060C9475060C94750624
:100070000C9475060C9475060C9475060C94750614
:100080000C9475060C9475060C9475060C94750604
:100090000C9475060C9475060C9475060C947506F4
:1000A0000C9475060C9475060C947506CD06D00656
:1000B000D306D606D906DC06DF06F709FC09060AD0
:1000C000FA09FF09040A020A4A0B4C0B570B4E0BA4
:1000D000500B520B540B560B590B5B0B5D0B680B03
:1000E0005F0B610B630B650B670B6A0BEF17F21766
:1000F000F517F817FB17FE170118041807180A1848
:100100000D184C204C207E207E20B520D5203E228C
:100110009C2217219C22C421C42135229C229C228E
:100120009622D121D121D121D121D121D121D12179
:10013000D121D121D121D121D121D121D121D1212F
:10014000D121E221EF21F621FD21072229232923B4
:100150003B233B2332233B233B233B2329232923DC
:1001600037233B233B233723C433EB33DD34EB33DB
:10017000DD3437345A34DD34B034BF3405A84CCDC7
:10018000B2D44EB93836A9020C50B9918688083CD1
:10019000A6AAAA2ABE000000803F6572676F646F3E
:1001A000785F657A2F39396439643265303537368E
:1001B000653162666439613638204020302E362E33
:1001C0003232302D362D673438346338352D64693A
:1001D000727479000000F0A100000000000000002F
:1001E000000000000000000000000000000000000F
:1001F00000000000000000000000000000000000FF
:1002000000000000000000000000000000000000EE
:1002100000000000000000000000000000000000DE
:1002200000000000000000000000000000000000CE
:1002300000000000000000000000000000000000BE
:1002400000000000000000000000000000000000AE
:10025000000000000000000000000000000000009E
:1002600000000000000000009AFFFF9AFFFF9AFFC5
:10027000FF9AFFFF9AFFFF9AFFFF9AFFFF9AFFFF87
:100280009AFFFF9AFFFF9AFFFF9AFFFF9AFFFF9ADC
:10029000FFFF9AFFFF9AFFFF9AFFFF9AFFFF9AFF67
:1002A000FF9AFFFF9AFFFF9AFFFF9AFFFF9AFFFF57
:1002B0009AFFFF9AFFFF9AFFFF9AFFFF9AFFFF9AAC
:1002C000FFFF9AFFFF9AFFFF00CCFF9AFFFF9AFF04
:1002D000FF9AFFFF00CCFF00CCFF00CCFF9AFFFF8E
:1002E0009AFFFF9AFFFF9AFFFF9AFFFF9AFFFF9A7C
:1002F000FFFF9AFFFF9AFFFF69FFFF69FFFF69FF9A
:10030000FF69FFFF69FFFF69FFFF69FFFF69FFFFEB
:1003100069FFFF69FFFF69FFFF69FFFF69FFFF6971
:10032000FFFF69FFFF69FFFF69FFFF69FFFF69FFCB
:10033000FF69FFFF00000000000000000000000057
:1003400069FFFF69FFFF69FFFF69FFFF69FFFF00AA
:100350000000000000F9E4FF0000000000000000C1
:1003600000F9E4FFF9E4FFF9E4FF000000000000F9
:10037000000000000000000000000000000000007D
:1003800000000000000000000000000000000EFF60
:10039000FF0EFFFF0EFFFF69FFFF23FFFF23FFFF9D
:1003A00023FFFF0EFFFF69FFFF23FFFF23FFFF2354
:1003B000FFFF000000F9E4FF23FFFF23FFFF23FFFF
:1003C000FF69FFFF00000023FFFF23FFFF00000085
:1003D000000000000000000000000000000000001D
:1003E000000000000023FFFF0000000000000000EC
:1003F0000023FFFF23FFFF23FFFF0000000000009A
:1004000000000000000000000000000023FFFF23A8
:10041000FFFF0000000000000000000000000000DE
:1004200000000000000000000000000000FA9FFF34
:10043000000000000000000000FA9FFFFA9FFFFA92
:100440009FFF00000000000000000000000000000E
:10045000000000000000000000000000000000009C
:10046000000000000000000000000000000000008C
:1004700000000000000EFFFF000000000000000070
:100480000069FFFF0EFFFF69FFFF00000000000092
:10049000000000000000000000000000000000005C
:1004A000000000000000000000000000000000004C
:1004B0000000000000000000000086FFD586FFD588
:1004C00086FFD500000000000086FFD586FFD58698
:1004D000FFD500000000000086FFD555CB9E86FFAB
:1004E000D50000000000000AE1FF0000000000004D
:1004F00000000000000000000000000000000000FC
:1005000000000000000000000000000000000000EB
:1005100000000000000000000000000000000000DB
:1005200000000000000000000000000000000000CB
:10053000000000000000000029002B002A00E1005C
:10054000350000001E00140004001D0034003B00B4
:100550001F001A0015001B000004025120000900B2
:1005600016000600E0002C002100130017001900FF
:10057000E4003A0022000A000700050000006500C0
:1005800003510100000005510000E3000153010088
:10059000000000070000E70023000D000B000E0024
:1005A00000004C0024000F001100100004513C001A
:1005B00025001800080036000100280026001C0055
:1005C0000C0037000100000427003300120038003F
:1005D00001003D002D0031003400E5000100000065
:1005E0000100010001000100010000001E001400D4
:1005F00004001D000100E75C1F001A0016001B002C
:1006000001000100200008000700060001000100B1
:1006100021001500090019000100C35C2200170029
:100620000A00050000000100010010500000010058
:1006300000000100010001000000010000000100B5
:1006400023001C000B001100000001002400180012
:100650000D0010000100C55C25000C000E003600E6
:1006600001000100260012000F0037000100010008
:1006700027001300330038000100C65C01000100B0
:10068000010001000100000001000100580001000C
:10069000010000003A000100010001000100CA5CF5
:1006A0003B00010050000100010001003C0052002D
:1006B00051000100010001003D0001004F00010058
:1006C0000100C95C3E0001000100010000000100C2
:1006D00001001050000001000000010001000100B5
:1006E000000001000000C25C3F002202210225023E
:1006F0000000E75C40002F0226022F000100E85CAA
:1007000041003002270230000100C55C42002D028A
:1007100056001F020100C65C43002E022E0020027C
:100720000100E95C440045000100010001000000F7
:1007300001000100010001000100000001000100B2
:10074000010001000100010001000100F2000100B0
:10075000010001000100F000F1000100F4000100BF
:1007600001000100F3000100F5000100010001009B
:100770000100010000000100010010500000010014
:100780000000010001000100000001000000010064
:100790000100A900AA00A800000001000100240037
:1007A00021001E00010001005400250022001F004E
:1007B00062000C00550026002300200063000100A9
:1007C0005600570000005800010001000100010020
:1007D0000100010001000000010001000100010012
:1007E0000100000001000000000000000100010005
:1007F000000000004A0000000100010000004B0062
:100800004E00000001000100000000004D0000004B
:1008100001000100010000000000000000000100D4
:100820000100105000000100000001000100010063
:1008300000000100000001000100000000000000B5
:100840000000010000000000500000000100010055
:1008500000005200510000000100010000000000F3
:100860004F00000001000100010000000000000036
:100870000100010001000100010001000100000071
:100880000100010001000100010000000100010061
:100890000100010001000100010001000100010050
:1008A0000100010001000100010001000100010040
:1008B0000100010001000100010001000100010030
:1008C0000100010000000100010001000000010022
:1008D0000000010001000100000001000000010013
:1008E00001000100010001000000010001002407D7
:1008F00021071E07010001000100250722071F072D
:100900002707010001002607230720070100010037
:1009100001000100010001000100010001000100CF
:1009200001000100010000000000000000000000C4
:100930002A2B28000000000000000000000000003A
:1009400000000029000000002C1E34202122243445
:100950002627252E362D3738271E1F202122232417
:1009600025263333362E37381F0405060708090AB3
:100970000B0C0D0E0F101112131415161718191A4F
:100980001B1C1D2F3130232D350405060708090ACD
:100990000B0C0D0E0F101112131415161718191A2F
:1009A0001B1C1D2F3130354C0000000000000000E2
:1009B0000000000000000000000000000000000037
:1009C0000000000000000000000101010101010021
:1009D0000101010100000000000000000000000013
:1009E00000000100010001010101010101010101FB
:1009F00001010101010101010101010101010101E7
:100A000001010100000001010000000000000000E1
:100A100000000000000000000000000000000000D6
:100A200000000001010101000000000000010101BF
:100A3000010101010101020202020202020202039B
:100A4000030303030303030404040404040505056A
:100A50000505060606060607070707080808080929
:100A600009090A0A0A0A0B0B0B0C0C0C0D0D0D0ED2
:100A70000E0F0F0F10101111111212131314141561
:100A80001516161717181819191A1A1B1C1C1D1DD4
:100A90001E1F1F2020212222232425252627272828
:100AA000292A2B2B2C2D2E2F2F3031323334353653
:100AB000363738393A3B3C3D3E3F4041424344465D
:100AC0004748494A4B4C4D4F505152535556575831
:100AD0005A5B5C5E5F606263646667696A6C6D6ED8
:100AE000707173747678797B7C7E8081838486884C
:100AF0008A8B8D8F91929496989A9B9D9FA1A3A586
:100B0000A7A9ABADAFB1B3B5B7B9BBBDBFC1C4C683
:100B1000C8CACCCFD1D3D6D8DADCDFE1E4E6E8EB43
:100B2000EDF0F2F5F7FAFCFF0403300000001603C5
:100B30004500720067006F0044006F0078002000DD
:100B400045005A00000016034500720067006F0060
:100B500044006F007800200045005A0000000403A4
:100B6000090409023B00020100A0FA090400000187
:100B70000301010009211101000122400007058144
:100B80000308000A09040100010300000009211103
:100B900001000122C0000705820320000A12011093
:100BA0000100000008EDFE0713010001020301052A
:100BB000010902A10185020901A100050919012904
:100BC00005150025019505750181029501750381C3
:100BD000010501093009311581257F9502750881CC
:100BE0000609381581257F950175088106050C0ACF
:100BF00038021581257F950175088106C0C0050161
:100C00000980A10185031601002603001A81002A2C
:100C10008300751095018100C0050C0901A10185B3
:100C200004160100269C021A01002A9C02751095E8
:100C3000018100C005010906A1018505050719E02C
:100C400029E715002501950875018102050819019C
:100C50002905950575019102950175039101050717
:100C6000190029EF1500250195F075018102C005D5
:100C7000010906A101050719E029E71500250195DD
:100C8000087501810295017508810105081901297E
:100C900005950575019102950175039101050719E7
:100CA0000029FF150026FF00950675088100C00089
:100CB00011241FBECFEFDAE0DEBFCDBF13E0A0E00E
:100CC000B1E0EAEDF1E702C005900D92AA34B10758
:100CD000D9F726E0AAE4B3E001C01D92AA36B20714
:100CE000E1F70E94A92F0C94EB380C94000080B31C
:100CF0008C7080BB81B3836F81BB089584B1807F8A
:100D000084B985B1807F85B98AB1837F8AB98BB177
:100D1000837F8BB93E9846980895CF93E82F87300C
:100D200090F58091040190910501892B09F049C04B
:100D3000CE2F64E670E080E40E94CC1B9093050106
:100D400080930401892BD1F464E670E082E10E9473
:100D5000231C9093050180930401892B79F481E091
:100D600090E001C0880FCA95EAF764E670E08095CC
:100D70000E94231C909305018093040184E690E077
:100D8000CF910C94781C90E0FC013797E730F10587
:100D9000C0F4EA5AFF4F0C94DE37209A289811C00D
:100DA000219A29980EC0229A2A980BC0239A2B9830
:100DB00008C0529A5A9805C0539A5B9802C03E9A4E
:100DC0004698CF910895089508950C94E406CF9322
:100DD000DF930E94760890E09093050180930401D0
:100DE0000E947E060E947706AFE9B3E02BE433E071
:100DF000EDEAF3E04EE04E0F11921D9280E090E09C
:100E0000E901C80FD91F1882019686309105C1F7F4
:100E10002A5F3F4F4E13F0CFDF91CF910C946F0AB2
:100E20000E94760890E090930501809304010E944F
:100E30007E060E947706EDEAF3E08EE08E0F1192B7
:100E40008E13FDCF0895CF93DF93E62FF0E0E156A8
:100E5000FC4F40814827808386E0689FF001112481
:100E6000E55BFC4F20E030E080E061E070E050E0C6
:100E7000AAE0B22F9081992319F09150908307C076
:100E8000EB01022E01C0CC0F0A94EAF78C2BEA0189
:100E900002C0D595C795BA95E2F7C0FDA0832F5F34
:100EA0003F4F31962630310521F7DF91CF910895DC
:100EB000CF93DF93D82F873008F040C08091040192
:100EC00090910501892B09F042C064E670E080E44E
:100ED0000E94CC1B9093050180930401892B11F093
:100EE000C0E027C064E670E083E10E94231C909379
:100EF000050180930401892B99F764E670E081E491
:100F00000E94CC1B9093050180930401892B41F72B
:100F100084E690E00E94531C97FF05C09093050162
:100F200080930401DDCFC82FC09510920501109267
:100F3000040184E690E00E94781C0AC09FB1CFB102
:100F4000C07FC695C6959370C92BC09501C0C0E0FF
:100F50006D2F8C2F0E942307282F2095ED2FF0E076
:100F6000E355FC4F908192238C23892BDF91CF9105
:100F70000895EF92FF920F931F93CF93DF93809189
:100F8000040190910501892B91F080914A038F5FB4
:100F900080934A0381110BC00E94760890E09093E1
:100FA000050180930401892B11F40E9408088DEA41
:100FB000E82E83E0F82E04EB13E0C0E08C2F0E94B3
:100FC0008D06D7E0DC0F8D2F0E948D068C2F0E949E
:100FD0005807F70181937F018D2F0E945807F80170
:100FE00081938F010E947E06CF5FC73039F70E9440
:100FF0007B0A81E0DF91CF911F910F91FF90EF90DD
:101000000895E82FF0E0E355FC4F8081089508959E
:1010100056985E9825982D9826982E9827982F9860
:101020008FEF90E0909389008093880090938B00DD
:1010300080938A0090938D0080938C00259A2D9A3E
:101040002FEF80E792E0215080409040E1F700C010
:101050000000269A2E9A2FEF80E792E021508040E0
:101060009040E1F700C00000279A2F9A2FEF80E709
:1010700092E0215080409040E1F700C000002598A8
:101080002D982FEF80E792E0215080409040E1F7CB
:1010900000C0000026982E982FEF80E792E02150A4
:1010A00080409040E1F700C0000027982F985698A4
:1010B0005E9825982D9826982E9827982F98089511
:1010C00089EA8093800089E08093810024982C989D
:1010D0003F988AB18F7C8AB96E98479A8BB18063AA
:1010E0008BB9769A0E9408080C94E30680E290E09F
:1010F00090930501809304018091BB0381110EC080
:101100000E94C61B81E08093BB032FEF83ED90E329
:10111000215080409040E1F700C0000064E670E09C
:1011200080E40E94CC1B9093050180930401892BDD
:1011300009F050C064E670E080E00E94231C9093A8
:10114000050180930401892B09F044C064E670E036
:1011500080E00E94231C9093050180930401892B59
:10116000C9F564E670E08FE30E94231C90930501AB
:1011700080930401892B71F584E690E00E94781C2D
:1011800064E670E080E40E94CC1B9093050180939C
:101190000401892BF9F464E670E08CE00E94231CC2
:1011A0009093050180930401892BA1F464E670E01B
:1011B00080E00E94231C9093050180930401892BF9
:1011C00049F464E670E08FE30E94231C90930501CC
:1011D0008093040184E690E00E94781C80910401D1
:1011E0000895AF92BF92CF92DF92EF92FF920F934A
:1011F0001F93CF93DF93EC0181E00E947A1980E97D
:101200008C9F70018D9FF00C1124C0E0D0E000E0B5
:1012100010E0670182E0C80ED11C57018FEFA81AB9
:10122000B80AF601EC0FFD1FE852FE4F8491FE0153
:10123000EE0DFF1DE852FE4F6491F501EC0FFD1F0E
:10124000E852FE4F7491882319F08091EB0401C09D
:1012500080E00E948B10472F282FC8010E94401168
:101260000F5F1F4F239600331105D9F6DF91CF9101
:101270001F910F91FF90EF90DF90CF90BF90AF90B4
:1012800008958091BC03811150C060918B047091CE
:101290008C0480918D0490918E040E945A29823092
:1012A000B9F128F4882349F0813079F10895843028
:1012B000A9F188F18530A9F1089580E190E00E94BC
:1012C00048386093E8047093E9048093EA049093AB
:1012D000EB04862F86958F730E947A198091E8041B
:1012E000982F9E77923009F1881F8827881F909148
:1012F000E904292F220F97FB992790F94091EB04DD
:101300006091EA04822B0C94A01981E090E00BC05C
:1013100082E090E008C083E090E005C084E090E0C7
:1013200002C085E090E00C94F1080895611108C0B6
:10133000FC018281882321F08AE991E00E946C0AF5
:1013400080E090E00895FB01873E2CE5920799F03C
:1013500020F4863E9C4549F02EC0883E2CE592073D
:1013600089F0893E9C45C9F026C08281882321F1FD
:101370000E94182A1EC082818823F1F081E00E9419
:101380006B1917C082818823B9F081E00E946B1924
:101390004FEF64E985EC90E00AC08281882361F018
:1013A00081E00E946B194FEF69E787E890E00E94A7
:1013B000891980E0089581E00895CF92DF92EF923D
:1013C000FF926B017C010E945A2956985E982598DD
:1013D0002D9826982E9827982F9890E0FC01319709
:1013E000E730F105A8F4E35AFF4F0C94DE37259A55
:1013F0002D9A0EC0259A2D9A269A2E9A09C0259AC2
:101400002D9A04C0259A2D9A269A2E9A279A2F9AB9
:10141000C701B601FF90EF90DF90CF90089581E073
:1014200008950C94A309CF93282F30E0F901E85DCB
:10143000F64FC491F901E855F64F2491222359F053
:1014400081EE0E947C1E8C2F0E947C1E8C2F0E949D
:101450009A1F81EE04C08C2F0E947C1E8C2FCF918E
:101460000C949A1F0F931F93CF93DF93EC01062FD9
:10147000FE018491882359F19E012F5F3F4F8130F7
:1014800041F4E901F9011491812F0E947C1E812F02
:101490000DC0823031F4E901F90184910E947C1E73
:1014A0000AC0833031F4E901F90184910E949A1F46
:1014B00002C00E94130A2196802F8823C9F2EFE907
:1014C000FFE03197F1F700C000008150F6CFDF91C7
:1014D000CF911F910F91089560E00C94320A0E9401
:1014E000AA29811102C00E94182A0E9411180E9484
:1014F000DB0F0C9460080E9473178091BD0381116B
:1015000002C00E943B118091BD0390E001966BE008
:1015100070E00E94CA378093BD030C94E506282F23
:101520002F7041F0822F90E02A3010F44D960895EC
:101530000697089587E290E0089508950C949D0A17
:101540000C949E0A08950E9417230E94A20A2FEF6E
:1015500084E39CE0215080409040E1F700C000000F
:101560000C94882BFF920F931F93CF93DF938C01E2
:10157000FC01C081D18180911904811113C0828145
:10158000882349F0CE010E944A28F82E682FCE0108
:101590000E94ED2704C0CE010E941D28F82EBE0136
:1015A0008F2D04C0CE010E944A28BE010E944D0D1D
:1015B000EC01B8010E94110A882309F466C2B8013F
:1015C000CE010E945610882309F45FC2CC3CFCE592
:1015D000DF0741F4F8018281882309F456C20E9492
:1015E000521953C2CD3C8CE5D80708F01EC1C43C4B
:1015F0009CE5D90761F4F8018281882309F445C28A
:101600000E941B298272E1F40E9467183EC2C53C09
:10161000ECE5DE0708F0C7C0C531FCE5DF0798F050
:10162000C23CFCE5DF0709F48CC008F492C0F80165
:101630008281882309F429C20E941B29827221F722
:101640000E944D1822C2C2308CE5D80708F452C05F
:10165000F8018281882309F459C00E94AA298111C6
:1016600002C00E94182A0E94BD2990E090935C0657
:1016700080935B06FE01E350FC45E231F10530F456
:10168000EC59FF4F80915B060C94DE3780915B062E
:10169000816027C0826025C0846023C0806121C032
:1016A00080621FC080641DC080681BC08460886029
:1016B00018C08E7F16C08D7F14C08B7F12C08F7EA6
:1016C00010C08F7D0EC08F7B0CC08F770AC08B7FC0
:1016D000877F07C087FB222720F991E0922790FBA4
:1016E00087F980935B0680915B060E94C1290E9466
:1016F0001723CBC1C1159CE5D90781F0C130DC456A
:10170000A9F081E08093C3038093C403C801DF91F3
:10171000CF911F910F91FF900C940F0AF8018281D5
:10172000882309F4B2C10E94A30AAFC1F8018281E3
:10173000882309F4AAC18091B80481608093B80419
:10174000A4C1F8018281882309F49FC10E943F1837
:101750009CC1C631DC45A9F60E941B29282FF8013F
:1017600082814091080150910901882379F02A7AF9
:1017700091E009F490E09093BE03911102C069E2F8
:1017800001C065E3CA010E947F2A0AC08091BE039E
:10179000811102C069E201C065E3CA010E948A2A80
:1017A0000E94E82872C1F8018281C83CFCE5DF078D
:1017B00031F4882309F469C10E94F31866C1C93C59
:1017C0009CE5D907C8F4C63CECE5DE0731F4882374
:1017D00009F45BC10E94AD1858C1C73CDC4530F428
:1017E000882309F452C10E9481184FC1882309F44B
:1017F0004CC10E94DD1849C1CA3C9CE5D90731F4AF
:10180000882309F442C10E9423193FC1CB3CDC4527
:1018100030F4882309F439C10E940D1936C1882398
:1018200009F433C10E943D1930C1C43DFCE5DF0716
:1018300091F4F8018281882309F427C10E94841958
:10184000893128F00E948419823208F4F9CE89E1A6
:101850000E946B191AC1C53D8CE5D80708F068C015
:10186000F8018281C03DFCE5DF0771F4882309F4AB
:101870000CC10E948419893028F00E9484198E308E
:1018800008F4DECE89E0E4CFC13D9CE5D90740F500
:10189000CE3CECE5DE0771F4882309F4F6C00E9423
:1018A0008419823028F00E948419853008F4C8CE4B
:1018B00082E0CECFCF3CDC4528F4882309F4E5C094
:1018C00081E0C6CF882309F4E0C00E9484198630E5
:1018D00028F00E948419883008F4B2CE86E0B8CF90
:1018E000C23D9CE5D90771F4882309F4CEC00E945B
:1018F0008419853128F00E948419873108F4A0CE1C
:1019000085E1A6CFC33DDC4570F4882309F4BDC052
:101910000E9484198F3028F00E948419843108F4C1
:101920008FCE8FE095CF882309F4AFC088E190CFA8
:10193000C83DFCE5DF0759F5F8018281882361F095
:101940001092C4030E942C2B9093C2038093C10376
:1019500080E20E940A2099C08091C403882321F06C
:1019600080E20E94112091C08091C1039091C20336
:101970000E94382B883C910598F780E20E94112044
:1019800088E20E947C1E88E20E949A1F7EC0C93DA8
:101990008CE5D80708F058C0F8018281C63DFCE507
:1019A000DF0751F5882351F01092C3030E942C2BBE
:1019B0009093C0038093BF0382E0CBCF0E941B298A
:1019C00085FF05C081E08093C3038093C4038091A9
:1019D000C30381110FC08091BF039091C0030E9487
:1019E000382B883C910530F486E20E947C1E86E20A
:1019F0000E949A1F82E0B5CFC73DDC4528F48823BA
:101A000009F443C083E224CF81119ACF0E941B299D
:101A100081FF05C081E08093C3038093C40380915C
:101A2000C40381119DCF8091C1039091C2030E9494
:101A3000382B883C910508F093CF87E20E947C1EEA
:101A400087E20E949A1F8CCFCC3DECE5DE0741F483
:101A5000F80182818823C9F082E00E94483015C0D5
:101A6000CD3DFCE5DF0739F4F8018281882369F078
:101A70000E94182A0AC0CB3DDC4509F042CEF8018D
:101A80008281882311F080E0E8CF80E0DF91CF9160
:101A90001F910F91FF900895089596E0799FF001AE
:101AA000112494E5899FE00DF11D1124E60FF11D2D
:101AB000EE0FFF1FE85CFA4F859194910895880F0F
:101AC000991FFC01EC52FE4F859194910895CF939C
:101AD000DF930E944D0D0E94240FEC01811520E53B
:101AE0009207F0F5811530E4930708F029C1883E8C
:101AF000910500F5803E910508F0A2C1883A910554
:101B000070F4853A910508F0A3C08130910509F47D
:101B100097C108F448C1049708F092C144C18F3BB3
:101B2000910508F4A0C0803C910508F43CC1805C9C
:101B30009109F8C08115904258F4C11581E0D80789
:101B400008F07EC1C03FD10508F42DC1D06578C131
:101B5000C11590E3D90708F0E9C0CE019F70E2C03B
:101B6000811525E5920708F043C0811534E59307F8
:101B700008F0FDC0811542E5940708F5C11581E51F
:101B8000D80708F0E0C02C2F237081E090E002C05D
:101B9000880F991F2A95E2F79C689E0174E036959C
:101BA00027957A95E1F72370922BCF70C695C6954D
:101BB00040E2C49FE0011124C82BD92B41C1869576
:101BC00086959E0123703327C115D34508F0C0C008
:101BD00040E2849FC0011124C1E0D0E002C0CC0FDC
:101BE000DD1F2A95E2F78C2B9D2BEC01DC6828C1C8
:101BF00081152AE5920798F4811539E5930708F0D5
:101C0000C1C08115964508F4B7C0C11588E5D8074D
:101C100008F4C9C0DC2FCC27C06FD06A11C1C11530
:101C20009BE5D90708F4BFC0C1152CE5D20708F41D
:101C3000B7C0CE0190568115904208F0B4C08D2FE8
:101C40008F710E94A10FDD27D0628F71D82BF8C051
:101C5000853A910509F4AAC0863A910509F0A9C010
:101C6000C2E8D0E4EDC0883A910509F4A5C0893AEC
:101C7000910509F4A4C08A3A910509F4A3C08B3AEE
:101C8000910509F4A2C08C3A910509F4A1C08B3BDF
:101C9000910509F4A0C08C3B910509F49FC08D3AD1
:101CA000910509F49EC0803B910509F49DC08E3AD0
:101CB000910509F49CC08F3A910509F49BC0813BC2
:101CC000910509F49AC0823B910509F499C0833BC0
:101CD000910509F498C0843B910509F497C0853BB0
:101CE000910509F496C0863B910509F495C0873BA0
:101CF000910509F494C0883B910509F493C0893B90
:101D0000910509F492C08D3B910509F491C08E3B79
:101D1000910509F490C08A3B910509F48FC0C0E099
:101D2000D4E48EC00E945F0DEC018AC0CE019927D9
:101D3000D3FF03C0EC01D86C83C0EC01D06C80C031
:101D4000DF70D06A7DC0DC2FCC27C16FD06A78C02D
:101D500040E2849FC0011124C1E0D0E002C0CC0F5A
:101D6000DD1F2A95E2F7C82BD92BDA6869C0D82F76
:101D7000CC27C46FD06A64C0CF71DD27DC2FCC279D
:101D8000D0625EC08F70806E90E0906A24E0D6953D
:101D9000C7952A95E1F7CF709C013C2BE90150C013
:101DA000DD27D0664DC0C0E0D0E04AC0C1E8D0E435
:101DB00047C0C3E8D0E444C0C2EED4E441C0C9EE99
:101DC000D4E43EC0CAEED4E43BC0C5EBD4E438C092
:101DD000C6EBD4E435C0C3EBD4E432C0C4EBD4E4E6
:101DE0002FC0C7EBD4E42CC0CCECD4E429C0CDEC9C
:101DF000D4E426C0C3E8D5E423C0CAE8D5E420C0B3
:101E0000C2E9D5E41DC0C4E9D5E41AC0C1E2D6E4F4
:101E100017C0C3E2D6E414C0C4E2D6E411C0C5E2E0
:101E2000D6E40EC0C6E2D6E40BC0C7E2D6E408C0D2
:101E3000CFE6D4E405C0C0E7D4E402C0CAE2D6E4E9
:101E4000CE01DF91CF9108958238910549F1B0F428
:101E50008133910509F458C048F48932910509F499
:101E60004EC08A32910509F454C008958533910516
:101E700009F440C08933910599F00895833E910596
:101E800029F138F4803E910591F0823E9105A1F050
:101E90000895863E9105F9F0873E910531F1089548
:101EA00020915B0620FD3AC021FD38C00895809145
:101EB0005B0680FD35C032C080915B0682FF32C078
:101EC00080915B0684FD30C083EE39C080915B0653
:101ED00082FD28C0F5CF80915B0683FF27C08091EB
:101EE0005B0684FD21C087EE2AC080915B0683FDDE
:101EF0001DC0F5CF80915B0685FD1AC01BC0809187
:101F00005B0685FD17C014C080915B0686FD14C07A
:101F100015C080915B0686FD11C00EC080EE0FC01B
:101F200089E30DC082EE0BC080E009C086EE07C0D9
:101F300089E205C085E303C08AE201C081E390E045
:101F4000089590915B0692FF0DC0282F28712830CC
:101F500019F4877F846006C0282F2471243011F47F
:101F60008B7F886093FF0DC0282F2871283119F4CA
:101F7000877E846106C0282F2471243111F48B7E62
:101F8000886194FD877E0895CF93DF93813020E8A8
:101F9000920768F0FB012281222349F0EC010E94A4
:101FA000F10FCE019F770E9439100E94261081E028
:101FB000DF91CF9108958CE090E00E94403890E04E
:101FC000A0E0B0E08093ED049093EE04A093EF04C2
:101FD000B093F00408956091ED048CE090E00C94CF
:101FE00054380E941B298093C5030E942E2980919A
:101FF000ED04813071F048F08230D9F08430F9F48A
:1020000086EE0E94022088E118C082EE0E947C1EAB
:1020100016C080EE0E947C1E81EE0E947C1E88E12C
:102020000E94022081EE0E949A1F80EE0E949A1F59
:1020300006C082EE0E947C1E87E50E9402208FE38C
:102040009CE90197F1F700C0000008958091ED042C
:10205000813021F038F0823029F007C08CE20E94F4
:10206000022003C082EE0E949A1F8091C5030C9447
:102070002B290F931F93CF93DF938C01CCE0D0E0FB
:10208000C8010C2E02C0969587950A94E2F78F70CE
:102090000E948F0A0E9402202497CC3F8FEFD8071E
:1020A00079F7DF91CF911F910F9108950F931F93AF
:1020B000CF93DF93EC018B01FB018281882319F11F
:1020C000C23EFCE5DF07C1F050F4C03EECE5DE07A0
:1020D00081F0C13EFCE5DF07B1F481E010C0C33EF2
:1020E0008CE5D80759F0C43EECE5DE0761F484E0E6
:1020F00006C01092ED0405C082E001C083E0809329
:10210000ED040E94EB0FB801CE01DF91CF911F913A
:102110000F910C94C40FCF92DF92EF92FF920F9326
:102120001F93CF93DF93E82FF82F711103C0682F0F
:10213000782F7EC0062F10E0C72FD0E0E82EF12CBC
:10214000C8016BE270E00E94B6379B0145ED420387
:10215000B001439F700D1124060F171F86E0809F6A
:10216000B001819F700D11244FEF50E0CA018C1B0C
:102170009D0B8E9DD0018F9DB00D9E9DB00D1124A5
:102180008B2F6C9F80016D9F100D7C9F100D112473
:10219000012F11276A01C01AD10ACE9C8001CF9C61
:1021A000100DDE9C100D11246A01C61AD70ACC9EB0
:1021B000B001CD9E700DDC9E700D1124672F772726
:1021C000461B570B4E9DE0014F9DD00D5E9DD00DDF
:1021D00011247D2F2230310599F04CF42115310561
:1021E000C9F021303105A1F47E2FE12F13C0233037
:1021F000310551F02430310559F4ED2F7B2F06C005
:10220000EB2F8D2F7F2F06C0712FEB2F8F2F02C04A
:102210007B2F812FF0E0E85DF54F6491E72FF0E030
:10222000E85DF54F7491E82FF0E0E85DF54F84919B
:10223000DF91CF911F910F91FF90EF90DF90CF90A2
:10224000089580E190E00C944838AB01BC0180E136
:1022500090E00C946638E8EEF4E08DE08083109214
:10226000E9048FEF8283838314826081718182818C
:1022700093810C942511E0914803F091490309944E
:10228000E0914403F09145030994E0914603F091F5
:102290004703099440E060E080E00C944511E8EECB
:1022A000F4E06081862F881F8827881F6091E904E9
:1022B000660F682B728183810E948B10962F672F87
:1022C000482F892F0C944511DF92EF92FF920F93C4
:1022D0001F93CF93DF938091E804881F8827881F7E
:1022E0009091E904492F440F242F282B97FB332783
:1022F00030F9C9018C549F4F68E671E00E94CA37DB
:10230000821B930B8038910514F09A9505C0813893
:102310004FEF94070CF4939597FD03969595879549
:1023200095958795C82F8091EA04281B310937FFBE
:1023300002C02D5F3F4F3595279535952795D22FB4
:10234000D090EB049CE1E92E91E0F92E00E010E042
:10235000F701208122952F706091E804962F991F34
:102360009927991F6091E904660F692B2C9F600DD6
:1023700011247091EA042D9F700D11248D2D0E945F
:102380008B10472F282FC8010E9440110F5F1F4F4D
:10239000F4E0EF0EF11C00331105D1F6DF91CF917F
:1023A0001F910F91FF90EF90DF900895AF92BF9231
:1023B000CF92DF92EF92FF920F931F93CF93DF9311
:1023C0001F92CDB7DEB7D82E2091E804221F222716
:1023D000221F8091E904982F990FB22EB92A87FB0A
:1023E000882780F9EB2DF82FCF018C549F4F68E69A
:1023F00071E00E94CA379C012E1B3F0B37FF02C0C1
:102400002D5F3F4F3595279535952795A22EC09086
:10241000EA040091CC031091CD032091CE033091BA
:10242000CF039091EC04992359F0692F70E08AE072
:1024300090E00E94CA37CB01770FAA0BBB0B04C0F8
:102440008AE090E0A0E0B0E080239123A223B323B0
:10245000892B8A2B8B2B41F40E94303860E370E08B
:102460000E94CA37082F01C00FEFE12CF12C10E0B9
:10247000D11003C0E016F106A9F40E943038837031
:102480006B2D8A9D600D112469830E94303869810B
:102490007C2D8091EB040E948B10472F282FC701C1
:1024A0000E9440118FEFE81AF80A80E3E816F10461
:1024B000F9F60F90DF91CF911F910F91FF90EF9060
:1024C000DF90CF90BF90AF900895CF92DF92EF92C0
:1024D000FF921F93CF93DF938091CC039091CD0314
:1024E000A091CE03B091CF030090EC0404C0880FFC
:1024F000991FAA1FBB1F0A94D2F7182F8AE1C82E72
:1025000081E0D82EC0E0D0E09FE3E92EF12CF60167
:1025100080818F3FE1F0FE01EF50FB4F8081F4E0BE
:102520008F9FC00111248034910524F4B701681BEA
:10253000790B02C060E070E0610F7FEF8091EB04E7
:102540000E948B10472F282FCE010E944011219608
:1025500024E0C20ED11CC033D105C9F6DF91CF9162
:102560001F91FF90EF90DF90CF900895CF92DF9270
:10257000EF92FF920F931F93CF93DF938091CC0341
:102580009091CD03A091CE03B091CF030090EC04C5
:1025900004C0880F991FAA1FBB1F0A94D2F7D82E18
:1025A000C090EB040AE111E0C0E0D0E08FE3E82E38
:1025B000F12CF80180818F3FF9F0FE01EF50FB4FC5
:1025C0002081F4E02F9F90011124203431052CF458
:1025D000C701821B930B9C0102C020E030E0F80190
:1025E00061816D0D620F7FEF8C2D0E948B10472F44
:1025F000282FCE010E94401121960C5F1F4FC0333F
:10260000D105B9F6DF91CF911F910F91FF90EF9017
:10261000DF90CF900895CF92DF92EF92FF920F93C9
:102620001F93CF93DF938091CC039091CD03A09122
:10263000CE03B091CF030090EC0404C0880F991F23
:10264000AA1FBB1F0A94D2F7D82EC090EB040AE150
:1026500011E0C0E0D0E08FE3E82EF12CF80180819A
:102660008F3FF9F0FE01EF50FB4F2081F4E02F9FE8
:1026700090011124203431052CF4C701821B930BE7
:102680009C0102C020E030E0F80162816D0D620F14
:102690007FEF8C2D0E948B10472F282FCE010E9498
:1026A000401121960C5F1F4FC033D105B9F6DF9161
:1026B000CF911F910F91FF90EF90DF90CF900895F1
:1026C0002F923F924F925F926F927F928F929F9242
:1026D000AF92BF92CF92DF92EF92FF920F931F9330
:1026E000CF93DF933090EA042090EB046091CC0309
:1026F0007091CD038091CE039091CF030E942B3631
:102700002BED3FE049E450E40E94F83620E030E051
:1027100040E05CE30E94F8366B017C010E947E354C
:1027200020E030E040E05DE30E94F8362B013C0100
:10273000C701B6010E94653720E030E040EE52E468
:102740000E9483354B015C01CCE1D1E000E010E058
:10275000688170E080E090E00E942D3620E030E05B
:1027600040E052E40E941135A30192010E94F83624
:102770006B017C01FE013197608170E080E090E0A8
:102780000E942D3620E030E040EE52E40E941135E8
:10279000A50194010E94F8369B01AC01C701B60166
:1027A0000E94123520E030E044E353E40E94F83602
:1027B0006B017C018091E804881F8827881F909115
:1027C000E904292F220F622F682B97FB772770F9D6
:1027D000072E000C880B990B0E942D369B01AC0133
:1027E000C701B6010E9412350E94FC35732D822D5F
:1027F0000E948B10472F282FC8010E9440110F5FA5
:102800001F4F24960033110509F0A2CFDF91CF911D
:102810001F910F91FF90EF90DF90CF90BF90AF90FE
:102820009F908F907F906F905F904F903F902F90F0
:1028300008952F923F924F925F926F927F928F9264
:102840009F92AF92BF92CF92DF92EF92FF920F933F
:102850001F93CF93DF93CDB7DEB728970FB6F894C9
:10286000DEBF0FBECDBF8091EA048D839091EB0453
:102870009E836091CC037091CD038091CE039091A3
:10288000CF030E942B362BED3FE049E450E40E9439
:10289000F83620E030E040E05CE30E94F8366B015F
:1028A0007C010E947E352B013C01C701B6010E94CC
:1028B000653769837A838B839C83ECE1F1E0F88749
:1028C000EF8300E010E0EF81F88531972080EF8101
:1028D000F885B0803090EC04332079F0632D70E0FF
:1028E00080E090E00E942D3620E030E040EC5FE395
:1028F0000E94F8366B017C0106C0C12CD12C90ECF3
:10290000E92E9FE3F92E6B2D70E080E090E00E94AD
:102910002D3620E030E040E052E40E9411359B016A
:10292000AC01C701B6010E94F836A30192010E94D2
:10293000F8364B015C01332079F0632D70E080E0C4
:1029400090E00E942D3620E030E040EC5FE30E94F2
:10295000F8366B017C0106C0C12CD12C80ECE82E2E
:102960008FE3F82E622D70E080E090E00E942D361B
:1029700020E030E040EE52E40E9411359B01AC01B2
:10298000C701B6010E94F83629813A814B815C81EA
:102990000E94F8369B01AC01C501B4010E941235BA
:1029A0006B017C018091E804881F8827881F909123
:1029B000E904292F220F622F682B97FB772770F9E4
:1029C000072E000C880B990B0E942D369B01AC0141
:1029D000C701B6010E9412350E94FC357D818E81AF
:1029E0000E948B10472F282FC8010E9440110F5FB3
:1029F0001F4F8F819885049698878F830033110528
:102A000009F061CF28960FB6F894DEBF0FBECDBF98
:102A1000DF91CF911F910F91FF90EF90DF90CF90BA
:102A2000BF90AF909F908F907F906F905F904F90EE
:102A30003F902F9008952F923F924F925F926F9206
:102A40007F928F929F92AF92BF92CF92DF92EF923E
:102A5000FF920F931F93CF93DF9300D000D01F926C
:102A6000CDB7DEB72091EA042A838091EB048B83F3
:102A70006091CC037091CD038091CE039091CF03F0
:102A80000E942B362BED3FE049E450E40E94F836DB
:102A900020E030E040E05CE30E94F8366B017C010E
:102AA0000E947E352B013C01C701B6010E946537AB
:102AB0004B015C01ACE1B1E0BD83AC8300E010E010
:102AC000EC81FD813197B081B983EC81FD8130804B
:102AD0002090EC04222069F0622D70E0660F771FD1
:102AE000072E000C880B990B0E942D366B017C0180
:102AF00005C0C12CD12CE12C20E4F22E632D70E016
:102B000080E090E00E942D3620E030E040E052E48A
:102B10000E9411359B01AC01C701B6010E94F83635
:102B2000A30192010E94F8366B017C01222021F062
:102B3000312C220C331C03C082E0282E312CF98169
:102B40006F2F70E080E090E00E942D3620E030E0B2
:102B500040EE52E40E9411350E94F5359B0177FF4B
:102B600004C022273327261B370B82E490E0821B08
:102B7000930B289EB001299E700D389E700D112474
:102B8000072E000C880B990B0E942D36A50194018D
:102B90000E94F8369B01AC01C701B6010E941235B4
:102BA0006B017C018091E804881F8827881F909121
:102BB000E904292F220F622F682B97FB772770F9E2
:102BC000072E000C880B990B0E942D369B01AC013F
:102BD000C701B6010E9412350E94FC357A818B81B3
:102BE0000E948B10472F282FC8010E9440110F5FB1
:102BF0001F4F8C819D8104969D838C83003311052A
:102C000009F05ECF0F900F900F900F900F90DF9113
:102C1000CF911F910F91FF90EF90DF90CF90BF90D9
:102C2000AF909F908F907F906F905F904F903F906C
:102C30002F9008952F923F924F925F926F927F92C2
:102C40008F929F92AF92BF92CF92DF92EF92FF92BC
:102C50000F931F93CF93DF9300D01F92CDB7DEB7B2
:102C60002090EA048091EB0489836091CC037091F9
:102C7000CD038091CE039091CF030E942B3620E0AC
:102C800030E040E85BE30E94F83620E030E040E6C8
:102C900053E40E94F8362B013C01ECE1F1E0FB83A8
:102CA000EA8300E010E0EA81FB8131973080EA811D
:102CB000FB81E080F090EC04FF2079F06F2D70E054
:102CC00080E090E00E942D3620E030E040EC5FE3B1
:102CD0000E94F8364B015C0106C0812C912C90ECCF
:102CE000A92E9FE3B92E6E2D70E080E090E00E9447
:102CF0002D3620E030E040E052E40E9411350E9481
:102D0000F5359B0177FF04C022273327261B370B9D
:102D1000B901330F880B990B0E942D369B01AC0132
:102D2000C501B4010E94F8362EE23DEB4BEB53EBAC
:102D30000E94F8364B015C01FF2079F06F2D70E0A6
:102D400080E090E00E942D3620E030E040EC5FE330
:102D50000E94F8366B017C0106C0C12CD12C80EC9E
:102D6000E82E8FE3F82E632D70E080E090E00E9463
:102D70002D36A30192010E9411359B01AC01C701C0
:102D8000B6010E94F8369B01AC01C501B4010E9456
:102D900011356B017C018091E804881F8827881F0A
:102DA0009091E904292F220F622F682B97FB772738
:102DB00070F9072E000C880B990B0E942D369B0191
:102DC000AC01C701B6010E9412350E94FC35722D7C
:102DD00089810E948B10472F282FC8010E94401123
:102DE0000F5F1F4F8A819B8104969B838A830033E8
:102DF000110509F058CF0F900F900F90DF91CF91F0
:102E00001F910F91FF90EF90DF90CF90BF90AF9008
:102E10009F908F907F906F905F904F903F902F90FA
:102E20000895CF92DF92FF920F931F93CF93DF937A
:102E30001F92CDB7DEB7F82E0091CC031091CD03D1
:102E40002091CE033091CF039091EC04992359F057
:102E5000692F70E08AE090E00E94CA37AB01770FDB
:102E6000660B770B04C04AE050E060E070E040235E
:102E7000512362237323452B462B472B39F40E94A1
:102E8000303860E370E00E94CA3701C08FEF00E085
:102E900010E0C82ED12CF11003C00C151D0581F4D3
:102EA0000E94303889830E943038782F6981809160
:102EB000EB040E948B10472F282FC8010E9440115D
:102EC0000F5F1F4F0033110531F70F90DF91CF9146
:102ED0001F910F91FF90DF90CF90089508950E9469
:102EE0006E170C9441094091E80440FD0AC00E940D
:102EF0004A110E946F178091E80481708093070146
:102F000008958091C603843120F48F5F8093C603B7
:102F100008958091CC039091CD03A091CE03B09100
:102F2000CF030196A11DB11D8093CC039093CD03D7
:102F3000A093CE03B093CF038091C8039091C903AF
:102F4000A091CA03B091CB038F3F2FEF9207A20746
:102F5000B20759F00196A11DB11D8093C80390934B
:102F6000C903A093CA03B093CB038091C703E1EFD9
:102F7000F4E090819F3F61F09E3F41F4282F30E0C4
:102F80002230310514F0815001C080E09F5F9083B2
:102F9000319695E0E132F90761F78093C703E42F9A
:102FA000E695EF7380910601E81307C081E09091E8
:102FB0000701913019F480E001C081E08170E09355
:102FC000060191E0909307014E2F50E0FA013197EE
:102FD000EB30F10520F5EA58FF4F0C94DE370E94E4
:102FE0004F111DC00E9460131AC00E94641117C0C7
:102FF0000E94D61114C00E94651211C00E94B61220
:103000000EC00E940B130BC00E94191408C00E942E
:103010001B1505C00E941A1602C00E9411170C94BD
:103020006F17E0914203F09143030995E1EFF4E05B
:103030008FEF819395E0E132F907D9F70E94AA2931
:10304000811104C00E94182A0E942B110E94211194
:103050006093E8047093E9048093EA049093EB048E
:103060006E7761F40E942B110E9421116093E80495
:103070007093E9048093EA049093EB040895E8EEDA
:10308000F4E08081982F909590FB80F98083608197
:103090007181828193810C9425119091E804892F8C
:1030A00086958F5F8F7391788C3018F4880F892BF9
:1030B00002C0892F82608093E8046091E8047091D7
:1030C000E9048091EA049091EB040C94251190910D
:1030D000E804892F8695815C8F739178882319F095
:1030E000880F892B02C0892F86618093E804609144
:1030F000E8047091E9048091EA049091EB040C9447
:1031000025118091E804982F991F9927991F809184
:10311000E904880F892B90E008968F3F910519F0FC
:1031200014F08FEF90E02091E80480FB27F92093C2
:10313000E804282F26958091E9048078822B90FB63
:1031400087F98093E9046091E8047091E904809123
:10315000EA049091EB040C9425118091E804982FD7
:10316000991F9927991F8091E904880F892B90E076
:10317000089797FF02C080E090E08F3F910519F01B
:1031800014F08FEF90E02091E80480FB27F9209362
:10319000E804282F26958091E9048078822B90FB03
:1031A00087F98093E9046091E8047091E9048091C3
:1031B000EA049091EB040C9425118091EA0490E0CC
:1031C00008968F3F910519F014F08FEF90E08093EF
:1031D000EA046091E8047091E9048091EA04909116
:1031E000EB040C9425118091EA0490E0089797FF76
:1031F00002C080E090E08F3F910519F014F08FEF4E
:1032000090E08093EA046091E8047091E904809171
:10321000EA049091EB040C9425118091EB0490E06A
:1032200008968F3F910519F014F08FEF90E080938E
:10323000EB046091E8047091E9048091EA049091B4
:10324000EB040C9425118091EB0490E0089797FF14
:1032500002C080E090E08F3F910519F014F08FEFED
:1032600090E08093EB046091E8047091E904809110
:10327000EA049091EB040C9425118091EC0490E009
:1032800001968430910514F083E090E08093EC0483
:103290006091E8047091E9048091EA049091EB0454
:1032A0000C9425118091EC0490E0019797FF02C0E7
:1032B00080E090E08430910514F083E090E080930A
:1032C000EC046091E8047091E9048091EA04909123
:1032D000EB040C942511E8EEF4E08F73982F990F0E
:1032E00080818178892B8083608171818281938143
:1032F0000C942511E8EEF4E08F73982F990F8081DC
:103300008178892B808308958091E80486958F7356
:103310000895E8EEF4E0208180FB27F92083A9EEF0
:10332000B4E086952C912078822B90FB87F98C93C2
:103330006283438360817181828193810C94251122
:10334000E8EEF4E0208180FB27F92083A9EEB4E0C9
:1033500086952C912078822B90FB87F98C93628341
:103360004383089567E784E70C94871BCF930E94FB
:10337000C61B84E70E940C1A87E70E940C1AC0E063
:1033800021E041E061E08C2F0E949E1ACF5FC033A4
:10339000B9F767E784E7CF910C949A1BE1E4F6E074
:1033A0006083418324E630E042E050E0BF01880FB3
:1033B0000C949C1CEF92FF921F93CF93DF937B01A1
:1033C000182F110FC0E0D0E08C2F8C5D8093410648
:1033D00020E030E0F901EC0FFD1FEE0DFF1D8081B4
:1033E000F901EF5BF94F81832F5F3F4F20313105AA
:1033F00089F724E630E041E150E061E476E0812F96
:103400000E949C1C6096C039D105F1F6DF91CF91E6
:103410001F91FF90EF900895CF93DF93C82F4BE05B
:103420006DEF0E94CE1940E06AE08C2F0E94CE1909
:103430008FE39CE90197F1F700C0000040E060E0F5
:103440008C2F0E94CE1940E061E08C2F0E94CE1993
:1034500040E066E08C2F0E94CE1940E06DEF8C2F8B
:103460000E94CE19D0E040E06D2F8C2F0E94CE1923
:10347000DF5FD231C1F740E06D2F8C2F0E94CE1953
:10348000DF5FD432C1F740E06D2F8C2F0E94CE1940
:10349000DF5FD43BC1F74BE06DEF8C2F0E94CE195C
:1034A00041E06AE08C2F0E94CE1940E06DEF8C2F36
:1034B000DF91CF910C94CE198033910520F5880FC0
:1034C000991F880F991FFC01E652FE4F52813381EC
:1034D000808183707181E0E98E9FC00111248F5D2E
:1034E0009A4FFC01E70FF11DB4976083FC01E50FD3
:1034F000F11DB4974083830F911DFC01B497208385
:1035000081E08093F5030895FF920F931F93CF936B
:10351000DF93182F062FF42EC0E0D0E02F2D402F80
:10352000612FCE010E945C1A2196C033D105B1F7FC
:10353000DF91CF911F910F91FF9008954F925F926D
:103540007F928F929F92AF92BF92CF92DF92EF9233
:10355000FF920F931F93CF93DF93362F54E0859FF5
:10356000C0011124FC01E652FE4FA081A3707A2E07
:10357000618170E0CB0184978C0197FF02C0095FE5
:103580001F4FA3E015950795AA95E1F7628170E0BA
:103590007B0154E2E51AF108E701F7FC279673E096
:1035A000D595C7957A95E1F7638170E04B01E4E228
:1035B0008E1A9108F40197FC37962F0153E0559429
:1035C00047945A95E1F768E0A62EB12CB5010E9408
:1035D000CA376C01C701B5010E94CA377C01C4011A
:1035E000B5010E94CA37A72DB0E01127DD2433238F
:1035F000A1F032E13A9FB0013B9F700D1124060FFC
:10360000171F0F521C4F61E070E001C0660FCA9493
:10361000EAF7F8013081632B14C032E13A9FB00120
:103620003B9F700D1124060F171F0F521C4F61E0B6
:1036300070E001C0660FCA94EAF76095F801308126
:1036400063236083DD27FF2432E1442391F03A9F16
:10365000A0013B9F500D1124C40FD51FCF52DC4F4A
:1036600041E050E001C0440FEA94EAF73881432B6F
:1036700012C03A9FA0013B9F500D1124C40FD51FCB
:10368000CF52DC4F41E050E001C0440FEA94EAF72A
:103690004095388143234883A2015527992792E119
:1036A0009A9FF0019B9FF00D1124E40FF51FEF523C
:1036B000FC4F222361F021E030E0A90102C0440F59
:1036C000551F8A95E2F7CA019081892B0CC021E031
:1036D00030E0A90102C0440F551F8A95E2F7CA01E4
:1036E000809590818923808381E08093D003DF914E
:1036F000CF911F910F91FF90EF90DF90CF90BF90EF
:10370000AF909F908F907F905F904F900895CF9350
:103710009091F503992351F0C62F61E275E00E9464
:10372000DA1961EB75E08C2F0E94DA191092F5031B
:10373000CF910895EF92FF920F931F93CF93DF9352
:103740009091D0039923D9F0162F082F81EDE82E00
:1037500083E0F82EC0E0D0E0F70141917F016C2FAB
:10376000802F0E94CE19FE01EF52FC4F42896C2F30
:10377000812F0E94CE192196C231D10569F7DF91C0
:10378000CF911F910F91FF90EF9008951092B90083
:103790008CE08093B8000895EF92FF920F931F93EF
:1037A000CF93DF93182FEB011092BC0084EA809333
:1037B000BC000E942C2B7C019091BC0097FD0EC098
:1037C000CF3F8FEFD807C1F30E942C2B8E199F0992
:1037D0008C179D0788F38EEF9FEF2EC09091B90054
:1037E000987F983041F09091B900987F903119F00E
:1037F0008FEF9FEF21C01093BB0084E88093BC0043
:103800000E942C2B8C019091BC0097FD0CC0CF3FE7
:103810008FEFD807C1F30E942C2B801B910B8C17C4
:103820009D0788F3D8CF8091B900887F883111F047
:103830008034F1F680E090E0DF91CF911F910F91FD
:10384000FF90EF9008950F931F93CF93DF93EB01B9
:103850008093BB0084E88093BC000E942C2B8C01D9
:103860009091BC0097FD0EC0CF3F8FEFD807C1F3FA
:103870000E942C2B801B910B8C179D0788F38EEFD9
:103880009FEF0CC02091B900287F81E090E02832A2
:1038900011F480E090E0919581959109DF91CF91AD
:1038A0001F910F9108950F931F93CF93DF93EC0116
:1038B00084E88093BC000E942C2B8C019091BC006A
:1038C00097FD0EC0CF3F8FEFD807C1F30E942C2B7E
:1038D000801B910B8C179D0788F38EEF9FEF03C021
:1038E0008091BB0090E0DF91CF911F910F910895DF
:1038F0000F931F93CF93DF93EC0184E98093BC0077
:103900000E942C2B8C019091BC0094FF0EC0CF3FE5
:103910008FEFD807C1F30E942C2B801B910B8C17C3
:103920009D0788F38EEF9FEF02C080E090E0DF916B
:10393000CF911F910F910895CF92DF92EF92FF9256
:103940000F931F93CF93DF936B017A018901B90124
:103950000E94CC1BFC01892BC9F4E601EC0CFD1C78
:10396000CE15DF0541F0B80189910E94231CFC01AE
:10397000892BB1F30BC0C801DF91CF911F910F913B
:10398000FF90EF90DF90CF900C94781CCF01DF91E7
:10399000CF911F910F91FF90EF90DF90CF900895FE
:1039A0009093FB038093FA030895E091FA03F0915A
:1039B000FB03309721F00190F081E02D099480E025
:1039C0000895E091FA03F091FB03309799F020916C
:1039D0001901222359F020915B0627FF07C0DC0163
:1039E0002C9111962C93119725E02C930280F38152
:1039F000E02D09940895E091FA03F091FB033097CC
:103A000039F022E0DC012C930480F581E02D09944B
:103A100008952091F8033091F9038217930771F00C
:103A20009093F9038093F803E091FA03F091FB037C
:103A3000309721F00680F781E02D099408952091B8
:103A4000F6033091F7038217930771F09093F70311
:103A50008093F603E091FA03F091FB03309721F095
:103A60000084F185E02D0994089585B7806885BFAD
:103A700085B7806885BF089508950E94351D0C9410
:103A80003C1D81E008950E94232B0E94E7060C94C0
:103A9000BA2BCF92DF92EF92FF920F931F93CF93A7
:103AA000DF93CDB7DEB72B970FB6F894DEBF0FBE0E
:103AB000CDBF0E94B9070E94411D811111C08FEF37
:103AC00089838A831B820E942C2B8160782F9D839F
:103AD0008C8349815A816B818D810E942D1E56C035
:103AE0008DEFC82E83E0D82E00E010E0E02E802F6E
:103AF0000E940108F60141916F01F42EF82631F47D
:103B00000F5F1F4F0E30110589F7D9CF9091B80480
:103B100091FF04C08B870E9407088B8520E030E06E
:103B20004F2D50E0922FBA01022E02C07595679575
:103B30000A94E2F760FF24C02E83EF8221E030E098
:103B4000690102C0CC0CDD1C9A95E2F790E08C2153
:103B50009D21892B09F420E028870E942C2B81606D
:103B6000782F9A8789874E815F8168858A850E9430
:103B70002D1EF801E350FC4F8081C826C08206C08C
:103B80002F5F3F4F2630310569F6BACF0E944D2D89
:103B90001091FC030E94D51C1817A1F00E94D51C9F
:103BA0008093FC032B960FB6F894DEBF0FBECDBFFB
:103BB000DF91CF911F910F91FF90EF90DF90CF9009
:103BC0000C94A00A2B960FB6F894DEBF0FBECDBFA3
:103BD000DF91CF911F910F91FF90EF90DF90CF90E9
:103BE0000895DC0111962C9111978C91682F70E04B
:103BF00041E050E001C0440F8A95EAF712968C919B
:103C0000129730E0882329F080911B048823E9F083
:103C100006C0F901E55FFB4F90819423B1F086E087
:103C2000829FF001839FF00D1124E60FF71FEE0F26
:103C3000FF1FE656FD4F808191818D939C93F90182
:103C4000E55FFB4F8081482B06C0F901E55FFB4F24
:103C500040958081482340830895CF93DF93CDB76B
:103C6000DEB72B970FB6F894DEBF0FBECDBF942FF3
:103C70004F83252F588769877A878B874A855B858D
:103C8000452B21F02F3F09F59F3FF9F4DE011196F6
:103C900086E0FD0111928A95E9F785E0FE013796ED
:103CA00001900D928A95E1F749815A816B817C815F
:103CB0008D819E810E94BE252B960FB6F894DEBFA3
:103CC0000FBECDBFDF91CF910895CE0107960E9420
:103CD000F11DDCCFFC01808191810E9489289295A1
:103CE0009F70963041F480911B0491E08927809366
:103CF0001B0490931A040895882309F41AC182388A
:103D0000C1F40E94D51C81FD14C169E380910801B2
:103D1000909109010E947F2A0E94E8282FEF81EEEE
:103D200094E0215080409040E1F700C0000069E33A
:103D300019C08338F9F40E94D51C80FDFAC063E5F0
:103D400080910801909109010E947F2A0E94E82831
:103D50002FEF81EE94E0215080409040E1F700C0C9
:103D6000000063E580910801909109010E948A2A70
:103D70000C94E8288438C1F40E94D51C82FDD9C077
:103D800067E480910801909109010E947F2A0E94B6
:103D9000E8282FEF81EE94E0215080409040E1F739
:103DA00000C0000067E4DECF9CEF980F913A40F42A
:103DB000682F80910801909109010E947F2AD8CF35
:103DC00090E2980F983050F4877091E001C0990FFD
:103DD0008A95EAF7892F0E941E29CACF9BE5980F82
:103DE000933070F4853A29F0863A31F083E890E018
:103DF00005C081E890E002C082E890E00C94091DC3
:103E000098E5980F973108F08EC0883A09F445C0BC
:103E1000893A09F445C08A3A09F445C08B3A09F455
:103E200045C08C3A09F445C08B3B09F445C08C3B36
:103E300009F445C08D3A09F445C0803B09F445C0FA
:103E40008E3A09F445C08F3A09F445C0813B09F424
:103E500045C0823B09F445C0833B09F445C0843B1F
:103E600009F445C0853B09F445C0863B09F445C0CB
:103E7000873B09F445C0883B09F445C0893B09F4F8
:103E800045C08D3B09F445C08E3B09F445C08A3BD3
:103E900009F445C080E090E044C082EE90E041C06B
:103EA00089EE90E03EC08AEE90E03BC085EB90E06A
:103EB00038C086EB90E035C083EB90E032C084EBF5
:103EC00090E02FC087EB90E02CC08CEC90E029C0F4
:103ED0008DEC90E026C083E891E023C08AE891E071
:103EE00020C082E991E01DC084E991E01AC081E21E
:103EF00092E017C083E292E014C084E292E011C025
:103F000085E292E00EC086E292E00BC087E292E08A
:103F100008C08FE690E005C080E790E002C08AE22A
:103F200092E00C941F1D803F20F00E94552C0C94B1
:103F3000422D0895882309F464C0823879F40E94E0
:103F4000D51C81FF5EC069E3809108019091090151
:103F50000E947F2A0E94E82869E310C08338B1F4E8
:103F60000E94D51C80FF4DC063E5809108019091AF
:103F700009010E947F2A0E94E82863E580910801D8
:103F8000909109010E948A2A0C94E828843879F4D7
:103F90000E94D51C82FF35C067E480910801909192
:103FA00009010E947F2A0E94E82867E4E7CF9CEF7E
:103FB000980F913A10F4682FE1CF90E2980F983063
:103FC00050F4877091E001C0990F8A95EAF7892F24
:103FD0000E942429D9CF9BE5980F933020F480E0EC
:103FE00090E00C94091D98E5980F973120F480E03B
:103FF00090E00C941F1D803F20F00E94BD2C0C947B
:10400000422D0895CF93C82F0E947C1E8C2FCF91F4
:104010000C949A1F882321F00E941E290C94E828F2
:104020000895882321F00E9424290C94E8280895FB
:104030008F929F92AF92BF92DF92EF92FF920F9377
:104040001F93CF93DF937C01D62FC72FFC010581EF
:1040500002950F70128111110E943E290E94E128E1
:10406000882379F0112369F080E28D0F883048F0C1
:1040700082E00E94CA280E94E12891E0D82ED92629
:1040800001C0D12CAC2EA2948FE0A822B12CF50156
:10409000EF57FF4F0C94DE378C2F807FCF70882333
:1040A00011F0C295C07F112399F0CC2309F4C8C147
:1040B00080E28D0F883010F0D11104C08C2F0E9447
:1040C0001E2903C08C2F0E9431290E94E828B8C104
:1040D0008D2F0E949A1FCC2309F42EC280E28D0FEF
:1040E000883010F0D11104C08C2F0E94242903C005
:1040F0008C2F0E9437290E94E8281EC28C2F807FB7
:10410000CF70803211F0C295C07FDD2319F0D1301D
:10411000C9F021C0112371F0002341F0013031F4C6
:104120000E9457298C2B0E94512906C20E945729B0
:104130008C2B3FC1002319F0013009F4FDC10E940E
:10414000542911C0112321F0023008F0F5C107C035
:104150000111F2C108C0112321F0011171C18C2F8E
:1041600028C101117EC18C2F2AC18C2F869586957E
:10417000837090E0009719F0019761F0DDC1112381
:1041800021F08D2F9C2F937002C080E090E00E9460
:10419000091DE2C1112321F08D2F9C2F937002C0C5
:1041A00080E090E00E941F1DD7C11123F9F0D53F98
:1041B00051F0D63F71F0D43FA9F48091550690910B
:1041C000560681600BC0809155069091560682601C
:1041D00005C08091550690915606846090935606CE
:1041E000809355068D2F0E94552C1EC0D53F51F04F
:1041F000D63F71F0D43FA9F48091550690915606B0
:104200008E7F0BC080915506909156068D7F05C01C
:1042100080915506909156068B7F90935606809319
:1042200055068D2F0E94BD2C0E94422D95C18C2FCA
:10423000837009F050C011118BC18D2F8295869526
:104240008770880F880F9D2F9F70892E912CA12C2D
:10425000B12C082E04C0880C991CAA1CBB1C0A9403
:10426000D2F7D4FF14C00FE010E020E030E0B90135
:10427000A80104C0440F551F661F771F8A95D2F707
:10428000CB01BA01609570958095909503C060E070
:1042900070E0CB01C695C695C370D0E0C230D105A1
:1042A00061F0C330D10581F0682979298A299B29D9
:1042B000219771F00E9403274BC1682979298A2927
:1042C0009B290E94152744C10E940327C501B40100
:1042D0000E94F1263DC1112319F08C2F817001C07D
:1042E0008695882309F434C18D2F82958695877031
:1042F000880F880F9D2F9F70892E912CA12CB12C97
:10430000082E04C0880C991CAA1CBB1C0A94D2F766
:10431000D4FF14C00FE010E020E030E0B901A801A4
:1043200004C0440F551F661F771F8A95D2F7CB0133
:10433000BA01609570958095909503C060E070E03B
:10434000CB01C695C695C3704C2F50E04230510545
:1043500069F04330510589F0682979298A299B2918
:104360004130510571F00E94C827F2C068297929AF
:104370008A299B290E94DA27EBC00E94C827C50121
:10438000B4010E94B627E4C08D2F90E0FC01E05EEE
:10439000F109E531F10508F04FC0EF56FF4F0C94DD
:1043A000DE37DF708C2F8F71112331F00E944F2781
:1043B0008D2F0E940A20C0C00E9470278D2F0E945E
:1043C0001120BAC0112339F00111B6C08C2F8F71A2
:1043D0000E949527B1C0023008F0AEC0F7CF11237C
:1043E00039F08C2F8F710E944F27A6C01123C9F37B
:1043F0008C2F8F710E9470279FC0112329F08C2F62
:104400008F710E943A2798C00E94352795C01123CA
:1044100049F0CF718C2F0E944F2763E08C2F0E94B0
:10442000C1288AC081E00E94CA28023008F484C0F2
:1044300082E00E94CA2880C0112331F0002389F253
:104440008D2F0E947C1E78C0002391F2D93349F44D
:104450005FEF67EE73E0515060407040E1F700C0DD
:1044600000008D2F0E949A1F67C04C2F4F706D2F38
:10447000C7010E9496090E9462266EC0D23FB1F029
:1044800028F4D03F49F0D13FF9F028C0D43FB9F02B
:1044900058F0D53F71F022C0112309F447C0909124
:1044A0001B0481E0892708C081E0182710931B04B2
:1044B0003DC011113BC081E080931B0437C0111136
:1044C00035C010921B0432C0112329F080911A04C8
:1044D000882329F329C0002311F328C080911A04EE
:1044E0000023C1F0882341F090911B0481E08927CB
:1044F00080931B0410921A048D2F112319F00E942F
:104500007C1E14C00E949A1F86E0F70111928A95C2
:10451000E9F70CC0882351F0111108C090911B04D9
:1045200081E0892780931B0410921A044C2F4F704E
:104530006D2FC7010E944C0DF8E0AF16B10441F099
:104540005CF04AE0A41AB10852E0A516B10420F4C8
:104550000E94D51C0E94A00ADD20E1F00E94BD2827
:1045600080FD18C0F70112820E94B7280E944F27D1
:10457000C7010E94D6220E94B728DF91CF911F91D8
:104580000F91FF90EF90DF90BF90AF909F908F9032
:104590000C947027DF91CF911F910F91FF90EF90B6
:1045A000DF90BF90AF909F908F9008950F931F93CF
:1045B000CF93DF93EC01888199812B813C81232B60
:1045C000B9F09F3F11F48F3F99F0CE010E94B20ADB
:1045D000882371F0688179818A810E9494288C01F6
:1045E0000E94EC270E94EE26B801CE010E941820FE
:1045F000DF91CF911F910F9108950E943E290E9453
:104600004E290E94E8280E94E82D0E94422D80E059
:1046100090E00E94091D80E090E00C941F1D8091A5
:104620000801909109010E94952A0C94FD220E9494
:104630002E290C940F230E948928E92FE295EF7010
:10464000F0E03297EE30F105B0F4EA55FF4F0C94EC
:10465000DE37803F91F018F4803E68F40EC0843F4E
:1046600051F40BC0803E48F0813F29F406C093FB13
:10467000882780F9089580E0089581E00895CF9318
:10468000DF9300D000D01F92CDB7DEB70F900F9010
:104690000F900F900F90DF91CF910895CF93DF93FC
:1046A00000D000D000D0CDB7DEB726960FB6F89474
:1046B000DEBF0FBECDBFDF91CF9108951F93CF9383
:1046C000DF93C0911C0416E080911D04C81799F077
:1046D000D0E01C9FF0011D9FF00D1124E25EFB4F06
:1046E0004081518162817381848195810E944E2332
:1046F0002196C770E9CFDF91CF911F910895409126
:104700004E0450914F046091500470915104809177
:104710005204909153040C944E238091530482953B
:104720008F7009F054C080915004882309F44FC061
:1047300080911C04A0911D0460914E0470914F045F
:104740004091510450915204B6E08A1709F43FC0D9
:1047500090E041155105C1F17F3F11F46F3FA1F188
:10476000B89FF001B99FF00D1124E25EFB4F21814B
:1047700072132AC02081621327C02281211124C014
:10478000238134812417350710F421503109241B6B
:10479000350B283C3105C0F4209153042F70206163
:1047A0002093530426E0289FF001299FF00D112447
:1047B000ED5DFB4F80818F70806180838EE494E09B
:1047C0000E94D6220C945E2301968770BECF089576
:1047D000CF92DF92EF92FF920F931F93CF93DF93CD
:1047E000CDB7DEB762970FB6F894DEBF0FBECDBF70
:1047F0008C0185E0F801DE011D9601900D928A95ED
:10480000E1F7D8014C9111965C91119712966C9139
:1048100012971396CD90DC90149730914E047091BE
:104820004F048091510490915204009709F46BC198
:104830007F3F19F43F3F09F466C1E0905004EE2039
:1048400009F4C0C020915304C816D90628F0F60117
:10485000E81BF90BCF0104C0809590958C0D9D1D30
:10486000FF24F394883C910578F0F12C207F09F027
:10487000C6C07C2DD98AC88A89890E943F238EE4CC
:1048800094E00E94D622B1C0822F807F09F046C0FA
:10489000751314C0341312C0611110C02F70206141
:1048A000209353040E947F238EE494E00E94D6223A
:1048B00080915304D80115968C932EC0CD2819F100
:1048C0005F3F11F44F3FF9F0F62E61111CC080914B
:1048D0001C0420911D0436E0821709F45AC090E0B0
:1048E000389FF001399FF00D1124E25EFB4F71817A
:1048F000571306C07081471303C07281711103C042
:1049000001968770E9CFF62E662309F427C18091BE
:104910005304816080935304F12C20C1751308C0A7
:10492000341306C0611104C080915304D801C3C080
:104930004D875E878D859E856A8B0E941B236A89C1
:104940008823E1F16623D1F120915304822F8295CF
:104950008F7090E0029774F080914E0490914F0414
:1049600098878F831986DB86CA862C87CE010796A7
:104970000E94D62286E0F801AEE4B4E001900D92E8
:104980008A95E1F70E948D230E947F23FF24F394F0
:10499000E5C04D875E878D859E850E948928292FD9
:1049A00022952F7030E0223031050CF0CBC09F7083
:1049B00009F0C5C0805E883008F4D0C0C8010E94EC
:1049C000D622E4CFC816D90608F453C0F601E81B76
:1049D000F90BCF01883C910508F450C0F12C7C2DD7
:1049E000D98AC88A89890E943F23EEE4F4E086E0F0
:1049F000DF011D928A95E9F70E947F23AFC07513EE
:104A000014C0341312C0611110C080915304F80116
:104A10008583C8010E94D62286E0EEE4F4E0DF013F
:104A20001D928A95E9F7FE2C99C04D875E878D858A
:104A30009E856A8B0E941B236A89882309F4BECF56
:104A4000662309F4BBCF20915304822F82958F7087
:104A500090E002970CF48ECF80914E0490914F0419
:104A60009A8389831B82DD82CC822E83CE010196BC
:104A70007FCF809590958C0D9D1DACCFF62E662333
:104A800009F49CCF75132EC034132CC0209153040D
:104A900020FD1FC0822F82958F70D9F0D801159606
:104AA0002C9315978F3049F08F5F982F9295907FB8
:104AB000822F8F70892B15968C93C8010E94D62265
:104AC00086E0F801AEE4B4E001900D928A95E1F73A
:104AD00093CF86E0F801AEE4B4E001900D928A95A0
:104AE000E1F73CC04D875E878D859E850E941B2324
:104AF000811140CF80915304816080935304C80199
:104B00000E94D6222BC0662309F458CF4D875E87BA
:104B10008D859E850E941B23F82E882309F44ECF95
:104B200086E0F801AEE4B4E001900D928A95E1F7D9
:104B30008EE494E00E946A1E0E948D235DCF811155
:104B400039CF0CC0243031050CF038CF9F7009F4F8
:104B500031CFF8019581907F09F02CCF8F2D62968F
:104B60000FB6F894DEBF0FBECDBFDF91CF911F917E
:104B70000F91FF90EF90DF90CF9008951F93CF9308
:104B8000DF93CDB7DEB72C970FB6F894DEBF0FBE1C
:104B9000CDBF4F83588769877A878B879C87CE01E3
:104BA00007960E94E823882369F08F8198852A85DB
:104BB0003B85232BF1F19F3F09F063C08F3F09F044
:104BC00060C037C086E0FE013796DE011196019085
:104BD0000D928A95E1F76F817885EA85FB8530979C
:104BE00041F17F3F11F46F3F21F120911D0430E02E
:104BF000C90101968770992740911C0450E08417E1
:104C0000950709F447C069837A83FD83EC8396E0B6
:104C1000929FD001939FB00D1124A25EBB4FFE0165
:104C2000319601900D929A95E1F780931D040E94B0
:104C30005E2316E080911C0490911D048917C1F138
:104C4000189FC0011124825E9B4F0E94E823882395
:104C500079F1E0911C041E9FF0011124E25EFB4FEC
:104C60004081518162817381848195810E944E23AC
:104C700080911C0490E001968770992780931C0412
:104C8000D9CF4F81588569857A858B859C850E940F
:104C90004E23CFCF0E94172310921D0410921C04A4
:104CA000EEE4F4E086E0DF011D928A95E9F7C1CFDA
:104CB0002C960FB6F894DEBF0FBECDBFDF91CF911B
:104CC0001F910895EF92FF920F931F93CF93DF935D
:104CD0008C01892B09F46CC0F12CEE24E394E801DB
:104CE0002196F8018491843740F4843008F051C053
:104CF000813081F0823019F15BC0853709F444C0FE
:104D0000A8F19CE7980F903708F052C08F770E9467
:104D10009A1F41C00E5F1F4FFE01C49180E28C0FAD
:104D2000883048F4C7708E2D01C0880FCA95EAF705
:104D30000E94412914C08C2F0E947C1E2DC00E5F42
:104D40001F4FFE01C49180E28C0F883058F4C77069
:104D50008E2D01C0880FCA95EAF70E9447290E944C
:104D6000E8281AC08C2F0E949A1F16C00E5F1F4F92
:104D7000FE01C491CC2381F08FE99FE00197F1F708
:104D800000C00000C150F6CF0E5F1F4FFE01F4902F
:104D900003C00E947C1E8E018F2D882309F49FCFB3
:104DA000EFE9FFE03197F1F700C000008150F5CF47
:104DB000DF91CF911F910F91FF90EF90089508958B
:104DC0000C94DF260E94E02660938F047093900479
:104DD00080939104909392040C94FD2208950C9476
:104DE000E2260F931F9300918F041091900420915D
:104DF000910430919204602B712B822B932B1F9185
:104E00000F910C94E2260F931F9300918F04109141
:104E100090042091910430919204602371238223A5
:104E200093231F910F910C94E2260F931F930091EF
:104E30008F04109190042091910430919204602786
:104E40007127822793271F910F910C94E2260C94CF
:104E5000DD090E94272760938B0470938C04809354
:104E60008D0490938E040C94FD2260E070E0CB01E1
:104E70000C9429270F931F9341E050E060E070E00D
:104E80008A019B0104C0000F111F221F331F8A9546
:104E9000D2F7C901B8011F910F910C9429270F93E4
:104EA0001F9341E050E060E070E004C0440F551FE4
:104EB000661F771F8A95D2F780918B0490918C049E
:104EC000A0918D04B0918E048A019B01082B192BAF
:104ED0002A2B3B2BC901B8011F910F910C94292754
:104EE0000F931F9341E050E060E070E004C0440F76
:104EF000551F661F771F8A95D2F74095509560958C
:104F0000709580918B0490918C04A0918D04B09148
:104F10008E048A019B01082319232A233B23C901FC
:104F2000B8011F910F910C9429270F931F9341E013
:104F300050E060E070E004C0440F551F661F771F0B
:104F40008A95D2F780918B0490918C04A0918D0466
:104F5000B0918E048A019B01082719272A273B2735
:104F6000C901B8011F910F910C9429270F931F932A
:104F700000918B0410918C0420918D0430918E044B
:104F8000602B712B822B932B1F910F910C9429274F
:104F90000F931F9300918B0410918C0420918D042A
:104FA00030918E0460237123822393231F910F91EC
:104FB0000C9429270F931F9300918B0410918C045C
:104FC00020918D0430918E046027712782279327CA
:104FD0001F910F910C9429270895292F220F920FCA
:104FE000990F890FA82FA695A695A695877051E0D1
:104FF00001C0550F8A95EAF785E0A89FD0011124DA
:1050000020E030E070E0F901EA0FFB1FEC5AFB4FA3
:105010004081CB01022E02C0969587950A94E2F753
:1050200081709927819584278523842780832F5F2A
:105030003F4F2530310539F70895292F220F920F60
:10504000990F890F682F669566956695982F9770CA
:1050500085E0689FB001112440E050E080E0FA0153
:10506000E60FF71FEC5AFB4F208130E0092E02C0FB
:10507000369527950A94E2F721703327042E01C054
:10508000220F0A94EAF7822B4F5F5F4F453051059C
:1050900031F70895CF92DF92EF92FF920F931F9313
:1050A000CF93DF938C01C0908F04D0909004E09058
:1050B0009104F090920480918B0490918C04A091C3
:1050C0008D04B0918E04C82AD92AEA2AFB2ACFE19E
:1050D000D0E0D701C6010C2E04C0B695A7959795D0
:1050E00087950A94D2F780FF06C0B8018C2F0E94E2
:1050F000670D019721F4219760F780E001C08C2FA4
:10510000DF91CF911F910F91FF90EF90DF90CF90A3
:105110000895CF93DF93EC010E944A28BE010E94BC
:10512000670DDF91CF9108951F93CF93DF93EB012C
:1051300090911904992321F0CB010E94892813C072
:10514000882349F0CB010E944A28182F682FCE01EE
:105150000E94ED2704C0CB010E941D28182FBE011C
:10516000812F0E94670DDF91CF911F91089580914B
:10517000930485958595859508958091930487700E
:10518000089598E0899F90011124262B2093930481
:105190000C944F272091930480958223809393044D
:1051A000982F977069F430E0482F082E000C550BAB
:1051B0002417350729F08595859585950C947027DA
:1051C000089590919304977081E009F480E0089528
:1051D000E0910801F09109018091B7048083E0918A
:1051E0000801F091090190818091B604892B808398
:1051F000E0910801F091090190818091B504892B1B
:10520000808380919404882381F0E0910801F091DB
:1052100009019081892B8083809108019091090177
:105220000E941A2A81111092940480910801909191
:1052300009010C94E11C8091B70408959091B70482
:10524000892B8093B704089580959091B7048923A2
:105250008093B70408958093B70408951092B7041B
:1052600008959091B604892B8093B6040895809593
:105270009091B60489238093B60408951092B604E1
:1052800008959091B504892B8093B5040895809575
:105290009091B50489238093B50408951092B504C4
:1052A0000895809394040895109294040895809131
:1052B00094040895CF92DF92EF92FF926C01EE2456
:1052C000FF24C114D104E104F10421F0C701B601A7
:1052D00020E101C020E0C72ED82EE92EFF24C11402
:1052E000D104E104F10419F0285FC701B6016B0194
:1052F0007C0154E0F694E794D794C7945A95D1F77B
:10530000C114D104E104F10419F02C5FC701B60106
:105310006B017C0142E0F694E794D794C7944A95D8
:10532000D1F7C114D104E104F10419F02E5FC701D3
:10533000B601DC01CB01B695A79597958795892B8A
:105340008A2B8B2B09F02F5F822FFF90EF90DF903D
:10535000CF90089580E090E00E944E3821E08D3E8D
:105360009E4F09F020E0822F089582E090E00C9497
:10537000403883E090E00C94403884E090E00C9456
:105380004038682F84E090E00C945438AB01BC01A5
:105390008FE090E00C946638AB01BC0183E190E0B3
:1053A0000C94663860E070E0CB010C94CC2960E08E
:1053B00070E0CB010E94C6290C94D2296DEE7EEFDD
:1053C00080E090E00E94723860E082E090E00E940D
:1053D000543860E083E090E00E94543810928F04CB
:1053E00010929004109291041092920460E084E074
:1053F00090E00E94543860E085E090E00E945438CC
:1054000060E086E090E00E9454386FEF87E090E023
:105410000E94543840E050E0BA0188E090E00E94D9
:10542000663860E08DE090E00E9454380C94D729F3
:105430000C94DE29FC01329680911901882331F009
:1054400080915B0687FF02C09EE101C096E080E08C
:10545000915028F021912223D9F38F5FF9CF08953D
:105460009C01FC0132969FEF80E04191461789F044
:105470009F3F19F4411101C0982F8F5F8630A9F723
:105480009F3F39F0F901E90FF11D97FDFA9562830D
:1054900008950895FC01329608962081261301C0D4
:1054A00010823196E817F907C1F70895262F26953F
:1054B000269526952E3168F4FC01E20FF11D6770E8
:1054C00021E030E001C0220F6A95EAF78281282BA3
:1054D00022830895262F2695269526952E3170F441
:1054E000FC01E20FF11D677021E030E001C0220FE6
:1054F0006A95EAF7209582812823228308952091D6
:105500001901222329F020915B0627FD0C94562ACD
:105510000C94302A20911901222329F020915B0656
:1055200027FD0C946A2A0C944A2A20911901FC0147
:105530003296222331F080915B0687FF02C08EE114
:1055400001C086E0DF011D928A95E9F7089508956C
:105550000C94A72A0E94A82A80916106843049F100
:105560001092B90420E488E190E00FB6F894A89571
:10557000809360000FBE2093600080E00E94A00A2C
:105580000E94A82A83B7817F846083BF83B781602C
:1055900083BF7894889583B78E7F83BF0FB6F894C6
:1055A000A8958091600088618093600010926000EF
:1055B0000FBE08950895CF930E9410070E94B90767
:1055C0000E94DA2AC0E08C2F0E940108811104C0D9
:1055D000CF5FCE30C1F701C081E0CF91089508952B
:1055E0000C94EF2A0E9417230E94D51C0E94A00A47
:1055F0000C94F02A1F920F920FB60F9211248F93E2
:105600009F93AF93BF938091B904811113C0809190
:10561000570690915806A0915906B0915A064196A6
:10562000A11DB11D8093570690935806A09359066B
:10563000B0935A06BF91AF919F918F910F900FBE7B
:105640000F901F90189582E084BD93E095BD9AEF6E
:1056500097BD80936E0008952FB7F89480915706F8
:1056600090915806A0915906B0915A062FBF0895FF
:10567000CF92DF92EF92FF920F931F932FB7F89480
:1056800040915706509158066091590670915A06FC
:105690002FBF6A017B01EE24FF248C0120E030E063
:1056A000C016D106E206F30610F4415051099A01E2
:1056B000281B390BC9011F910F91FF90EF90DF90CC
:1056C000CF90089578941F920F920FB60F921124E5
:1056D0008F939F93AF93BF938091570690915806F5
:1056E000A0915906B0915A060196A11DB11D809353
:1056F000570690935806A0935906B0935A06BF9147
:10570000AF919F918F910F900FBE0F901F901895A2
:10571000F89481E08093E00080E28093D800E9EC87
:10572000F0E010828FE19EE40197F1F700C00000E5
:105730001DBA109268001CBC10BE1FBA10927A00ED
:1057400010926E0010926F00109271001092720011
:105750001082ECEBF0E0108214B817B81AB81DB83C
:1057600010BA108215B818B81BB81EB811BA0C942C
:10577000003F08950E94AA29811102C00E94182AA0
:105780000E94B5298093B8040E94BD2990E09093AF
:105790005C0680935B060E94B929682F70E080E068
:1057A00090E00C94EF268091BD0480FF0BC06091C7
:1057B0000D0185E0689FB001112475956795759579
:1057C00067952BC081FF09C060910D0185E0689F3E
:1057D000B00111247595679520C082FF07C06091C4
:1057E0000D0185E0689FB001112417C09091BE049F
:1057F0009923D1F060910C01961788F720910D0143
:1058000085E0289F90011124929FA001939F500D45
:10581000112470E0CA010E94CA376038710540F453
:105820006115710539F002C065E070E0862F0895BA
:105830008FE7089581E008958091BD0480FF08C03E
:1058400060910B0170E0759567957595679521C01E
:1058500081FF06C060910B0170E07595679519C0D6
:1058600082FF04C060910B0170E010C09091BE04F3
:105870009923C1F060910A019617A0F780910B015E
:10588000899FC001112470E00E94CA3760387105F9
:1058900028F46115710521F0862F08958FE708958A
:1058A00081E0089561E070E0F4CF803F21F40E9430
:1058B000D32B819504C0813F29F40E94D32B809380
:1058C000C2040895823F21F40E94D32B819504C025
:1058D000833F29F40E94D32B8093C1040895893F0C
:1058E00019F40E941C2C05C08A3F31F40E941C2C24
:1058F00081958093C30408958B3F21F40E941C2C52
:10590000819504C08C3F29F40E941C2C8093C40410
:105910000895843F21F48091C004816017C0853FC1
:1059200021F48091C004826011C0863F21F48091EF
:10593000C00484600BC0873F21F48091C00488605C
:1059400005C0883F31F48091C00480618093C00419
:1059500008958D3F21F48091BD0481600BC08E3F7E
:1059600021F48091BD04826005C08F3F29F48091AD
:10597000BD0484608093BD040895803F39F4809114
:10598000C20487FF6CC01092C20469C0813F29F431
:105990008091C2041816BCF362C09091C104823F8A
:1059A00029F497FF5CC01092C10459C0833F19F4D9
:1059B0001916CCF354C0893F41F48091C3041816E2
:1059C0000CF04DC01092C3044AC08A3F29F4809164
:1059D000C30487FF44C0F6CF8B3F39F48091C404E1
:1059E00087FF3DC01092C4043AC08C3F29F48091D7
:1059F000C4041816BCF333C0843F21F48091C00462
:105A00008E7F17C0853F21F48091C0048D7F11C027
:105A1000863F21F48091C0048B7F0BC0873F21F427
:105A20008091C004877F05C0883F31F48091C00415
:105A30008F7E8093C00413C08D3F21F48091BD04FC
:105A40008E7F0BC08E3F21F48091BD048D7F05C0F9
:105A50008F3F29F48091BD048B7F8093BD0480919A
:105A6000C10481110EC08091C20481110AC08091CD
:105A7000C304811106C08091C404811102C0109238
:105A8000BE0408958FEB94E00E94FB1C0E942C2B17
:105A90009093BB048093BA0408951F93CF93DF9330
:105AA0008091BA049091BB040E94382BAC01909174
:105AB000BE04992321F020910E0130E006C0209110
:105AC000BC048AE0289F900111244217530708F470
:105AD0007BC08091C104C091C204D091C3041091D5
