:100000000C9458060C9475060C9475060C947506A1
:100010000C9475060C9475060C9475060C94750674
:100020000C9475060C9475060C94C0320C949233A3
:100030000C94282B0C9475060C9475060C9475067C
:100040000C9475060C9475060C9475060C94750644
:100050000C9475060C94902B0C9475060C947506F4
:100060000C9475060C9475060C9475060C94750624
:100070000C9475060C9475060C9475060C94750614
:100080000C9475060C9475060C9475060C94750604
:100090000C9475060C9475060C9475060C947506F4
:1000A0000C9475060C9475060C947506CD06D00656
:1000B000D306D606D906DC06DF06F709FC09060AD0
:1000C000FA09FF09040A020A4A0B4C0B570B4E0BA4
:1000D000500B520B540B560B590B5B0B5D0B680B03
:1000E0005F0B610B630B650B670B6A0BF717FA1756
:1000F000FD1700180318061809180C180F18121805
:1001000015185420542086208620BD20DD2046224C
:10011000A4221F21A422CC21CC213D22A422A4224E
:100120009E22D921D921D921D921D921D921D92139
:10013000D921D921D921D921D921D921D921D921EF
:10014000D921EA21F721FE2105220F222F232F2377
:100150004123412338234123412341232F232F23AC
:100160003D23412341233D23FF33263418352634D4
:100170001835723495341835EB34FA3405A84CCD63
:10018000B2D44EB93836A9020C50B9918688083CD1
:10019000A6AAAA2ABE000000803F6572676F646F3E
:1001A000785F657A2F65656531323861383364640C
:1001B000346537383961653366204020302E362E5D
:1001C0003237332D31362D676234653462652D64E4
:1001D00069727479000000F0A100000000000000C6
:1001E000000000000000000000000000000000000F
:1001F00000000000000000000000000000000000FF
:1002000000000000000000000000000000000000EE
:1002100000000000000000000000000000000000DE
:1002200000000000000000000000000000000000CE
:1002300000000000000000000000000000000000BE
:1002400000000000000000000000000000000000AE
:10025000000000000000000000000000000000009E
:100260000000000000000000009AFFFF9AFFFF9AC4
:10027000FFFF9AFFFF9AFFFF9AFFFF9AFFFF9AFF87
:10028000FF9AFFFF9AFFFF9AFFFF9AFFFF9AFFFF77
:100290009AFFFF9AFFFF9AFFFFCDFFFF9AFFFF9A99
:1002A000FFFF9AFFFF9AFFFF9AFFFF9AFFFF9AFF57
:1002B000FF9AFFFF9AFFFF9AFFFF9AFFFF9AFFFF47
:1002C0009AFFFF9AFFFF9AFFFF00CCFF9AFFFF9A69
:1002D000FFFF9AFFFF00CCFF00CCFF00CCFF9AFF8E
:1002E000FF9AFFFF9AFFFF9AFFFF9AFFFF9AFFFF17
:1002F0009AFFFF9AFFFF9AFFFF69FFFF69FFFF69FF
:10030000FFFF69FFFF69FFFF69FFFF69FFFF69FFEB
:10031000FF69FFFF69FFFF69FFFF69FFFF69FFFFDB
:1003200069FFFF69FFFF69FFFF69FFFF69FFFF6961
:10033000FFFF69FFFF000000000000000000000058
:100340000069FFFF69FFFF69FFFF69FFFF69FFFFAA
:10035000000000000000000000000000000000009D
:1003600000009AFFFFF9E4FF9AFFFF000000000081
:10037000000000000000000000000000000000007D
:100380000000000000000000000000000000000E5F
:10039000FFFF0EFFFF0EFFFF69FFFF23FFFF23FF9D
:1003A000FF23FFFF0EFFFF69FFFF23FFFF23FFFF78
:1003B00023FFFF000000F9E4FF23FFFF23FFFF23DB
:1003C000FFFF69FFFF00000023FFFF23FFFF000086
:1003D000000000000000000000000000000000001D
:1003E00000000000000023FFFF00000000000000EC
:1003F000000023FFFF23FFFF23FFFF00000000009A
:100400000000000000000000000000000023FFFFCB
:1004100023FFFF00000000000000000000000000BB
:100420000000000000000000000000000000FA9F33
:10043000FF000000000000000000FA9FFFFA9FFF8D
:10044000FA9FFF0000000000000000000000000014
:10045000000000000000000000000000000000009C
:10046000000000000000000000000000000000008C
:100470000000000000000EFFFF0000000000000070
:10048000000069FFFF0EFFFF69FFFF000000000092
:10049000000000000000000000000000000000005C
:1004A000000000000000000000000000000000004C
:1004B000000000000000000000000086FFD586FF5D
:1004C000D586FFD500000000000086FFD586FFD549
:1004D00086FFD500000000000086FFD555CB9E8624
:1004E000FFD50000000000000AE1FF00000000004E
:1004F00000000000000000000000000000000000FC
:1005000000000000000000000000000000000000EB
:1005100000000000000000000000000000000000DB
:1005200000000000000000000000000000000000CB
:1005300000000000000000000029002B002A00E15C
:1005400000350000001E00140004001D0034003BB4
:10055000001F001A0015001B0001000251200009B5
:100560000016000600E2002C0021001300170019FD
:1005700000E0003A0022000A0007000500000065C4
:100580000003510100000005510000E30001530188
:1005900000000000070000E70023000D000B000E24
:1005A0000000004C0024000F001100100004513C1A
:1005B0000025001800080036000100280026001C55
:1005C000000C00370001000004270033001200383F
:1005D0000001003D002D0031003400E50001000065
:1005E000000100010001000100010000001E0014D4
:1005F0000004001D000100E75C1F001A0016001B2C
:1006000000010001002000080007000600010001B1
:100610000021001500090019000100C35C22001729
:10062000000A0005000000010001001000000001A8
:1006300000000001000100010000000100000001B5
:100640000023001C000B0011000000010024001812
:10065000000D0010000100C55C25000C000E0036E6
:100660000001000100260012000F00370001000108
:100670000027001300330038000100C65C010001B0
:100680000001000100010000000100010001000163
:1006900000010000003A000100010001000100CA51
:1006A0005C3B00010015070100010001003C000156
:1006B0000016070100010001003D000100170701BD
:1006C000000100C95C3E0001000100010000003E85
:1006D00000010000000000010000003F00010001D7
:1006E00000000001000000C25C3F00250221022240
:1006F000020000E75C40002F0226022F000100E804
:100700005C41003002270230000100C55C42002D30
:100710000256001F020100C65C43002E022E00207C
:10072000020100E95C4400450001000100010000F5
:1007300000010001000100010001000000010001B2
:1007400000010001000100010001000100F20001B0
:1007500000010001000100F000F1000100F40001BF
:100760000001000100F3000100F50001000100019B
:100770000001000100000001000100010000000173
:100780000000000100010001000000010000000164
:10079000000100A900AA00A8000000010001002437
:1007A0000021001E00010001005400250022001F4E
:1007B0000062000C005500260023002000630001A9
:1007C0000056005700000058000100010001000120
:1007D0000001000100010000000100010001000112
:1007E0000001000000010000000000000001000105
:1007F00000000000004A0000000100010000004B62
:10080000004E00000001000100000000004D00004B
:1008100000010001000100000000000000000001D4
:1008200000010001000000010000000100010001C2
:1008300000000001000000010001000000000000B5
:100840000000000100000000005000000001000155
:1008500000000052005100000001000100000000F3
:10086000004F000000010001000100000000000036
:100870000001000100010001000100010001000071
:100880000001000100010001000100000001000161
:100890000001000100010001000100010001000150
:1008A0000001000100010001000100010001000140
:1008B0000001000100010001000100010001000130
:1008C0000001000100000001000100010000000122
:1008D0000000000100010001000000010000000113
:1008E00000010001000100010000000100010024DE
:1008F0000721071E07010001000100250722071F2D
:100900000727070100010026072307200701000130
:1009100000010001000100010001000100010001CF
:1009200000010001000100000000000000000000C4
:10093000002A2B280000000000000000000000003A
:100940000000000029000000002C1E342021222479
:10095000342627252E362D3738271E1F2021222307
:100960002425263333362E37381F04050607080999
:100970000A0B0C0D0E0F101112131415161718195F
:100980001A1B1C1D2F3130232D35040506070809BD
:100990000A0B0C0D0E0F101112131415161718193F
:1009A0001A1B1C1D2F3130354C00000000000000C8
:1009B0000000000000000000000000000000000037
:1009C0000000000000000000000001010101010121
:1009D0000001010101000000000000000000000013
:1009E00000000001000100010101010101010101FC
:1009F00001010101010101010101010101010101E7
:100A000001010101000000010100000000000000E0
:100A100000000000000000000000000000000000D6
:100A200000000000010101010000000000000101C0
:100A3000010101010101010202020202020202029D
:100A4000030303030303030304040404040405056C
:100A5000050505060606060607070707080808082D
:100A60000909090A0A0A0A0B0B0B0C0C0C0D0D0DD7
:100A70000E0E0F0F0F101011111112121313141468
:100A8000151516161717181819191A1A1B1C1C1DDC
:100A90001D1E1F1F20202122222324252526272733
:100AA00028292A2B2B2C2D2E2F2F30313233343561
:100AB00036363738393A3B3C3D3E3F40414243446D
:100AC000464748494A4B4C4D4F5051525355565743
:100AD000585A5B5C5E5F606263646667696A6C6DEE
:100AE0006E707173747678797B7C7E808183848666
:100AF000888A8B8D8F91929496989A9B9D9FA1A3A3
:100B0000A5A7A9ABADAFB1B3B5B7B9BBBDBFC1C4A4
:100B1000C6C8CACCCFD1D3D6D8DADCDFE1E4E6E868
:100B2000EBEDF0F2F5F7FAFCFF04033000000016DD
:100B3000034500720067006F0044006F00780020DA
:100B40000045005A00000016034500720067006F60
:100B50000044006F007800200045005A00000004A7
:100B600003090409023B00020100A0FA0904000085
:100B700001030101000921110100012240000705C4
:100B8000810308000A090401000103000000092193
:100B90001101000122C0000705820320000A120192
:100BA000100100000008EDFE07130100010203011F
:100BB00005010902A10185020901A1000509190128
:100BC000290515002501950575018102950175031B
:100BD00081010501093009311581257F95027508CC
:100BE000810609381581257F950175088106050C58
:100BF0000A38021581257F950175088106C0C00558
:100C0000010980A10185031601002603001A810055
:100C10002A8300751095018100C0050C0901A1010E
:100C20008504160100269C021A01002A9C027510F8
:100C300095018100C005010906A101850505071977
:100C4000E029E715002501950875018102050819BD
:100C5000012905950575019102950175039101051D
:100C600007190029EF1500250195F075018102C0D3
:100C700005010906A101050719E029E7150025016D
:100C80009508750181029501750881010508190112
:100C900029059505750191029501750391010507D7
:100CA000190029FF150026FF00950675088100C070
:100CB00011241FBECFEFDAE0DEBFCDBF13E0A0E00E
:100CC000B1E0E0E5F2E702C005900D92AA34B10769
:100CD000D9F726E0AAE4B3E001C01D92AA36B20714
:100CE000E1F70E94E42F0C9426390C94000080B3A5
:100CF0008C7080BB81B3836F81BB089584B1807F8A
:100D000084B985B1807F85B98AB1837F8AB98BB177
:100D1000837F8BB93E9846980895CF93E82F87300C
:100D200090F58091040190910501892B09F049C04B
:100D3000CE2F64E670E080E40E94D41B90930501FE
:100D400080930401892BD1F464E670E082E10E9473
:100D50002B1C9093050180930401892B79F481E089
:100D600090E001C0880FCA95EAF764E670E08095CC
:100D70000E942B1C909305018093040184E690E06F
:100D8000CF910C94801C90E0FC013797E730F1057F
:100D9000C0F4EA5AFF4F0C941938209A289811C0D1
:100DA000219A29980EC0229A2A980BC0239A2B9830
:100DB00008C0529A5A9805C0539A5B9802C03E9A4E
:100DC0004698CF910895089508950C94E406CF9322
:100DD000DF930E94760890E09093050180930401D0
:100DE0000E947E060E947706AFE9B3E02BE433E071
:100DF000EDEAF3E04EE04E0F11921D9280E090E09C
:100E0000E901C80FD91F1882019686309105C1F7F4
:100E10002A5F3F4F4E13F0CFDF91CF910C946F0AB2
:100E20000E94760890E090930501809304010E944F
:100E30007E060E947706EDEAF3E08EE08E0F1192B7
:100E40008E13FDCF0895CF93DF93E62FF0E0E156A8
:100E5000FC4F40814827808386E0689FF001112481
:100E6000E55BFC4F20E030E080E061E070E050E0C6
:100E7000AAE0B22F9081992319F09150908307C076
:100E8000EB01022E01C0CC0F0A94EAF78C2BEA0189
:100E900002C0D595C795BA95E2F7C0FDA0832F5F34
:100EA0003F4F31962630310521F7DF91CF910895DC
:100EB000CF93DF93D82F873008F040C08091040192
:100EC00090910501892B09F042C064E670E080E44E
:100ED0000E94D41B9093050180930401892B11F08B
:100EE000C0E027C064E670E083E10E942B1C909371
:100EF000050180930401892B99F764E670E081E491
:100F00000E94D41B9093050180930401892B41F723
:100F100084E690E00E945B1C97FF05C0909305015A
:100F200080930401DDCFC82FC09510920501109267
:100F3000040184E690E00E94801C0AC09FB1CFB1FA
:100F4000C07FC695C6959370C92BC09501C0C0E0FF
:100F50006D2F8C2F0E942307282F2095ED2FF0E076
:100F6000E355FC4F908192238C23892BDF91CF9105
:100F70000895EF92FF920F931F93CF93DF93809189
:100F8000040190910501892B91F080914A038F5FB4
:100F900080934A0381110BC00E94760890E09093E1
:100FA000050180930401892B11F40E9408088DEA41
:100FB000E82E83E0F82E04EB13E0C0E08C2F0E94B3
:100FC0008D06D7E0DC0F8D2F0E948D068C2F0E949E
:100FD0005807F70181937F018D2F0E945807F80170
:100FE00081938F010E947E06CF5FC73039F70E9440
:100FF0007B0A81E0DF91CF911F910F91FF90EF90DD
:101000000895E82FF0E0E355FC4F8081089508959E
:1010100056985E9825982D9826982E9827982F9860
:101020008FEF90E0909389008093880090938B00DD
:1010300080938A0090938D0080938C00259A2D9A3E
:101040002FEF80E792E0215080409040E1F700C010
:101050000000269A2E9A2FEF80E792E021508040E0
:101060009040E1F700C00000279A2F9A2FEF80E709
:1010700092E0215080409040E1F700C000002598A8
:101080002D982FEF80E792E0215080409040E1F7CB
:1010900000C0000026982E982FEF80E792E02150A4
:1010A00080409040E1F700C0000027982F985698A4
:1010B0005E9825982D9826982E9827982F98089511
:1010C00089EA8093800089E08093810024982C989D
:1010D0003F988AB18F7C8AB96E98479A8BB18063AA
:1010E0008BB9769A0E9408080C94E30680E290E09F
:1010F00090930501809304018091BB0381110EC080
:101100000E94CE1B81E08093BB032FEF83ED90E321
:10111000215080409040E1F700C0000064E670E09C
:1011200080E40E94D41B9093050180930401892BD5
:1011300009F050C064E670E080E00E942B1C9093A0
:10114000050180930401892B09F044C064E670E036
:1011500080E00E942B1C9093050180930401892B51
:10116000C9F564E670E08FE30E942B1C90930501A3
:1011700080930401892B71F584E690E00E94801C25
:1011800064E670E080E40E94D41B90930501809394
:101190000401892BF9F464E670E08CE00E942B1CBA
:1011A0009093050180930401892BA1F464E670E01B
:1011B00080E00E942B1C9093050180930401892BF1
:1011C00049F464E670E08FE30E942B1C90930501C4
:1011D0008093040184E690E00E94801C80910401C9
:1011E0000895AF92BF92CF92DF92EF92FF920F934A
:1011F0001F93CF93DF93EC0181E00E94821980E975
:101200008C9F70018D9FF00C1124C0E0D0E000E0B5
:1012100010E0670182E0C80ED11C57018FEFA81AB9
:10122000B80AF601EC0FFD1FE752FE4F8491FE0154
:10123000EE0DFF1DE752FE4F6491F501EC0FFD1F0F
:10124000E752FE4F7491882319F08091EB0401C09E
:1012500080E00E949310472F282FC8010E94481158
:101260000F5F1F4F239600331105D9F6DF91CF9101
:101270001F910F91FF90EF90DF90CF90BF90AF90B4
:1012800008958091BC03811150C060918B047091CE
:101290008C0480918D0490918E040E948829823064
:1012A000B9F128F4882349F0813079F10895843028
:1012B000A9F188F18530A9F1089580E190E00E94BC
:1012C00083386093E8047093E9048093EA04909370
:1012D000EB04862F86958F730E9482198091E80413
:1012E000982F9E77923009F1881F8827881F909148
:1012F000E904292F220F97FB992790F94091EB04DD
:101300006091EA04822B0C94A81981E090E00BC054
:1013100082E090E008C083E090E005C084E090E0C7
:1013200002C085E090E00C94F1080895611108C0B6
:10133000FC018281882321F08AE991E00E946C0AF5
:1013400080E090E00895FB01873E2CE5920799F03C
:1013500020F4863E9C4549F02EC0883E2CE592073D
:1013600089F0893E9C45C9F026C08281882321F1FD
:101370000E94462A1EC082818823F1F081E00E94EB
:10138000731917C082818823B9F081E00E94731914
:101390004FEF64E985EC90E00AC08281882361F018
:1013A00081E00E9473194FEF69E787E890E00E949F
:1013B000911980E0089581E00895CF92DF92EF9235
:1013C000FF926B017C010E94882956985E982598AF
:1013D0002D9826982E9827982F9890E0FC01319709
:1013E000E730F105A8F4E35AFF4F0C941938259A19
:1013F0002D9A0EC0259A2D9A269A2E9A09C0259AC2
:101400002D9A04C0259A2D9A269A2E9A279A2F9AB9
:10141000C701B601FF90EF90DF90CF90089581E073
:1014200008950C94A309CF93282F30E0F901E75DCC
:10143000F64FC491F901E755F64F2491222359F054
:1014400081EE0E94841E8C2F0E94841E8C2F0E948D
:10145000A21F81EE04C08C2F0E94841E8C2FCF917E
:101460000C94A21F0F931F93CF93DF93EC01062FD1
:10147000FE018491882359F19E012F5F3F4F8130F7
:1014800041F4E901F9011491812F0E94841E812FFA
:101490000DC0823031F4E901F90184910E94841E6B
:1014A0000AC0833031F4E901F90184910E94A21F3E
:1014B00002C00E94130A2196802F8823C9F2EFE907
:1014C000FFE03197F1F700C000008150F6CFDF91C7
:1014D000CF911F910F91089560E00C94320A0E9401
:1014E000D829811102C00E94462A0E9419180E9420
:1014F000E30F0C9460080E947B178091BD0381115B
:1015000002C00E9443118091BD0390E001966BE000
:1015100070E00E9405388093BD030C94E506282FE7
:101520002F7041F0822F90E02A3010F44D960895EC
:101530000697089587E290E0089508950C949D0A17
:101540000C949E0A08950E941F230E94A20A2FEF66
:1015500084E39CE0215080409040E1F700C000000F
:101560000C94B62BFF920F931F93CF93DF938C01B4
:10157000FC01C081D18180911904811113C0828145
:10158000882349F0CE010E945528F82E682FCE01FD
:101590000E94F82704C0CE010E942828F82EBE0120
:1015A0008F2D04C0CE010E945528BE010E944D0D12
:1015B000EC01B8010E94110A882309F466C2B8013F
:1015C000CE010E945E10882309F45FC2CC3CFCE58A
:1015D000DF0741F4F8018281882309F456C20E9492
:1015E0005A1953C2CD3C8CE5D80708F01EC1C43C43
:1015F0009CE5D90761F4F8018281882309F445C28A
:101600000E94D5288272E1F40E946F183EC2C53C48
:10161000ECE5DE0708F0C7C0C531FCE5DF0798F050
:10162000C23CFCE5DF0709F48CC008F492C0F80165
:101630008281882309F429C20E94D528827221F769
:101640000E94551822C2C2308CE5D80708F452C057
:10165000F8018281882309F459C00E94D829811198
:1016600002C00E94462A0E94EB2990E090935C06FB
:1016700080935B06FE01E350FC45E231F10530F456
:10168000EC59FF4F80915B060C94193880915B06F2
:10169000816027C0826025C0846023C0806121C032
:1016A00080621FC080641DC080681BC08460886029
:1016B00018C08E7F16C08D7F14C08B7F12C08F7EA6
:1016C00010C08F7D0EC08F7B0CC08F770AC08B7FC0
:1016D000877F07C087FB222720F991E0922790FBA4
:1016E00087F980935B0680915B060E94EF290E9438
:1016F0001F23CBC1C1159CE5D90781F0C130DC4562
:10170000A9F081E08093C3038093C403C801DF91F3
:10171000CF911F910F91FF900C940F0AF8018281D5
:10172000882309F4B2C10E94A30AAFC1F8018281E3
:10173000882309F4AAC18091B80481608093B80419
:10174000A4C1F8018281882309F49FC10E9447182F
:101750009CC1C631DC45A9F60E94D528282FF80186
:1017600082814091080150910901882379F02A7AF9
:1017700091E009F490E09093BE03911102C069E2F8
:1017800001C065E3CA010E94AD2A0AC08091BE0370
:10179000811102C069E201C065E3CA010E94B82A52
:1017A0000E94242972C1F8018281C83CFCE5DF0750
:1017B00031F4882309F469C10E94FB1866C1C93C51
:1017C0009CE5D907C8F4C63CECE5DE0731F4882374
:1017D00009F45BC10E94B51858C1C73CDC4530F420
:1017E000882309F452C10E9489184FC1882309F443
:1017F0004CC10E94E51849C1CA3C9CE5D90731F4A7
:10180000882309F442C10E942B193FC1CB3CDC451F
:1018100030F4882309F439C10E94151936C1882390
:1018200009F433C10E94451930C1C43DFCE5DF070E
:1018300091F4F8018281882309F427C10E948C1950
:10184000893128F00E948C19823208F4F9CE89E19E
:101850000E9473191AC1C53D8CE5D80708F068C00D
:10186000F8018281C03DFCE5DF0771F4882309F4AB
:101870000CC10E948C19893028F00E948C198E307E
:1018800008F4DECE89E0E4CFC13D9CE5D90740F500
:10189000CE3CECE5DE0771F4882309F4F6C00E9423
:1018A0008C19823028F00E948C19853008F4C8CE3B
:1018B00082E0CECFCF3CDC4528F4882309F4E5C094
:1018C00081E0C6CF882309F4E0C00E948C198630DD
:1018D00028F00E948C19883008F4B2CE86E0B8CF88
:1018E000C23D9CE5D90771F4882309F4CEC00E945B
:1018F0008C19853128F00E948C19873108F4A0CE0C
:1019000085E1A6CFC33DDC4570F4882309F4BDC052
:101910000E948C198F3028F00E948C19843108F4B1
:101920008FCE8FE095CF882309F4AFC088E190CFA8
:10193000C83DFCE5DF0759F5F8018281882361F095
:101940001092C4030E945A2B9093C2038093C10348
:1019500080E20E94122099C08091C403882321F064
:1019600080E20E94192091C08091C1039091C2032E
:101970000E94662B883C910598F780E20E9419200E
:1019800088E20E94841E88E20E94A21F7EC0C93D98
:101990008CE5D80708F058C0F8018281C63DFCE507
:1019A000DF0751F5882351F01092C3030E945A2B90
:1019B0009093C0038093BF0382E0CBCF0E94D528D1
:1019C00085FF05C081E08093C3038093C4038091A9
:1019D000C30381110FC08091BF039091C0030E9487
:1019E000662B883C910530F486E20E94841E86E2D4
:1019F0000E94A21F82E0B5CFC73DDC4528F48823B2
:101A000009F443C083E224CF81119ACF0E94D528E4
:101A100081FF05C081E08093C3038093C40380915C
:101A2000C40381119DCF8091C1039091C2030E9494
:101A3000662B883C910508F093CF87E20E94841EB4
:101A400087E20E94A21F8CCFCC3DECE5DE0741F47B
:101A5000F80182818823C9F082E00E94833015C09A
:101A6000CD3DFCE5DF0739F4F8018281882369F078
:101A70000E94462A0AC0CB3DDC4509F042CEF8015F
:101A80008281882311F080E0E8CF80E0DF91CF9160
:101A90001F910F91FF900895089596E0799FF001AE
:101AA000112494E5899FE00DF11D1124E60FF11D2D
:101AB000EE0FFF1FE75CFA4F859194910895880F10
:101AC000991FFC01EB52FE4F859194910895CF939D
:101AD000DF930E944D0D0E942C0FEC01811520E533
:101AE0009207F0F5811530E4930708F029C1883E8C
:101AF000910500F5803E910508F0AAC1883A91054C
:101B000070F4853A910508F0A4C08130910509F47C
:101B10009FC108F450C1049708F09AC14CC18F3B93
:101B2000910508F4A1C0803C910508F444C1805C93
:101B30009109F9C0811540E2940758F4C11581E07C
:101B4000D80708F085C1C03FD10508F434C1D0657D
:101B50007FC1811520E3920708F0E9C09F70E3C0C0
:101B6000811535E5930708F044C0811544E59407D5
:101B700008F0FDC0C11582E5D80708F5C11521E5BB
:101B8000D20708F0E0C08C2F837021E030E002C063
:101B9000220F331F8A95E2F73C68CE0174E09695D8
:101BA00087957A95E1F78370382BCF70C695C695E7
:101BB00040E2C49FE0011124C22BD32B49C12C2F3A
:101BC00026952695CE0183709927C115D34508F037
:101BD000BFC040E2249F90011124C1E0D0E002C0C8
:101BE000CC0FDD1F8A95E2F72C2B3D2BE901DC6839
:101BF0002FC181154AE59407A0F4C11589E5D807DE
:101C000008F0C4C0C11526E5D20708F4B5C0C11557
:101C100038E5D30708F4CFC0DC2FCC27C06FD06ADB
:101C200017C181159B4508F4C6C0C1158CE5D807BE
:101C300008F4BEC0CE0190568115904208F0BBC09A
:101C40008D2F8F710E94A90FDD27D0628F71D82B45
:101C5000FFC0853A910509F4B1C0863A910509F0B3
:101C6000B0C0C2E8D0E4F4C0883A910509F4ACC031
:101C7000893A910509F4ABC08A3A910509F4AAC0E2
:101C80008B3A910509F4A9C08C3A910509F4A8C0D2
:101C90008B3B910509F4A7C08C3B910509F4A6C0C4
:101CA0008D3A910509F4A5C0803B910509F4A4C0C3
:101CB0008E3A910509F4A3C08F3A910509F4A2C0A8
:101CC000813B910509F4A1C0823B910509F4A0C0B4
:101CD000833B910509F49FC0843B910509F49EC0A4
:101CE000853B910509F49DC0863B910509F49CC094
:101CF000873B910509F49BC0883B910509F49AC084
:101D0000893B910509F499C08D3B910509F498C070
:101D10008E3B910509F497C08A3B910509F496C062
:101D2000C0E0D4E495C00E945F0DEC0191C09927FA
:101D3000D3FF03C0EC01D86C8BC0EC01D06C88C021
:101D4000DF70D06A85C0DC2FCC27C16FD06A80C01D
:101D500040E2249F90011124C1E0D0E002C0CC0FEA
:101D6000DD1F8A95E2F7C22BD32BDA6871C0D82F1A
:101D7000CC27C46FD06A6CC08C2F0E94A90F8F71C2
:101D8000C82FD0E0DC2FCC27D06262C08C2F8F70A0
:101D90000E94A90F94E0D695C7959A95E1F7CF7068
:101DA000D0E0DC2FCC27D06A8F70806EC82B50C05B
:101DB000DD27D0664DC0C0E0D0E04AC0C1E8D0E425
:101DC00047C0C3E8D0E444C0C2EED4E441C0C9EE89
:101DD000D4E43EC0CAEED4E43BC0C5EBD4E438C082
:101DE000C6EBD4E435C0C3EBD4E432C0C4EBD4E4D6
:101DF0002FC0C7EBD4E42CC0CCECD4E429C0CDEC8C
:101E0000D4E426C0C3E8D5E423C0CAE8D5E420C0A2
:101E1000C2E9D5E41DC0C4E9D5E41AC0C1E2D6E4E4
:101E200017C0C3E2D6E414C0C4E2D6E411C0C5E2D0
:101E3000D6E40EC0C6E2D6E40BC0C7E2D6E408C0C2
:101E4000CFE6D4E405C0C0E7D4E402C0CAE2D6E4D9
:101E5000CE01DF91CF9108958238910549F1B0F418
:101E60008133910509F458C048F48932910509F489
:101E70004EC08A32910509F454C008958533910506
:101E800009F440C08933910599F00895833E910586
:101E900029F138F4803E910591F0823E9105A1F040
:101EA0000895863E9105F9F0873E910531F1089538
:101EB00020915B0620FD3AC021FD38C00895809135
:101EC0005B0680FD35C032C080915B0682FF32C068
:101ED00080915B0684FD30C083EE39C080915B0643
:101EE00082FD28C0F5CF80915B0683FF27C08091DB
:101EF0005B0684FD21C087EE2AC080915B0683FDCE
:101F00001DC0F5CF80915B0685FD1AC01BC0809176
:101F10005B0685FD17C014C080915B0686FD14C06A
:101F200015C080915B0686FD11C00EC080EE0FC00B
:101F300089E30DC082EE0BC080E009C086EE07C0C9
:101F400089E205C085E303C08AE201C081E390E035
:101F5000089590915B0692FF0DC0282F28712830BC
:101F600019F4877F846006C0282F2471243011F46F
:101F70008B7F886093FF0DC0282F2871283119F4BA
:101F8000877E846106C0282F2471243111F48B7E52
:101F9000886194FD877E0895CF93DF93813020E898
:101FA000920768F0FB012281222349F0EC010E9494
:101FB000F90FCE019F770E9441100E942E1081E000
:101FC000DF91CF9108958CE090E00E947B3890E003
:101FD000A0E0B0E08093ED049093EE04A093EF04B2
:101FE000B093F00408956091ED048CE090E00C94BF
:101FF0008F380E94D5288093C5030E94E8288091DD
:10200000ED04813071F048F08230D9F08430F9F479
:1020100086EE0E940A2088E118C082EE0E94841E8B
:1020200016C080EE0E94841E81EE0E94841E88E10C
:102030000E940A2081EE0E94A21F80EE0E94A21F31
:1020400006C082EE0E94841E87E50E940A208FE36C
:102050009CE90197F1F700C0000008958091ED041C
:10206000813021F038F0823029F007C08CE20E94E4
:102070000A2003C082EE0E94A21F8091C5030C9427
:10208000E5280F931F93CF93DF938C01CCE0D0E032
:10209000C8010C2E02C0969587950A94E2F78F70BE
:1020A0000E948F0A0E940A202497CC3F8FEFD80706
:1020B00079F7DF91CF911F910F9108950F931F939F
:1020C000CF93DF93EC018B01FB018281882319F10F
:1020D000C23EFCE5DF07C1F050F4C03EECE5DE0790
:1020E00081F0C13EFCE5DF07B1F481E010C0C33EE2
:1020F0008CE5D80759F0C43EECE5DE0761F484E0D6
:1021000006C01092ED0405C082E001C083E0809318
:10211000ED040E94F30FB801CE01DF91CF911F9122
:102120000F910C94CC0FCF92DF92EF92FF920F930E
:102130001F93CF93DF93E82FF82F711103C0682FFF
:10214000782F7EC0062F10E0C72FD0E0E82EF12CAC
:10215000C8016BE270E00E94F1379B0145ED42033C
:10216000B001439F700D1124060F171F86E0809F5A
:10217000B001819F700D11244FEF50E0CA018C1BFC
:102180009D0B8E9DD0018F9DB00D9E9DB00D112495
:102190008B2F6C9F80016D9F100D7C9F100D112463
:1021A000012F11276A01C01AD10ACE9C8001CF9C51
:1021B000100DDE9C100D11246A01C61AD70ACC9EA0
:1021C000B001CD9E700DDC9E700D1124672F772716
:1021D000461B570B4E9DE0014F9DD00D5E9DD00DCF
:1021E00011247D2F2230310599F04CF42115310551
:1021F000C9F021303105A1F47E2FE12F13C0233027
:10220000310551F02430310559F4ED2F7B2F06C0F4
:10221000EB2F8D2F7F2F06C0712FEB2F8F2F02C03A
:102220007B2F812FF0E0E75DF54F6491E72FF0E021
:10223000E75DF54F7491E82FF0E0E75DF54F84918D
:10224000DF91CF911F910F91FF90EF90DF90CF9092
:10225000089580E190E00C948338AB01BC0180E1EB
:1022600090E00C94A138E8EEF4E08DE080831092C9
:10227000E9048FEF8283838314826081718182817C
:1022800093810C942D11E0914803F0914903099436
:10229000E0914403F09145030994E0914603F091E5
:1022A0004703099440E060E080E00C944D11E8EEB3
:1022B000F4E06081862F881F8827881F6091E904D9
:1022C000660F682B728183810E949310962F672F6F
:1022D000482F892F0C944D11DF92EF92FF920F93AC
:1022E0001F93CF93DF938091E804881F8827881F6E
:1022F0009091E904492F440F242F282B97FB332773
:1023000030F9C9018C549F4F68E671E00E9405388E
:10231000821B930B8038910514F09A9505C0813883
:102320004FEF94070CF4939597FD03969595879539
:1023300095958795C82F8091EA04281B310937FFAE
:1023400002C02D5F3F4F3595279535952795D22FA4
:10235000D090EB049CE1E92E91E0F92E00E010E032
:10236000F701208122952F706091E804962F991F24
:102370009927991F6091E904660F692B2C9F600DC6
:1023800011247091EA042D9F700D11248D2D0E944F
:102390009310472F282FC8010E9448110F5F1F4F2D
:1023A000F4E0EF0EF11C00331105D1F6DF91CF916F
:1023B0001F910F91FF90EF90DF900895AF92BF9221
:1023C000CF92DF92EF92FF920F931F93CF93DF9301
:1023D0001F92CDB7DEB7D82E2091E804221F222706
:1023E000221F8091E904982F990FB22EB92A87FBFA
:1023F000882780F9EB2DF82FCF018C549F4F68E68A
:1024000071E00E9405389C012E1B3F0B37FF02C074
:102410002D5F3F4F3595279535952795A22EC09076
:10242000EA040091CC031091CD032091CE033091AA
:10243000CF039091EC04992359F0692F70E08AE062
:1024400090E00E940538CB01770FAA0BBB0B04C0AC
:102450008AE090E0A0E0B0E080239123A223B323A0
:10246000892B8A2B8B2B41F40E946B3860E370E040
:102470000E940538082F01C00FEFE12CF12C10E06D
:10248000D11003C0E016F106A9F40E946B388370E6
:102490006B2D8A9D600D112469830E946B386981C0
:1024A0007C2D8091EB040E949310472F282FC701A9
:1024B0000E9448118FEFE81AF80A80E3E816F10449
:1024C000F9F60F90DF91CF911F910F91FF90EF9050
:1024D000DF90CF90BF90AF900895CF92DF92EF92B0
:1024E000FF921F93CF93DF938091CC039091CD0304
:1024F000A091CE03B091CF030090EC0404C0880FEC
:10250000991FAA1FBB1F0A94D2F7182F8AE1C82E61
:1025100081E0D82EC0E0D0E09FE3E92EF12CF60157
:1025200080818F3FE1F0FE01EF50FB4F8081F4E0AE
:102530008F9FC00111248034910524F4B701681BDA
:10254000790B02C060E070E0610F7FEF8091EB04D7
:102550000E949310472F282FCE010E9448112196E8
:1025600024E0C20ED11CC033D105C9F6DF91CF9152
:102570001F91FF90EF90DF90CF900895CF92DF9260
:10258000EF92FF920F931F93CF93DF938091CC0331
:102590009091CD03A091CE03B091CF030090EC04B5
:1025A00004C0880F991FAA1FBB1F0A94D2F7D82E08
:1025B000C090EB040AE111E0C0E0D0E08FE3E82E28
:1025C000F12CF80180818F3FF9F0FE01EF50FB4FB5
:1025D0002081F4E02F9F90011124203431052CF448
:1025E000C701821B930B9C0102C020E030E0F80180
:1025F00061816D0D620F7FEF8C2D0E949310472F2C
:10260000282FCE010E94481121960C5F1F4FC03326
:10261000D105B9F6DF91CF911F910F91FF90EF9007
:10262000DF90CF900895CF92DF92EF92FF920F93B9
:102630001F93CF93DF938091CC039091CD03A09112
:10264000CE03B091CF030090EC0404C0880F991F13
:10265000AA1FBB1F0A94D2F7D82EC090EB040AE140
:1026600011E0C0E0D0E08FE3E82EF12CF80180818A
:102670008F3FF9F0FE01EF50FB4F2081F4E02F9FD8
:1026800090011124203431052CF4C701821B930BD7
:102690009C0102C020E030E0F80162816D0D620F04
:1026A0007FEF8C2D0E949310472F282FCE010E9480
:1026B000481121960C5F1F4FC033D105B9F6DF9149
:1026C000CF911F910F91FF90EF90DF90CF900895E1
:1026D0002F923F924F925F926F927F928F929F9232
:1026E000AF92BF92CF92DF92EF92FF920F931F9320
:1026F000CF93DF933090EA042090EB046091CC03F9
:102700007091CD038091CE039091CF030E946636E5
:102710002BED3FE049E450E40E94333720E030E005
:1027200040E05CE30E9433376B017C010E94B935C5
:1027300020E030E040E05DE30E9433372B013C01B4
:10274000C701B6010E94A03720E030E040EE52E41D
:102750000E94BE354B015C01CCE1D1E000E010E00D
:10276000688170E080E090E00E94683620E030E010
:1027700040E052E40E944C35A30192010E9433379D
:102780006B017C01FE013197608170E080E090E098
:102790000E94683620E030E040EE52E40E944C3562
:1027A000A50194010E9433379B01AC01C701B6011A
:1027B0000E944D3520E030E044E353E40E9433377B
:1027C0006B017C018091E804881F8827881F909105
:1027D000E904292F220F622F682B97FB772770F9C6
:1027E000072E000C880B990B0E9468369B01AC01E8
:1027F000C701B6010E944D350E943736732D822DD8
:102800000E949310472F282FC8010E9448110F5F84
:102810001F4F24960033110509F0A2CFDF91CF910D
:102820001F910F91FF90EF90DF90CF90BF90AF90EE
:102830009F908F907F906F905F904F903F902F90E0
:1028400008952F923F924F925F926F927F928F9254
:102850009F92AF92BF92CF92DF92EF92FF920F932F
:102860001F93CF93DF93CDB7DEB728970FB6F894B9
:10287000DEBF0FBECDBF8091EA048D839091EB0443
:102880009E836091CC037091CD038091CE03909193
:10289000CF030E9466362BED3FE049E450E40E94EE
:1028A000333720E030E040E05CE30E9433376B01D7
:1028B0007C010E94B9352B013C01C701B6010E9481
:1028C000A03769837A838B839C83ECE1F1E0F887FE
:1028D000EF8300E010E0EF81F88531972080EF81F1
:1028E000F885B0803090EC04332079F0632D70E0EF
:1028F00080E090E00E94683620E030E040EC5FE34A
:102900000E9433376B017C0106C0C12CD12C90ECA6
:10291000E92E9FE3F92E6B2D70E080E090E00E949D
:10292000683620E030E040E052E40E944C359B01E4
:10293000AC01C701B6010E943337A30192010E9486
:1029400033374B015C01332079F0632D70E080E078
:1029500090E00E94683620E030E040EC5FE30E94A7
:1029600033376B017C0106C0C12CD12C80ECE82EE2
:102970008FE3F82E622D70E080E090E00E946836D0
:1029800020E030E040EE52E40E944C359B01AC0167
:10299000C701B6010E94333729813A814B815C819E
:1029A0000E9433379B01AC01C501B4010E944D3533
:1029B0006B017C018091E804881F8827881F909113
:1029C000E904292F220F622F682B97FB772770F9D4
:1029D000072E000C880B990B0E9468369B01AC01F6
:1029E000C701B6010E944D350E9437367D818E8128
:1029F0000E949310472F282FC8010E9448110F5F93
:102A00001F4F8F819885049698878F830033110517
:102A100009F061CF28960FB6F894DEBF0FBECDBF88
:102A2000DF91CF911F910F91FF90EF90DF90CF90AA
:102A3000BF90AF909F908F907F906F905F904F90DE
:102A40003F902F9008952F923F924F925F926F92F6
:102A50007F928F929F92AF92BF92CF92DF92EF922E
:102A6000FF920F931F93CF93DF9300D000D01F925C
:102A7000CDB7DEB72091EA042A838091EB048B83E3
:102A80006091CC037091CD038091CE039091CF03E0
:102A90000E9466362BED3FE049E450E40E94333754
:102AA00020E030E040E05CE30E9433376B017C01C2
:102AB0000E94B9352B013C01C701B6010E94A03725
:102AC0004B015C01ACE1B1E0BD83AC8300E010E000
:102AD000EC81FD813197B081B983EC81FD8130803B
:102AE0002090EC04222069F0622D70E0660F771FC1
:102AF000072E000C880B990B0E9468366B017C0135
:102B000005C0C12CD12CE12C20E4F22E632D70E005
:102B100080E090E00E94683620E030E040E052E43F
:102B20000E944C359B01AC01C701B6010E943337AE
:102B3000A30192010E9433376B017C01222021F016
:102B4000312C220C331C03C082E0282E312CF98159
:102B50006F2F70E080E090E00E94683620E030E067
:102B600040EE52E40E944C350E9430369B0177FFC4
:102B700004C022273327261B370B82E490E0821BF8
:102B8000930B289EB001299E700D389E700D112464
:102B9000072E000C880B990B0E946836A501940142
:102BA0000E9433379B01AC01C701B6010E944D352D
:102BB0006B017C018091E804881F8827881F909111
:102BC000E904292F220F622F682B97FB772770F9D2
:102BD000072E000C880B990B0E9468369B01AC01F4
:102BE000C701B6010E944D350E9437367A818B812C
:102BF0000E949310472F282FC8010E9448110F5F91
:102C00001F4F8C819D8104969D838C830033110519
:102C100009F05ECF0F900F900F900F900F90DF9103
:102C2000CF911F910F91FF90EF90DF90CF90BF90C9
:102C3000AF909F908F907F906F905F904F903F905C
:102C40002F9008952F923F924F925F926F927F92B2
:102C50008F929F92AF92BF92CF92DF92EF92FF92AC
:102C60000F931F93CF93DF9300D01F92CDB7DEB7A2
:102C70002090EA048091EB0489836091CC037091E9
:102C8000CD038091CE039091CF030E94663620E061
:102C900030E040E85BE30E94333720E030E040E67C
:102CA00053E40E9433372B013C01ECE1F1E0FB835C
:102CB000EA8300E010E0EA81FB8131973080EA810D
:102CC000FB81E080F090EC04FF2079F06F2D70E044
:102CD00080E090E00E94683620E030E040EC5FE366
:102CE0000E9433374B015C0106C0812C912C90EC83
:102CF000A92E9FE3B92E6E2D70E080E090E00E9437
:102D0000683620E030E040E052E40E944C350E94FA
:102D100030369B0177FF04C022273327261B370B51
:102D2000B901330F880B990B0E9468369B01AC01E7
:102D3000C501B4010E9433372EE23DEB4BEB53EB60
:102D40000E9433374B015C01FF2079F06F2D70E05A
:102D500080E090E00E94683620E030E040EC5FE3E5
:102D60000E9433376B017C0106C0C12CD12C80EC52
:102D7000E82E8FE3F82E632D70E080E090E00E9453
:102D80006836A30192010E944C359B01AC01C7013A
:102D9000B6010E9433379B01AC01C501B4010E940A
:102DA0004C356B017C018091E804881F8827881FBF
:102DB0009091E904292F220F622F682B97FB772728
:102DC00070F9072E000C880B990B0E9468369B0146
:102DD000AC01C701B6010E944D350E943736722DF5
:102DE00089810E949310472F282FC8010E94481103
:102DF0000F5F1F4F8A819B8104969B838A830033D8
:102E0000110509F058CF0F900F900F90DF91CF91DF
:102E10001F910F91FF90EF90DF90CF90BF90AF90F8
:102E20009F908F907F906F905F904F903F902F90EA
:102E30000895CF92DF92FF920F931F93CF93DF936A
:102E40001F92CDB7DEB7F82E0091CC031091CD03C1
:102E50002091CE033091CF039091EC04992359F047
:102E6000692F70E08AE090E00E940538AB01770F8F
:102E7000660B770B04C04AE050E060E070E040234E
:102E8000512362237323452B462B472B39F40E9491
:102E90006B3860E370E00E94053801C08FEF00E0FE
:102EA00010E0C82ED12CF11003C00C151D0581F4C3
:102EB0000E946B3889830E946B38782F69818091DA
:102EC000EB040E949310472F282FC8010E9448113D
:102ED0000F5F1F4F0033110531F70F90DF91CF9136
:102EE0001F910F91FF90DF90CF90089508950E9459
:102EF00076170C9441094091E80440FD0AC00E94F5
:102F000052110E9477178091E80481708093070125
:102F100008958091C603843120F48F5F8093C603A7
:102F200008958091CC039091CD03A091CE03B091F0
:102F3000CF030196A11DB11D8093CC039093CD03C7
:102F4000A093CE03B093CF038091C8039091C9039F
:102F5000A091CA03B091CB038F3F2FEF9207A20736
:102F6000B20759F00196A11DB11D8093C80390933B
:102F7000C903A093CA03B093CB038091C703E1EFC9
:102F8000F4E090819F3F61F09E3F41F4282F30E0B4
:102F90002230310514F0815001C080E09F5F9083A2
:102FA000319695E0E132F90761F78093C703E42F8A
:102FB000E695EF7380910601E81307C081E09091D8
:102FC0000701913019F480E001C081E08170E09345
:102FD000060191E0909307014E2F50E0FA013197DE
:102FE000EB30F10520F5EA58FF4F0C9419380E9498
:102FF00057111DC00E9468131AC00E946C1117C09F
:103000000E94DE1114C00E946D1211C00E94BE12F7
:103010000EC00E9413130BC00E94211408C00E940E
:10302000231505C00E94221602C00E9419170C9495
:103030007717E0914203F09143030995E1EFF4E043
:103040008FEF819395E0E132F907D9F70E94D829F3
:10305000811104C00E94462A0E9433110E94291146
:103060006093E8047093E9048093EA049093EB047E
:103070006E7761F40E9433110E9429116093E80475
:103080007093E9048093EA049093EB040895E8EECA
:10309000F4E08081982F909590FB80F98083608187
:1030A0007181828193810C942D119091E804892F74
:1030B00086958F5F8F7391788C3018F4880F892BE9
:1030C00002C0892F82608093E8046091E8047091C7
:1030D000E9048091EA049091EB040C942D119091F5
:1030E000E804892F8695815C8F739178882319F085
:1030F000880F892B02C0892F86618093E804609134
:10310000E8047091E9048091EA049091EB040C9436
:103110002D118091E804982F991F9927991F80916C
:10312000E904880F892B90E008968F3F910519F0EC
:1031300014F08FEF90E02091E80480FB27F92093B2
:10314000E804282F26958091E9048078822B90FB53
:1031500087F98093E9046091E8047091E904809113
:10316000EA049091EB040C942D118091E804982FBF
:10317000991F9927991F8091E904880F892B90E066
:10318000089797FF02C080E090E08F3F910519F00B
:1031900014F08FEF90E02091E80480FB27F9209352
:1031A000E804282F26958091E9048078822B90FBF3
:1031B00087F98093E9046091E8047091E9048091B3
:1031C000EA049091EB040C942D118091EA0490E0B4
:1031D00008968F3F910519F014F08FEF90E08093DF
:1031E000EA046091E8047091E9048091EA04909106
:1031F000EB040C942D118091EA0490E0089797FF5E
:1032000002C080E090E08F3F910519F014F08FEF3D
:1032100090E08093EA046091E8047091E904809161
:10322000EA049091EB040C942D118091EB0490E052
:1032300008968F3F910519F014F08FEF90E080937E
:10324000EB046091E8047091E9048091EA049091A4
:10325000EB040C942D118091EB0490E0089797FFFC
:1032600002C080E090E08F3F910519F014F08FEFDD
:1032700090E08093EB046091E8047091E904809100
:10328000EA049091EB040C942D118091EC0490E0F1
:1032900001968430910514F083E090E08093EC0473
:1032A0006091E8047091E9048091EA049091EB0444
:1032B0000C942D118091EC0490E0019797FF02C0CF
:1032C00080E090E08430910514F083E090E08093FA
:1032D000EC046091E8047091E9048091EA04909113
:1032E000EB040C942D11E8EEF4E08F73982F990FF6
:1032F00080818178892B8083608171818281938133
:103300000C942D11E8EEF4E08F73982F990F8081C3
:103310008178892B808308958091E80486958F7346
:103320000895E8EEF4E0208180FB27F92083A9EEE0
:10333000B4E086952C912078822B90FB87F98C93B2
:103340006283438360817181828193810C942D110A
:10335000E8EEF4E0208180FB27F92083A9EEB4E0B9
:1033600086952C912078822B90FB87F98C93628331
:103370004383089567E784E70C948F1BCF930E94E3
:10338000CE1B84E70E94141A87E70E94141AC0E03B
:1033900021E041E061E08C2F0E94A61ACF5FC0338C
:1033A000B9F767E784E7CF910C94A21BE1E4F6E05C
:1033B0006083418324E630E042E050E0BF01880FA3
:1033C0000C94A41CEF92FF921F93CF93DF937B0189
:1033D000182F110FC0E0D0E08C2F8C5D8093410638
:1033E00020E030E0F901EC0FFD1FEE0DFF1D8081A4
:1033F000F901EF5BF94F81832F5F3F4F203131059A
:1034000089F724E630E041E150E061E476E0812F85
:103410000E94A41C6096C039D105F1F6DF91CF91CE
:103420001F91FF90EF900895CF93DF93C82F4BE04B
:103430006DEF0E94D61940E06AE08C2F0E94D619E9
:103440008FE39CE90197F1F700C0000040E060E0E5
:103450008C2F0E94D61940E061E08C2F0E94D61973
:1034600040E066E08C2F0E94D61940E06DEF8C2F73
:103470000E94D619D0E040E06D2F8C2F0E94D61903
:10348000DF5FD231C1F740E06D2F8C2F0E94D6193B
:10349000DF5FD432C1F740E06D2F8C2F0E94D61928
:1034A000DF5FD43BC1F74BE06DEF8C2F0E94D61944
:1034B00041E06AE08C2F0E94D61940E06DEF8C2F1E
:1034C000DF91CF910C94D6198033910520F5880FA8
:1034D000991F880F991FFC01E652FE4F52813381DC
:1034E000808183707181E0E98E9FC00111248F5D1E
:1034F0009A4FFC01E70FF11DB4976083FC01E50FC3
:10350000F11DB4974083830F911DFC01B497208374
:1035100081E08093F5030895FF920F931F93CF935B
:10352000DF93182F062FF42EC0E0D0E02F2D402F70
:10353000612FCE010E94641A2196C033D105B1F7E4
:10354000DF91CF911F910F91FF9008954F925F925D
:103550007F928F929F92AF92BF92CF92DF92EF9223
:10356000FF920F931F93CF93DF93362F54E0859FE5
:10357000C0011124FC01E652FE4FA081A3707A2EF7
:10358000618170E0CB0184978C0197FF02C0095FD5
:103590001F4FA3E015950795AA95E1F7628170E0AA
:1035A0007B0154E2E51AF108E701F7FC279673E086
:1035B000D595C7957A95E1F7638170E04B01E4E218
:1035C0008E1A9108F40197FC37962F0153E0559419
:1035D00047945A95E1F768E0A62EB12CB5010E94F8
:1035E00005386C01C701B5010E9405387C01C40192
:1035F000B5010E940538A72DB0E01127DD24332343
:10360000A1F032E13A9FB0013B9F700D1124060FEB
:10361000171F0F521C4F61E070E001C0660FCA9483
:10362000EAF7F8013081632B14C032E13A9FB00110
:103630003B9F700D1124060F171F0F521C4F61E0A6
:1036400070E001C0660FCA94EAF76095F801308116
:1036500063236083DD27FF2432E1442391F03A9F06
:10366000A0013B9F500D1124C40FD51FCF52DC4F3A
:1036700041E050E001C0440FEA94EAF73881432B5F
:1036800012C03A9FA0013B9F500D1124C40FD51FBB
:10369000CF52DC4F41E050E001C0440FEA94EAF71A
:1036A0004095388143234883A2015527992792E109
:1036B0009A9FF0019B9FF00D1124E40FF51FEF522C
:1036C000FC4F222361F021E030E0A90102C0440F49
:1036D000551F8A95E2F7CA019081892B0CC021E021
:1036E00030E0A90102C0440F551F8A95E2F7CA01D4
:1036F000809590818923808381E08093D003DF913E
:10370000CF911F910F91FF90EF90DF90CF90BF90DE
:10371000AF909F908F907F905F904F900895CF9340
:103720009091F503992351F0C62F61E275E00E9454
:10373000E21961EB75E08C2F0E94E2191092F503FB
:10374000CF910895EF92FF920F931F93CF93DF9342
:103750009091D0039923D9F0162F082F81EDE82EF0
:1037600083E0F82EC0E0D0E0F70141917F016C2F9B
:10377000802F0E94D619FE01EF52FC4F42896C2F18
:10378000812F0E94D6192196C231D10569F7DF91A8
:10379000CF911F910F91FF90EF9008951092B90073
:1037A0008CE08093B8000895EF92FF920F931F93DF
:1037B000CF93DF93182FEB011092BC0084EA809323
:1037C000BC000E945A2B7C019091BC0097FD0EC05A
:1037D000CF3F8FEFD807C1F30E945A2B8E199F0954
:1037E0008C179D0788F38EEF9FEF2EC09091B90044
:1037F000987F983041F09091B900987F903119F0FE
:103800008FEF9FEF21C01093BB0084E88093BC0032
:103810000E945A2B8C019091BC0097FD0CC0CF3FA9
:103820008FEFD807C1F30E945A2B801B910B8C1786
:103830009D0788F3D8CF8091B900887F883111F037
:103840008034F1F680E090E0DF91CF911F910F91ED
:10385000FF90EF9008950F931F93CF93DF93EB01A9
:103860008093BB0084E88093BC000E945A2B8C019B
:103870009091BC0097FD0EC0CF3F8FEFD807C1F3EA
:103880000E945A2B801B910B8C179D0788F38EEF9B
:103890009FEF0CC02091B900287F81E090E0283292
:1038A00011F480E090E0919581959109DF91CF919D
:1038B0001F910F9108950F931F93CF93DF93EC0106
:1038C00084E88093BC000E945A2B8C019091BC002C
:1038D00097FD0EC0CF3F8FEFD807C1F30E945A2B40
:1038E000801B910B8C179D0788F38EEF9FEF03C011
:1038F0008091BB0090E0DF91CF911F910F910895CF
:103900000F931F93CF93DF93EC0184E98093BC0066
:103910000E945A2B8C019091BC0094FF0EC0CF3FA7
:103920008FEFD807C1F30E945A2B801B910B8C1785
:103930009D0788F38EEF9FEF02C080E090E0DF915B
:10394000CF911F910F910895CF92DF92EF92FF9246
:103950000F931F93CF93DF936B017A018901B90114
:103960000E94D41BFC01892BC9F4E601EC0CFD1C60
:10397000CE15DF0541F0B80189910E942B1CFC0196
:10398000892BB1F30BC0C801DF91CF911F910F912B
:10399000FF90EF90DF90CF900C94801CCF01DF91CF
:1039A000CF911F910F91FF90EF90DF90CF900895EE
:1039B0009093FB038093FA030895E091FA03F0914A
:1039C000FB03309721F00190F081E02D099480E015
:1039D0000895E091FA03F091FB03309799F020915C
:1039E0001901222359F020915B0627FF07C0DC0153
:1039F0002C9111962C93119725E02C930280F38142
:103A0000E02D09940895E091FA03F091FB033097BB
:103A100039F022E0DC012C930480F581E02D09943B
:103A200008952091F8033091F9038217930771F0FC
:103A30009093F9038093F803E091FA03F091FB036C
:103A4000309721F00680F781E02D099408952091A8
:103A5000F6033091F7038217930771F09093F70301
:103A60008093F603E091FA03F091FB03309721F085
:103A70000084F185E02D0994089585B7806885BF9D
:103A800085B7806885BF089508950E943D1D0C94F8
:103A9000441D81E008950E94512B0E94E7060C947A
:103AA000E82BCF92DF92EF92FF920F931F93CF9369
:103AB000DF93CDB7DEB72B970FB6F894DEBF0FBEFE
:103AC000CDBF0E94B9070E94491D811111C08FEF1F
:103AD00089838A831B820E945A2B8160782F9D8361
:103AE0008C8349815A816B818D810E94351E56C01D
:103AF0008DEFC82E83E0D82E00E010E0E02E802F5E
:103B00000E940108F60141916F01F42EF82631F46C
:103B10000F5F1F4F0E30110589F7D9CF9091B80470
:103B200091FF04C08B870E9407088B8520E030E05E
:103B30004F2D50E0922FBA01022E02C07595679565
:103B40000A94E2F760FF24C02E83EF8221E030E088
:103B5000690102C0CC0CDD1C9A95E2F790E08C2143
:103B60009D21892B09F420E028870E945A2B81602F
:103B7000782F9A8789874E815F8168858A850E9420
:103B8000351EF801E350FC4F8081C826C08206C074
:103B90002F5F3F4F2630310569F6BACF0E947B2D4B
:103BA0001091FC030E94DD1C1817A1F00E94DD1C7F
:103BB0008093FC032B960FB6F894DEBF0FBECDBFEB
:103BC000DF91CF911F910F91FF90EF90DF90CF90F9
:103BD0000C94A00A2B960FB6F894DEBF0FBECDBF93
:103BE000DF91CF911F910F91FF90EF90DF90CF90D9
:103BF0000895DC0111962C9111978C91682F70E03B
:103C000041E050E001C0440F8A95EAF712968C918A
:103C1000129730E0882329F080911B048823E9F073
:103C200006C0F901E55FFB4F90819423B1F086E077
:103C3000829FF001839FF00D1124E60FF71FEE0F16
:103C4000FF1FE656FD4F808191818D939C93F90172
:103C5000E55FFB4F8081482B06C0F901E55FFB4F14
:103C600040958081482340830895CF93DF93CDB75B
:103C7000DEB72B970FB6F894DEBF0FBECDBF942FE3
:103C80004F83252F588769877A878B874A855B857D
:103C9000452B21F02F3F09F59F3FF9F4DE011196E6
:103CA00086E0FD0111928A95E9F785E0FE013796DD
:103CB00001900D928A95E1F749815A816B817C814F
:103CC0008D819E810E94C9252B960FB6F894DEBF88
:103CD0000FBECDBFDF91CF910895CE0107960E9410
:103CE000F91DDCCFFC01808191810E94962892957C
:103CF0009F70963041F480911B0491E08927809356
:103D00001B0490931A040895882309F41AC1823879
:103D1000C1F40E94DD1C81FD14C169E3809108019A
:103D2000909109010E94AD2A0E9424292FEF81EE73
:103D300094E0215080409040E1F700C0000069E32A
:103D400019C08338F9F40E94DD1C80FDFAC063E5D8
:103D500080910801909109010E94AD2A0E942429B6
:103D60002FEF81EE94E0215080409040E1F700C0B9
:103D7000000063E580910801909109010E94B82A32
:103D80000C9424298438C1F40E94DD1C82FDD9C022
:103D900067E480910801909109010E94AD2A0E9478
:103DA00024292FEF81EE94E0215080409040E1F7EC
:103DB00000C0000067E4DECF9CEF980F913A40F41A
:103DC000682F80910801909109010E94AD2AD8CFF7
:103DD00090E2980F983050F4877091E001C0990FED
:103DE0008A95EAF7892F0E94D828CACF9BE5980FB9
:103DF000933070F4853A29F0863A31F083E890E008
:103E000005C081E890E002C082E890E00C94111DAA
:103E100098E5980F973108F08EC0883A09F445C0AC
:103E2000893A09F445C08A3A09F445C08B3A09F445
:103E300045C08C3A09F445C08B3B09F445C08C3B26
:103E400009F445C08D3A09F445C0803B09F445C0EA
:103E50008E3A09F445C08F3A09F445C0813B09F414
:103E600045C0823B09F445C0833B09F445C0843B0F
:103E700009F445C0853B09F445C0863B09F445C0BB
:103E8000873B09F445C0883B09F445C0893B09F4E8
:103E900045C08D3B09F445C08E3B09F445C08A3BC3
:103EA00009F445C080E090E044C082EE90E041C05B
:103EB00089EE90E03EC08AEE90E03BC085EB90E05A
:103EC00038C086EB90E035C083EB90E032C084EBE5
:103ED00090E02FC087EB90E02CC08CEC90E029C0E4
:103EE0008DEC90E026C083E891E023C08AE891E061
:103EF00020C082E991E01DC084E991E01AC081E20E
:103F000092E017C083E292E014C084E292E011C014
:103F100085E292E00EC086E292E00BC087E292E07A
:103F200008C08FE690E005C080E790E002C08AE21A
:103F300092E00C94271D803F20F00E94832C0C946B
:103F4000702D0895882309F464C0823879F40E94A2
:103F5000DD1C81FF5EC069E3809108019091090139
:103F60000E94AD2A0E94242969E310C08338B1F46D
:103F70000E94DD1C80FF4DC063E580910801909197
:103F800009010E94AD2A0E94242963E5809108015D
:103F9000909109010E94B82A0C942429843879F45C
:103FA0000E94DD1C82FF35C067E48091080190917A
:103FB00009010E94AD2A0E94242967E4E7CF9CEF03
:103FC000980F913A10F4682FE1CF90E2980F983053
:103FD00050F4877091E001C0990F8A95EAF7892F14
:103FE0000E94DE28D9CF9BE5980F933020F480E023
:103FF00090E00C94111D98E5980F973120F480E023
:1040000090E00C94271D803F20F00E94EB2C0C9434
:10401000702D0895CF93C82F0E94841E8C2FCF91AE
:104020000C94A21F882321F00E94D8280C942429E4
:104030000895882321F00E94DE280C9424290895F5
:104040008F929F92AF92BF92DF92EF92FF920F9367
:104050001F93CF93DF937C01D62FC72FFC010581DF
:1040600002950F70128111110E94F8280E94CE282B
:10407000882379F0112369F080E28D0F883048F0B1
:1040800082E00E946F290E94CE2891E0D82ED92686
:1040900001C0D12CAC2EA2948FE0A822B12CF50146
:1040A000EF57FF4F0C9419388C2F807FCF708823E7
:1040B00011F0C295C07F112399F0CC2309F4C8C137
:1040C00080E28D0F883010F0D11104C08C2F0E9437
:1040D000D82803C08C2F0E94EB280E942429B8C145
:1040E0008D2F0E94A21FCC2309F42EC280E28D0FD7
:1040F000883010F0D11104C08C2F0E94DE2803C03C
:104100008C2F0E94F1280E9424291EC28C2F807FB0
:10411000CF70803211F0C295C07FDD2319F0D1300D
:10412000C9F021C0112371F0002341F0013031F4B6
:104130000E940B298C2B0E94112906C20E940B2978
:104140008C2B3FC1002319F0013009F4FDC10E94FE
:104150001A2911C0112321F0023008F0F5C107C05F
:104160000111F2C108C0112321F0011171C18C2F7E
:1041700028C101117EC18C2F2AC18C2F869586956E
:10418000837090E0009719F0019761F0DDC1112371
:1041900021F08D2F9C2F937002C080E090E00E9450
:1041A000111DE2C1112321F08D2F9C2F937002C0AD
:1041B00080E090E00E94271DD7C11123F9F0D53F80
:1041C00051F0D63F71F0D43FA9F4809155069091FB
:1041D000560681600BC0809155069091560682600C
:1041E00005C08091550690915606846090935606BE
:1041F000809355068D2F0E94832C1EC0D53F51F011
:10420000D63F71F0D43FA9F480915506909156069F
:104210008E7F0BC080915506909156068D7F05C00C
:1042200080915506909156068B7F90935606809309
:1042300055068D2F0E94EB2C0E94702D95C18C2F5E
:10424000837009F050C011118BC18D2F8295869516
:104250008770880F880F9D2F9F70892E912CA12C1D
:10426000B12C082E04C0880C991CAA1CBB1C0A94F3
:10427000D2F7D4FF14C00FE010E020E030E0B90125
:10428000A80104C0440F551F661F771F8A95D2F7F7
:10429000CB01BA01609570958095909503C060E060
:1042A00070E0CB01C695C695C370D0E0C230D10591
:1042B00061F0C330D10581F0682979298A299B29C9
:1042C000219771F00E940E274BC1682979298A290C
:1042D0009B290E94202744C10E940E27C501B401DA
:1042E0000E94FC263DC1112319F08C2F817001C062
:1042F0008695882309F434C18D2F82958695877021
:10430000880F880F9D2F9F70892E912CA12CB12C86
:10431000082E04C0880C991CAA1CBB1C0A94D2F756
:10432000D4FF14C00FE010E020E030E0B901A80194
:1043300004C0440F551F661F771F8A95D2F7CB0123
:10434000BA01609570958095909503C060E070E02B
:10435000CB01C695C695C3704C2F50E04230510535
:1043600069F04330510589F0682979298A299B2908
:104370004130510571F00E94D327F2C06829792994
:104380008A299B290E94E527EBC00E94D327C501FB
:10439000B4010E94C127E4C08D2F90E0FC01E05ED3
:1043A000F109E531F10508F04FC0EF56FF4F0C94CD
:1043B0001938DF708C2F8F71112331F00E945A272A
:1043C0008D2F0E941220C0C00E947B278D2F0E943B
:1043D0001920BAC0112339F00111B6C08C2F8F718A
:1043E0000E94A027B1C0023008F0AEC0F7CF112361
:1043F00039F08C2F8F710E945A27A6C01123C9F360
:104400008C2F8F710E947B279FC0112329F08C2F46
:104410008F710E94452798C00E94402795C01123A4
:1044200049F0CF718C2F0E945A2763E08C2F0E9495
:104430005A298AC081E00E946F29023008F484C0A2
:1044400082E00E946F2980C0112331F0002389F29D
:104450008D2F0E94841E78C0002391F2D93349F435
:104460005FEF67EE73E0515060407040E1F700C0CD
:1044700000008D2F0E94A21F67C04C2F4F706D2F20
:10448000C7010E9496090E946D266EC0D23FB1F00E
:1044900028F4D03F49F0D13FF9F028C0D43FB9F01B
:1044A00058F0D53F71F022C0112309F447C0909114
:1044B0001B0481E0892708C081E0182710931B04A2
:1044C0003DC011113BC081E080931B0437C0111126
:1044D00035C010921B0432C0112329F080911A04B8
:1044E000882329F329C0002311F328C080911A04DE
:1044F0000023C1F0882341F090911B0481E08927BB
:1045000080931B0410921A048D2F112319F00E941E
:10451000841E14C00E94A21F86E0F70111928A95A2
:10452000E9F70CC0882351F0111108C090911B04C9
:1045300081E0892780931B0410921A044C2F4F703E
:104540006D2FC7010E944C0DF8E0AF16B10441F089
:104550005CF04AE0A41AB10852E0A516B10420F4B8
:104560000E94DD1C0E94A00ADD20E1F00E94CA2802
:1045700080FD18C0F70112820E94C4280E945A27A9
:10458000C7010E94DE220E94C428DF91CF911F91B3
:104590000F91FF90EF90DF90BF90AF909F908F9022
:1045A0000C947B27DF91CF911F910F91FF90EF909B
:1045B000DF90BF90AF909F908F9008950F931F93BF
:1045C000CF93DF93EC01888199812B813C81232B50
:1045D000B9F09F3F11F48F3F99F0CE010E94B20ACB
:1045E000882371F0688179818A810E94A1288C01D9
:1045F0000E94F7270E94F926B801CE010E942020D0
:10460000DF91CF911F910F9108950E94F8280E9489
:1046100008290E9424290E94162E0E94702D80E0F5
:1046200090E00E94111D80E090E00C94271D809185
:104630000801909109010E94C32A0C9405230E944D
:10464000E8280C941723E92FE295EF70F0E03297F9
:10465000EE30F105B0F4EA55FF4F0C941938803F65
:1046600091F018F4803E68F40EC0843F51F40BC002
:10467000803E48F0813F29F406C093FB882780F9EB
:10468000089580E0089581E008950E9496280E9490
:1046900023230895CF93DF9300D000D01F92CDB78E
:1046A000DEB70F900F900F900F900F90DF91CF918A
:1046B0000895CF93DF9300D000D000D0CDB7DEB700
:1046C00026960FB6F894DEBF0FBECDBFDF91CF9117
:1046D00008951F93CF93DF93C0911C0416E080913F
:1046E0001D04C81799F0D0E01C9FF0011D9FF00D2C
:1046F0001124E25EFB4F408151816281738184818C
:1047000095810E9459232196C770E9CFDF91CF91FF
:104710001F91089540914E0450914F0460915004B0
:104720007091510480915204909153040C94592338
:104730008091530482958F7009F054C08091500489
:10474000882309F44FC080911C04A0911D0460913E
:104750004E0470914F044091510450915204B6E0C0
:104760008A1709F43FC090E041155105C1F17F3F20
:1047700011F46F3FA1F1B89FF001B99FF00D112422
:10478000E25EFB4F218172132AC02081621327C091
:104790002281211124C0238134812417350710F48C
:1047A00021503109241B350B283C3105C0F42091E0
:1047B00053042F7020612093530426E0289FF001BA
:1047C000299FF00D1124ED5DFB4F80818F7080617A
:1047D00080838EE494E00E94DE220C94692301968B
:1047E0008770BECF0895CF92DF92EF92FF920F9322
:1047F0001F93CF93DF93CDB7DEB762970FB6F894D0
:10480000DEBF0FBECDBF8C0185E0F801DE011D9635
:1048100001900D928A95E1F7D8014C9111965C9127
:10482000119712966C9112971396CD90DC90149775
:1048300030914E0470914F04809151049091520434
:10484000009709F46BC17F3F19F43F3F09F466C13B
:10485000E0905004EE2009F4C0C020915304C81623
:10486000D90628F0F601E81BF90BCF0104C08095AA
:1048700090958C0D9D1DFF24F394883C910578F054
:10488000F12C207F09F0C6C07C2DD98AC88A89897D
:104890000E944A238EE494E00E94DE22B1C0822F5F
:1048A000807F09F046C0751314C0341312C0611123
:1048B00010C02F702061209353040E948A238EE43D
:1048C00094E00E94DE2280915304D80115968C93C7
:1048D0002EC0CD2819F15F3F11F44F3FF9F0F62EAD
:1048E00061111CC080911C0420911D0436E08217C8
:1048F00009F45AC090E0389FF001399FF00D11245F
:10490000E25EFB4F7181571306C07081471303C0ED
:104910007281711103C001968770E9CFF62E66236C
:1049200009F427C180915304816080935304F12CD2
:1049300020C1751308C0341306C0611104C08091F2
:104940005304D801C3C04D875E878D859E856A8BD1
:104950000E9445236A898823E1F16623D1F12091E1
:104960005304822F82958F7090E0029774F08091AB
:104970004E0490914F0498878F831986DB86CA86F0
:104980002C87CE0107960E94DE2286E0F801AEE475
:10499000B4E001900D928A95E1F70E9498230E945D
:1049A0008A23FF24F394E5C04D875E878D859E851D
:1049B0000E949628292F22952F7030E02230310551
:1049C0000CF0CBC09F7009F0C5C0805E883008F441
:1049D000D0C0C8010E94DE22E4CFC816D90608F470
:1049E00053C0F601E81BF90BCF01883C910508F490
:1049F00050C0F12C7C2DD98AC88A89890E944A230B
:104A0000EEE4F4E086E0DF011D928A95E9F70E946A
:104A10008A23AFC0751314C0341312C0611110C0C3
:104A200080915304F8018583C8010E94DE2286E04C
:104A3000EEE4F4E0DF011D928A95E9F7FE2C99C0BF
:104A40004D875E878D859E856A8B0E9445236A8986
:104A5000882309F4BECF662309F4BBCF2091530409
:104A6000822F82958F7090E002970CF48ECF809108
:104A70004E0490914F049A8389831B82DD82CC82FD
:104A80002E83CE0101967FCF809590958C0D9D1D34
:104A9000ACCFF62E662309F49CCF75132EC03413C9
:104AA0002CC02091530420FD1FC0822F82958F704F
:104AB000D9F0D80115962C9315978F3049F08F5F58
:104AC000982F9295907F822F8F70892B15968C93BB
:104AD000C8010E94DE2286E0F801AEE4B4E0019055
:104AE0000D928A95E1F793CF86E0F801AEE4B4E049
:104AF00001900D928A95E1F73CC04D875E878D85C8
:104B00009E850E944523811140CF8091530481608E
:104B100080935304C8010E94DE222BC0662309F44F
:104B200058CF4D875E878D859E850E944523F82E40
:104B3000882309F44ECF86E0F801AEE4B4E001909A
:104B40000D928A95E1F78EE494E00E94721E0E9415
:104B500098235DCF811139CF0CC0243031050CF082
:104B600038CF9F7009F431CFF8019581907F09F01B
:104B70002CCF8F2D62960FB6F894DEBF0FBECDBF3F
:104B8000DF91CF911F910F91FF90EF90DF90CF9029
:104B900008951F93CF93DF93CDB7DEB72C970FB651
:104BA000F894DEBF0FBECDBF4F83588769877A87E1
:104BB0008B879C87CE0107960E94F323882369F098
:104BC0008F8198852A853B85232BF1F19F3F09F042
:104BD00063C08F3F09F060C037C086E0FE013796A2
:104BE000DE01119601900D928A95E1F76F8178852B
:104BF000EA85FB85309741F17F3F11F46F3F21F14A
:104C000020911D0430E0C9010196877099274091D9
:104C10001C0450E08417950709F447C069837A8320
:104C2000FD83EC8396E0929FD001939FB00D1124F9
:104C3000A25EBB4FFE01319601900D929A95E1F76D
:104C400080931D040E94692316E080911C049091BA
:104C50001D048917C1F1189FC0011124825E9B4F6A
:104C60000E94F323882379F1E0911C041E9FF00138
:104C70001124E25EFB4F4081518162817381848106
:104C800095810E94592380911C0490E001968770C1
:104C9000992780931C04D9CF4F81588569857A85DF
:104CA0008B859C850E945923CFCF0E941F23109291
:104CB0001D0410921C04EEE4F4E086E0DF011D9276
:104CC0008A95E9F7C1CF2C960FB6F894DEBF0FBED8
:104CD000CDBFDF91CF911F910895EF92FF920F9377
:104CE0001F93CF93DF938C01892B09F46CC0F12CB7
:104CF000EE24E394E8012196F8018491843740F48E
:104D0000843008F051C0813081F0823019F15BC0ED
:104D1000853709F444C0A8F19CE7980F903708F054
:104D200052C08F770E94A21F41C00E5F1F4FFE012D
:104D3000C49180E28C0F883048F4C7708E2D01C07A
:104D4000880FCA95EAF70E94FB2814C08C2F0E9496
:104D5000841E2DC00E5F1F4FFE01C49180E28C0F98
:104D6000883058F4C7708E2D01C0880FCA95EAF7B5
:104D70000E9401290E9424291AC08C2F0E94A21F80
:104D800016C00E5F1F4FFE01C491CC2381F08FE946
:104D90009FE00197F1F700C00000C150F6CF0E5F11
:104DA0001F4FFE01F49003C00E94841E8E018F2DC0
:104DB000882309F49FCFEFE9FFE03197F1F700C0B6
:104DC00000008150F5CFDF91CF911F910F91FF909F
:104DD000EF90089508950C94EA260E94EB266093C4
:104DE0008F047093900480939104909392040C9498
:104DF000052308950C94ED260F931F9300918F04C3
:104E0000109190042091910430919204602B712BA9
:104E1000822B932B1F910F910C94ED260F931F93D0
:104E200000918F041091900420919104309192048C
:104E300060237123822393231F910F910C94ED26FD
:104E40000F931F9300918F0410919004209191046F
:104E50003091920460277127822793271F910F9129
:104E60000C94ED260C94DD090E94322760938B048C
:104E700070938C0480938D0490938E040C9405237E
:104E800060E070E0CB010C9434270F931F9341E056
:104E900050E060E070E08A019B0104C0000F111F28
:104EA000221F331F8A95D2F7C901B8011F910F91B4
:104EB0000C9434270F931F9341E050E060E070E0C2
:104EC00004C0440F551F661F771F8A95D2F7809143
:104ED0008B0490918C04A0918D04B0918E048A0172
:104EE0009B01082B192B2A2B3B2BC901B8011F91C1
:104EF0000F910C9434270F931F9341E050E060E032
:104F000070E004C0440F551F661F771F8A95D2F7C3
:104F1000409550956095709580918B0490918C048C
:104F2000A0918D04B0918E048A019B01082319235E
:104F30002A233B23C901B8011F910F910C943427F8
:104F40000F931F9341E050E060E070E004C0440F15
:104F5000551F661F771F8A95D2F780918B04909119
:104F60008C04A0918D04B0918E048A019B010827C6
:104F700019272A273B27C901B8011F910F910C94CB
:104F800034270F931F9300918B0410918C04209170
:104F90008D0430918E04602B712B822B932B1F91EB
:104FA0000F910C9434270F931F9300918B04109151
:104FB0008C0420918D0430918E0460237123822310
:104FC00093231F910F910C9434270F931F930091FB
:104FD0008B0410918C0420918D0430918E046027F5
:104FE0007127822793271F910F910C9434270895DE
:104FF000292F220F920F990F890FA82FA695A695FA
:10500000A695877051E001C0550F8A95EAF785E0B3
:10501000A89FD001112420E030E070E0F901EA0FF0
:10502000FB1FEC5AFB4F4081CB01022E02C096952C
:1050300087950A94E2F781709927819584278523C3
:10504000842780832F5F3F4F2530310539F708953E
:10505000292F220F920F990F890F682F6695669559
:105060006695982F977085E0689FB001112440E005
:1050700050E080E0FA01E60FF71FEC5AFB4F208169
:1050800030E0092E02C0369527950A94E2F7217088
:105090003327042E01C0220F0A94EAF7822B4F5FB8
:1050A0005F4F4530510531F70895BF92CF92DF929F
:1050B000EF92FF920F931F93CF93DF938C01C090D9
:1050C0008F04D0909004E0909104F090920480912D
:1050D0008B0490918C04A0918D04B0918E04C82A09
:1050E000D92AEA2AFB2ACFE1D0E0D701C6010C2E4B
:1050F00004C0B695A795979587950A94D2F780FF37
:1051000007C0BC2EB8018C2F0E94670D019719F4BF
:10511000219758F7B12C8B2DDF91CF911F910F91D3
:10512000FF90EF90DF90CF90BF900895CF93DF93E3
:10513000EC010E945528BE010E94670DDF91CF91BE
:1051400008951F93CF93DF93EB0190911904992356
:1051500021F0CB010E94962813C0882349F0CB018F
:105160000E945528182F682FCE010E94F82704C0EE
:10517000CB010E942828182FBE01812F0E94670DA5
:10518000DF91CF911F910895809193048595859526
:105190008595089580919304877008959091930464
:1051A000977081E009F480E008958091B704089534
:1051B0009091B704892B8093B704089580959091BE
:1051C000B70489238093B70408958093B7040895A2
:1051D0001092B70408959091B604892B8093B60479
:1051E000089580959091B60489238093B60408951C
:1051F0001092B60408959091B504892B8093B5045C
:10520000089580959091B50489238093B5040895FD
:105210001092B504089580919404089508950C9413
:105220000E2990919404981721F0809394040C9483
:105230000F29089580919404882329F010929404F2
:1052400080E00C940F290895E0910801F091090184
:105250008091B7048083E0910801F0910901908169
:105260008091B604892B8083E0910801F0910901B7
:1052700090818091B504892B808380919404882348
:1052800081F0E0910801F09109019081892B8083E0
:1052900080910801909109010E94482A81110E9481
:1052A0001A2980910801909109010C94E91C089534
:1052B0000C94572998E0899F90011124262B209364
:1052C00093040E945A27809193048595859585952E
:1052D0000C9458291092930480E00C945829209142
:1052E00093048095822380939304982F977079F488
:1052F00030E0482F082E000C550B2417350739F0E5
:105300008595859585950E947B270C946A2908953B
:10531000CF92DF92EF92FF926C01EE24FF24C11432
:10532000D104E104F10421F0C701B60120E101C07C
:1053300020E0C72ED82EE92EFF24C114D104E104A9
:10534000F10419F0285FC701B6016B017C0154E03C
:10535000F694E794D794C7945A95D1F7C114D10421
:10536000E104F10419F02C5FC701B6016B017C0167
:1053700042E0F694E794D794C7944A95D1F7C114C4
:10538000D104E104F10419F02E5FC701B601DC017C
:10539000CB01B695A79597958795892B8A2B8B2B53
:1053A00009F02F5F822FFF90EF90DF90CF9008954C
:1053B00080E090E00E94893821E08D3E9E4F09F008
:1053C00020E0822F089582E090E00C947B3883E007
:1053D00090E00C947B3884E090E00C947B38682F4C
:1053E00084E090E00C948F38AB01BC018FE090E03A
:1053F0000C94A138AB01BC0183E190E00C94A1387E
:1054000060E070E0CB010C94FA2960E070E0CB0121
:105410000E94F4290C94002A6DEE7EEF80E090E06B
:105420000E94AD3860E082E090E00E948F3860E03A
:1054300083E090E00E948F3810928F0410929004C5
:10544000109291041092920460E084E090E00E9437
:105450008F3860E085E090E00E948F3860E086E061
:1054600090E00E948F386FEF87E090E00E948F38C5
:1054700040E050E0BA0188E090E00E94A13860E08E
:105480008DE090E00E948F380C94052A0C940C2A31
:10549000FC01329680911901882331F080915B06DE
:1054A00087FF02C09EE101C096E080E0915028F0A5
:1054B00021912223D9F38F5FF9CF08959C01FC013C
:1054C00032969FEF80E04191461789F09F3F19F493
:1054D000411101C0982F8F5F8630A9F79F3F39F0A7
:1054E000F901E90FF11D97FDFA956283089508957A
:1054F000FC01329608962081261301C01082319655
:10550000E817F907C1F70895262F269526952695C1
:105510002E3168F4FC01E20FF11D677021E030E0EC
:1055200001C0220F6A95EAF78281282B2283089511
:10553000262F2695269526952E3170F4FC01E20F34
:10554000F11D677021E030E001C0220F6A95EAF793
:1055500020958281282322830895209119012223F6
:1055600029F020915B0627FD0C94842A0C945E2A76
:1055700020911901222329F020915B0627FD0C942C
:10558000982A0C94782A20911901FC013296222342
:1055900031F080915B0687FF02C08EE101C086E09A
:1055A000DF011D928A95E9F7089508950C94D52A94
:1055B0000E94D62A80916106843049F11092B90484
:1055C00020E488E190E00FB6F894A89580936000FD
:1055D0000FBE2093600080E00E94A00A0E94D62A9D
:1055E00083B7817F846083BF83B7816083BF7894F2
:1055F000889583B78E7F83BF0FB6F894A895809166
:105600006000886180936000109260000FBE089572
:105610000895CF930E9410070E94B9070E94082B9B
:10562000C0E08C2F0E940108811104C0CF5FCE30F2
:10563000C1F701C081E0CF91089508950C941D2B0E
:105640000E941F230E94DD1C0E94A00A0C941E2BA6
:105650001F920F920FB60F9211248F939F93AF93C7
:10566000BF938091B904811113C080915706909126
:105670005806A0915906B0915A064196A11DB11D38
:105680008093570690935806A0935906B0935A06F4
:10569000BF91AF919F918F910F900FBE0F901F9070
:1056A000189582E084BD93E095BD9AEF97BD8093F5
:1056B0006E0008952FB7F894809157069091580680
:1056C000A0915906B0915A062FBF0895CF92DF924C
:1056D000EF92FF920F931F932FB7F89440915706C4
:1056E000509158066091590670915A062FBF6A0171
:1056F0007B01EE24FF248C0120E030E0C016D106AF
:10570000E206F30610F4415051099A01281B390BA7
:10571000C9011F910F91FF90EF90DF90CF900895F6
:1057200078941F920F920FB60F9211248F939F932C
:10573000AF93BF938091570690915806A091590658
:10574000B0915A060196A11DB11D80935706909302
:105750005806A0935906B0935A06BF91AF919F91F6
:105760008F910F900FBE0F901F901895F89481E0C5
:105770008093E00080E28093D800E9ECF0E01082B2
:105780008FE19EE40197F1F700C000001DBA10926E
:1057900068001CBC10BE1FBA10927A0010926E00F6
:1057A00010926F0010927100109272001082ECEB58
:1057B000F0E0108214B817B81AB81DB810BA1082E9
:1057C00015B818B81BB81EB811BA0C94003F08954C
:1057D0000E94D829811102C00E94462A0E94E32912
:1057E0008093B8040E94EB2990E090935C0680932C
:1057F0005B060E94E729682F70E080E090E00C943F
:10580000FA268091BD0480FF0BC060910D0185E0F8
:10581000689FB001112475956795759567952BC0A4
:1058200081FF09C060910D0185E0689FB0011124DE
:105830007595679520C082FF07C060910D0185E0D6
:10584000689FB001112417C09091BE049923D1F034
:1058500060910C01961788F720910D0185E0289F33
:1058600090011124929FA001939F500D112470E08C
:10587000CA010E9405386038710540F46115710550
:1058800039F002C065E070E0862F08958FE7089533
:1058900081E008958091BD0480FF08C060910B01F4
:1058A00070E0759567957595679521C081FF06C075
:1058B00060910B0170E07595679519C082FF04C077
:1058C00060910B0170E010C09091BE049923C1F06B
:1058D00060910A019617A0F780910B01899FC00182
:1058E000112470E00E9405386038710528F46115B4
:1058F000710521F0862F08958FE7089581E00895BE
:1059000061E070E0F4CF803F21F40E94012C81958A
:1059100004C0813F29F40E94012C8093C2040895A1
:10592000823F21F40E94012C819504C0833F29F419
:105930000E94012C8093C1040895893F19F40E94AC
:105940004A2C05C08A3F31F40E944A2C81958093ED
:10595000C30408958B3F21F40E944A2C819504C012
:105960008C3F29F40E944A2C8093C4040895843FFC
:1059700021F48091C004816017C0853F21F480919B
:10598000C004826011C0863F21F48091C00484600D
:105990000BC0873F21F48091C004886005C0883F18
:1059A00031F48091C00480618093C00408958D3FDC
:1059B00021F48091BD0481600BC08E3F21F4809161
:1059C000BD04826005C08F3F29F48091BD048460CE
:1059D0008093BD040895803F39F48091C20487FF0D
:1059E0006CC01092C20469C0813F29F48091C20446
:1059F0001816BCF362C09091C104823F29F497FF4E
:105A00005CC01092C10459C0833F19F41916CCF33D
:105A100054C0893F41F48091C30418160CF04DC066
:105A20001092C3044AC08A3F29F48091C30487FFBF
:105A300044C0F6CF8B3F39F48091C40487FF3DC04A
:105A40001092C4043AC08C3F29F48091C404181603
:105A5000BCF333C0843F21F48091C0048E7F17C013
:105A6000853F21F48091C0048D7F11C0863F21F4D1
:105A70008091C0048B7F0BC0873F21F48091C004CC
:105A8000877F05C0883F31F48091C0048F7E80936A
:105A9000C00413C08D3F21F48091BD048E7F0BC0E4
:105AA0008E3F21F48091BD048D7F05C08F3F29F486
:105AB0008091BD048B7F8093BD048091C1048111CE
:105AC0000EC08091C20481110AC08091C30481116B
:105AD00006C08091C404811102C01092BE040895D2
