:100000000C9437070C9454070C9454070C94540721
:100010000C9454070C9454070C9454070C945407F4
:100020000C9454070C9454070C948C110C94CE101F
:100030000C948A250C9454070C9454070C94540780
:100040000C9454070C9454070C9454070C945407C4
:100050000C9454070C9496120C9454070C94540767
:100060000C9454070C9454070C9454070C945407A4
:100070000C9454070C9454070C9454070C94540794
:100080000C9454070C9454070C9454070C94540784
:100090000C9454070C9454070C9454070C94540774
:1000A0000C9454070C9454070C9454078B0A8B0A35
:1000B000BD0ABD0A270B430B6E0C6E0C4E0BDC0BFE
:1000C000ED0BED0BE10E080FB610080FB610540F34
:1000D000770FB6106C107C10942797279C279F27CA
:1000E000A227A527A8271C2921292B291F29242934
:1000F00029292729D42AD72ADA2ADD2AE02AE32A3D
:10010000E62A05010980A101850319012AB7001516
:100110000126B700950175108100C0050C0901A1E9
:1001200001850419012AA002150126A00295017576
:10013000108100C005010906A1018506050719E027
:1001400029E71500250195087501810205071900A9
:1001500029EF1500250195F07501810205081901A7
:100160002905950575019102950175039101C00559
:10017000010902A1010901A10005091901290815B8
:100180000025019508750181020501093009311525
:1001900081257F95027508810609381581257F958F
:1001A0000175088106050C0A38021581257F950125
:1001B00075088106C0C00660FF0961A101096215CA
:1001C0000026FF009520750881020963150026FFAF
:1001D00000952075089102C005010906A1010507D7
:1001E00019E029E71500250195087501810295019F
:1001F000750881010507190029FF150026FF0095E4
:1002000006750881000508190129059505750191F4
:1002100002950175039101C009027400040100A058
:10022000FA09040000010301010009211101000184
:1002300022400007058103080001090401000203B0
:10024000000000092111010001222200070583039B
:100250002000010705040320000109040200010336
:100260000102000921110100012247000705820354
:100270000800010904030001030000000921110125
:100280000001226D00070585032000011201000214
:1002900000000008973276490100010200012003A6
:1002A0004500720067006F0044006F007800200076
:1002B00045005A00200047006C006F0077000000E6
:1002C00028035A00530041002000540065006300D9
:1002D00068006E006F006C006F00670079002000FE
:1002E0004C0061006200730000000403090429004F
:1002F0002B002A00E100350000001E00140004005D
:100300001D0034003B001F001A0015001B00E00018
:1003100003512000090016000600E2002C00210015
:10032000130017001900E0003A0022000A0007003D
:1003300005000000650004510100000007510000A5
:10034000E30002530057000000070000E70023000D
:100350000D000B000E0000004C0024000F001100E7
:10036000100006513C00250018000800360001006E
:10037000280026001C000C00370001000451270053
:1003800033001200380001003D002D003100340020
:10039000E500010000000100010001000100010072
:1003A0000000010001000100010001000100010046
:1003B000010001000100E000010001000100010056
:1003C0000100E20001000100010001000100E30062
:1003D0000100010001000100010000000100010016
:1003E00001000000010000000100010001570000B1
:1003F00001000000010001000100010001000000F7
:1004000001000100010001000100010001000100E4
:1004100001000100010001000100010001000100D4
:1004200001000100010001000100010001000100C4
:1004300001000100010001000100010000000100B5
:10044000010001000100010000001E001400040072
:100450001D000100B55D1F001A0016001B00010001
:100460000100200008000700060001000100210033
:100470001500090019000100C45C220017000A00E1
:100480000500000001000100100000000100000054
:100490000100010001000000010000000100230034
:1004A0001C000B00110000000100240018000D00CA
:1004B00010000100C65C25000C000E003600010093
:1004C0000100260012000F00370001000100270084
:1004D0001300330038000100C75C01000100010077
:1004E0000100010000000100010001000100010005
:1004F00000003A00140704071D070100CB5C3B0015
:100500001A0716071B07010001003C000807070730
:100510000607010001003D00130709071907010044
:10052000CA5C3E000A070707050700003E000100FD
:100530000000000001000000C45C01000100000098
:1005400001000000CD5C3F002502210222020000D4
:10055000CC5C40002F0226022F000100B65D410056
:100560003002270230000100C65C42002D02560016
:100570001F020100010043002E022E002002010094
:10058000B75D4400450001000100010000000100CA
:100590000100010001000100000001000100010054
:1005A0000100010001000100010001000100010043
:1005B0000100010001003A000100010001000100FA
:1005C0000100010001000100010001000100010023
:1005D0000100000001000100010000000100000016
:1005E0000100010001000000010000000100010005
:1005F0000100010001000000010001001E002200B6
:1006000026000100010001001F0023002700010057
:100610000100010020002400010001000100010090
:10062000210025000100010001000100010001007E
:1006300001000100000001000100010001000100B3
:1006400000000100010001000100010001000100A3
:100650000100EF000100010001000100ED00EE00CB
:100660000100F100010001000100F0000100F200B2
:100670000100010001000100010000000100010073
:100680000100000001000000010001000100000065
:100690000100000001000100A900AA00A80000005C
:1006A00001000100240021001E000100010054008F
:1006B000250022001F0062000C00550026002300C8
:1006C00020006300010056005700000058000100A0
:1006D0000100010001000100010001000000010013
:1006E0000100010001000100000001000000000005
:1006F000000001000100000000004A0000000100AD
:10070000010000004B004E0000000100010000004D
:1007100000004D0000000100010001000000000089
:1007200000000000010001000100000001000000C5
:1007300001000100010000000100000001000100B3
:100740000000000000000000010000000000500058
:1007500000000100010000005200510000000100F3
:100760000100000000004F00000001000100010036
:100770000000000000000100010001000100010074
:100780000100010000000100010001000100010062
:100790000000010001000100010001000100010052
:1007A0000100010001000100010001000100010041
:1007B0000100010001000100010001000100010031
:1007C0000100010001000100010000000100010022
:1007D0000100000001000000010001000100000014
:1007E0000100000001000100010001000100000003
:1007F00001000100240721071E070100010001007C
:10080000250722071F0727070100010026072307E6
:1008100020070100010001000100010001000100AA
:10082000010001000100010001000100000000447E
:100830003454007464840055456500857595003610
:10084000264600665676009686A60037274700772C
:100850006787003828480088789800392949006956
:100860005979009989A9003A2A4A006A5A7A003BC4
:100870002B4B006B5B7B004C3C5C007C6C8C005D0C
:100880004D6D008D7D9D003E2E4E006E5E7E0144BE
:1008900034540174648401554565018575950136AC
:1008A000264601665676019686A6013727470177C8
:1008B00067870138284801887898013929490169F2
:1008C0005979019989A9013A2A4A016A5A7A013B60
:1008D0002B4B016B5B7B014C3C5C017C6C8C015DA8
:1008E0004D6D018D7D9D013E2E4E016E5E7E0000A0
:1008F00000000000000000000000000000000000F8
:1009000000000000000000000000000000000000E7
:1009100000000000000000000000000000000000D7
:1009200000000000000000000000000000000000C7
:1009300000000000000000000000000000000000B7
:1009400000000000000000000000000000000000A7
:100950000000000000000000000000000000000097
:100960000000000000000000000000000000000087
:100970000000000000000000000000000000DBFF9D
:10098000FFDBFFFFDBFFFFDBFFFFDBFFFFBCFFFF4A
:10099000BCFFFFBCFFFFBCFFFFBCFFFFBCFFFFBCF9
:1009A000FFFFBCFFFFBCFFFFBCFFFFBCFFFFBCFFA6
:1009B000FFBCFFFFBCFFFFBCFFFFBCFFFFBCFFFF96
:1009C000BCFFFFBCFFFFDBFFFFDBFFFFDBFFFFDB4D
:1009D000FFFFDBFFFFBCFFFFBCFFFFBCFFFFBCFF57
:1009E000FFBCFFFFBCFFFFBCFFFFBCFFFFBCFFFF66
:1009F000BCFFFFBCFFFFBCFFFFBCFFFFBCFFFFBC99
:100A0000FFFF83FFFF83FFFF83FFFFBCFFFF9AFF12
:100A1000FF9AFFFF9AFFFF9AFFFF9AFFFF9AFFFFDF
:100A20009AFFFF9AFFFF9AFFFF9AFFFF9AFFFF9A34
:100A3000FFFF9AFFFF9AFFFF9AFFFF9AFFFFCDFF8C
:100A4000FF9AFFFF9AFFFF9AFFFF9AFFFF9AFFFFAF
:100A50009AFFFF9AFFFF9AFFFF9AFFFF9AFFFF9A04
:100A6000FFFF9AFFFF9AFFFF9AFFFF9AFFFF00CC5C
:100A7000FF9AFFFF9AFFFF9AFFFF00CCFF00CCFF19
:100A800000CCFF9AFFFF9AFFFF9AFFFF9AFFFF9AA1
:100A9000FFFF9AFFFF9AFFFF9AFFFF9AFFFF69FF90
:100AA000FF69FFFF69FFFF69FFFF69FFFF69FFFF44
:100AB00069FFFF69FFFF69FFFF69FFFF69FFFF69CA
:100AC000FFFF69FFFF69FFFF69FFFF69FFFF69FF24
:100AD000FF69FFFF69FFFF69FFFF000000000000E2
:100AE00000000000000069FFFF69FFFF69FFFF6968
:100AF000FFFF69FFFF000000000000F9E4FF0000B5
:100B000000000000F9E4FFF9E4FFF9E4FFF9E4FF75
:100B1000F9E4FF000000000000F9E4FF000000001D
:100B200000000000000000000000000000000000C5
:100B300000000000000000000000000000000000B5
:100B400055CB9E55CB9E55CB9E55CB9E0000008627
:100B5000FFD586FFD586FFD586FFD500000086FF2E
:100B6000D586FFD500000000000000000000000056
:100B70000000000000000000000000000000000075
:100B80000000000000000000000000000000000065
:100B900000000000000000000000F3DEEA0000009A
:100BA0000000000000000000000000000000000045
:100BB0000000000000000000000000000000000035
:100BC000000000000EFFFF0EFFFF0EFFFF69FFFF9A
:100BD00023FFFF23FFFF23FFFF0EFFFF69FFFF231C
:100BE000FFFF23FFFF23FFFF000000F9E4FF23FFC7
:100BF000FF23FFFF23FFFF69FFFF00000023FFFF2C
:100C000023FFFF00000000000000000000000000C3
:100C1000000000000000000000000023FFFF0000B3
:100C20000000000000000023FFFF23FFFF23FFFF61
:100C300000000000000000000000000000000000B4
:100C4000000023FFFF23FFFF000000000000000062
:100C50000000000000000000000000000000000094
:100C6000000000EAFFFF000000000000000000EAB2
:100C7000FFFFEAFFFFEAFFFF0000000000000000A6
:100C80000000000000000000000000000000000064
:100C90000000000000000000000000000000000054
:100CA00000000000000000000000000EFFFF000038
:100CB0000000000000000069FFFF0EFFFF69FFFF5A
:100CC0000000000000000000000000000000000024
:100CD0000000000000000000000000000000000014
:100CE0000000000000000000000000000000000004
:100CF00086FFD586FFD586FFD50000000000008660
:100D0000FFD586FFD586FFD500000000000086FFD6
:100D1000D555CB9E86FFD50000000000000AE1FFFC
:100D200000000000000000000000000000000000C3
:100D300000000000000000000000000000000000B3
:100D400000000000000000000000000000000000A3
:100D50000000000000000000000000000000000093
:100D60000000000000000000000000000000000182
:100D7000010101010101010102020202020202025B
:100D8000020303030303030303040404040404042D
:100D900005050505050606060606070707070708F1
:100DA000080808090909090A0A0A0B0B0B0C0C0CA4
:100DB0000D0D0D0E0E0E0F0F0F101011111112123E
:100DC00013131414151516161717181819191A1ABB
:100DD0001B1B1C1D1D1E1E1F20202122222324241C
:100DE000252626272829292A2B2C2D2D2E2F303158
:100DF0003232333435363738393A3B3C3D3E3F406A
:100E00004142434445464748494A4C4D4E4F505154
:100E10005354555658595A5B5D5E5F61626465660E
:100E200068696B6C6D6F7072737577787A7B7D7E95
:100E30008082838587888A8C8E8F91939596989AE5
:100E40009C9EA0A2A3A5A7A9ABADAFB1B3B5B7BAFD
:100E5000BCBEC0C2C4C6C9CBCDCFD1D4D6D8DBDDD1
:100E6000DFE2E4E7E9EBEEF0F3F5F8FAFDFF112439
:100E70001FBECFEFDAE0DEBFCDBF12E0A0E0B1E0F1
:100E8000E2EDF1E702C005900D92AE37B107D9F758
:100E900025E0AEE7B2E001C01D92AE3FB207E1F738
:100EA0000E94361F0C94E7380C940000A5E2B0E0D5
:100EB000ECE5F7E00C94A734FC018081918123815B
:100EC0003481232B31F09F3F31F491E08F3F19F4AF
:100ED00003C091E001C090E090FD3FC57F0185E037
:100EE000DE01919601900D928A95E1F7D701129655
:100EF0002C9189A19AA1222349F00E94782F182FC2
:100F0000682F89A19AA10E94EC2F03C00E94B92FDB
:100F1000182F69A17AA1812F0E944A198C01F7012B
:100F200082818823E1F08091AA059091AB0500971A
:100F3000B1F08017910799F0FEE08F9FC001112456
:100F4000FC01E25EFE4F208124602083875E9E4F7D
:100F5000DC010D931C930E9432261092A9059091FA
:100F6000F005F7018281992309F44DC08111E5C490
:100F7000E0918002E330A0F481E08E0F8093800244
:100F8000F0E0EE0FFF1FEA5CFB4FD7018D919C91C3
:100F90009183808382E08983CE0101960E94FE3195
:100FA000BFEFE3EDF0E3B150E040F040E1F700C007
:100FB000000080918002833009F0BFC4109280024B
:100FC000ECE3F4E0A6E3B4E082E494E0318111962E
:100FD0002C91119732132EC030812C9132132AC0DC
:100FE000329612968E179F0789F784E0898381E0F5
:100FF0008093F1058EEF8A831092F005CE01019661
:101000000E94FE319AC49091F1059923C1F0882382
:1010100011F086E001C087E08983D7018C918A8333
:1010200011968C918B838EEF8C83CE0101960E945A
:10103000FE3105C083E089831092F105DBCFF70113
:101040008281033BFDE51F07E1F5882309F440C0D9
:101050009091480481E0890F8770987F853020F453
:10106000892B8093480402C09093480480914804DF
:101070008770BFEF8B9FC00111249595879595953B
:1010800087959927909389008093880090938B008F
:1010900080938A0090938D0080938C004091480447
:1010A0005091490460914A0470914B048FE090E0A4
:1010B0000E94823580914604909147040E94052940
:1010C00007C0043B2DE5120709F0A2C081112CC115
:1010D000F70182818111B9C080918B0282720B3C31
:1010E000FCE51F0709F483C098F5063C3CE51307AF
:1010F00009F469C0B8F4043CACE51A0709F459C016
:1011000008F05CC0033CECE51E0709F0B6C1909105
:10111000F40581E089278093F40510923C018091C9
:10112000F30543C0083CFCE51F0709F456C008F46A
:101130004FC0093C3CE5130709F454C00A3C9CE548
:10114000190709F09AC145E155E262E275E25DC016
:10115000003DACE51A0709F474C098F40D3CECE5C9
:101160001E0709F44EC008F447C00E3C2CE51207D8
:1011700009F465C00F3C3CE5130709F07EC185E02A
:1011800061C0073D8CE5180738F4023D9CE519075E
:1011900008F0D3C382E156C00F35ADE51A0709F454
:1011A000CCC36BC19FEF9093F90581608093F305E9
:1011B000C4C34DE555E267E675E227C047E655E250
:1011C0006DE575E222C049E455E263E575E21DC0B4
:1011D00043E555E269E475E218C04FE255E26CE37D
:1011E00075E213C04CE355E26FE275E20EC042E2D5
:1011F00055E265E175E209C04FE253E26DE373E247
:1012000004C04DE353E26FE273E20E947D2695C372
:10121000033C3CE5130709F4A6C0063BEDE51E07B9
:1012200009F4B6C0073BFDE51F0709F4BCC0053B48
:101230002DE5120709F0C4C0882309F47EC381E0BC
:1012400001C08DE00E94E32678C30C35BDE51B0785
:1012500009F464C060F40115FCE51F07A9F00F3D17
:101260002CE5120709F009C10E94FF1A4CC00E3587
:101270003DE5130709F44AC008F452C0093A9DE558
:10128000190709F440C0F9C010928B020E94AC30DB
:10129000AFEFB4E3ECE0A150B040E040E1F700C0B4
:1012A0000000F89481E08093E00080E28093D80011
:1012B0001092C9008FE19EE40197F1F700C0000091
:1012C0001DBA109268001CBC10BE1FBA10927A00A2
:1012D00010926E0010926F001092710010927200C6
:1012E0001092C9001092BC0014B817B81AB81DB8F3
:1012F00010BA1092BC0015B818B81BB81EB811BAB5
:101300000C94003F1AC30E94ED2817C380918602F7
:1013100082FB882780F991E0892703C081E001C022
:1013200080E00E94F61BA9C08091480483FB22271D
:1013300020F991E0922790FB83F980934804992348
:1013400029F040E060E080E00E94511340914804A1
:101350005091490460914A0470914B048FE090E0F1
:101360000E948235B5CE882309F4E7C29091F90531
:101370008091F3059F3F09F015CF1092F905816028
:101380008093F30540E060E080E00E945113D5C2F5
:10139000882309F4D2C281E00E94E3264FEF64E97A
:1013A00085EC90E00AC0882309F4C7C281E00E945E
:1013B000E3264FEF69E787E890E00E94AB31BDC2BA
:1013C000980137552F3F310511F008F081CE5801B3
:1013D000BB243EE0039FF0011124DF01A75EBE4F56
:1013E0006D01E25EFE4F908180FB90F99083F701E2
:1013F00082818823E1F10E947E25909334048093BA
:101400003304D60112968C9112978F5F12968C93AB
:1014100012979091A90580918B02892B13968C933A
:1014200013978091F80314968C9314971696ED9168
:10143000FC911797309731F01C966D917C911D9718
:10144000C60109958EE08A9DF0018B9DF00D112457
:10145000E25EFE4F808181FF03C090E080E002C029
:10146000902F812F9093AA058093AB0531CE91FFE9
:101470002FCECD010E9414262BCED70112968C912F
:1014800012970D911C91882349F0C8010E94782F72
:10149000D82E682FC8010E94EC2F04C0C8010E94FA
:1014A000B92FD82EB8018D2D0E944A190E946319B8
:1014B0008C01982EF701D280A580A2949FE0A922EA
:1014C0008091D7038770B9F0DD20A9F0812F807F4C
:1014D000803421F080E2800F883068F080918602AD
:1014E00082FF09C082E00E94D91B8091D7038770D8
:1014F000CC24C3948111C12CB12EB2948FE0B822B8
:101500008B2D90E08C30910508F0E8C1FC01EA5A7F
:10151000FF4F0C94B337812F807F1F70882311F009
:101520001295107FDD20B9F0112309F4C5C180E2C6
:10153000800F883010F0911006C080918B02182B1C
:1015400010938B0205C08091A905182B1093A90553
:101550000E94841BB1C1802F0E94D130112309F455
:10156000BDC1005E083078F1992069F11095809135
:10157000A90518231093A90529C0812F807F1F700A
:10158000803211F01295107F992021F0F1E09F1622
:10159000D9F147C08091860282FD1BC0DD2069F031
:1015A000112339F080918B02182B10938B020E942B
:1015B000841B80E00E94063191C180E00E94D130FE
:1015C000112309F48BC1812F0E947D1B0E94841B73
:1015D00085C1DD2081F08091F803AA2051F021E03F
:1015E000A21207C0182B181709F478C11093F8033A
:1015F00075C1812B10C0AA2021F031E0A31609F497
:101600006DC10E94771B1FC0DD2041F081E08A156B
:1016100008F464C1812F0E94C73060C1A1105EC16F
:1016200012C0DD2019F0AA20A9F346C1AA2059F062
:10163000093309F050C19FEFA7EEB3E09150A040ED
:10164000B040E1F746C1812F0E94C03047C1812FD1
:1016500086958695837019F0813059F03FC1DD2061
:1016600019F0C801937002C080E090E00E94F1255B
:101670003BC1DD2019F0C801937002C080E090E00A
:101680000E94DB2531C1802FDD2019F00E94DA2E67
:1016900002C00E94202E0E94352F26C1812F837008
:1016A00009F041C0D1101EC1302F329536953770E8
:1016B000330F330F802F8F7090E0032E02C0880FFE
:1016C000991F0A94E2F704FF0BC04FE050E002C0FC
:1016D000440F551F3A95E2F79A012095309502C0C4
:1016E00020E030E0169516951370123099F068F4EA
:1016F0004091F9035091FA03113029F0822B932B7A
:101700008423952304C0842B952B822B932B0E943A
:101710006E30E8C0822B932B2091F9033091FA03AD
:1017200082279327F4CFDD2019F0812F817001C02B
:101730008695882309F4D6C0302F329536953770B8
:10174000330F330F802F8F7090E0032E02C0880F6D
:10175000991F0A94E2F704FF0BC04FE050E002C06B
:10176000440F551F3A95E2F79A012095309502C033
:1017700020E030E0169516951370123079F0B8F429
:101780004091460450914704113029F0822B932B4D
:10179000842395230EC0842B952B09C0822B932B79
:1017A00020914604309147048227932702C0822B60
:1017B000932B0E94203096C01F70DD2039F0812FBE
:1017C0000E945E30802F0E94C7308CC0802F0E9404
:1017D000C030812F0E944C3085C0802FE2EF9E16D2
:1017E00089F1E91538F0F0EF9F1659F021EF9216C4
:1017F00021F15EC033EF931661F194EF9916C9F0B1
:1018000057C0DD2089F0A11069C01F7181E090E010
:1018100002C0880F991F1A95E2F720914604309173
:1018200047048227932722C0A1E0AA1508F456C0D6
:10183000ECCF8091860282FD1CC0DD2029F0812F33
:101840008F7129C0DD20D9F3812F8F710E944C3018
:1018500045C0DD2049F01F7181E090E002C0880F93
:10186000991F1A95E2F702C080E090E00E942030B4
:1018700035C0DD2099F01F71812F0E945E3080916C
:10188000860282FF07C0B8E01B9FC001112483605D
:101890008093D703812F0E945E3020C081E00E9498
:1018A000D91BE1E0EA15D0F482E00E94D91B16C0F2
:1018B000DD2021F0AA2019F2802F7CCEAA2021F26F
:1018C000893349F4FFEF27EE33E0F15020403040F8
:1018D000E1F700C00000802F0E94D13088EF8B0D0F
:1018E000843010F40E940726CC20B1F08091D703F9
:1018F00080FD12C0D70112961C928595859585951D
:101900000E945E30C7010E9456078091D7038595DB
:10191000859585950E944C3085E0F701DE01119692
:1019200001900D928A95E1F709811A81C8010E9400
:10193000B92FB8010E944A1910C08091D70387704F
:1019400061F0D70112968C91882339F0809186023C
:1019500082FF03C082E00E94D91BA596EBE00C94A5
:10196000C3348091B10287FF11C08091E80082FDED
:1019700005C08091F2058111F8CF11C08091E80077
:101980008B770BC08091F205882349F08091E800A5
:1019900080FFF8CF8091E8008E778093E80008956B
:1019A000982F973068F59093E900981739F0709167
:1019B000EC002091ED005091F00003C0242F762F11
:1019C00050E021FD02C09F5FECCF3091EB003E7FE5
:1019D0003093EB003091ED003D7F3093ED0030917E
:1019E000EB0031603093EB007093EC002093ED003E
:1019F0005093F0002091EE0027FDE5CF80E00895A0
:101A00008F708093E90081E008952091B7023091B2
:101A1000B8022617370748F06115710539F420918F
:101A2000E8002E772093E80001C0B901FC0120E016
:101A30006115710579F18091F2058823F1F1853006
:101A4000F1F18091E80083FD3CC08091E80082FDC7
:101A50002EC08091E80080FFEBCF2091F3008091B1
:101A6000F20090E0922B6115710551F088309105DC
:101A700038F421912093F100615071090196F3CF60
:101A800021E0089709F020E08091E8008E778093AC
:101A9000E800CECF2111CFCF0AC08091F205882374
:101AA00061F0853061F08091E80083FD0AC080918B
:101AB000E80082FFF2CF80E0089582E0089583E09D
:101AC000089581E00895089580918D02089580938E
:101AD000870270938902609388028091F2058430B6
:101AE00001F585E08093E9008FEF9091E800815047
:101AF00095FD06C095ED9A95F1F700008111F5CF9F
:101B00008091E80085FF0DC040E050E063E070E0A8
:101B100087E892E00E94D4318091E8008E7780932C
:101B2000E8000895BC0184E00E94670D0895BC019F
:101B300083E00E94670D089522E02093E9002FEFD3
:101B40003091E800215035FD06C035ED3A95F1F7AA
:101B500000002111F5CF2091E80025FF0BC040E0E7
:101B600050E065E070E00E94D4318091E8008E770B
:101B70008093E8000895CF93DF9320910A012223F8
:101B800039F02091850227FF03C060E225E002C002
:101B900068E021E02093E9002FEF3091E800215028
:101BA00035FD06C035ED3A95F1F700002111F5CF6E
:101BB0002091E80025FF1DC0EC0180910A018111F0
:101BC00005C040E050E068E070E003C070E040E035
:101BD00050E0CE010E94D4318091E8008E7780934E
:101BE000E80080E2FE01AEE8B2E001900D928A9535
:101BF000E1F7DF91CF910895AAE2B0E0E2E0FEE0E4
:101C00000C94AF34E1EBF2E089EB92E02091F1002B
:101C100021938E179F07D1F78091B202833009F488
:101C200063C030F4813071F0823009F49FC0B6C0D7
:101C30008A3009F48BC08B3009F46EC0893009F00A
:101C4000ADC020C08091B102813A09F0A7C0809157
:101C5000E800877F8093E8008091B5029091B602FA
:101C6000892B21F460E28EE892E003C060E080E01E
:101C700090E070E00E94050D8091E8008B778093E2
:101C8000E8008CC08091B102813209F087C0809158
:101C9000B5029091B602009719F0039709F07EC043
:101CA0008091E800877F8093E8008091E80082FDC2
:101CB00005C08091F2058111F8CF70C02091F3002A
:101CC0008091F20090E0922B029731F48091F10024
:101CD000813011F0863021F48091F10080938D02E3
:101CE0008091E8008B7756C08091B102813A09F06B
:101CF00055C08091B5029091B602892B09F04EC073
:101D00008091E800877F8093E8008091E80080FF61
:101D1000FCCF80910A0139C08091B1028132F1F586
:101D20008091B5029091B602892BC1F58091E800AF
:101D3000877F8093E8000E94B10C8091B30280936A
:101D40000A0110928B020E94AC3028C08091B1022F
:101D5000813221F58091E800877F8093E8000E941E
:101D6000B10C8091B40280938C0218C08091B102B2
:101D7000813AA1F48091E800877F8093E800809108
:101D8000E80080FFFCCF80918C028093F10080916D
:101D9000E8008E778093E8000E94B10C8091E80003
:101DA00083FFE4C18091B1029091B202492F50E0CB
:101DB0004A30510508F0DAC1FA01EE59FF4F0C9490
:101DC000B337803821F0823809F0D0C108C0809143
:101DD000AE029091AF02992389F082600FC080918A
:101DE000B5028F70873008F0C1C18093E9008091FF
:101DF000EB0085FB882780F91092E9009091E800BC
:101E0000977F9093E8008093F1001092F10070C1E9
:101E1000282F2D7F09F0AAC1882319F0823061F0A4
:101E2000A5C18091B302813009F0A0C1933009F0BF
:101E300080E08093AF022EC08091B30281112AC04E
:101E40008091B5028F702FEF280F263008F08EC1D9
:101E50008093E9002091EB0020FF1CC0933021F417
:101E60008091EB00806214C09091EB0090619093A0
:101E7000EB0021E030E0A90102C0440F551F8A9514
:101E8000E2F74093EA001092EA008091EB0088604C
:101E90008093EB001092E9008091E800877F8093A7
:101EA000E8000E94B10C62C1811160C11091B302BF
:101EB0001F778091E3008078812B8093E3008091ED
:101EC000E800877F8093E8000E94B10C8091E800D1
:101ED00080FFFCCF8091E30080688093E3001111C4
:101EE00002C082E001C083E08093F2053FC18058C8
:101EF000823008F03BC12091B3023091B4022C3DF6
:101F000053E0350779F583E08A838AE289834FB706
:101F1000F894DE01139620E03EE051E2E32FF0E07A
:101F200050935700E49120FF03C0E295EF703F5FAC
:101F3000EF708E2F90E0EA3010F0C79601C0C09687
:101F40008D939D932F5F243149F74FBF8091E80017
:101F5000877F8093E8006AE270E0CE0101960E94DC
:101F6000050DB4C08091B5029091B602432F55275C
:101F700043305105A9F068F44130510509F405C119
:101F80004230510509F0F2C084E790E0E8E1F2E068
:101F90004BC04132510529F14232510589F1E6C069
:101FA000C901992781309105A1F058F0029709F0F5
:101FB000DDC0EEE9F2E0E4918E2F90E0EEE9F2E090
:101FC00030C0EAEEF2E0E4918E2F90E0EAEEF2E02B
:101FD00028C0E0ECF2E0E4918E2F90E0E0ECF2E03B
:101FE00020C08430910508F0C1C0880F991FFC0102
:101FF000E45BFE4F0190F081E02D89E090E014C099
:102000008430910508F0B2C0FC01EE0FFF1FEC5BBD
:10201000FE4F0190F081E02DDC01A05CBE4F8C9161
:1020200090E0009709F4A2C02091E800277F209358
:10203000E8002091B7023091B8022817390708F458
:10204000C90140E0009789F12091F205222309F4AB
:102050003DC02530D9F12091E80023FD37C0209103
:10206000E80022FD2FC02091E80020FFEBCF409137
:10207000F3002091F20030E0342B009759F0283023
:10208000310540F444914093F100319601972F5F60
:102090003F4FF3CF41E02830310509F040E0209177
:1020A000E8002E772093E800CDCF4111CDCF0AC0B4
:1020B0008091F205882351F0853041F08091E8004D
:1020C00083FD04C08091E80082FFF2CF8091E80098
:1020D0008B778093E8004AC0803809F047C0809130
:1020E000E800877F8093E8008091B0028093F10040
:1020F0008091E8008E77D3CE811138C08091B302F1
:102100009091B402992702978CF58091E800877F1F
:102110008093E8001091B3021093B0020E94B10CBA
:10212000111106C08091E30087FD02C081E001C06B
:1021300084E08093F20542E061EC81E00E94D00CE3
:1021400042E061EC82E00E94D00C42E261EC85E06A
:102150000E94D00C42E261EC83E00E94D00C42E28B
:1021600060EC84E00E94D00C8091F2058091E80040
:1021700083FF10C08091E800877F8093E800809102
:10218000EB0080628093EB0005C082E190E0ECE818
:10219000F2E04ACFAA96E3E00C94CB341F920F9260
:1021A0000FB60F9211242F933F934F935F936F932A
:1021B0007F938F939F93AF93BF93CF93DF93EF93CF
:1021C000FF93C091E900CF708091EC00D82FD170BF
:1021D00080FDD0E81092E9008091F000877F809325
:1021E000F00078940E94FC0D1092E9008091F000BC
:1021F00088608093F000CD2BCF70C093E900FF91F1
:10220000EF91DF91CF91BF91AF919F918F917F918E
:102210006F915F914F913F912F910F900FBE0F9053
:102220001F901895E8EDF0E080818E7F80831092FA
:10223000E2001092DA001092E100A0EEB0E08C9182
:1022400081608C9380818F77808319BCA7EDB0E08B
:102250008C918E7F8C9380818F7E808310928A02F6
:102260000895A0E0B0E0E7E3F1E10C94AA34C8EDF2
:10227000D0E088818F7E8883E7EDF0E08081816007
:10228000808384E082BF81E080938A0288818E7F90
:10229000888302EE10E0F80110821092DA0081EEDD
:1022A000C82ED12CF601108288818F77888388818F
:1022B0008068888388818F7D888319BC1092F2059D
:1022C0001092B0021092AF021092AE0290EEE92E80
:1022D000F12CF70180818B7F8083888181608883E6
:1022E00042E060E080E00E94D00CF60180818E7FA9
:1022F0008083F80180818160808380818860808311
:10230000F70180818E7F8083888180618883CDB74B
:10231000DEB7E8E00C94C6341F920F920FB60F920E
:1023200011242F933F934F935F936F937F938F93DA
:102330009F93AF93BF93EF93FF938091E10082FF50
:1023400009C08091E20082FF05C08091E1008B7F8F
:102350008093E1008091DA0080FF2AC08091D8004C
:1023600080FF26C08091DA008E7F8093DA00809112
:10237000D90080FF18C080E189BD82E189BD09B420
:1023800000FEFDCF81E08093F20580918A028111E9
:102390000FC00E9412110E9431118091E2008460EE
:1023A0008093E20005C019BC1092F20510928A02D7
:1023B0008091E10080FF17C08091E20080FF13C090
:1023C0008091E2008E7F8093E2008091E200806144
:1023D0008093E2008091D80080628093D80019BC7D
:1023E00085E08093F2058091E10084FF30C0809108
:1023F000E20084FF2CC080E189BD82E189BD09B47F
:1024000000FEFDCF8091D8008F7D8093D800809111
:10241000E1008F7E8093E1008091E2008F7E8093C7
:10242000E2008091E20081608093E2008091B0023E
:10243000882311F084E007C08091E30087FD02C08B
:1024400081E001C083E08093F2058091F2058091E4
:10245000E10083FF27C08091E20083FF23C08091C9
:10246000E100877F8093E10082E08093F205109283
:10247000B0028091E1008E7F8093E1008091E200C4
:102480008E7F8093E2008091E20080618093E20081
:1024900042E060E080E00E94D00C8091F000886013
:1024A0008093F000FF91EF91BF91AF919F918F9139
:1024B0007F916F915F914F913F912F910F900FBE40
:1024C0000F901F9018952091E4003091E50095E65B
:1024D0004091EC00842F817040FF23C08091E80080
:1024E00080FD1DC08091F205882399F0853099F018
:1024F0008091EB0085FD11C04091E4005091E50012
:102500002417350729F3915011F09A01E1CF84E0A7
:10251000089582E0089583E0089581E0089580E0C1
:1025200008954091E80042FFDDCF089578941F920E
:102530000F920FB60F9211248F939F93AF93BF9377
:102540008091810290918202A0918302B0918402D5
:102550000196A11DB11D8093810290938202A093E8
:102560008302B0938402BF91AF919F918F910F909E
:102570000FBE0F901F9018959C014FB7F894809153
:10258000810290918202A0918302B09184024FBF98
:10259000821B930B0895E42FF0E0EE0FFF1FE35131
:1025A000FE4F9081921B97FD9195292F38E1239F33
:1025B000212D1124620F08950F931F9310E0F8014D
:1025C000EE0FFF1FE351FE4F9081905797FD9195BD
:1025D000000F111FF801E251FE4FE081F0E0B097CB
:1025E000DF01AA0FBB1F8D010E0F1F1F2003D0019B
:1025F000219FB00D1124E8E3F0E0E91BF10997FDFC
:10260000F3959F01220F331F89010E0F1F1F4003F7
:102610009001419F300D11242A0F3B1F37FF02C04C
:1026200021583F4F220F232F221F330B620F1F9180
:102630000F9108952091F80530E1230F08F42FEF52
:1026400060E1822F90E00E948C2DBC0188EB9BE022
:102650000E948C3480E090E008950F931F93CF93F5
:10266000DF93D62F072F182FC42F822F0E94FC2C08
:10267000EC2FF0E0EE0FFF1FE351FE4F90819058DA
:10268000890F87FD8195880F682F2CE0629F612D4F
:1026900011246D0F702F812FDF91CF911F910F911A
:1026A00008950E94892308950E944B230895A4E071
:1026B000B0E0EDE5F3E10C94A134782E8091360181
:1026C00087110DC02091F405237030E04091350151
:1026D00050E081E02417350719F480E001C081E063
:1026E000817080933B018091F90590913A01981790
:1026F00039F080933A0140E060E080E00E9451139D
:10270000EFE07E125DC08CEA9BE20E942A328A834F
:1027100042C0F71508F49AC123E0721609F459C0B3
:10272000271508F4F7C031E0731609F497C0371580
:1027300008F0B6C080913901382F330F330F380FAE
:10274000398375E0F72EF30E80E38F1510F460E304
:10275000F62E1091F6059091F7059A830091F505F4
:10276000B801892F0E94962DE62ED72EC82E609193
:10277000F805600F712F8A810E94962D6A83172FAA
:10278000082F29812F1508F4ABC031E03A838FE27E
:102790008F1508F48EC0809139018F5F80933901C5
:1027A0009A81911113C582E080933C0180913B0195
:1027B00081110CC571100AC583E080933C0106C5E8
:1027C000E71508F46BC1F7E07F12A3CF8BED9BE216
:1027D0009CCF80913901982F990F990F980F998369
:1027E0009B5F9B83913310F0E0E3EB83E090F60571
:1027F000D090F7052091F80550E4F52E3F2D329F3B
:10280000312D1124F32EE981FB81EF1708F042C02E
:102810008981082F10E0F801E35BFD4F90818091E2
:102820003A018923B9F0F801EE0FFF1FE251FE4F84
:10283000808182958F706091F5058F9D600D1124C8
:102840007E2D8D2D0E94962D462F282F672FC80193
:102850000E94541399819F5F9983D5CF809139014C
:10286000282F220F220F280F29832B5F2B83213340
:1028700010F030E33B836091F5057091F60580918F
:10288000F7050E94962D162F072FF82EE981FB8160
:10289000EF1788F021E02A83F03308F47CCF09C0D9
:1028A00080913B01882329F040E060E080E00E94B5
:1028B00051131A8270CF8981E82FF0E0DF01A35B0A
:1028C000BD4F8C9190913A01982331F02F2D412FDB
:1028D000602FCF010E94541399819F5F9983D6CFB7
:1028E000E9818E2F90E0FC01E35BFD4F3081209168
:1028F0003A01232359F030FF04C0202F4A81612F71
:1029000003C02C2D4E2D6D2D0E945413F981FF5FB5
:10291000F98337CF85E078124AC080913901382F8A
:10292000330F330F380F39833B5F3B83313310F064
:1029300080E38B830091F5051091F605F090F70583
:102940006091F8056695669566958091EC05909185
:10295000ED050E948C2D0E94FC2C805887FD8195EE
:10296000880F282F3F2D239F212D1124822FB8015E
:102970000E94962D162F072FF82EE981FB81EF1765
:1029800008F088CF8981E82FF0E0DF01A35BBD4F1D
:102990008C9190913A01982331F02F2D412F602F87
:1029A000CF010E94541399819F5F9983E6CF8715C9
:1029B00008F449C080913901382F330F330F380F95
:1029C00039833B5F3B83313310F080E38B83E090AE
:1029D000F605D090F7052091F80530E4F32E3F2D51
:1029E000329F312D1124F32EE981FB81EF1708F07E
:1029F00051CF8981082F10E0F801E35BFD4F9081F2
:102A000080913A018923D9F0F801EE0FFF1FE351BD
:102A1000FE4F6081F69EB001112425E07595679503
:102A20002A95E1F78091F505680F7E2D8D2D0E9486
:102A3000962D462F282F672FC8010E945413998185
:102A40009F5F9983D1CF87E09CE25FCE9BE07912B4
:102A500008C08AE89CE202C086EA9CE20E94C93271
:102A600056CE971568F0E9E07E1205C081EC9CE235
:102A70000E9445334CCEE71578F38FED9CE2F8CFFA
:102A8000FDE07F1203C080ED9BE23FCEF71518F00A
:102A900089ED9BE23ACE87EC9BE237CE27E17212BA
:102AA0004FC080913901382F330F330F380F3983DE
:102AB000132F1B5F113308F010E380913B0181114C
:102AC0001EC06091F80520E1620F08F46FEF80915D
:102AD000EC059091ED050E948C2D6AE070E00E945B
:102AE0008C34892B21F50E941D2D60E30E949337C1
:102AF00060913A01892F90E00E94A82618C0998120
:102B0000892F90E09C838B83E12EF12C2B813C81DB
:102B10002E153F0564F460913A018B819C810E94DF
:102B2000A826EB81FC813196FC83EB83EFCF31E06B
:102B30003A8302C091E09A83103308F42CCEB9CEC8
:102B4000271530F133E1731203C085E69CE286CF8E
:102B5000371570F081E1781203C083E69DE288CFDB
:102B6000871518F08DE99BE279CF89E79CE280CF49
:102B700095E1791203C08DE39BE204C0971528F01C
:102B80008FE69BE20E947432C2CD8CED92E1FACFC7
:102B9000EBE17E1203C08BEC92E1B7CDE71508F4B0
:102BA000A1C0F9E17F1250C080913901E82FEE0FEA
:102BB000EE0FE80FE983EB5FEB83E13310F0F0E316
:102BC000FB830091F6051091F705F090F5056091F3
:102BD000F8056695669566958091EC059091ED05F2
:102BE0000E948C2D0E94FC2C805887FD8195880FB7
:102BF000682F2CE0629F612D11246F0D702F812FA3
:102C00000E94962D162F072FF82E89819B818917F8
:102C1000A8F42981E22FF0E0DF01A35BBD4F8C9186
:102C200090913A01982331F02F2D412F602FCF0141
:102C30000E94541339813F5F3983E7CFE1E0EA8393
:102C4000903308F4A8CD35CEF71508F448C080912C
:102C50003B0181111EC06091F80520E1620F08F46C
:102C60006FEF8091EC059091ED050E948C2D65E051
:102C700070E00E948C34892B09F01BCE0E94233512
:102C800060E370E00E949F3760913A010E948426C1
:102C900010CE80913901982F990F990F980F998331
:102CA000192F1B5F113308F010E3F981EF2FF0E0CB
:102CB000FC83EB83E12EF12C8B819C818E159F058B
:102CC0000CF038CF60913A018B819C810E94842660
:102CD0002B813C812F5F3F4F3C832B83EDCF8DE2D7
:102CE00093E113CD2DE17212F0C040914D0350914C
:102CF0004E0360914F03709150038091EC059091C9
:102D0000ED05A091EE05B091EF0584179507A60794
:102D1000B70708F4CECD80913B0181110EC08091A0
:102D20003901982F990F990F980F9983092F0B5FED
:102D3000013308F45CC000E35AC040E060E080E08A
:102D40000E9451130DEB12E01C821B828FE7D82EDC
:102D50000E941D2D81FF05C0F80110821182128290
:102D600020C00E941D2DC82E0E941D2D8695782FF3
:102D70002D2D720F08F47FEF8B819C81880F991F96
:102D8000EB81FC818E0F9F1F9C0123543D4F7901E5
:102D90006C2D8091F7050E94962DF7016083718359
:102DA00082832B813C812F5F3F4F3C832B830D5FC0
:102DB0001F4F2033310561F6B2CF3981832F90E068
:102DC000FC01E35BFD4F308120913A01232361F048
:102DD000FC01EE0FFF1FE80FF91FE354FD4F2281A6
:102DE000408161810E94541389818F5F8983998119
:102DF000901718F3E1E0EA83003308F01A820033F9
:102E000008F4C9CC20E010E001501109822F90E0B5
:102E100080179107CCF4AC01440F551F480F591F80
:102E200043545D4F0196FC01EE0FFF1F8E0F9F1F55
:102E3000FC01E354FD4F80819181A281FA018083DE
:102E40009183A2832F5FE2CF0E941D2D7801EE0CAB
:102E5000FF1C81FF09C00E0D1F1DF801E354FD4F3B
:102E600010821182128218C00E941D2D89830E9437
:102E70001D2D8695782F2FE7720F08F47FEF0E0D2A
:102E80001F1D03541D4F69818091F7050E94962DE7
:102E9000F8016083718382830E941A130091EC050C
:102EA0001091ED052091EE053091EF05DC01CB018D
:102EB000800F911FA21FB31F80934D0390934E0369
:102EC000A0934F03B093500366CC721608F07AC0FB
:102ED00080913901982F990F990F890F8B5F8B8300
:102EE0004091EC055091ED056091EE057091EF0574
:102EF0008091B9029091BA02A091BB02B091BC023C
:102F000084179507A607B70708F055C00E941D2D26
:102F100089830E941D2D90E3891BF0F7890F082FEC
:102F200010E0F801E35BFD4F80913A019081982316
:102F300009F441C0F981F1FF04C020E040E060E005
:102F400013C00E941D2D89830E941D2D8695782F08
:102F50002FE7720F08F47FEF69818091F7050E94D7
:102F6000962D462F282F672FC8010E9454132091B9
:102F7000F80530E1230F08F42FEF60E1822F90E095
:102F80000E948C2DBC0184EF91E00E948C348091D2
:102F9000EC059091ED05A091EE05B091EF05860F3F
:102FA000971FA11DB11D8093B9029093BA02A093FF
:102FB000BB02B093BC0221E02A833B81303308F48A
:102FC000EACB77CC3EE17312C7C080913B018823E6
:102FD00029F040E060E080E00E94511380913901C7
:102FE000982F990F990F890F8B5F89834091EC057A
:102FF0005091ED056091EE057091EF0580917B0396
:1030000090917C03A0917D03B0917E038417950776
:10301000A607B70708F099C06091F5057091F6050D
:103020008091F7050E94962D662E572E482E01E5B9
:1030300013E029E931E03C832B834DEE842E41E0FF
:10304000942EAB80BC806501780132E0332EF7010D
:103050008081F601882369F08081242D462D652D1D
:1030600090E00E945413F5018581242D462D652D95
:103070000CC0808120E040E060E090E00E945413AA
:10308000F501858120E040E060E090E00E9454136B
:10309000F701818181937F013A94FFEFCF1ADF0A14
:1030A00021E0A21AB1083110D2CFF8018281EB8160
:1030B000FC81882371F08281242D462D652D90E0BE
:1030C0000E945413EB81FC818381242D462D652DB4
:1030D0000DC0828120E040E060E090E00E94541347
:1030E000EB81FC81838120E040E060E090E00E9481
:1030F00054130E941D2D837091E009F090E0F801B7
:1031000092830D5F1F4F2B813C812A5F3F4F3C8391
:103110002B838216930609F094CF0E941A13009114
:10312000EC051091ED052091EE053091EF05DC01E5
:10313000CB01800F911FA21FB31F80937B0390933D
:103140007C03A0937D03B0937E0331E03A838981B1
:10315000803308F420CBADCB8FEF781231C0809153
:10316000EC059091ED05A091EE05B091EF05882753
:103170009C70AA27BB272AE0B695A79597958795B7
:103180002A95D1F782309105A105B10571F0833000
:103190009105A105B10569F040E00197A105B105D0
:1031A00011F060E008C064E102C044E160E080E04A
:1031B00003C044E164E184E10E94511382E0FDCA4E
:1031C000809139018F5F80933901EDCA2496E1E146
:1031D0000C94BD34E4EFF5E085E3808380913D01FC
:1031E00090913E01A0913F0181839283A3838CE360
:1031F00084838FEF858346E050E06CE170E0CF017F
:103200000E9460351092F305089580E00895909132
:10321000850292FF0DC0282F2871283019F4877F6E
:10322000846006C0282F2471243011F48B7F8860BD
:1032300093FF0DC0282F2871283119F4877E8461EF
:1032400006C0282F2471243111F48B7E88612091CF
:10325000860220FF0DC0382F3871383019F4877F6F
:10326000816006C0382F3171313011F48E7F886053
:1032700021FF0DC0282F2871283119F4877E816124
:1032800006C0282F2171213111F48E7E886194FDB2
:10329000877E08957E30A0F4663090F494E5899F8F
:1032A000F001112486E0789FE00DF11D1124E60F56
:1032B000F11DEE0FFF1FE251FD4F8591949108958E
:1032C00080E090E00895CF93DF938238910569F113
:1032D000B0F48133910509F477C048F4893291053F
:1032E00009F469C08A32910509F473C092C085332C
:1032F000910509F45BC089339105B9F08AC0833E1A
:10330000910591F138F4803E9105D1F0823E91050E
:1033100031F17FC0863E9105D9F1873E9105E9F1F3
:10332000843E910509F075C028C02091850220FDDA
:103330005BC021FD59C02091860223FD61C069C098
:103340008091850280FD4AC08091860280FF4CC03A
:103350008091850284FD4EC183EE90E04DC1809145
:10336000850282FF3EC0F4CF8091850282FD39C084
:103370008091860280FD38C0EBCF8091860281FF6C
:1033800039C08091850284FD35C187EE90E034C15B
:103390008091850283FF2BC0F4CF8091850283FD4D
:1033A00026C08091860281FD25C0EBCF80918502E9
:1033B00085FD26C022C08091850285FD1EC08091BA
:1033C000860283FF1DC00AC08091850286FD1BC056
:1033D0001DC08091850286FD19C015C089E390E06B
:1033E0000BC182EE90E008C180EE90E005C186EE50
:1033F00090E002C184EE90E0FFC085E390E0FCC065
:1034000089E290E0F9C08AE290E0F6C081E390E0C2
:10341000F3C0811531E5930708F061C0811520E5FF
:103420009207B0F09C012370332741E050E002C0C6
:10343000440F551F2A95E2F7282F2695269580E2FE
:10344000289F90011124CA01822B932B9D68D4C020
:10345000883E910568F5803E910508F0CDC0883A18
:103460009105B8F4853A910548F0855AE82FF0E0C7
:10347000EC5AFE4F808190E09064BEC0813091058F
:1034800009F4B5C008F4B6C08430910508F4B2C0A0
:10349000B3C08F3B910508F0ADC0885AE82FF0E02B
:1034A000EE0FFF1FE95AFE4F808191819464A4C002
:1034B000811530E2930758F4811521E0920708F056
:1034C0009BC08D3E910508F495C0906595C081150F
:1034D00030E4930708F48EC09F70906A8DC0811508
:1034E00025E5920708F042C0811534E5930728F0DE
:1034F000982F8827846F906A7FC0811523E59207F3
:10350000B0F09C012370332741E050E002C0440F2B
:10351000551F2A95E2F7282F2695269580E2289FA9
:1035200090011124CA01822B932B9A6865C08115E2
:1035300032E5930728F4982F8827816F906A5CC042
:103540009C012370332741E050E002C0440F551F17
:103550002A95E2F7282F2695269580E2289F90014C
:103560001124CA01822B932B9C6846C0EC01C11523
:1035700089E5D807B0F4C11528E5D20728F09C2FBB
:103580008827806F906A38C0C11536E5D30790F55B
:103590008C2F0E9407198F7190E0982F88279062D6
:1035A0002BC0C1158AE5D80790F48C2F8F700E942C
:1035B000071994E0D695C7959A95E1F7CF70D0E0BA
:1035C000DC2FCC27D0699E01282BC90115C0CE0164
:1035D00090568115904270F48D2F8F710E940719BB
:1035E000282F2F71CE0199279062922B05C081E080
:1035F00090E002C080E090E0DF91CF91089568EE06
:103600007EEF80E090E00E948E3560E082E090E006
:103610000E94703560E083E090E00E947035109267
:10362000FA031092F90360E084E090E00E947035A4
:1036300064E082E290E00E94703560E085E090E016
:103640000E94703560E086E090E00E9470356FEF78
:1036500087E090E00E94703540E050E0BA0188E0D9
:1036600090E00E94823560E08DE090E00E9470352D
:1036700040E050E0BA0188E190E00E94823560E0CD
:1036800087E190E00E94703540E050E0BA018CE1A3
:1036900090E00E94823560E070E080E290E00E945D
:1036A0008E3540E050E0BA0188E190E00E9482351A
:1036B000109248041092490410924A0410924B044C
:1036C00084E08093480440914804509149046091FB
:1036D0004A0470914B048FE090E00E94823540E0F4
:1036E00050E0BA0183E190E00E9482350895809114
:1036F000F80381111092F8030895809590918B0240
:10370000892380938B02089590918B028091A90563
:10371000982B90937F038091F8038823D9F0892B0D
:1037200080937F0380910A01882331F08091850284
:1037300087FF02C08EE101C086E0E1E8F3E090E09F
:10374000815028F021912223D9F39F5FF9CF911165
:103750000E94771B40E250E068ED73E08FE793E052
:103760000E94DA38892B21F180E2EFE7F3E0A8ED3F
:10377000B3E001900D928A95E1F7E091AE05F091EA
:10378000AF053097A9F080910A01882359F0809104
:10379000850287FF07C080917F038093800386E0C6
:1037A00080937F030280F381E02D8FE793E00995FA
:1037B00008952091D703809582238093D703982F73
:1037C000977099F430E0482F082E000C550B241701
:1037D000350759F09091860292FF07C0859585952F
:1037E00085950E944C301092D7030895CF93C091D5
:1037F0008602C2FB992790F9981791F080FBC2F9D5
:10380000C09386026091850284E090E00E9470354A
:103810006C2F82E290E00E94703582E00E94D91BFA
:10382000CF9108958091D6039091A503891719F03F
:103830008F5F8770FBCF08950F931F93CF93DF9314
:103840008091A40382958F7009F05AC08091A103E2
:10385000882309F455C08091D6031091A503609187
:103860009F037091A003C091A203D091A30391E0A4
:103870006F3F09F090E0292F06E0811709F440C05E
:10388000209721F07F3F21F030E003C031E001C0FC
:10389000322F90E030FD31C0089FF001099FF00DFC
:1038A0001124DF01AA55BC4F11963C911197371393
:1038B00024C03C91361321C012963C9112973111CD
:1038C0001CC013964D915C9114974C1B5D0B483CAA
:1038D000510598F48091A4038F7080618093A403B4
:1038E000E555FC4F80818F70806180838FE993E084
:1038F0000E9456070E94121C03C001968770BDCF1C
:10390000DF91CF911F910F910895A1E1B0E0EBE815
:10391000FCE10C94A7348C0185E0F801DE011D96D2
:1039200001900D928A95E1F7F801E28090919F0352
:103930006091A0034091A2035091A303411551054A
:1039400031F06F3F31F481E09F3F19F403C081E013
:1039500001C080E0F82FF1709F2E80FD1BC1F8019F
:1039600030812181C380D4808FE9A82E83E0B82ED6
:10397000F090A103F601E41BF50BFF2009F4C7C08A
:103980008091A403E83CF10508F092C0482F407FE5
:1039900009F051C0621311C093130FC0FE2CE11047
:1039A0000CC08F7080618093A403C5010E945607EC
:1039B0008091A403F80185832AC1C114D10431F098
:1039C0002F3F31F481E03F3F19F403C081E001C093
:1039D00080E080FD03C081E08E2502C080E090E0A1
:1039E000F82FF170FF2E80FF1CC08091D60340910C
:1039F000A50356E0841709F4E8C090E0589FF00151
:103A0000599FF00D1124EA55FC4F6181261306C021
:103A10006081631303C06281E61203C00196877060
:103A2000E9CFFE2CEE2009F4F2C08091A40381605E
:103A30008093A40349C0621306C0931304C0E1102D
:103A400002C0F80186C0C8010E947530882351F178
:103A5000EE2041F12091A403822F82958F7090E097
:103A6000029774F080919F039091A00398878F83B1
:103A70001986DB86CA862C87CE0107960E945607D8
:103A800086E0F801AFE9B3E001900D928A95E1F785
:103A90000E941C1C0AC06217C9F0C8010E94753040
:103AA00081111EC0C8010E945607FF24F394AFC0C5
:103AB000482F407F81F78FE993E00E94560786E008
:103AC000F50111928A95E9F7F12CA1C09313E5CF86
:103AD000E110E3CFF8018583C8010E94560754C066
:103AE000EE2001F32091A403822F82958F7090E045
:103AF000029734F280919F039091A0039A83898367
:103B00001B82DD82CC822E83CE010196B7CFE83CAA
:103B1000F105D0F5FE2CEE2029F2621327C0931395
:103B200025C02091A40320FD18C0822F82958F709C
:103B3000482F50E04115510581F0F80125834F30A1
:103B4000510541F08F5F982F9295907F822F8F7053
:103B5000892B8583C8010E94560786E0F801AFE9EA
:103B6000B3E001900D928A95E1F751C0C8010E941F
:103B70007530811185CF8091A40381608093A40367
:103B8000C8010E94560743C086E0F50111928A954C
:103B9000E9F73DC0EE2009F485CFC8010E947530D9
:103BA000F82E882309F47ECF86E0F801AFE9B3E070
:103BB00001900D928A95E1F780919F039091A00367
:103BC0000E94AC2F0E941C1C22C03D872E878D8531
:103BD0009E850E94AC2F292F22952F70223028F429
:103BE0009F7039F0811105C00BC0243028F49F70FC
:103BF00049F4805E883020F0C8010E9456079F2C4F
:103C0000F92C05C0F8019581907F99F7F9CF8F2D98
:103C10006196EBE00C94C334A0E0B0E0E2E1FEE199
:103C20000C94AA348091170190911801892BA1F06E
:103C30008091FB038F5F8093FB0381110DC00E9475
:103C4000AF2990E09093180180931701892B21F4FC
:103C50000E94262A0E94F32606E014E07801D0E0B4
:103C6000C0E087E0C82ECC0E8C2F0E94962A8C2DA7
:103C70000E94962A8C2F0E94F92A8F73F701908157
:103C8000891721F08083DD24D39401C0D12C8C2DA1
:103C90000E94F92A8F73F7019781891719F087839A
:103CA00081E001C080E0D82ADD290E94EA2ACF5FA6
:103CB000FFEFEF1AFF0AC730A1F610920004C0917F
:103CC000FF03CC2309F4C8C00E947E252091FD0388
:103CD0003091FE03AC01421B530B9A019093FE03FB
:103CE0008093FD034F3F510509F018F4452B19F15E
:103CF00002C02FEF30E01092FF031092FC03E0911E
:103D00000404F0910504AF01425F5F4F90E030E0A2
:103D10008081882341F0281718F010829C2F03C05F
:103D2000821B80833C2F3196E417F50789F7309387
:103D3000FF039093FC03DD2309F47FC0E0910404AA
:103D4000F0910504809100049091FF03A6E1B4E096
:103D5000AF01425F5F4F68E2E80128813C91321772
:103D600079F0308131110CC060832C9398819227B7
:103D7000282F30E0292B81E0232B09F480E091E00B
:103D8000319611960F5F1F4FE417F50729F78093BF
:103D900000049093FF03C09100042091F0058091EE
:103DA0000204909103042223D9F1892B31F4259840
:103DB0002D9826982E9827982F98809102049091FC
:103DC00003049170892B79F480910104882319F000
:103DD00026982E9802C0269A2E9A9091010481E08E
:103DE000892780930104809102049091030481301B
:103DF000984760F01092F005809146049091470436
:103E00000E9405291092030410920204809102047A
:103E1000909103040196909303048093020420C0C0
:103E2000892BF1F010920304109202048091460451
:103E3000909147040E94052913C081E09091FC03F2
:103E4000992309F4A8CF811179CF0E947E25909300
:103E5000FE038093FD0372CFD111F7CF80E0EECF48
:103E60008C2FCDB7DEB7E8E00C94C634ACE5B0E0FB
:103E7000ECE3FFE10C94A33485B7806885BF85B778
:103E8000806885BF84B7877F84BF0FB6F894A895F4
:103E900080916000886180936000109260000FBE86
:103EA00090E080E80FB6F8948093610090936100F1
:103EB0000FBE85E099E190937F0280937E020E947D
:103EC00012110E9431118091E20084608093E2001F
:103ED00078948091F2058823A1F01091E9001F7079
:103EE0009091EC00892F817090FD80E8182B109242
:103EF000E9008091E80083FD0E94FC0D1F70109383
:103F0000E90082E084BD93E095BD9AEF97BD809370
:103F10006E000E94AF2990E09093180180931701E2
:103F20000E94EA2A0E94302BE6E0F4E0A6E1B4E029
:103F300011921D9224E0E431F207D1F78EE090E077
:103F40000E94B9378093040490930504FC010E96F7
:103F50001192E817F907E1F789EA8093800089E078
:103F60008093810024982C983F988AB18F7C8AB9DD
:103F70006E98479A8BB180638BB9769A8FE090E008
:103F80000E945435609348047093490480934A0416
:103F900090934B0467703FEF639FB00111247595B8
:103FA000679575956795772770938900609388006A
:103FB00070938B0060938A0070938D0060938C00E7
:103FC0000E94262A80E090E00E945A35883E9E4F4B
:103FD00011F00E94FF1A82E090E00E944C3580931D
:103FE000240484E090E00E944C35182F82E290E097
:103FF0000E944C35212F30E0382B309386022093DD
:10400000850283E090E00E944C3590E00E946E3083
:1040100080914604909147040E9405290E94F3264E
:104020000E94E6260E94E6268091F3058160809337
:10403000F3058BE091E09093AF058093AE05F8E136
:10404000EF2EF12C11E001E08091F205853009F0AE
:1040500073C050E4B52E63E0A62E70E1C72EE2E1F6
:10406000DE2E8091F205853009F05EC08091F20568
:10407000843009F436C00E94112780914C048111CC
:104080000DC00E945713109236018091F405837081
:10409000809335010E94C723A0923C0100934C04F9
:1040A0001092B2050FB6F894A895E09260000FBE8A
:1040B000B092600083B7817F846083BF83B78160E3
:1040C00083BF7894889583B78E7F83BF0FB6F894AB
:1040D000A8958091600088618093600010926000D4
:1040E0000FBE8091AF02882309F4BBCF0E94AF2995
:1040F00090E090931801809317010E94EA2A0E9491
:10410000302BE6E1F4E0119284E0E432F807D9F7CD
:104110000E940C1EE6E1F4E0819181117FC294E0DF
:10412000E432F907C9F79DCF10928B020E94AC30A0
:104130000E94072610924C040E940C1E45E2A42EF9
:1041400044E0B42EA6E1B4E0F50191918D91892768
:1041500024E0E333F20719F08823B9F332C0811168
:1041600030C00E947E256C0180911404909115044A
:10417000C816D90609F46BC08FEF64968FAF6497A9
:1041800065968FAF659766961FAE66970E947E25EF
:104190008160782F68969FAF8EAF689764964FAD19
:1041A000649765965FAD659766966FAD66976896FE
:1041B0008FAD68970E942828D0921504C0921404ED
:1041C00046C036E1832E34E0932ED12CF401519079
:1041D0004F01F5016080652489F1C12C7724739427
:1041E000862D872121F16996CFAE69976A96DFAE59
:1041F0006A9791E0852D872109F490E06B969FAF37
:104200006B970E947E258160782F6D969FAF8EAF51
:104210006D9769964FAD69976A965FAD6A976B9691
:104220006FAD6B976D968FAD6D970E942828C394E4
:10423000770CF6E0CF12D4CFF5015082D394FFEF84
:10424000AF1ABF0A2EE0D212C1CF0E947225809110
:10425000AA059091AB05892BC9F080913304909108
:1042600034040E94BC12893C910580F08091AA051B
:104270003EE0839FC0011124FC01E25EFE4F2081DD
:1042800022FD04C0875E9E4F0E9432260E941127A5
:1042900085E0EBEBF5E0DE01119601900D928A9539
:1042A000E1F71092BC051092BD051092BE05109268
:1042B000BF05DA80D11004C08B81882309F450C077
:1042C0008091B9059091BA050E94BC129C01909111
:1042D000B505992309F4BAC12531310508F440C068
:1042E0009F3F19F09F5F9093B505DD2061F00E941C
:1042F000B72E1D1414F491E001C09FEF899F802D0B
:1043000011248093BC05DB80DD2061F00E94B72E74
:104310001D1414F491E001C09FEF899F802D11249A
:104320008093BD053091BC053323D1F02091BD05AC
:104330002223B1F045EB3403C0011124992319F075
:104340009093BC0502C01093BC0535EB2303C0015C
:104350001124992319F09093BD0502C01093BD0557
:10436000DC80D11004C08D81882309F450C0809175
:10437000B7059091B8050E94BC129C019091B405BC
:10438000992309F467C12531310508F440C09F3FE6
:1043900019F09F5F9093B405DD2061F00E94972E85
:1043A0001D1414F491E001C09FEF899F802D11240A
:1043B0008093BE05DD80DD2061F00E94972E1D14E4
:1043C00014F491E001C09FEF899F802D1124809308
:1043D000BF053091BE053323D1F02091BF052223C4
:1043E000B1F045EB3403C0011124992319F09093E7
:1043F000BE0502C01093BE0535EB2303C001112496
:10440000992319F09093BF0502C01093BF0545E0B2
:1044100050E0BE016F5F7F4F8BEB95E00E94DA3872
:10442000892BA9F48091BC0581110FC08091BD0535
:1044300081110BC08091BE05811107C081E0909170
:10444000BF05911103C080E001C081E080FD0E94A2
:10445000352F85E0FE013196ABEBB5E001900D9272
:104460008A95E1F70E94072690913504891721F07B
:10447000809335040E9472258091F205843009F002
:10448000E3CD8093E9008091E80082FFDDCD80914B
:10449000E80085FF24C00E94631281111EC020E243
:1044A000C22ED12C5E0141E2A40EB11C09C0809144
:1044B000F100F50181935F01F1E0CF1AD10869F0B5
:1044C0008091E80085FDF3CF8091E8008B778093A1
:1044D000E8000E946312882399F391E001C090E004
:1044E0008091E8008B778093E800992309F4ACCDA4
:1044F00089A18130E1F150F1823021F0843009F45A
:1045000080C0A2CD8BA19AA19093360480933704EA
:104510008DA19CA190933804809339048FA19EA112
:1045200090933A0480933B0442E150E063E270E0F0
:10453000CE018F5B9F4F0E943C3584E089831093AE
:10454000F1058EEF8A831092F0050CC019828CE081
:10455000E5E8F1E0DE01129601900D928A95E1F70F
:104560008EEF8D87CE0101960E94FE316DCD8CE3DA
:10457000C82E84E0D82E92E4A92E94E0B92E0E9491
:104580005D26F601819391936F01AE16BF06B9F7D0
:10459000198380913C048A8380913D048B838091B0
:1045A0003E048C8380913F048D83809140048E83F0
:1045B000809141048F838EEF88871093F005CE01A0
:1045C00001960E94FE3142E150E063E270E0CE01CC
:1045D00001960E943C35FE01319682E183301CF049
:1045E0009189928B01C0128A815031978F3FB1F728
:1045F00042E150E063E270E0CE0101960E94603536
:1046000023CD8091F105882309F41ECD80E090E050
:104610000E9420308AA10E945E3016CDC9BCD9BC50
:1046200009B400FEFDCF8091D8008F7D8093D80023
:104630008091E00082608093E0008091E00081FD45
:10464000FCCF10928B020E94AC300BCD232B09F0D3
:1046500049CE86CE2139314008F09BCED8CEE4EF4A
:10466000F5E0248130E1231B08F420E024838091CD
:10467000F30581608093F3050895E4EFF5E024816C
:1046800030E1230F08F42FEF24838091F30581603C
:104690008093F3050895A4E0B0E0E1E5F3E20C9423
:1046A000AD348033910588F5122F042FF62EBC010E
:1046B000660F771F660F771F625D774F44E050E00B
:1046C000CE0101960E943335898183704A81282F5B
:1046D00030E050E9859FC00111248D599B4FFC01AA
:1046E000E40FF11DB497F0824B81FC01E40FF11D42
:1046F000B49700834C81840F911DFC01B497108303
:10470000F901EF59FB4F81E080832496E5E00C949A
:10471000C934FF920F931F93CF93DF93182F062F67
:10472000F42EC0E0D0E02F2D402F612FCE010E944B
:104730004B232196C033D105B1F7CDB7DEB7E5E005
:104740000C94C9340F931F93CF93DF93082F000F5E
:10475000EB0114E210934D04EEE4F4E0DE018D91E0
:10476000819384E0EE35F807D1F723E030E041E1B2
:1047700050E06DE474E0802F0E946734105F609613
:10478000143B41F7DF91CF911F910F9108958091D4
:104790006104882329F063E674E084E70E94A22381
:1047A0001092610480916204882329F063EF74E021
:1047B00087E70E94A223109262040895EDE4F4E0DA
:1047C0006083418323E030E042E050E0BF01880F86
:1047D0000E9467340895A0E0B0E0E1EFF3E20C94AA
:1047E000AB34262F30E0A90149555A4F7A01FA011E
:1047F0009081911107C0F7011082CDB7DEB7E7E0D5
:104800000C94C734D82EF2E16F9FE001112400E030
:1048100010E0F801EC0FFD1FED57FA4F4081602FBB
:104820008D2D0E94DE230F5F1F4F0231110589F786
:10483000E2CFCF93DF93C82F4BE06DEF0E94DE23D2
:1048400040E06AE08C2F0E94DE238FE39CE9019711
:10485000F1F700C0000040E060E08C2F0E94DE23F2
:1048600040E061E08C2F0E94DE2340E066E08C2F68
:104870000E94DE2340E06DEF8C2F0E94DE23D0E00B
:1048800040E06D2F8C2F0E94DE23DF5FD231C1F715
:1048900040E06D2F8C2F0E94DE23DF5FD432C1F702
:1048A00040E06D2F8C2F0E94DE23DF5FD43BC1F7E9
:1048B0004BE06DEF8C2F0E94DE2341E06AE08C2FED
:1048C0000E94DE2340E06DEF8C2F0E94DE23DF91FB
:1048D000CF910895A4E0B0E0E0E7F4E20C94A434B2
:1048E0000E949B3384E70E94192487E70E941924C1
:1048F0000EE218E072E1772EE8E0CE2ED12CEE2405
:10490000E394F12C6624639444E050E0B801CE01B6
:1049100001960E9433352A8130E0C9018497AB802B
:10492000B12C44E2A41AB108EC81F0E0B497AC01D8
:1049300097FF02C0495F5F4F63E0559547956A95C1
:10494000E1F72981237030E0729EB001739E700DF3
:1049500011246D577A4F4B01840E911CB6010E94B1
:104960009F37D70102C0AA0FBB1F8A95E2F7CD017E
:10497000D4019C91892B8C93C501B7FC079653E019
:10498000959587955A95E1F7729EA001739E500DFB
:1049900011244D575A4F4A01880E911CC501B6018A
:1049A0000E949F37A70102C0440F551F8A95E2F766
:1049B000CA01D4019C91892B8C93CF01F7FD0796F6
:1049C00043E0959587954A95E1F7729EA001739E05
:1049D000500D11244D575A4F5A01A80EB11CCF014A
:1049E000B6010E949F37F70102C0EE0FFF1F8A95A4
:1049F000E2F7CF01D5019C91892B8C93F901E95500
:104A0000FA4F60820C5F1F4FB8E00E3E1B0709F0A3
:104A10007BCF60E084E70E94EB2361E087E70E94A0
:104A2000EB232496EEE00C94C034E4EFF5E04381F0
:104A300020E1421B08F440E08181628190E00E9405
:104A4000AB310895E4EFF5E0438120E1420F08F433
:104A50004FEF8181628190E00E94AB310895E4EFD5
:104A6000F5E0628120E1621B08F460E0818143810E
:104A700090E00E94AB310895E4EFF5E0628120E11F
:104A8000620F08F46FEF8181438190E00E94AB31A7
:104A90000895E4EFF5E0818190E043816281089719
:104AA0000E94AB310895E4EFF5E0818190E043810D
:104AB000628108960E94AB3108958091F405869535
:104AC0008695815009F48EE10E94BB310895809152
:104AD000F405869586958F5F8F3108F081E00E94FE
:104AE000BB3108952FB7F8946091810270918202D2
:104AF00080918302909184022FBF08952FB7F8947C
:104B00008091810290918202A0918302B0918402EF
:104B10002FBF08951F920F920FB60F9211248F93FB
:104B20009F93AF93BF938091B205811113C0809181
:104B3000810290918202A0918302B09184024196F9
:104B4000A11DB11D8093810290938202A0938302E4
:104B5000B0938402BF91AF919F918F910F900FBE40
:104B60000F901F90189520910A012223C9F02091DF
:104B7000850227FF15C0262F2695269526952E31CE
:104B8000C8F4FC01E20FF11D677081E090E001C004
:104B9000880F6A95EAF78095928189238283089528
:104BA000FC0106962281621301C012823196E81739
:104BB000F907C1F708952091B0053091B105281784
:104BC000390771F09093B1058093B005E091AE057F
:104BD000F091AF05309721F00084F185E02D099523
:104BE00008952091AC053091AD052817390771F073
:104BF0009093AD058093AC05E091AE05F091AF05C3
:104C0000309721F00680F781E02D09950895E09115
:104C1000AE05F091AF05309729F00190F081E02DBD
:104C20000995089580E00895CF93DF93EC01EA851C
:104C3000FB85309719F06C857D8509958B81809572
:104C40009091A90589238093A9058C810E947D1BE1
:104C50000E94841B86E0FE0111928A95E9F7DF919C
:104C6000CF910895CF93DF93EC018D8181FD18C022
:104C700082608D839091A9058B81892B8093A905F2
:104C800090918B028C81892B80938B020E94841BD4
:104C9000E885F985309721F06C857D85CE010995F1
:104CA0001092AB051092AA058D8180FD03C0CE0144
:104CB0000E941426DF91CF910895CF93DF930E9435
:104CC000233566E070E00E949F37D82F0E9423357D
:104CD0006EE070E00E949F37C82F6D2F782F80E024
:104CE0000E944A190497C59718F48D2F9C2F02C073
:104CF0000E945D26DF91CF910895882311F0FA017B
:104D000001C0FB01099508951F93CF93DF93FC0128
:104D1000E35BFD4F20816223B9F0EC010E94233553
:104D2000182F0E9423358F77782F20E8720F08F410
:104D30007FEF612F8091F7050E94962D462F282F37
:104D4000672FCE010E945413DF91CF911F910895D8
:104D5000A0E0B0E0EEEAF6E20C94AB34EC01FC012A
:104D6000E35BFD4F9081692349F1D090F6050091F6
:104D7000F7051091F505E12EF12C0E941D2D282F2D
:104D8000C7018C549F4F68E671E00E949F378E19CF
:104D90009F0997FD0396959587959595879523701F
:104DA000612F289F600D11247D2D802F0E94962D4C
:104DB000462F282F672FCE010E945413CDB7DEB7A0
:104DC000E7E00C94C7340E94BB3108958091F4054C
:104DD000837011F410923C018091F4058C7F816006
:104DE0008093F40508950E946A2480E090E00E9478
:104DF0005A35883E9E4F21F00E94FF1A0E94EA1801
:104E000046E050E06CE170E084EF95E00E943C35B4
:104E10001092F3058091F4058C7F11F40E94EA183A
:104E20000895CF930E9472256093420470934304C7
:104E3000809344049093450420914C04211108C0B0
:104E4000C091F4052C2F237019F0C695C69501C0AA
:104E5000C0E020913C012130A1F038F0223009F46B
:104E600083C0233009F48DC0B7C01092390160931C
:104E7000EC057093ED058093EE059093EF0581E0CE
:104E80007DC08C2F0E945713CC2309F4A5C08091BC
:104E9000480483FDA1C0409146045091470460E05E
:104EA00070E0BB27A72F962F852F0097A105B1058E
:104EB00021F4DB01CA01E0E001C0E8E0AC01BD0182
:104EC000F4E07695679557954795FA95D1F7411592
:104ED00051056105710519F0EC5FDB01CA01AC01F8
:104EE000BD0132E076956795579547953A95D1F78C
:104EF000411551056105710519F0EE5FDB01CA012D
:104F0000B695A79597958795892B8A2B8B2B09F0BA
:104F1000EF5F8E2F90E0FC013197E730F105D8F478
:104F2000E459FF4F0C94B33781E090E002C082E077
:104F300090E00E94312950C083E090E0FACF84E0F5
:104F400090E0F7CF85E090E0F4CF86E090E0F1CFFD
:104F500087E090E0EECF8091F90581113DC040E0FF
:104F600060E00E94511338C0C09336018091F4056F
:104F70008370809335010E94C72383E080933C01B6
:104F80002BC08091F305882351F046E050E06CE19E
:104F900070E084EF95E00E9460351092F305409137
:104FA000EC055091ED056091EE057091EF052FB77E
:104FB000F8948091810290918202A0918302B09135
:104FC00084022FBF841B950BA60BB70B4A97A10534
:104FD000B10510F010923C01CF910895FC0182813F
:104FE000813039F4958192FD12C090FF10C082E0AB
:104FF0000895823039F4858182FD06C080FD06C0A7
:1050000083E0089586E0089585E0089584E008959A
:105010008FE39CE90197F1F700C0000008958FE34A
:105020009CE90197F1F700C0000008950E94EE2767
:10503000833021F481E090E00E94203008950E94A6
:10504000EE27833021F482E090E00E942030089522
:10505000A7E1B0E0EEE2F8E20C94AF344B8B5C8B4E
:105060006D8B7E8B8F8B61111092A90586E09E015E
:10507000235F3F4FD901E82F1D92EA95E9F795E0AC
:10508000FE017396D90101900D929A95E1F79C89E2
:105090004E895F897B897D879E876F87598B488B77
:1050A000F901DE01179601900D928A95E1F7CE0184
:1050B00007960E94851C81113EC086E0FE0137964E
:1050C000DE01119601900D928A95E1F7FF81E88546
:1050D0006A857B856115710531F0EF3F31F481E020
:1050E000FF3F19F403C081E001C080E080FD23C0D0
:1050F0002091A50330E0C90101968770992740915E
:10510000D60350E08417950779F1F983EA837D830C
:105110006C8396E0929FD001939FB00D1124AA5505
:10512000BC4FFE01319601900D929A95E1F7809364
:10513000A5030E94121C16E08091D6039091A5034E
:10514000891709F1189FC00111248A559C4F0E94AC
:10515000851C8823C1F08091D60390E0019687706A
:1051600099278093D603E8CF10928B020E94AC302F
:105170001092A5031092D603EFE9F3E086E0DF0179
:105180001D928A95E9F76796E3E00C94CB34292FBA
:1051900033272115310519F0C90148E001C040E06D
:1051A0009C0164E0369527956A95E1F72115310554
:1051B00011F04C5FC9019C013695279536952795CE
:1051C0002115310511F04E5FC9019C0136952795D7
:1051D000232B09F04F5F842F089510928B020E94B9
:1051E000AC302FEF84E39CE0215080409040E1F709
:1051F00000C000009AE088E10FB6F894A89580936B
:1052000060000FBE90936000FFCFCF93DF93EC015F
:105210000E94C72856985E9825982D9826982E9813
:1052200027982F9890E0FC013197E730F105A8F41A
:10523000ED58FF4F0C94B337259A2D9A0EC0259A3E
:105240002D9A269A2E9A09C0259A2D9A04C0259A3D
:105250002D9A269A2E9A279A2F9ACE01DF91CF91D6
:105260000895A0E0B0E0E7E3F9E20C94A13420E96E
:10527000289F7001299FF00C1124C0E0D0E000E0CD
:1052800010E067018FEFC81AD80A570182E0A80E14
:10529000B11CF701EC0FFD1FE251F74F6491F601CD
:1052A000EC0FFD1FE251F74F7491F501EC0FFD1F5C
:1052B000E251F74F8491611107C0711105C081114E
:1052C00003C020E040E03CC00E94962D962E372E71
:1052D000882E6091F70570E080E090E00E9498369B
:1052E00020E030E04FE753E40E94F7352B013C010A
:1052F000682D70E080E090E00E949A36A301920150
:105300000E9426370E946936862E692D70E080E063
:1053100090E00E949A36A30192010E9426370E94D3
:105320006936962E632D70E080E090E00E949A36F8
:10533000A30192010E9426370E946936282D492D2B
:10534000C8010E9454130F5F1F4F2396C039D10527
:1053500009F09FCFCDB7DEB7E1E10C94BD3480E218
:1053600090E090931801809317018091B30581110B
:105370000EC00E949B3381E08093B3052FEF83ED35
:1053800090E3215080409040E1F700C0000060E5CC
:1053900070E080E40E94A13390931801809317017C
:1053A000892B09F04EC060E570E080E00E94143463
:1053B0009093180180931701892B09F042C060E592
:1053C00070E080E00E9414349093180180931701DC
:1053D000892BB9F560E570E08FE30E941434909357
:1053E000180180931701892B61F50E94883460E5CC
:1053F00070E080E40E94A13390931801809317011C
:10540000892BF9F460E570E08CE00E9414349093ED
:10541000180180931701892BA1F460E570E080E00A
:105420000E9414349093180180931701892B49F43A
:1054300060E570E08FE30E9414349093180180932C
:1054400017010E948834809117010895CF93DF934C
:1054500056985E9825982D9826982E9827982F98DC
:10546000C8E8D0E08FEF90E099838883AAE8B0E0A5
:1054700011969C938E93ECE8F0E091838083259ABB
:105480002D9A2FEF80E792E0215080409040E1F785
:1054900000C00000269A2E9A2FEF80E792E021505C
:1054A00080409040E1F700C00000279A2F9A2FEF2C
:1054B00080E792E0215080409040E1F700C000007A
:1054C00025982D982FEF80E792E021508040904062
:1054D000E1F700C0000026982E982FEF80E792E0B9
:1054E000215080409040E1F700C0000027982F989D
:1054F0008091480487702FEF829FC00111249595F9
:1055000087959595879599279983888311969C937C
:105510008E939183808356985E9825982D9826982F
:105520002E9827982F98DF91CF910895CF93E82F49
:10553000873080F58091170190911801892B09F02F
:1055400047C0CE2F60E570E080E40E94A1339093C5
:10555000180180931701892BD1F460E570E082E196
:105560000E9414349093180180931701892B79F4C9
:1055700081E090E001C0880FCA95EAF760E570E02D
:1055800080950E94143490931801809317010E9413
:1055900088341EC090E0FC013797E730F105C0F475
:1055A000E658FF4F0C94B337209A289811C0219ADF
:1055B00029980EC0229A2A980BC0239A2B9808C0CB
:1055C000529A5A9805C0539A5B9802C03E9A4698E0
:1055D000CF910895209828982198299822982A9860
:1055E00023982B9852985A9853985B983E984698CF
:1055F0000895CF93873040F580911701909118015D
:10560000892B59F560E570E081E40E94A133909305
:10561000180180931701892B11F0C0E011C080E5BB
:1056200090E00E94433497FF05C090931801809347
:105630001701F3CFC82FC0951092180110921701CF
:105640000E9488348C2F0AC09FB18FB1807F8695CD
:1056500086959370892B809501C080E0CF91089545
:105660008098889A8198899A84988C9A85988D9A3E
:1056700086988E9A87988F9A08950F931F93522F2A
:1056800010E0F801EE0FFF1FE251FE4FE081F0E065
:10569000B097EE0FFF1F9F015203D001539FB00D33
:1056A0001124000F111FF801E351FE4F008110E09B
:1056B00000571109000F111F40039001419F300D49
:1056C00011242A0F3B1F37FF02C021583F4F220FE2
:1056D000232F221F330B620F1F910F9108950F93F9
:1056E0001F93522F10E0F801EE0FFF1FE251FE4F03
:1056F000E081F0E0B0979F015203D001539FB00DBD
:105700001124000F111FF801E351FE4F008110E03A
:105710000057110940039001419F300D11242A0FB9
:105720003B1F37FF02C021583F4F220F232F221F5C
:10573000330B620F1F910F910895EF920F931F93F8
:1057400093E0099F80011124159507956E2D600F38
:105750001F910F91EF900895A22F50E0FA01EE0FE4
:10576000FF1FE251FE4F9081905297FD9195440F9B
:10577000551FFA01E351FE4F3081232F30E02A1BE1
:105780003109290F311D97FD3A95620F0895E42FD5
:10579000F0E0EE0FFF1FE251FE4F6081621B0895A3
:1057A000E42FF0E0EE0FFF1FE351FE4F6081621B1C
:1057B0000895622F0895E42FF0E0EE0FFF1FE351EC
:1057C000FE4F408134EE439F412D1124E82FF0E03D
:1057D00050E0445E5F4FDA01A21BB1099D01B7FFA3
:1057E00003C031952195310993E0220F331F9A951B
:1057F000E1F7AF01421B530B9A0157FF02C020E0B3
:1058000030E0582F259F212D1124822F0895E42F59
:10581000F0E0EE0FFF1FE351FE4F408134EE439F57
:10582000412D1124E72FF0E050E0445E5F4FDA0194
:10583000A21BB1099D01B7FF03C031952195310924
:1058400093E0220F331F9A95E1F7AF01421B530BF0
:105850009A0157FF02C020E030E0279F212D11243C
:10586000722F0895FC019B01009721F477FF2BC054
:1058700080E80895AC0197FF04C044275527481BD2
:10588000590BB901640F751F37FD0CC0241B350B74
:10589000C901A5E0880F991FAA95E1F70E949F37DB
:1058A00080E20CC0CB0165E0880F991F6A95E1F793
:1058B000BA01621B730B0E949F3780E6861BF7FFBD
:1058C00003C08195089580E00895EF920F93CF93E0
:1058D000DF93D72FC82FC9010E19BA010E94322CAD
:1058E000602F681B7D2F8C2FDF91CF910F91EF9050
:1058F00008950F93CF93DF93D72FC82FC901BA0113
:105900000E94322C682F600F7D2F8C2FDF91CF915A
:105910000F910895EF920F931F93CF93DF93D62F9C
:10592000C72F182FC9010E19010FBA010E94322C7E
:10593000081B202F219F212D1124822F6D2F7C2FBA
:10594000DF91CF911F910F91EF900895EF920F93F8
:105950001F93CF93DF93D62F172FC82FC9010E198E
:10596000070FBA010E94322C702F781B719F712D86
:1059700011246D2F8C2FDF91CF911F910F91EF90FC
:105980000895FF920F931F93CF93DF93F62ED72F97
:10599000182FC901C12FC01BBA010E94322C982FA9
:1059A000990F890FC81B2C2F219F212D1124822F85
:1059B0006F2D7D2FCDB7DEB7E5E00C94C934FF9293
:1059C0000F931F93CF93DF93F62E172FD82FC90174
:1059D000C72FC01BBA010E94322C982F990F890F34
:1059E0007C2F781B719F712D11246F2D8D2FCDB7BA
:1059F000DEB7E5E00C94C934482F982F46FD90950A
:105A0000E92FEF739F7046FD9F5FE295EF70EE0FF9
:105A1000F0E0EF56FE4F2181299F802D212D11248A
:105A200082958F702295207F822B3081982F930F43
:105A3000892F47FD819580580895409137015091F5
:105A4000380125E038E0429FC001439F900D529FEE
:105A5000900D1124875E994C909338018093370103
:105A6000890F0895BC018230910508F40895613EC4
:105A70008EE1780748F49B0195E0369527959A9535
:105A8000E1F748E0420F01C04FEF91E0242F30E0F2
:105A9000290F311D35952795229FF001239FF00D89
:105AA000F00D11246E177F0718F44FEF420F04C05A
:105AB0002F3F39F091E0920F491740F78FEF890F90
:105AC00008958FEF08950F93CF93DF93D72FC82FAB
:105AD00047FD4195E8E3F0E0CF01841B910947FDC4
