:100000000C94F6050C9413060C9413060C9413062A
:100010000C9413060C9413060C9413060C941306FC
:100020000C9413060C9413060C94D3170C94631CB5
:100030000C94A52C0C9413060C9413060C94130624
:100040000C9413060C9413060C9413060C941306CC
:100050000C9413060C94AA180C9413060C94130613
:100060000C9413060C9413060C9413060C941306AC
:100070000C9413060C9413060C9413060C9413069C
:100080000C9413060C9413060C9413060C9413068C
:100090000C9413060C9413060C9413060C9413067C
:1000A0000C9413060C9413060C9413060501098096
:1000B000A101850319012AB700150126B700950192
:1000C00075108100C0050C0901A101850419012AE0
:1000D000A002150126A002950175108100C005013E
:1000E0000906A1018505050719E029E71500250185
:1000F0009508750181020507190029EF15002501F2
:1001000095F075018102050819012905950575010C
:100110009102950175039101C005010902A1010930
:1001200001A100050919012905150025019505758D
:10013000018102950175038101050109300931151D
:1001400081257F95027508810609381581257F95DF
:100150000175088106050C0A38021581257F950175
:1001600075088106C0C005010906A101050719E04F
:1001700029E715002501950875018102950175088B
:1001800081010507190029FF150026FF0095067556
:100190000881000508190129059505750191029549
:1001A0000175039101C00000000000000000000084
:1001B000000000000000000000000000000000003F
:1001C000000000000000000000000000000000002F
:1001D000000000000000000000000000000000001F
:1001E000000000000000000000000000000000000F
:1001F00000000000000000000000000000000000FF
:1002000000000000000000000000000000000000EE
:1002100000000000000000000000000000000000DE
:1002200000000000000000000000000000000000CE
:100230000000000000009AFFFF9AFFFF9AFFFF9A5C
:10024000FFFF9AFFFF9AFFFF9AFFFF9AFFFF9AFFB7
:10025000FF9AFFFF9AFFFF9AFFFF9AFFFF9AFFFFA7
:100260009AFFFF9AFFFFCDFFFF9AFFFF9AFFFF9AC9
:10027000FFFF9AFFFF9AFFFF9AFFFF9AFFFF9AFF87
:10028000FF9AFFFF9AFFFF9AFFFF9AFFFF9AFFFF77
:100290009AFFFF9AFFFF00CCFF9AFFFF9AFFFF9A99
:1002A000FFFF00CCFF00CCFF00CCFF9AFFFF9AFFBE
:1002B000FF9AFFFF9AFFFF9AFFFF9AFFFF9AFFFF47
:1002C0009AFFFF9AFFFF69FFFF69FFFF69FFFF6960
:1002D000FFFF69FFFF69FFFF69FFFF69FFFF69FF1C
:1002E000FF69FFFF69FFFF69FFFF69FFFF69FFFF0C
:1002F00069FFFF69FFFF69FFFF69FFFF69FFFF6992
:10030000FFFF00000000000000000000000069FF87
:10031000FF69FFFF69FFFF69FFFF69FFFF00000042
:10032000000000F9E4FF000000000000000000F9F8
:10033000E4FFF9E4FFF9E4FFF9E4FF000000000046
:1003400000F9E4FF000000000000000000000000D1
:10035000000000000000000000000000000000009D
:10036000000000000000000000000000000000008D
:100370000000000000000055CB9E55CB9E55CB9E43
:1003800055CB9E00000086FFD586FFD586FFD5861B
:10039000FFD586FFD586FFD50000000000000000D5
:1003A000000000000000000000000000000000004D
:1003B000000000000000000000000000000000003D
:1003C0000000F3DEEA000000000000000000000072
:1003D000000000000000000000000000000000001D
:1003E0000000000000000000000000000EFFFF0EF3
:1003F000FFFF0EFFFF69FFFF23FFFF23FFFF23FF28
:10040000FF0EFFFF69FFFF23FFFF23FFFF23FFFF17
:10041000000000F9E4FF23FFFF23FFFF23FFFF6934
:10042000FFFF00000023FFFF23FFFF00000000008C
:1004300000000000000000000000000000000000BC
:1004400000000023FFFF0000000000000000002368
:10045000FFFF23FFFF23FFFF00000000000000005C
:100460000000000000000000000023FFFF23FFFF4A
:10047000000000000000000000000000000000007C
:100480000000000000000000000000FA9FFF0000D4
:1004900000000000000000FA9FFFFA9FFFFA9FFF94
:1004A000000000000000000000000000000000004C
:1004B000000000000000000000000000000000003C
:1004C000000000000000000000000000000000002C
:1004D0000000000EFFFF00000000000000000069A7
:1004E000FFFF0EFFFF69FFFF00000000000000009B
:1004F00000000000000000000000000000000000FC
:1005000000000000000000000000000000000000EB
:10051000000000000000000086FFD586FFD586FFA2
:10052000D500000000000086FFD586FFD586FFD5E8
:1005300000000000000086FFD555CB9E86FFD50049
:1005400000000000000AE1FF0000000000000000C1
:10055000000000000000000000000000000000009B
:10056000000000000000000000000000000000008B
:10057000000000000000000000000000000000007B
:10058000000000000000000000000000000000006B
:100590000000000000000001010101010101010152
:1005A0000202020202020202020303030303030324
:1005B00003040404040404040505050505060606F1
:1005C0000606070707070708080808090909090AAE
:1005D0000A0A0B0B0B0C0C0C0D0D0D0E0E0E0F0F53
:1005E0000F101011111112121313141415151616E1
:1005F0001717181819191A1A1B1B1C1D1D1E1E1F50
:100600002020212222232424252626272829292A9E
:100610002B2C2D2D2E2F30313232333435363738C6
:10062000393A3B3C3D3E3F404142434445464748C2
:10063000494A4C4D4E4F50515354555658595A5B98
:100640005D5E5F616264656668696B6C6D6F707238
:10065000737577787A7B7D7E8082838587888A8CA4
:100660008E8F91939596989A9C9EA0A2A3A5A7A9D8
:10067000ABADAFB1B3B5B7BABCBEC0C2C4C6C9CBCF
:10068000CDCFD1D4D6D8DBDDDFE2E4E7E9EBEEF085
:10069000F3F5F8FAFDFF29002B002A00E1003500F0
:1006A00000001E00140004001D0034003B001F0069
:1006B0001A0015001B00010002512000090016005D
:1006C0000600E2002C002100130017001900E000D2
:1006D0003A0022000A0007000500000065000451EE
:1006E0000100000006510000E3000153010000007A
:1006F00000070000E70023000D000B000E000000C3
:100700004C0024000F001100100005513C00250092
:100710001800080036000100280026001C000C000C
:100720003700010003512700330012003800010098
:100730003D002D0031003400E50001000000010003
:10074000010001000100010000001E00140004006F
:100750001D0001002C5D1F001A0016001B00010087
:100760000100200008000700060001000100210030
:100770001500090019000100C45C220017000A00DE
:100780000500000001000100100000000100000051
:100790000100010001000000010000000100230031
:1007A0001C000B00110000000100240018000D00C7
:1007B00010000100C65C25000C000E003600010090
:1007C0000100260012000F00370001000100270081
:1007D0001300330038000100C75C01000100010074
:1007E0000100010000000100010001000100010002
:1007F00000003A000100040701000100CB5C3B004F
:10080000010016070100010001003C00090707076D
:100810000607010001003D00010009070100010079
:10082000CA5C3E0001000100010000003E00010022
:1008300000000000010000003F0001000100000076
:1008400001000000C35C3F002502210222020000DB
:100850002C5D40002F0226022F0001002D5D41007B
:100860003002270230000100C65C42002D02560013
:100870001F020100C75C43002E022E00200201006F
:100880002E5D440045000100010001000000010050
:100890000100010001000100000001000100010051
:1008A0000100010001000100010001000100010040
:1008B0000100010001003A000100010001000100F7
:1008C0000100010001000100010001000100010020
:1008D0000100000001000100010000000100000013
:1008E0000100010001000000010000000100010002
:1008F00001000100010000000100010001001E00D4
:10090000220026000100010001001F002300270033
:10091000010001000100200024000100010001008D
:10092000010021002500010001000100010001007B
:1009300001000100000001000100010001000100B0
:1009400000000100010001000100010001000100A0
:100950000100F2000100010001000100F000F100BF
:100960000100F400010001000100F3000100F500A6
:100970000100010001000100010000000100010070
:100980000100000001000000010001000100000062
:100990000100000001000100A900AA00A800000059
:1009A00001000100240021001E000100010054008C
:1009B000250022001F0062000C00550026002300C5
:1009C000200063000100560057000000580001009D
:1009D0000100010001000100010001000000010010
:1009E0000100010001000100000001000000000002
:1009F000000001000100000000004A0000000100AA
:100A0000010000004B004E0000000100010000004A
:100A100000004D0000000100010001000000000086
:100A200000000000010001000100000001000000C2
:100A300001000100010000000100000001000100B0
:100A40000000000000000000010000000000500055
:100A500000000100010000005200510000000100F0
:100A60000100000000004F00000001000100010033
:100A70000000000000000100010001000100010071
:100A8000010001000000010001000100010001005F
:100A9000000001000100010001000100010001004F
:100AA000010001000100010001000100010001003E
:100AB000010001000100010001000100010001002E
:100AC000010001000100010001000000010001001F
:100AD0000100000001000000010001000100000011
:100AE0000100000001000100010001000100000000
:100AF00001000100240721071E0701000100010079
:100B0000250722071F0727070100010026072307E3
:100B100020070100010001000100010001000100A7
:100B200001000100010001000100010000000902B4
:100B30005400030100A0FA090400000103010100B0
:100B40000921110100012240000705810308000A64
:100B50000904010001030102000921110100012221
:100B60004D000705820308000A0904020001030082
:100B70000000092111010001226D000705830320F7
:100B8000000A1201000200000008973276490100B5
:100B90000102000120034500720067006F0044005D
:100BA0006F007800200045005A00200047006C00CC
:100BB0006F007700000030035A005300410020000E
:100BC00054006500630068006E006F006C006F00E9
:100BD0006700790020004C00610062007300200073
:100BE00049006E00630000000403090411241FBEC5
:100BF000CFEFDAE0DEBFCDBF25E0ACE0B3E001C06F
:100C00001D92AB39B207E1F713E0A0E0B1E0E4E2F6
:100C1000F4E602C005900D92AC30B107D9F70E94FE
:100C2000FB290C94B8310C940000E8EDF0E08081D1
:100C30008E7F80831092E2001092DA001092E10021
:100C4000A0EEB0E08C9181608C9380818F7780835F
:100C500019BCA7EDB0E08C918E7F8C9380818F7E44
:100C6000808310925C0508952091E4003091E500A6
:100C700095E6A9012091EC00822F817020FF06C02B
:100C80008091E80080FF06C080E008952091E80090
:100C900022FD1AC080918105882389F0853089F072
:100CA0008091EB0085FD0FC02091E4003091E500BC
:100CB00042175307F9F29150E1F684E0089582E07B
:100CC000089583E0089581E00895EF92FF920F93D5
:100CD0001F93CF937C018B010E943406C82F811192
:100CE00017C08091E80085FD0BC08091E8008E77E9
:100CF0008093E8000E943406882399F3C82F08C027
:100D0000F70181917F018093F1000150110949F7AA
:100D10008C2FCF911F910F91FF90EF9008958091AC
:100D2000830587FF13C08091E80082FF06C0809191
:100D3000E8008B778093E80004C0809181058111E1
:100D4000F2CF0895809181058823D9F38091E8003E
:100D500080FFF8CF8091E8008E77ECCF982F9093AA
:100D6000E900242F762F50E0891731F07091EC00C4
:100D70002091ED005091F00021FD07C09F5F97305A
:100D800071F78093E90081E008953091EB003E7F98
:100D90003093EB003091ED003D7F3093ED003091CA
:100DA000EB0031603093EB007093EC002093ED008A
:100DB0005093F0002091EE0027FDE0CF80E00895F1
:100DC000CF92DF92EF92FF920F931F93CF93DF9317
:100DD000C8EDD0E088818F7E8883E7EDF0E08081E8
:100DE0008160808384E082BF81E080935C0588819C
:100DF0008E7F888302EE10E0F80110821092DA00F4
:100E000081EEC82ED12CF601108288818F778883DD
:100E100088818068888388818F7D888319BC10923F
:100E20008105109282051092800510927F0590EE48
:100E3000E92EF12CF70180818B7F8083888181608E
:100E4000888342E060E080E00E94AE06F601808187
:100E50008E7F8083F80180818160808380818860BB
:100E60008083F70180818E7F808388818061888381
:100E7000DF91CF911F910F91FF90EF90DF90CF9076
:100E80000895FC018091890590918A05861797073E
:100E9000A0F06115710529F49091E8009E77909378
:100EA000E80090E06115710551F4911108C080913E
:100EB000E80082FF34C080E00895BC01F2CF809149
:100EC00081058823C1F18530C1F18091E80083FD5F
:100ED00030C08091E80082FDEACF8091E80080FF79
:100EE000E1CF8091F3002091F200382F6115710558
:100EF00019F02830310558F091E02830310509F01B
:100F000090E02091E8002E772093E800CBCF8191EC
:100F10008093F100615071092F5F3F4FE7CF8091BF
:100F20008105882341F0853041F08091E80083FFFE
:100F3000BECF81E0089582E0089583E00895809116
:100F40005E05089590914805803F59F480914905C8
:100F500087FF0DC01092490591110BC010924405F6
:100F600008C0813F81F48091490518169CF39923AC
:100F700081F080914A0590914B05892B09F064C05E
:100F8000109241050895823F49F497FFF0CF1092E7
:100F90004805809149058111ECCFE0CF833F19F4DA
:100FA0001916ACF3E4CF20914A05893F29F41216B3
:100FB000F4F610924A05DBCF8A3F19F427FFD7CF0A
:100FC000F8CF20914B058B3F29F427FFD0CF10920B
:100FD0004B05CDCF8C3F19F41216CCF3C8CF843F0C
:100FE00031F4809147058E7F80934705C0CF853FC0
:100FF00021F4809147058D7FF7CF863F21F48091C2
:1010000047058B7FF1CF873F21F480914705877F8C
:10101000EBCF883F21F4809147058F7EE5CF8D3F50
:1010200031F4809114058E7F80931405A0CF8E3FFC
:1010300021F4809114058D7FF7CF8F3F09F097CF72
:10104000809114058B7FF0CF08958091140580FD69
:101050001AC081FD14C082FD14C08091410588230F
:1010600091F08C3370F427E0829FC00111246CE36F
:1010700070E00E94C02D862F672B29F0089583E031
:10108000089587E0089581E008958091140580FD1A
:1010900016C081FD16C082FD18C0809144058823CA
:1010A00091F08C3390F423E2829FC00111246CE311
:1010B00070E00E94C02D862F672B49F0089588E0CC
:1010C000089581E1089585E0089583E2089581E01F
:1010D0000895803F31F40E94450881958093490529
:1010E0000895813F19F40E944508F8CF823F31F4FA
:1010F0000E9445088195809348050895833F19F41F
:101100000E944508F8CF893F29F40E942508809362
:101110004A0508958A3F21F40E9425088195F7CF5A
:101120008B3F31F40E942508819580934B050895EB
:101130008C3F19F40E942508F8CF843F31F4809148
:1011400047058160809347050895853F21F480918C
:1011500047058260F7CF863F21F480914705846080
:10116000F1CF873F21F4809147058860EBCF883F1E
:1011700021F4809147058061E5CF8D3F31F4809166
:10118000140581608093140508958E3F21F48091A9
:1011900014058260F7CF8F3FB9F780911405846002
:1011A000F1CF9C014FB7F8948091100590911105F3
:1011B000A0911205B09113054FBF821B930B0895A8
:1011C000209118012223C9F020912D0527FF15C079
:1011D000E62FE695E695E695EE31D8F4E80FF92F7F
:1011E000F11D677021E030E001C0220F6A95EAF737
:1011F00020958281282322830895FC013296089647
:101200002191621303C0DF0111971C92E817F907BF
:10121000B9F70895209118012223C1F020912D05DE
:1012200027FF14C0E62FE695E695E695EE31F8F433
:10123000E80FF92FF11D677021E030E001C0220FA7
:101240006A95EAF78281822B82830895FC013296A7
:101250002FEF30E04191641751F02F3F19F4411105
:1012600001C0232F3F5F3630A9F72F3F09F40895BF
:10127000820F911D27FD9A95FC0162830895CF92FC
:10128000DF92EF92FF926C01EE24FF2420E0C11464
:10129000D104E104F10419F0C701B60120E1C72E21
:1012A000D82EE92EFF24C114D104E104F10419F071
:1012B000285FC701B6016B017C0154E0F694E79406
:1012C000D794C7945A95D1F7C114D104E104F1041D
:1012D00019F02C5FC701B6016B017C0142E0F69466
:1012E000E794D794C7944A95D1F7C114D104E10487
:1012F000F10419F02E5FC701B60196958795779591
:101300006795672B682B692B09F02F5F822FFF9061
:10131000EF90DF90CF90089580910B05811110928E
:101320000B05089580910A0590910905892B9091EC
:101330000805892B80930C0390910B059923A1F04C
:10134000892B80930C0380911801882341F18091AF
:101350002D0587FF24C08EE1EEE0F3E090E08150A0
:1013600000F591110E948C09E0912F05F091300554
:101370003097E1F080911801882359F080912D0574
:1013800087FF07C080910C0380930D0385E0809355
:101390000C030280F381E02D8CE093E0099486E059
:1013A000DBCF21912223D9F29F5FD9CF0895E92F76
:1013B000EE0FE90FEE0F8E0F982F9770869586959A
:1013C000869525E0829FF0011124E053FB4F50E009
:1013D00040E080E0219130E0092E02C0369527954B
:1013E0000A94E2F721703327042E01C0220F0A94D9
:1013F000EAF7822B4F5F5F4F4530510559F708954B
:10140000E92FEE0FE90FEE0F8E0F982F977041E046
:1014100001C0440F9A95EAF786958695869595E0E2
:10142000899FF0011124E053FB4F30E020E070E091
:101430005191DF011197CB01022E02C0969587953D
:101440000A94E2F7817081958527842385278C9300
:101450002F5F3F4F2530310559F708958091CF0414
:1014600090919E04981301C008958F5F8770FACF02
:10147000882341F0809590910A05892380930A057D
:101480000C9492090895882339F090910A05982BBD
:1014900090930A050C949209089520919504309137
:1014A00096042817390771F0909396048093950459
:1014B000E0912F05F0913005309721F00084F185FF
:1014C000E02D0994089520919304309194042817F5
:1014D000390771F09093940480939304E0912F0561
:1014E000F0913005309721F00680F781E02D0994C6
:1014F0000895E0912F05F0913005309721F001908B
:10150000F081E02D099480E00895FA01811101C075
:10151000FB0109948033910538F5880F991F880FD6
:10152000991FFC01E85DFE4F5281338180818370F9
:10153000E181A82FB0E070E9879FC0011124835B8F
:101540009C4FE80FF92FF11DB4976083FC01E50F64
:10155000F11DB4974083830F911DFC01B497208344
:10156000A55BBC4F81E08C930895FF920F931F936E
:10157000CF93DF93182F062FF42ED0E0C0E02F2D4D
:10158000402F612FCE010E948A0A2196C033D105D7
:10159000B1F7DF91CF911F910F91FF900895809146
:1015A0009205837011F410921C01809192058C7F3A
:1015B00081608093920508950C94B50A0C948A0A70
:1015C0000F931F9310E0F801EE0FFF1FE458FD4F3B
:1015D0009081905797FD9195000F111FF801E358E6
:1015E000FD4F00810052110B2003F001219FF00DEF
:1015F000112408E310E0091B110997FD139540031E
:101600009001419F300D1124E20FF31F9F01220F23
:10161000331F2E0F3F1F37FF02C021583F4F220FAD
:10162000232F221F330B620F1F910F9108950F93E9
:101630001F93522F10E0F801EE0FFF1FE358FD4FEC
:10164000A081A052BB0B9D015203F001539FF00DEE
:101650001124000F111FD801A458BD4F0C91005741
:10166000110B40039001419F300D11242E0F3F1F9D
:1016700037FF02C0215C3F4F96E0359527959A953C
:10168000E1F7620F1F910F9108950F931F93522F4F
:1016900010E0F801EE0FFF1FE358FD4FA081A052AC
:1016A000BB0B9D015203F001539FF00D1124000F5D
:1016B000111FD801A458BD4F0C910057110B4003C6
:1016C0009001419F300D11242E0F3F1F37FF02C0A4
:1016D00021583F4F220F232F221F330B620F1F91E0
:1016E0000F910895EF920F93972F23E0029FB0017F
:1016F0001124759567956E0D792F0F91EF900895D0
:10170000322F50E0FA01EE0FFF1FE358FD4F90819A
:10171000905297FD9195440F551FFA01E458FD4FE3
:101720002081231B330B290F311D97FD3A95620F42
:101730000895E42FF0E0EE0FFF1FE358FD4F6081A6
:10174000621B0895E42FF0E0EE0FFF1FE458FD4FF9
:101750006081621B0895622F0895E42FF0E0EE0F80
:10176000FF1FE458FD4F408134EE439F412D11246B
:10177000E82FF0E050E0445E5F4FDA01A21BB109B0
:101780009D01B7FF03C031952195310993E0220FE8
:10179000331F9A95E1F7AF01421B530B9A0157FD96
:1017A00020E0582F259F212D1124822F0895E42F0A
:1017B000F0E0EE0FFF1FE458FD4F408134EE439FF1
:1017C000412D1124E72FF0E050E0445E5F4FDA0135
:1017D000A21BB1099D01B7FF03C0319521953109C5
:1017E00093E0220F331F9A95E1F7AF01421B530B91
:1017F0009A0157FD20E0279F212D1124722F089573
:10180000FC019B01009729F480E077FF2BC080E862
:101810000895AC0197FF04C044275527481B590B76
:10182000B901640F751F37FD10C0241B350BC901AA
:10183000A5E0880F991FAA95E1F70E94C02D80E2CC
:10184000861BF7FF0FC081950895CB0165E0880FD7
:10185000991F6A95E1F7BA01621B730B0E94C02DB4
:1018600080E6EECF0895EF920F93CF93DF93D72FBB
:10187000C82FC9010E19BA010E94000C602F681B05
:101880007D2F8C2FDF91CF910F91EF9008950F93C3
:10189000CF93DF93D72FC82FC901BA010E94000C44
:1018A000682F600F7D2F8C2FDF91CF910F910895BE
:1018B000EF920F931F93CF93DF93D62FC72F182F3D
:1018C000C9010E19010FBA010E94000C081B202F3C
:1018D000219F212D1124822F6D2F7C2FDF91CF91FD
:1018E0001F910F91EF900895EF920F931F93CF9355
:1018F000DF93D62F172FC82FC9010E19070FBA0172
:101900000E94000C702F781B719F712D11246D2F78
:101910008C2FDF91CF911F910F91EF9008950F932E
:101920001F93CF93DF93D62FC72F182FC901212FD5
:10193000201B022FBA010E94000C982F990F990FBB
:10194000891B800F282F219F212D1124822F6D2F7D
:101950007C2FDF91CF911F910F9108950F931F93CB
:10196000CF93DF93D62F172FC82FC901272F201B06
:10197000022FBA010E94000C982F990F990F782F0F
:10198000791B700F719F712D11246D2F8C2FDF919A
:10199000CF911F910F910895E82F86FDE0952E2F8E
:1019A0002F7086FD2F5FE695E695E695E670F0E0F0
:1019B000E05EFE4F9181929F902D212D11249295F2
:1019C0009F702295207F922B2081920F87FD919509
:1019D00080E8890F0895AC018230910508F40895DC
:1019E0009FEF413E8EE1580740F49A0195E036950D
:1019F00027959A95E1F798E0920F61E0E62FE90FBD
:101A0000FF27FF1F9F0135952795822F229FF00109
:101A1000239FF00DF00D11244E175F0738F49FEF50
:101A2000920F961758F78FEF860F08952F3FE9F31F
:101A300061E0620FF6CF0F93CF93DF93D72FC82FBC
:101A400047FD419588E390E0841B910947FD9395FC
:101A5000889FB001899F700D700D1124229FC001D5
:101A6000239F900D900D1124860F971F0E94EB0C61
:101A7000982F990F890F682F600F7D2F8C2FDF9182
:101A8000CF910F91089530E020E0869F212D969F01
:101A9000200D311D1124C9010895AF92BF92CF923C
:101AA000DF92FF920F931F93CF93DF93362F472F31
:101AB000E82FF0E0EA56FA4F71110FC0E4918E2F33
:101AC0002E2F6E2F722FDF91CF911F910F91FF90CC
:101AD000DF90CF90BF90AF900895C72FD0E02491B2
:101AE000F22E022F10E056E0659FC0011124EFEFA7
:101AF000F0E0BF010E94AC2D832F90E0880F991F6A
:101B000035E5369FD001379FB00D11248A1B9B0B02
:101B1000982F990F980F6F01CC1ADD0AC09ED00143
:101B2000C19EB00DD09EB00D11248B2F499FA001F6
:101B30001124452F55276F01C41AD50AC09EA00154
:101B4000C19E500DD09E500D11245F01A91AB108FD
:101B5000AC9E6001AD9ED00CBC9ED00C1124CD2C4F
:101B6000DD24EC19FD09E09FE001E19FD00DF09F1D
:101B7000D00D1124ED2F62307105A1F050F46115E4
:101B8000710509F49ECF6130710581F0EB2F852F2F
:101B900098CF6430710569F080F06630710509F402
:101BA00090CFF4CFE22F2B2F8D2F8BCFE22F252F2D
:101BB00088CFEB2F822F2D2F84CF2B2F8F2DE52F2A
:101BC00080CF9F92AF92BF92CF92DF92EF92FF921F
:101BD0000F931F93CF93DF936C0180911901C82F4E
:101BE000CC0FCC0FC80F15E01C0FB12E113310F025
:101BF00030E3B32E609196056695669580918E05CB
:101C000090918F050E94430DF82E80E48F0D0E9465
:101C1000CC0C90E8A92EA80E8F2D0E94CC0C20E8A9
:101C2000922E980ED0E0CB1580F081E0103308F0B2
:101C300080E0DF91CF911F910F91FF90EF90DF90A7
:101C4000CF90BF90AF909F900895FE01E452FD4F5A
:101C5000808190911A018923A1F060919305709180
:101C6000940580919505EF2C0C2F292D4A2DF60116
:101C700009950E944D0D462F282F672FCE010E94F7
:101C8000DE0A2196D0CF7F928F929F92AF92BF9221
:101C9000CF92DF92EF92FF920F931F93CF93DF9338
:101CA0005C0180911901C82FCC0FCC0FC80F15E033
:101CB0001C0FF12E113310F030E3F32E60919605D6
:101CC000669580918E0590918F050E94430D782E28
:101CD000D0E0CF1590F081E0103308F080E0DF9184
:101CE000CF911F910F91FF90EF90DF90CF90BF9019
:101CF000AF909F908F907F900895FE01E452FD4F2A
:101D0000808190911A018923C9F1CE01880F991F12
:101D1000885D9D4FFC01EC5AFF4F2081422F4057B8
:101D2000550B6A018B5A9F4FFC018081282F20524E
:101D3000330B4901449F9001459F300D300D112414
:101D4000889CC001899C900D900D1124820F931FD7
:101D50000E94EB0C082F609193057091940580917F
:101D60009505E72C9401A601F50109950E944D0DFA
:101D7000462F282F672FCE010E94DE0A2196A9CF79
:101D8000CF92DF92EF92FF920F931F93CF93DF9347
:101D90007C0180911901C82FCC0FCC0FC80F15E022
:101DA0001C0FD12E113310F030E3D32E6091960525
:101DB000669580918E0590918F050E94430DC82EE7
:101DC000D0E0CD1568F081E0103308F080E0DF91BD
:101DD000CF911F910F91FF90EF90DF90CF900895DA
:101DE000FE01E452FD4F808190911A01892311F187
:101DF000CE01880F991F885D9D4FFC01EB5AFF4F64
:101E000020812052330B8C5A9F4FFC014081405758
:101E1000550B6091930570919405809195050C2D5B
:101E2000F70109950E944D0D462F282F672FCE01EF
:101E30000E94DE0A2196C5CFDF92EF92FF920F93A8
:101E40001F93CF93DF937C0180911901C82FCC0F92
:101E5000CC0FC80F15E01C0F012F113308F000E361
:101E6000609196056695669580918E0590918F0597
:101E70000E94430DD82ED0E0C01760F081E01033EF
:101E800008F080E0DF91CF911F910F91FF90EF90CC
:101E9000DF900895FE01E452FD4F808190911A0178
:101EA000892391F060919305709194058091950537
:101EB0002D2D4C2FF70109950E944D0D462F282FEF
:101EC000672FCE010E94DE0A2196D6CF90912D0574
:101ED00092FF06C0282F28712830F9F4877F84608C
:101EE00093FF06C0282F28712831F1F4877E846182
:101EF00020912E0520FF06C0382F38713830D9F4D4
:101F0000877F816021FF06C0282F28712831D1F4F6
:101F1000877E816194FD877E0895282F2471243067
:101F2000F9F68B7F8860DCCF282F2471243101F7EC
:101F30008B7E8861DDCF382F3171313019F78E7F7C
:101F40008860E0CF282F2171213121F78E7E8861B2
:101F5000E1CFCF93DF93972F70E026E0929F600D43
:101F6000711D1124FB0134E5839FE00DF11D112447
:101F7000EE0FFF1FEA56F94FC591D491CE01C2383A
:101F8000D105B9F1E8F5C133D10509F499C050F58F
:101F9000C932D10509F48DC0CA32D10509F497C000
:101FA000C11521E5D20708F0BFC0C11530E5D30740
:101FB00008F016C1C83ED10508F09DC0C03ED1054D
:101FC00068F5C83AD10508F089C0C53AD10508F0CE
:101FD000FFC0C130D10511F1209709F443C0249707
:101FE000E8F440C0C533D10509F45CC0C933D1055C
:101FF000B9F620912D05237089F080EE90E00EC097
:10200000C33ED10591F168F4C03ED105F9F0C23E5E
:10201000D10531F620912D0522FD20C0DF91CF9111
:102020000895C63ED10561F1C73ED10581F1C43E98
:10203000D10509F0B5CF20912E0521FFEFCF80917A
:102040002D0584FD0FC087EE90E0E8CF20912D058F
:1020500020FD12C130912E0530FFE0CF83EE90E0DD
:1020600024FFDCCF90E080E0D9CF20912D0522FD28
:1020700006C130912E0530FDC0CF24FFCFCFF2CF67
:1020800020912D0523FFCACF24FDECCFDCCF20917A
:102090002D0523FDF7C030912E0531FFEECF84EEE4
:1020A00090E0BCCF20912D0525FFB8CF89E290E0CC
:1020B000B5CF20912D0525FFB1CF85E390E0AECFC0
:1020C00020912D0526FFAACF8AE290E0A7CF20918C
:1020D0002D0526FFA3CF81E390E0A0CFCF3BD10514
:1020E00008F6C85AD0E0CC0FDD1FC551DE4F8881FD
:1020F0009981946493CFC11520E2D20760F4C11591
:1021000031E0D30708F08ACFCE019065C03FD105FA
:1021100008F084CFA7CFC11580E4D80708F4A2CF78
:10212000CE019F70906A7ACFC11595E5D90710F559
:10213000C11524E5D20708F088C0C11533E5D307DF
:1021400008F06FC0C11582E5D80708F465C09E018C
:102150002370332781E090E002C0880F991F2A95F1
:10216000E2F7C695C69520E2C29FE00111248C2BB0
:102170009D2B50C0C11599E5D907A0F4C11528E5DC
:10218000D20708F067C0C11536E5D30708F06ACF5B
:102190008C2F0E94660F90E0982F882788279F71C8
:1021A00090623CCFC1158AE5D80708F458C0CE012B
:1021B00090568115904208F055CF8D2F8F710E9457
:1021C000660F90E0982F882788279F718C2BE8CF87
:1021D000C55AD0E0C851DE4F888190E090641ECF90
:1021E0009E01E4E036952795EA95E1F723708C2F60
:1021F00086958695837030E2839FC0011124922BCF
:10220000C37021E030E002C0220F331FCA95E2F70D
:10221000822B932B9C6802CF9C2F8827816F906A1A
:10222000FDCE9E012370332781E090E002C0880F2D
:10223000991F2A95E2F7C695C69530E2C39FE00143
:1022400011248C2B9D2B9A68E9CE9C2F8827846FB4
:10225000906AE4CE9C2F8827806F906ADFCE8C2F07
:102260008F700E94660F34E0D695C7953A95E1F7D6
:10227000CF709C2F9069D2CE89E390E0CFCE82EED2
:1022800090E0CCCE86EE90E0C9CEBF92CF92DF92A6
:10229000EF92FF920F931F93CF93DF938C01C09027
:1022A0002905D0902A05E0902B05F0902C0580910F
:1022B0000C0590910D05A0910E05B0910F05C82A4F
:1022C000D92AEA2AFB2ACFE1D0E0BC2ED701C601E9
:1022D0000C2E04C0B695A795979587950A94D2F7CA
:1022E00080FD0EC0219788F7B12C8B2DDF91CF9107
:1022F0001F910F91FF90EF90DF90CF90BF900895C6
:10230000B8018C2F0E94A90F019761F3EECFCF93F4
:10231000DF93EC010E944511BE01DF91CF910C9437
:10232000A90F0E948711292F2F7092959F709250AC
:102330009E3078F4E92FF0E0E654FE4C0C94D42D56
:10234000803F19F020F4883E20F481E00895843F16
:10235000E1F380E00895883EC0F3813FD1F7F5CFE7
:10236000822F86958695869508959F92AF92BF920B
:10237000CF92DF92EF92FF920F931F93CF93DF9351
:1023800020E9289FE001299FD00D1124CA55DE4F76
:1023900010E000E0FE0164913196749131968491D1
:1023A000962F972B982BC1F420E040E060E0C80105
:1023B0000E94DE0A0F5F1F4F23960033110551F76D
:1023C000DF91CF911F910F91FF90EF90DF90CF9011
:1023D000BF90AF909F9008950E944D0D962EB72EFE
:1023E000A82E6091950570E090E080E00E94BD30DD
:1023F00020E030E04FE753E40E941C306B017C0189
:102400006A2D70E090E080E00E94BF30A701960145
:102410000E944B310E948E30A62E692D70E090E014
:1024200080E00E94BF30A70196010E944B310E94BC
:102430008E30962E6B2D70E090E080E00E94BF30D1
:10244000A70196010E944B310E948E302A2D492D02
:10245000AECF27982F98089526982E9808952598FE
:102460002D98089556985E980895279A2F9A089562
:10247000269A2E9A0895259A2D9A0895CF92DF9242
:10248000EF92FF92CF936B017C010E943F09C82F0E
:102490000E9432120E942F120E942C120E942912B6
:1024A000C150C73040F4EC2FF0E0E853FE4C0C94E0
:1024B000D42D0E943B12C701B601CF91FF90EF903F
:1024C000DF90CF9008950E943B120E943812F3CF04
:1024D0000E943B120E943512EECF0E943B120E94D6
:1024E0003812F8CF209828982198299822982A986D
:1024F00023982B9852985A9853985B983E984698F0
:1025000008958098889A8198899A84988C9A859859
:102510008D9A86988E9A87988F9A0895CF93DF9395
:1025200000D00F92CDB7DEB790918105943019F5A8
:1025300089837B836A8383E08093E9008FEF9091A6
:10254000E800815095FD06C095ED9A95F1F70000E1
:102550008111F5CF8091E80085FF0DC050E040E08B
:1025600063E070E0CE0101960E9465068091E8006C
:102570008E778093E8000F900F900F90DF91CF91AE
:102580000895BC0184E00C948E12BC0183E00C948D
:102590008E129C0182E08093E9009FEF8091E80019
:1025A000915085FD06C085ED8A95F1F700009111E7
:1025B000F5CF8091E80085FF0CC050E040E065E079
:1025C00070E0C9010E9465068091E8008E778093D3
:1025D000E8000895CF93DF93EC01809118018823E0
:1025E000B1F180912D0587FF32C060E283E08093D6
:1025F000E9008FEF9091E800815095FD06C095EDC0
:102600009A95F1F700008111F5CF8091E80085FFE0
:102610001BC08091180170E050E040E0811104C0BF
:1026200050E040E068E070E0CE010E9465068091D5
:10263000E8008E778093E80080E2FE01AFE5B5E028
:1026400001900D928A95E1F7DF91CF91089568E0AE
:1026500081E0CDCFEF92FF920F931F93CF93DF9343
:102660000E9432120E942F120E942C120E942912E4
:1026700088E8E82EF12C8FEF90E0F70191838083BA
:102680000AE810E0F80191838083CCE8D0E09983D8
:1026900088830E943B12FFEF20E782E0F150204048
:1026A0008040E1F700C000000E9438129FEFE0E791
:1026B000F2E09150E040F040E1F700C000000E94DD
:1026C00035122FEF80E792E0215080409040E1F7F3
:1026D00000C000000E942F12EFEFF0E722E0E1506F
:1026E000F0402040E1F700C000000E942C128FEF64
:1026F00090E7E2E081509040E040E1F700C0000048
:102700000E942912809117058770FFEF8F9FC001EB
:10271000112495958795959587959927F70191832C
:102720008083F80191838083998388830E94321289
:102730000E942F120E942C12DF91CF911F910F91B6
:10274000FF90EF900C942912CF9384E090E00E94C8
:10275000712FC82F81E290E00E94712F982F8C2F4B
:10276000CF9108956FEE7EEF90E080E00E94B32F4E
:1027700060E082E090E00E94952F60E083E090E0CE
:102780000E94952F10920C0510920D0510920E05C7
:1027900010920F0560E084E090E00E94952F60E0C9
:1027A00081E290E00E94952F60E085E090E00E9439
:1027B000952F60E086E090E00E94952F6FEF87E014
:1027C00090E00E94952F40E050E0BA0188E090E050
:1027D0000E94A72F60E08DE090E00E94952F40E0DE
:1027E00050E0BA0188E190E00E94A72F60E087E105
:1027F00090E00E94952F40E050E0BA018CE190E01B
:102800000E94A72F60E080E290E00E94952F40E0B8
:1028100050E0BA0188E190E00E94A72F10921705BE
:10282000109218051092190510921A0584E0806123
:10283000809317054091170550911805609119056F
:1028400070911A058FE090E00E94A72F40E050E0C1
:10285000BA0183E190E00C94A72F0F931F93CF93BD
:10286000DF93082F000FEB0114E210933703E8E326
:10287000F3E0DE018D91819383E0E834F807D1F72E
:1028800024E630E041E150E067E373E0802F0E94EE
:10289000812D105F6096143B41F7DF91CF911F911E
:1028A0000F91089580914B03882329F06DE473E024
:1028B00084E70E942D1410924B0380914C038823CF
:1028C00029F06DED73E087E70E942D1410924C0300
:1028D0000895E7E3F3E06083418324E630E042E0DB
:1028E00050E0BF01880F0C94812DEF92FF920F935F
:1028F0001F93CF93DF93E82E062F10E00F561B4F48
:10290000F8018081882381F0F2E16F9FE0011124BA
:10291000C359DB4FF12C49916F2D8E2D0E94691404
:10292000F39482E1F812F7CFF8011082DF91CF9192
:102930001F910F91FF90EF900895CF93DF93C82FD1
:102940004BE06DEF0E94691440E06AE08C2F0E941A
:1029500069148FE39CE90197F1F700C0000040E0A3
:1029600060E08C2F0E94691440E061E08C2F0E948F
:10297000691440E066E08C2F0E94691440E06DEF1E
:102980008C2F0E946914D0E040E06D2F8C2F0E94A4
:102990006914DF5FD231C1F740E06D2F8C2F0E94A8
:1029A0006914DF5FD432C1F740E06D2F8C2F0E9495
:1029B0006914DF5FD43BC1F74BE06DEF8C2F0E94B1
:1029C000691441E06AE08C2F0E94691440E06DEFC9
:1029D0008C2FDF91CF910C9469146F927F928F921C
:1029E0009F92AF92BF92CF92DF92EF92FF920F939E
:1029F0001F93CF93DF930E94CC2C84E70E949D14F9
:102A000087E70E949D1468E2E62E61E0F62ED12C45
:102A1000C12C72E1772EE8E08E2E912CAA24A3948B
:102A2000B12C66246394F701418150E0CA01849778
:102A300002810452110BC381C452DD0BF601EE0F6B
:102A4000FF1FEE0FFF1FE85DFE4F2081237030E077
:102A5000FC0197FD379643E0F595E7954A95E1F738
:102A6000729EA001739E500D112443595B4FE40FD9
:102A7000F52FF11DB4010E94C02DA50101C0440F26
:102A80008A95EAF78081842B8083F80117FD3796B9
:102A900093E0F595E7959A95E1F7729EC001739ED4
:102AA000900D112483599B4FE80FF92FF11DC80198
:102AB000B4010E94C02DA50101C0440F8A95EAF718
:102AC0008081842B8083FE01D7FD379683E0F595C6
:102AD000E7958A95E1F7729EC001739E900D1124CF
:102AE00083599B4FE80FF92FF11DCE01B4010E94CD
:102AF000C02DA50101C0440F8A95EAF78081842B7F
:102B000080832F563B4FF9016082FFEFCF1ADF0A17
:102B100084E0E80EF11CE0E3CE16D10409F083CF87
:102B200060E084E70E94751461E087E7DF91CF9150
:102B30001F910F91FF90EF90DF90CF90BF90AF90DB
:102B40009F908F907F906F900C9475141F93CF93EC
:102B5000DF93EC01FC01E452FD4F80816823A1F07A
:102B60000E94262E182F0E94262E612F782F8091EA
:102B700095050E944D0D462F282F672FCE01DF911E
:102B8000CF911F910C94DE0ADF91CF911F91089590
:102B9000DF92EF92FF920F931F93CF93DF938C01FD
:102BA000FC01E452FD4F8081682381F1D0909405AF
:102BB000D0919505C0919305EC2EF12C0E94262E04
:102BC000282FC7018C549F4F68E671E00E94C02DEA
:102BD0008E199F0997FD03969595879595958795ED
:102BE00023706C2F289F600D11247D2D8D2F0E9446
:102BF0004D0D462F282F672FC801DF91CF911F91D0
:102C00000F91FF90EF90DF900C94DE0ADF91CF914F
:102C10001F910F91FF90EF90DF90089545E050E0F5
:102C20006CE170E082E995E00C94852F909192051B
:102C3000937041F0809393056093940540939505BC
:102C40000C940E160895E2E9F5E0438120E1421B61
:102C500008F440E08181628190E00C941616E2E96C
:102C6000F5E0438120E1420F08F44FEF818162815A
:102C700090E00C941616E2E9F5E0628120E1621B17
:102C800008F460E08181438190E00C941616E2E93B
:102C9000F5E0628120E1620F08F46FEF81814381EA
:102CA00090E00C941616E2E9F5E08181438162819F
:102CB0008850990B0C941616E2E9F5E0818190E0BA
:102CC0004381628108960C94161690919205937038
:102CD00089F0811107C094609093920510921C01B5
:102CE0000C940E16893110F09066F6CF880F880F7D
:102CF000982BF2CF08958091920586958695815004
:102D000009F488E10C946516809192058695869564
:102D10008F5F893108F081E00C9465160C9465167C
:102D2000E2E9F5E0248130E1230F08F42FEF24835A
:102D30000C940E16E2E9F5E0248130E1231B08F43F
:102D400020E024830C940E16E2E9F5E085E380830D
:102D500080911D0190911E01A0911F01818392839A
:102D6000A3838CE384830C940E160E94ED1490E0F0
:102D700080E00E947F2F8F3E9E4F21F00E94B21371
:102D80000E94A41645E050E06CE170E082E995E015
:102D90000E94612F809192058C7F11F40C94A416EF
:102DA000089580E290E090930D0180930C01809152
:102DB0002C0381110EC00E94CC2C81E080932C0347
:102DC0002FEF83ED90E3215080409040E1F700C069
:102DD000000064E670E080E40E94D22C90930D0124
:102DE00080930C01892B09F04EC064E670E080E00E
:102DF0000E942E2D90930D0180930C01892B09F0D8
:102E000042C064E670E080E00E942E2D90930D0198
:102E100080930C01892BB9F564E670E08FE30E9482
:102E20002E2D90930D0180930C01892B61F50E944A
:102E3000A82D64E670E080E40E94D22C90930D01EE
:102E400080930C01892BF9F464E670E08CE00E9419
:102E50002E2D90930D0180930C01892BA1F464E633
:102E600070E080E00E942E2D90930D0180930C0164
:102E7000892B49F464E670E08FE30E942E2D909335
:102E80000D0180930C010E94A82D80910C010895E2
:102E9000CF93C82F873070F580910C0190910D0170
:102EA000892B89F564E670E080E40E94D22C90932F
:102EB0000D0180930C01892BD1F464E670E082E16E
:102EC0000E942E2D90930D0180930C01892B79F493
:102ED00081E090E001C0880FCA95EAF764E670E0EF
:102EE00080950E942E2D90930D0180930C01CF911F
:102EF0000C94A82D8A30B9F040F4883071F08930F4
:102F000079F0209A2898CF9108958C3091F070F044
:102F10008D30B9F73E9A4698F6CF219A2998F3CF8B
:102F2000229A2A98F0CF239A2B98EDCF529A5A984A
:102F3000EACF539A5B98E7CFCF93873050F58091D3
:102F40000C0190910D01C0E0892B71F464E670E0F2
:102F500081E40E94D22C90930D0180930C01892B67
:102F600031F0C0E00E94A82D8C2FCF91089584E607
:102F700090E00E945D2D97FF05C090930D01809316
:102F80000C01EFCFC82FC09510920D0110920C01CB
:102F9000E9CFCFB18FB1869586958C73C3708C2B9A
:102FA000C82FC095E1CF1F920F920FB60F92112438
:102FB0002F933F934F935F936F937F938F939F9341
:102FC000AF93BF93EF93FF938091E10082FF09C01D
:102FD0008091E20082FF05C08091E1008B7F8093A9
:102FE000E1008091DA0080FF24C08091D80080FF4A
:102FF00020C08091DA008E7F8093DA008091D90022
:1030000080FF9BC080E189BD82E189BD09B400FEDB
:10301000FDCF81E08093810580915C05811109C01D
:103020000E9415060E94E0068091E2008460809371
:10303000E2008091E10080FF17C08091E20080FFF4
:1030400013C08091E2008E7F8093E2008091E200C5
:1030500080618093E2008091D80080628093D800E4
:1030600019BC85E0809381058091E10084FF29C02F
:103070008091E20084FF25C080E189BD82E189BDA5
:1030800089B5982F917080FFFBCF8091D8008F7DFC
:103090008093D8008091E1008F7E8093E100809141
:1030A000E2008F7E8093E2008091E2008160809355
:1030B000E20080918205882309F445C084E0809372
:1030C00081058091E10083FF27C08091E20083FFAA
:1030D00023C08091E100877F8093E10082E08093AC
:1030E0008105109282058091E1008E7F8093E1003E
:1030F0008091E2008E7F8093E2008091E200806107
:103100008093E20042E060E080E00E94AE068091A1
:10311000F00088608093F000FF91EF91BF91AF9134
:103120009F918F917F916F915F914F913F912F91DF
:103130000F900FBE0F901F90189519BC109281052B
:1031400010925C0576CF8091E30087FD93E0909329
:103150008105B7CF78941F921FB61F9211248F93C9
:103160009F93AF93BF938091100590911105A0910B
:103170001205B09113050196A11DB11D8093100594
:1031800090931105A0931205B0931305BF91AF91D1
:103190009F918F911F901FBE1F9018952FB7F89485
:1031A0008091100590911105A0911205B091130521
:1031B0002FBF08950E94CE189C01909148058091E0
:1031C0004905982B21F030934605209345059091B1
:1031D0004A0580914B05982B21F0309343052093AD
:1031E0004205E0912F05F0913005309731F00480D1
:1031F000F581E02D87E495E0099408951092090582
:10320000109208050E94920985E0E7E4F5E0DF01ED
:103210001D928A95E9F7109244051092410510928B
:1032200014050E94DA1890E080E00E94630A90E0A2
:1032300080E00C944D0A0E943E1260932905709321
:103240002A0580932B0590932C050C94FE180F9360
:103250001F9341E050E060E070E004C0440F551F50
:10326000661F771F8A95D2F7CB01BA0160957095DA
:10327000809590950091290510912A0520912B05A4
:1032800030912C0560237123822393231F910F918A
:103290000C941B199091070580958923809307054D
:1032A000282F277071F4282F082E000C330B92174B
:1032B000130639F08595859585950E9427191092FA
:1032C000070508950F931F9341E050E060E070E020
:1032D00004C0440F551F661F771F8A95D2F780914F
:1032E000290590912A05A0912B05B0912C058A0102
:1032F0009B01082B192B2A2B3B2BC901B8011F91CD
:103300000F910C941B1960930C0570930D0580931D
:103310000E0590930F050C94FE1810920A058091EB
:103320001801EEE0F3E0882359F080912D0587FF26
:1033300007C08EE1DF011D928A95E9F70C94FE1813
:1033400086E0F8CF1F93CF93DF93CDB7DEB7AA9770
:103350000FB6F894DEBF0FBECDBF83E895E0209195
:10336000F100DC012D93CD01B5E08B389B07B9F757
:1033700080918405833009F471C0B8F4813009F478
:1033800048C0823009F4B2C08091E80083FF83C254
:1033900080918305909184059A3008F07CC2E92FD2
:1033A000F0E0E153FE4C0C94D42D8A3009F48DC02A
:1033B0008B3009F470C0893039F7809183058132F0
:1033C00019F78091870590918805009711F0029771
:1033D000D9F68091E800877F8093E8008091E8002B
:1033E00082FF37C09091F3008091F200029729F498
:1033F0008091F1008B7F813021F48091F1008093E6
:103400005E058091E8008B778093E8000E948F062C
:10341000BBCF80918305813A09F0B6CF8091E80057
:10342000877F8093E8008091870590918805892B9C
:1034300061F460E28FE595E070E00E9441078091C1
:10344000E8008B778093E8009FCF60E090E080E019
:10345000F3CF809181058111C1CF96CF80918305F3
:10346000813A09F091CF8091870590918805892B49
:1034700009F08ACF8091E800877F8093E8008091EF
:10348000E80080FFFCCF809118018093F1008091CB
:10349000E8008E77B9CF80918305813209F074CF2F
:1034A0008091870590918805892B09F06DCF8091D7
:1034B000E800877F8093E8000E948F068091850551
:1034C000809318010E948D195FCF8091830581320E
:1034D00009F05ACF8091E800877F8093E8000E942E
:1034E0008F068091860580935D054ECF8091830580
:1034F000813A09F049CF8091E800877F8093E80006
:103500008091E80080FFFCCF80915D05BECF8038C0
:1035100099F0823809F0BFC1809187058F7087309C
:1035200008F0B9C18093E9008091EB0085FB882702
:1035300080F91092E90006C080917F059091800586
:10354000911182609091E800977F9093E8008093BA
:10355000F1001092F1008091E8008E7798C18823E5
:1035600009F486C1823009F096C1809185058111E8
:1035700089C1809187058F702FEF280F263008F0C2
:103580008AC18093E9002091EB0020FF7BC193303A
:1035900031F48091EB0080628093EB0073C19091D5
:1035A000EB0090619093EB0021E030E001C0220F2E
:1035B0008A95EAF72093EA001092EA008091EB00E6
:1035C0008860EACF811167C1109185051F778091CE
:1035D000E3008078812B8093E3008091E800877F6F
:1035E0008093E8000E948F068091E80080FFFCCF66
:1035F0008091E30080688093E30082E0111183E012
:103600008093810548C18058823008F044C12091E0
:103610008505309186052C3DE3E03E07A1F583E06A
:103620008A838AE289834FB7F894DE01139620E0FB
:103630003EE051E2E32FF0E050935700E49120FF89
:1036400003C0E295EF703F5FEF708E2F90E0EA309D
:10365000C0F0C7968D939D932F5F243159F74FBFCC
:103660008091E800877F8093E8006AE270E0CE01F5
:1036700001960E9441078091E8008B778093E800D3
:103680000AC1C096E7CF8091870590918805432FA6
:1036900055274330510509F44AC078F541305105AA
:1036A00009F47AC084E590E0EEE2FBE04230510597
:1036B00009F0F1C02091E800277F2093E8002091D5
:1036C000890530918A058217930708F49C0140E030
:1036D0002115310509F065C0411163C08091E800F2
:1036E00082FDC9CF80918105882329F2853019F2A6
:1036F0008091E80083FFF2CFBECF4132510509F43B
:103700003CC04232510509F0C6C08330910508F033
:10371000C2C0FC01EE0FFF1FE45EFD4F0190F0817F
:10372000E02D875E9D4FDC018C9190E01AC033271D
:1037300021303105D1F02115310561F022303105FC
:1037400009F0A9C0E4E9FBE0E4918E2F90E0E4E900
:10375000FBE007C0E8EEFBE0E4918E2F90E0E8EE9E
:10376000FBE0009709F497C0A5CFE6EBFBE0E491FE
:103770008E2F90E0E6EBFBE0F4CF8330910508F06C
:103780008AC0880F991FFC01EE5DFD4F0190F0810A
:10379000E02D89E090E08ECF82E190E0E2E8FBE06E
:1037A00089CF80918105882309F465CF853009F49C
:1037B00062CF8091E80083FD5ECF8091E80082FDBA
:1037C0008DCF8091E80080FF83CF9091F3008091AE
:1037D000F2002115310519F08830910550F041E0D3
:1037E000089709F040E08091E8008E778093E80028
:1037F0006FCF44914093F1003196215031090196E9
:10380000E8CF803809F047C08091E800877F809337
:10381000E800809182058093F1009DCE81113BC02C
:10382000109185051230B8F58091E800877F80936C
:10383000E800109382050E948F06112311F084E0A6
:1038400005C08091E30087FDFACF81E08093810578
:1038500042E061EC81E00E94AE0642E061EC82E071
:103860000E94AE0642E261EC83E00E94AE0613C005
:1038700080918505813079F481E0933009F080E012
:10388000809380051092E9008091E800877F809303
:10389000E8000E948F068091E80083FF0AC08091B3
:1038A000E800877F8093E8008091EB00806280933E
:1038B000EB00AA960FB6F894DEBF0FBECDBFDF9126
:1038C000CF911F9108951F920F920FB60F9211245E
:1038D0002F933F934F935F936F937F938F939F9318
:1038E000AF93BF93CF93DF93EF93FF93D091E90012
:1038F000DF708091EC00C82FC17080FDC0E810928D
:10390000E9008091F000877F8093F00078940E9416
:10391000A2191092E9008091F00088608093F00075
:10392000CD2BCF70C093E900FF91EF91DF91CF9144
:10393000BF91AF919F918F917F916F915F914F91C7
:103940003F912F910F900FBE0F901F9018958823D5
:10395000B1F19CEF980F913A38F4682F8CE093E026
:103960000E94E0080C94920990E2980F983088F435
:10397000877021E030E0A90102C0440F551F8A95ED
:10398000E2F7CA01809590910A05892380930A0580
:10399000E9CF9BE5980F933020F490E080E00C9401
:1039A000630A98E5980F973120F490E080E00C943A
:1039B0004D0A803F20F00E94A2070C94DA18089567
:1039C000CF93C82F882309F46EC08CEF8C0F813AF7
:1039D000B8F580911801882311F180912D0587FF9A
:1039E0001EC0EC2FE695E695E695F0E0E45FFC4F0F
:1039F000828190E04C2F477021E030E002C0220F1E
:103A0000331F4A95E2F782239323892B89F06C2F89
:103A10008CE093E00E94E0080E94920909C0EEE069
:103A2000F3E08191C81799F383E0E431F807C9F70F
:103A30006C2F8CE093E00E940A09CF910C949209BC
:103A400080E28C0F883068F4C77021E030E001C05C
:103A5000220FCA95EAF780910A05822B80930A0506
:103A6000ECCFEBE5EC0FE33040F4F0E0E851FE4F33
:103A7000808190E0CF910C94630AE8E5EC0FE73188
:103A800050F4F0E0EE0FFF1FE551FE4F8081918171
:103A9000CF910C944D0AC03F30F08C2F0E946908E2
:103AA000CF910C94DA18CF9108950F931F93CF9371
:103AB000DF93C62FD42F022FFC0182818823A1F02F
:103AC00060938D050E94CE1890938C0580938B0592
:103AD000C77081E001C0880FCA95EAF7DF91CF91E6
:103AE0001F910F910C94430A80918D05681338C083
:103AF00080918B0590918C050E94D108883C91059E
:103B000078F510E21D0FCD17B9F080E28C0F8830E8
:103B100040F4C77081E001C0880FCA95EAF70E949F
:103B2000380A183048F481E09D2F977001C0880F43
:103B30009A95EAF70E94430A802F0E94E01C802F8A
:103B40000E94A71C183098F4D77081E001C0880F3C
:103B5000DA95EAF7DF91CF911F910F910C94380A13
:103B6000C77081E001C0880FCA95EAF7F3CFDF91F3
:103B7000CF911F910F9108954F925F926F927F9214
:103B80008F929F92AF92BF92CF92DF92EF92FF926D
:103B90000F931F93CF93DF9300D000D00F92CDB738
:103BA000DEB77C01FC0183819481892B39F010817F
:103BB000D180812F8D218F3F09F0B8C50F900F90D4
:103BC0000F900F900F90DF91CF911F910F91FF9069
:103BD000EF90DF90CF90BF90AF909F908F907F90AD
:103BE0006F905F904F9008950E944511082F682FA5
:103BF00089819A810E94000AE12FF0E026E0D29E9E
:103C0000E00DF11D112434E5039FE00DF11D112499
:103C1000EE0FFF1FEA56F94F059114910A328DE518
:103C2000180709F44DC00B329DE5190709F4D0C0FF
:103C3000033CECE51E0709F0F3C0F70182818823FD
:103C4000E9F090911A01809117059F3F09F0E1C0BA
:103C500010921A018F7E8093170540E060E080E0AB
:103C60000E94DC0A409117055091180560911905D2
:103C700070911A058FE090E00E94A72F80910705B0
:103C8000877009F49BCFF7018281882309F496CFCE
:103C900082E00F900F900F900F900F90DF91CF91D7
:103CA0001F910F91FF90EF90DF90CF90BF90AF905A
:103CB0009F908F907F906F905F904F900C944A19D7
:103CC000F70182818823C9F18091170591E0980F4F
:103CD0009770887F953008F4892B80931705809121
:103CE00017058770FFEF8F9FC00111249595879569
:103CF0009595879599279093890080938800909354
:103D00008B0080938A0090938D0080938C0040916B
:103D10001705509118056091190570911A058FE0EB
:103D200090E00E94A72F6091290570912A0580914B
:103D30002B0590912C050E943E12F7019281992348
:103D400009F405C510928D050230FCE51F0708F443
:103D5000ACC106312CE5120738F098012B5F3C45C9
:103D60002730310508F0A1C10E94A41390932E05BD
:103D700080932D050F303CE5130709F477C108F057
:103D8000F1C008309CE5190709F45AC108F0C6C013
:103D90000430FCE51F0709F447C108F0ACC002304D
:103DA0003CE5130709F438C103301C4509F438C158
:103DB00060912D0510912E0584E090E00E94952FD2
:103DC000612F81E290E00E94952F0E948D1956CFBD
:103DD000F7018281882309F4B0CF90911705892FCC
:103DE000877F93FF88608093170583FF05C040E0BD
:103DF00060E080E00E94DC0A4091170550911805B0
:103E00006091190570911A058FE090E00E94A72F2C
:103E100094CF9FEF90931A0180618093170522CF72
:103E20000D32FDE51F0789F00E322DE51207E1F096
:103E30000C323DE5130729F5F7018281882309F447
:103E40001DCF81E00E948E1619CFF7018281882351
:103E500009F414CF81E00E948E164FEF64E985ECDF
:103E600090E00E9416160ACFF7018281882309F498
:103E700005CF81E00E948E164FEF69E787E890E05A
:103E8000F0CF043FFCE51F0739F1A0F4093D3CE504
:103E90001307F1F00A3D8CE5180751F1083D9CE548
:103EA000190709F04ACF26E241EE61EEC7010E94F0
:103EB000551DE4CE063FECE51E07B1F088F0073F44
:103EC0002CE5120709F039CF27E245EE66EEEECF7A
:103ED00027E245EE65EEEACF26E241EE60EEE6CF60
:103EE00027E245EE64EEE2CF26E241EE62EEDECF5F
:103EF00028E241E0EFCF80912D05806106309CE5FE
:103F0000190709F447C080912D05886007301C45CA
:103F100008F440C080912D0580623CC00B30FCE568
:103F20001F0709F49BC068F409303CE5130709F446
:103F30008BC00A301C4509F03BCF80912D058C6069
:103F400029C080912D058B7F0D309CE5190711F15B
:103F500080912D058D7F0E301C45E0F080912D0560
:103F6000877F18C00B3FFCE51F0709F461C060F5AF
:103F700002313CE5130709F481C078F400319CE577
:103F8000190709F477C080912D058F7B01311C45FD
:103F900009F00ECF80932D050BCF0431FCE51F07F0
:103FA00009F47AC008F470C005311C4509F000CF4F
:103FB00080912D0582FB992790F921E0922790FBB3
:103FC00082F990FB83F9E6CF0E3F8CE5180709F4E0
:103FD00049C070F40C3FECE51E0771F180912E058D
:103FE0008E7F0D3F1C4509F0E3CE80932E05E0CE79
:103FF00001152DE5120709F44BC060F101301D4594
:1040000009F0D6CE80912E05982F909591708E7FD5
:10401000892B90FB81F9E9CF80912D058160BACF82
:1040200080912D058260B6CF80912D058460B2CF3E
:1040300080912E058160D9CF80912E058260D5CFE9
:1040400080912D058064A6CF0E948D1980912D0549
:104050008068A0CF80912E058360C7CF80912D0509
:104060008E7F98CF80912E058D7FBFCF80912D05BB
:104070008F7E90CF80912D058F7D8CCF0E948D19E2
:1040800080912D058F7786CF80912D05837F82CFFC
:1040900080912E058C7FA9CF0E948D1990912D05BE
:1040A000892F97FB87F9805875CF80910A050631D3
:1040B000ECE51E0709F059C38A7A91E009F490E013
:1040C0009093970469E2811165E38CE093E00E948C
:1040D0000A090E949209D2CD8091920591E0892728
:1040E0008093920510921C010E940E16C7CD4BE7DB
:1040F00056E164E876E10E94850AC0CD44E856E1C5
:104100006BE776E1F8CF43E556E16CE576E1F3CF76
:104110004CE556E163E576E1EECF4BE356E167E42B
:1041200076E1E9CF47E456E16BE376E1E4CF43E2A1
:1041300056E16FE276E1DFCF4FE256E163E276E1EE
:10414000DACF4AE956E160E976E1D5CF40E956E1B8
:104150006AE976E1D0CF85E075CE8DE073CE82E15D
:1041600071CE0115FCE51F0709F447C00F3D1C4542
:1041700009F480C0F70100811181992309F47DC001
:10418000C8010E944511D82E682FC8010E94000A5C
:10419000B8018D2D0E94A90F8C01882EF701A580F2
:1041A000A2944FE0A422D280D110109209058091F0
:1041B0000705877099F0DD2089F0812F807F80349A
:1041C00021F080E2800F883048F082E00E944A1996
:1041D000809107058770CC24C3948111C12CB12E26
:1041E000B2943FE0B322FBE0FB1508F480C0EB2D56
:1041F000F0E0E752FE4C0C94D42D0E948D193FEF55
:1042000084E39CE0315080409040E1F700C0000022
:10421000F89481E08093E00080E28093D8001092CF
:10422000C900EFE1FEE43197F1F700C000001DBACC
:10423000109268001CBC10BE1FBA10927A00109237
:104240006E0010926F001092710010927200109226
:10425000C9001092BC0014B817B81AB81DB810BA2B
:104260001092BC0015B818B81BB81EB811BA0C943F
:10427000003F04CD0E94B21301CDC8010E94D709AE
:10428000D82E86CF212F2F70A22E107F19F0A29446
:1042900020EFA222DD20C9F0AA2069F080E2800F81
:1042A000883010F081100BC080910A05A82AA092D6
:1042B0000A050E949209802F0E94E01C18C080917C
:1042C0000905A82AA0920905F4CF802F0E94A71CF7
:1042D000AA2069F0A094005E083010F0811046C05A
:1042E00080910A05A822A0920A050E9492092B2D0E
:1042F0002850330B2430310510F40E94790ACC2069
:10430000A9F08091070580FD11C0F7011282859503
:10431000859585950E946219C7010E94BC1D8091F8
:1043200007058595859585950E94271985E0F701F4
:10433000DE01119601900D928A95E1F789819A81AB
:104340000E94D7099A81E981F0E026E0929FE00D72
:10435000F11D112434E5839FE00DF11D1124EE0FB2
:10436000FF1FEA56F94F8591949128CC8091090559
:10437000A822A0920905B9CF312F3F70932E107F4C
:10438000103219F0929490EF9922882041F081E048
:10439000881631F1DD2079F1AA2041F18CCFDD20A2
:1043A00091F090910B05892D892BA11003C00E94DB
:1043B000430A9DCFE1E0AE12FACF981709F497CFE8
:1043C00080930B0594CFA11006C00E948C09892D03
:1043D0000E94380A8CCFF1E0AF1609F488CFF5CFF0
:1043E000DD2031F021E02A1508F481CF892DDFCFBF
:1043F000A1107DCFECCFAA2051F339E383128FC1F6
:104400008FEF97EEE3E081509040E040E1F700C08D
:10441000000085C1812F86958695837061F081307B
:1044200009F065CFC8019370D11002C090E080E020
:104430000E944D0A5CCFC8019370D11002C090E079
:1044400080E00E94630A53CF802FDD2029F00E9474
:1044500069080E94DA184BCF0E94A207FACF812F79
:10446000837009F066C0D11042CF802F8295869567
:104470008770880F880F602F6F70462E512C712C1B
:10448000612C082E04C0440C551C661C771C0A9431
:10449000D2F740E050E0BA0104FF0FC04FE050E017
:1044A00060E070E004C0440F551F661F771F8A95B7
:1044B000D2F74095509560957095812F8695869599
:1044C0008370823019F1D8F400910C0510910D051C
:1044D00020910E0530910F05813069F0442955294E
:1044E00066297729CB01BA016023712382239323A4
:1044F0000E948319FCCE402A512A622A732ACB01DA
:10450000BA016429752986299729F2CF44295529AA
:104510006629772900910C0510910D0520910E0553
:1045200030910F05CB01BA016027712782279327AD
:10453000DFCF8695DD2011F0812F8170882309F46B
:10454000D6CE802F829586958770880F880F602F32
:104550006F70462E512C712C612C082E04C0440C17
:10456000551C661C771C0A94D2F740E050E0BA0153
:1045700004FF0FC04FE050E060E070E004C0440F63
:10458000551F661F771F8A95D2F740955095609505
:104590007095812F869586958370823019F1D8F4B5
:1045A0000091290510912A0520912B0530912C05A9
:1045B000813069F04429552966297729CB01BA0150
:1045C00060237123822393230E941B1990CE402ADB
:1045D000512A622A732ACB01BA01642975298629D6
:1045E0009729F2CF44295529662977290091290571
:1045F00010912A0520912B0530912C05CB01BA0191
:104600006027712782279327DFCF1F70DD2029F0D5
:10461000812F0E946219802FCACE802F0E94380AF3
:10462000812F0E94271963CE802FF2EF8F1609F495
:104630004EC0F81578F020EF821619F131EF83168D
:1046400009F43DC0DD2009F465C0A11034CE812FEE
:104650008F713AC093EF891609F43EC0E4EF8E12D1
:10466000F1CFDD2009F44BC01F71812F0E94621928
:1046700028E0129FC0011124836080930705812FD9
:1046800023C0DD20B9F0A11032CE1F7161E070E0CF
:1046900080E090E004C0660F771F881F991F1A956D
:1046A000D2F70091290510912A0520912B05309110
:1046B0002C05A6CFF1E0FA1508F419CEE6CF812F2C
:1046C0008F71DD2009F4ADCF0E94621910CE812FC9
:1046D0008F71DD20C9F3A5CF60E070E0CB01DD2054
:1046E00009F472CF1F7161E070E080E090E004C0D7
:1046F000660F771F881F991F1A95D2F765CF81E043
:104700000E944A1931E03A1508F0F1CD82E00E948A
:104710004A19EDCDAA2039F0893309F471CE802FE2
:104720000E94A71CE4CD812F8F717BCF85E0DE0135
:10473000119601900D928A95E1F7F7012281898106
:104740009A81211151CA0E94D709082F55CA0631F2
:104750001C4509F00FCD8091970469E2811165E352
:104760008CE093E00E94E008B4CC8272F801E35C34
:10477000FC45E431F10508F0F4CCEB51FE4C0C940F
:10478000D42D1F93CF93DF9380919D04807FA9F454
:1047900080919A04882389F08091CF04D0919E045F
:1047A0006091980470919904A0919B04B0919C042D
:1047B000C62FC72316E0D81304C0DF91CF911F91F5
:1047C000089590E0109711F0CF3F19F4019687708B
:1047D000F2CF189F9001199F300D1124F901E15675
:1047E000FB4F41814713F2CF40814613EFCF428107
:1047F0004111ECCF438154814A1B5B0B483C51056E
:1048000028F780919D048F70806180939D04F90149
:10481000EC55FB4F80818F708061808388E994E044
:104820000E94BC1DDF91CF911F910C942E0AAF9274
:10483000BF92CF92DF92EF92FF920F931F93CF938D
:10484000DF93CDB7DEB761970FB6F894DEBF0FBE2A
:10485000CDBF8C0185E0F801DE011D9601900D921F
:104860008A95E1F7F80180819181E28028E9A22E02
:1048700024E0B22E60919B0470919C046115710537
:1048800009F43EC13091980440919904232F2423C8
:104890002F3F09F435C1C380D480F0909A04F6010B
:1048A000E61BF70BFF2009F4FBC020919D04522F5B
:1048B000507FE83CF10508F0BBC0511178C0FE2CD8
:1048C000491321C038131FC0E1101DC02F70206193
:1048D00020939D04C5010E94BC1D80919D04F80198
:1048E00085838F2D61960FB6F894DEBF0FBECDBFC6
:1048F000DF91CF911F910F91FF90EF90DF90CF90BC
:10490000BF90AF900895CD2829F0282F29232F3F5D
:1049100009F014C120E0F22FF170DF2E20FF3DC01E
:104920002091CF0440919E0456E0241315C08D873A
:104930009E878D859E850E948711292F22952F7035
:104940002230F8F0243020F59F70F9F0F8019581BD
:10495000907FD9F4D12C1FC030E0529FF001539FBB
:10496000F00D1124E156FB4F6181961306C0608162
:10497000861303C06281E61210C02F5F3F4F27707D
:10498000D4CF9F7011F0882329F3805E883010F314
:10499000C8010E94BC1DFD2CA4CFEE2009F4A1CFBC
:1049A00080919D04816080939D04F12C9ACF4913DE
:1049B00012C0381310C0E1100EC0F8012583C801E1
:1049C0000E94BC1D86E0F801A8E9B4E001900D92B8
:1049D0008A95E1F786CF8D879E878D859E850E947B
:1049E0009111882309F1EE20F9F080919D04803225
:1049F00070F0209198043091990438872F8319869C
:104A0000DB86CA868C87CE0107960E94BC1D86E095
:104A1000F801A8E9B4E001900D928A95E1F70E94AF
:104A2000C123FF24F3945DCFC8010E94BC1DF9CFC0
:104A300051110AC088E994E00E94BC1D86E0F5018E
:104A400011928A95E9F7B1CF49130FC038130DC001
:104A5000E1100BC0F8012583C8010E94BC1D86E04F
:104A6000F50111928A95E9F73CCF8D879E878D8558
:104A70009E850E9491118823B9F2EE20A9F28091BF
:104A80009D04803220F220919804309199043A8359
:104A900029831B82DD82CC828E83CE010196B5CF25
:104AA000E83CF105E0F6FE2CEE2009F4BDCF4913F9
:104AB00016C0381314C080919D0480FD83CF982FB9
:104AC000907F09F47FCFF8018583903F09F477CF79
:104AD000982F907F905F8F70892B858370CF8D8703
:104AE0009E878D859E850E949111811190CF809126
:104AF0009D04816080939D04C8010E94BC1DF1CE7D
:104B0000EE2009F491CF8D879E878D859E850E942A
:104B10009111F82E882309F487CF86E0F801A8E9DF
:104B2000B4E001900D928A95E1F7809198049091FC
:104B300099040E9487110E94C123D3CE21E02E2523
:104B4000EACE1F93CF93DF93CDB7DEB767970FB64B
:104B5000F894DEBF0FBECDBF4B8B5C8B6D8B7E8B15
:104B60008F8B1A8A198A85E0FE017396DE011D96E5
:104B700001900D928A95E1F786E0FE013D96DE01F7
:104B8000179601900D928A95E1F7CE0107960E9443
:104B90001724811112C086E0FE013796DE011196BE
:104BA00001900D928A95E1F78A859B85892B29F0E2
:104BB0008F81988589238F3FB1F516E08091CF04CE
:104BC00090919E0489131DC067960FB6F894DEBFBE
:104BD0000FBECDBFDF91CF911F91089596E0929FB8
:104BE000D001939FB00D1124A156BB4FFE01319609
:104BF00001900D929A95E1F780939E040E942E0AEF
:104C0000DCCF819FC001112481569B4F0E94172445
:104C10008823D1F28091CF0490E001968770992784
:104C20008093CF04CBCF20919E0430E0C901019640
:104C3000877099274091CF044817190679F60E948A
:104C40008D1910929E041092CF0486E0E8E9F4E0FA
:104C5000DF011D928A95E9F7B0CF8F929F92AF92B4
:104C6000BF92CF92DF92EF92FF920F931F93CF9359
:104C7000DF9380910C0190910D01892BA1F080911F
:104C80002D038F5F80932D0381110DC00E94D116DB
:104C900090E090930D0180930C01892B21F40E94E8
:104CA0002A130E94B516EBE18E2EE5E09E2E7401CC
:104CB00000E010E077E0C72EC10E812F0E94481758
:104CC0008C2D0E944817812F0E949C17E701999113
:104CD0007E01D12C891729F0FE0131978083DD24D4
:104CE000D3948C2D0E949C17F7019681891709F4A3
:104CF0007CC0868381E08D29082B0E9472121F5F81
:104D00001730C1F60E94CE1860912F0370913003C6
:104D10009093300380932F0320912E0330E0261BC5
:104D2000370B820F931F6BEF70E00E94AC2DE82EC3
:104D3000392F182F80932E03F0903203FF2009F4AF
:104D400018C310923203E0911505F0911605AF01DA
:104D5000425F5F4F20E06BEFB62E6BEF70E0A191EA
:104D6000AB3FA1F0CA2ED12C8E2D932F1A1708F429
:104D70003EC08C199D09092E000CAA0BBB0B88970D
:104D8000A105B105D0F1DF011197BC92E417F50739
:104D900031F720933203011102C02111ECC21092AD
:104DA0003103A0911505B091160590913203E3E30C
:104DB000F5E041E455E080E03191E40129914E01B4
:104DC000321751F03C913B3FD1F41C93BF0161502D
:104DD0007109EB01288391E011964E175F0761F787
:104DE0009093320380933103CAC280E084CFDB0109
:104DF000AC19BD098A0F9B1FBECF2F2DC7CF81E0F5
:104E0000EBCF1092190140938E0550938F0560935C
:104E100090057093910581E080931C01DEC2809122
:104E20000B01C1E018130BC02091920523708091F3
:104E30000A0190E0C1E02817190609F4C0E0C1702A
:104E4000C0931B01193140F4E12FF0E0E750FE4C14
:104E50000C94D42DC11102C0C0E028C040E060E035
:104E600080E00E94DC0AF8CF80911901C82FCC0F96
:104E7000CC0FC80F45E0F42EFC0EEF2CD0E3DF156D
:104E800010F430E3E32E60919305709194058091C6
:104E900095050E944D0DD62EC72EB82ED0E0CE150A
:104EA00008F43BC0C1E0FFE2FF15B0F280911901A8
:104EB0008F5F80931901C11115C282E080931C019C
:104EC00080911B0181110EC2112309F432C280911D
:104ED0003205811182C28091170583FD7EC26091E7
:104EE000290570912A0580912B0590912C050E942F
:104EF0003F09833009F40BC208F0F8C1813009F48E
:104F0000FEC1823009F400C280911A01811165C28C
:104F100040E060E00E94DC0A60C2FE01E452FD4F06
:104F2000808190911A01892331F02B2D4D2D6C2D0C
:104F3000CE010E94DE0A2196B2CF80911901C82FBE
:104F4000CC0FCC0FC80F25E0F22EFC0EEF2C20E387
:104F50002F1510F490E3E92EC0909405D09095059C
:104F6000D09193056D2F7C2D8D2D0E944D0DB62E69
:104F7000A72E982E609196056D0F7C2D8D2D0E9489
:104F80004D0DD62EC72E882ED0E0CE1530F0C1E0C4
:104F90008FE28F1508F08ACF5FCFFE01E452FD4FFC
:104FA000908180911A01892359F0282D4D2D6C2D67
:104FB00090FD03C0292D4B2D6A2DCE010E94DE0AE3
:104FC0002196E3CF80911901C82FCC0FCC0FC80FC9
:104FD00085E0F82EFC0EDF2C90E39F1510F4D0E353
:104FE000DD2EC0909405B090950520919605B0E413
:104FF000EB2E3E2D329F312D1124E32ED0E0CD1526
:1050000030F0C1E09FE29F1508F050CF25CFFE01A0
:10501000E452FD4F808190911A018923B9F0FE017D
:10502000EE0FFF1FE358FD4F808182958F706091D6
:1050300093058E9D600D11247C2D8B2D0E944D0DAE
:10504000462F282F672FCE010E94DE0A2196D7CF48
:1050500080911901C82FCC0FCC0FC80FE5E0FE2EB0
:10506000FC0EDF2CD0E3DF1510F470E3D72EC090D8
:105070009405B09095052091960560E4E62E3E2DAE
:10508000329F312D1124E32ED0E0CD1508F0B9CF99
:10509000FE01E452FD4F808190911A018923D9F0DD
:1050A000FE01EE0FFF1FE458FD4F6081E69EB00148
:1050B000112455E0759567955A95E1F78091930510
:1050C000680F7C2D8B2D0E944D0D462F282F672FAA
:1050D000CE010E94DE0A2196D8CF80911901C82FF7
:1050E000CC0FCC0FC80F35E0F32EFC0EEF2CD0E325
:1050F000DF1510F420E3E22ED0909305D0919405B3
:10510000C090950560919605669566956695809127
:105110008E0590918F050E94430D0E94CC0C805803
:1051200087FD8195880F282F3C2D239F212D112449
:10513000822F6D2D7D2F0E944D0DD62EC72EB82E9D
:10514000D0E0CE1508F05DCFFE01E452FD4F808126
:1051500090911A01892331F02B2D4D2D6C2DCE010C
:105160000E94DE0A2196EDCF87ED9BE00E941C0F86
:10517000C82F9CCE8DEA9BE0F9CF8EEA9CE00E947E
:10518000C00EF6CF8FE89CE0FACF84E79CE00E9447
:10519000430EEECF88E59CE0FACF8BEA9BE0E6CFAA
:1051A00082EA9BE0E3CF89E99BE0E0CF80E89BE0E7
:1051B000DDCF82E79BE0EBCF8BE19DE0E0CF87E4A2
:1051C0009CE0DDCF83E39CE0E2CF85E49BE00E949E
:1051D000E10DCECF87E19BE0FACF80EE9AE0F7CFEA
:1051E000C1111EC06091960520E1620F08F46FEFB7
:1051F00080918E0590918F050E94430D6AE070E0CA
:105200000E94AC2D892B09F027CE0E94262E60E348
:1052100070E00E94C02D60911A010E94C81546CE10
:1052200080911901C82FCC0FCC0FC80F95E0D92E53
:10523000DC0E8D2DD0E3DD1508F480E3D0E0E82E00
:10524000F12CCE15DF0534F0C1E0EFE2ED1508F0EA
:105250002DCE02CE60911A01CE010E94C815219672
:10526000F0CFC1111EC06091960520E1620F08F4D5
:105270006FEF80918E0590918F050E94430D65E040
:1052800070E00E94AC2D892B09F0E6CD0E94262EFD
:1052900060E370E00E94C02D60911A010E94A61583
:1052A00005CE80911901C82FCC0FCC0FC80F85E017
:1052B000D82EDC0E8D2DF0E3FD1508F480E3D0E050
:1052C000E82EF12CCE15DF0534F0C1E02FE22D15CC
:1052D00008F0ECCDC1CD60911A01CE010E94A61557
:1052E0002196F0CF112309F478C0F1CD8530A9F0D3
:1052F00088F0863009F008CE86E090E002C081E0B8
:1053000090E00E94B51169C082E090E0FACF83E09E
:1053100090E0F7CF84E090E0F4CF85E090E0F1CF2B
:1053200010930B0180919205837080930A010E9473
:10533000521483E071CD40918E0550918F0560919C
:105340009005709191052FB7F89480911005909178
:105350001105A0911205B09113052FBF841B950B69
:10536000A60BB70B4A97A105B105B8F110921C0125
:1053700034C0011114CD80913103811110CD8FB74C
:10538000F8944091100550911105609112057091AB
:1053900013058FBF40933303509334036093350359
:1053A000709336038091320510E0811108C080911E
:1053B0009205182F137019F0182F169516958091D5
:1053C0001C01813009F42BCD882309F41ACD8230D9
:1053D00009F4A6CF833009F4AECF802FDF91CF91AF
:1053E0001F910F91FF90EF90DF90CF90BF90AF9003
:1053F0009F908F900895CDB7DEB72F970FB6F89492
:10540000DEBF0FBECDBF84B7877F84BF0FB6F894D1
:10541000A895809160008861809360001092600080
:105420000FBE80E890E00FB6F894809361009093EF
:1054300061000FBE85B7806885BF85B7806885BF6E
:105440000E9415060E94E0068091E200846080932D
:10545000E2007894809181058823A1F01091E90001
:105460001F709091EC00892F817090FD80E8182BBF
:105470001092E9008091E80083FD0E94A2191F703C
:105480001093E90082E084BD93E095BD9AEF97BD4B
:1054900080936E000E94D11690E090930D0180934E
:1054A0000C010E9472120E948112EBE1F5E089E288
:1054B00095E0A3E3B5E011921D928E179F07D9F7EF
:1054C0008EE090E00E94362E80931505909316058D
:1054D000FC010E962BEF21938E179F07E1F790E0CA
:1054E00080E00E947F2F8F3E9E4F11F00E94B213EA
:1054F0000E94B51689EA8093800089E0809381003C
:1055000024982C983F988AB18F7C8AB96E98479AD4
:105510008BB180638BB9769A8FE090E00E94792FEF
:1055200060931705709318058093190590931A05D9
:1055300067708FEF869FB0011124759567957595FB
:1055400067957727709389006093880070938B002C
:1055500060938A0070938D0060938C009091170582
:1055600094FF5DC180931A010E942A1390E080E0AD
:105570000E947F2F8F3E9E4F11F00E94B21382E057
:1055800090E00E94712F80934D050E94A413909388
:105590002E0580932D0583E090E00E94712F682FE7
:1055A00070E090E080E00E9483196091290570917D
:1055B0002A0580912B0590912C050E943E120E9495
:1055C000CF0A0E94CF0A0E940E168EE091E09093BF
:1055D000300580932F0598E1E92EF12C21E4C22EAD
:1055E00025E0D22E83E395E03EE0A32EA80EBB2457
:1055F000B39480918105853079F480E4982E00E1A0
:1056000012E180918105853009F40CC10E948D1949
:105610000E94790A109232050E942D26EEE4F5E0F0
:10562000A3E3B5E010E000E0302F8D912191281721
:1056300009F449C190E0992493942827422F4921E5
:1056400009F43CC19E833F83892191E009F490E0F5
:1056500098870E94CE188160782F9A8789874E811B
:105660005F8168858A850E94A125F801E25BFA4F77
:1056700080819826908285E0E7E4F5E0DE011196CE
:1056800001900D928A95E1F7909048058090490528
:1056900010914A0500914B0510924805109249055A
:1056A00010924A0510924B05892D882909F448C0AB
:1056B00080914505909146050E94D1089C019091EA
:1056C0004405992309F43DC125313105C8F19F3FB7
:1056D00019F09F5F90934405992059F00E94450866
:1056E0009FEF19140CF491E0899F802D1124809371
:1056F0004805882059F00E9445089FEF18140CF4C3
:1057000091E0899F802D11248093490530914805AF
:105710003323B1F020914905222391F045EB340366
:10572000C0011124992309F4E5C09093480545EB85
:10573000240390011124332309F4DFC03093490579
:10574000812F802B09F448C0809142059091430538
:105750000E94D1089C0190914105992309F4ECC065
:1057600025313105C8F19F3F19F09F5F90934105A6
:10577000112359F00E9425089FEF11160CF491E0B7
:10578000899F802D112480934A05002359F00E949F
:1057900025089FEF10160CF491E0899F802D1124AD
:1057A00080934B0530914A053323B1F020914B058E
:1057B000222391F045EB3403C0011124992309F40D
:1057C0009FC090934A0545EB240390011124332395
:1057D00009F499C030934B05809148059091490593
:1057E000892B90914A05892B90914B05892B11F0BB
:1057F0000E94DA1885E0FE013196A7E4B5E0019039
:105800000D928A95E1F70E94790A90914C058917CB
:1058100009F4EFCE0E94790A80934C05E8CE1092ED
:105820001A01A2CE40E060E080E00E94DC0AB09263
:10583000320580918105843009F1109231050FB64F
:10584000F894A895E09260000FBE9092600083B734
:10585000817F846083BF83B7816083BF789488959C
:1058600083B78E7F83BF0FB6F894A89580916000B0
:10587000886180936000109260000FBE8091800567
:10588000882309F4BECE0E94D11690E090930D01BA
:1058900080930C010E9472120E948112E3E3F5E0F2
:1058A0001192CE16DF06E1F70E942D26E3E3F5E024
:1058B000819181112BC0AE12FBCFA3CE9F5F990CBB
:1058C000963009F0BBCE0F5F1F4F0E30110509F067
:1058D000ABCE8FEF8B878C871D860E94CE188160A0
:1058E000782F9F878E874B855C856D858F850E947D
:1058F000A125C1CEB09248051ACFB092490520CF5C
:10590000B0924A0560CFB0924B0566CF09BD19BD74
:1059100009B400FEFDCF8091D8008F7D8093D80020
:105920008091E00082608093E0008091E00081FD42
:10593000FCCF0E948D1965CE2139314008F015CF7A
:105940004BCF232B09F0C5CEFBCE1F921FB61F9263
:1059500011248F939F93AF93BF9380913105811151
:1059600013C08091100590911105A0911205B0917E
:1059700013054196A11DB11D80931005909311054B
:10598000A0931205B0931305BF91AF919F918F9192
:105990001F901FBE1F9018951092B9008CE0809345
:1059A000B8000895EF92FF920F931F93CF93DF9368
:1059B000182FEB011092BC0084EA8093BC000E9477
:1059C000CE187C018091BC0087FF27C08091B90070
:1059D000887F883029F08091B900887F8031D9F59F
:1059E0001093BB0084E88093BC000E94CE188C0109
:1059F0008091BC0087FF24C02091B900287F90E0EF
:105A000080E02831B1F081E090E0203411F490E0A2
:105A100080E09195819591090CC0CF3FDC0791F210
:105A20000E94CE188E199F098C179D0758F28EEF91
:105A30009FEFDF91CF911F910F91FF90EF9008950D
:105A4000CF3FDC07A9F20E94CE18801B910B8C1768
:105A50009D0770F2ECCF8FEF9FEFEBCF0F931F936B
:105A6000CF93DF93EB018093BB0084E88093BC006D
:105A70000E94CE188C018091BC0087FF11C020913C
:105A8000B900287F81E090E0283211F490E080E0B6
:105A9000919581959109DF91CF911F910F91089573
:105AA000CF3FDC0741F30E94CE18801B910B8C176F
:105AB0009D0708F38EEF9FEFEECF0F931F93CF93C9
:105AC000DF93EC0184E88093BC000E94CE188C0127
:105AD0008091BC0087FF08C08091BB0090E0DF91FF
