:100000000C942D060C944A060C944A060C944A064D
:100010000C944A060C944A060C944A060C944A0620
:100020000C944A060C944A060C94A6330C9478342B
:100030000C94592E0C944A060C944A060C944A06C9
:100040000C944A060C944A060C944A060C944A06F0
:100050000C944A060C94C12E0C944A060C944A0641
:100060000C944A060C944A060C944A060C944A06D0
:100070000C944A060C944A060C944A060C944A06C0
:100080000C944A060C944A060C944A060C944A06B0
:100090000C944A060C944A060C944A060C944A06A0
:1000A0000C944A060C944A060C944A06A206A5062D
:1000B000A806AB06AE06B106B406E80CED0CF10CD2
:1000C000FB0C070D0D0D700DAA0DAF0DB90DAD0D8B
:1000D000B20DB70DB50DFD0EFF0E0A0F010F030F88
:1000E000050F070F090F0C0F0E0F100F1B0F120F2C
:1000F000140F160F180F1A0F1D0FA61BA91BAC1BF0
:10010000AF1BB21BB51BB81BBB1BBE1BC11BC41B4B
:10011000EC23EC231E241E245524FA259C25FA25C5
:100120007524FA25222522259325FA25FA25F4257A
:100130002F252F252F252F252F252F252F252F251F
:100140002F252F252F252F252F252F252F252F250F
:1001500040254D2554255B2565258126812693263E
:1001600093268A26932693269326812681268F26F8
:10017000932693268F26E5340C35FE350C35FE3557
:1001800058357B35FE35D135E03505A84CCDB2D498
:100190004EB93836A9020C50B9918688083CA6AAF7
:1001A000AA2ABE000000803F6572676F646F785FA7
:1001B000657A2F616C656367204020302E362E32C1
:1001C00036362D332D67333461313164000000F051
:1001D000A10000000000000000000000000000007E
:1001E000000000000000000000000000000000000F
:1001F00000000000000000000000000000000000FF
:1002000000000000000000000000000000000000EE
:1002100000000000000000000000000000000000DE
:1002200000000000000000000000000000000000CE
:1002300000000000000000000000000000000000BE
:1002400000000000000000000000000000000000AE
:10025000000000000000000000000000000000009E
:10026000009AFFFF9AFFFF9AFFFF9AFFFF9AFFFF96
:100270009AFFFF9AFFFF9AFFFF9AFFFF9AFFFF9AEC
:10028000FFFF9AFFFF9AFFFF9AFFFF9AFFFF9AFF77
:10029000FF9AFFFF9AFFFF9AFFFF9AFFFF9AFFFF67
:1002A0009AFFFF9AFFFF9AFFFF9AFFFF9AFFFF9ABC
:1002B000FFFF9AFFFF9AFFFF9AFFFF9AFFFF9AFF47
:1002C000FF00CCFF9AFFFF9AFFFF9AFFFF00CCFFD1
:1002D00000CCFF00CCFF9AFFFF9AFFFF9AFFFF9A26
:1002E000FFFF9AFFFF9AFFFF9AFFFF9AFFFF9AFF17
:1002F000FF69FFFF69FFFF69FFFF69FFFF69FFFFFC
:1003000069FFFF69FFFF69FFFF69FFFF69FFFF6981
:10031000FFFF69FFFF69FFFF69FFFF69FFFF69FFDB
:10032000FF69FFFF69FFFF69FFFF69FFFF00000032
:1003300000000000000000000069FFFF69FFFF6986
:10034000FFFF69FFFF69FFFF000000000000F9E404
:10035000FF000000000000000000F9E4FFF9E4FFE6
:10036000F9E4FF00000000000000000000000000B1
:10037000000000000000000000000000000000007D
:10038000000000000000000EFFFF0EFFFF0EFFFF49
:1003900069FFFF23FFFF23FFFF23FFFF0EFFFF691E
:1003A000FFFF23FFFF23FFFF23FFFF000000F9E40F
:1003B000FF23FFFF23FFFF23FFFF69FFFF00000074
:1003C00023FFFF23FFFF00000000000000000000EB
:1003D000000000000000000000000000000023FFFB
:1003E000FF00000000000000000023FFFF23FFFFCC
:1003F00023FFFF00000000000000000000000000DC
:10040000000000000023FFFF23FFFF0000000000AA
:1004100000000000000000000000000000000000DC
:10042000000000000000FA9FFF0000000000000034
:100430000000FA9FFFFA9FFFFA9FFF0000000000F4
:1004400000000000000000000000000000000000AC
:10045000000000000000000000000000000000009C
:1004600000000000000000000000000000000EFF7F
:10047000FF00000000000000000069FFFF0EFFFF0A
:1004800069FFFF0000000000000000000000000005
:10049000000000000000000000000000000000005C
:1004A000000000000000000000000000000000004C
:1004B00000000086FFD586FFD586FFD5000000002E
:1004C000000086FFD586FFD586FFD500000000001E
:1004D0000086FFD555CB9E86FFD5000000000000AA
:1004E0000AE1FF0000000000000000000000000022
:1004F00000000000000000000000000000000000FC
:1005000000000000000000000000000000000000EB
:1005100000000000000000000000000000000000DB
:1005200000000000000000000000000000000000CB
:100530000029002B002A00E100350000001E0014F5
:100540000004001D003400EC5C1F001A0015001BA5
:1005500000000402512000090016000600E0002CF3
:10056000002100130017001900E400C35C22000AF8
:1005700000070005000000650003510100000005B0
:10058000510000E30001530100000000070000E7F4
:100590000023000D000B000E0000004C0024000F93
:1005A00000110010000451EA5C2500180008003614
:1005B000000100280026001C000C0037000100008C
:1005C0000427003300120038000100EB5C2D0031DD
:1005D000003400E5000100000001000100010001FD
:1005E00000010000001E00140004001D000100E7CF
:1005F0005C1F001A0016001B00010001002000080B
:100600000007000600010001002100150009001983
:10061000000100C35C220017000A00050000000171
:100620000001001050000001000000010001000165
:1006300000000001000000010023001C000B00115D
:100640000000000100240018000D0010000100C58A
:100650005C25000C000E003600010001002600128F
:10066000000F00370001000100270013003300389D
:10067000000100C65C010001000100010001000052
:10068000000100010058000100010000003A0001D3
:1006900000010001000100CA5C3B000100500001A4
:1006A00000010001003C0052005100010001000166
:1006B000003D0001004F0001000100C95C3E000147
:1006C00000010001000000010001001050000001C5
:1006D000000000010001000100000001000000C254
:1006E0005C3F002202210225020000E75C40002F4F
:1006F0000226022F000100E85C4100300227023090
:10070000000100C55C42002D0256001F020100C618
:100710005C43002E022E0020020100E95C440045EB
:1007200000010001000100000001000100010001C2
:1007300000010000000100010001000100010001B2
:100740000001000100F2000100010001000100F0C1
:1007500000F1000100F400010001000100F30001BC
:1007600000F500010001000100010001000000018E
:100770000001001050000001000000010001000114
:100780000000000100000001000100A900AA00A86B
:1007900000000001000100240021001E00010001F2
:1007A000005400250022001F0062000C00550026A6
:1007B000002300200063000100560057000000588D
:1007C0000001000100010001000100010001000022
:1007D0000001000100010001000100000001000013
:1007E000000000000001000100000000004A0000BD
:1007F000000100010000004B004E0000000100015C
:1008000000000000004D0000000100010001000098
:100810000000000000000001000100105000000175
:1008200000000001000100010000000100000001C3
:1008300000010000000000000000000100000000B6
:1008400000500000000100010000005200510000B3
:100850000001000100000000004F00000001000145
:100860000001000000000000000100010001000183
:100870000001000100010000000100010001000171
:100880000001000000010001000100010001000161
:100890000001000100010001000100010001000150
:1008A0000001000100010001000100010001000140
:1008B0000001000100010001000100010000000131
:1008C0000001000100000001000000010001000122
:1008D0000000000100000001000100010001000112
:1008E00000000001000100240721071E070100018C
:1008F000000100250722071F072707010001002626
:100900000723072007010001000100010001000189
:1009100000010001000100010001000100010000D0
:100920000000000000000000002A2B28000000004A
:10093000000000000000000000000000290000008E
:10094000002C1E3420212224342627252E362D3734
:1009500038271E1F202122232425263333362E3705
:10096000381F0405060708090A0B0C0D0E0F10119D
:1009700012131415161718191A1B1C1D2F313023AA
:100980002D350405060708090A0B0C0D0E0F101172
:1009900012131415161718191A1B1C1D2F31303578
:1009A0004C000000000000000000000000000000FB
:1009B0000000000000000000000000000000000037
:1009C000000001010101010100010101010000001D
:1009D0000000000000000000000000010001000114
:1009E00001010101010101010101010101010101F7
:1009F00001010101010101010101010100000001EA
:100A000001000000000000000000000000000000E5
:100A100000000000000000000000000001010101D2
:100A200000000000000001010101010101010102BB
:100A3000020202020202020203030303030303038E
:100A40000404040404040505050505060606060657
:100A500007070707080808080909090A0A0A0A0B0C
:100A60000B0B0C0C0C0D0D0D0E0E0F0F0F101011AB
:100A7000111112121313141415151616171718182E
:100A800019191A1A1B1C1C1D1D1E1F1F2020212294
:100A9000222324252526272728292A2B2B2C2D2ED7
:100AA0002F2F30313233343536363738393A3B3CF4
:100AB0003D3E3F4041424344464748494A4B4C4DE6
:100AC0004F50515253555657585A5B5C5E5F6062A7
:100AD00063646667696A6C6D6E7071737476787939
:100AE0007B7C7E8081838486888A8B8D8F91929493
:100AF00096989A9B9D9FA1A3A5A7A9ABADAFB1B3B3
:100B0000B5B7B9BBBDBFC1C4C6C8CACCCFD1D3D697
:100B1000D8DADCDFE1E4E6E8EBEDF0F2F5F7FAFC39
:100B2000FF04033000000016034500720067006FE9
:100B30000044006F007800200045005A00000016B5
:100B4000034500720067006F0044006F00780020CA
:100B50000045005A0000000403090409023B00029A
:100B60000100A0FA0904000001030101000921119C
:100B70000100012240000705810308000A09040161
:100B8000000103000000092111010001227100078A
:100B900005820320000A1201100100000008EDFE8A
:100BA000071301000102030105010980A10185036A
:100BB0001601002603001A81002A83007510950192
:100BC0008100C0050C0901A1018504160100269CC5
:100BD000021A01002A9C02751095018100C00501CE
:100BE0000906A1018505050719E029E7150025017A
:100BF00095087501810205081901290595057501FA
:100C000091029501750391010507190029EF15005F
:100C1000250195F075018102C005010906A10105B4
:100C20000719E029E715002501950875018102954E
:100C300001750881010508190129059505750191BE
:100C4000029501750391010507190029FF1500267A
:100C5000FF00950675088100C00011241FBECFEF6C
:100C6000DAE0DEBFCDBF13E0A0E0B1E0E4EBF4E7F3
:100C700002C005900D92AA3DB107D9F727E0AAED71
:100C8000B3E001C01D92A432B207E1F70E94CA305E
:100C90000C94583A0C94000080B38C7080BB81B3E4
:100CA000836F81BB089584B1807F84B985B1807FD3
:100CB00085B98AB1837F8AB98BB1837F8BB93E981E
:100CC00046980895CF93E82F873090F580910401DE
:100CD00090910501892B09F049C0CE2F64E670E0A0
:100CE00080E40E948C1F9093050180930401892B5E
:100CF000D1F464E670E082E10E94E31F9093050165
:100D000080930401892B79F481E090E001C0880F81
:100D1000CA95EAF764E670E080950E94E31F90931D
:100D200005018093040184E690E0CF910C94382073
:100D300090E0FC013797E730F105C0F4EA5AFF4F25
:100D40000C946D39209A289811C0219A29980EC0C8
:100D5000229A2A980BC0239A2B9808C0529A5A9824
:100D600005C0539A5B9802C03E9A4698CF91089569
:100D7000089508950C94B906CF93DF930E944B0811
:100D800090E090930501809304010E9453060E9415
:100D90004C06AFE2B4E02BED33E0EDE3F4E04EE0DF
:100DA0004E0F11921D9280E090E0E901C80FD91F0B
:100DB0001882019686309105C1F72A5F3F4F4E1386
:100DC000F0CFDF91CF910C94220E0E944B0890E05F
:100DD00090930501809304010E9453060E944C06E3
:100DE000EDE3F4E08EE08E0F11928E13FDCF0895A7
:100DF000CF93DF93E62FF0E0E15DFB4F4081482782
:100E0000808386E0689FF0011124E552FC4F20E0CA
:100E100030E080E061E070E050E0AAE0B22F908125
:100E2000992319F09150908307C0EB01022E01C065
:100E3000CC0F0A94EAF78C2BEA0102C0D595C7952E
:100E4000BA95E2F7C0FDA0832F5F3F4F3196263061
:100E5000310521F7DF91CF910895CF93DF93D82FFC
:100E6000873008F040C08091040190910501892BE2
:100E700009F042C064E670E080E40E948C1F909309
:100E8000050180930401892B11F0C0E027C064E6BE
:100E900070E083E10E94E31F9093050180930401B9
:100EA000892B99F764E670E081E40E948C1F90938F
:100EB000050180930401892B41F784E690E00E94AC
:100EC000132097FF05C09093050180930401DDCFA7
:100ED000C82FC095109205011092040184E690E09D
:100EE0000E9438200AC09FB1CFB1C07FC695C69579
:100EF0009370C92BC09501C0C0E06D2F8C2F0E944C
:100F0000F806282F2095ED2FF0E0E35CFB4F908151
:100F100092238C23892BDF91CF910895EF92FF923A
:100F20000F931F93CF93DF9380910401909105015C
:100F3000892B91F08091DA038F5F8093DA0381111E
:100F40000BC00E944B0890E0909305018093040130
:100F5000892B11F40E94DD078DE3E82E84E0F82E42
:100F600004E414E0C0E08C2F0E946206D7E0DC0F9E
:100F70008D2F0E9462068C2F0E942D07F70181930E
:100F80007F018D2F0E942D07F80181938F010E9410
:100F90005306CF5FC73039F70E942E0E81E0DF91F4
:100FA000CF911F910F91FF90EF900895E82FF0E0FF
:100FB000E35CFB4F80810895089556985E982598CC
:100FC0002D9826982E9827982F988FEF90E0909341
:100FD00089008093880090938B0080938A0090937F
:100FE0008D0080938C00259A2D9A2FEF80E792E058
:100FF000215080409040E1F700C00000269A2E9AD0
:101000002FEF80E792E0215080409040E1F700C050
:101010000000279A2F9A2FEF80E792E0215080401E
:101020009040E1F700C0000025982D982FEF80E751
:1010300092E0215080409040E1F700C000002698E7
:101040002E982FEF80E792E0215080409040E1F70A
:1010500000C0000027982F9856985E9825982D98E4
:1010600026982E9827982F98089589EA80938000D3
:1010700089E08093810024982C983F988AB18F7CD6
:101080008AB96E98479A8BB180638BB9769A0E9421
:10109000DD070C94B80680E290E090930501809300
:1010A000040180914B0481110EC00E94861F81E0D3
:1010B00080934B042FEF83ED90E3215080409040CC
:1010C000E1F700C0000064E670E080E40E948C1F3D
:1010D0009093050180930401892B09F050C064E6C8
:1010E00070E080E00E94E31F90930501809304016B
:1010F000892B09F044C064E670E080E00E94E31FA1
:101100009093050180930401892BC9F564E670E092
:101110008FE30E94E31F9093050180930401892BC4
:1011200071F584E690E00E94382064E670E080E487
:101130000E948C1F9093050180930401892BF9F480
:1011400064E670E08CE00E94E31F909305018093B9
:101150000401892BA1F464E670E080E00E94E31FA3
:101160009093050180930401892B49F464E670E0B3
:101170008FE30E94E31F909305018093040184E6AE
:1011800090E00E943820809104010895AF92BF92B0
:10119000CF92DF92EF92FF920F931F93CF93DF9343
:1011A000EC0181E00E943A1D80E98C9F70018D9FC7
:1011B000F00C1124C0E0D0E000E010E0670182E014
:1011C000C80ED11C57018FEFA81AB80AF601EC0F10
:1011D000FD1FEF52FE4F8491FE01EE0DFF1DEF52F9
:1011E000FE4F6491F501EC0FFD1FEF52FE4F74911D
:1011F000882319F08091A50501C080E00E94421467
:10120000472F282FC8010E94F7140F5F1F4F239606
:1012100000331105D9F6DF91CF911F910F91FF9007
:10122000EF90DF90CF90BF90AF900895653008F0B9
:1012300046C0453008F043C0811103C094E0941BC0
:10124000492F623008F04B5F909168019F3F79F021
:1012500025E0629FF001112499E1899FE00DF11DC5
:101260001124E859FE4FE40FF11D8081089581306B
:1012700019F490E038E102C098E130E325E0629F84
:10128000F001112429E1829FE00DF11D1124E8599C
:10129000FE4FE40FF11D9317D9F224E0929FD00185
:1012A0001124A755BE4F2C91522F52955F702F706D
:1012B000621303C0451301C090839F5FECCF80E0B1
:1012C0000895CF93DF938133C8F5909108019F3F34
:1012D00069F06115710531F1E82FF0E0EE0FFF1FA5
:1012E000E85FFE4F9081FB0190831CC0A9EAB1E04A
:1012F000E8E0F1E020E0C4E09C91392F3F70929546
:101300009F7031119550283110F49B5F03C0DC2F82
:10131000D91B9D2F308391832F5F149632962033F3
:1013200059F7D7CF4115510549F0E82FF0E0EE0FFE
:10133000FF1FE85FFE4F8181FA018083DF91CF912B
:1013400008953F924F925F926F927F928F929F92F9
:10135000AF92BF92CF92DF92EF92FF920F931F93C3
:10136000CF93DF93CDB7DEB72C970FB6F894DEBFDF
:101370000FBECDBF0E94F61B6B017C018091A705BB
:101380009091A8050E94972E90937E0480937D04EF
:101390000E948B2E9093A8058093A70580917F04CF
:1013A000909180048130910509F0E2C023E0C222CF
:1013B000DD24EE24FF24CD28CE28CF2809F05FC0FD
:1013C000F090070100917B0410917C040F0D111D1A
:1013D000F7FC1A9510937C0400937B04B80180E01D
:1013E00090E00E94513720E030E04AE753E40E9449
:1013F000A9364B015C0120E030E040E05FE30E9451
:101400009F3618163CF0C501B4010E94D6389B01E6
:10141000AC0122C020E030E040E05FE3C501B40150
:101420000E9432364B015C019B01AC010E943336B5
:101430002B013C01A501940160E070E080E89FE38E
:101440000E9432369B01AC01C301B2010E94613897
:1014500020E030E040E05FE30E94333660937704A1
:10146000709378048093790490937A040150110961
:10147000093F110520F08F2D819580930701809100
:10148000A205881F8827881F9091A305492F440F24
:10149000242F282B97FB332730F9C9018C549F4FF9
:1014A00068E671E00E943739821B930B8038910502
:1014B00014F09A9505C081384FEF94070CF493957A
:1014C00097FD03969595879595958795182F80910B
:1014D000A405281B310937FF02C02D5F3F4F35950A
:1014E000279535952795022FA090A5052BEAC22EAA
:1014F00021E0D22EE12CF12CF601B080B2948FE0E5
:10150000B82220E030E040EA52E460917704709124
:1015100078048091790490917A040E9461380E9445
:101520001B37962F6091A205262F221F2227221FEC
:101530006091A305660F622B690FB19E600D1124A7
:101540007091A405B09E700D11248A2D0E94421442
:10155000472F282FC7010E94F714FFEFEF1AFF0A49
:1015600024E0C20ED11C40E3E416F10429F699C12F
:101570008230910509F086C0C701B60123E030E052
:1015800040E050E00E944B39672B682B692B29F40F
:10159000809176048F5F80937604E12CF12C10917A
:1015A000A205912F991F9927991F1091A305110F3B
:1015B000192B6091A40570E080E090E00E94533701
:1015C0002DEC3CEC4CE45FE30E9461380E94223732
:1015D000762F612F80E00E944214472F282FC701E9
:1015E0000E94F7148FEFE81AF80A90E3E916F10465
:1015F000B1F640E062E080E00E941609898341E094
:1016000062E080E00E9416098A8342E062E080E0A6
:101610000E9416098B8343E062E080E00E94160975
:101620008C8341E062E081E00E9416098D8342E0F4
:1016300062E081E00E9416098E8343E062E081E06F
:101640000E9416098F8344E062E081E00E9416093F
:101650008887FE0131967F0110E0F70101917F013B
:1016600080917604612F681B70EA8FEF0E9442140C
:10167000472F282F802F90E00E94F7141E5E10390C
:1016800061F70FC1039709F00CC1E0907D04F09061
:101690007E0400917404109175040E0D1F1D013D10
:1016A000F7E01F0710F000ED17E0109375040093AA
:1016B0007404B801012E000C880B990B0E9453375B
:1016C00020E030E04AEF54E40E94A9364B015C016F
:1016D000D09006012FEFD2120AC09B01AC0160E04E
:1016E00070E080E89FE30E9432364B015C0120E00D
:1016F00030E040E05FE3C501B4010E949F36181658
:101700003CF0C501B4010E94D6389B01AC0122C057
:1017100020E030E040E05FE3C501B4010E943236D2
:101720004B015C019B01AC010E9433362B013C0153
:10173000A501940160E070E080E89FE30E943236EA
:101740009B01AC01C301B2010E94613820E030E08E
:1017500040E05FE30E943336003D174041F41092B1
:101760007504109274042D2D21952093060120E01C
:1017700030E040E151E40E94613869877A878B87C5
:101780009C87B70180E090E00E9451379B01AC013B
:1017900060E070E88BEB94E40E94323620E030E8A1
:1017A0004BEB54E40E94A9362B013C010CE414E0FD
:1017B000312C632D70E080E090E00E9451379B0156
:1017C000AC0169857A858B859C850E9432366B01D8
:1017D0007C01E894F7F8F80120813181428153813E
:1017E000C301B2010E9461384B015C0120E030E08E
:1017F00040E050E4C701B6010E949F361816D4F0AD
:10180000A701960160E070E080E090E40E9432362B
:1018100020E030E040E05FE30E9461389B01AC01D2
:10182000C501B4010E948E37F80160837183828301
:10183000938305C0F80180829182A282B38233949F
:101840000C5F1F4FFAE03F12B4CF00E010E0AE0192
:101850004F5F5F4F60E070E0802F0E946109E98177
:1018600024E0E29FF0011124E45BFB4F20E030E034
:101870004FE753E460817181828193810E946138D6
:101880000E942237862F6AE47FEF0E944214472F7E
:10189000282FC8010E94F7140F5F1F4F0033110556
:1018A000B1F62C960FB6F894DEBF0FBECDBFDF9118
:1018B000CF911F910F91FF90EF90DF90CF90BF904D
:1018C000AF909F908F907F906F905F904F903F90E0
:1018D00008958091810481115FC0609150057091DD
:1018E000510580915205909153050E94B92C823088
:1018F00009F445C028F4882359F08130E9F10895AE
:10190000843009F442C0F0F1853009F441C00895F3
:1019100080E190E00E94D7396093A2057093A305FF
:101920008093A4059093A50580917F0490918004F5
:10193000892BE9F48091A20586958F730E943A1D48
:101940008091A205982F9E77923031F1881F8827C9
:10195000881F9091A305292F220F97FB992790F9B3
:101960004091A5056091A405822B0C94601D81E037
:101970000E943A1D0C94A10981E090E00BC082E026
:1019800090E008C083E090E005C084E090E002C0F1
:1019900085E090E00C94C6080895611108C0FC0130
:1019A0008281882321F088EA91E00E941F0E80E066
:1019B00090E00895FC01E65EFC45E730F10508F093
:1019C000ADC0DB01E35AFF4F12969C910C946D3928
:1019D00091110E94772D80E008959923E1F381E031
:1019E00019C09923C1F381E00E942B1D4FEF64E9D8
:1019F00085EC90E009C0992371F381E00E942B1DD2
:101A00004FEF69E787E890E00E94491DE4CF9923F2
:101A100011F383E00E942B1DDECF9923E1F280E1D8
:101A200090E00E94D7396093A2057093A30580933C
:101A3000A4059093A5050E947A2C82722091A2059C
:101A40009091A305882371F0822F881F8827881F13
:101A5000392F330F432F482B97FB552750F9485008
:101A600051090DC0822F881F8827881F392F330FF7
:101A7000432F482B97FB552750F9485F5F4F40FB9A
:101A800027F92093A205842F86959078982B50FBF8
:101A900097F99093A3058091A205482F441F4427EE
:101AA000441F9091A305592F550F252F242B97FBE9
:101AB000332730F92F3F310531F02CF08F778093A9
:101AC000A2051092A3054091A2055091A305609133
:101AD000A4057091A50580E190E00E94F5397BCFC7
:101AE000992309F478CF80917F0490918004019626
:101AF0009093800480937F040E948B2E9093A8057E
:101B00008093A70580917F0490918004049708F446
:101B100062CF1092800410927F045DCF81E008951F
:101B2000CF92DF92EF92FF926B017C010E94B92C61
:101B300056985E9825982D9826982E9827982F9835
:101B400090E0FC013197E730F105A8F4EC59FF4F24
:101B50000C946D39259A2D9A0EC0259A2D9A269AA5
:101B60002E9A09C0259A2D9A04C0259A2D9A269A54
:101B70002E9A279A2F9AC701B601FF90EF90DF9017
:101B8000CF90089581E008950C94DA0CCF93282F1C
:101B900030E0F901EF5DF64FC491F901EF55F64FD2
:101BA0002491222359F081EE0E942C228C2F0E9436
:101BB0002C228C2F0E94432381EE04C08C2F0E9484
:101BC0002C228C2FCF910C9443230F931F93CF93F0
:101BD000DF93EC01062FFE018491882359F19E01C9
:101BE0002F5F3F4F813041F4E901F9011491812FBA
:101BF0000E942C22812F0DC0823031F4E901F901BD
:101C000084910E942C220AC0833031F4E901F90149
:101C100084910E94432302C00E94C60D2196802F0A
:101C20008823C9F2EFE9FFE03197F1F700C0000027
:101C30008150F6CFDF91CF911F910F91089560E011
:101C40000C94E50D0E94092D811102C00E94772D90
:101C50000E94C81B0E9492130C9435080E942A1BF4
:101C600080918204811102C00E94F214809182044A
:101C700090E001966BE070E00E9437398093820417
:101C80000C94BA06282F2F7041F0822F90E02A3052
:101C900010F44D9608950697089587E290E0089510
:101CA00008950C94500E0C94510E08950E947126C4
:101CB0000E94550E2FEF84E39CE02150804090401D
:101CC000E1F700C000000C94E72EFF920F931F93E2
:101CD000CF93DF938C01FC01C081D1818091DE0420
:101CE000811113C08281882349F0CE010E94A72B65
:101CF000F82E682FCE010E944A2B04C0CE010E940C
:101D00007A2BF82EBE018F2D04C0CE010E94A72B86
:101D1000BE010E940011EC01B8010E94C40D88238D
:101D200009F466C2B801CE010E940D14882309F49B
:101D30005FC2CC3CFCE5DF0741F4F80182818823D7
:101D400009F456C20E94121D53C2CD3C8CE5D8073F
:101D500008F01EC1C43C9CE5D90761F4F8018281FA
:101D6000882309F445C20E947A2C8272E1F40E9411
:101D7000271C3EC2C53CECE5DE0708F0C7C0C531F4
:101D8000FCE5DF0798F0C23CFCE5DF0709F48CC0F6
:101D900008F492C0F8018281882309F429C20E94C4
:101DA0007A2C827221F70E940D1C22C2C2308CE56F
:101DB000D80708F452C0F8018281882309F459C079
:101DC0000E94092D811102C00E94772D0E941C2DB6
:101DD00090E09093160780931507FE01E350FC45B1
:101DE000E231F10530F4E559FF4F809115070C946D
:101DF0006D3980911507816027C0826025C084609D
:101E000023C0806121C080621FC080641DC08068C3
:101E10001BC08460886018C08E7F16C08D7F14C080
:101E20008B7F12C08F7E10C08F7D0EC08F7B0CC049
:101E30008F770AC08B7F877F07C087FB222720F917
:101E400091E0922790FB87F9809315078091150701
:101E50000E94202D0E947126CBC1C1159CE5D90797
:101E600081F0C130DC45A9F081E080938804809343
:101E70008904C801DF91CF911F910F91FF900C94BD
:101E8000C20DF8018281882309F4B2C10E94560E66
:101E9000AFC1F8018281882309F4AAC180917D0530
:101EA000816080937D05A4C1F8018281882309F4B3
:101EB0009FC10E94FF1B9CC1C631DC45A9F60E9450
:101EC0007A2C282FF801828140919C0150919D012C
:101ED000882379F02A7A91E009F490E090938304C2
:101EE000911102C069E201C065E3CA010E94DE2DC2
:101EF0000AC080918304811102C069E201C065E3D8
:101F0000CA010E94E92D0E94472C72C1F80182810A
:101F1000C83CFCE5DF0731F4882309F469C10E945D
:101F2000B31C66C1C93C9CE5D907C8F4C63CECE5C6
:101F3000DE0731F4882309F45BC10E946D1C58C18F
:101F4000C73CDC4530F4882309F452C10E94411C8F
:101F50004FC1882309F44CC10E949D1C49C1CA3C51
:101F60009CE5D90731F4882309F442C10E94E31C9F
:101F70003FC1CB3CDC4530F4882309F439C10E94D1
:101F8000CD1C36C1882309F433C10E94FD1C30C129
:101F9000C43DFCE5DF0791F4F8018281882309F450
:101FA00027C10E94441D893128F00E94441D8232BD
:101FB00008F4F9CE89E10E942B1D1AC1C53D8CE5BC
:101FC000D80708F068C0F8018281C03DFCE5DF0752
:101FD00071F4882309F40CC10E94441D893028F053
:101FE0000E94441D8E3008F4DECE89E0E4CFC13D6E
:101FF0009CE5D90740F5CE3CECE5DE0771F488237B
:1020000009F4F6C00E94441D823028F00E94441D4D
:10201000853008F4C8CE82E0CECFCF3CDC4528F432
:10202000882309F4E5C081E0C6CF882309F4E0C025
:102030000E94441D863028F00E94441D883008F418
:10204000B2CE86E0B8CFC23D9CE5D90771F48823B3
:1020500009F4CEC00E94441D853128F00E94441D21
:10206000873108F4A0CE85E1A6CFC33DDC4570F4EE
:10207000882309F4BDC00E94441D8F3028F00E94BF
:10208000441D843108F48FCE8FE095CF882309F466
:10209000AFC088E190CFC83DFCE5DF0759F5F801F6
:1020A0008281882361F0109289040E948B2E909384
:1020B00087048093860480E20E94AA2399C08091BD
:1020C0008904882321F080E20E94B12391C080918D
:1020D0008604909187040E94972E883C910598F77A
:1020E00080E20E94B12388E20E942C2288E20E94B2
:1020F00043237EC0C93D8CE5D80708F058C0F801DD
:102100008281C63DFCE5DF0751F5882351F010922E
:1021100088040E948B2E909385048093840482E02F
:10212000CBCF0E947A2C85FF05C081E08093880484
:10213000809389048091880481110FC08091840468
:10214000909185040E94972E883C910530F486E298
:102150000E942C2286E20E94432382E0B5CFC73D35
:10216000DC4528F4882309F443C083E224CF81119D
:102170009ACF0E947A2C81FF05C081E08093880469
:10218000809389048091890481119DCF8091860478
:10219000909187040E94972E883C910508F093CF78
:1021A00087E20E942C2287E20E9443238CCFCC3D01
:1021B000ECE5DE0741F4F80182818823C9F082E072
:1021C0000E94693115C0CD3DFCE5DF0739F4F80107
:1021D0008281882369F00E94772D0AC0CB3DDC45BF
:1021E00009F042CEF8018281882311F080E0E8CF27
:1021F00080E0DF91CF911F910F91FF900895089596
:1022000096E0799FF001112494E5899FE00DF11D7E
:102210001124E60FF11DEE0FFF1FEF5CFA4F8591C1
:1022200094910895880F991FFC01E353FE4F859107
:1022300094910895CF93DF930E9400110E94DB12C6
:10224000EC01811520E59207F0F5811530E4930744
:1022500008F028C1883E910500F5803E910508F000
:10226000A6C1883A910570F4853A910508F0A3C09B
:102270008130910509F49BC108F44CC1049708F022
:1022800096C148C18F3B910508F4A0C0803C9105E0
:1022900008F440C1805C9109F8C08115904258F45F
:1022A000C11581E0D80708F082C1C03FD10508F40C
:1022B00031C1D0657CC1C11590E3D90708F0E8C0F1
:1022C000CE019F70E2C0811525E5920708F043C05A
:1022D000811534E5930708F0FCC0811542E59407A9
:1022E00008F5C11581E5D80708F0DFC08C2F837091
:1022F00021E030E002C0220F331F8A95E2F73C68EC
:10230000CE0154E0969587955A95E1F78370382B66
:10231000CF70C695C69540E2C49FE0011124C22B40
:10232000D32B45C1282F2695269583709927C11553
:10233000D34508F0BFC040E2249F90011124C1E0C2
:10234000D0E002C0CC0FDD1F8A95E2F72C2B3D2B8D
:10235000E901DC682CC181154AE59407A0F4C11598
:1023600089E5D80708F0C4C0C11596E5D90708F477
:10237000B5C0C11528E5D20708F4CCC0DC2FCC27A6
:10238000C06FD06A14C181153BE5930708F4C2C041
:1023900081154CE5940708F4BAC090568115904217
:1023A00008F0B8C08D2F8F710E945813DD27D062BE
:1023B0008F71D82BFCC0853A910509F4AEC0863ADE
:1023C000910509F0ADC0C2E8D0E4F1C0883A9105AA
:1023D00009F4A9C0893A910509F4A8C08A3A91057F
:1023E00009F4A7C08B3A910509F4A6C08C3A91056F
:1023F00009F4A5C08B3B910509F4A4C08C3B910561
:1024000009F4A3C08D3A910509F4A2C0803B91055F
:1024100009F4A1C08E3A910509F4A0C08F3A910544
:1024200009F49FC0813B910509F49EC0823B910550
:1024300009F49DC0833B910509F49CC0843B910540
:1024400009F49BC0853B910509F49AC0863B910530
:1024500009F499C0873B910509F498C0883B910520
:1024600009F497C0893B910509F496C08D3B91050D
:1024700009F495C08E3B910509F494C08A3B9105FF
:1024800009F493C0C0E0D4E492C00E9412113DC090
:10249000CE019927D3FF03C0EC01D86C88C0EC01B2
:1024A000D06C85C0DF70D06A82C0DC2FCC27C16FB2
:1024B000D06A7DC040E2249F90011124C1E0D0E0A9
:1024C00002C0CC0FDD1F8A95E2F7C22BD32BDA684E
:1024D0006EC0D82FCC27C46FD06A69C08C2F0E94E1
:1024E00058138F71C82FD0E0DC2FCC27D0625FC08B
:1024F0002C2F2F70206E30E0306A84E0D695C7957F
:102500008A95E1F7CF70C9019C2BEC0150C0DD2703
:10251000D0664DC0C0E0D0E04AC0C1E8D0E447C0BA
:10252000C3E8D0E444C0C2EED4E441C0C9EED4E470
:102530003EC0CAEED4E43BC0C5EBD4E438C0C6EB21
:10254000D4E435C0C3EBD4E432C0C4EBD4E42FC030
:10255000C7EBD4E42CC0CCECD4E429C0CDECD4E45B
:1025600026C0C3E8D5E423C0CAE8D5E420C0C2E948
:10257000D5E41DC0C4E9D5E41AC0C1E2D6E417C051
:10258000C3E2D6E414C0C4E2D6E411C0C5E2D6E486
:102590000EC0C6E2D6E40BC0C7E2D6E408C0CFE660
:1025A000D4E405C0C0E7D4E402C0CAE2D6E4CE0158
:1025B000DF91CF9108958238910549F1B0F48133CC
:1025C000910509F458C048F48932910509F44EC0C8
:1025D0008A32910509F454C008958533910509F4B0
:1025E00040C08933910599F00895833E910529F102
:1025F00038F4803E910591F0823E9105A1F0089556
:10260000863E9105F9F0873E910531F108952091BC
:10261000150720FD3AC021FD38C0089580911507A7
:1026200080FD35C032C08091150782FF32C0809195
:10263000150784FD30C083EE39C08091150782FDF7
:1026400028C0F5CF8091150783FF27C0809115071B
:1026500084FD21C087EE2AC08091150783FD1DC02F
:10266000F5CF8091150785FD1AC01BC08091150715
:1026700085FD17C014C08091150786FD14C015C0D4
:102680008091150786FD11C00EC080EE0FC089E352
:102690000DC082EE0BC080E009C086EE07C089E263
:1026A00005C085E303C08AE201C081E390E008959C
:1026B0009091150792FF0DC0282F2871283019F42A
:1026C000877F846006C0282F2471243011F48B7F0B
:1026D000886093FF0DC0282F2871283119F4877E58
:1026E000846106C0282F2471243111F48B7E886107
:1026F00094FD877E0895CF93DF93813020E8920781
:1027000068F0FB012281222349F0EC010E94A8130A
:10271000CE019F770E94F0130E94DD1381E0DF91CC
:10272000CF9108958CE090E00E94CF3990E0A0E036
:10273000B0E08093A9059093AA05A093AB05B09350
:10274000AC0508956091A9058CE090E00C94E33904
:102750000E947A2C80938A040E948D2C8091A90576
:10276000813071F048F08230D9F08430F9F486EE8F
:102770000E94A22388E118C082EE0E942C2216C07B
:1027800080EE0E942C2281EE0E942C2288E10E9481
:10279000A22381EE0E94432380EE0E94432306C0C1
:1027A00082EE0E942C2287E50E94A2238FE39CE9FF
:1027B0000197F1F700C0000008958091A9058130CC
:1027C00021F038F0823029F007C08CE20E94A22369
:1027D00003C082EE0E94432380918A040C948A2CC9
:1027E0000F931F93CF93DF938C01CCE0D0E0C8010F
:1027F0000C2E02C0969587950A94E2F78F700E947E
:10280000420E0E94A2232497CC3F8FEFD80779F77E
:10281000DF91CF911F910F9108950F931F93CF9345
:10282000DF93EC018B01FB018281882319F1C23E09
:10283000FCE5DF07C1F050F4C03EECE5DE0781F0B7
:10284000C13EFCE5DF07B1F481E010C0C33E8CE57A
:10285000D80759F0C43EECE5DE0761F484E006C019
:102860001092A90505C082E001C083E08093A9050C
:102870000E94A213B801CE01DF91CF911F910F9159
:102880000C947B13CF92DF92EF92FF920F931F93E2
:10289000CF93DF93E82FF82F711103C0682F782FA3
:1028A0007EC0062F10E0C72FD0E0E82EF12CC80123
:1028B0006BE270E00E9423399B0145ED4203B001B9
:1028C000439F700D1124060F171F86E0809FB001F3
:1028D000819F700D11244FEF50E0CA018C1B9D0B9E
:1028E0008E9DD0018F9DB00D9E9DB00D11248B2F1C
:1028F0006C9F80016D9F100D7C9F100D1124012F86
:1029000011276A01C01AD10ACE9C8001CF9C100DFC
:10291000DE9C100D11246A01C61AD70ACC9EB001A4
:10292000CD9E700DDC9E700D1124672F7727461BFE
:10293000570B4E9DE0014F9DD00D5E9DD00D112493
:102940007D2F2230310599F04CF421153105C9F065
:1029500021303105A1F47E2FE12F13C02330310542
:1029600051F02430310559F4ED2F7B2F06C0EB2FA9
:102970008D2F7F2F06C0712FEB2F8F2F02C07B2F43
:10298000812FF0E0EF5DF54F6491E72FF0E0EF5D10
:10299000F54F7491E82FF0E0EF5DF54F8491DF91F2
:1029A000CF911F910F91FF90EF90DF90CF900895FE
:1029B00080E190E00C94D739AB01BC0180E190E05C
:1029C0000C94F539E2EAF5E08DE080831092A305DE
:1029D0008FEF8283838314826081718182819381EE
:1029E0000C94DC14E091D703F091D8030994E091A2
:1029F000D303F091D4030994E091D503F091D60369
:102A0000099440E060E080E00C94FC14E2EAF5E018
:102A10006081862F881F8827881F6091A305660F15
:102A2000682B728183810E944214962F672F482F52
:102A3000892F0C94FC14DF92EF92FF920F931F9357
:102A4000CF93DF938091A205881F8827881F9091DC
:102A5000A305492F440F242F282B97FB332730F948
:102A6000C9018C549F4F68E671E00E943739821B80
:102A7000930B8038910514F09A9505C081384FEF7B
:102A800094070CF4939597FD0396959587959595E6
:102A90008795C82F8091A405281B310937FF02C0F4
:102AA0002D5F3F4F3595279535952795D22FD0909F
:102AB000A5059BEAE92E91E0F92E00E010E0F70170
:102AC000208122952F706091A205962F991F99273A
:102AD000991F6091A305660F692B2C9F600D11242F
:102AE0007091A4052D9F700D11248D2D0E9442140C
:102AF000472F282FC8010E94F7140F5F1F4FF4E0E3
:102B0000EF0EF11C00331105D1F6DF91CF911F912B
:102B10000F91FF90EF90DF900895AF92BF92CF9208
:102B2000DF92EF92FF920F931F93CF93DF931F9249
:102B3000CDB7DEB7D82E2091A205221F2227221F53
:102B40008091A305982F990FB22EB92A87FB882769
:102B500080F9EB2DF82FCF018C549F4F68E671E080
:102B60000E9437399C012E1B3F0B37FF02C02D5F9F
:102B70003F4F3595279535952795A22EC090A405F2
:102B80000091910410919204209193043091940447
:102B90009091A605992359F0692F70E08AE090E0A2
:102BA0000E943739CB01770FAA0BBB0B04C08AE018
:102BB00090E0A0E0B0E080239123A223B323892BEF
:102BC0008A2B8B2B41F40E94BF3960E370E00E9496
:102BD0003739082F01C00FEFE12CF12C10E0D11094
:102BE00003C0E016F106A9F40E94BF3983706B2D73
:102BF0008A9D600D112469830E94BF3969817C2DF3
:102C00008091A5050E944214472F282FC7010E94DA
:102C1000F7148FEFE81AF80A80E3E816F104F9F6E2
:102C20000F90DF91CF911F910F91FF90EF90DF9068
:102C3000CF90BF90AF900895CF92DF92EF92FF9226
:102C40001F93CF93DF938091910490919204A09170
:102C50009304B09194040090A60504C0880F991FB6
:102C6000AA1FBB1F0A94D2F7182F89EAC82E81E049
:102C7000D82EC0E0D0E09FE3E92EF12CF601808150
:102C80008F3FE1F0FE01E355FA4F8081F4E08F9F22
:102C9000C00111248034910524F4B701681B790B1D
:102CA00002C060E070E0610F7FEF8091A5050E9497
:102CB0004214472F282FCE010E94F714219624E0BA
:102CC000C20ED11CC033D105C9F6DF91CF911F913F
:102CD000FF90EF90DF90CF900895CF92DF92EF9228
:102CE000FF920F931F93CF93DF9380919104909164
:102CF0009204A0919304B09194040090A60504C09E
:102D0000880F991FAA1FBB1F0A94D2F7D82EC09014
:102D1000A50509EA11E0C0E0D0E08FE3E82EF12C30
:102D2000F80180818F3FF9F0FE01E355FA4F2081D1
:102D3000F4E02F9F90011124203431052CF4C701B9
:102D4000821B930B9C0102C020E030E0F8016181FE
:102D50006D0D620F7FEF8C2D0E944214472F282F9C
:102D6000CE010E94F71421960C5F1F4FC033D1058E
:102D7000B9F6DF91CF911F910F91FF90EF90DF9007
:102D8000CF900895CF92DF92EF92FF920F931F930F
:102D9000CF93DF938091910490919204A09193043A
:102DA000B09194040090A60504C0880F991FAA1F33
:102DB000BB1F0A94D2F7D82EC090A50509EA11E0EE
:102DC000C0E0D0E08FE3E82EF12CF80180818F3F46
:102DD000F9F0FE01E355FA4F2081F4E02F9F9001B6
:102DE0001124203431052CF4C701821B930B9C0164
:102DF00002C020E030E0F80162816D0D620F7FEFCC
:102E00008C2D0E944214472F282FCE010E94F714C8
:102E100021960C5F1F4FC033D105B9F6DF91CF91DA
:102E20001F910F91FF90EF90DF90CF9008952F9218
:102E30003F924F925F926F927F928F929F92AF924A
:102E4000BF92CF92DF92EF92FF920F931F93CF9397
:102E5000DF933090A4052090A505609191047091B6
:102E6000920480919304909194040E9451372BED29
:102E70003FE049E450E40E94613820E030E040E067
:102E80005CE30E9461386B017C010E94A43620E063
:102E900030E040E05DE30E9461382B013C01C70156
:102EA000B6010E94CE3820E030E040EE52E40E94AD
:102EB000A9364B015C01CBEAD1E000E010E068816B
:102EC00070E080E090E00E94533720E030E040E086
:102ED00052E40E943236A30192010E9461386B01D4
:102EE0007C01FE013197608170E080E090E00E94FB
:102EF000533720E030E040EE52E40E943236A50124
:102F000094010E9461389B01AC01C701B6010E9487
:102F1000333620E030E044E353E40E9461386B0133
:102F20007C018091A205881F8827881F9091A305A6
:102F3000292F220F622F682B97FB772770F9072E16
:102F4000000C880B990B0E9453379B01AC01C70101
:102F5000B6010E9433360E942237732D822D0E94C3
:102F60004214472F282FC8010E94F7140F5F1F4FEC
:102F700024960033110509F0A2CFDF91CF911F9164
:102F80000F91FF90EF90DF90CF90BF90AF909F9008
:102F90008F907F906F905F904F903F902F9008950B
:102FA0002F923F924F925F926F927F928F929F9259
:102FB000AF92BF92CF92DF92EF92FF920F931F9347
:102FC000CF93DF93CDB7DEB728970FB6F894DEBF67
:102FD0000FBECDBF8091A4058D839091A5059E83E2
:102FE0006091910470919204809193049091940463
:102FF0000E9451372BED3FE049E450E40E946138D4
:1030000020E030E040E05CE30E9461386B017C012D
:103010000E94A4362B013C01C701B6010E94CE38A4
:1030200069837A838B839C83EBEAF1E0F887EF83F3
:1030300000E010E0EF81F88531972080EF81F8857E
:10304000B0803090A605332079F0632D70E080E0E9
:1030500090E00E94533720E030E040EC5FE30E94B4
:1030600061386B017C0106C0C12CD12C90ECE92E9B
:103070009FE3F92E6B2D70E080E090E00E945337C3
:1030800020E030E040E052E40E9432369B01AC0187
:10309000C701B6010E946138A30192010E94613804
:1030A0004B015C01332079F0632D70E080E090E00B
:1030B0000E94533720E030E040EC5FE30E9461382B
:1030C0006B017C0106C0C12CD12C80ECE82E8FE373
:1030D000F82E622D70E080E090E00E94533720E0EF
:1030E00030E040EE52E40E9432369B01AC01C70151
:1030F000B6010E94613829813A814B815C810E942E
:1031000061389B01AC01C501B4010E9433366B01EB
:103110007C018091A205881F8827881F9091A305B4
:10312000292F220F622F682B97FB772770F9072E24
:10313000000C880B990B0E9453379B01AC01C7010F
:10314000B6010E9433360E9422377D818E810E9413
:103150004214472F282FC8010E94F7140F5F1F4FFA
:103160008F819885049698878F830033110509F025
:1031700061CF28960FB6F894DEBF0FBECDBFDF91AA
:10318000CF911F910F91FF90EF90DF90CF90BF9064
:10319000AF909F908F907F906F905F904F903F90F7
:1031A0002F9008952F923F924F925F926F927F924D
:1031B0008F929F92AF92BF92CF92DF92EF92FF9247
:1031C0000F931F93CF93DF9300D000D01F92CDB702
:1031D000DEB72091A4052A838091A5058B83609199
:1031E00091047091920480919304909194040E94B0
:1031F00051372BED3FE049E450E40E94613820E074
:1032000030E040E05CE30E9461386B017C010E9489
:10321000A4362B013C01C701B6010E94CE384B01F8
:103220005C01ABEAB1E0BD83AC8300E010E0EC816F
:10323000FD813197B081B983EC81FD813080209090
:10324000A605222069F0622D70E0660F771F072E19
:10325000000C880B990B0E9453376B017C0105C051
:10326000C12CD12CE12C20E4F22E632D70E080E003
:1032700090E00E94533720E030E040E052E40E94AA
:1032800032369B01AC01C701B6010E946138A3012F
:1032900092010E9461386B017C01222021F0312CC7
:1032A000220C331C03C082E0282E312CF9816F2FB1
:1032B00070E080E090E00E94533720E030E040EE84
:1032C00052E40E9432360E941B379B0177FF04C0F4
:1032D00022273327261B370B82E490E0821B930BB7
:1032E000289EB001299E700D389E700D1124072E66
:1032F000000C880B990B0E945337A50194010E9482
:1033000061389B01AC01C701B6010E9433366B01E5
:103310007C018091A205881F8827881F9091A305B2
:10332000292F220F622F682B97FB772770F9072E22
:10333000000C880B990B0E9453379B01AC01C7010D
:10334000B6010E9433360E9422377A818B810E9417
:103350004214472F282FC8010E94F7140F5F1F4FF8
:103360008C819D8104969D838C830033110509F027
:103370005ECF0F900F900F900F900F90DF91CF9135
:103380001F910F91FF90EF90DF90CF90BF90AF9083
:103390009F908F907F906F905F904F903F902F9075
:1033A00008952F923F924F925F926F927F928F92E9
:1033B0009F92AF92BF92CF92DF92EF92FF920F93C4
:1033C0001F93CF93DF9300D01F92CDB7DEB720902D
:1033D000A4058091A5058983609191047091920460
:1033E00080919304909194040E94513720E030E042
:1033F00040E85BE30E94613820E030E040E653E4BF
:103400000E9461382B013C01EBEAF1E0FB83EA8387
:1034100000E010E0EA81FB8131973080EA81FB8196
:10342000E080F090A605FF2079F06F2D70E080E03D
:1034300090E00E94533720E030E040EC5FE30E94D0
:1034400061384B015C0106C0812C912C90ECA92EB7
:103450009FE3B92E6E2D70E080E090E00E9453371C
:1034600020E030E040E052E40E9432360E941B37F8
:103470009B0177FF04C022273327261B370BB90196
:10348000330F880B990B0E9453379B01AC01C50188
:10349000B4010E9461382EE23DEB4BEB53EB0E94EE
:1034A00061384B015C01FF2079F06F2D70E080E006
:1034B00090E00E94533720E030E040EC5FE30E9450
:1034C00061386B017C0106C0C12CD12C80ECE82E48
:1034D0008FE3F82E632D70E080E090E00E94533778
:1034E000A30192010E9432369B01AC01C701B601D3
:1034F0000E9461389B01AC01C501B4010E943236C3
:103500006B017C018091A205881F8827881F9091FC
:10351000A305292F220F622F682B97FB772770F9BD
:10352000072E000C880B990B0E9453379B01AC01AE
:10353000C701B6010E9433360E942237722D89815D
:103540000E944214472F282FC8010E94F7140F5FD2
:103550001F4F8A819B8104969B838A8300331105C8
:1035600009F058CF0F900F900F90DF91CF911F91DE
:103570000F91FF90EF90DF90CF90BF90AF909F9012
:103580008F907F906F905F904F903F902F90089515
:10359000CF92DF92FF920F931F93CF93DF931F92EF
:1035A000CDB7DEB7F82E00919104109192042091CE
:1035B0009304309194049091A605992359F0692FB2
:1035C00070E08AE090E00E943739AB01770F660B1C
:1035D000770B04C04AE050E060E070E040235123E4
:1035E00062237323452B462B472B39F40E94BF39A6
:1035F00060E370E00E94373901C08FEF00E010E017
:10360000C82ED12CF11003C00C151D0581F40E94A9
:10361000BF3989830E94BF39782F69818091A505C0
:103620000E944214472F282FC8010E94F7140F5FF1
:103630001F4F0033110531F70F90DF91CF911F918C
:103640000F91FF90DF90CF90089508950E94251B61
:103650000C94690C4091A20540FD0AC00E9401151E
:103660000E94261B8091A205817080939B01089582
:1036700080918B04843120F48F5F80938B040895B4
:103680008091910490919204A0919304B09194043C
:103690000196A11DB11D8093910490939204A09373
:1036A0009304B093940480918D0490918E04A09122
:1036B0008F04B09190048F3F2FEF9207A207B207BB
:1036C00059F00196A11DB11D80938D0490938E0435
:1036D000A0938F04B093900480918C04EDEAF5E000
:1036E00090819F3F61F09E3F41F4282F30E02230CF
:1036F000310514F0815001C080E09F5F90833196C6
:1037000095E0ED3DF90761F780938C04E42FE69591
:10371000EF7380919A01E81307C081E090919B01BB
:10372000913019F480E001C081E08170E0939A014A
:1037300091E090939B014E2F50E0FA013197EB30CE
:10374000F10520F5E358FF4F0C946D390E940615E2
:103750001DC00E9417171AC00E941B1517C00E9497
:103760008D1514C00E941C1611C00E946D160EC04B
:103770000E94C2160BC00E94D01708C00E94D21827
:1037800005C00E94D11902C00E94C81A0C94261BC1
:10379000E091D103F091D2030995EDEAF5E08FEFC6
:1037A000819395E0ED3DF907D9F70E94092D81112C
:1037B00004C00E94772D0E94E2140E94D8146093E6
:1037C000A2057093A3058093A4059093A5056E7739
:1037D00061F40E94E2140E94D8146093A2057093D1
:1037E000A3058093A4059093A50508956091910485
:1037F0007091920480919304909194040895E2EA68
:10380000F5E08081982F909590FB80F9808360810E
:103810007181828193810C94DC149091A205892F8F
:1038200086958F5F8F7391788C3018F4880F892B71
:1038300002C0892F82608093A2056091A2057091D9
:10384000A3058091A4059091A5050C94DC1490919A
:10385000A205892F8695815C8F739178882319F052
:10386000880F892B02C0892F86618093A205609101
:10387000A2057091A3058091A4059091A5050C94D3
:10388000DC148091A205982F991F9927991F809188
:10389000A305880F892B90E008968F3F910519F0BA
:1038A00014F08FEF90E02091A20580FB27F9209380
:1038B000A205282F26958091A3058078822B90FB66
:1038C00087F98093A3056091A2057091A30580916B
:1038D000A4059091A5050C94DC148091A205982F65
:1038E000991F9927991F8091A305880F892B90E034
:1038F000089797FF02C080E090E08F3F910519F094
:1039000014F08FEF90E02091A20580FB27F920931F
:10391000A205282F26958091A3058078822B90FB05
:1039200087F98093A3056091A2057091A30580910A
:10393000A4059091A5050C94DC148091A40590E059
:1039400008968F3F910519F014F08FEF90E0809367
:10395000A4056091A2057091A3058091A4059091A2
:10396000A5050C94DC148091A40590E0089797FFBE
:1039700002C080E090E08F3F910519F014F08FEFC6
:1039800090E08093A4056091A2057091A3058091B9
:10399000A4059091A5050C94DC148091A50590E0F8
:1039A00008968F3F910519F014F08FEF90E0809307
:1039B000A5056091A2057091A3058091A405909141
:1039C000A5050C94DC148091A50590E0089797FF5D
:1039D00002C080E090E08F3F910519F014F08FEF66
:1039E00090E08093A5056091A2057091A305809158
:1039F000A4059091A5050C94DC148091A60590E097
:103A000001968430910514F083E090E08093A60540
:103A10006091A2057091A3058091A4059091A505E0
:103A20000C94DC148091A60590E0019797FF02C0EA
:103A300080E090E08430910514F083E090E0809382
:103A4000A6056091A2057091A3058091A4059091AF
:103A5000A5050C94DC14E2EAF5E08F73982F990F1A
:103A600080818178892B80836081718182819381BB
:103A70000C94DC14E2EAF5E08F73982F990F8081A3
:103A80008178892B808308958091A20586958F7314
:103A90000895E2EAF5E0208180FB27F92083A3EA7C
:103AA000B5E086952C912078822B90FB87F98C933A
:103AB0006283438360817181828193810C94DC14E1
:103AC000E2EAF5E0208180FB27F92083A3EAB5E054
:103AD00086952C912078822B90FB87F98C936283BA
:103AE0004383089567E784E70C94471FCF930E94B0
:103AF000861F84E70E94CC1D87E70E94CC1DC0E092
:103B000021E041E061E08C2F0E945E1ECF5FC03358
:103B1000B9F767E784E7CF910C945A1FEDEFF6E011
:103B20006083418324E630E042E050E0BF01880F2B
:103B30000C945C20EF92FF921F93CF93DF937B0155
:103B4000182F110FC0E0D0E08C2F8C5D8093FD0604
:103B500020E030E0F901EC0FFD1FEE0DFF1D80812C
:103B6000F901E350F94F81832F5F3F4F2031310539
:103B700089F724E630E041E150E06DEF76E0812FF7
:103B80000E945C206096C039D105F1F6DF91CF919B
:103B90001F91FF90EF900895CF93DF93C82F4BE0D4
:103BA0006DEF0E948E1D40E06AE08C2F0E948E1DFA
:103BB0008FE39CE90197F1F700C0000040E060E06E
:103BC0008C2F0E948E1D40E061E08C2F0E948E1D84
:103BD00040E066E08C2F0E948E1D40E06DEF8C2F40
:103BE0000E948E1DD0E040E06D2F8C2F0E948E1D14
:103BF000DF5FD231C1F740E06D2F8C2F0E948E1D08
:103C0000DF5FD432C1F740E06D2F8C2F0E948E1DF4
:103C1000DF5FD43BC1F74BE06DEF8C2F0E948E1D10
:103C200041E06AE08C2F0E948E1D40E06DEF8C2FEA
:103C3000DF91CF910C948E1D8033910520F5880F74
:103C4000991F880F991FFC01E759FD4F528133815D
:103C5000808183707181E0E98E9FC00111248352BD
:103C60009A4FFC01E70FF11DB4976083FC01E50F4B
:103C7000F11DB4974083830F911DFC01B4972083FD
:103C800081E08093BA040895FF920F931F93CF931E
:103C9000DF93182F062FF42EC0E0D0E02F2D402FF9
:103CA000612FCE010E941C1E2196C033D105B1F7B1
:103CB000DF91CF911F910F91FF9008954F925F92E6
:103CC0007F928F929F92AF92BF92CF92DF92EF92AC
:103CD000FF920F931F93CF93DF93362F54E0859F6E
:103CE000C0011124FC01E759FD4FA081A3707A2E79
:103CF000618170E0CB0184978C0197FF02C0095F5E
:103D00001F4FA3E015950795AA95E1F7628170E032
:103D10007B0154E2E51AF108E701F7FC279673E00E
:103D2000D595C7957A95E1F7638170E04B01E4E2A0
:103D30008E1A9108F40197FC37962F0153E05594A1
:103D400047945A95E1F768E0A62EB12CB5010E9480
:103D500037396C01C701B5010E9437397C01C401B4
:103D6000B5010E943739A72DB0E01127DD24332398
:103D7000A1F032E13A9FB0013B9F700D1124060F74
:103D8000171F0A561B4F61E070E001C0660FCA940E
:103D9000EAF7F8013081632B14C032E13A9FB00199
:103DA0003B9F700D1124060F171F0A561B4F61E031
:103DB00070E001C0660FCA94EAF76095F80130819F
:103DC00063236083DD27FF2432E1442391F03A9F8F
:103DD000A0013B9F500D1124C40FD51FCA56DB4FC5
:103DE00041E050E001C0440FEA94EAF73881432BE8
:103DF00012C03A9FA0013B9F500D1124C40FD51F44
:103E0000CA56DB4F41E050E001C0440FEA94EAF7A4
:103E10004095388143234883A2015527992792E191
:103E20009A9FF0019B9FF00D1124E40FF51FEA56B5
:103E3000FB4F222361F021E030E0A90102C0440FD2
:103E4000551F8A95E2F7CA019081892B0CC021E0A9
:103E500030E0A90102C0440F551F8A95E2F7CA015C
:103E6000809590818923808381E080939504DF9100
:103E7000CF911F910F91FF90EF90DF90CF90BF9067
:103E8000AF909F908F907F905F904F900895CF93C9
:103E90009091BA04992351F0C62F6DED75E00E9400
:103EA0009A1D6DE676E08C2F0E949A1D1092BA043E
:103EB000CF910895EF92FF920F931F93CF93DF93CB
:103EC000909195049923D9F0162F082F86E9E82EB2
:103ED00084E0F82EC0E0D0E0F70141917F016C2F23
:103EE000802F0E948E1DFE01EA56FB4F42896C2FE7
:103EF000812F0E948E1D2196C231D10569F7DF9175
:103F0000CF911F910F91FF90EF9008951092B900FB
:103F10008CE08093B8000895EF92FF920F931F9367
:103F2000CF93DF93182FEB011092BC0084EA8093AB
:103F3000BC000E948B2E7C019091BC0097FD0EC0AE
:103F4000CF3F8FEFD807C1F30E948B2E8E199F09A8
:103F50008C179D0788F38EEF9FEF2EC09091B900CC
:103F6000987F983041F09091B900987F903119F086
:103F70008FEF9FEF21C01093BB0084E88093BC00BB
:103F80000E948B2E8C019091BC0097FD0CC0CF3FFE
:103F90008FEFD807C1F30E948B2E801B910B8C17DB
:103FA0009D0788F3D8CF8091B900887F883111F0C0
:103FB0008034F1F680E090E0DF91CF911F910F9176
:103FC000FF90EF9008950F931F93CF93DF93EB0132
:103FD0008093BB0084E88093BC000E948B2E8C01F0
:103FE0009091BC0097FD0EC0CF3F8FEFD807C1F373
:103FF0000E948B2E801B910B8C179D0788F38EEFF0
:104000009FEF0CC02091B900287F81E090E028321A
:1040100011F480E090E0919581959109DF91CF9125
:104020001F910F9108950F931F93CF93DF93EC018E
:1040300084E88093BC000E948B2E8C019091BC0080
:1040400097FD0EC0CF3F8FEFD807C1F30E948B2E94
:10405000801B910B8C179D0788F38EEF9FEF03C099
:104060008091BB0090E0DF91CF911F910F91089557
:104070000F931F93CF93DF93EC0184E98093BC00EF
:104080000E948B2E8C019091BC0094FF0EC0CF3FFC
:104090008FEFD807C1F30E948B2E801B910B8C17DA
:1040A0009D0788F38EEF9FEF02C080E090E0DF91E4
:1040B000CF911F910F910895CF92DF92EF92FF92CF
:1040C0000F931F93CF93DF936B017A018901B9019D
:1040D0000E948C1FFC01892BC9F4E601EC0CFD1C2D
:1040E000CE15DF0541F0B80189910E94E31FFC0164
:1040F000892BB1F30BC0C801DF91CF911F910F91B4
:10410000FF90EF90DF90CF900C943820CF01DF919B
:10411000CF911F910F91FF90EF90DF90CF90089576
:104120009093C0048093BF040895E091BF04F09180
:10413000C004309721F00190F081E02D099480E0D7
:104140000895E091BF04F091C004309799F0209158
:10415000A801222359F02091150727FF07C0DC0191
:104160002C9111962C93119725E02C930280F381CA
:10417000E02D099408952091BD043091BE0482176A
:10418000930771F09093BE048093BD04E091BF0447
:10419000F091C004309721F00680F781E02D09945A
:1041A00008952091BB043091BC048217930771F0ED
:1041B0009093BC048093BB04E091BF04F091C004D1
:1041C000309721F00084F185E02D0994089585B79A
:1041D000806885BF85B7806885BF089508950E946F
:1041E000E7200C94EE2081E008950E94822E0E9428
:1041F000BC060C94192FCF92DF92EF92FF920F938F
:104200001F93CF93DF93CDB7DEB72B970FB6F894FC
:10421000DEBF0FBECDBF0E948E070E94F32081112A
:1042200011C08FEF89838A831B820E948B2E81604D
:10423000782F9D838C8349815A816B818D810E9467
:10424000DD2156C082ECC82E84E0D82E00E010E0BC
:10425000E02E802F0E94D607F60141916F01F42EC7
:10426000F82631F40F5F1F4F0E30110589F7D9CFB3
:1042700090917D0591FF04C08B870E94DC078B85A0
:1042800020E030E04F2D50E0922FBA01022E02C004
:10429000759567950A94E2F760FF24C02E83EF823C
:1042A00021E030E0690102C0CC0CDD1C9A95E2F7F8
:1042B00090E08C219D21892B09F420E028870E9421
:1042C0008B2E8160782F9A8789874E815F816885E0
:1042D0008A850E94DD21F801EE53FB4F8081C826BC
:1042E000C08206C02F5F3F4F2630310569F6BACF36
:1042F0001091C1040E9495201817A1F00E949520EA
:104300008093C1042B960FB6F894DEBF0FBECDBFCD
:10431000DF91CF911F910F91FF90EF90DF90CF90A1
:104320000C94530E2B960FB6F894DEBF0FBECDBF84
:10433000DF91CF911F910F91FF90EF90DF90CF9081
:104340000895DC0111962C9111978C91682F70E0E3
:1043500041E050E001C0440F8A95EAF712968C9133
:10436000129730E0882329F08091E0048823E9F057
:1043700006C0F901E053FB4F90819423B1F086E031
:10438000829FF001839FF00D1124E60FF71FEE0FBF
:10439000FF1FE75DFC4F808191818D939C93F90114
:1043A000E053FB4F8081482B06C0F901E053FB4FDF
:1043B00040958081482340830895CF93DF93CDB704
:1043C000DEB72B970FB6F894DEBF0FBECDBF942F8C
:1043D0004F83252F588769877A878B874A855B8526
:1043E000452B21F02F3F09F59F3FF9F4DE0111968F
:1043F00086E0FD0111928A95E9F785E0FE01379686
:1044000001900D928A95E1F749815A816B817C81F7
:104410008D819E810E941B292B960FB6F894DEBFDA
:104420000FBECDBFDF91CF910895CE0107960E94B8
:10443000A121DCCFFC01808191810E94E82B929523
:104440009F70963041F48091E00491E08927809339
:10445000E0049093DF040895882309F413C1682FC2
:104460008238C1F40E94952081FD0CC169E38091DE
:104470009C0190919D010E94DE2D0E94472C2FEF00
:1044800081EE94E0215080409040E1F700C00000B0
:1044900069E319C08338F9F40E94952080FDF2C0C9
:1044A00063E580919C0190919D010E94DE2D0E9408
:1044B000472C2FEF81EE94E0215080409040E1F7AF
:1044C00000C0000063E580919C0190919D010E94D5
:1044D000E92D0C94472C8438C1F40E94952082FD6C
:1044E000D1C067E480919C0190919D010E94DE2DD6
:1044F0000E94472C2FEF81EE94E0215080409040A5
:10450000E1F700C0000067E4DECF8CEF860F813A50
:1045100038F480919C0190919D010E94DE2DD9CFAD
:1045200080E2860F883048F4677081E001C0880F10
:104530006A95EAF70E947D2CCCCF8BE5860F8330FD
:1045400070F4653A29F0663A31F083E890E005C0EE
:1045500081E890E002C082E890E00C94BB2088E5FE
:10456000860F873108F08EC0683A09F445C0693A71
:1045700009F445C06A3A09F445C06B3A09F445C0EC
:104580006C3A09F445C06B3B09F445C06C3B09F437
:1045900045C06D3A09F445C0603B09F445C06E3A28
:1045A00009F445C06F3A09F445C0613B09F445C0C0
:1045B000623B09F445C0633B09F445C0643B09F420
:1045C00045C0653B09F445C0663B09F445C0673BFF
:1045D00009F445C0683B09F445C0693B09F445C08E
:1045E0006D3B09F445C06E3B09F445C06A3B09F4D4
:1045F00045C080E090E044C082EE90E041C089EE8A
:1046000090E03EC08AEE90E03BC085EB90E038C081
:1046100086EB90E035C083EB90E032C084EB90E015
:104620002FC087EB90E02CC08CEC90E029C08DEC83
:1046300090E026C083E891E023C08AE891E020C0A2
:1046400082E991E01DC084E991E01AC081E292E024
:1046500017C083E292E014C084E292E011C085E2C8
:1046600092E00EC086E292E00BC087E292E008C0C2
:104670008FE690E005C080E790E002C08AE292E019
:104680000C94D1200895882309F45BC0682F8238E8
:1046900079F40E94952081FF54C069E380919C01C8
:1046A00090919D010E94DE2D0E94472C69E310C06D
:1046B0008338B1F40E94952080FF43C063E5809168
:1046C0009C0190919D010E94DE2D0E94472C63E584
:1046D00080919C0190919D010E94E92D0C94472CA2
:1046E000843879F40E94952082FF2BC067E4809182
:1046F0009C0190919D010E94DE2D0E94472C67E451
:10470000E7CF8CEF860F813A18F380E2860F88306E
:1047100048F4677081E001C0880F6A95EAF70E944B
:10472000832CDCCF8BE5860F833020F480E090E093
:104730000C94BB20685A673120F480E090E00C9420
:10474000D1200895CF93C82F0E942C228C2FCF9177
:104750000C944323882321F00E947D2C0C94472C39
:104760000895882321F00E94832C0C94472C0895EF
:104770008F929F92AF92BF92DF92EF92FF920F9330
:104780001F93CF93DF937C01D62FC72FFC010581A8
:1047900002950F70128111110E949D2C0E94402CD5
:1047A000882379F0112369F080E28D0F883048F07A
:1047B00082E00E94292C0E94402C91E0D82ED9261C
:1047C00001C0D12CAC2EA2948FE0A822B12CF5010F
:1047D000E857FF4F0C946D398C2F807FCF70882362
:1047E00011F0C295C07F112399F0CC2309F486C142
:1047F00080E28D0F883010F0D11104C08C2F0E9400
:104800007D2C03C08C2F0E94902C0E94472C76C1D7
:104810008D2F0E944323CC2309F4ECC180E28D0F3D
:10482000883010F0D11104C08C2F0E94832C03C05B
:104830008C2F0E94962C0E94472CDCC18C2F807FED
:10484000CF70803211F0C295C07FDD2319F0D130D6
:10485000C9F021C0112371F0002341F0013031F47F
:104860000E94B62C8C2B0E94B02CC4C10E94B62C86
:104870008C2BFDC0002319F0013009F4BBC10E944C
:10488000B32C11C0112321F0023008F0B3C107C0CE
:104890000111B0C108C0112321F001112FC18C2FCB
:1048A000E6C001113CC18C2FE8C08C2F86958695FF
:1048B000837090E0009719F0019761F09BC111237C
:1048C00021F08D2F9C2F937002C080E090E00E9419
:1048D000BB20A0C1112321F08D2F9C2F937002C00B
:1048E00080E090E00E94D12095C18C2F837009F068
:1048F00050C011118BC18D2F829586958770880FBE
:10490000880F9D2F9F70892E912CA12CB12C082EE1
:1049100004C0880C991CAA1CBB1C0A94D2F7D4FFB3
:1049200014C00FE010E020E030E0B901A80104C09D
:10493000440F551F661F771F8A95D2F7CB01BA0126
:10494000609570958095909503C060E070E0CB0114
:10495000C695C695C370D0E0C230D10561F0C330B2
:10496000D10581F0682979298A299B29219771F03D
:104970000E94602A4BC1682979298A299B290E94B3
:10498000722A44C10E94602AC501B4010E944E2AC5
:104990003DC1112319F08C2F817001C086958823A9
:1049A00009F434C18D2F829586958770880F880F02
:1049B0009D2F9F70892E912CA12CB12C082E04C004
:1049C000880C991CAA1CBB1C0A94D2F7D4FF14C0F3
:1049D0000FE010E020E030E0B901A80104C0440F6E
:1049E000551F661F771F8A95D2F7CB01BA016095D4
:1049F00070958095909503C060E070E0CB01C695FE
:104A0000C695C3704C2F50E04230510569F04330D9
:104A1000510589F0682979298A299B294130510556
:104A200071F00E94252BF2C0682979298A299B29D7
:104A30000E94372BEBC00E94252BC501B4010E94B8
:104A4000132BE4C08D2F90E0FC01E05EF109E5310D
:104A5000F10508F04FC0E856FF4F0C946D39DF7038
:104A60008C2F8F71112331F00E94AC2A8D2F0E9460
:104A7000AA23C0C00E94CD2A8D2F0E94B123BAC0A4
:104A8000112339F00111B6C08C2F8F710E94F22AC8
:104A9000B1C0023008F0AEC0F7CF112339F08C2F2F
:104AA0008F710E94AC2AA6C01123C9F38C2F8F717D
:104AB0000E94CD2A9FC0112329F08C2F8F710E9454
:104AC000972A98C00E94922A95C0112349F0CF716D
:104AD0008C2F0E94AC2A63E08C2F0E94202C8AC06D
:104AE00081E00E94292C023008F484C082E00E94F8
:104AF000292C80C0112331F0002389F28D2F0E94D0
:104B00002C2278C0002391F2D93349F45FEF67EE8D
:104B100073E0515060407040E1F700C000008D2FFD
:104B20000E94432367C04C2F4F706D2FC7010E9416
:104B3000CD0C0E94BF296EC0D23FB1F028F4D03F07
:104B400049F0D13FF9F028C0D43FB9F058F0D53F33
:104B500071F022C0112309F447C09091E00481E074
:104B6000892708C081E018271093E0043DC0111187
:104B70003BC081E08093E00437C0111135C0109232
:104B8000E00432C0112329F08091DF04882329F347
:104B900029C0002311F328C08091DF040023C1F055
:104BA000882341F09091E00481E089278093E0041C
:104BB0001092DF048D2F112319F00E942C2214C0B3
:104BC0000E94432386E0F70111928A95E9F70CC011
:104BD000882351F0111108C09091E00481E08927E9
:104BE0008093E0041092DF044C2F4F706D2FC701AB
:104BF0000E94FF10F8E0AF16B10441F05CF04AE00B
:104C0000A41AB10852E0A516B10420F40E94952020
:104C10000E94530EDD20E1F00E941C2C80FD18C084
:104C2000F70112820E94162C0E94AC2AC7010E9432
:104C300034260E94162CDF91CF911F910F91FF9087
:104C4000EF90DF90BF90AF909F908F900C94CD2A03
:104C5000DF91CF911F910F91FF90EF90DF90BF9068
:104C6000AF909F908F9008950F931F93CF93DF93F2
:104C7000EC01888199812B813C81232BB9F09F3FE6
:104C800011F48F3F99F0CE010E94650E882371F0D8
:104C9000688179818A810E94F32B8C010E94492BC3
:104CA0000E944B2AB801CE010E94B823DF91CF9118
:104CB0001F910F9108950E949D2C0E94AD2C0E947F
:104CC000472C80E090E00E94BB2080E090E00C94B4
:104CD000D12080919C0190919D010E94F42D0C9413
:104CE0005B260E948D2C0C946926E92FE295EF70CB
:104CF000F0E03297EE30F105B0F4E355FF4F0C943D
:104D00006D39803F91F018F4803E68F40EC0843F06
:104D100051F40BC0803E48F0813F29F406C093FB5C
:104D2000882780F9089580E0089581E008950E9421
:104D3000E82B0E9475260895CF93DF9300D000D012
:104D40001F92CDB7DEB70F900F900F900F900F907E
:104D5000DF91CF910895CF93DF9300D000D000D0A2
:104D6000CDB7DEB726960FB6F894DEBF0FBECDBF27
:104D7000DF91CF9108951F93CF93DF93C091E1040A
:104D800016E08091E204C81799F0D0E01C9FF00172
:104D90001D9FF00D1124ED51FB4F40815181628127
:104DA0007381848195810E94AB262196C770E9CFDB
:104DB000DF91CF911F9108954091130550911405F3
:104DC0006091150570911605809117059091180551
:104DD0000C94AB268091180582958F7009F054C011
:104DE00080911505882309F44FC08091E104A091BA
:104DF000E2046091130570911405409116055091DD
:104E00001705B6E08A1709F43FC090E04115510537
:104E1000C1F17F3F11F46F3FA1F1B89FF001B99F3D
:104E2000F00D1124ED51FB4F218172132AC0208116
:104E3000621327C02281211124C0238134812417C9
:104E4000350710F421503109241B350B283C31055E
:104E5000C0F4209118052F7020612093180526E0DA
:104E6000289FF001299FF00D1124E851FB4F80810C
:104E70008F708061808383E195E00E9434260C94DA
:104E8000BB2601968770BECF0895CF92DF92EF9236
:104E9000FF920F931F93CF93DF93CDB7DEB7629747
:104EA0000FB6F894DEBF0FBECDBF8C0185E0F801D0
:104EB000DE011D9601900D928A95E1F7D8014C9183
:104EC00011965C91119712966C9112971396CD9052
:104ED000DC9014973091130570911405809116059C
:104EE00090911705009709F46BC17F3F19F43F3F7C
:104EF00009F466C1E0901505EE2009F4C0C02091C8
:104F00001805C816D90628F0F601E81BF90BCF01E1
:104F100004C0809590958C0D9D1DFF24F394883CD2
:104F2000910578F0F12C207F09F0C6C07C2DD98A3C
:104F3000C88A89890E949C2683E195E00E943426D4
:104F4000B1C0822F807F09F046C0751314C034139E
:104F500012C0611110C02F702061209318050E94AB
:104F6000DC2683E195E00E94342680911805D80163
:104F700015968C932EC0CD2819F15F3F11F44F3F49
:104F8000F9F0F62E61111CC08091E1042091E20439
:104F900036E0821709F45AC090E0389FF001399F3B
:104FA000F00D1124ED51FB4F7181571306C0708134
:104FB000471303C07281711103C001968770E9CF56
:104FC000F62E662309F427C180911805816080932D
:104FD0001805F12C20C1751308C0341306C06111E7
:104FE00004C080911805D801C3C04D875E878D85A8
:104FF0009E856A8B0E9497266A898823E1F1662341
:10500000D1F120911805822F82958F7090E0029740
:1050100074F0809113059091140598878F831986F9
:10502000DB86CA862C87CE0107960E94342686E04E
:10503000F801A3E1B5E001900D928A95E1F70E9495
:10504000EA260E94DC26FF24F394E5C04D875E87A4
:105050008D859E850E94E82B292F22952F7030E0A8
:10506000223031050CF0CBC09F7009F0C5C0805EC6
:10507000883008F4D0C0C8010E943426E4CFC81696
:10508000D90608F453C0F601E81BF90BCF01883CA0
:10509000910508F450C0F12C7C2DD98AC88A8989E1
:1050A0000E949C26E3E1F5E086E0DF011D928A95EF
:1050B000E9F70E94DC26AFC0751314C0341312C088
:1050C000611110C080911805F8018583C8010E9404
:1050D000342686E0E3E1F5E0DF011D928A95E9F7E9
:1050E000FE2C99C04D875E878D859E856A8B0E94B8
:1050F00097266A89882309F4BECF662309F4BBCFBB
:1051000020911805822F82958F7090E002970CF401
:105110008ECF80911305909114059A8389831B8209
:10512000DD82CC822E83CE0101967FCF8095909533
:105130008C0D9D1DACCFF62E662309F49CCF751304
:105140002EC034132CC02091180520FD1FC0822FC3
:1051500082958F70D9F0D80115962C9315978F30C2
:1051600049F08F5F982F9295907F822F8F70892BB7
:1051700015968C93C8010E94342686E0F801A3E1BD
:10518000B5E001900D928A95E1F793CF86E0F801A2
:10519000A3E1B5E001900D928A95E1F73CC04D87FF
:1051A0005E878D859E850E949726811140CF8091D4
:1051B0001805816080931805C8010E9434262BC011
:1051C000662309F458CF4D875E878D859E850E94A2
:1051D0009726F82E882309F44ECF86E0F801A3E144
:1051E000B5E001900D928A95E1F783E195E00E9488
:1051F0001A220E94EA265DCF811139CF0CC02430DB
:1052000031050CF038CF9F7009F431CFF80195814A
:10521000907F09F02CCF8F2D62960FB6F894DEBFE9
:105220000FBECDBFDF91CF911F910F91FF90EF90F7
:10523000DF90CF9008951F93CF93DF93CDB7DEB764
:105240002C970FB6F894DEBF0FBECDBF4F835887A3
:1052500069877A878B879C87CE0107960E944527AE
:10526000882369F08F8198852A853B85232BF1F16E
:105270009F3F09F063C08F3F09F060C037C086E0F0
:10528000FE013796DE01119601900D928A95E1F7A5
:105290006F817885EA85FB85309741F17F3F11F476
:1052A0006F3F21F12091E20430E0C901019687703F
:1052B00099274091E10450E08417950709F447C00D
:1052C00069837A83FD83EC8396E0929FD001939F5C
:1052D000B00D1124AD51BB4FFE01319601900D92DE
:1052E0009A95E1F78093E2040E94BB2616E0809134
:1052F000E1049091E2048917C1F1189FC0011124C3
:105300008D519B4F0E944527882379F1E091E1045C
:105310001E9FF0011124ED51FB4F408151816281AC
:105320007381848195810E94AB268091E10490E095
:105330000196877099278093E104D9CF4F815885D2
:1053400069857A858B859C850E94AB26CFCF0E948C
:1053500071261092E2041092E104E3E1F5E086E0A8
:10536000DF011D928A95E9F7C1CF2C960FB6F8940C
:10537000DEBF0FBECDBFDF91CF911F910895EF9299
:10538000FF920F931F93CF93DF938C01892B09F426
:105390006CC0F12CEE24E394E8012196F80184918D
:1053A000843740F4843008F051C0813081F082307D
:1053B00019F15BC0853709F444C0A8F19CE7980F48
:1053C000903708F052C08F770E94432341C00E5F90
:1053D0001F4FFE01C49180E28C0F883048F4C770E3
:1053E0008E2D01C0880FCA95EAF70E94A02C14C028
:1053F0008C2F0E942C222DC00E5F1F4FFE01C491E6
:1054000080E28C0F883058F4C7708E2D01C0880F51
:10541000CA95EAF70E94A62C0E94472C1AC08C2F2E
:105420000E94432316C00E5F1F4FFE01C491CC2380
:1054300081F08FE99FE00197F1F700C00000C150B3
:10544000F6CF0E5F1F4FFE01F49003C00E942C2286
:105450008E018F2D882309F49FCFEFE9FFE031976C
:10546000F1F700C000008150F5CFDF91CF911F917F
:105470000F91FF90EF90089508950C943C2A0E949C
:105480003D2A60935405709355058093560590937B
:1054900057050C945B2608950C943F2A0F931F9395
:1054A00000915405109155052091560530915705EE
:1054B000602B712B822B932B1F910F910C943F2A01
:1054C0000F931F9300915405109155052091560597
:1054D0003091570560237123822393231F910F91ED
:1054E0000C943F2A0F931F9300915405109155057A
:1054F0002091560530915705602771278227932701
:105500001F910F910C943F2A0C94900D0E94842AB5
:105510006093500570935105809352059093530505
:105520000C945B2660E070E0CB010C94862A0F930C
:105530001F9341E050E060E070E08A019B0104C0ED
:10554000000F111F221F331F8A95D2F7C901B8011E
:105550001F910F910C94862A0F931F9341E050E006
:1055600060E070E004C0440F551F661F771F8A95E6
:10557000D2F78091500590915105A0915205B091BC
:1055800053058A019B01082B192B2A2B3B2BC901A0
:10559000B8011F910F910C94862A0F931F9341E03D
:1055A00050E060E070E004C0440F551F661F771F95
:1055B0008A95D2F7409550956095709580915005E9
:1055C00090915105A0915205B09153058A019B011C
:1055D000082319232A233B23C901B8011F910F91E6
:1055E0000C94862A0F931F9341E050E060E070E036
:1055F00004C0440F551F661F771F8A95D2F780910C
:10560000500590915105A0915205B09153058A0122
:105610009B01082719272A273B27C901B8011F9199
:105620000F910C94862A0F931F93009150051091AF
:1056300051052091520530915305602B712B822B1F
:10564000932B1F910F910C94862A0F931F93009117
:10565000500510915105209152053091530560235A
:105660007123822393231F910F910C94862A0F9309
:105670001F930091500510915105209152053091D2
:10568000530560277127822793271F910F910C9450
:10569000862A0895292F220F920F990F890FA82F7C
:1056A000A695A695A695877051E001C0550F8A95DD
:1056B000EAF785E0A89FD001112420E030E070E0F7
:1056C000F901EA0FFB1FE75EFA4F4081CB01022E82
:1056D00002C0969587950A94E2F781709927819583
:1056E00084278523842780832F5F3F4F2530310512
:1056F00039F70895292F220F920F990F890F682FDC
:10570000669566956695982F977085E0689FB001BD
:10571000112440E050E080E0FA01E60FF71FE75E59
:10572000FA4F208130E0092E02C0369527950A9461
:10573000E2F721703327042E01C0220F0A94EAF702
:10574000822B4F5F5F4F4530510531F70895BF926F
:10575000CF92DF92EF92FF920F931F93CF93DF933D
:105760008C01C0905405D0905505E0905605F090FE
:1057700057058091500590915105A0915205B09127
:105780005305C82AD92AEA2AFB2ACFE1D0E0D7015B
:10579000C6010C2E04C0B695A795979587950A94D7
:1057A000D2F780FF07C0BC2EB8018C2F0E941A11BF
:1057B000019719F4219758F7B12C8B2DDF91CF91D8
:1057C0001F910F91FF90EF90DF90CF90BF900895C1
:1057D000CF93DF93EC010E94A72BBE010E941A1108
:1057E000DF91CF9108951F93CF93DF93EB019091B9
:1057F000DE04992321F0CB010E94E82B13C08823FB
:1058000049F0CB010E94A72B182F682FCE010E94D0
:105810004A2B04C0CB010E947A2B182FBE01812F86
:105820000E941A11DF91CF911F9108958091580520
:10583000859585958595089580915805877008957B
:1058400098E0899F90011124262B209358050C94F1
:10585000AC2A209158058095822380935805982F73
:10586000977069F430E0482F082E000C550B241770
:10587000350729F08595859585950C94CD2A089551
:1058800090915805977081E009F480E00895E091C7
:105890009C01F0919D0180917C058083E0919C01A9
:1058A000F0919D01908180917B05892B8083E0910F
:1058B0009C01F0919D01908180917A05892B8083D4
:1058C00080915905882381F0E0919C01F0919D0120
:1058D0009081892B808380919C0190919D010E94F1
:1058E000792D81111092590580919C0190919D0113
:1058F0000C94A12080917C05089590917C05892BC2
:1059000080937C050895809590917C0589238093F0
:105910007C05089580937C05089510927C05089578
:1059200090917B05892B80937B05089580959091BC
:105930007B05892380937B05089510927B0508954C
:1059400090917A05892B80937A050895809590919E
:105950007A05892380937A05089510927A0508952F
:10596000809359050895109259050895809159051D
:105970000895CF92DF92EF92FF926C01EE24FF2404
:10598000C114D104E104F10421F0C701B60120E102
:1059900001C020E0C72ED82EE92EFF24C114D10467
:1059A000E104F10419F0285FC701B6016B017C0125
:1059B00054E0F694E794D794C7945A95D1F7C1145C
:1059C000D104E104F10419F02C5FC701B6016B01A9
:1059D0007C0142E0F694E794D794C7944A95D1F7B6
:1059E000C114D104E104F10419F02E5FC701B6011E
:1059F000DC01CB01B695A79597958795892B8A2BC6
:105A00008B2B09F02F5F822FFF90EF90DF90CF90CC
:105A1000089580E090E00E94DD3921E08D3E9E4FA8
:105A200009F020E0822F089582E090E00C94CF39B5
:105A300083E090E00C94CF3984E090E00C94CF396F
:105A4000682F84E090E00C94E339AB01BC018FE057
:105A500090E00C94F539AB01BC0183E190E00C942B
:105A6000F53960E070E0CB010C942B2D60E070E024
:105A7000CB010E94252D0C94312D6DEE7EEF80E040
:105A800090E00E94013A60E082E090E00E94E339F9
:105A900060E083E090E00E94E33910925405109298
:105AA0005505109256051092570560E084E090E08D
:105AB0000E94E33960E085E090E00E94E33960E015
:105AC00086E090E00E94E3396FEF87E090E00E946B
:105AD000E33940E050E0BA0188E090E00E94F539F7
