:100000000C9425060C9442060C9442060C9442066D
:100010000C9442060C9442060C9442060C94420640
:100020000C9442060C9442060C94B8350C948A3613
:100030000C946B300C9442060C9442060C944206CD
:100040000C9442060C9442060C9442060C94420610
:100050000C9442060C94D3300C9442060C94420645
:100060000C9442060C9442060C9442060C944206F0
:100070000C9442060C9442060C9442060C944206E0
:100080000C9442060C9442060C9442060C944206D0
:100090000C9442060C9442060C9442060C944206C0
:1000A0000C9442060C9442060C9442069A069D0655
:1000B000A006A306A606A906AC066D0F720F760F62
:1000C000800F8C0F960FF90F36103B10451039102A
:1000D0003E104310411089118B1196118D118F1113
:1000E00091119311951198119A119C11A7119E11BC
:1000F000A011A211A411A611A911301E331E361E83
:10010000391E3C1E3F1E421E451E481E4B1E4E1EE3
:10011000292629265B265B269226DF27DF27DF2775
:10012000B226DF275F275F27CF27DF27DF27D827E4
:100130006C276C276C276C276C276C276C276C2727
:100140006C276C276C276C276C276C276C276C2717
:100150007D278A2791279827A2276628662878284E
:1001600078286F28782878287828662866287428C0
:10017000782878287428F7361E3710381E3710383C
:100180006A378D371038E337F23705A84CCDB2D433
:100190004EB93836A9020C50B9918688083CA6AAF7
:1001A000AA2ABE000000803F6572676F646F785FA7
:1001B000657A2F616C6563672040204E4100000026
:1001C000F0A100000000000000000000000000009E
:1001D000000000000000000000000000000000001F
:1001E000000000000000000000000000000000000F
:1001F00000000000000000000000000000000000FF
:1002000000000000000000000000000000000000EE
:1002100000000000000000000000000000000000DE
:1002200000000000000000000000000000000000CE
:1002300000000000000000000000000000000000BE
:1002400000000000000000000000000000000000AE
:1002500000009AFFFF9AFFFF9AFFFF9AFFFF9AFFA5
:10026000FF9AFFFF9AFFFF9AFFFF9AFFFF9AFFFF97
:100270009AFFFF9AFFFF9AFFFF9AFFFF9AFFFF9AEC
:10028000FFFFCDFFFF9AFFFF9AFFFF9AFFFF9AFF44
:10029000FF9AFFFF9AFFFF9AFFFF9AFFFF9AFFFF67
:1002A0009AFFFF9AFFFF9AFFFF9AFFFF9AFFFF9ABC
:1002B000FFFF00CCFF9AFFFF9AFFFF9AFFFF00CCE1
:1002C000FF00CCFF00CCFF9AFFFF9AFFFF9AFFFFD1
:1002D0009AFFFF9AFFFF9AFFFF9AFFFF9AFFFF9A8C
:1002E000FFFF69FFFF69FFFF69FFFF69FFFF69FF0C
:1002F000FF69FFFF69FFFF69FFFF69FFFF69FFFFFC
:1003000069FFFF69FFFF69FFFF69FFFF69FFFF6981
:10031000FFFF69FFFF69FFFF69FFFF69FFFF000043
:100320000000000000000000000069FFFF69FFFFFF
:1003300069FFFF69FFFF69FFFF0000000000000088
:1003400000000000000000000000009AFFFFF9E438
:10035000FF9AFFFF00000000000000000000000006
:10036000000000000000000000000000000000008D
:1003700000000000000000000EFFFF0EFFFF0EFF58
:10038000FF69FFFF23FFFF23FFFF23FFFF0EFFFF98
:1003900069FFFF23FFFF23FFFF23FFFF000000F99A
:1003A000E4FF23FFFF23FFFF23FFFF69FFFF0000A0
:1003B0000023FFFF23FFFF000000000000000000FB
:1003C000000000000000000000000000000000230A
:1003D000FFFF00000000000000000023FFFF23FFDC
:1003E000FF23FFFF000000000000000000000000ED
:1003F00000000000000023FFFF23FFFF00000000BB
:1004000000000000000000000000000000000000EC
:1004100000000000000000FA9FFF00000000000044
:10042000000000FA9FFFFA9FFFFA9FFF0000000004
:1004300000000000000000000000000000000000BC
:1004400000000000000000000000000000000000AC
:100450000000000000000000000000000000000E8E
:10046000FFFF00000000000000000069FFFF0EFF1A
:10047000FF69FFFF00000000000000000000000016
:10048000000000000000000000000000000000006C
:10049000000000000000000000000000000000005C
:1004A0000000000086FFD586FFD586FFD50000003E
:1004B00000000086FFD586FFD586FFD5000000002E
:1004C000000086FFD555CB9E86FFD50000000000BA
:1004D000000AE1FF00000000000000000000000032
:1004E000000000000000000000000000000000000C
:1004F00000000000000000000000000000000000FC
:1005000000000000000000000000000000000000EB
:1005100000000000000000000000000000000000DB
:10052000000029002B002A00E100350000001E0019
:10053000140004001D003400F75C1F001A001500B1
:100540001B00010002512000090016000600E20015
:100550002C002100130017001900E000C35C2200EA
:100560000A000700050000006500035101000000BB
:1005700005510000E30001530100000000070000E6
:10058000E70023000D000B000E0000004C002400CB
:100590000F00110010000451F55C25001800080040
:1005A00036000100280026001C000C003700010066
:1005B000000427003300120038000100F65C2D0013
:1005C00031003400E50001000000010001000100DD
:1005D0000100010000001E00140004001D000100C5
:1005E000F25C1F001A0016001B0001000100200031
:1005F00008000700060001000100210015000900A5
:1006000019000100C35C220017000A000500000069
:1006100001000100100000000100000001000100C5
:100620000100000001000000010023001C000B007D
:10063000110000000100240018000D00100001004E
:10064000C55C25000C000E003600010001002600EC
:1006500012000F00370001000100270013003300D3
:1006600038000100C65C010001000100010001002A
:1006700000000100010001000100010000003A003B
:100680000100010001000100CA5C3B0001001507E8
:100690000100010001003C000100160701000100FB
:1006A00001003D000100170701000100C95C3E0088
:1006B0000100010001000000010001000000000035
:1006C0000100000001000100010000000100000025
:1006D000C25C3F002502210222020000F25C4000C1
:1006E0002F0226022F000100F35C41003002270296
:1006F00030000100C55C42002D0256001F020100BF
:10070000C65C43002E022E0020020100F45C44006F
:10071000450001000100010000000100010001008E
:1007200001000100000001000100010001000100C2
:10073000010001000100F2000100010001000100C0
:10074000F000F1000100F400010001000100F300DD
:100750000100F5000100010001000100010000009E
:100760000100010001000000010000000100010083
:10077000010000000100000001000100A900AA0022
:10078000A800000001000100240021001E0001005B
:1007900001005400250022001F0062000C005500DB
:1007A00026002300200063000100560057000000CF
:1007B00058000100010001000100010001000100DA
:1007C0000000010001000100010001000000010023
:1007D00000000000000001000100000000004A00CD
:1007E00000000100010000004B004E00000001006D
:1007F0000100000000004D000000010001000100A8
:1008000000000000000000000100010001000000E5
:1008100001000000010001000100000001000000D3
:1008200001000100000000000000000001000000C5
:1008300000005000000001000100000052005100C3
:10084000000001000100000000004F000000010056
:100850000100010000000000000001000100010093
:100860000100010001000100000001000100010081
:100870000100010000000100010001000100010071
:100880000100010001000100010001000100010060
:100890000100010001000100010001000100010050
:1008A0000100010001000100010001000100000041
:1008B0000100010001000000010000000100010032
:1008C0000100000001000000010001000100010022
:1008D0000100000001000100240721071E0701009C
:1008E00001000100250722071F072707010001005B
:1008F0002607230720070100010001000100010075
:1009000001000100010001000100010001000100DF
:10091000000000000000000000002A2B280000005A
:10092000000000000000000000000000002900009E
:1009300000002C1E3420212224342627252E362D7B
:100940003738271E1F202122232425263333362E15
:1009500037381F0405060708090A0B0C0D0E0F1087
:100960001112131415161718191A1B1C1D2F3130CC
:10097000232D350405060708090A0B0C0D0E0F1070
:100980001112131415161718191A1B1C1D2F3130AC
:10099000354C0000000000000000000000000000D6
:1009A0000000000000000000000000000000000047
:1009B000000000010101010101000101010100002D
:1009C0000000000000000000000000000100010025
:1009D0000101010101010101010101010101010107
:1009E00001010101010101010101010101000000FA
:1009F00001010000000000000000000000000000F5
:100A000000000000000000000000000000010101E3
:100A100001000000000000010101010101010101CC
:100A2000020202020202020202030303030303039F
:100A3000030404040404040505050505060606066A
:100A40000607070707080808080909090A0A0A0A21
:100A50000B0B0B0C0C0C0D0D0D0E0E0F0F0F1010C1
:100A60001111111212131314141515161617171845
:100A70001819191A1A1B1C1C1D1D1E1F1F202021AE
:100A800022222324252526272728292A2B2B2C2DF3
:100A90002E2F2F30313233343536363738393A3B12
:100AA0003C3D3E3F4041424344464748494A4B4C07
:100AB0004D4F50515253555657585A5B5C5E5F60CC
:100AC0006263646667696A6C6D6E70717374767860
:100AD000797B7C7E8081838486888A8B8D8F9192BE
:100AE0009496989A9B9D9FA1A3A5A7A9ABADAFB1E2
:100AF000B3B5B7B9BBBDBFC1C4C6C8CACCCFD1D3CB
:100B0000D6D8DADCDFE1E4E6E8EBEDF0F2F5F7FA6F
:100B1000FCFF04033000000016034500720067006C
:100B20006F0044006F007800200045005A0000006C
:100B300016034500720067006F0044006F007800E4
:100B4000200045005A0000000403090409023B008C
:100B5000020100A0FA0904000001030101000921BB
:100B6000110100012240000705810308000A090461
:100B700001000103000000092111010001227100A0
:100B80000705820320000A1201100100000008ED91
:100B9000FE071301000102030105010980A101857F
:100BA000031601002603001A81002A8300751095A0
:100BB000018100C0050C0901A10185041601002670
:100BC0009C021A01002A9C02751095018100C00543
:100BD000010906A1018505050719E029E71500258A
:100BE000019508750181020508190129059505750A
:100BF0000191029501750391010507190029EF156F
:100C000000250195F075018102C005010906A101C9
:100C1000050719E029E715002501950875018102EE
:100C200095017508810105081901290595057501CA
:100C300091029501750391010507190029FF15001F
:100C400026FF00950675088100C011241FBECFEF56
:100C5000DAE0DEBFCDBF13E0A0E0B1E0E4EBF8E7FF
:100C600002C005900D92AA30B107D9F726E0AAE09C
:100C7000B3E001C01D92AB3AB207E1F70E94DC324B
:100C80000C94583C0C94000080B38C7080BB81B3F2
:100C9000836F81BB089584B1807F84B985B1807FE3
:100CA00085B98AB1837F8AB98BB1837F8BB93E982E
:100CB00046980895CF93E82F873090F580910401EE
:100CC00090910501892B09F049C0CE2F64E670E0B0
:100CD00080E40E9416229093050180930401892BE1
:100CE000D1F464E670E082E10E946D2290930501E8
:100CF00080930401892B79F481E090E001C0880F92
:100D0000CA95EAF764E670E080950E946D229093A0
:100D100005018093040184E690E0CF910C94C222F7
:100D200090E0FC013797E730F105C0F4EA5AFF4F35
:100D30000C944B3B209A289811C0219A29980EC0F8
:100D4000229A2A980BC0239A2B9808C0529A5A9834
:100D500005C0539A5B9802C03E9A4698CF91089579
:100D6000089508950C94B106CF93DF930E94430831
:100D700090E090930501809304010E944B060E942D
:100D80004406AFE5B3E02BE033E0EDE6F3E04EE000
:100D90004E0F11921D9280E090E0E901C80FD91F1B
:100DA0001882019686309105C1F72A5F3F4F4E1396
:100DB000F0CFDF91CF910C94AE100E94430890E0E9
:100DC00090930501809304010E944B060E94440603
:100DD000EDE6F3E08EE08E0F11928E13FDCF0895B5
:100DE000CF93DF93E62FF0E0E15AFC4F4081482794
:100DF000808386E0689FF0011124E55FFC4F20E0CE
:100E000030E080E061E070E050E0AAE0B22F908135
:100E1000992319F09150908307C0EB01022E01C075
:100E2000CC0F0A94EAF78C2BEA0102C0D595C7953E
:100E3000BA95E2F7C0FDA0832F5F3F4F3196263071
:100E4000310521F7DF91CF910895CF93DF93D82F0C
:100E5000873008F040C08091040190910501892BF2
:100E600009F042C064E670E080E40E94162290938C
:100E7000050180930401892B11F0C0E027C064E6CE
:100E800070E083E10E946D2290930501809304013C
:100E9000892B99F764E670E081E40E941622909312
:100EA000050180930401892B41F784E690E00E94BC
:100EB0009D2297FF05C09093050180930401DDCF2B
:100EC000C82FC095109205011092040184E690E0AD
:100ED0000E94C2220AC09FB1CFB1C07FC695C695FD
:100EE0009370C92BC09501C0C0E06D2F8C2F0E945C
:100EF000F006282F2095ED2FF0E0E359FC4F90816C
:100F000092238C23892BDF91CF910895EF92FF924A
:100F10000F931F93CF93DF9380910401909105016C
:100F2000892B91F080910A038F5F80930A038111CE
:100F30000BC00E94430890E0909305018093040148
:100F4000892B11F40E94D5078DE6E82E83E0F82E58
:100F500004E713E0C0E08C2F0E945A06D7E0DC0FB4
:100F60008D2F0E945A068C2F0E942507F70181932E
:100F70007F018D2F0E942507F80181938F010E9428
:100F80004B06CF5FC73039F70E94BA1081E0DF917E
:100F9000CF911F910F91FF90EF900895E82FF0E00F
:100FA000E359FC4F80810895089556985E982598DE
:100FB0002D9826982E9827982F988FEF90E0909351
:100FC00089008093880090938B0080938A0090938F
:100FD0008D0080938C00259A2D9A2FEF80E792E068
:100FE000215080409040E1F700C00000269A2E9AE0
:100FF0002FEF80E792E0215080409040E1F700C061
:101000000000279A2F9A2FEF80E792E0215080402E
:101010009040E1F700C0000025982D982FEF80E761
:1010200092E0215080409040E1F700C000002698F7
:101030002E982FEF80E792E0215080409040E1F71A
:1010400000C0000027982F9856985E9825982D98F4
:1010500026982E9827982F98089589EA80938000E3
:1010600089E08093810024982C983F988AB18F7CE6
:101070008AB96E98479A8BB180638BB9769A0E9431
:10108000D5070C94B00680E290E090930501809320
:10109000040180917B0381110EC00E94102281E027
:1010A00080937B032FEF83ED90E3215080409040AD
:1010B000E1F700C0000064E670E080E40E941622C0
:1010C0009093050180930401892B09F050C064E6D8
:1010D00070E080E00E946D229093050180930401EE
:1010E000892B09F044C064E670E080E00E946D2224
:1010F0009093050180930401892BC9F564E670E0A3
:101100008FE30E946D229093050180930401892B47
:1011100071F584E690E00E94C22264E670E080E40B
:101120000E9416229093050180930401892BF9F403
:1011300064E670E08CE00E946D229093050180933C
:101140000401892BA1F464E670E080E00E946D2226
:101150009093050180930401892B49F464E670E0C3
:101160008FE30E946D22909305018093040184E631
:1011700090E00E94C2228091040108958530C8F455
:101180006A30B8F4843049F49CEF960F923088F0BE
:10119000653010F46F5F01C06150982F990F990F5F
:1011A000890F653018F4845E861B08958550860F7C
:1011B00008958FEF0895482F8074242F46FD2095C1
:1011C000E22FEF732F7081112F5FE295EF70EE0F1A
:1011D000F0E0E750FD4F9181929F9001112484E04F
:1011E000359527958A95E1F78081280F822F47FD55
:1011F000819580580895AF92BF92DF92EF92FF924F
:101200000F931F93CF93DF931F92CDB7DEB760FD8F
:1012100005C08091D8038F5F8093D803F090D803E6
:101220000EEC13E090E0892F8F0D99830E94DB086C
:10123000F80181938F0199819C5E983CA1F7F12C74
:101240006F2D70E080E090E00E94633920E030E094
:1012500040E85EE30E94593A20E030E04FE753E473
:101260000E94593A0E943439A62EB12C0EEC13E09C
:10127000E12CF80181918F01B501681B710977FF9D
:1012800003C071956195710965367105E4F470E0EC
:1012900080E090E00E94633920E030E048EC52E4C6
:1012A0000E94BB389B01AC0160E070E080E89FE3E6
:1012B0000E94443820E030E04FE753E40E94593A5E
:1012C0000E94343901C060E0962F623308F492E343
:1012D0006E2D8F2D99830E94BE08D82E60E070E09D
:1012E0009981892F0E94CC16472F282F8D2D90E0B1
:1012F0000E948117E394FAE0EF12BBCFF39485E0EC
:10130000F8129ECF0F90DF91CF911F910F91FF9018
:10131000EF90DF90BF90AF9008952F923F924F9241
:101320005F926F927F928F929F92AF92BF92CF9275
:10133000DF92EF92FF920F931F93CF93DF9300D032
:1013400000D000D0CDB7DEB79C838B838B010E9489
:101350009D3B65E070E00E94373B3C010E949D3B55
:101360006AE070E00E94373BE0E0F0E0B12C7724C7
:1013700025E0E22EF12C3AE0332E4C0199244AE08C
:10138000C42ED12CCF01860D971DB7010E94373B8B
:10139000389E2001399E500C1124400E511E282EDB
:1013A00020E030E0C901880D991DB6010E94373B4D
:1013B000A201480F591F5E834D83DA01AC90AB81C7
:1013C000BC811296BC91B983AB1649F06A2D70E0CE
:1013D000AAE0BA9FA00111246417750731F4AD810A
:1013E000BE811C92BB2029F016C0B11014C0A11000
:1013F00014C0AB81BC812C9211968C9311971396DB
:101400001C92139715961C921E92149712968C910B
:10141000AD81BE818C93BB24B3942F5F3F4F2A30A4
:10142000310509F0BFCF3196E530F10509F0AACFBB
:1014300026960FB6F894DEBF0FBECDBFDF91CF91D9
:101440001F910F91FF90EF90DF90CF90BF90AF90E2
:101450009F908F907F906F905F904F903F902F90D4
:1014600008958530A8F46A3098F4843021F49CEF14
:10147000960F923068F0FA019AE0899FE00DF11D15
:101480001124E60FF11D9081915081E0943008F411
:1014900080E008959F92AF92BF92CF92DF92EF9239
:1014A000FF920F931F93CF93DF93EC017B010E9478
:1014B0009D3B64E070E00E94373B8C0184E0C82EC5
:1014C000D12C94E0A92EB12C0115110519F49980A5
:1014D0009A9405C00130110559F499809394A7019D
:1014E000692D88810E94310A8823B1F099821FC03A
:1014F0000230110519F498809A9405C00330110543
:1015000059F498809394A7016981892D0E94310A2A
:10151000882311F098820BC0C8010196B5010E9482
:10152000373B8C0181E0C81AD10871F680E0DF9169
:10153000CF911F910F91FF90EF90DF90CF90BF90D0
:10154000AF909F9008950F931F93CF93DF938C01DB
:10155000EB010E944A0A882389F0D8019C911296D7
:101560008C91FE01BAE09B9FE00DF11D1124D80182
:1015700011969C91E90FF11D80831CC081E0F80158
:10158000838315821482FE0195E0AF01465F5F4FB1
:101590008081D80112962C91821306C0880F282FC3
:1015A000220F220F820F80833196E417F50781F70F
:1015B000915059F7DF91CF911F910F910895262FE8
:1015C00060E0813011F46BE10BC0823011F46DE703
:1015D00007C0833011F460E503C0843009F467ED7F
:1015E0007FEF822F0E94CC1608959F92AF92BF92F8
:1015F000CF92DF92EF92FF920F931F93CF93DF93DF
:1016000000D0CDB7DEB78B01882309F443C04CE985
:1016100053E025E080E090E0FA01E80FF91F108226
:1016200001968A309105C1F72150465F5F4F211125
:10163000F1CF47E8E42E43E0F42EA12CB12C56E084
:10164000D52ECC24C394DA9CF001DB9CF00D112440
:10165000EC57FC4FDF012D2D1D922A95E9F7F7017C
:10166000319781E08A0D8083D701CC926CE973E0D9
:10167000C70103970E948D09BFEFAB1ABB0AE6E0D2
:10168000EE0EF11CF4E0AF16B104E9F610928303FC
:10169000109282038091820390918303800F911FA7
:1016A000823C21E0920738F4909383038093820375
:1016B000E7E8F3E037C0109283031092820334E826
:1016C000E32E33E0F32E5701D12CD50113968C91E4
:1016D000811106C06CE973E0C5010E94A30A09C02C
:1016E000813039F4F501848195818634954008F084
:1016F000D39426E0A20EB11C8CE9A81683E0B806AC
:1017000021F794E0D912D4CF6CE973E0C7010E94AD
:101710008D09A6E0EA0EF11CBCE9EB16B3E0FB066E
:1017200099F7C6CF8081813061F481819281800FE9
:10173000911F873425E0920710F086E495E09283AC
:101740008183369683E0EF39F80761F78CE9E82E5C
:1017500083E0F82EA12C9AE0C92E26E0D22E00E0DC
:1017600010E0B02E94E0A91205C08CEF800F8230FB
:1017700008F45CC0F701E00FF11F8081882309F4B1
:1017800046C0853070F4282F30E021503109D29EB8
:10179000F001D39EF00D1124EC57FC4F6FEF8281C6
:1017A00030C06C2D0E94173B90E00197D89EF0014D
:1017B000D99EF00D1124EC57FC4F92806481758105
:1017C0006634A5E07A07D8F480E090E00E9463399F
:1017D00020E030EC48EA54E40E94BB389B01AC01A5
:1017E00060E070E080E89FE30E94443820E030E051
:1017F0004FE753E40E94593A0E94343901C060E037
:10180000892D0E94DF0A962E472F282F03C020E043
:1018100040E0912C6B2D8A2D2A8349830E94BE08BB
:101820002A814981692D90E00E9481170F5F1F4F27
:101830000A30110509F095CFA394BAE0EB0EF11C24
:10184000E5E0AE128CCF609182037091830380E05B
:1018500090E00E94633920E030E041EE53E40E94C2
:10186000BB3820E030E04FE753E40E94593A0E9431
:101870003439D62E00E010E0C8018C579C4F7C0113
:10188000DC0113968C911397811115C06D2D129662
:101890008C910E94DF0A962E282FF70161818081AA
:1018A0002A8379830E94BE082A817981472F692D76
:1018B00090E00E9481170A5F1F4F08311105E1F681
:1018C0000F900F90DF91CF911F910F91FF90EF90AC
:1018D000DF90CF90BF90AF909F900895BF92CF922E
:1018E000DF92EF92FF920F931F93CF93DF93CDED93
:1018F000D3E00AE010E08BE4E82EF12C93ECC92E43
:10190000D12CBC2E85E0B80E0E949D3BB8010E94F0
:10191000373B892B39F40E949D3BB6010E94373B2F
:10192000845C06C00E949D3BB7010E94373B8C54EB
:1019300088832196BC12E8CFDF91CF911F910F9140
:10194000FF90EF90DF90CF90BF90089527EE33E0A7
:1019500044E080E090E0F901E80FF91F52855083E0
:10196000019685309105B9F74150265F3F4F4111EF
:10197000F0CFAFE0B4E0EDEDF3E085E08E0F9191B4
:101980009D938E13FCCF08952F923F924F925F92BA
:101990006F927F928F929F92AF92BF92CF92DF927F
:1019A000EF92FF920F931F93CF93DF93CDB7DEB7E4
:1019B0002A970FB6F894DEBF0FBECDBF6B017C0136
:1019C0008DED282E83E0382E1B821A82EA81FB815E
:1019D000EB56FD4F10A5A701960160E070E088EC82
:1019E00092E40E9444382B013C01F10101911F0156
:1019F000EA81FB81E951FC4F60A570E080E090E056
:101A00000E9465399B01AC01C301B2010E94593AA1
:101A10004B015C01602F70E080E090E00E9465392E
:101A20009B01AC01C701B6010E94593A9B01AC0170
:101A3000C501B4010E94453820E030E048EC52E492
:101A40000E94BB380E943439862F612F7FEF0E949D
:101A5000CC16162F282F6A8184E028877F830E9466
:101A6000BE0828854F81612F90E00E9481178A81EE
:101A70009B8101969B838A83059709F0A7CF212C30
:101A8000312C93E099831A861986C1014E969E8364
:101A90008D83E985EC830D811E8189859A85080FE8
:101AA000191FF801E951FC4FFB83EA83608170E064
:101AB00080E090E00E9465399B01AC01C301B20156
:101AC0000E94593A4B015C01EA81FB81628570E01A
:101AD00080E090E00E9465399B01AC01C701B6012E
:101AE0000E94593A9B01AC01C501B4010E944538DE
:101AF00020E030E048EC52E40E94BB384B015C012E
:101B0000F801E953FD4F608170E080E090E00E94B1
:101B100065399B01AC01C501B4010E9444384B01F9
:101B20005C01F801EB56FD4F108120E030E0A90187
:101B30000E94543A181664F420E030E04FE753E472
:101B4000C501B4010E94B13887FD04C08FEF07C002
:101B500080E005C0C501B4010E943439862F612F91
:101B60007FEF0E94CC16162F282F6C818981288741
:101B70007F830E94BE0828854F81612F90E00E94DC
:101B8000811789859A8501969A878987059709F033
:101B900080CF998191509983EAE02E1A31089F3FB6
:101BA00009F071CF2A960FB6F894DEBF0FBECDBFF5
:101BB000DF91CF911F910F91FF90EF90DF90CF9029
:101BC000BF90AF909F908F907F906F905F904F905D
:101BD0003F902F900895882351F010927E03109229
:101BE0007F0310928003109281030E946E0C20E00C
:101BF00030E048EC52E460917E0370917F03809165
:101C00008003909181030E94543A87FD0CC00E948A
:101C1000A60C0E946E0C10927E0310927F0310920D
:101C200080031092810360917E0370917F03809105
:101C30008003909181030E94C40C20E030E040E2D8
:101C400051E460917E0370917F03809180039091B5
:101C500081030E94453860937E0370937F038093D5
:101C60008003909381030895AF92BF92CF92DF9249
:101C7000EF92FF920F931F93CF93DF93EC0181E0DC
:101C80000E94C41F80E98C9F70018D9FF00C11246D
:101C9000C0E0D0E000E010E0670182E0C80ED11C97
:101CA00057018FEFA81AB80AF601EC0FFD1FEE538B
:101CB000FE4F8491FE01EE0DFF1DEE53FE4F649129
:101CC000F501EC0FFD1FEE53FE4F7491882319F0C0
:101CD00080912C0501C080E00E94CC16472F282F50
:101CE000C8010E9481170F5F1F4F23960033110513
:101CF000D9F6DF91CF911F910F91FF90EF90DF9078
:101D0000CF90BF90AF9008951F93CF93DF9300D0F3
:101D100000D0CDB7DEB7182F0E94801EAB01BC01EA
:101D200080912E0590912F0549835A836B837C8384
:101D30000E94A93090937D0380937C030E949D3084
:101D400090932F0580932E052091DA033091DB03C9
:101D500049815A816B817C812115310561F12130E6
:101D6000310559F4CB01BA010F900F900F900F90ED
:101D7000DF91CF911F910C94FB082230310571F453
:101D800060917C0370917D03812F0F900F900F90D5
:101D90000F90DF91CF911F910C94F50A23303105FC
:101DA00051F4812F0F900F900F900F90DF91CF91F2
:101DB0001F910C94EB0D0F900F900F900F90DF91EF
:101DC000CF911F9108958091DC0381116AC06091C9
:101DD000D7047091D8048091D9049091DA040E94BC
:101DE000BF2E823009F450C030F4882369F081306E
:101DF00009F447C00895843009F44CC008F447C082
:101E0000853009F44AC0089580E190E00E94B53B16
:101E10006093290570932A0580932B0590932C05D8
:101E20008091DA039091DB03892BE9F480912905F5
:101E300086958F730E94C41F80912905982F9E77E5
:101E4000923079F1881F8827881F90912A05292FC1
:101E5000220F97FB992790F940912C0560912B0553
:101E6000822B0C94EA1F81E00E94C41F8091D90349
:101E7000882321F01092D90381E001C080E00C9406
:101E8000840E81E090E00BC082E090E008C083E027
:101E900090E005C084E090E002C085E090E00C9402
:101EA000340E0895611108C0FC018281882321F05D
:101EB00088EA91E00E94AB1080E090E00895FC0178
:101EC000E15FFC45E730F10508F0B4C0DB01E35AFF
:101ED000FF4F12969C910C944B3B91110E94892FBD
:101EE00080E008959923E1F381E01DC09923C1F3B7
:101EF00081E00E94B51F4FEF64E985EC90E009C0D6
:101F0000992371F381E00E94B51F4FEF69E787E8DD
:101F100090E00E94D31FE4CF992311F31092DB03CA
:101F20001092DA0383E00E94B51FDACF9923C1F241
:101F300080E190E00E94B53B6093290570932A05EB
:101F400080932B0590932C050E940C2E8272209179
:101F5000290590912A05882371F0822F881F8827F0
:101F6000881F392F330F432F482B97FB552750F9E4
:101F7000485051090DC0822F881F8827881F392F8C
:101F8000330F432F482B97FB552750F9485F5F4F7E
:101F900040FB27F920932905842F86959078982B6C
:101FA00050FB97F990932A0580912905482F441FEB
:101FB0004427441F90912A05592F550F252F242B74
:101FC00097FB332730F92F3F310531F02CF08F7715
:101FD0008093290510922A054091290550912A05E0
:101FE00060912B0570912C0580E190E00E94D33B1D
:101FF00077CF992309F474CF8091DA039091DB03B2
:1020000001969093DB038093DA0381E08093D903F8
:102010000E949D3090932F0580932E058091DA03C6
:102020009091DB03049708F45BCF1092DB031092CE
:10203000DA0356CF81E00895CF92DF92EF92FF92BC
:102040006B017C010E94BF2E56985E9825982D98B2
:1020500026982E9827982F9890E0FC013197E7302A
:10206000F105A8F4EC59FF4F0C944B3B259A2D9A9F
:102070000EC0259A2D9A269A2E9A09C0259A2D9A35
:1020800004C0259A2D9A269A2E9A279A2F9AC7012C
:10209000B601FF90EF90DF90CF90089581E0089512
:1020A0000C945F0FCF93282F30E0F901EE5EF64FCE
:1020B000C491F901EE56F64F2491222359F081EE96
:1020C0000E9469248C2F0E9469248C2F0E948025F5
:1020D00081EE04C08C2F0E9469248C2FCF910C9428
:1020E00080250F931F93CF93DF93EC01062FFE0102
:1020F0008491882359F19E012F5F3F4F813041F435
:10210000E901F9011491812F0E946924812F0DC0EA
:10211000823031F4E901F90184910E9469240AC0F6
:10212000833031F4E901F90184910E94802502C0D5
:102130000E9452102196802F8823C9F2EFE9FFE018
:102140003197F1F700C000008150F6CFDF91CF91B9
:102150001F910F91089560E00C9471100E940F2F51
:10216000811102C00E94892F0E94521E0E941C16DB
:102170000C942D080E94B41D80911904811102C095
:102180000E947C178091190490E001966BE070E04A
:102190000E94373B809319040C94B206282F2F70AD
:1021A00041F0822F90E02A3010F44D960895069762
:1021B000089587E290E0089508950C94DC100C9443
:1021C000DD1008950E9456280E94E1102FEF84E34D
:1021D0009CE0215080409040E1F700C000000C944A
:1021E000F930FF920F931F93CF93DF938C01FC0183
:1021F000C081D18180916704811113C082818823BD
:1022000049F0CE010E948C2DF82E682FCE010E943D
:102210002F2D04C0CE010E945F2DF82EBE018F2D00
:1022200004C0CE010E948C2DBE010E949413EC01CB
:10223000B8010E945010882309F46EC2B801CE0183
:102240000E949716882309F467C2CC3CFCE5DF079F
:1022500041F4F8018281882309F45EC20E949C1F28
:102260005BC2CD3C8CE5D80708F01EC1C43C9CE5A0
:10227000D90761F4F8018281882309F44DC20E94D4
:102280000C2E8272E1F40E94B11E46C2C53CECE500
:10229000DE0708F0C7C0C531FCE5DF0798F0C23C97
:1022A000FCE5DF0709F48CC008F492C0F8018281D4
:1022B000882309F431C20E940C2E827221F70E94F9
:1022C000971E2AC2C2308CE5D80708F452C0F80124
:1022D0008281882309F459C00E940F2F811102C006
:1022E0000E94892F0E94222F90E090939D06809358
:1022F0009C06FE01E350FC45E231F10530F4E5595E
:10230000FF4F80919C060C944B3B80919C06816012
:1023100027C0826025C0846023C0806121C08062A4
:102320001FC080641DC080681BC08460886018C0A6
:102330008E7F16C08D7F14C08B7F12C08F7E10C021
:102340008F7D0EC08F7B0CC08F770AC08B7F877FFD
:1023500007C087FB222720F991E0922790FB87F99D
:1023600080939C0680919C060E94262F0E945628EE
:10237000D3C1C1159CE5D90781F0C130DC45A9F076
:1023800081E080931F0480932004C801DF91CF91E6
:102390001F910F91FF900C944E10F80182818823B9
:1023A00009F4BAC10E94E210B7C1F8018281882302
:1023B00009F4B2C180910405816080930405ACC129
:1023C000F8018281882309F4A7C10E94891EA4C153
:1023D000C631DC45A9F60E940C2E282FF801828117
:1023E0004091080150910901882379F02A7A91E0FF
:1023F00009F490E090931A04911102C069E201C0BF
:1024000065E3CA010E94F02F0AC080911A0481116D
:1024100002C069E201C065E3CA010E94FB2F0E946D
:102420005B2E7AC1F8018281C83CFCE5DF0731F4FC
:10243000882309F471C10E943D1F6EC1C93C9CE50F
:10244000D907C8F4C63CECE5DE0731F4882309F46B
:1024500063C10E94F71E60C1C73CDC4530F488238D
:1024600009F45AC10E94CB1E57C1882309F454C1F4
:102470000E94271F51C1CA3C9CE5D90731F488232B
:1024800009F44AC10E946D1F47C1CB3CDC4530F4C2
:10249000882309F441C10E94571F3EC1882309F4D3
:1024A0003BC10E94871F38C1C43DFCE5DF0791F4A2
:1024B000F8018281882309F42FC10E94CE1F89313F
:1024C00028F00E94CE1F823208F4F9CE89E10E94E2
:1024D000B51F22C1C53D8CE5D80708F068C0F801DA
:1024E0008281C03DFCE5DF0771F4882309F414C143
:1024F0000E94CE1F893028F00E94CE1F8E3008F433
:10250000DECE89E0E4CFC13D9CE5D90740F5CE3C65
:10251000ECE5DE0771F4882309F4FEC00E94CE1FAB
:10252000823028F00E94CE1F853008F4C8CE82E0A9
:10253000CECFCF3CDC4528F4882309F4EDC081E000
:10254000C6CF882309F4E8C00E94CE1F863028F049
:102550000E94CE1F883008F4B2CE86E0B8CFC23DCC
:102560009CE5D90771F4882309F4D6C00E94CE1FD8
:10257000853128F00E94CE1F873108F4A0CE85E176
:10258000A6CFC33DDC4570F4882309F4C5C00E9482
:10259000CE1F8F3028F00E94CE1F843108F48FCEDA
:1025A0008FE095CF882309F4B7C088E190CFC93D6B
:1025B000FCE5DF0759F5F8018281882361F010926C
:1025C00020040E949D3090931E0480931D0480E29D
:1025D0000E94E725A1C080912004882321F080E299
:1025E0000E94EE2599C080911D0490911E040E94C6
:1025F000A930883C910598F780E20E94EE2588E298
:102600000E94692488E20E94802586C0CA3D8CE52C
:10261000D80708F060C0C73D9CE5D90761F5F8010F
:102620008281882351F010921F040E949D30909364
:102630001C0480931B0482E0CBCF0E940C2E85FFEC
:1026400005C081E080931F048093200480911F04C3
:1026500081110FC080911B0490911C040E94A9302D
:10266000883C910530F486E20E94692486E20E944B
:10267000802582E0B5CFC83DECE5DE0710F1F8011A
:10268000828181119CCF0E940C2E81FF05C081E0C8
:1026900080931F04809320048091200481119FCF98
:1026A00080911D0490911E040E94A930883C9105E0
:1026B00008F095CF87E20E94692487E20E94802576
:1026C0008ECFC53DDC4509F05BCEF80182818823C1
:1026D00019F183E2FCCECD3D8CE5D80741F4F80139
:1026E00082818823C9F082E00E947B3315C0CE3DF1
:1026F0009CE5D90739F4F8018281882369F00E94AA
:10270000892F0AC0CC3DDC4509F03ACEF801828120
:10271000882311F080E0E8CF80E0DF91CF911F9116
:102720000F91FF900895089596E0799FF00111248C
:1027300094E5899FE00DF11D1124E60FF11DEE0FC8
:10274000FF1FEE5DFA4F859194910895880F991FB0
:10275000FC01E254FE4F859194910895CF93DF934D
:102760000E9494130E946515EC01811520E59207E3
:10277000F0F5811530E4930708F024C1883E9105F7
:1027800000F5803E910508F09CC1883A910570F4EF
:10279000853A910508F09FC08130910509F491C1F7
:1027A00008F442C1049708F08CC13EC18F3B9105EB
:1027B00008F49CC0803C910508F436C1805C910906
:1027C000F4C0811540E2940758F4C11581E0D807A0
:1027D00008F077C1C03FD10508F426C1D06571C1AA
:1027E000811520E3920708F0E4C09F70DEC08115D8
:1027F00035E5930708F044C0811544E5940708F0D7
:10280000F8C0C11582E5D80708F5C11521E5D20742
:1028100008F0DBC08C2F837021E030E002C0220F73
:10282000331F8A95E2F73C68CE0174E09695879550
:102830007A95E1F78370382BCF70C695C69580E204
:10284000C89FE0011124C22BD32B3BC12C2F26950E
:102850002695CE0183709927C115D34508F0BAC0DB
:1028600040E2249F90011124C1E0D0E002C0CC0FCF
:10287000DD1F8A95E2F72C2B3D2BE901DC6821C195
:10288000811549E59407A0F4C11588E5D80708F03B
:10289000B5C0C11526E5D20708F0C6C08C2F0E942E
:1028A000E2158F71C82FD0E0DC2FCC27D06209C190
:1028B00081153AE5930708F4A6C090568115904219
:1028C00008F0B2C08D2F8F710E94E215DD27D06213
:1028D0008F71D82BF6C0853A910509F4A8C0863AC5
:1028E000910509F0A7C0C2E8D0E4EBC0883A910591
:1028F00009F4A3C0893A910509F4A2C08A3A910566
:1029000009F4A1C08B3A910509F4A0C08C3A910555
:1029100009F49FC08B3B910509F49EC08C3B910547
:1029200009F49DC08D3A910509F49CC0803B910546
:1029300009F49BC08E3A910509F49AC08F3A91052B
:1029400009F499C0813B910509F498C0823B910537
:1029500009F497C0833B910509F496C0843B910527
:1029600009F495C0853B910509F494C0863B910517
:1029700009F493C0873B910509F492C0883B910507
:1029800009F491C0893B910509F490C08D3B9105F4
:1029900009F48FC08E3B910509F48EC08A3B9105E6
:1029A00009F48DC0C0E0D4E48CC00E94A613EC01F1
:1029B00088C09927D3FF03C0EC01D86C82C0EC011A
:1029C000D06C7FC0DF70D06A7CC0DC2FCC27C16F99
:1029D000D06A77C040E2249F90011124C1E0D0E08A
:1029E00002C0CC0FDD1F8A95E2F7C22BD32BDA6829
:1029F00068C0D82FCC27C46FD06A63C0DC2FCC2727
:102A0000C06FD06A5EC08F700E94E21594E0D695C8
:102A1000C7959A95E1F7CF70D0E0DC2FCC27D06A2C
:102A20008F70806EC82B4DC0C0E0D0E04AC0C1E8B6
:102A3000D0E447C0C3E8D0E444C0C2EED4E441C00F
:102A4000C9EED4E43EC0CAEED4E43BC0C5EBD4E446
:102A500038C0C6EBD4E435C0C3EBD4E432C0C4EB19
:102A6000D4E42FC0C7EBD4E42CC0CCECD4E429C010
:102A7000CDECD4E426C0C3E8D5E423C0CAE8D5E44D
:102A800020C0C2E9D5E41DC0C4E9D5E41AC0C1E242
:102A9000D6E417C0C3E2D6E414C0C4E2D6E411C041
:102AA000C5E2D6E40EC0C6E2D6E40BC0C7E2D6E467
:102AB00008C0CFE6D4E405C0C0E7D4E402C0CAE24F
:102AC000D6E4CE01DF91CF9108958238910549F186
:102AD000B0F48133910509F458C048F48932910566
:102AE00009F44EC08A32910509F454C00895853323
:102AF000910509F440C08933910599F00895833E0A
:102B0000910529F138F4803E910591F0823E9105BE
:102B1000A1F00895863E9105F9F0873E910531F1C7
:102B2000089520919C0620FD3AC021FD38C00895EB
:102B300080919C0680FD35C032C080919C0682FF4A
:102B400032C080919C0684FD30C083EE39C08091F4
:102B50009C0682FD28C0F5CF80919C0683FF27C08C
:102B600080919C0684FD21C087EE2AC080919C063E
:102B700083FD1DC0F5CF80919C0685FD1AC01BC04A
:102B800080919C0685FD17C014C080919C0686FD2F
:102B900014C015C080919C0686FD11C00EC080EE49
:102BA0000FC089E30DC082EE0BC080E009C086EE45
:102BB00007C089E205C085E303C08AE201C081E362
:102BC00090E0089590919C0692FF0DC0282F2871E7
:102BD000283019F4877F846006C0282F24712430A0
:102BE00011F48B7F886093FF0DC0282F2871283146
:102BF00019F4877E846106C0282F2471243111F4D2
:102C00008B7E886194FD877E0895CF93DF9381301A
:102C100020E8920768F0FB012281222349F0EC01B1
:102C20000E943216CE019F770E947A160E94671684
:102C300081E0DF91CF9108958CE090E00E94AD3B60
:102C400090E0A0E0B0E08093300590933105A09330
:102C50003205B09333050895609130058CE090E023
:102C60000C94C13B0E940C2E809321040E941F2EC5
:102C700080913005813071F048F08230D9F0843095
:102C8000F9F486EE0E94DF2588E118C082EE0E94EA
:102C9000692416C080EE0E94692481EE0E94692496
:102CA00088E10E94DF2581EE0E94802580EE0E944F
:102CB000802506C082EE0E94692487E50E94DF25F8
:102CC0008FE39CE90197F1F700C00000089580911F
:102CD0003005813021F038F0823029F007C08CE2D5
:102CE0000E94DF2503C082EE0E948025809121048E
:102CF0000C941C2E0F931F93CF93DF938C01CCE089
:102D0000D0E0C8010C2E02C0969587950A94E2F790
:102D10008F700E94CE100E94DF252497CC3F8FEF4A
:102D2000D80779F7DF91CF911F910F9108950F93F5
:102D30001F93CF93DF93EC018B01FB0182818823EA
:102D400019F1C33EFCE5DF07C1F050F4C13EECE5EC
:102D5000DE0781F0C23EFCE5DF07B1F481E010C080
:102D6000C43E8CE5D80759F0C53EECE5DE0761F4BA
:102D700084E006C01092300505C082E001C083E007
:102D8000809330050E942C16B801CE01DF91CF91BF
:102D90001F910F910C940516CF92DF92EF92FF9244
:102DA0000F931F93CF93DF93E82FF82F711103C078
:102DB000682F782F7EC0062F10E0C72FD0E0E82EB6
:102DC000F12CC8016BE270E00E94233B9B0145EDB2
:102DD0004203B001439F700D1124060F171F86E0B8
:102DE000809FB001819F700D11244FEF50E0CA0108
:102DF0008C1B9D0B8E9DD0018F9DB00D9E9DB00DA7
:102E000011248B2F6C9F80016D9F100D7C9F100DE6
:102E10001124012F11276A01C01AD10ACE9C80010A
:102E2000CF9C100DDE9C100D11246A01C61AD70A22
:102E3000CC9EB001CD9E700DDC9E700D1124672FCD
:102E40007727461B570B4E9DE0014F9DD00D5E9D91
:102E5000D00D11247D2F2230310599F04CF421152D
:102E60003105C9F021303105A1F47E2FE12F13C0C7
:102E70002330310551F02430310559F4ED2F7B2FEB
:102E800006C0EB2F8D2F7F2F06C0712FEB2F8F2FBA
:102E900002C07B2F812FF0E0EE5EF54F6491E72FAB
:102EA000F0E0EE5EF54F7491E82FF0E0EE5EF54F46
:102EB0008491DF91CF911F910F91FF90EF90DF9060
:102EC000CF90089580E190E00C94B53BAB01BC013C
:102ED00080E190E00C94D33BE9E2F5E08DE0808363
:102EE00010922A058FEF828383831482608171811F
:102EF000828193810C946617E0910703F091080397
:102F00000994E0910303F09104030994E09105030F
:102F1000F0910603099440E060E080E00C9486178D
:102F2000E9E2F5E06081862F881F8827881F60917D
:102F30002A05660F682B728183810E94CC16962F1A
:102F4000672F482F892F0C948617DF92EF92FF92FC
:102F50000F931F93CF93DF9380912905881F8827B4
:102F6000881F90912A05492F440F242F282B97FB67
:102F7000332730F9C9018C549F4F68E671E00E94F5
:102F8000373B821B930B8038910514F09A9505C04E
:102F900081384FEF94070CF4939597FD0396959520
:102FA000879595958795C82F80912B05281B31090A
:102FB00037FF02C02D5F3F4F3595279535952795F3
:102FC000D22FD0902C0597E1E92E91E0F92E00E068
:102FD00010E0F701208122952F7060912905962F2E
:102FE000991F9927991F60912A05660F692B2C9FBD
:102FF000600D112470912B052D9F700D11248D2DC6
:103000000E94CC16472F282FC8010E9481170F5FFE
:103010001F4FF4E0EF0EF11C00331105D1F6DF91E4
:10302000CF911F910F91FF90EF90DF900895AF9295
:10303000BF92CF92DF92EF92FF920F931F93CF93A5
:10304000DF931F92CDB7DEB7D82E20912905221F1E
:103050002227221F80912A05982F990FB22EB92A74
:1030600087FB882780F9EB2DF82FCF018C549F4FD9
:1030700068E671E00E94373B9C012E1B3F0B37FF37
:1030800002C02D5F3F4F3595279535952795A22E88
:10309000C0902B05009128041091290420912A0446
:1030A00030912B0490912D05992359F0692F70E0F0
:1030B0008AE090E00E94373BCB01770FAA0BBB0B55
:1030C00004C08AE090E0A0E0B0E080239123A22336
:1030D000B323892B8A2B8B2B41F40E949D3B60E309
:1030E00070E00E94373B082F01C00FEFE12CF12C5C
:1030F00010E0D11003C0E016F106A9F40E949D3B38
:1031000083706B2D8A9D600D112469830E949D3B05
:1031100069817C2D80912C050E94CC16472F282F89
:10312000C7010E9481178FEFE81AF80A80E3E816BA
:10313000F104F9F60F90DF91CF911F910F91FF905D
:10314000EF90DF90CF90BF90AF900895CF92DF9235
:10315000EF92FF921F93CF93DF9380912804909179
:103160002904A0912A04B0912B0400902D0504C0DD
:10317000880F991FAA1FBB1F0A94D2F7182F85E149
:10318000C82E81E0D82EC0E0D0E09FE3E92EF12CDC
:10319000F60180818F3FE1F0FE01EC5CFA4F808107
:1031A000F4E08F9FC00111248034910524F4B7010D
:1031B000681B790B02C060E070E0610F7FEF8091C7
:1031C0002C050E94CC16472F282FCE010E94811774
:1031D000219624E0C20ED11CC033D105C9F6DF917F
:1031E000CF911F91FF90EF90DF90CF900895CF92F5
:1031F000DF92EF92FF920F931F93CF93DF93809113
:10320000280490912904A0912A04B0912B040090E5
:103210002D0504C0880F991FAA1FBB1F0A94D2F75F
:10322000D82EC0902C0505E111E0C0E0D0E08FE37E
:10323000E82EF12CF80180818F3FF9F0FE01EC5C63
:10324000FA4F2081F4E02F9F9001112420343105A2
:103250002CF4C701821B930B9C0102C020E030E0DC
:10326000F80161816D0D620F7FEF8C2D0E94CC16ED
:10327000472F282FCE010E94811721960C5F1F4FE8
:10328000C033D105B9F6DF91CF911F910F91FF9017
:10329000EF90DF90CF900895CF92DF92EF92FF9260
:1032A0000F931F93CF93DF9380912804909129046B
:1032B000A0912A04B0912B0400902D0504C0880F22
:1032C000991FAA1FBB1F0A94D2F7D82EC0902C05B5
:1032D00005E111E0C0E0D0E08FE3E82EF12CF80129
:1032E00080818F3FF9F0FE01EC5CFA4F2081F4E021
:1032F0002F9F90011124203431052CF4C701821B2B
:10330000930B9C0102C020E030E0F80162816D0D5A
:10331000620F7FEF8C2D0E94CC16472F282FCE01F5
:103320000E94811721960C5F1F4FC033D105B9F65B
:10333000DF91CF911F910F91FF90EF90DF90CF9091
:1033400008952F923F924F925F926F927F928F9249
:103350009F92AF92BF92CF92DF92EF92FF920F9324
:103360001F93CF93DF9330902B0520902C05609115
:1033700028047091290480912A0490912B040E94C2
:1033800063392BED3FE049E450E40E94593A20E0D4
:1033900030E040E05CE30E94593A6B017C010E94FE
:1033A000B63820E030E040E05DE30E94593A2B015E
:1033B0003C01C701B6010E94C63A20E030E040EE71
:1033C00052E40E94BB384B015C01C7E1D1E000E050
:1033D00010E0688170E080E090E00E94653920E0B4
:1033E00030E040E052E40E944438A30192010E9480
:1033F000593A6B017C01FE013197608170E080E0F9
:1034000090E00E94653920E030E040EE52E40E94F6
:103410004438A50194010E94593A9B01AC01C701AF
:10342000B6010E94453820E030E044E353E40E94B6
:10343000593A6B017C0180912905881F8827881FD4
:1034400090912A05292F220F622F682B97FB77274F
:1034500070F9072E000C880B990B0E9465399B01AF
:10346000AC01C701B6010E9445380E943439732D62
:10347000822D0E94CC16472F282FC8010E94811749
:103480000F5F1F4F24960033110509F0A2CFDF9183
:10349000CF911F910F91FF90EF90DF90CF90BF9051
:1034A000AF909F908F907F906F905F904F903F90E4
:1034B0002F9008952F923F924F925F926F927F923A
:1034C0008F929F92AF92BF92CF92DF92EF92FF9234
:1034D0000F931F93CF93DF93CDB7DEB728970FB627
:1034E000F894DEBF0FBECDBF80912B058D839091E8
:1034F0002C059E83609128047091290480912A04F0
:1035000090912B040E9463392BED3FE049E450E495
:103510000E94593A20E030E040E05CE30E94593AD2
:103520006B017C010E94B6382B013C01C701B6013A
:103530000E94C63A69837A838B839C83E7E1F1E03A
:10354000F887EF8300E010E0EF81F8853197208065
:10355000EF81F885B08030902D05332079F0632D10
:1035600070E080E090E00E94653920E030E040ECBF
:103570005FE30E94593A6B017C0106C0C12CD12C3B
:1035800090ECE92E9FE3F92E6B2D70E080E090E047
:103590000E94653920E030E040E052E40E94443867
:1035A0009B01AC01C701B6010E94593AA3019201E7
:1035B0000E94593A4B015C01332079F0632D70E091
:1035C00080E090E00E94653920E030E040EC5FE36D
:1035D0000E94593A6B017C0106C0C12CD12C80ECB1
:1035E000E82E8FE3F82E622D70E080E090E00E94DC
:1035F000653920E030E040EE52E40E9444389B01FF
:10360000AC01C701B6010E94593A29813A814B8128
:103610005C810E94593A9B01AC01C501B4010E9432
:1036200045386B017C0180912905881F8827881FF8
:1036300090912A05292F220F622F682B97FB77275D
:1036400070F9072E000C880B990B0E9465399B01BD
:10365000AC01C701B6010E9445380E9434397D8112
:103660008E810E94CC16472F282FC8010E948117F7
:103670000F5F1F4F8F819885049698878F83003343
:10368000110509F061CF28960FB6F894DEBF0FBE82
:10369000CDBFDF91CF911F910F91FF90EF90DF9001
:1036A000CF90BF90AF909F908F907F906F905F90E2
:1036B0004F903F902F9008952F923F924F925F929C
:1036C0006F927F928F929F92AF92BF92CF92DF9232
:1036D000EF92FF920F931F93CF93DF9300D000D010
:1036E0001F92CDB7DEB720912B052A8380912C0540
:1036F0008B83609128047091290480912A04909111
:103700002B040E9463392BED3FE049E450E40E9412
:10371000593A20E030E040E05CE30E94593A6B0106
:103720007C010E94B6382B013C01C701B6010E9402
:10373000C63A4B015C01A7E1B1E0BD83AC8300E078
:1037400010E0EC81FD813197B081B983EC81FD817E
:10375000308020902D05222069F0622D70E0660FE8
:10376000771F072E000C880B990B0E9465396B019F
:103770007C0105C0C12CD12CE12C20E4F22E632D5C
:1037800070E080E090E00E94653920E030E040E0A9
:1037900052E40E9444389B01AC01C701B6010E946B
:1037A000593AA30192010E94593A6B017C012220EF
:1037B00021F0312C220C331C03C082E0282E312C46
:1037C000F9816F2F70E080E090E00E94653920E081
:1037D00030E040EE52E40E9444380E942D399B01B3
:1037E00077FF04C022273327261B370B82E490E0A3
:1037F000821B930B289EB001299E700D389E700D80
:103800001124072E000C880B990B0E946539A50125
:1038100094010E94593A9B01AC01C701B6010E9474
:1038200045386B017C0180912905881F8827881FF6
:1038300090912A05292F220F622F682B97FB77275B
:1038400070F9072E000C880B990B0E9465399B01BB
:10385000AC01C701B6010E9445380E9434397A8113
:103860008B810E94CC16472F282FC8010E948117F8
:103870000F5F1F4F8C819D8104969D838C83003345
:10388000110509F05ECF0F900F900F900F900F90E1
:10389000DF91CF911F910F91FF90EF90DF90CF902C
:1038A000BF90AF909F908F907F906F905F904F9060
:1038B0003F902F9008952F923F924F925F926F9278
:1038C0007F928F929F92AF92BF92CF92DF92EF92B0
:1038D000FF920F931F93CF93DF9300D01F92CDB72A
:1038E000DEB720902B0580912C05898360912804F8
:1038F0007091290480912A0490912B040E946339CD
:1039000020E030E040E85BE30E94593A20E030E0FC
:1039100040E653E40E94593A2B013C01E7E1F1E013
:10392000FB83EA8300E010E0EA81FB81319730807D
:10393000EA81FB81E080F0902D05FF2079F06F2D6A
:1039400070E080E090E00E94653920E030E040ECDB
:103950005FE30E94593A4B015C0106C0812C912C17
:1039600090ECA92E9FE3B92E6E2D70E080E090E0E0
:103970000E94653920E030E040E052E40E94443883
:103980000E942D399B0177FF04C022273327261B75
:10399000370BB901330F880B990B0E9465399B01D6
:1039A000AC01C501B4010E94593A2EE23DEB4BEB4C
:1039B00053EB0E94593A4B015C01FF2079F06F2DC7
:1039C00070E080E090E00E94653920E030E040EC5B
:1039D0005FE30E94593A6B017C0106C0C12CD12CD7
:1039E00080ECE82E8FE3F82E632D70E080E090E00D
:1039F0000E946539A30192010E9444389B01AC01E9
:103A0000C701B6010E94593A9B01AC01C501B4013E
:103A10000E9444386B017C0180912905881F88270A
:103A2000881F90912A05292F220F622F682B97FB60
:103A3000772770F9072E000C880B990B0E946539C7
:103A40009B01AC01C701B6010E9445380E94343980
:103A5000722D89810E94CC16472F282FC8010E9401
:103A600081170F5F1F4F8A819B8104969B838A83F6
:103A70000033110509F058CF0F900F900F90DF9190
:103A8000CF911F910F91FF90EF90DF90CF90BF905B
:103A9000AF909F908F907F906F905F904F903F90EE
:103AA0002F900895CF92DF92FF920F931F93CF93A1
:103AB000DF931F92CDB7DEB7F82E00912804109146
:103AC000290420912A0430912B0490912D059923EB
:103AD00059F0692F70E08AE090E00E94373BAB011B
:103AE000770F660B770B04C04AE050E060E070E0AF
:103AF0004023512362237323452B462B472B39F454
:103B00000E949D3B60E370E00E94373B01C08FEF55
:103B100000E010E0C82ED12CF11003C00C151D05DB
:103B200081F40E949D3B89830E949D3B782F69818F
:103B300080912C050E94CC16472F282FC8010E9487
:103B400081170F5F1F4F0033110531F70F90DF9181
:103B5000CF911F910F91FF90DF90CF90089508951E
:103B60000E94AF1D0C94E30E4091290540FD0AC050
:103B70000E948B170E94B01D80912905817080934F
:103B80000701089580912204843120F48F5F80938F
:103B9000220408958091280490912904A0912A0478
:103BA000B0912B040196A11DB11D80932804909320
:103BB0002904A0932A04B0932B04809124049091AB
:103BC0002504A0912604B09127048F3F2FEF920780
:103BD000A207B20759F00196A11DB11D80932404DC
:103BE00090932504A0932604B09327048091230486
:103BF000E4E3F5E090819F3F61F09E3F41F4282F80
:103C000030E02230310514F0815001C080E09F5F28
:103C10009083319695E0E436F90761F780932304A9
:103C2000E42FE695EF7380910601E81307C081E069
:103C300090910701913019F480E001C081E081701A
:103C4000E093060191E0909307014E2F50E0FA01B6
:103C50003197EB30F10520F5E358FF4F0C944B3BC7
:103C60000E9490171DC00E94A1191AC00E94A5179A
:103C700017C00E94171814C00E94A61811C00E94F5
:103C8000F7180EC00E944C190BC00E945A1A08C0A7
:103C90000E945C1B05C00E945B1C02C00E94521D5A
:103CA0000C94B01DE0910103F09102030995E4E347
:103CB000F5E08FEF819395E0E436F907D9F70E949C
:103CC0000F2F811104C00E94892F0E946C170E943F
:103CD00062176093290570932A0580932B059093B2
:103CE0002C056E7761F40E946C170E946217609336
:103CF000290570932A0580932B0590932C05089530
:103D0000609128047091290480912A0490912B04D9
:103D10000895E9E2F5E08081982F909590FB80F975
:103D2000808360817181828193810C946617909168
:103D30002905892F86958F5F8F7391788C3018F4C1
:103D4000880F892B02C0892F82608093290560919A
:103D5000290570912A0580912B0590912C050C94D2
:103D6000661790912905892F8695815C8F739178CC
:103D7000882319F0880F892B02C0892F86618093D0
:103D800029056091290570912A0580912B05909154
:103D90002C050C94661780912905982F991F992757
:103DA000991F80912A05880F892B90E008968F3FF4
:103DB000910519F014F08FEF90E02091290580FB18
:103DC00027F920932905282F269580912A058078A8
:103DD000822B90FB87F980932A05609129057091C9
:103DE0002A0580912B0590912C050C9466178091E3
:103DF0002905982F991F9927991F80912A05880FC7
:103E0000892B90E0089797FF02C080E090E08F3FF9
:103E1000910519F014F08FEF90E02091290580FBB7
:103E200027F920932905282F269580912A05807847
:103E3000822B90FB87F980932A0560912905709168
:103E40002A0580912B0590912C050C946617809182
:103E50002B0590E008968F3F910519F014F08FEF35
:103E600090E080932B056091290570912A0580913F
:103E70002B0590912C050C94661780912B0590E0F2
:103E8000089797FF02C080E090E08F3F910519F0FE
:103E900014F08FEF90E080932B05609129057091CD
:103EA0002A0580912B0590912C050C946617809122
:103EB0002C0590E008968F3F910519F014F08FEFD4
:103EC00090E080932C056091290570912A058091DE
:103ED0002B0590912C050C94661780912C0590E091
:103EE000089797FF02C080E090E08F3F910519F09E
:103EF00014F08FEF90E080932C056091290570916C
:103F00002A0580912B0590912C050C9466178091C1
:103F10002D0590E001968430910514F083E090E047
:103F200080932D056091290570912A0580912B05BC
:103F300090912C050C94661780912D0590E00197C7
:103F400097FF02C080E090E08430910514F083E098
:103F500090E080932D056091290570912A0580914C
:103F60002B0590912C050C946617E9E2F5E08F7310
:103F7000982F990F80818178892B8083608171814E
:103F8000828193810C946617E9E2F5E08F73982F94
:103F9000990F80818178892B8083089580912905EC
:103FA00086958F730895E9E2F5E0208180FB27F97B
:103FB0002083AAE2B5E086952C912078822B90FB95
:103FC00087F98C93628343836081718182819381BD
:103FD0000C946617E9E2F5E0208180FB27F9208345
:103FE000AAE2B5E086952C912078822B90FB87F988
:103FF0008C9362834383089567E784E70C94D1210F
:10400000CF930E94102284E70E94562087E70E94E7
:104010005620C0E021E041E061E08C2F0E94E820C2
:10402000CF5FC033B9F767E784E7CF910C94E42101
:10403000E4E8F6E06083418324E630E042E050E0CB
:10404000BF01880F0C94E622EF92FF921F93CF934B
:10405000DF937B01182F110FC0E0D0E08C2F8C5D17
:104060008093840620E030E0F901EC0FFD1FEE0D97
:10407000FF1D8081F901EC57F94F81832F5F3F4F7E
:104080002031310589F724E630E041E150E064E871
:1040900076E0812F0E94E6226096C039D105F1F6C4
:1040A000DF91CF911F91FF90EF900895CF93DF9311
:1040B000C82F4BE06DEF0E94182040E06AE08C2F83
:1040C0000E9418208FE39CE90197F1F700C00000DF
:1040D00040E060E08C2F0E94182040E061E08C2FCF
:1040E0000E94182040E066E08C2F0E94182040E0DB
:1040F0006DEF8C2F0E941820D0E040E06D2F8C2FA8
:104100000E941820DF5FD231C1F740E06D2F8C2F65
:104110000E941820DF5FD432C1F740E06D2F8C2F52
:104120000E941820DF5FD43BC1F74BE06DEF8C2F6E
:104130000E94182041E06AE08C2F0E94182040E085
:104140006DEF8C2FDF91CF910C9418208033910567
:1041500020F5880F991F880F991FFC01EB52FE4F25
:1041600052813381808183707181E0E98E9FC0012B
:1041700011248C599A4FFC01E70FF11DB49760830D
:10418000FC01E50FF11DB4974083830F911DFC01E5
:10419000B497208381E0809351040895FF920F9398
:1041A0001F93CF93DF93182F062FF42EC0E0D0E09B
:1041B0002F2D402F612FCE010E94A6202196C033C3
:1041C000D105B1F7DF91CF911F910F91FF90089525
:1041D0004F925F927F928F929F92AF92BF92CF92B7
:1041E000DF92EF92FF920F931F93CF93DF93362FBF
:1041F00054E0859FC0011124FC01EB52FE4FA081C9
:10420000A3707A2E618170E0CB0184978C0197FFB7
:1042100002C0095F1F4FA3E015950795AA95E1F726
:10422000628170E07B0154E2E51AF108E701F7FCD6
:10423000279673E0D595C7957A95E1F7638170E08D
:104240004B01E4E28E1A9108F40197FC37962F0196
:1042500053E0559447945A95E1F768E0A62EB12CA7
:10426000B5010E94373B6C01C701B5010E94373B85
:104270007C01C401B5010E94373BA72DB0E0112796
:10428000DD243323A1F032E13A9FB0013B9F700D52
:104290001124060F171F035D1B4F61E070E001C082
:1042A000660FCA94EAF7F8013081632B14C032E13B
:1042B0003A9FB0013B9F700D1124060F171F035D3D
:1042C0001B4F61E070E001C0660FCA94EAF7609589
:1042D000F801308163236083DD27FF2432E144232A
:1042E00091F03A9FA0013B9F500D1124C40FD51FA0
:1042F000C35DDB4F41E050E001C0440FEA94EAF7B0
:104300003881432B12C03A9FA0013B9F500D1124CE
:10431000C40FD51FC35DDB4F41E050E001C0440F27
:10432000EA94EAF74095388143234883A201552750
:10433000992792E19A9FF0019B9FF00D1124E40FC1
:10434000F51FE35DFB4F222361F021E030E0A9017E
:1043500002C0440F551F8A95E2F7CA019081892B4C
:104360000CC021E030E0A90102C0440F551F8A951E
:10437000E2F7CA01809590818923808381E0809350
:104380002C04DF91CF911F910F91FF90EF90DF9060
:10439000CF90BF90AF909F908F907F905F904F9005
:1043A0000895CF9390915104992351F0C62F64E65C
:1043B00075E00E94242064EF75E08C2F0E94242079
:1043C00010925104CF910895EF92FF920F931F9393
:1043D000CF93DF9390912C049923D9F0162F082FB7
:1043E0008DE2E82E84E0F82EC0E0D0E0F7014191A4
:1043F0007F016C2F802F0E941820FE01E35DFB4F90
:1044000042896C2F812F0E9418202196C231D1053C
:1044100069F7DF91CF911F910F91FF90EF90089571
:104420001092B9008CE08093B8000895EF92FF924B
:104430000F931F93CF93DF93182FEB011092BC00C3
:1044400084EA8093BC000E949D307C019091BC0066
:1044500097FD0EC0CF3F8FEFD807C1F30E949D306C
:104460008E199F098C179D0788F38EEF9FEF2EC042
:104470009091B900987F983041F09091B900987F61
:10448000903119F08FEF9FEF21C01093BB0084E8AB
:104490008093BC000E949D308C019091BC0097FDE0
:1044A0000CC0CF3F8FEFD807C1F30E949D30801B17
:1044B000910B8C179D0788F3D8CF8091B900887F26
:1044C000883111F08034F1F680E090E0DF91CF91F7
:1044D0001F910F91FF90EF9008950F931F93CF932B
:1044E000DF93EB018093BB0084E88093BC000E94C3
:1044F0009D308C019091BC0097FD0EC0CF3F8FEF97
:10450000D807C1F30E949D30801B910B8C179D072B
:1045100088F38EEF9FEF0CC02091B900287F81E0D7
:1045200090E0283211F480E090E091958195910916
:10453000DF91CF911F910F9108950F931F93CF9308
:10454000DF93EC0184E88093BC000E949D308C01D5
:104550009091BC0097FD0EC0CF3F8FEFD807C1F3FD
:104560000E949D30801B910B8C179D0788F38EEF66
:104570009FEF03C08091BB0090E0DF91CF911F912E
:104580000F9108950F931F93CF93DF93EC0184E96C
:104590008093BC000E949D308C019091BC0094FFE0
:1045A0000EC0CF3F8FEFD807C1F30E949D30801B14
:1045B000910B8C179D0788F38EEF9FEF02C080E070
:1045C00090E0DF91CF911F910F910895CF92DF92EC
:1045D000EF92FF920F931F93CF93DF936B017A01BA
:1045E0008901B9010E941622FC01892BC9F4E60158
:1045F000EC0CFD1CCE15DF0541F0B80189910E943D
:104600006D22FC01892BB1F30BC0C801DF91CF9162
:104610001F910F91FF90EF90DF90CF900C94C222EA
:10462000CF01DF91CF911F910F91FF90EF90DF901D
:10463000CF90089590935704809356040895E09185
:104640005604F0915704309721F00190F081E02D4D
:10465000099480E00895E0915604F0915704309752
:1046600099F020911401222359F020919C0627FFF4
:1046700007C0DC012C9111962C93119725E02C9307
:104680000280F381E02D0994089520915404309123
:1046900055048217930771F0909355048093540446
:1046A000E0915604F0915704309721F00680F7818D
:1046B000E02D0994089520915204309153048217FB
:1046C000930771F09093530480935204E091560441
:1046D000F0915704309721F00084F185E02D099482
:1046E000089585B7806885BF85B7806885BF0895C0
:1046F000089508950C94792308950C947C230E94C6
:1047000071230E9478230C947A2381E008950E94FB
:1047100094300E94B4060E942B310C947D23CF92DA
:10472000DF92EF92FF920F931F93CF93DF93CDB75A
:10473000DEB72B970FB6F894DEBF0FBECDBF0E9439
:1047400086070E948523811111C08FEF89838A8398
:104750001B820E949D308160782F9D838C834981CC
:104760005A816B818D810E94352456C089E5C82EFF
:1047700084E0D82E00E010E0E02E802F0E94CE07CB
:10478000F60141916F01F42EF82631F40F5F1F4FAF
:104790000E30110589F7D9CF9091040591FF04C01F
:1047A0008B870E94D4078B8520E030E04F2D50E0AE
:1047B000922FBA01022E02C0759567950A94E2F70E
:1047C00060FF24C02E83EF8221E030E0690102C047
:1047D000CC0CDD1C9A95E2F790E08C219D21892B71
:1047E00009F420E028870E949D308160782F9A8705
:1047F00089874E815F8168858A850E943524F8010A
:10480000E75AFB4F8081C826C08206C02F5F3F4F0A
:104810002630310569F6BACF109158040E941F2343
:104820001817A1F00E941F23809358042B960FB6EF
:10483000F894DEBF0FBECDBFDF91CF911F910F91D6
:10484000FF90EF90DF90CF900C94DF102B960FB677
:10485000F894DEBF0FBECDBFDF91CF911F910F91B6
:10486000FF90EF90DF90CF900895CF93DF93CDB777
:10487000DEB72B970FB6F894DEBF0FBECDBF4F83C8
:10488000588769877A878B87DE01119686E0FD015C
:1048900011928A95E9F785E0FE01379601900D9215
:1048A0008A95E1F749815A816B817C818D819E8156
:1048B0000E94002B2B960FB6F894DEBF0FBECDBF23
:1048C000DF91CF910895FC01808191810E94CD2DCF
:1048D0000895882309F413C1682F8238C1F40E9417
:1048E0001F2381FD0CC169E38091080190910901AA
:1048F0000E94F02F0E945B2E2FEF81EE94E021505A
:1049000080409040E1F700C0000069E319C083389F
:10491000F9F40E941F2380FDF2C063E58091080135
:10492000909109010E94F02F0E945B2E2FEF81EEE3
:1049300094E0215080409040E1F700C0000063E522
:1049400080910801909109010E94FB2F0C945B2E2D
:104950008438C1F40E941F2382FDD1C067E4809196
:104960000801909109010E94F02F0E945B2E2FEF09
:1049700081EE94E0215080409040E1F700C00000BB
:1049800067E4DECF8CEF860F813A38F4809108011E
:10499000909109010E94F02FD9CF80E2860F8830D4
:1049A00048F4677081E001C0880F6A95EAF70E94B9
:1049B0000F2ECCCF8BE5860F833070F4653A29F04B
:1049C000663A31F083E890E005C081E890E002C0EB
:1049D00082E890E00C94452388E5860F873108F043
:1049E0008EC0683A09F445C0693A09F445C06A3A8C
:1049F00009F445C06B3A09F445C06C3A09F445C066
:104A00006B3B09F445C06C3B09F445C06D3A09F4B1
:104A100045C0603B09F445C06E3A09F445C06F3AA1
:104A200009F445C0613B09F445C0623B09F445C047
:104A3000633B09F445C0643B09F445C0653B09F498
:104A400045C0663B09F445C0673B09F445C0683B77
:104A500009F445C0693B09F445C06D3B09F445C004
:104A60006E3B09F445C06A3B09F445C080E090E024
:104A700044C082EE90E041C089EE90E03EC08AEEF4
:104A800090E03BC085EB90E038C086EB90E035C00D
:104A900083EB90E032C084EB90E02FC087EB90E096
:104AA0002CC08CEC90E029C08DEC90E026C083E80F
:104AB00091E023C08AE891E020C082E991E01DC026
:104AC00084E991E01AC081E292E017C083E292E0AB
:104AD00014C084E292E011C085E292E00EC086E24A
:104AE00092E00BC087E292E008C08FE690E005C03C
:104AF00080E790E002C08AE292E00C945B23089584
:104B0000882309F45BC0682F823879F40E941F2340
:104B100081FF54C069E380910801909109010E94CE
:104B2000F02F0E945B2E69E310C08338B1F40E941D
:104B30001F2380FF43C063E5809108019091090124
:104B40000E94F02F0E945B2E63E5809108019091F6
:104B500009010E94FB2F0C945B2E843879F40E948B
:104B60001F2382FF2BC067E4809108019091090107
:104B70000E94F02F0E945B2E67E4E7CF8CEF860F38
:104B8000813A18F380E2860F883048F4677081E03C
:104B900001C0880F6A95EAF70E94152EDCCF8BE5DD
:104BA000860F833020F480E090E00C944523685A0F
:104BB000673120F480E090E00C945B230895CF935C
:104BC000C82F0E9469248C2FCF910C9480258823B4
:104BD00021F00E940F2E0C945B2E0895882321F063
:104BE0000E94152E0C945B2E08958F929F92AF9287
:104BF000BF92DF92EF92FF920F931F93CF93DF93B9
:104C00007C01D62FC72FFC01058102950F70128100
:104C100011110E942F2E0E94052E882379F0112356
:104C200069F080E28D0F883048F082E00E94A62E65
:104C30000E94052E91E0D82ED92601C0D12CAC2E91
:104C4000A2948FE0A822B12CF501E857FF4F0C94F5
:104C50004B3B8C2F807FCF70882311F0C295C07F93
:104C6000112399F0CC2309F485C180E28D0F88309F
:104C700010F0D11104C08C2F0E940F2E03C08C2F76
:104C80000E94222E0E945B2E75C18D2F0E948025CE
:104C9000CC2309F494C180E28D0F883010F0D1113B
:104CA00004C08C2F0E94152E03C08C2F0E94282E2A
:104CB0000E945B2E84C18C2F807FCF70803211F0D8
:104CC000C295C07FDD2319F0D130C9F021C0112376
:104CD00071F0002341F0013031F40E94422E8C2B00
:104CE0000E94482E6CC10E94422E8C2BFDC00023D6
:104CF00019F0013009F463C10E94512E11C0112333
:104D000021F0023008F05BC107C0011158C108C092
:104D1000112321F001112EC18C2FE6C001113BC1DE
:104D20008C2FE8C08C2F86958695837090E0009735
:104D300019F0019761F043C1112321F08D2F9C2FB1
:104D4000937002C080E090E00E94452348C1112387
:104D500021F08D2F9C2F937002C080E090E00E9484
:104D60005B233DC18C2F837009F050C0111133C1FA
:104D70008D2F829586958770880F880F9D2F9F7045
:104D8000892E912CA12CB12C082E04C0880C991CC2
:104D9000AA1CBB1C0A94D2F7D4FF14C00FE010E089
:104DA00020E030E0B901A80104C0440F551F661F80
:104DB000771F8A95D2F7CB01BA01609570958095DF
:104DC000909503C060E070E0CB01C695C695C370B6
:104DD000D0E0C230D10561F0C330D10581F068293F
:104DE00079298A299B29219771F00E94452CF3C0CB
:104DF000682979298A299B290E94572CECC00E9496
:104E0000452CC501B4010E94332CE5C0112319F0D3
:104E10008C2F817001C08695882309F4DCC08D2F0A
:104E2000829586958770880F880F9D2F9F70892E99
:104E3000912CA12CB12C082E04C0880C991CAA1C02
:104E4000BB1C0A94D2F7D4FF14C00FE010E020E09E
:104E500030E0B901A80104C0440F551F661F771F39
:104E60008A95D2F7CB01BA0160957095809590959F
:104E700003C060E070E0CB01C695C695C3704C2FAF
:104E800050E04230510569F04330510589F06829FE
:104E900079298A299B294130510571F00E940A2DF8
:104EA0009AC0682979298A299B290E941C2D93C0C0
:104EB0000E940A2DC501B4010E94F82C8CC08D2FD0
:104EC00090E0FC01E05EF109E531F10508F04EC02B
:104ED000E856FF4F0C944B3BDF708C2F8F711123E2
:104EE00031F00E94912C8D2F0E94E72568C00E940E
:104EF000B22C8D2F0E94EE2562C0112339F00111D2
:104F00005EC08C2F8F710E94D72C59C0023008F0E0
:104F100056C0F7CF112339F08C2F8F710E94912C3E
:104F20004EC01123C9F38C2F8F710E94B22C47C041
:104F3000112329F08C2F8F710E947C2C40C00E947D
:104F4000772C3DC0112349F0CF718C2F0E94912CFA
:104F500063E08C2F0E94912E32C081E00E94A62E29
:104F6000023068F182E00E94A62E29C0112331F0A0
:104F7000002391F28D2F0E94692421C0002399F211
:104F8000D93349F45FEF67EE73E0515060407040F1
:104F9000E1F700C000008D2F0E94802510C04C2F2B
:104FA0004F706D2FC7010E94520F0E94A42B17C093
:104FB0004C2F4F706D2FC7010E94931310C088E0D3
:104FC000A816B10441F05CF0EAE0AE1AB108F2E0D4
:104FD000AF16B10420F40E941F230E94DF10DD20D1
:104FE000E1F00E94012E80FD18C0F70112820E949C
:104FF000FB2D0E94912CC7010E9419280E94FB2DB5
:10500000DF91CF911F910F91FF90EF90DF90BF90B4
:10501000AF909F908F900C94B22CDF91CF911F9105
:105020000F91FF90EF90DF90BF90AF909F908F9087
:1050300008950F931F93CF93DF93EC01888199819B
:105040002B813C81232BB9F09F3F11F48F3F99F0C6
:10505000CE010E94F110882371F0688179818A81E4
:105060000E94D82D8C010E942E2D0E94302CB80158
:10507000CE010E94F525DF91CF911F910F910895E8
:105080000E942F2E0E943F2E0E945B2E80E090E017
:105090000E94452380E090E00C945B2380910801FE
:1050A000909109010E9406300C9440280E941F2E06
:1050B0000C944E28E92FE295EF70F0E03297EE3035
:1050C000F105B0F4E355FF4F0C944B3B803F91F05A
:1050D00018F4803E68F40EC0843F51F40BC0803E4B
:1050E00048F0813F29F406C093FB882780F9089592
:1050F00080E0089581E008950E94CD2D0E945A28F5
:105100000895CF93DF9300D000D01F92CDB7DEB7C4
:105110000F900F900F900F900F90DF91CF91089507
:10512000CF93DF9300D000D000D0CDB7DEB7269666
:105130000FB6F894DEBF0FBECDBFDF91CF910895BB
:105140001F93CF93DF93C091680416E080916904A8
:10515000C81799F0D0E01C9FF0011D9FF00D11249D
:10516000E659FB4F40815181628173818481958131
:105170000E9490282196C770E9CFDF91CF911F91AF
:10518000089540919A0450919B0460919C04709101
:105190009D0480919E0490919F040C94902880918E
:1051A0009F0482958F7009F054C080919C048823DD
:1051B00009F44FC080916804A091690460919A0439
:1051C00070919B0440919D0450919E04B6E08A1713
:1051D00009F43FC090E041155105C1F17F3F11F442
:1051E0006F3FA1F1B89FF001B99FF00D1124E6596E
:1051F000FB4F218172132AC02081621327C02281B4
:10520000211124C0238134812417350710F4215043
:105210003109241B350B283C3105C0F420919F0433
:105220002F70206120939F0426E0289FF001299F82
:10523000F00D1124E159FB4F80818F7080618083D4
:105240008AE994E00E9419280C94A028019687709E
:10525000BECF0895CF92DF92EF92FF920F931F93EC
:10526000CF93DF93CDB7DEB762970FB6F894DEBF6A
:105270000FBECDBF8C0185E0F801DE011D960190C7
:105280000D928A95E1F7D8014C9111965C91119796
:1052900012966C9112971396CD90DC9014973091E2
:1052A0009A0470919B0480919D0490919E040097B4
:1052B00009F46BC17F3F19F43F3F09F466C1E090E8
:1052C0009C04EE2009F4C0C020919F04C816D906A2
:1052D00028F0F601E81BF90BCF0104C080959095EA
:1052E0008C0D9D1DFF24F394883C910578F0F12CE2
:1052F000207F09F0C6C07C2DD98AC88A89890E947E
:1053000081288AE994E00E941928B1C0822F807F09
:1053100009F046C0751314C0341312C0611110C0D7
:105320002F70206120939F040E94C1288AE994E095
:105330000E94192880919F04D80115968C932EC045
:10534000CD2819F15F3F11F44F3FF9F0F62E6111AE
:105350001CC0809168042091690436E0821709F42A
:105360005AC090E0389FF001399FF00D1124E659A2
:10537000FB4F7181571306C07081471303C07281C0
:10538000711103C001968770E9CFF62E662309F4E8
:1053900027C180919F04816080939F04F12C20C1DC
:1053A000751308C0341306C0611104C080919F04B6
:1053B000D801C3C04D875E878D859E856A8B0E940C
:1053C0007C286A898823E1F16623D1F120919F042A
:1053D000822F82958F7090E0029774F080919A04EA
:1053E00090919B0498878F831986DB86CA862C87C9
:1053F000CE0107960E94192886E0F801AAE9B4E0D8
:1054000001900D928A95E1F70E94CF280E94C12851
:10541000FF24F394E5C04D875E878D859E850E94AD
:10542000CD2D292F22952F7030E0223031050CF040
:10543000CBC09F7009F0C5C0805E883008F4D0C032
:10544000C8010E941928E4CFC816D90608F453C031
:10545000F601E81BF90BCF01883C910508F450C018
:10546000F12C7C2DD98AC88A89890E948128EAE991
:10547000F4E086E0DF011D928A95E9F70E94C128D9
:10548000AFC0751314C0341312C0611110C08091E5
:105490009F04F8018583C8010E94192886E0EAE983
:1054A000F4E0DF011D928A95E9F7FE2C99C04D8743
:1054B0005E878D859E856A8B0E947C286A898823F9
:1054C00009F4BECF662309F4BBCF20919F04822F3D
:1054D00082958F7090E002970CF48ECF80919A04A1
:1054E00090919B049A8389831B82DD82CC822E83D8
:1054F000CE0101967FCF809590958C0D9D1DACCFF0
:10550000F62E662309F49CCF75132EC034132CC0DD
:1055100020919F0420FD1FC0822F82958F70D9F0AB
:10552000D80115962C9315978F3049F08F5F982FDF
:105530009295907F822F8F70892B15968C93C8013E
:105540000E94192886E0F801AAE9B4E001900D92C2
:105550008A95E1F793CF86E0F801AAE9B4E00190DB
:105560000D928A95E1F73CC04D875E878D859E85BB
:105570000E947C28811140CF80919F04816080939C
:105580009F04C8010E9419282BC0662309F458CF34
:105590004D875E878D859E850E947C28F82E882306
:1055A00009F44ECF86E0F801AAE9B4E001900D922B
:1055B0008A95E1F78AE994E00E9463240E94CF284B
:1055C0005DCF811139CF0CC0243031050CF038CFBC
:1055D0009F7009F431CFF8019581907F09F02CCFAD
:1055E0008F2D62960FB6F894DEBF0FBECDBFDF9150
:1055F000CF911F910F91FF90EF90DF90CF90089582
:105600001F93CF93DF93CDB7DEB72C970FB6F894E7
:10561000DEBF0FBECDBF4F83588769877A878B87E0
:105620009C87CE0107960E942A29882369F08F81E2
:1056300098852A853B85232BF1F19F3F09F063C0B4
:105640008F3F09F060C037C086E0FE013796DE016B
:10565000119601900D928A95E1F76F817885EA8520
:10566000FB85309741F17F3F11F46F3F21F120918D
:10567000690430E0C9010196877099274091680458
:1056800050E08417950709F447C069837A83FD8346
:10569000EC8396E0929FD001939FB00D1124A65900
:1056A000BB4FFE01319601900D929A95E1F78093E0
:1056B00069040E94A02816E0809168049091690412
:1056C0008917C1F1189FC001112486599B4F0E9470
:1056D0002A29882379F1E09168041E9FF0011124A2
:1056E000E659FB4F408151816281738184819581AC
:1056F0000E9490288091680490E001968770992715
:1057000080936804D9CF4F81588569857A858B85C8
:105710009C850E949028CFCF0E9456281092690441
:1057200010926804EAE9F4E086E0DF011D928A95B0
:10573000E9F7C1CF2C960FB6F894DEBF0FBECDBFF0
:10574000DF91CF911F910895EF92FF920F931F93D6
:10575000CF93DF938C01892B09F46CC0F12CEE24DC
:10576000E394E8012196F8018491843740F4843071
:1057700008F051C0813081F0823019F15BC085376B
:1057800009F444C0A8F19CE7980F903708F052C084
:105790008F770E94802541C00E5F1F4FFE01C4918C
:1057A00080E28C0F883048F4C7708E2D01C0880FBE
:1057B000CA95EAF70E94322E14C08C2F0E946924E9
:1057C0002DC00E5F1F4FFE01C49180E28C0F883008
:1057D00058F4C7708E2D01C0880FCA95EAF70E9451
:1057E000382E0E945B2E1AC08C2F0E94802516C076
:1057F0000E5F1F4FFE01C491CC2381F08FE99FE023
:105800000197F1F700C00000C150F6CF0E5F1F4FA7
:10581000FE01F49003C00E9469248E018F2D88231D
:1058200009F49FCFEFE9FFE03197F1F700C00000E6
:105830008150F5CFDF91CF911F910F91FF90EF90A5
:10584000089508950C94212C0E94222C6093DB046F
:105850007093DC048093DD049093DE040C94402864
:1058600008950C94242C0F931F930091DB04109146
:10587000DC042091DD043091DE04602B712B822B3F
:10588000932B1F910F910C94242C0F931F93009135
:10589000DB041091DC042091DD043091DE046023F0
:1058A0007123822393231F910F910C94242C0F9327
:1058B0001F930091DB041091DC042091DD043091F2
:1058C000DE0460277127822793271F910F910C9484
:1058D000242C0C941C100E94692C6093D7047093A4
:1058E000D8048093D9049093DA040C94402860E0A3
:1058F00070E0CB010C946B2C0F931F9341E050E0B0
:1059000060E070E08A019B0104C0000F111F221F9C
:10591000331F8A95D2F7C901B8011F910F910C94DA
:105920006B2C0F931F9341E050E060E070E004C0E7
:10593000440F551F661F771F8A95D2F78091D704B1
:105940009091D804A091D904B091DA048A019B0106
:10595000082B192B2A2B3B2BC901B8011F910F9142
:105960000C946B2C0F931F9341E050E060E070E0CB
:1059700004C0440F551F661F771F8A95D2F74095C4
:105980005095609570958091D7049091D804A0911E
:10599000D904B091DA048A019B01082319232A2330
:1059A0003B23C901B8011F910F910C946B2C0F93ED
:1059B0001F9341E050E060E070E004C0440F551FC9
:1059C000661F771F8A95D2F78091D7049091D804EB
:1059D000A091D904B091DA048A019B010827192704
:1059E0002A273B27C901B8011F910F910C946B2CFA
:1059F0000F931F930091D7041091D8042091D904DC
:105A00003091DA04602B712B822B932B1F910F9115
:105A10000C946B2C0F931F930091D7041091D80412
:105A20002091D9043091DA046023712382239323D7
:105A30001F910F910C946B2C0F931F930091D7041F
:105A40001091D8042091D9043091DA04602771278D
:105A5000822793271F910F910C946B2C0895292F67
:105A6000220F920F990F890FA82FA695A695A6959C
:105A7000877051E001C0550F8A95EAF785E0A89F2D
:105A8000D001112420E030E070E0F901EA0FFB1FA3
:105A9000E056FB4F4081CB01022E02C096958795C0
:105AA0000A94E2F7817099278195842785238427BA
:105AB00080832F5F3F4F2530310539F70895292F17
:105AC000220F920F990F890F682F6695669566953C
:105AD000982F977085E0689FB001112440E050E056
