:100000000C9428060C9445060C9445060C94450661
:100010000C9445060C9445060C9445060C94450634
:100020000C9445060C9445060C94CF360C94A137DD
:100030000C9482310C9445060C9445060C944506AC
:100040000C9445060C9445060C9445060C94450604
:100050000C9445060C94EA310C9445060C94450624
:100060000C9445060C9445060C9445060C944506E4
:100070000C9445060C9445060C9445060C944506D4
:100080000C9445060C9445060C9445060C944506C4
:100090000C9445060C9445060C9445060C944506B4
:1000A0000C9445060C9445060C9445069D06A00646
:1000B000A306A606A906AC06AF06CB0FD00FD40F39
:1000C000DE0FEA0FF00F5310901095109F10931051
:1000D00098109D109B10E311E511F011E711E91143
:1000E000EB11ED11EF11F211F411F6110112F811EB
:1000F000FA11FC11FE1100120312981E9B1E9E1E87
:10010000A11EA41EA71EAA1EAD1EB01EB31EB61EA3
:10011000E826E8261A271A275127F6289828F628CD
:100120007127F6281E281E288F28F628F628F02882
:100130002B282B282B282B282B282B282B282B2827
:100140002B282B282B282B282B282B282B282B2817
:100150003C2849285028572861287D297D298F2946
:100160008F2986298F298F298F297D297D298B2900
:100170008F298F298B290E3835382739353827397B
:100180008138A4382739FA38093905A84CCDB2D4BA
:100190004EB93836A9020C50B9918688083CA6AAF7
:1001A000AA2ABE000000803F6572676F646F785FA7
:1001B000657A2F616C656367204020302E362E33C0
:1001C0003032000000F0A10000000000000000003C
:1001D000000000000000000000000000000000001F
:1001E000000000000000000000000000000000000F
:1001F00000000000000000000000000000000000FF
:1002000000000000000000000000000000000000EE
:1002100000000000000000000000000000000000DE
:1002200000000000000000000000000000000000CE
:1002300000000000000000000000000000000000BE
:1002400000000000000000000000000000000000AE
:10025000000000000000009AFFFF9AFFFF9AFFFFD6
:100260009AFFFF9AFFFF9AFFFF9AFFFF9AFFFF9AFC
:10027000FFFF9AFFFF9AFFFF9AFFFF9AFFFF9AFF87
:10028000FF9AFFFF9AFFFF9AFFFF9AFFFF9AFFFF77
:100290009AFFFF9AFFFF9AFFFF9AFFFF9AFFFF9ACC
:1002A000FFFF9AFFFF9AFFFF9AFFFF9AFFFF9AFF57
:1002B000FF9AFFFF9AFFFF00CCFF9AFFFF9AFFFF14
:1002C0009AFFFF00CCFF00CCFF00CCFF9AFFFF9A03
:1002D000FFFF9AFFFF9AFFFF9AFFFF9AFFFF9AFF27
:1002E000FF9AFFFF9AFFFF69FFFF69FFFF69FFFFAA
:1002F00069FFFF69FFFF69FFFF69FFFF69FFFF6992
:10030000FFFF69FFFF69FFFF69FFFF69FFFF69FFEB
:10031000FF69FFFF69FFFF69FFFF69FFFF69FFFFDB
:1003200069FFFF00000000000000000000000069FD
:10033000FFFF69FFFF69FFFF69FFFF69FFFF000023
:1003400000000000F9E4FF000000000000000000D1
:10035000F9E4FFF9E4FFF9E4FF0000000000000009
:10036000000000000000000000000000000000008D
:10037000000000000000000000000000000EFFFF71
:100380000EFFFF0EFFFF69FFFF23FFFF23FFFF2389
:10039000FFFF0EFFFF69FFFF23FFFF23FFFF23FF88
:1003A000FF000000F9E4FF23FFFF23FFFF23FFFF0F
:1003B00069FFFF00000023FFFF23FFFF0000000094
:1003C000000000000000000000000000000000002D
:1003D0000000000023FFFF000000000000000000FC
:1003E00023FFFF23FFFF23FFFF00000000000000AA
:1003F000000000000000000000000023FFFF23FFBA
:10040000FF000000000000000000000000000000ED
:10041000000000000000000000000000FA9FFF0044
:100420000000000000000000FA9FFFFA9FFFFA9F03
:10043000FF000000000000000000000000000000BD
:1004400000000000000000000000000000000000AC
:10045000000000000000000000000000000000009C
:10046000000000000EFFFF00000000000000000080
:1004700069FFFF0EFFFF69FFFF00000000000000A2
:10048000000000000000000000000000000000006C
:10049000000000000000000000000000000000005C
:1004A00000000000000000000086FFD586FFD58612
:1004B000FFD500000000000086FFD586FFD586FF2F
:1004C000D500000000000086FFD555CB9E86FFD5E5
:1004D0000000000000000AE1FF0000000000000032
:1004E000000000000000000000000000000000000C
:1004F00000000000000000000000000000000000FC
:1005000000000000000000000000000000000000EB
:1005100000000000000000000000000000000000DB
:100520000000000000000029002B002A00E1003537
:100530000000001E00140004001D003400F75C1FC2
:10054000001A0015001B00010002512000090016CE
:1005500000060000042C002100130017001900E021
:1005600000C35C22000A00070005000000650003CC
:10057000510100000005510000E30001530100009B
:100580000000070000E70023000D000B000E000034
:10059000004C0024000F00110010000451F55C25F0
:1005A000001800080036000100280026001C000C7E
:1005B000003700010000042700330012003800015A
:1005C00000F65C2D0031003400E500010000000160
:1005D00000010001000100010000001E00140004E1
:1005E000001D000100F25C1F001A0016001B000134
:1005F00000010020000800070006000100010021A2
:10060000001500090019000100C35C220017000A50
:100610000005000000010001001050000001000072
:1006200000010001000100000001000000010023A2
:10063000001C000B00110000000100240018000D38
:100640000010000100C55C25000C000E0036000102
:10065000000100260012000F0037000100010027F2
:10066000001300330038000100C65C0100010001E6
:10067000000100010000000100010058000100011C
:100680000000003A000100010001000100CA5C3BCB
:1006900000010050000100010001003C0052005127
:1006A000000100010001003D0001004F00010001B8
:1006B00000C95C3E000100010001000000010001D2
:1006C00000105000000100000001000100010000C6
:1006D0000001000000C25C3F00220221022502004E
:1006E00000F25C40002F0226022F000100F35C4163
:1006F000003002270230000100C55C42002D025686
:10070000001F020100C65C43002E022E00200201E1
:1007100000F45C44004500010001000100000001FC
:1007200000010001000100010000000100010001C2
:100730000001000100010001000100F200010001C0
:100740000001000100F000F1000100F400010001CF
:10075000000100F3000100F50001000100010001AB
:100760000001000000010001001050000001000025
:100770000001000100010000000100000001000173
:1007800000A900AA00A80000000100010024002127
:10079000001E00010001005400250022001F00621D
:1007A000000C0055002600230020006300010056C5
:1007B0000057000000580001000100010001000185
:1007C0000001000100000001000100010001000122
:1007D0000000000100000000000000010001000016
:1007E0000000004A0000000100010000004B004E24
:1007F00000000001000100000000004D00000001A9
:1008000000010001000000000000000000010001E4
:100810000010500000010000000100010001000074
:1008200000010000000100010000000000000000C5
:100830000001000000000050000000010001000065
:100840000052005100000001000100000000004FB4
:100850000000000100010001000000000000000194
:100860000001000100010001000100010000000181
:100870000001000100010001000000010001000171
:100880000001000100010001000100010001000160
:100890000001000100010001000100010001000150
:1008A0000001000100010001000100010001000140
:1008B0000001000000010001000100000001000033
:1008C0000001000100010000000100000001000122
:1008D00000010001000100000001000100240721C7
:1008E000071E07010001000100250722071F072737
:1008F000070100010026072307200701000100016E
:1009000000010001000100010001000100010001DF
:100910000001000100000000000000000000002AAB
:100920002B28000000000000000000000000000074
:10093000000029000000002C1E342021222434262F
:1009400027252E362D3738271E1F20212223242528
:10095000263333362E37381F0405060708090A0BDD
:100960000C0D0E0F101112131415161718191A1B4F
:100970001C1D2F3130232D350405060708090A0BED
:100980000C0D0E0F101112131415161718191A1B2F
:100990001C1D2F3130354C0000000000000000000D
:1009A0000000000000000000000000000000000047
:1009B0000000000000000000010101010101000130
:1009C0000101010000000000000000000000000024
:1009D000000100010001010101010101010101010A
:1009E00001010101010101010101010101010101F7
:1009F00001010000000101000000000000000000F3
:100A000000000000000000000000000000000000E6
:100A100000000101010100000000000001010101CE
:100A200001010101010202020202020202020303A9
:100A30000303030303030404040404040505050578
:100A40000506060606060707070708080808090935
:100A5000090A0A0A0A0B0B0B0C0C0C0D0D0D0E0EDD
:100A60000F0F0F101011111112121313141415156A
:100A700016161717181819191A1A1B1C1C1D1D1EDB
:100A80001F1F20202122222324252526272728292D
:100A90002A2B2B2C2D2E2F2F303132333435363656
:100AA0003738393A3B3C3D3E3F404142434446475C
:100AB00048494A4B4C4D4F50515253555657585A2E
:100AC0005B5C5E5F606263646667696A6C6D6E70D2
:100AD0007173747678797B7C7E8081838486888A42
:100AE0008B8D8F91929496989A9B9D9FA1A3A5A779
:100AF000A9ABADAFB1B3B5B7B9BBBDBFC1C4C6C873
:100B0000CACCCFD1D3D6D8DADCDFE1E4E6E8EBED2E
:100B1000F0F2F5F7FAFCFF0403300000001603457D
:100B200000720067006F0044006F007800200045ED
:100B3000005A00000016034500720067006F004471
:100B4000006F007800200045005A000000040309EF
:100B50000409023B00020100A0FA0904000001039D
:100B60000101000921110100012240000705810354
:100B700008000A0904010001030000000921110115
:100B800000012271000705820320000A12011001F2
:100B900000000008EDFE071301000102030105013A
:100BA0000980A10185031601002603001A81002A8D
:100BB0008300751095018100C0050C0901A1018514
:100BC00004160100269C021A01002A9C0275109549
:100BD000018100C005010906A1018505050719E08D
:100BE00029E71500250195087501810205081901FD
:100BF0002905950575019102950175039101050778
:100C0000190029EF1500250195F075018102C00535
:100C1000010906A101050719E029E715002501953D
:100C200008750181029501750881010508190129DE
:100C30000595057501910295017503910105071947
:100C40000029FF150026FF00950675088100C000E9
:100C500011241FBECFEFDAE0DEBFCDBF13E0A0E06E
:100C6000B1E0EEE1FBE702C005900D92AA3DB107AD
:100C7000D9F727E0AAEDB3E001C01D92A536B2076F
:100C8000E1F70E94F3330C948D3D0C94000080B387
:100C90008C7080BB81B3836F81BB089584B1807FEA
:100CA00084B985B1807F85B98AB1837F8AB98BB1D8
:100CB000837F8BB93E9846980895CF93E82F87306D
:100CC00090F58091040190910501892B09F049C0AC
:100CD000CE2F64E670E080E40E947E2290930501AE
:100CE00080930401892BD1F464E670E082E10E94D4
:100CF000D5229093050180930401892B79F481E03A
:100D000090E001C0880FCA95EAF764E670E080952C
:100D10000E94D522909305018093040184E690E01F
:100D2000CF910C942A2390E0FC013797E730F1052E
:100D3000C0F4EA5AFF4F0C94A23C209A289811C0A4
:100D4000219A29980EC0229A2A980BC0239A2B9890
:100D500008C0529A5A9805C0539A5B9802C03E9AAE
:100D60004698CF910895089508950C94B406CF93B2
:100D7000DF930E94460890E0909305018093040160
:100D80000E944E060E944706AFE2B4E02BED33E02E
:100D9000EDE3F4E04EE04E0F11921D9280E090E002
:100DA000E901C80FD91F1882019686309105C1F755
:100DB0002A5F3F4F4E13F0CFDF91CF910C94081173
:100DC0000E94460890E090930501809304010E94E0
:100DD0004E060E944706EDE3F4E08EE08E0F11927E
:100DE0008E13FDCF0895CF93DF93E62FF0E0E15D02
:100DF000FB4F40814827808386E0689FF0011124E3
:100E0000E552FC4F20E030E080E061E070E050E02F
:100E1000AAE0B22F9081992319F09150908307C0D6
:100E2000EB01022E01C0CC0F0A94EAF78C2BEA01E9
:100E300002C0D595C795BA95E2F7C0FDA0832F5F94
:100E40003F4F31962630310521F7DF91CF9108953C
:100E5000CF93DF93D82F873008F040C080910401F2
:100E600090910501892B09F042C064E670E080E4AE
:100E70000E947E229093050180930401892B11F03A
:100E8000C0E027C064E670E083E10E94D522909321
:100E9000050180930401892B99F764E670E081E4F1
:100EA0000E947E229093050180930401892B41F7D3
:100EB00084E690E00E94052397FF05C0909305010A
:100EC00080930401DDCFC82FC095109205011092C8
:100ED000040184E690E00E942A230AC09FB1CFB1AA
:100EE000C07FC695C6959370C92BC09501C0C0E060
:100EF0006D2F8C2F0E94F306282F2095ED2FF0E008
:100F0000E35CFB4F908192238C23892BDF91CF915F
:100F10000895EF92FF920F931F93CF93DF938091E9
:100F2000040190910501892B91F08091DA038F5F84
:100F30008093DA0381110BC00E94460890E09093E1
:100F4000050180930401892B11F40E94D8078DE3D9
:100F5000E82E84E0F82E04E414E0C0E08C2F0E9418
:100F60005D06D7E0DC0F8D2F0E945D068C2F0E945E
:100F70002807F70181937F018D2F0E942807F80130
:100F800081938F010E944E06CF5FC73039F70E94D0
:100F9000141181E0DF91CF911F910F91FF90EF909D
:100FA0000895E82FF0E0E35CFB4F808108950895F9
:100FB00056985E9825982D9826982E9827982F98C1
:100FC0008FEF90E0909389008093880090938B003E
:100FD00080938A0090938D0080938C00259A2D9A9F
:100FE0002FEF80E792E0215080409040E1F700C071
:100FF0000000269A2E9A2FEF80E792E02150804041
:101000009040E1F700C00000279A2F9A2FEF80E769
:1010100092E0215080409040E1F700C00000259808
:101020002D982FEF80E792E0215080409040E1F72B
:1010300000C0000026982E982FEF80E792E0215004
:1010400080409040E1F700C0000027982F98569804
:101050005E9825982D9826982E9827982F98089571
:1010600089EA8093800089E08093810024982C98FD
:101070003F988AB18F7C8AB96E98479A8BB180630A
:101080008BB9769A0E94D8070C94B30680E290E060
:10109000909305018093040180914B0481110EC04F
:1010A0000E94782281E080934B042FEF83ED90E340
:1010B000215080409040E1F700C0000064E670E0FD
:1010C00080E40E947E229093050180930401892B85
:1010D00009F050C064E670E080E00E94D522909351
:1010E000050180930401892B09F044C064E670E097
:1010F00080E00E94D5229093050180930401892B02
:10110000C9F564E670E08FE30E94D5229093050153
:1011100080930401892B71F584E690E00E942A23D4
:1011200064E670E080E40E947E2290930501809343
:101130000401892BF9F464E670E08CE00E94D5226A
:101140009093050180930401892BA1F464E670E07B
:1011500080E00E94D5229093050180930401892BA1
:1011600049F464E670E08FE30E94D5229093050174
:101170008093040184E690E00E942A238091040178
:101180000895853008F044C06A3008F041C090915D
:1011900068019F3F51F05AE0859FF0011124E60F4E
:1011A000F11DE859FE4F80810895A9E0B2E028E1E1
:1011B00044E03AE09C91E92FEF7092959F70E11125
:1011C0009550542F591B3E9FF0011124E50FF11D3E
:1011D000E859FE4F20832F5F1496203359F7A9EA70
:1011E000B1E020E03AE09C91E92FEF7092959F707A
:1011F000E11101C09B5F3E9FF0011124E90FF11D39
:10120000E859FE4F20832F5F1496283161F7C3CF32
:1012100080E00895CF93DF938133C8F59091080162
:101220009F3F69F06115710531F1E82FF0E0EE0F95
:10123000FF1FE85FFE4F9081FB0190831CC0A9EA6D
:10124000B1E0E8E0F1E020E0C4E09C91392F3F708C
:1012500092959F7031119550283110F49B5F03C017
:10126000DC2FD91B9D2F308391832F5F14963296EC
:10127000203359F7D7CF4115510549F0E82FF0E059
:10128000EE0FFF1FE85FFE4F8181FA018083DF913F
:10129000CF9108952F923F924F925F926F927F92DB
:1012A0008F929F92AF92BF92CF92DF92EF92FF9276
:1012B0000F931F93CF93DF9300D000D000D0CDB712
:1012C000DEB79C838B838B010E94F43C65E070E069
:1012D0000E946C3C3C010E94F43C6AE070E00E9479
:1012E0006C3CE0E0F0E0B12C772425E0E22EF12C1C
:1012F0003AE0332E4C0199244AE0C42ED12CCF0180
:10130000860D971DB7010E946C3C389E2001399EC6
:10131000500C1124400E511E282E20E030E0C9014F
:10132000880D991DB6010E946C3CA201480F591FFF
:101330005E834D83DA01AC90AB81BC811296BC9187
:10134000B983AB1649F06A2D70E0AAE0BA9FA001FC
:1013500011246417750731F4AD81BE811C92BB2046
:1013600029F016C0B11014C0A11014C0AB81BC810B
:101370002C9211968C93119713961C921397159695
:101380001C921E92149712968C91AD81BE818C9303
:10139000BB24B3942F5F3F4F2A30310509F0BFCFF4
:1013A0003196E530F10509F0AACF26960FB6F894EC
:1013B000DEBF0FBECDBFDF91CF911F910F91FF9088
:1013C000EF90DF90CF90BF90AF909F908F907F90E5
:1013D0006F905F904F903F902F9008958530A8F4C4
:1013E0006A3098F4843021F49CEF960F923068F0C4
:1013F000FA019AE0899FE00DF11D1124E60FF11D1D
:101400009081915081E0923008F480E008959F929D
:10141000AF92BF92CF92DF92EF92FF920F931F9302
:10142000CF93DF93EC017B010E94F43C64E070E019
:101430000E946C3C8C0184E0C82ED12C94E0A92E33
:10144000B12C0115110519F499809A9405C0013049
:10145000110559F499809394A701692D88810E9400
:10146000EE098823B1F099821FC00230110519F4EA
:1014700098809A9405C00330110559F4988093948C
:10148000A7016981892D0E94EE09882311F09882B5
:101490000BC0C8010196B5010E946C3C8C0181E033
:1014A000C81AD10871F680E0DF91CF911F910F919A
:1014B000FF90EF90DF90CF90BF90AF909F900895F6
:1014C0000F931F93CF93DF938C01EB010E94070AC8
:1014D000882389F0D8019C9112968C91FE01BAE084
:1014E0009B9FE00DF11D1124D80111969C91E90FED
:1014F000F11D80831CC081E0F80183831582148272
:10150000FE0195E0AF01465F5F4F8081D8011296E2
:101510002C91821306C0880F282F220F220F820FD2
:1015200080833196E417F50781F7915059F7DF91E1
:10153000CF911F910F910895262F60E0813011F413
:101540006BE10BC0823011F46DE707C0833011F4FA
:1015500060E503C0843009F467ED7FEF822F0E94BD
:10156000341708959F92AF92BF92CF92DF92EF927D
:10157000FF920F931F93CF93DF9300D0CDB7DEB7C9
:101580008B018823D1F14DE854E025E080E090E024
:10159000FA01E80FF91F108201968A309105C1F710
:1015A0002150465F5F4F2111F1CF46E0F42EE1E874
:1015B000F4E0DF012F2D1D922A95E9F7EE24E39444
:1015C000E0928304E09284046DE874E0CF010E940D
:1015D0004A09E7E8F4E0DF011D92FA94E9F782E0B6
:1015E00080938904E0928A046DE874E0CF010E9440
:1015F0004A091092800410927F0480917F04909198
:101600008004800F911F823CB1E09B0748F49093C7
:10161000800480937F04809184048130C1F527C0C9
:101620001092800410927F0431E8E32E34E0F32E10
:10163000F7018381811106C06DE874E0C7010E9443
:10164000600A0CC0813051F48481958186349540C4
:1016500028F06DE874E0C7010E944A09E6E0EE0E4A
:10166000F11CFDE8EF16F4E0FF0611F7D4CF8091EE
:10167000850490918604800F911F873425E092079E
:1016800010F086E495E09093860480938504809121
:101690008A04813089F480918B0490918C04B80184
:1016A000680F791F673485E0780710F066E475E00D
:1016B00070938C0460938B048DE8E82E84E0F82E00
:1016C000A12C9AE0C92E26E0D22E00E010E0B02E28
:1016D00094E0A91205C08CEF800F823008F45CC042
:1016E000F701E00FF11F8081882309F446C08330A1
:1016F00070F4282F30E021503109D29EF001D39EA2
:10170000F00D1124EF57FB4F6FEF828130C06C2D2D
:101710000E944C3C90E00197D89EF001D99EF00DBC
:101720001124EF57FB4F9280648175816634A5E0E8
:101730007A07D8F480E090E00E947A3A20E030EC1A
:1017400048EA54E40E94D2399B01AC0160E070E0A9
:1017500080E89FE30E945B3920E030E04FE753E4EC
:101760000E948A3B0E944B3A01C060E0892D0E9492
:101770009C0A962E472F282F03C020E040E0912C92
:101780006B2D8A2D2A8349830E94C1082A814981B1
:10179000692D90E00E94E9170F5F1F4F0A30110575
:1017A00009F095CFA394BAE0EB0EF11CE5E0AE1280
:1017B0008CCF60917F047091800480E090E00E9463
:1017C0007A3A20E030E041EE53E40E94D23920E042
:1017D00030E04FE753E40E948A3B0E944B3AD62EFA
:1017E00000E010E0C8018F579B4F7C01DC0113968D
:1017F0008C911397811115C06D2D12968C910E94BA
:101800009C0A962E282FF701618180812A83798393
:101810000E94C1082A817981472F692D90E00E949A
:10182000E9170A5F1F4F0C301105E1F60F900F907A
:10183000DF91CF911F910F91FF90EF90DF90CF90AC
:10184000BF90AF909F900895AF92BF92CF92DF92DA
:10185000EF92FF920F931F93CF93DF93EC0181E000
:101860000E942C2080E98C9F70018D9FF00C112428
:10187000C0E0D0E000E010E0670182E0C80ED11CBB
:1018800057018FEFA81AB80AF601EC0FFD1FE953B4
:10189000FE4F8491FE01EE0DFF1DE953FE4F649152
:1018A000F501EC0FFD1FE953FE4F7491882319F0E9
:1018B0008091E60501C080E00E943417472F282F51
:1018C000C8010E94E9170F5F1F4F239600331105CF
:1018D000D9F6DF91CF911F910F91FF90EF90DF909C
:1018E000CF90BF90AF9008953F924F925F926F92CA
:1018F0007F928F929F92AF92BF92CF92DF92EF92A0
:10190000FF920F931F93CF93DF93CDB7DEB72C9742
:101910000FB6F894DEBF0FBECDBF182F0E94E81E91
:101920006B017C018091E8059091E9050E94C0312E
:1019300090937E0480937D040E94B4319093E905D6
:101940008093E8052091C0043091C1042130310515
:1019500009F0E2C023E0C222DD24EE24FF24CD28DA
:10196000CE28CF2809F05FC0F090070100917B04DA
:1019700010917C040F0D111DF7FC1A9510937C0437
:1019800000937B04B80180E090E00E947A3A20E066
:1019900030E04AE753E40E94D2394B015C0120E079
:1019A00030E040E05FE30E94C83918163CF0C50102
:1019B000B4010E94FF3B9B01AC0122C020E030E05B
:1019C00040E05FE3C501B4010E945B394B015C015B
:1019D0009B01AC010E945C392B013C01A5019401E3
:1019E00060E070E080E89FE30E945B399B01AC01FE
:1019F000C301B2010E948A3B20E030E040E05FE397
:101A00000E945C3960937704709378048093790422
:101A100090937A0401501109093F110520F08F2D90
:101A20008195809307018091E305881F8827881F8F
:101A30009091E405492F440F242F282B97FB33273F
:101A400030F9C9018C549F4F68E671E00E946C3CEC
:101A5000821B930B8038910514F09A9505C081384C
:101A60004FEF94070CF4939597FD03969595879502
:101A700095958795182F8091E505281B310937FF2B
:101A800002C02D5F3F4F3595279535952795022F3D
:101A9000A090E6052BEAC22E21E0D22EE12CF12CFB
:101AA000F601B080B2948FE0B82220E030E040EA46
:101AB00052E4609177047091780480917904909158
:101AC0007A040E948A3B0E94443A962F6091E30573
:101AD000262F221F2227221F6091E405660F622B0A
:101AE000690FB19E600D11247091E505B09E700DD7
:101AF00011248A2D0E943417472F282FC7010E94D6
:101B0000E917FFEFEF1AFF0A24E0C20ED11C40E3F1
:101B1000E416F10429F69DC12230310509F07EC09A
:101B2000C701B60123E030E040E050E00E94803C75
:101B3000672B682B692B29F4809176048F5F809343
:101B40007604E12CF12C1091E305912F991F992730
:101B5000991F1091E405110F192B6091E50570E0B4
:101B600080E090E00E947C3A2DEC3CEC4CE45FE39A
:101B70000E948A3B0E944B3A762F612F80E00E94A0
:101B80003417472F282FC7010E94E9178FEFE81A53
:101B9000F80A90E3E916F104B1F660E082E00E94F1
:101BA000C108898361E082E00E94C1088A8362E003
:101BB00082E00E94C1088B8363E082E00E94C1083A
:101BC0008C8366E082E00E94C1088D8367E082E03A
:101BD0000E94C1088E8368E082E00E94C1088F8362
:101BE00069E082E00E94C1088887FE0131967F018A
:101BF00010E0F70101917F0180917604612F681B4D
:101C000070EA8FEF0E943417472F282F802F90E023
:101C10000E94E9171E5E103961F71BC123303105A0
:101C200009F00DC1E0907D04F0907E0400917404F1
:101C3000109175040E0D1F1D013DF7E01F0710F0F8
:101C400000ED17E01093750400937404B801012EA1
:101C5000000C880B990B0E947C3A20E030E04AEFA0
:101C600054E40E94D2394B015C01D09006012FEF61
:101C7000D2120AC09B01AC0160E070E080E89FE3F3
:101C80000E945B394B015C0120E030E040E05FE303
:101C9000C501B4010E94C83918163CF0C501B40151
:101CA0000E94FF3B9B01AC0122C020E030E040E0FD
:101CB0005FE3C501B4010E945B394B015C019B01EC
:101CC000AC010E945C392B013C01A501940160E04C
:101CD00070E080E89FE30E945B399B01AC01C30187
:101CE000B2010E948A3B20E030E040E05FE30E94C6
:101CF0005C39003D174041F4109275041092740451
:101D00002D2D21952093060120E030E040E151E4A3
:101D10000E948A3B69877A878B879C87B70180E01E
:101D200090E00E947A3A9B01AC0160E070E88BEB96
:101D300094E40E945B3920E030E84BEB54E40E94CD
:101D4000D2392B013C010CE414E0312C632D70E0FE
:101D500080E090E00E947A3A9B01AC0169857A8527
:101D60008B859C850E945B396B017C01E894F7F8B8
:101D7000F8012081318142815381C301B2010E9467
:101D80008A3B4B015C0120E030E040E050E4C701B9
:101D9000B6010E94C8391816D4F0A701960160E078
:101DA00070E080E090E40E945B3920E030E040E0A9
:101DB0005FE30E948A3B9B01AC01C501B4010E9414
:101DC000B73AF801608371838283938305C0F80179
:101DD00080829182A282B38233940C5F1F4FFAE01B
:101DE0003F12B4CF00E010E0AE014F5F5F4F60E004
:101DF00070E0802F0E940A09E98124E0E29FF0014F
:101E00001124E45BFB4F20E030E04FE753E46081B6
:101E10007181828193810E948A3B0E944B3A862F76
:101E20006AE47FEF0E943417472F282FC8010E94D1
:101E3000E9170F5F1F4F00331105B1F60AC02430B8
:101E4000310539F460917D0470917E04812F0E94E8
:101E5000B20A2C960FB6F894DEBF0FBECDBFDF914D
:101E6000CF911F910F91FF90EF90DF90CF90BF9097
:101E7000AF909F908F907F906F905F904F903F902A
:101E800008958091C20481116AC06091910570919A
:101E9000920580919305909194050E94D62F8230EF
:101EA00009F450C030F4882369F0813009F447C048
:101EB0000895843009F44CC008F447C0853009F413
:101EC0004AC0089580E190E00E940C3D6093E305D4
:101ED0007093E4058093E5059093E6058091C00436
:101EE0009091C104892BE9F48091E30586958F7365
:101EF0000E942C208091E305982F9E77923079F1F3
:101F0000881F8827881F9091E405292F220F97FBAF
:101F1000992790F94091E6056091E505822B0C9494
:101F2000522081E00E942C208091BF04882321F060
:101F30001092BF0481E001C080E00C94740C81E039
:101F400090E00BC082E090E008C083E090E005C024
:101F500084E090E002C085E090E00C94240C0895A9
:101F6000611108C0FC018281882321F088EA91E098
:101F70000E94051180E090E00895FC01E15FFC45BE
:101F8000E730F10508F0B0C0DB01E35AFF4F1296CD
:101F90009C910C94A23C91110E94A03080E0089585
:101FA0009923E1F381E019C09923C1F381E00E94F4
:101FB0001D204FEF64E985EC90E009C0992371F38F
:101FC00081E00E941D204FEF69E787E890E00E94C2
:101FD0003B20E4CF992311F383E00E941D20DECF44
:101FE0009923E1F280E190E00E940C3D6093E305CB
:101FF0007093E4058093E5059093E6050E94232FF6
:1020000082722091E3059091E405882371F0822F7C
:10201000881F8827881F392F330F432F482B97FBA2
:10202000552750F9485051090DC0822F881F882725
:10203000881F392F330F432F482B97FB552750F913
:10204000485F5F4F40FB27F92093E305842F869577
:102050009078982B50FB97F99093E4058091E305D5
:10206000482F441F4427441F9091E405592F550FD2
:10207000252F242B97FB332730F92F3F310531F0E3
:102080002CF08F778093E3051092E4054091E305EF
:102090005091E4056091E5057091E60580E190E0DE
:1020A0000E942A3D7BCF992309F478CF8091C00408
:1020B0009091C10401969093C1048093C00481E083
:1020C0008093BF040E94B4319093E9058093E805A2
:1020D0008091C0049091C104059708F45FCF1092DD
:1020E000C1041092C0045ACF81E00895CF92DF92CC
:1020F000EF92FF926B017C010E94D62F56985E985A
:1021000025982D9826982E9827982F9890E0FC01D6
:102110003197E730F105A8F4EC59FF4F0C94A23C3D
:10212000259A2D9A0EC0259A2D9A269A2E9A09C084
:10213000259A2D9A04C0259A2D9A269A2E9A279A86
:102140002F9AC701B601FF90EF90DF90CF900895CE
:1021500081E008950C94BD0FCF93282F30E0F90152
:10216000E95EF64FC491F901E956F64F2491222316
:1021700059F081EE0E9428258C2F0E9428258C2F53
:102180000E943F2681EE04C08C2F0E9428258C2FB0
:10219000CF910C943F260F931F93CF93DF93EC01C5
:1021A000062FFE018491882359F19E012F5F3F4F36
:1021B000813041F4E901F9011491812F0E94282511
:1021C000812F0DC0823031F4E901F90184910E9420
:1021D00028250AC0833031F4E901F90184910E9475
:1021E0003F2602C00E94AC102196802F8823C9F29E
:1021F000EFE9FFE03197F1F700C000008150F6CF22
:10220000DF91CF911F910F91089560E00C94CB1056
:102210000E942630811102C00E94A0300E94BA1E86
:102220000E9484160C9430080E941C1E8091C304E6
:10223000811102C00E94E4178091C30490E00196CE
:102240006BE070E00E946C3C8093C3040C94B50674
:10225000282F2F7041F0822F90E02A3010F44D96F5
:1022600008950697089587E290E0089508950C94E4
:1022700036110C94371108950E946D290E943B116C
:102280002FEF84E39CE0215080409040E1F700C0B4
:1022900000000C941032FF920F931F93CF93DF93A3
:1022A0008C01FC01C081D18180911F05811113C077
:1022B0008281882349F0CE010E94A32EF82E682F38
:1022C000CE010E94462E04C0CE010E94762EF82E2A
:1022D000BE018F2D04C0CE010E94A32EBE010E941C
:1022E000EE13EC01B8010E94AA10882309F46EC213
:1022F000B801CE010E94FF16882309F467C2CC3CC6
:10230000FCE5DF0741F4F8018281882309F45EC20D
:102310000E9404205BC2CD3C8CE5D80708F01EC1AA
:10232000C43C9CE5D90761F4F8018281882309F453
:102330004DC20E94232F8272E1F40E94191F46C2EF
:10234000C53CECE5DE0708F0C7C0C531FCE5DF079A
:1023500098F0C23CFCE5DF0709F48CC008F492C099
:10236000F8018281882309F431C20E94232F8272EE
:1023700021F70E94FF1E2AC2C2308CE5D80708F45C
:1023800052C0F8018281882309F459C00E94263086
:10239000811102C00E94A0300E94393090E09093D9
:1023A000570780935607FE01E350FC45E231F105E3
:1023B00030F4E559FF4F809156070C94A23C809170
:1023C0005607816027C0826025C0846023C0806179
:1023D00021C080621FC080641DC080681BC08460F3
:1023E000886018C08E7F16C08D7F14C08B7F12C08E
:1023F0008F7E10C08F7D0EC08F7B0CC08F770AC080
:102400008B7F877F07C087FB222720F991E09227E7
:1024100090FB87F980935607809156070E943D30C4
:102420000E946D29D3C1C1159CE5D90781F0C13047
:10243000DC45A9F081E08093C9048093CA04C801F7
:10244000DF91CF911F910F91FF900C94A810F8018C
:102450008281882309F4BAC10E943C11B7C1F801F6
:102460008281882309F4B2C18091BE058160809386
:10247000BE05ACC1F8018281882309F4A7C10E947E
:10248000F11EA4C1C631DC45A9F60E94232F282FD6
:10249000F801828140919C0150919D01882379F03F
:1024A0002A7A91E009F490E09093C404911102C05B
:1024B00069E201C065E3CA010E9407310AC0809148
:1024C000C404811102C069E201C065E3CA010E942F
:1024D00012310E94722F7AC1F8018281C83CFCE55A
:1024E000DF0731F4882309F471C10E94A51F6EC172
:1024F000C93C9CE5D907C8F4C63CECE5DE0731F4DD
:10250000882309F463C10E945F1F60C1C73CDC459A
:1025100030F4882309F45AC10E94331F57C188231D
:1025200009F454C10E948F1F51C1CA3C9CE5D907D0
:1025300031F4882309F44AC10E94D51F47C1CB3C1E
:10254000DC4530F4882309F441C10E94BF1F3EC11D
:10255000882309F43BC10E94EF1F38C1C43DFCE54C
:10256000DF0791F4F8018281882309F42FC10E94CA
:102570003620893128F00E943620823208F4F9CEC4
:1025800089E10E941D2022C1C53D8CE5D80708F0D5
:1025900068C0F8018281C03DFCE5DF0771F4882343
:1025A00009F414C10E943620893028F00E94362098
:1025B0008E3008F4DECE89E0E4CFC13D9CE5D9073A
:1025C00040F5CE3CECE5DE0771F4882309F4FEC04B
:1025D0000E943620823028F00E943620853008F490
:1025E000C8CE82E0CECFCF3CDC4528F4882309F466
:1025F000EDC081E0C6CF882309F4E8C00E943620F0
:10260000863028F00E943620883008F4B2CE86E06A
:10261000B8CFC23D9CE5D90771F4882309F4D6C030
:102620000E943620853128F00E943620873108F438
:10263000A0CE85E1A6CFC33DDC4570F4882309F424
:10264000C5C00E9436208F3028F00E943620843189
:1026500008F48FCE8FE095CF882309F4B7C088E1C6
:1026600090CFC93DFCE5DF0759F5F8018281882349
:1026700061F01092CA040E94B4319093C804809310
:10268000C70480E20E94A626A1C08091CA048823C4
:1026900021F080E20E94AD2699C08091C7049091FC
:1026A000C8040E94C031883C910598F780E20E94DE
:1026B000AD2688E20E94282588E20E943F2686C037
:1026C000CA3D8CE5D80708F060C0C73D9CE5D90736
:1026D00061F5F8018281882351F01092C9040E94AB
:1026E000B4319093C6048093C50482E0CBCF0E949E
:1026F000232F85FF05C081E08093C9048093CA041D
:102700008091C90481110FC08091C5049091C604C5
:102710000E94C031883C910530F486E20E94282551
:1027200086E20E943F2682E0B5CFC83DECE5DE0799
:1027300010F1F801828181119CCF0E94232F81FF2B
:1027400005C081E08093C9048093CA048091CA04C3
:1027500081119FCF8091C7049091C8040E94C0311D
:10276000883C910508F095CF87E20E94282587E2F2
:102770000E943F268ECFC53DDC4509F05BCEF801B7
:102780008281882319F183E2FCCECD3D8CE5D80708
:1027900041F4F80182818823C9F082E00E949234DA
:1027A00015C0CE3D9CE5D90739F4F8018281882314
:1027B00069F00E94A0300AC0CC3DDC4509F03ACE59
:1027C000F8018281882311F080E0E8CF80E0DF917A
:1027D000CF911F910F91FF900895089596E0799FF2
:1027E000F001112494E5899FE00DF11D1124E60FFD
:1027F000F11DEE0FFF1FE95DFA4F85919491089549
:10280000880F991FFC01ED53FE4F85919491089517
:10281000CF93DF930E94EE130E94CD15EC0181153A
:1028200020E59207F0F5811530E4930708F029C1FF
:10283000883E910500F5803E910508F0AAC1883ACE
:10284000910570F4853A910508F0A4C08130910596
:1028500009F49FC108F450C1049708F09AC14CC113
:102860008F3B910508F4A1C0803C910508F444C158
:10287000805C9109F9C0811540E2940758F4C115B4
:1028800081E0D80708F085C1C03FD10508F434C104
:10289000D0657FC1811520E3920708F0E9C09F70E1
:1028A000E3C0811535E5930708F044C0811544E580
:1028B000940708F0FDC0C11582E5D80708F5C115D9
:1028C00021E5D20708F0E0C08C2F837021E030E0D2
:1028D00002C0220F331F8A95E2F73C68CE0174E0F4
:1028E000969587957A95E1F78370382BCF70C695CA
:1028F000C69540E2C49FE0011124C22BD32B49C1ED
:102900002C2F26952695CE0183709927C115D34586
:1029100008F0BFC040E2249F90011124C1E0D0E044
:1029200002C0CC0FDD1F8A95E2F72C2B3D2BE9016D
:10293000DC682FC181154AE59407A0F4C11589E52B
:10294000D80708F0C4C0C11526E5D20708F4B5C001
:10295000C11538E5D30708F4CFC0DC2FCC27C06FF2
:10296000D06A17C181159B4508F4C6C0C1158CE516
:10297000D80708F4BEC0CE0190568115904208F0E9
:10298000BBC08D2F8F710E944A16DD27D0628F71D8
:10299000D82BFFC0853A910509F4B1C0863A91055C
:1029A00009F0B0C0C2E8D0E4F4C0883A910509F457
:1029B000ACC0893A910509F4ABC08A3A910509F493
:1029C000AAC08B3A910509F4A9C08C3A910509F483
:1029D000A8C08B3B910509F4A7C08C3B910509F475
:1029E000A6C08D3A910509F4A5C0803B910509F474
:1029F000A4C08E3A910509F4A3C08F3A910509F459
:102A0000A2C0813B910509F4A1C0823B910509F464
:102A1000A0C0833B910509F49FC0843B910509F454
:102A20009EC0853B910509F49DC0863B910509F444
:102A30009CC0873B910509F49BC0883B910509F434
:102A40009AC0893B910509F499C08D3B910509F421
:102A500098C08E3B910509F497C08A3B910509F413
:102A600096C0C0E0D4E495C00E940014EC0191C06F
:102A70009927D3FF03C0EC01D86C8BC0EC01D06C5C
:102A800088C0DF70D06A85C0DC2FCC27C16FD06AC8
:102A900080C040E2249F90011124C1E0D0E002C038
:102AA000CC0FDD1F8A95E2F7C22BD32BDA6871C0F9
:102AB000D82FCC27C46FD06A6CC08C2F0E944A16C6
:102AC0008F71C82FD0E0DC2FCC27D06262C08C2F52
:102AD0008F700E944A1694E0D695C7959A95E1F7B3
:102AE000CF70D0E0DC2FCC27D06A8F70806EC82BDF
:102AF00050C0DD27D0664DC0C0E0D0E04AC0C1E87C
:102B0000D0E447C0C3E8D0E444C0C2EED4E441C03E
:102B1000C9EED4E43EC0CAEED4E43BC0C5EBD4E475
:102B200038C0C6EBD4E435C0C3EBD4E432C0C4EB48
:102B3000D4E42FC0C7EBD4E42CC0CCECD4E429C03F
:102B4000CDECD4E426C0C3E8D5E423C0CAE8D5E47C
:102B500020C0C2E9D5E41DC0C4E9D5E41AC0C1E271
:102B6000D6E417C0C3E2D6E414C0C4E2D6E411C070
:102B7000C5E2D6E40EC0C6E2D6E40BC0C7E2D6E496
:102B800008C0CFE6D4E405C0C0E7D4E402C0CAE27E
:102B9000D6E4CE01DF91CF9108958238910549F1B5
:102BA000B0F48133910509F458C048F48932910595
:102BB00009F44EC08A32910509F454C00895853352
:102BC000910509F440C08933910599F00895833E39
:102BD000910529F138F4803E910591F0823E9105EE
:102BE000A1F00895863E9105F9F0873E910531F1F7
:102BF00008952091560720FD3AC021FD38C0089560
:102C00008091560780FD35C032C08091560782FF03
:102C100032C08091560784FD30C083EE39C0809168
:102C2000560782FD28C0F5CF8091560783FF27C045
:102C30008091560784FD21C087EE2AC080915607F7
:102C400083FD1DC0F5CF8091560785FD1AC01BC0BE
:102C50008091560785FD17C014C08091560786FDE8
:102C600014C015C08091560786FD11C00EC080EEBD
:102C70000FC089E30DC082EE0BC080E009C086EE74
:102C800007C089E205C085E303C08AE201C081E391
:102C900090E008959091560792FF0DC0282F28715B
:102CA000283019F4877F846006C0282F24712430CF
:102CB00011F48B7F886093FF0DC0282F2871283175
:102CC00019F4877E846106C0282F2471243111F401
:102CD0008B7E886194FD877E0895CF93DF9381304A
:102CE00020E8920768F0FB012281222349F0EC01E1
:102CF0000E949A16CE019F770E94E2160E94CF167C
:102D000081E0DF91CF9108958CE090E00E94043D36
:102D100090E0A0E0B0E08093EA059093EB05A093EB
:102D2000EC05B093ED0508956091EA058CE090E024
:102D30000C94183D0E94232F8093CB040E94362FC1
:102D40008091EA05813071F048F08230D9F084300A
:102D5000F9F486EE0E949E2688E118C082EE0E9459
:102D6000282516C080EE0E94282581EE0E94282585
:102D700088E10E949E2681EE0E943F2680EE0E94FE
:102D80003F2606C082EE0E94282587E50E949E26E7
:102D90008FE39CE90197F1F700C00000089580914E
:102DA000EA05813021F038F0823029F007C08CE24A
:102DB0000E949E2603C082EE0E943F268091CB0493
:102DC0000C94332F0F931F93CF93DF938C01CCE0A0
:102DD000D0E0C8010C2E02C0969587950A94E2F7C0
:102DE0008F700E9428110E949E262497CC3F8FEF5F
:102DF000D80779F7DF91CF911F910F9108950F9325
:102E00001F93CF93DF93EC018B01FB018281882319
:102E100019F1C33EFCE5DF07C1F050F4C13EECE51B
:102E2000DE0781F0C23EFCE5DF07B1F481E010C0AF
:102E3000C43E8CE5D80759F0C53EECE5DE0761F4E9
:102E400084E006C01092EA0505C082E001C083E07C
:102E50008093EA050E949416B801CE01DF91CF91CC
:102E60001F910F910C946D16CF92DF92EF92FF920B
:102E70000F931F93CF93DF93E82FF82F711103C0A7
:102E8000682F782F7EC0062F10E0C72FD0E0E82EE5
:102E9000F12CC8016BE270E00E94583C9B0145EDAB
:102EA0004203B001439F700D1124060F171F86E0E7
:102EB000809FB001819F700D11244FEF50E0CA0137
:102EC0008C1B9D0B8E9DD0018F9DB00D9E9DB00DD6
:102ED00011248B2F6C9F80016D9F100D7C9F100D16
:102EE0001124012F11276A01C01AD10ACE9C80013A
:102EF000CF9C100DDE9C100D11246A01C61AD70A52
:102F0000CC9EB001CD9E700DDC9E700D1124672FFC
:102F10007727461B570B4E9DE0014F9DD00D5E9DC0
:102F2000D00D11247D2F2230310599F04CF421155C
:102F30003105C9F021303105A1F47E2FE12F13C0F6
:102F40002330310551F02430310559F4ED2F7B2F1A
:102F500006C0EB2F8D2F7F2F06C0712FEB2F8F2FE9
:102F600002C07B2F812FF0E0E95EF54F6491E72FDF
:102F7000F0E0E95EF54F7491E82FF0E0E95EF54F7F
:102F80008491DF91CF911F910F91FF90EF90DF908F
:102F9000CF90089580E190E00C940C3DAB01BC0112
:102FA00080E190E00C942A3DE3EEF5E08DE0808333
:102FB0001092E4058FEF8283838314826081718194
:102FC000828193810C94CE17E091D703F091D803BE
:102FD0000994E091D303F091D4030994E091D503CF
:102FE000F091D603099440E060E080E00C94EE1785
:102FF000E3EEF5E06081862F881F8827881F6091A7
:10300000E405660F682B728183810E943417962F26
:10301000672F482F892F0C94EE17DF92EF92FF92C3
:103020000F931F93CF93DF938091E305881F882729
:10303000881F9091E405492F440F242F282B97FBDC
:10304000332730F9C9018C549F4F68E671E00E9424
:103050006C3C821B930B8038910514F09A9505C047
:1030600081384FEF94070CF4939597FD039695954F
:10307000879595958795C82F8091E505281B31097F
:1030800037FF02C02D5F3F4F359527953595279522
:10309000D22FD090E6059BEAE92E91E0F92E00E0D0
:1030A00010E0F701208122952F706091E305962FA3
:1030B000991F9927991F6091E405660F692B2C9F32
:1030C000600D11247091E5052D9F700D11248D2D3B
:1030D0000E943417472F282FC8010E94E9170F5F5D
:1030E0001F4FF4E0EF0EF11C00331105D1F6DF9114
:1030F000CF911F910F91FF90EF90DF900895AF92C5
:10310000BF92CF92DF92EF92FF920F931F93CF93D4
:10311000DF931F92CDB7DEB7D82E2091E305221F93
:103120002227221F8091E405982F990FB22EB92AE9
:1031300087FB882780F9EB2DF82FCF018C549F4F08
:1031400068E671E00E946C3C9C012E1B3F0B37FF30
:1031500002C02D5F3F4F3595279535952795A22EB7
:10316000C090E5050091D2041091D3042091D404BD
:103170003091D5049091E705992359F0692F70E0BB
:103180008AE090E00E946C3CCB01770FAA0BBB0B4E
:1031900004C08AE090E0A0E0B0E080239123A22365
:1031A000B323892B8A2B8B2B41F40E94F43C60E3E0
:1031B00070E00E946C3C082F01C00FEFE12CF12C55
:1031C00010E0D11003C0E016F106A9F40E94F43C0F
:1031D00083706B2D8A9D600D112469830E94F43CDD
:1031E00069817C2D8091E6050E943417472F282F96
:1031F000C7010E94E9178FEFE81AF80A80E3E81682
:10320000F104F9F60F90DF91CF911F910F91FF908C
:10321000EF90DF90CF90BF90AF900895CF92DF9264
:10322000EF92FF921F93CF93DF938091D2049091FE
:10323000D304A091D404B091D5040090E70504C054
:10324000880F991FAA1FBB1F0A94D2F7182F89EA6B
:10325000C82E81E0D82EC0E0D0E09FE3E92EF12C0B
:10326000F60180818F3FE1F0FE01E251FA4F80814B
:10327000F4E08F9FC00111248034910524F4B7013C
:10328000681B790B02C060E070E0610F7FEF8091F6
:10329000E6050E943417472F282FCE010E94E91718
:1032A000219624E0C20ED11CC033D105C9F6DF91AE
:1032B000CF911F91FF90EF90DF90CF900895CF9224
:1032C000DF92EF92FF920F931F93CF93DF93809142
:1032D000D2049091D304A091D404B091D50400906D
:1032E000E70504C0880F991FAA1FBB1F0A94D2F7D5
:1032F000D82EC090E60509EA11E0C0E0D0E08FE3E7
:10330000E82EF12CF80180818F3FF9F0FE01E251A7
:10331000FA4F2081F4E02F9F9001112420343105D1
:103320002CF4C701821B930B9C0102C020E030E00B
:10333000F80161816D0D620F7FEF8C2D0E943417B3
:10334000472F282FCE010E94E91721960C5F1F4FAF
:10335000C033D105B9F6DF91CF911F910F91FF9046
:10336000EF90DF90CF900895CF92DF92EF92FF928F
:103370000F931F93CF93DF938091D2049091D30446
:10338000A091D404B091D5040090E70504C0880F43
:10339000991FAA1FBB1F0A94D2F7D82EC090E6052A
:1033A00009EA11E0C0E0D0E08FE3E82EF12CF8014B
:1033B00080818F3FF9F0FE01E251FA4F2081F4E065
:1033C0002F9F90011124203431052CF4C701821B5A
:1033D000930B9C0102C020E030E0F80162816D0D8A
:1033E000620F7FEF8C2D0E943417472F282FCE01BC
:1033F0000E94E91721960C5F1F4FC033D105B9F623
:10340000DF91CF911F910F91FF90EF90DF90CF90C0
:1034100008952F923F924F925F926F927F928F9278
:103420009F92AF92BF92CF92DF92EF92FF920F9353
:103430001F93CF93DF933090E5052090E6056091D0
:10344000D2047091D3048091D4049091D5040E9449
:103450007A3A2BED3FE049E450E40E948A3B20E0B9
:1034600030E040E05CE30E948A3B6B017C010E94FB
:10347000CD3920E030E040E05DE30E948A3B2B0143
:103480003C01C701B6010E94F73B20E030E040EE6E
:1034900052E40E94D2394B015C01CBEAD1E000E05A
:1034A00010E0688170E080E090E00E947C3A20E0CB
:1034B00030E040E052E40E945B39A30192010E9497
:1034C0008A3B6B017C01FE013197608170E080E0F6
:1034D00090E00E947C3A20E030E040EE52E40E940E
:1034E0005B39A50194010E948A3B9B01AC01C70195
:1034F000B6010E945C3920E030E044E353E40E94CE
:103500008A3B6B017C018091E305881F8827881F17
:103510009091E405292F220F622F682B97FB7727C4
:1035200070F9072E000C880B990B0E947C3A9B01C6
:10353000AC01C701B6010E945C390E944B3A732D61
:10354000822D0E943417472F282FC8010E94E917A7
:103550000F5F1F4F24960033110509F0A2CFDF91B2
:10356000CF911F910F91FF90EF90DF90CF90BF9080
:10357000AF909F908F907F906F905F904F903F9013
:103580002F9008952F923F924F925F926F927F9269
:103590008F929F92AF92BF92CF92DF92EF92FF9263
:1035A0000F931F93CF93DF93CDB7DEB728970FB656
:1035B000F894DEBF0FBECDBF8091E5058D8390915D
:1035C000E6059E836091D2047091D3048091D40467
:1035D0009091D5040E947A3A2BED3FE049E450E403
:1035E0000E948A3B20E030E040E05CE30E948A3B9E
:1035F0006B017C010E94CD392B013C01C701B60152
:103600000E94F73B69837A838B839C83EBEAF1E02A
:10361000F887EF8300E010E0EF81F8853197208094
:10362000EF81F885B0803090E705332079F0632D85
:1036300070E080E090E00E947C3A20E030E040ECD6
:103640005FE30E948A3B6B017C0106C0C12CD12C38
:1036500090ECE92E9FE3F92E6B2D70E080E090E076
:103660000E947C3A20E030E040E052E40E945B3966
:103670009B01AC01C701B6010E948A3BA3019201E4
:103680000E948A3B4B015C01332079F0632D70E08E
:1036900080E090E00E947C3A20E030E040EC5FE384
:1036A0000E948A3B6B017C0106C0C12CD12C80ECAE
:1036B000E82E8FE3F82E622D70E080E090E00E940B
:1036C0007C3A20E030E040EE52E40E945B399B01FE
:1036D000AC01C701B6010E948A3B29813A814B8126
:1036E0005C810E948A3B9B01AC01C501B4010E9430
:1036F0005C396B017C018091E305881F8827881F56
:103700009091E405292F220F622F682B97FB7727D2
:1037100070F9072E000C880B990B0E947C3A9B01D4
:10372000AC01C701B6010E945C390E944B3A7D8111
:103730008E810E943417472F282FC8010E94E91755
:103740000F5F1F4F8F819885049698878F83003372
:10375000110509F061CF28960FB6F894DEBF0FBEB1
:10376000CDBFDF91CF911F910F91FF90EF90DF9030
:10377000CF90BF90AF909F908F907F906F905F9011
:103780004F903F902F9008952F923F924F925F92CB
:103790006F927F928F929F92AF92BF92CF92DF9261
:1037A000EF92FF920F931F93CF93DF9300D000D03F
:1037B0001F92CDB7DEB72091E5052A838091E605FB
:1037C0008B836091D2047091D3048091D404909142
:1037D000D5040E947A3A2BED3FE049E450E40E9480
:1037E0008A3B20E030E040E05CE30E948A3B6B01D2
:1037F0007C010E94CD392B013C01C701B6010E941A
:10380000F73B4B015C01ABEAB1E0BD83AC8300E068
:1038100010E0EC81FD813197B081B983EC81FD81AD
:1038200030802090E705222069F0622D70E0660F5D
:10383000771F072E000C880B990B0E947C3A6B01B6
:103840007C0105C0C12CD12CE12C20E4F22E632D8B
:1038500070E080E090E00E947C3A20E030E040E0C0
:1038600052E40E945B399B01AC01C701B6010E9482
:103870008A3BA30192010E948A3B6B017C012220BA
:1038800021F0312C220C331C03C082E0282E312C75
:10389000F9816F2F70E080E090E00E947C3A20E098
:1038A00030E040EE52E40E945B390E94443A9B01B2
:1038B00077FF04C022273327261B370B82E490E0D2
:1038C000821B930B289EB001299E700D389E700DAF
:1038D0001124072E000C880B990B0E947C3AA5013D
:1038E00094010E948A3B9B01AC01C701B6010E9472
:1038F0005C396B017C018091E305881F8827881F54
:103900009091E405292F220F622F682B97FB7727D0
:1039100070F9072E000C880B990B0E947C3A9B01D2
:10392000AC01C701B6010E945C390E944B3A7A8112
:103930008B810E943417472F282FC8010E94E91756
:103940000F5F1F4F8C819D8104969D838C83003374
:10395000110509F05ECF0F900F900F900F900F9010
:10396000DF91CF911F910F91FF90EF90DF90CF905B
:10397000BF90AF909F908F907F906F905F904F908F
:103980003F902F9008952F923F924F925F926F92A7
:103990007F928F929F92AF92BF92CF92DF92EF92DF
:1039A000FF920F931F93CF93DF9300D01F92CDB759
:1039B000DEB72090E5058091E60589836091D20409
:1039C0007091D3048091D4049091D5040E947A3AE6
:1039D00020E030E040E85BE30E948A3B20E030E0FA
:1039E00040E653E40E948A3B2B013C01EBEAF1E004
:1039F000FB83EA8300E010E0EA81FB8131973080AD
:103A0000EA81FB81E080F090E705FF2079F06F2DDF
:103A100070E080E090E00E947C3A20E030E040ECF2
:103A20005FE30E948A3B4B015C0106C0812C912C14
:103A300090ECA92E9FE3B92E6E2D70E080E090E00F
:103A40000E947C3A20E030E040E052E40E945B3982
:103A50000E94443A9B0177FF04C022273327261B8C
:103A6000370BB901330F880B990B0E947C3A9B01ED
:103A7000AC01C501B4010E948A3B2EE23DEB4BEB49
:103A800053EB0E948A3B4B015C01FF2079F06F2DC4
:103A900070E080E090E00E947C3A20E030E040EC72
:103AA0005FE30E948A3B6B017C0106C0C12CD12CD4
:103AB00080ECE82E8FE3F82E632D70E080E090E03C
:103AC0000E947C3AA30192010E945B399B01AC01E8
:103AD000C701B6010E948A3B9B01AC01C501B4013C
:103AE0000E945B396B017C018091E305881F882768
:103AF000881F9091E405292F220F622F682B97FBD6
:103B0000772770F9072E000C880B990B0E947C3ADE
:103B10009B01AC01C701B6010E945C390E944B3A7F
:103B2000722D89810E943417472F282FC8010E94C7
:103B3000E9170F5F1F4F8A819B8104969B838A83BD
:103B40000033110509F058CF0F900F900F90DF91BF
:103B5000CF911F910F91FF90EF90DF90CF90BF908A
:103B6000AF909F908F907F906F905F904F903F901D
:103B70002F900895CF92DF92FF920F931F93CF93D0
:103B8000DF931F92CDB7DEB7F82E0091D2041091CB
:103B9000D3042091D4043091D5049091E705992362
:103BA00059F0692F70E08AE090E00E946C3CAB0114
:103BB000770F660B770B04C04AE050E060E070E0DE
:103BC0004023512362237323452B462B472B39F483
:103BD0000E94F43C60E370E00E946C3C01C08FEFF7
:103BE00000E010E0C82ED12CF11003C00C151D050B
:103BF00081F40E94F43C89830E94F43C782F69810F
:103C00008091E6050E943417472F282FC8010E9493
:103C1000E9170F5F1F4F0033110531F70F90DF9148
:103C2000CF911F910F91FF90DF90CF90089508954D
:103C30000E94171E0C94410F4091E30540FD0AC0FD
:103C40000E94F3170E94181E8091E30581708093F3
:103C50009B0108958091CC04843120F48F5F809380
:103C6000CC0408958091D2049091D304A091D404FF
:103C7000B091D5040196A11DB11D8093D2049093FB
:103C8000D304A093D404B093D5048091CE04909132
:103C9000CF04A091D004B091D1048F3F2FEF9207B1
:103CA000A207B20759F00196A11DB11D8093CE0461
:103CB0009093CF04A093D004B093D1048091CD040D
:103CC000EEEEF5E090819F3F61F09E3F41F4282F9A
:103CD00030E02230310514F0815001C080E09F5F58
:103CE0009083319696E0EE31F90761F78093CD0429
:103CF000E42FE695EF7380919A01E81307C081E005
:103D000090919B01913019F480E001C081E08170B5
:103D1000E0939A0191E090939B014E2F50E0FA01BD
:103D20003197EB30F10520F5E358FF4F0C94A23C9E
:103D30000E94F8171DC00E94091A1AC00E940D188F
:103D400017C00E947F1814C00E940E1911C00E9453
:103D50005F190EC00E94B4190BC00E94C21A08C09D
:103D60000E94C41B05C00E94C31C02C00E94BA1D51
:103D70000C94181EE091D103F091D2030995EEEE58
:103D8000F5E08FEF819396E0EE31F907D9F70E94C5
:103D90002630811104C00E94A0300E94D4170E94D6
:103DA000CA176093E3057093E4058093E50590934B
:103DB000E6056E7761F40E94D4170E94CA176093DB
:103DC000E3057093E4058093E5059093E605089577
:103DD0006091D2047091D3048091D4049091D50461
:103DE0000895E3EEF5E08081982F909590FB80F99F
:103DF000808360817181828193810C94CE17909130
:103E0000E305892F86958F5F8F7391788C3018F436
:103E1000880F892B02C0892F82608093E30560910F
:103E2000E3057091E4058091E5059091E6050C9419
:103E3000CE179091E305892F8695815C8F739178D9
:103E4000882319F0880F892B02C0892F86618093FF
:103E5000E3056091E3057091E4058091E50590919B
:103E6000E6050C94CE178091E305982F991F9927AA
:103E7000991F8091E405880F892B90E008968F3F69
:103E8000910519F014F08FEF90E02091E30580FB8D
:103E900027F92093E305282F26958091E405807863
:103EA000822B90FB87F98093E4056091E305709184
:103EB000E4058091E5059091E6050C94CE1780917C
:103EC000E305982F991F9927991F8091E405880F82
:103ED000892B90E0089797FF02C080E090E08F3F29
:103EE000910519F014F08FEF90E02091E30580FB2D
:103EF00027F92093E305282F26958091E405807803
:103F0000822B90FB87F98093E4056091E305709123
:103F1000E4058091E5059091E6050C94CE1780911B
:103F2000E50590E008968F3F910519F014F08FEFAA
:103F300090E08093E5056091E3057091E405809140
:103F4000E5059091E6050C94CE178091E50590E08B
:103F5000089797FF02C080E090E08F3F910519F02D
:103F600014F08FEF90E08093E5056091E305709188
:103F7000E4058091E5059091E6050C94CE178091BB
:103F8000E60590E008968F3F910519F014F08FEF49
:103F900090E08093E6056091E3057091E4058091DF
:103FA000E5059091E6050C94CE178091E60590E02A
:103FB000089797FF02C080E090E08F3F910519F0CD
:103FC00014F08FEF90E08093E6056091E305709127
:103FD000E4058091E5059091E6050C94CE1780915B
:103FE000E70590E001968430910514F083E090E0BD
:103FF0008093E7056091E3057091E4058091E50504
:104000009091E6050C94CE178091E70590E001971A
:1040100097FF02C080E090E08430910514F083E0C7
:1040200090E08093E7056091E3057091E40580914D
:10403000E5059091E6050C94CE17E3EEF5E08F735D
:10404000982F990F80818178892B8083608171817D
:10405000828193810C94CE17E3EEF5E08F73982F55
:10406000990F80818178892B808308958091E30561
:1040700086958F730895E3EEF5E0208180FB27F9A4
:104080002083A4EEB5E086952C912078822B90FBBE
:1040900087F98C93628343836081718182819381EC
:1040A0000C94CE17E3EEF5E0208180FB27F9208306
:1040B000A4EEB5E086952C912078822B90FB87F9B1
:1040C0008C9362834383089567E784E70C943922D5
:1040D000CF930E94782284E70E94BE2087E70E9447
:1040E000BE20C0E021E041E061E08C2F0E94502121
:1040F000CF5FC033B9F767E784E7CF910C944C22C8
:10410000EEE3F7E06083418324E630E042E050E0F4
:10411000BF01880F0C944E23EF92FF921F93CF9311
:10412000DF937B01182F110FC0E0D0E08C2F8C5D46
:1041300080933E0720E030E0F901EC0FFD1FEE0D0B
:10414000FF1D8081F901E25CF84F81832F5F3F4FB3
:104150002031310589F724E630E041E150E06EE39B
:1041600077E0812F0E944E236096C039D105F1F689
:10417000DF91CF911F91FF90EF900895CF93DF9340
:10418000C82F4BE06DEF0E94802040E06AE08C2F4A
:104190000E9480208FE39CE90197F1F700C00000A6
:1041A00040E060E08C2F0E94802040E061E08C2F96
:1041B0000E94802040E066E08C2F0E94802040E03A
:1041C0006DEF8C2F0E948020D0E040E06D2F8C2F6F
:1041D0000E948020DF5FD231C1F740E06D2F8C2F2D
:1041E0000E948020DF5FD432C1F740E06D2F8C2F1A
:1041F0000E948020DF5FD43BC1F74BE06DEF8C2F36
:104200000E94802041E06AE08C2F0E94802040E0E4
:104210006DEF8C2FDF91CF910C948020803391052E
:1042200020F5880F991F880F991FFC01E759FD4F52
:1042300052813381808183707181E0E98E9FC0015A
:104240001124825E994FFC01E70FF11DB497608342
:10425000FC01E50FF11DB4974083830F911DFC0114
:10426000B497208381E08093FB040895FF920F931D
:104270001F93CF93DF93182F062FF42EC0E0D0E0CA
:104280002F2D402F612FCE010E940E212196C03389
:10429000D105B1F7DF91CF911F910F91FF90089554
:1042A0004F925F927F928F929F92AF92BF92CF92E6
:1042B000DF92EF92FF920F931F93CF93DF93362FEE
:1042C00054E0859FC0011124FC01E759FD4FA081F6
:1042D000A3707A2E618170E0CB0184978C0197FFE7
:1042E00002C0095F1F4FA3E015950795AA95E1F756
:1042F000628170E07B0154E2E51AF108E701F7FC06
:10430000279673E0D595C7957A95E1F7638170E0BC
:104310004B01E4E28E1A9108F40197FC37962F01C5
:1043200053E0559447945A95E1F768E0A62EB12CD6
:10433000B5010E946C3C6C01C701B5010E946C3C48
:104340007C01C401B5010E946C3CA72DB0E011278F
:10435000DD243323A1F032E13A9FB0013B9F700D81
:104360001124060F171F09521B4F61E070E001C0B6
:10437000660FCA94EAF7F8013081632B14C032E16A
:104380003A9FB0013B9F700D1124060F171F095271
:104390001B4F61E070E001C0660FCA94EAF76095B8
:1043A000F801308163236083DD27FF2432E1442359
:1043B00091F03A9FA0013B9F500D1124C40FD51FCF
:1043C000C952DB4F41E050E001C0440FEA94EAF7E4
:1043D0003881432B12C03A9FA0013B9F500D1124FE
:1043E000C40FD51FC952DB4F41E050E001C0440F5C
:1043F000EA94EAF74095388143234883A201552780
:10440000992792E19A9FF0019B9FF00D1124E40FF0
:10441000F51FE952FB4F222361F021E030E0A901B2
:1044200002C0440F551F8A95E2F7CA019081892B7B
:104430000CC021E030E0A90102C0440F551F8A954D
:10444000E2F7CA01809590818923808381E080937F
:10445000D604DF91CF911F910F91FF90EF90DF90E5
:10446000CF90BF90AF909F908F907F905F904F9034
:104470000895CF939091FB04992351F0C62F6EE1DC
:1044800076E00E948C206EEA76E08C2F0E948C20D1
:104490001092FB04CF910895EF92FF920F931F9318
:1044A000CF93DF939091D6049923D9F0162F082F3C
:1044B00087EDE82E84E0F82EC0E0D0E0F7014191CE
:1044C0007F016C2F802F0E948020FE01E952FB4F5C
:1044D00042896C2F812F0E9480202196C231D10504
:1044E00069F7DF91CF911F910F91FF90EF900895A1
:1044F0001092B9008CE08093B8000895EF92FF927B
:104500000F931F93CF93DF93182FEB011092BC00F2
:1045100084EA8093BC000E94B4317C019091BC007D
:1045200097FD0EC0CF3F8FEFD807C1F30E94B43183
:104530008E199F098C179D0788F38EEF9FEF2EC071
:104540009091B900987F983041F09091B900987F90
:10455000903119F08FEF9FEF21C01093BB0084E8DA
:104560008093BC000E94B4318C019091BC0097FDF7
:104570000CC0CF3F8FEFD807C1F30E94B431801B2E
:10458000910B8C179D0788F3D8CF8091B900887F55
:10459000883111F08034F1F680E090E0DF91CF9126
:1045A0001F910F91FF90EF9008950F931F93CF935A
:1045B000DF93EB018093BB0084E88093BC000E94F2
:1045C000B4318C019091BC0097FD0EC0CF3F8FEFAE
:1045D000D807C1F30E94B431801B910B8C179D0743
:1045E00088F38EEF9FEF0CC02091B900287F81E007
:1045F00090E0283211F480E090E091958195910946
:10460000DF91CF911F910F9108950F931F93CF9337
:10461000DF93EC0184E88093BC000E94B4318C01EC
:104620009091BC0097FD0EC0CF3F8FEFD807C1F32C
:104630000E94B431801B910B8C179D0788F38EEF7D
:104640009FEF03C08091BB0090E0DF91CF911F915D
:104650000F9108950F931F93CF93DF93EC0184E99B
:104660008093BC000E94B4318C019091BC0094FFF7
:104670000EC0CF3F8FEFD807C1F30E94B431801B2B
:10468000910B8C179D0788F38EEF9FEF02C080E09F
:1046900090E0DF91CF911F910F910895CF92DF921B
:1046A000EF92FF920F931F93CF93DF936B017A01E9
:1046B0008901B9010E947E22FC01892BC9F4E6011F
:1046C000EC0CFD1CCE15DF0541F0B80189910E946C
:1046D000D522FC01892BB1F30BC0C801DF91CF912A
:1046E0001F910F91FF90EF90DF90CF900C942A23B1
:1046F000CF01DF91CF911F910F91FF90EF90DF904D
:10470000CF90089590930105809300050895E0915E
:104710000005F0910105309721F00190F081E02D26
:10472000099480E00895E0910005F091010530972B
:1047300099F02091A801222359F02091560727FFD4
:1047400007C0DC012C9111962C93119725E02C9336
:104750000280F381E02D099408952091FE043091A8
:10476000FF048217930771F09093FF048093FE0477
:10477000E0910005F0910105309721F00680F78166
:10478000E02D099408952091FC043091FD048217D6
:10479000930771F09093FD048093FC04E091000571
:1047A000F0910105309721F00084F185E02D099406
:1047B000089585B7806885BF85B7806885BF0895EF
:1047C000089508950C94E12308950C94E4230E9425
:1047D000D9230E94E0230C94E22381E008950E94F3
:1047E000AB310E94B7060E9442320C94E523CF926F
:1047F000DF92EF92FF920F931F93CF93DF93CDB78A
:10480000DEB72B970FB6F894DEBF0FBECDBF0E9468
:1048100089070E94ED23811111C08FEF89838A835C
:104820001B820E94B4318160782F9D838C834981E3
:104830005A816B818D810E94D92456C083E0C82E95
:1048400085E0D82E00E010E0E02E802F0E94D107F6
:10485000F60141916F01F42EF82631F40F5F1F4FDE
:104860000E30110589F7D9CF9091BE0591FF04C094
:104870008B870E94D7078B8520E030E04F2D50E0DA
:10488000922FBA01022E02C0759567950A94E2F73D
:1048900060FF24C02E83EF8221E030E0690102C076
:1048A000CC0CDD1C9A95E2F790E08C219D21892BA0
:1048B00009F420E028870E94B4318160782F9A871C
:1048C00089874E815F8168858A850E94D924F80195
:1048D000ED5FFA4F8081C826C08206C02F5F3F4F30
:1048E0002630310569F6BACF109102050E94872360
:1048F0001817A1F00E948723809302052B960FB60C
:10490000F894DEBF0FBECDBFDF91CF911F910F9105
:10491000FF90EF90DF90CF900C9439112B960FB64B
:10492000F894DEBF0FBECDBFDF91CF911F910F91E5
:10493000FF90EF90DF90CF900895DC0111962C91BD
:1049400011978C91682F70E041E050E001C0440F56
:104950008A95EAF712968C91129730E0882329F015
:10496000809121058823E9F006C0F901EF5EFA4F36
:1049700090819423B1F086E0829FF001839FF00D37
:104980001124E60FF71FEE0FFF1FE75DFC4F80813C
:1049900091818D939C93F901EF5EFA4F8081482BB2
:1049A00006C0F901EF5EFA4F4095808148234083AD
:1049B0000895CF93DF93CDB7DEB72B970FB6F8945A
:1049C000DEBF0FBECDBF942F4F83252F5887698739
:1049D0007A878B874A855B85452B21F02F3F09F528
:1049E0009F3FF9F4DE01119686E0FD0111928A9550
:1049F000E9F785E0FE01379601900D928A95E1F77F
:104A000049815A816B817C818D819E810E94172C06
:104A10002B960FB6F894DEBF0FBECDBFDF91CF91BE
:104A20000895CE0107960E949D24DCCFFC01808171
:104A300091810E94E42E92959F70963041F480916E
:104A4000210591E089278093210590932005089501
:104A5000882309F413C1682F8238C1F40E94872388
:104A600081FD0CC169E380919C0190919D010E94A0
:104A700007310E94722F2FEF81EE94E02150804089
:104A80009040E1F700C0000069E319C08338F9F4F1
:104A90000E94872380FDF2C063E580919C01909184
:104AA0009D010E9407310E94722F2FEF81EE94E04A
:104AB000215080409040E1F700C0000063E5809104
:104AC0009C0190919D010E9412310C94722F8438A8
:104AD000C1F40E94872382FDD1C067E480919C01CC
:104AE00090919D010E9407310E94722F2FEF81EE5D
:104AF00094E0215080409040E1F700C0000067E45E
:104B0000DECF8CEF860F813A38F480919C01909132
:104B10009D010E940731D9CF80E2860F883048F48A
:104B2000677081E001C0880F6A95EAF70E94262F1E
:104B3000CCCF8BE5860F833070F4653A29F0663A66
:104B400031F083E890E005C081E890E002C082E89F
:104B500090E00C94AD2388E5860F873108F08EC075
:104B6000683A09F445C0693A09F445C06A3A09F45B
:104B700045C06B3A09F445C06C3A09F445C06B3B3B
:104B800009F445C06C3B09F445C06D3A09F445C0D1
:104B9000603B09F445C06E3A09F445C06F3A09F428
:104BA00045C0613B09F445C0623B09F445C0633B25
:104BB00009F445C0643B09F445C0653B09F445C0B0
:104BC000663B09F445C0673B09F445C0683B09F4FE
:104BD00045C0693B09F445C06D3B09F445C06E3BD7
:104BE00009F445C06A3B09F445C080E090E044C048
:104BF00082EE90E041C089EE90E03EC08AEE90E007
:104C00003BC085EB90E038C086EB90E035C083EB8D
:104C100090E032C084EB90E02FC087EB90E02CC096
:104C20008CEC90E029C08DEC90E026C083E891E008
:104C300023C08AE891E020C082E991E01DC084E9A8
:104C400091E01AC081E292E017C083E292E014C0C2
:104C500084E292E011C085E292E00EC086E292E02A
:104C60000BC087E292E008C08FE690E005C080E7C5
:104C700090E002C08AE292E00C94C3230895882356
:104C800009F45BC0682F823879F40E94872381FF82
:104C900054C069E380919C0190919D010E9407316D
:104CA0000E94722F69E310C08338B1F40E948723F9
:104CB00080FF43C063E580919C0190919D010E941B
:104CC00007310E94722F63E580919C0190919D01B4
:104CD0000E9412310C94722F843879F40E94872339
:104CE00082FF2BC067E480919C0190919D010E94FE
:104CF00007310E94722F67E4E7CF8CEF860F813A6D
:104D000018F380E2860F883048F4677081E001C0B4
:104D1000880F6A95EAF70E942C2FDCCF8BE5860F6F
:104D2000833020F480E090E00C94AD23685A673122
:104D300020F480E090E00C94C3230895CF93C82F13
:104D40000E9428258C2FCF910C943F26882321F098
:104D50000E94262F0C94722F0895882321F00E9420
:104D60002C2F0C94722F08958F929F92AF92BF9226
:104D7000DF92EF92FF920F931F93CF93DF937C010B
:104D8000D62FC72FFC01058102950F7012811111DA
:104D90000E94462F0E941C2F882379F0112369F06E
:104DA00080E28D0F883048F082E00E94BD2F0E9483
:104DB0001C2F91E0D82ED92601C0D12CAC2EA29464
:104DC0008FE0A822B12CF501E857FF4F0C94A23CCC
:104DD0008C2F807FCF70882311F0C295C07F112364
:104DE00099F0CC2309F486C180E28D0F883010F051
:104DF000D11104C08C2F0E94262F03C08C2F0E943B
:104E0000392F0E94722F76C18D2F0E943F26CC230E
:104E100009F4ECC180E28D0F883010F0D11104C08C
:104E20008C2F0E942C2F03C08C2F0E943F2F0E949A
:104E3000722FDCC18C2F807FCF70803211F0C29531
:104E4000C07FDD2319F0D130C9F021C0112371F0EA
:104E5000002341F0013031F40E94592F8C2B0E9425
:104E60005F2FC4C10E94592F8C2BFDC0002319F065
:104E7000013009F4BBC10E94682F11C0112321F039
:104E8000023008F0B3C107C00111B0C108C011233E
:104E900021F001112FC18C2FE6C001113CC18C2FD4
:104EA000E8C08C2F86958695837090E0009719F066
:104EB000019761F09BC1112321F08D2F9C2F9370DE
:104EC00002C080E090E00E94AD23A0C1112321F038
:104ED0008D2F9C2F937002C080E090E00E94C3232E
:104EE00095C18C2F837009F050C011118BC18D2F8B
:104EF000829586958770880F880F9D2F9F70892EC9
:104F0000912CA12CB12C082E04C0880C991CAA1C31
:104F1000BB1C0A94D2F7D4FF14C00FE010E020E0CD
:104F200030E0B901A80104C0440F551F661F771F68
:104F30008A95D2F7CB01BA016095709580959095CE
:104F400003C060E070E0CB01C695C695C370D0E0A9
:104F5000C230D10561F0C330D10581F068297929CB
:104F60008A299B29219771F00E945C2D4BC16829E9
:104F700079298A299B290E946E2D44C10E945C2DAB
:104F8000C501B4010E944A2D3DC1112319F08C2F97
:104F9000817001C08695882309F434C18D2F8295D4
:104FA00086958770880F880F9D2F9F70892E912C72
:104FB000A12CB12C082E04C0880C991CAA1CBB1C67
:104FC0000A94D2F7D4FF14C00FE010E020E030E0E4
:104FD000B901A80104C0440F551F661F771F8A95A9
:104FE000D2F7CB01BA01609570958095909503C07A
:104FF00060E070E0CB01C695C695C3704C2F50E0C1
:105000004230510569F04330510589F0682979290A
:105010008A299B294130510571F00E94212EF2C04E
:10502000682979298A299B290E94332EEBC00E9486
:10503000212EC501B4010E940F2EE4C08D2F90E0F7
:10504000FC01E05EF109E531F10508F04FC0E856DA
:10505000FF4F0C94A23CDF708C2F8F71112331F025
:105060000E94A82D8D2F0E94A626C0C00E94C92D87
:105070008D2F0E94AD26BAC0112339F00111B6C0A0
:105080008C2F8F710E94EE2DB1C0023008F0AEC09F
:10509000F7CF112339F08C2F8F710E94A82DA6C055
:1050A0001123C9F38C2F8F710E94C92D9FC011232A
:1050B00029F08C2F8F710E94932D98C00E948E2D05
:1050C00095C0112349F0CF718C2F0E94A82D63E069
:1050D0008C2F0E94A82F8AC081E00E94BD2F023031
:1050E00008F484C082E00E94BD2F80C0112331F0FB
:1050F000002389F28D2F0E94282578C0002391F289
:10510000D93349F45FEF67EE73E05150604070406F
:10511000E1F700C000008D2F0E943F2667C04C2F92
:105120004F706D2FC7010E94B00F0E94BB2C6EC044
:10513000D23FB1F028F4D03F49F0D13FF9F028C078
:10514000D43FB9F058F0D53F71F022C0112309F4D3
:1051500047C09091210581E0892708C081E0182788
:10516000109321053DC011113BC081E080932105C2
:1051700037C0111135C01092210532C0112329F01A
:1051800080912005882329F329C0002311F328C02A
:10519000809120050023C1F0882341F090912105E2
:1051A00081E0892780932105109220058D2F1123FE
:1051B00019F00E94282514C00E943F2686E0F701BE
:1051C00011928A95E9F70CC0882351F0111108C09B
:1051D0009091210581E08927809321051092200577
:1051E0004C2F4F706D2FC7010E94ED13F8E0AF16E2
:1051F000B10441F05CF04AE0A41AB10852E0A516EF
:10520000B10420F40E9487230E943911DD20E1F0CF
:105210000E94182F80FD18C0F70112820E94122FE1
:105220000E94A82DC7010E9430290E94122FDF91F1
:10523000CF911F910F91FF90EF90DF90BF90AF90B3
:105240009F908F900C94C92DDF91CF911F910F915A
:10525000FF90EF90DF90BF90AF909F908F90089558
:105260000F931F93CF93DF93EC01888199812B815A
:105270003C81232BB9F09F3F11F48F3F99F0CE0171
:105280000E944B11882371F0688179818A810E9484
:10529000EF2E8C010E94452E0E94472DB801CE01B1
:1052A0000E94B426DF91CF911F910F9108950E9423
:1052B000462F0E94562F0E94722F80E090E00E949D
:1052C000AD2380E090E00C94C32380919C019091E9
:1052D0009D010E941D310C9457290E94362F0C9479
:1052E0006529E92FE295EF70F0E03297EE30F10595
:1052F000B0F4E355FF4F0C94A23C803F91F018F4BA
:10530000803E68F40EC0843F51F40BC0803E48F0EC
:10531000813F29F406C093FB882780F9089580E037
:10532000089581E008950E94E42E0E947129089555
:10533000CF93DF9300D000D01F92CDB7DEB70F9090
:105340000F900F900F900F90DF91CF910895CF9312
:10535000DF9300D000D000D0CDB7DEB726960FB6D1
:10536000F894DEBF0FBECDBFDF91CF9108951F939C
:10537000CF93DF93C091220516E080912305C817D3
:1053800099F0D0E01C9FF0011D9FF00D1124EC5D01
:10539000FA4F4081518162817381848195810E949D
:1053A000A7292196C770E9CFDF91CF911F9108956A
:1053B00040915405509155056091560570915705DF
:1053C00080915805909159050C94A7298091590511
:1053D00082958F7009F054C080915605882309F496
:1053E0004FC080912205A0912305609154057091D2
:1053F00055054091570550915805B6E08A1709F4B4
:105400003FC090E041155105C1F17F3F11F46F3F5E
:10541000A1F1B89FF001B99FF00D1124EC5DFA4F96
:10542000218172132AC02081621327C02281211199
:1054300024C0238134812417350710F42150310909
:10544000241B350B283C3105C0F4209159052F70E1
:1054500020612093590526E0289FF001299FF00D37
:105460001124E75DFA4F80818F708061808384E52D
:1054700095E00E9430290C94B72901968770BECF21
:105480000895CF92DF92EF92FF920F931F93CF93E5
:10549000DF93CDB7DEB762970FB6F894DEBF0FBECD
:1054A000CDBF8C0185E0F801DE011D9601900D92C3
:1054B0008A95E1F7D8014C9111965C91119712965B
:1054C0006C9112971396CD90DC90149730915405FF
:1054D000709155058091570590915805009709F4F2
:1054E0006BC17F3F19F43F3F09F466C1E090560558
:1054F000EE2009F4C0C020915905C816D90628F03D
:10550000F601E81BF90BCF0104C0809590958C0D36
:105510009D1DFF24F394883C910578F0F12C207FA9
:1055200009F0C6C07C2DD98AC88A89890E94982929
:1055300084E595E00E943029B1C0822F807F09F078
:1055400046C0751314C0341312C0611110C02F70FF
:105550002061209359050E94D82984E595E00E9496
:10556000302980915905D80115968C932EC0CD28ED
:1055700019F15F3F11F44F3FF9F0F62E61111CC095
:10558000809122052091230536E0821709F45AC044
:1055900090E0389FF001399FF00D1124EC5DFA4F37
:1055A0007181571306C07081471303C07281711156
:1055B00003C001968770E9CFF62E662309F427C150
:1055C00080915905816080935905F12C20C1751394
:1055D00008C0341306C0611104C080915905D80178
:1055E000C3C04D875E878D859E856A8B0E949329F7
:1055F0006A898823E1F16623D1F120915905822F30
:1056000082958F7090E0029774F08091540590918C
:10561000550598878F831986DB86CA862C87CE012D
:1056200007960E94302986E0F801A4E5B5E00190D4
:105630000D928A95E1F70E94E6290E94D829FF245D
:10564000F394E5C04D875E878D859E850E94E42E8C
:10565000292F22952F7030E0223031050CF0CBC07D
:105660009F7009F0C5C0805E883008F4D0C0C801C2
:105670000E943029E4CFC816D90608F453C0F601B9
:10568000E81BF90BCF01883C910508F450C0F12CC0
:105690007C2DD98AC88A89890E949829E4E5F5E099
:1056A00086E0DF011D928A95E9F70E94D829AFC0F4
:1056B000751314C0341312C0611110C080915905C4
:1056C000F8018583C8010E94302986E0E4E5F5E011
:1056D000DF011D928A95E9F7FE2C99C04D875E8700
:1056E0008D859E856A8B0E9493296A89882309F497
:1056F000BECF662309F4BBCF20915905822F829536
:105700008F7090E002970CF48ECF809154059091A9
:1057100055059A8389831B82DD82CC822E83CE013C
:1057200001967FCF809590958C0D9D1DACCFF62E68
:10573000662309F49CCF75132EC034132CC020911E
:10574000590520FD1FC0822F82958F70D9F0D80196
:1057500015962C9315978F3049F08F5F982F92955F
:10576000907F822F8F70892B15968C93C8010E9491
:10577000302986E0F801A4E5B5E001900D928A9504
:10578000E1F793CF86E0F801A4E5B5E001900D9232
:105790008A95E1F73CC04D875E878D859E850E9486
:1057A0009329811140CF80915905816080935905DB
:1057B000C8010E9430292BC0662309F458CF4D87B9
:1057C0005E878D859E850E949329F82E882309F493
:1057D0004ECF86E0F801A4E5B5E001900D928A95E0
:1057E000E1F784E595E00E9416250E94E6295DCF49
:1057F000811139CF0CC0243031050CF038CF9F70A7
:1058000009F431CFF8019581907F09F02CCF8F2DCD
:1058100062960FB6F894DEBF0FBECDBFDF91CF9179
:105820001F910F91FF90EF90DF90CF9008951F93FD
:10583000CF93DF93CDB7DEB72C970FB6F894DEBFCA
:105840000FBECDBF4F83588769877A878B879C8728
:10585000CE0107960E94412A882369F08F8198859E
:105860002A853B85232BF1F19F3F09F063C08F3FD1
:1058700009F060C037C086E0FE013796DE01119660
:1058800001900D928A95E1F76F817885EA85FB8515
:10589000309741F17F3F11F46F3F21F120912305B3
:1058A00030E0C9010196877099274091220550E0A8
:1058B0008417950709F447C069837A83FD83EC83D5
:1058C00096E0929FD001939FB00D1124AC5DBA4F2A
:1058D000FE01319601900D929A95E1F78093230590
:1058E0000E94B72916E0809122059091230589171F
:1058F000C1F1189FC00111248C5D9A4F0E94412A6A
:10590000882379F1E09122051E9FF0011124EC5DBE
:10591000FA4F4081518162817381848195810E9417
:10592000A7298091220590E001968770992780939E
:105930002205D9CF4F81588569857A858B859C85CD
:105940000E94A729CFCF0E946D29109223051092A3
:105950002205E4E5F5E086E0DF011D928A95E9F78E
:10596000C1CF2C960FB6F894DEBF0FBECDBFDF912E
:10597000CF911F910895EF92FF920F931F93CF93B2
:10598000DF938C01892B09F46CC0F12CEE24E39495
:10599000E8012196F8018491843740F4843008F0BE
:1059A00051C0813081F0823019F15BC0853709F434
:1059B00044C0A8F19CE7980F903708F052C08F7749
:1059C0000E943F2641C00E5F1F4FFE01C49180E23E
:1059D0008C0F883048F4C7708E2D01C0880FCA958F
:1059E000EAF70E94492F14C08C2F0E9428252DC051
:1059F0000E5F1F4FFE01C49180E28C0F883058F477
:105A0000C7708E2D01C0880FCA95EAF70E944F2FEC
:105A10000E94722F1AC08C2F0E943F2616C00E5F64
:105A20001F4FFE01C491CC2381F08FE99FE00197C5
:105A3000F1F700C00000C150F6CF0E5F1F4FFE010E
:105A4000F49003C00E9428258E018F2D882309F42D
:105A50009FCFEFE9FFE03197F1F700C000008150E0
:105A6000F5CFDF91CF911F910F91FF90EF900895A7
:105A700008950C94382D0E94392D609395057093EC
:105A8000960580939705909398050C94572908954F
:105A90000C943B2D0F931F93009195051091960543
:105AA0002091970530919805602B712B822B932BB9
:105AB0001F910F910C943B2D0F931F93009195050F
:105AC00010919605209197053091980560237123D8
:105AD000822393231F910F910C943B2D0F931F93BF
