:100000000C9425060C9442060C9442060C9442066D
:100010000C9442060C9442060C9442060C94420640
:100020000C9442060C9442060C94D5330C94A734DD
:100030000C94882E0C9442060C9442060C944206B2
:100040000C9442060C9442060C9442060C94420610
:100050000C9442060C94F02E0C9442060C9442062A
:100060000C9442060C9442060C9442060C944206F0
:100070000C9442060C9442060C9442060C944206E0
:100080000C9442060C9442060C9442060C944206D0
:100090000C9442060C9442060C9442060C944206C0
:1000A0000C9442060C9442060C9442069A069D0655
:1000B000A006A306A606A906AC068A0D8F0D930D11
:1000C0009D0DA90DB30D160E530E580E620E560E51
:1000D0005B0E600E5E0EA60FA80FB30FAA0FAC0F3B
:1000E000AE0FB00FB20FB50FB70FB90FC40FBB0FE4
:1000F000BD0FBF0FC10FC30FC60F4D1C501C531CAB
:10010000561C591C5C1C5F1C621C651C681C6B1C0B
:100110004624462478247824AF24FC25FC25FC259D
:10012000CF24FC257C257C25EC25FC25FC25F5250C
:10013000892589258925892589258925892589254F
:10014000892589258925892589258925892589253F
:100150009A25A725AE25B525BF2583268326952676
:1001600095268C26952695269526832683269126E8
:1001700095269526912614353B352D363B352D3663
:100180008735AA352D3600360F3605A84CCDB2D4AA
:100190004EB93836A9020C50B9918688083CA6AAF7
:1001A000AA2ABE000000803F6572676F646F785FA7
:1001B000657A2F616C6563672040204E4100000026
:1001C000F0A100000000000000000000000000009E
:1001D000000000000000000000000000000000001F
:1001E000000000000000000000000000000000000F
:1001F00000000000000000000000000000000000FF
:1002000000000000000000000000000000000000EE
:1002100000000000000000000000000000000000DE
:1002200000000000000000000000000000000000CE
:1002300000000000000000000000000000000000BE
:1002400000000000000000000000000000000000AE
:1002500000009AFFFF9AFFFF9AFFFF9AFFFF9AFFA5
:10026000FF9AFFFF9AFFFF9AFFFF9AFFFF9AFFFF97
:100270009AFFFF9AFFFF9AFFFF9AFFFF9AFFFF9AEC
:10028000FFFFCDFFFF9AFFFF9AFFFF9AFFFF9AFF44
:10029000FF9AFFFF9AFFFF9AFFFF9AFFFF9AFFFF67
:1002A0009AFFFF9AFFFF9AFFFF9AFFFF9AFFFF9ABC
:1002B000FFFF00CCFF9AFFFF9AFFFF9AFFFF00CCE1
:1002C000FF00CCFF00CCFF9AFFFF9AFFFF9AFFFFD1
:1002D0009AFFFF9AFFFF9AFFFF9AFFFF9AFFFF9A8C
:1002E000FFFF69FFFF69FFFF69FFFF69FFFF69FF0C
:1002F000FF69FFFF69FFFF69FFFF69FFFF69FFFFFC
:1003000069FFFF69FFFF69FFFF69FFFF69FFFF6981
:10031000FFFF69FFFF69FFFF69FFFF69FFFF000043
:100320000000000000000000000069FFFF69FFFFFF
:1003300069FFFF69FFFF69FFFF0000000000000088
:1003400000000000000000000000009AFFFFF9E438
:10035000FF9AFFFF00000000000000000000000006
:10036000000000000000000000000000000000008D
:1003700000000000000000000EFFFF0EFFFF0EFF58
:10038000FF69FFFF23FFFF23FFFF23FFFF0EFFFF98
:1003900069FFFF23FFFF23FFFF23FFFF000000F99A
:1003A000E4FF23FFFF23FFFF23FFFF69FFFF0000A0
:1003B0000023FFFF23FFFF000000000000000000FB
:1003C000000000000000000000000000000000230A
:1003D000FFFF00000000000000000023FFFF23FFDC
:1003E000FF23FFFF000000000000000000000000ED
:1003F00000000000000023FFFF23FFFF00000000BB
:1004000000000000000000000000000000000000EC
:1004100000000000000000FA9FFF00000000000044
:10042000000000FA9FFFFA9FFFFA9FFF0000000004
:1004300000000000000000000000000000000000BC
:1004400000000000000000000000000000000000AC
:100450000000000000000000000000000000000E8E
:10046000FFFF00000000000000000069FFFF0EFF1A
:10047000FF69FFFF00000000000000000000000016
:10048000000000000000000000000000000000006C
:10049000000000000000000000000000000000005C
:1004A0000000000086FFD586FFD586FFD50000003E
:1004B00000000086FFD586FFD586FFD5000000002E
:1004C000000086FFD555CB9E86FFD50000000000BA
:1004D000000AE1FF00000000000000000000000032
:1004E000000000000000000000000000000000000C
:1004F00000000000000000000000000000000000FC
:1005000000000000000000000000000000000000EB
:1005100000000000000000000000000000000000DB
:10052000000029002B002A00E100350000001E0019
:10053000140004001D003400F75C1F001A001500B1
:100540001B00010002512000090016000600E20015
:100550002C002100130017001900E000C35C2200EA
:100560000A000700050000006500035101000000BB
:1005700005510000E30001530100000000070000E6
:10058000E70023000D000B000E0000004C002400CB
:100590000F00110010000451F55C25001800080040
:1005A00036000100280026001C000C003700010066
:1005B000000427003300120038000100F65C2D0013
:1005C00031003400E50001000000010001000100DD
:1005D0000100010000001E00140004001D000100C5
:1005E000F25C1F001A0016001B0001000100200031
:1005F00008000700060001000100210015000900A5
:1006000019000100C35C220017000A000500000069
:1006100001000100100000000100000001000100C5
:100620000100000001000000010023001C000B007D
:10063000110000000100240018000D00100001004E
:10064000C55C25000C000E003600010001002600EC
:1006500012000F00370001000100270013003300D3
:1006600038000100C65C010001000100010001002A
:1006700000000100010001000100010000003A003B
:100680000100010001000100CA5C3B0001001507E8
:100690000100010001003C000100160701000100FB
:1006A00001003D000100170701000100C95C3E0088
:1006B0000100010001000000010001000000000035
:1006C0000100000001000100010000000100000025
:1006D000C25C3F002502210222020000F25C4000C1
:1006E0002F0226022F000100F35C41003002270296
:1006F00030000100C55C42002D0256001F020100BF
:10070000C65C43002E022E0020020100F45C44006F
:10071000450001000100010000000100010001008E
:1007200001000100000001000100010001000100C2
:10073000010001000100F2000100010001000100C0
:10074000F000F1000100F400010001000100F300DD
:100750000100F5000100010001000100010000009E
:100760000100010001000000010000000100010083
:10077000010000000100000001000100A900AA0022
:10078000A800000001000100240021001E0001005B
:1007900001005400250022001F0062000C005500DB
:1007A00026002300200063000100560057000000CF
:1007B00058000100010001000100010001000100DA
:1007C0000000010001000100010001000000010023
:1007D00000000000000001000100000000004A00CD
:1007E00000000100010000004B004E00000001006D
:1007F0000100000000004D000000010001000100A8
:1008000000000000000000000100010001000000E5
:1008100001000000010001000100000001000000D3
:1008200001000100000000000000000001000000C5
:1008300000005000000001000100000052005100C3
:10084000000001000100000000004F000000010056
:100850000100010000000000000001000100010093
:100860000100010001000100000001000100010081
:100870000100010000000100010001000100010071
:100880000100010001000100010001000100010060
:100890000100010001000100010001000100010050
:1008A0000100010001000100010001000100000041
:1008B0000100010001000000010000000100010032
:1008C0000100000001000000010001000100010022
:1008D0000100000001000100240721071E0701009C
:1008E00001000100250722071F072707010001005B
:1008F0002607230720070100010001000100010075
:1009000001000100010001000100010001000100DF
:10091000000000000000000000002A2B280000005A
:10092000000000000000000000000000002900009E
:1009300000002C1E3420212224342627252E362D7B
:100940003738271E1F202122232425263333362E15
:1009500037381F0405060708090A0B0C0D0E0F1087
:100960001112131415161718191A1B1C1D2F3130CC
:10097000232D350405060708090A0B0C0D0E0F1070
:100980001112131415161718191A1B1C1D2F3130AC
:10099000354C0000000000000000000000000000D6
:1009A0000000000000000000000000000000000047
:1009B000000000010101010101000101010100002D
:1009C0000000000000000000000000000100010025
:1009D0000101010101010101010101010101010107
:1009E00001010101010101010101010101000000FA
:1009F00001010000000000000000000000000000F5
:100A000000000000000000000000000000010101E3
:100A100001000000000000010101010101010101CC
:100A2000020202020202020202030303030303039F
:100A3000030404040404040505050505060606066A
:100A40000607070707080808080909090A0A0A0A21
:100A50000B0B0B0C0C0C0D0D0D0E0E0F0F0F1010C1
:100A60001111111212131314141515161617171845
:100A70001819191A1A1B1C1C1D1D1E1F1F202021AE
:100A800022222324252526272728292A2B2B2C2DF3
:100A90002E2F2F30313233343536363738393A3B12
:100AA0003C3D3E3F4041424344464748494A4B4C07
:100AB0004D4F50515253555657585A5B5C5E5F60CC
:100AC0006263646667696A6C6D6E70717374767860
:100AD000797B7C7E8081838486888A8B8D8F9192BE
:100AE0009496989A9B9D9FA1A3A5A7A9ABADAFB1E2
:100AF000B3B5B7B9BBBDBFC1C4C6C8CACCCFD1D3CB
:100B0000D6D8DADCDFE1E4E6E8EBEDF0F2F5F7FA6F
:100B1000FCFF04033000000016034500720067006C
:100B20006F0044006F007800200045005A0000006C
:100B300016034500720067006F0044006F007800E4
:100B4000200045005A0000000403090409023B008C
:100B5000020100A0FA0904000001030101000921BB
:100B6000110100012240000705810308000A090461
:100B700001000103000000092111010001227100A0
:100B80000705820320000A1201100100000008ED91
:100B9000FE071301000102030105010980A101857F
:100BA000031601002603001A81002A8300751095A0
:100BB000018100C0050C0901A10185041601002670
:100BC0009C021A01002A9C02751095018100C00543
:100BD000010906A1018505050719E029E71500258A
:100BE000019508750181020508190129059505750A
:100BF0000191029501750391010507190029EF156F
:100C000000250195F075018102C005010906A101C9
:100C1000050719E029E715002501950875018102EE
:100C200095017508810105081901290595057501CA
:100C300091029501750391010507190029FF15001F
:100C400026FF00950675088100C011241FBECFEF56
:100C5000DAE0DEBFCDBF12E0A0E0B1E0E2E9F4E708
:100C600002C005900D92A63AB107D9F726E0A6EA90
:100C7000B2E001C01D92A730B207E1F70E94F9303F
:100C80000C94473A0C94000080B38C7080BB81B305
:100C9000836F81BB089584B1807F84B985B1807FE3
:100CA00085B98AB1837F8AB98BB1837F8BB93E982E
:100CB00046980895CF93E82F873090F580910401EE
:100CC00090910501892B09F049C0CE2F64E670E0B0
:100CD00080E40E9433209093050180930401892BC6
:100CE000D1F464E670E082E10E948A2090930501CD
:100CF00080930401892B79F481E090E001C0880F92
:100D0000CA95EAF764E670E080950E948A20909385
:100D100005018093040184E690E0CF910C94DF20DC
:100D200090E0FC013797E730F105C0F4EA5AFF4F35
:100D30000C943A39209A289811C0219A29980EC00B
:100D4000229A2A980BC0239A2B9808C0529A5A9834
:100D500005C0539A5B9802C03E9A4698CF91089579
:100D6000089508950C94B106CF93DF930E94430831
:100D700090E090930501809304010E944B060E942D
:100D80004406ABEFB2E027EA32E0E9E0F3E04EE000
:100D90004E0F11921D9280E090E0E901C80FD91F1B
:100DA0001882019686309105C1F72A5F3F4F4E1396
:100DB000F0CFDF91CF910C94CB0E0E94430890E0CE
:100DC00090930501809304010E944B060E94440603
:100DD000E9E0F3E08EE08E0F11928E13FDCF0895BF
:100DE000CF93DF93E62FF0E0E550FD4F4081482799
:100DF000808386E0689FF0011124E955FD4F20E0D3
:100E000030E080E061E070E050E0AAE0B22F908135
:100E1000992319F09150908307C0EB01022E01C075
:100E2000CC0F0A94EAF78C2BEA0102C0D595C7953E
:100E3000BA95E2F7C0FDA0832F5F3F4F3196263071
:100E4000310521F7DF91CF910895CF93DF93D82F0C
:100E5000873008F040C08091040190910501892BF2
:100E600009F042C064E670E080E40E943320909371
:100E7000050180930401892B11F0C0E027C064E6CE
:100E800070E083E10E948A20909305018093040121
:100E9000892B99F764E670E081E40E9433209093F7
:100EA000050180930401892B41F784E690E00E94BC
:100EB000BA2097FF05C09093050180930401DDCF10
:100EC000C82FC095109205011092040184E690E0AD
:100ED0000E94DF200AC09FB1CFB1C07FC695C695E2
:100EE0009370C92BC09501C0C0E06D2F8C2F0E945C
:100EF000F006282F2095ED2FF0E0E75FFC4F908162
:100F000092238C23892BDF91CF910895EF92FF924A
:100F10000F931F93CF93DF9380910401909105016C
:100F2000892B91F08091A6028F5F8093A602811198
:100F30000BC00E94430890E0909305018093040148
:100F4000892B11F40E94D50789E0E82E83E0F82E62
:100F500000E113E0C0E08C2F0E945A06D7E0DC0FBE
:100F60008D2F0E945A068C2F0E942507F70181932E
:100F70007F018D2F0E942507F80181938F010E9428
:100F80004B06CF5FC73039F70E94D70E81E0DF9163
:100F9000CF911F910F91FF90EF900895E82FF0E00F
:100FA000E75FFC4F80810895089556985E982598D4
:100FB0002D9826982E9827982F988FEF90E0909351
:100FC00089008093880090938B0080938A0090938F
:100FD0008D0080938C00259A2D9A2FEF80E792E068
:100FE000215080409040E1F700C00000269A2E9AE0
:100FF0002FEF80E792E0215080409040E1F700C061
:101000000000279A2F9A2FEF80E792E0215080402E
:101010009040E1F700C0000025982D982FEF80E761
:1010200092E0215080409040E1F700C000002698F7
:101030002E982FEF80E792E0215080409040E1F71A
:1010400000C0000027982F9856985E9825982D98F4
:1010500026982E9827982F98089589EA80938000E3
:1010600089E08093810024982C983F988AB18F7CE6
:101070008AB96E98479A8BB180638BB9769A0E9431
:10108000D5070C94B00680E290E090930501809320
:1010900004018091170381110EC00E942D2081E070
:1010A000809317032FEF83ED90E321508040904011
:1010B000E1F700C0000064E670E080E40E943320A5
:1010C0009093050180930401892B09F050C064E6D8
:1010D00070E080E00E948A209093050180930401D3
:1010E000892B09F044C064E670E080E00E948A2009
:1010F0009093050180930401892BC9F564E670E0A3
:101100008FE30E948A209093050180930401892B2C
:1011100071F584E690E00E94DF2064E670E080E4F0
:101120000E9433209093050180930401892BF9F4E8
:1011300064E670E08CE00E948A2090930501809321
:101140000401892BA1F464E670E080E00E948A200B
:101150009093050180930401892B49F464E670E0C3
:101160008FE30E948A20909305018093040184E616
:1011700090E00E94DF208091040108958530C8F43A
:101180006A30B8F4843049F49CEF960F923088F0BE
:10119000653010F46F5F01C06150982F990F990F5F
:1011A000890F653018F4845E861B08958550860F7C
:1011B00008958FEF0895482F8074242F46FD2095C1
:1011C000E22FEF732F7081112F5FE295EF70EE0F1A
:1011D000F0E0EB56FD4F9181929F9001112484E045
:1011E000359527958A95E1F78081280F822F47FD55
:1011F000819580580895AF92BF92DF92EF92FF924F
:101200000F931F93CF93DF931F92CDB7DEB760FD8F
:1012100005C0809170038F5F80937003F09070031E
:1012200006E613E090E0892F8F0D99830E94DB087A
:10123000F80181938F0199819C5E983CA1F7F12C74
:101240006F2D70E080E090E00E947B3720E030E07E
:1012500040E85EE30E94483820E030E04FE753E486
:101260000E9448380E944C37A62EB12C06E613E0A7
:10127000E12CF80181918F01B501681B710977FF9D
:1012800003C071956195710965367105E4F470E0EC
:1012900080E090E00E947B3720E030E048EC52E4B0
:1012A0000E94D3369B01AC0160E070E080E89FE3D0
:1012B0000E94613620E030E04FE753E40E94483856
:1012C0000E944C3701C060E0962F623308F492E32D
:1012D0006E2D8F2D99830E94BE08D82E60E070E09D
:1012E0009981892F0E94E914472F282F8D2D90E096
:1012F0000E949E15E394FAE0EF12BBCFF39485E0D1
:10130000F8129ECF0F90DF91CF911F910F91FF9018
:10131000EF90DF90BF90AF9008952F923F924F9241
:101320005F926F927F928F929F92AF92BF92CF9275
:10133000DF92EF92FF920F931F93CF93DF9300D032
:1013400000D000D0CDB7DEB79C838B838B010E9489
:101350008C3965E070E00E9426393C010E948C398E
:101360006AE070E00E942639E0E0F0E0B12C7724DA
:1013700025E0E22EF12C3AE0332E4C0199244AE08C
:10138000C42ED12CCF01860D971DB7010E9426399E
:10139000389E2001399E500C1124400E511E282EDB
:1013A00020E030E0C901880D991DB6010E94263960
:1013B000A201480F591F5E834D83DA01AC90AB81C7
:1013C000BC811296BC91B983AB1649F06A2D70E0CE
:1013D000AAE0BA9FA00111246417750731F4AD810A
:1013E000BE811C92BB2029F016C0B11014C0A11000
:1013F00014C0AB81BC812C9211968C9311971396DB
:101400001C92139715961C921E92149712968C910B
:10141000AD81BE818C93BB24B3942F5F3F4F2A30A4
:10142000310509F0BFCF3196E530F10509F0AACFBB
:1014300026960FB6F894DEBF0FBECDBFDF91CF91D9
:101440001F910F91FF90EF90DF90CF90BF90AF90E2
:101450009F908F907F906F905F904F903F902F90D4
:1014600008958530A8F46A3098F4843021F49CEF14
:10147000960F923068F0FA019AE0899FE00DF11D15
:101480001124E60FF11D9081915081E0943008F411
:1014900080E008959F92AF92BF92CF92DF92EF9239
:1014A000FF920F931F93CF93DF93EC017B010E9478
:1014B0008C3964E070E00E9426398C0184E0C82EEB
:1014C000D12C94E0A92EB12C0115110519F49980A5
:1014D0009A9405C00130110559F499809394A7019D
:1014E000692D88810E94310A8823B1F099821FC03A
:1014F0000230110519F498809A9405C00330110543
:1015000059F498809394A7016981892D0E94310A2A
:10151000882311F098820BC0C8010196B5010E9482
:1015200026398C0181E0C81AD10871F680E0DF917C
:10153000CF911F910F91FF90EF90DF90CF90BF90D0
:10154000AF909F9008950F931F93CF93DF938C01DB
:10155000EB010E944A0A882389F0D8019C911296D7
:101560008C91FE01BAE09B9FE00DF11D1124D80182
:1015700011969C91E90FF11D80831CC081E0F80158
:10158000838315821482FE0195E0AF01465F5F4FB1
:101590008081D80112962C91821306C0880F282FC3
:1015A000220F220F820F80833196E417F50781F70F
:1015B000915059F7DF91CF911F910F910895262FE8
:1015C00060E0813011F46BE10BC0823011F46DE703
:1015D00007C0833011F460E503C0843009F467ED7F
:1015E0007FEF822F0E94E91408959F92AF92BF92DD
:1015F000CF92DF92EF92FF920F931F93CF93DF93DF
:1016000000D0CDB7DEB78B01882309F443C044E393
:1016100053E025E080E090E0FA01E80FF91F108226
:1016200001968A309105C1F72150465F5F4F211125
:10163000F1CF4FE1E42E43E0F42EA12CB12C56E083
:10164000D52ECC24C394DA9CF001DB9CF00D112440
:10165000E45EFC4FDF012D2D1D922A95E9F7F7017D
:10166000319781E08A0D8083D701CC9264E373E0E7
:10167000C70103970E948D09BFEFAB1ABB0AE6E0D2
:10168000EE0EF11CF4E0AF16B104E9F610921B0364
:1016900010921A0380911A0390911B03800F911FDF
:1016A000823C21E0920738F490931B0380931A0345
:1016B000EFE1F3E037C010921B0310921A033CE1F4
:1016C000E32E33E0F32E5701D12CD50113968C91E4
:1016D000811106C064E373E0C5010E94A30A09C03A
:1016E000813039F4F501848195818634954008F084
:1016F000D39426E0A20EB11C84E3A81683E0B806BA
:1017000021F794E0D912D4CF64E373E0C7010E94BB
:101710008D09A6E0EA0EF11CB4E3EB16B3E0FB067C
:1017200099F7C6CF8081813061F481819281800FE9
:10173000911F873425E0920710F086E495E09283AC
:101740008183369683E0E733F80761F784E3E82E78
:1017500083E0F82EA12C9AE0C92E26E0D22E00E0DC
:1017600010E0B02E94E0A91205C08CEF800F8230FB
:1017700008F45CC0F701E00FF11F8081882309F4B1
:1017800046C0853070F4282F30E021503109D29EB8
:10179000F001D39EF00D1124E45EFC4F6FEF8281C7
:1017A00030C06C2D0E94063990E00197D89EF00160
:1017B000D99EF00D1124E45EFC4F92806481758106
:1017C0006634A5E07A07D8F480E090E00E947B3789
:1017D00020E030EC48EA54E40E94D3369B01AC018F
:1017E00060E070E080E89FE30E94613620E030E036
:1017F0004FE753E40E9448380E944C3701C060E034
:10180000892D0E94DF0A962E472F282F03C020E043
:1018100040E0912C6B2D8A2D2A8349830E94BE08BB
:101820002A814981692D90E00E949E150F5F1F4F0C
:101830000A30110509F095CFA394BAE0EB0EF11C24
:10184000E5E0AE128CCF60911A0370911B0380E02B
:1018500090E00E947B3720E030E041EE53E40E94AC
:10186000D33620E030E04FE753E40E9448380E942E
:101870004C37D62E00E010E0C801845E9C4F7C01FE
:10188000DC0113968C911397811115C06D2D129662
:101890008C910E94DF0A962E282FF70161818081AA
:1018A0002A8379830E94BE082A817981472F692D76
:1018B00090E00E949E150A5F1F4F08311105E1F666
:1018C0000F900F90DF91CF911F910F91FF90EF90AC
:1018D000DF90CF90BF90AF909F900895AF92BF924E
:1018E000CF92DF92EF92FF920F931F93CF93DF93EC
:1018F000EC0181E00E94E11D80E98C9F70018D9FC9
:10190000F00C1124C0E0D0E000E010E0670182E0BC
:10191000C80ED11C57018FEFA81AB80AF601EC0FB8
:10192000FD1FEE53FE4F8491FE01EE0DFF1DEE53A1
:10193000FE4F6491F501EC0FFD1FEE53FE4F7491C5
:10194000882319F08091880401C080E00E94E91486
:10195000472F282FC8010E949E150F5F1F4F239607
:1019600000331105D9F6DF91CF911F910F91FF90B0
:10197000EF90DF90CF90BF90AF900895CF92DF921D
:10198000EF92FF92CF93C82F0E949D1C6B017C01A8
:1019900080918A0490918B040E94C62E9093190323
:1019A000809318030E94BA2E90938B0480938A042C
:1019B000209172033091730321153105D9F0223043
:1019C000310561F460911803709119038C2FCF9148
:1019D000FF90EF90DF90CF900C94F50A2130310505
:1019E00049F4C701B601CF91FF90EF90DF90CF90FF
:1019F0000C94FB08CF91FF90EF90DF90CF9008956B
:101A00008091740381116AC0609133047091340431
:101A100080913504909136040E94DC2C823009F4C8
:101A200050C030F4882369F0813009F447C008952C
:101A3000843009F44CC008F447C0853009F44AC02A
:101A4000089580E190E00E94A4396093850470932A
:101A50008604809387049093880480917203909108
:101A60007303892BE9F48091850486958F730E9416
:101A7000E11D80918504982F9E77923079F1881F1F
:101A80008827881F90918604292F220F97FB99277A
:101A900090F94091880460918704822B0C94071E72
:101AA00081E00E94E11D80917103882321F0109252
:101AB000710381E001C080E00C94BE0C81E090E0F5
:101AC0000BC082E090E008C083E090E005C084E0B5
:101AD00090E002C085E090E00C946E0C08956111D6
:101AE00008C0FC018281882321F088EA91E00E94ED
:101AF000C80E80E090E00895FC01E15FFC45E7300E
:101B0000F10508F0B4C0DB01E35AFF4F12969C9137
:101B10000C943A3991110E94A62D80E008959923E2
:101B2000E1F381E01DC09923C1F381E00E94D21D41
:101B30004FEF64E985EC90E009C0992371F381E0EF
:101B40000E94D21D4FEF69E787E890E00E94F01DE8
:101B5000E4CF992311F3109273031092720383E080
:101B60000E94D21DDACF9923C1F280E190E00E9459
:101B7000A4396093850470938604809387049093BE
:101B800088040E94292C82722091850490918604F9
:101B9000882371F0822F881F8827881F392F330FE1
:101BA000432F482B97FB552750F9485051090DC03A
:101BB000822F881F8827881F392F330F432F482BE8
:101BC00097FB552750F9485F5F4F40FB27F920935B
:101BD0008504842F86959078982B50FB97F99093E5
:101BE000860480918504482F441F4427441F909108
:101BF0008604592F550F252F242B97FB332730F9B7
:101C00002F3F310531F02CF08F77809385041092AF
:101C100086044091850450918604609187047091F8
:101C2000880480E190E00E94C23977CF992309F4BB
:101C300074CF809172039091730301969093730314
:101C40008093720381E0809371030E94BA2E909377
:101C50008B0480938A04809172039091730303979D
:101C600008F45BCF109273031092720356CF81E099
:101C70000895CF92DF92EF92FF926B017C010E9458
:101C8000DC2C56985E9825982D9826982E982798A3
:101C90002F9890E0FC013197E730F105A8F4EC595A
:101CA000FF4F0C943A39259A2D9A0EC0259A2D9AF9
:101CB000269A2E9A09C0259A2D9A04C0259A2D9A03
:101CC000269A2E9A279A2F9AC701B601FF90EF9075
:101CD000DF90CF90089581E008950C947C0DCF9310
:101CE000282F30E0F901EE5EF64FC491F901EE566F
:101CF000F64F2491222359F081EE0E9486228C2FE8
:101D00000E9486228C2F0E949D2381EE04C08C2F7E
:101D10000E9486228C2FCF910C949D230F931F93AA
:101D2000CF93DF93EC01062FFE018491882359F1B4
:101D30009E012F5F3F4F813041F4E901F901149179
:101D4000812F0E948622812F0DC0823031F4E9015B
:101D5000F90184910E9486220AC0833031F4E9019E
:101D6000F90184910E949D2302C00E946F0E21966A
:101D7000802F8823C9F2EFE9FFE03197F1F700C027
:101D800000008150F6CFDF91CF911F910F91089500
:101D900060E00C948E0E0E942C2D811102C00E94D6
:101DA000A62D0E946F1C0E9439140C942D080E94CD
:101DB000D11B80917503811102C00E9499158091F9
:101DC000750390E001966BE070E00E9426398093E5
:101DD00075030C94B206282F2F7041F0822F90E0EB
:101DE0002A3010F44D9608950697089587E290E002
:101DF000089508950C94F90E0C94FA0E08950E941B
:101E000073260E94FE0E2FEF84E39CE02150804059
:101E10009040E1F700C000000C94162FFF920F9342
:101E20001F93CF93DF938C01FC01C081D1818091FE
:101E3000C303811113C08281882349F0CE010E941F
:101E4000A92BF82E682FCE010E944C2B04C0CE0186
:101E50000E947C2BF82EBE018F2D04C0CE010E9463
:101E6000A92BBE010E94B111EC01B8010E946D0EB8
:101E7000882309F46EC2B801CE010E94B4148823ED
:101E800009F467C2CC3CFCE5DF0741F4F80182812C
:101E9000882309F45EC20E94B91D5BC2CD3C8CE56B
:101EA000D80708F01EC1C43C9CE5D90761F4F801CD
:101EB0008281882309F44DC20E94292C8272E1F4A8
:101EC0000E94CE1C46C2C53CECE5DE0708F0C7C048
:101ED000C531FCE5DF0798F0C23CFCE5DF0709F4FB
:101EE0008CC008F492C0F8018281882309F431C2C1
:101EF0000E94292C827221F70E94B41C2AC2C2308F
:101F00008CE5D80708F452C0F8018281882309F4CF
:101F100059C00E942C2D811102C00E94A62D0E9442
:101F20003F2D90E09093F9058093F805FE01E35072
:101F3000FC45E231F10530F4E559FF4F8091F80599
:101F40000C943A398091F805816027C0826025C0E1
:101F5000846023C0806121C080621FC080641DC076
:101F600080681BC08460886018C08E7F16C08D7F1B
:101F700014C08B7F12C08F7E10C08F7D0EC08F7BF0
:101F80000CC08F770AC08B7F877F07C087FB222713
:101F900020F991E0922790FB87F98093F8058091D2
:101FA000F8050E94432D0E947326D3C1C1159CE5FC
:101FB000D90781F0C130DC45A9F081E080937B0333
:101FC00080937C03C801DF91CF911F910F91FF9007
:101FD0000C946B0EF8018281882309F4BAC10E9427
:101FE000FF0EB7C1F8018281882309F4B2C1809144
:101FF0006004816080936004ACC1F8018281882311
:1020000009F4A7C10E94A61CA4C1C631DC45A9F6EB
:102010000E94292C282FF8018281409108015091BB
:102020000901882379F02A7A91E009F490E09093ED
:102030007603911102C069E201C065E3CA010E9402
:102040000D2E0AC080917603811102C069E201C0A1
:1020500065E3CA010E94182E0E94782C7AC1F8010B
:102060008281C83CFCE5DF0731F4882309F471C1A3
:102070000E945A1D6EC1C93C9CE5D907C8F4C63CF4
:10208000ECE5DE0731F4882309F463C10E94141DD6
:1020900060C1C73CDC4530F4882309F45AC10E9472
:1020A000E81C57C1882309F454C10E94441D51C142
:1020B000CA3C9CE5D90731F4882309F44AC10E943F
:1020C0008A1D47C1CB3CDC4530F4882309F441C16B
:1020D0000E94741D3EC1882309F43BC10E94A41DC7
:1020E00038C1C43DFCE5DF0791F4F8018281882303
:1020F00009F42FC10E94EB1D893128F00E94EB1DCD
:10210000823208F4F9CE89E10E94D21D22C1C53D78
:102110008CE5D80708F068C0F8018281C03DFCE575
:10212000DF0771F4882309F414C10E94EB1D893084
:1021300028F00E94EB1D8E3008F4DECE89E0E4CF5B
:10214000C13D9CE5D90740F5CE3CECE5DE0771F4D6
:10215000882309F4FEC00E94EB1D823028F00E9403
:10216000EB1D853008F4C8CE82E0CECFCF3CDC45F5
:1021700028F4882309F4EDC081E0C6CF882309F450
:10218000E8C00E94EB1D863028F00E94EB1D8830CD
:1021900008F4B2CE86E0B8CFC23D9CE5D90771F411
:1021A000882309F4D6C00E94EB1D853128F00E94D7
:1021B000EB1D873108F4A0CE85E1A6CFC33DDC45F9
:1021C00070F4882309F4C5C00E94EB1D8F3028F0FD
:1021D0000E94EB1D843108F48FCE8FE095CF8823C9
:1021E00009F4B7C088E190CFC93DFCE5DF0759F598
:1021F000F8018281882361F010927C030E94BA2E3C
:1022000090937A038093790380E20E940424A1C012
:1022100080917C03882321F080E20E940B2499C0E6
:102220008091790390917A030E94C62E883C910593
:1022300098F780E20E940B2488E20E94862288E2BE
:102240000E949D2386C0CA3D8CE5D80708F060C077
:10225000C73D9CE5D90761F5F8018281882351F0DB
:1022600010927B030E94BA2E909378038093770399
:1022700082E0CBCF0E94292C85FF05C081E08093AE
:102280007B0380937C0380917B0381110FC080913D
:102290007703909178030E94C62E883C910530F414
:1022A00086E20E94862286E20E949D2382E0B5CFCC
:1022B000C83DECE5DE0710F1F801828181119CCF69
:1022C0000E94292C81FF05C081E080937B038093CD
:1022D0007C0380917C0381119FCF80917903909141
:1022E0007A030E94C62E883C910508F095CF87E2BC
:1022F0000E94862287E20E949D238ECFC53DDC4549
:1023000009F05BCEF8018281882319F183E2FCCECB
:10231000CD3D8CE5D80741F4F80182818823C9F0CE
:1023200082E00E94983115C0CE3D9CE5D90739F472
:10233000F8018281882369F00E94A62D0AC0CC3D55
:10234000DC4509F03ACEF8018281882311F080E063
:10235000E8CF80E0DF91CF911F910F91FF9008951A
:10236000089596E0799FF001112494E5899FE00D8E
:10237000F11D1124E60FF11DEE0FFF1FEE5DFA4F68
:10238000859194910895880F991FFC01E254FE4FA6
:10239000859194910895CF93DF930E94B1110E948B
:1023A0008213EC01811520E59207F0F5811530E4E8
:1023B000930708F024C1883E910500F5803E910501
:1023C00008F09CC1883A910570F4853A910508F0AF
:1023D0009FC08130910509F491C108F442C104976E
:1023E00008F08CC13EC18F3B910508F49CC0803C35
:1023F000910508F436C1805C9109F4C0811540E272
:10240000940758F4C11581E0D80708F077C1C03FA0
:10241000D10508F426C1D06571C1811520E392076A
:1024200008F0E4C09F70DEC0811535E5930708F021
:1024300044C0811544E5940708F0F8C0C11582E551
:10244000D80708F5C11521E5D20708F0DBC08C2FAD
:10245000837021E030E002C0220F331F8A95E2F73B
:102460003C68CE0174E0969587957A95E1F7837084
:10247000382BCF70C695C69580E2C89FE001112425
:10248000C22BD32B3BC12C2F26952695CE018370D2
:102490009927C115D34508F0BAC040E2249F9001A6
:1024A0001124C1E0D0E002C0CC0FDD1F8A95E2F715
:1024B0002C2B3D2BE901DC6821C1811549E59407EE
:1024C000A0F4C11588E5D80708F0B5C0C11526E508
:1024D000D20708F0C6C08C2F0E94FF138F71C82F3F
:1024E000D0E0DC2FCC27D06209C181153AE59307F3
:1024F00008F4A6C090568115904208F0B2C08D2F06
:102500008F710E94FF13DD27D0628F71D82BF6C028
:10251000853A910509F4A8C0863A910509F0A7C04B
:10252000C2E8D0E4EBC0883A910509F4A3C0893A27
:10253000910509F4A2C08A3A910509F4A1C08B3A29
:10254000910509F4A0C08C3A910509F49FC08B3B1A
:10255000910509F49EC08C3B910509F49DC08D3A0C
:10256000910509F49CC0803B910509F49BC08E3A0B
:10257000910509F49AC08F3A910509F499C0813BFD
:10258000910509F498C0823B910509F497C0833BFB
:10259000910509F496C0843B910509F495C0853BEB
:1025A000910509F494C0863B910509F493C0873BDB
:1025B000910509F492C0883B910509F491C0893BCB
:1025C000910509F490C08D3B910509F48FC08E3BB5
:1025D000910509F48EC08A3B910509F48DC0C0E0D5
:1025E000D4E48CC00E94C311EC0188C09927D3FFAA
:1025F00003C0EC01D86C82C0EC01D06C7FC0DF70EE
:10260000D06A7CC0DC2FCC27C16FD06A77C040E293
:10261000249F90011124C1E0D0E002C0CC0FDD1F47
:102620008A95E2F7C22BD32BDA6868C0D82FCC2763
:10263000C46FD06A63C0DC2FCC27C06FD06A5EC085
:102640008F700E94FF1394E0D695C7959A95E1F795
:10265000CF70D0E0DC2FCC27D06A8F70806EC82B73
:102660004DC0C0E0D0E04AC0C1E8D0E447C0C3E8F4
:10267000D0E444C0C2EED4E441C0C9EED4E43EC0CC
:10268000CAEED4E43BC0C5EBD4E438C0C6EBD4E416
:1026900035C0C3EBD4E432C0C4EBD4E42FC0C7EBE5
:1026A000D4E42CC0CCECD4E429C0CDECD4E426C0D6
:1026B000C3E8D5E423C0CAE8D5E420C0C2E9D5E424
:1026C0001DC0C4E9D5E41AC0C1E2D6E417C0C3E214
:1026D000D6E414C0C4E2D6E411C0C5E2D6E40EC00C
:1026E000C6E2D6E40BC0C7E2D6E408C0CFE6D4E425
:1026F00005C0C0E7D4E402C0CAE2D6E4CE01DF914F
:10270000CF9108958238910549F1B0F48133910554
:1027100009F458C048F48932910509F44EC08A3250
:10272000910509F454C008958533910509F440C01A
:102730008933910599F00895833E910529F138F484
:10274000803E910591F0823E9105A1F00895863E6C
:102750009105F9F0873E910531F108952091F80532
:1027600020FD3AC021FD38C008958091F80580FD14
:1027700035C032C08091F80582FF32C08091F805E3
:1027800084FD30C083EE39C08091F80582FD28C0F9
:10279000F5CF8091F80583FF27C08091F80584FD6F
:1027A00021C087EE2AC08091F80583FD1DC0F5CFBA
:1027B0008091F80585FD1AC01BC08091F80585FD44
:1027C00017C014C08091F80586FD14C015C0809113
:1027D000F80586FD11C00EC080EE0FC089E30DC064
:1027E00082EE0BC080E009C086EE07C089E205C01A
:1027F00085E303C08AE201C081E390E008959091EF
:10280000F80592FF0DC0282F2871283019F4877F12
:10281000846006C0282F2471243011F48B7F8860D7
:1028200093FF0DC0282F2871283119F4877E846109
:1028300006C0282F2471243111F48B7E886194FD09
:10284000877E0895CF93DF93813020E8920768F068
:10285000FB012281222349F0EC010E944F14CE019A
:102860009F770E9497140E94841481E0DF91CF919A
:1028700008958CE090E00E949C3990E0A0E0B0E0E8
:1028800080938C0490938D04A0938E04B0938F0456
:10289000089560918C048CE090E00C94B0390E9413
:1028A000292C80937D030E943C2C80918C048130E4
:1028B00071F048F08230D9F08430F9F486EE0E944D
:1028C000FC2388E118C082EE0E94862216C080EEAA
:1028D0000E94862281EE0E94862288E10E94FC23CB
:1028E00081EE0E949D2380EE0E949D2306C082EE11
:1028F0000E94862287E50E94FC238FE39CE90197D2
:10290000F1F700C00000089580918C04813021F01F
:1029100038F0823029F007C08CE20E94FC2303C00B
:1029200082EE0E949D2380917D030C94392C0F939D
:102930001F93CF93DF938C01CCE0D0E0C8010C2E25
:1029400002C0969587950A94E2F78F700E94EB0E6D
:102950000E94FC232497CC3F8FEFD80779F7DF91B3
:10296000CF911F910F9108950F931F93CF93DF93F2
:10297000EC018B01FB018281882319F1C33EFCE548
:10298000DF07C1F050F4C13EECE5DE0781F0C23E46
:10299000FCE5DF07B1F481E010C0C43E8CE5D80748
:1029A00059F0C53EECE5DE0761F484E006C0109204
:1029B0008C0405C082E001C083E080938C040E94F7
:1029C0004914B801CE01DF91CF911F910F910C9462
:1029D0002214CF92DF92EF92FF920F931F93CF9327
:1029E000DF93E82FF82F711103C0682F782F7EC076
:1029F000062F10E0C72FD0E0E82EF12CC8016BE2C3
:102A000070E00E9412399B0145ED4203B001439FE3
:102A1000700D1124060F171F86E0809FB001819F63
:102A2000700D11244FEF50E0CA018C1B9D0B8E9D41
:102A3000D0018F9DB00D9E9DB00D11248B2F6C9FEA
:102A400080016D9F100D7C9F100D1124012F112707
:102A50006A01C01AD10ACE9C8001CF9C100DDE9C69
:102A6000100D11246A01C61AD70ACC9EB001CD9E62
:102A7000700DDC9E700D1124672F7727461B570BB6
:102A80004E9DE0014F9DD00D5E9DD00D11247D2FF8
:102A90002230310599F04CF421153105C9F021306F
:102AA0003105A1F47E2FE12F13C02330310551F001
:102AB0002430310559F4ED2F7B2F06C0EB2F8D2FDD
:102AC0007F2F06C0712FEB2F8F2F02C07B2F812FFE
:102AD000F0E0EE5EF54F6491E72FF0E0EE5EF54F2B
:102AE0007491E82FF0E0EE5EF54F8491DF91CF9185
:102AF0001F910F91FF90EF90DF90CF90089580E1AC
:102B000090E00C94A439AB01BC0180E190E00C94FE
:102B1000C239E5E8F4E08DE08083109286048FEFFF
:102B200082838383148260817181828193810C947A
:102B30008315E091A302F091A4020994E0919F0211
:102B4000F091A0020994E091A102F091A2020994EF
:102B500040E060E080E00C94A315E5E8F4E06081DB
:102B6000862F881F8827881F60918604660F682B30
:102B7000728183810E94E914962F672F482F892F35
:102B80000C94A315DF92EF92FF920F931F93CF93B4
:102B9000DF9380918504881F8827881F9091860481
:102BA000492F440F242F282B97FB332730F9C901D5
:102BB0008C549F4F68E671E00E942639821B930B6C
:102BC0008038910514F09A9505C081384FEF94072D
:102BD0000CF4939597FD0396959587959595879514
:102BE000C82F80918704281B310937FF02C02D5F51
:102BF0003F4F3595279535952795D22FD09088044E
:102C000097E1E92E91E0F92E00E010E0F701208134
:102C100022952F7060918504962F991F9927991FEF
:102C200060918604660F692B2C9F600D11247091B2
:102C300087042D9F700D11248D2D0E94E914472FBC
:102C4000282FC8010E949E150F5F1F4FF4E0EF0E62
:102C5000F11C00331105D1F6DF91CF911F910F9137
:102C6000FF90EF90DF900895AF92BF92CF92DF92E6
:102C7000EF92FF920F931F93CF93DF931F92CDB7E5
:102C8000DEB7D82E20918504221F2227221F809193
:102C90008604982F990FB22EB92A87FB882780F9CE
:102CA000EB2DF82FCF018C549F4F68E671E00E9406
:102CB00026399C012E1B3F0B37FF02C02D5F3F4F73
:102CC0003595279535952795A22EC09087040091BC
:102CD000840310918503209186033091870390919E
:102CE0008904992359F0692F70E08AE090E00E94EE
:102CF0002639CB01770FAA0BBB0B04C08AE090E00A
:102D0000A0E0B0E080239123A223B323892B8A2B58
:102D10008B2B41F40E948C3960E370E00E942639CD
:102D2000082F01C00FEFE12CF12C10E0D11003C0EF
:102D3000E016F106A9F40E948C3983706B2D8A9DF0
:102D4000600D112469830E948C3969817C2D8091EA
:102D500088040E94E914472F282FC7010E949E155E
:102D60008FEFE81AF80A80E3E816F104F9F60F90FD
:102D7000DF91CF911F910F91FF90EF90DF90CF9057
:102D8000BF90AF900895CF92DF92EF92FF921F9382
:102D9000CF93DF938091840390918503A091860364
:102DA000B09187030090890404C0880F991FAA1F5F
:102DB000BB1F0A94D2F7182F85E1C82E81E0D82EC8
:102DC000C0E0D0E09FE3E92EF12CF60180818F3F37
:102DD000E1F0FE01E057FB4F8081F4E08F9FC001DE
:102DE00011248034910524F4B701681B790B02C0CB
:102DF00060E070E0610F7FEF809188040E94E91429
:102E0000472F282FCE010E949E15219624E0C20E46
:102E1000D11CC033D105C9F6DF91CF911F91FF902E
:102E2000EF90DF90CF900895CF92DF92EF92FF92D4
:102E30000F931F93CF93DF93809184039091850329
:102E4000A0918603B09187030090890404C0880F85
:102E5000991FAA1FBB1F0A94D2F7D82EC0908804CE
:102E600005E111E0C0E0D0E08FE3E82EF12CF8019D
:102E700080818F3FF9F0FE01E057FB4F2081F4E0A5
:102E80002F9F90011124203431052CF4C701821B9F
:102E9000930B9C0102C020E030E0F80161816D0DD0
:102EA000620F7FEF8C2D0E94E914472F282FCE014F
:102EB0000E949E1521960C5F1F4FC033D105B9F6B5
:102EC000DF91CF911F910F91FF90EF90DF90CF9006
:102ED0000895CF92DF92EF92FF920F931F93CF93BB
:102EE000DF938091840390918503A0918603B09134
:102EF00087030090890404C0880F991FAA1FBB1F75
:102F00000A94D2F7D82EC090880405E111E0C0E001
:102F1000D0E08FE3E82EF12CF80180818F3FF9F0AB
:102F2000FE01E057FB4F2081F4E02F9F9001112418
:102F3000203431052CF4C701821B930B9C0102C085
:102F400020E030E0F80162816D0D620F7FEF8C2D83
:102F50000E94E914472F282FCE010E949E1521962A
:102F60000C5F1F4FC033D105B9F6DF91CF911F9190
:102F70000F91FF90EF90DF90CF9008952F923F92A6
:102F80004F925F926F927F928F929F92AF92BF9279
:102F9000CF92DF92EF92FF920F931F93CF93DF9325
:102FA0003090870420908804609184037091850399
:102FB00080918603909187030E947B372BED3FE041
:102FC00049E450E40E94483820E030E040E05CE30F
:102FD0000E9448386B017C010E94CE3620E030E030
:102FE00040E05DE30E9448382B013C01C701B60177
:102FF0000E94B53820E030E040EE52E40E94D33623
:103000004B015C01C7E1D1E000E010E0688170E0B5
:1030100080E090E00E947D3720E030E040E052E424
:103020000E946136A30192010E9448386B017C0125
:10303000FE013197608170E080E090E00E947D3772
:1030400020E030E040EE52E40E946136A501940198
:103050000E9448389B01AC01C701B6010E9462364C
:1030600020E030E044E353E40E9448386B017C01E7
:1030700080918504881F8827881F90918604292FB6
:10308000220F622F682B97FB772770F9072E000C11
:10309000880B990B0E947D379B01AC01C701B601DB
:1030A0000E9462360E944C37732D822D0E94E914D3
:1030B000472F282FC8010E949E150F5F1F4F24968F
:1030C0000033110509F0A2CFDF91CF911F910F912D
:1030D000FF90EF90DF90CF90BF90AF909F908F9038
:1030E0007F906F905F904F903F902F9008952F9218
:1030F0003F924F925F926F927F928F929F92AF9288
:10310000BF92CF92DF92EF92FF920F931F93CF93D4
:10311000DF93CDB7DEB728970FB6F894DEBF0FBEAA
:10312000CDBF809187048D83909188049E836091A8
:1031300084037091850380918603909187030E9498
:103140007B372BED3FE049E450E40E94483820E013
:1031500030E040E05CE30E9448386B017C010E9453
:10316000CE362B013C01C701B6010E94B5386983F8
:103170007A838B839C83E7E1F1E0F887EF8300E0BB
:1031800010E0EF81F88531972080EF81F885B080DD
:1031900030908904332079F0632D70E080E090E076
:1031A0000E947D3720E030E040EC5FE30E94483829
:1031B0006B017C0106C0C12CD12C90ECE92E9FE361
:1031C000F92E6B2D70E080E090E00E947D3720E0CA
:1031D00030E040E052E40E9461369B01AC01C7013F
:1031E000B6010E944838A30192010E9448384B0161
:1031F0005C01332079F0632D70E080E090E00E9464
:103200007D3720E030E040EC5FE30E9448386B01FE
:103210007C0106C0C12CD12C80ECE82E8FE3F82E67
:10322000622D70E080E090E00E947D3720E030E089
:1032300040EE52E40E9461369B01AC01C701B60129
:103240000E94483829813A814B815C810E9448382C
:103250009B01AC01C501B4010E9462366B017C0187
:1032600080918504881F8827881F90918604292FC4
:10327000220F622F682B97FB772770F9072E000C1F
:10328000880B990B0E947D379B01AC01C701B601E9
:103290000E9462360E944C377D818E810E94E91423
:1032A000472F282FC8010E949E150F5F1F4F8F8147
:1032B0009885049698878F830033110509F061CFB4
:1032C00028960FB6F894DEBF0FBECDBFDF91CF9129
:1032D0001F910F91FF90EF90DF90CF90BF90AF9034
:1032E0009F908F907F906F905F904F903F902F9026
:1032F00008952F923F924F925F926F927F928F929A
:103300009F92AF92BF92CF92DF92EF92FF920F9374
:103310001F93CF93DF9300D000D01F92CDB7DEB7BD
:10332000209187042A83809188048B836091840391
:103330007091850380918603909187030E947B376B
:103340002BED3FE049E450E40E94483820E030E0B3
:1033500040E05CE30E9448386B017C010E94CE365D
:103360002B013C01C701B6010E94B5384B015C013D
:10337000A7E1B1E0BD83AC8300E010E0EC81FD810A
:103380003197B081B983EC81FD8130802090890430
:10339000222069F0622D70E0660F771F072E000C67
:1033A000880B990B0E947D376B017C0105C0C12CF5
:1033B000D12CE12C20E4F22E632D70E080E090E02F
:1033C0000E947D3720E030E040E052E40E94613608
:1033D0009B01AC01C701B6010E944838A3019201CC
:1033E0000E9448386B017C01222021F0312C220CF4
:1033F000331C03C082E0282E312CF9816F2F70E03E
:1034000080E090E00E947D3720E030E040EE52E422
:103410000E9461360E9445379B0177FF04C0222736
:103420003327261B370B82E490E0821B930B289EE8
:10343000B001299E700D389E700D1124072E000CCE
:10344000880B990B0E947D37A50194010E94483892
:103450009B01AC01C701B6010E9462366B017C0181
:1034600080918504881F8827881F90918604292FC2
:10347000220F622F682B97FB772770F9072E000C1D
:10348000880B990B0E947D379B01AC01C701B601E7
:103490000E9462360E944C377A818B810E94E91427
:1034A000472F282FC8010E949E150F5F1F4F8C8148
:1034B0009D8104969D838C830033110509F05ECFB6
:1034C0000F900F900F900F900F90DF91CF911F9161
:1034D0000F91FF90EF90DF90CF90BF90AF909F90B3
:1034E0008F907F906F905F904F903F902F900895B6
:1034F0002F923F924F925F926F927F928F929F9204
:10350000AF92BF92CF92DF92EF92FF920F931F93F1
:10351000CF93DF9300D01F92CDB7DEB72090870402
:1035200080918804898360918403709185038091E0
:103530008603909187030E947B3720E030E040E8CB
:103540005BE30E94483820E030E040E653E40E940C
:1035500048382B013C01E7E1F1E0FB83EA8300E01E
:1035600010E0EA81FB8131973080EA81FB81E080C5
:10357000F0908904FF2079F06F2D70E080E090E0FA
:103580000E947D3720E030E040EC5FE30E94483845
:103590004B015C0106C0812C912C90ECA92E9FE37D
:1035A000B92E6E2D70E080E090E00E947D3720E023
:1035B00030E040E052E40E9461360E9445379B01B2
:1035C00077FF04C022273327261B370BB901330F9F
:1035D000880B990B0E947D379B01AC01C501B4019A
:1035E0000E9448382EE23DEB4BEB53EB0E944838EB
:1035F0004B015C01FF2079F06F2D70E080E090E0DE
:103600000E947D3720E030E040EC5FE30E944838C4
:103610006B017C0106C0C12CD12C80ECE82E8FE31D
:10362000F82E632D70E080E090E00E947D37A301CA
:1036300092010E9461369B01AC01C701B6010E9454
:1036400048389B01AC01C501B4010E9461366B0191
:103650007C0180918504881F8827881F90918604AB
:10366000292F220F622F682B97FB772770F9072EDF
:10367000000C880B990B0E947D379B01AC01C701A0
:10368000B6010E9462360E944C37722D89810E94D9
:10369000E914472F282FC8010E949E150F5F1F4F66
:1036A0008A819B8104969B838A830033110509F0EC
:1036B00058CF0F900F900F90DF91CF911F910F91E6
:1036C000FF90EF90DF90CF90BF90AF909F908F9042
:1036D0007F906F905F904F903F902F900895CF9282
:1036E000DF92FF920F931F93CF93DF931F92CDB77B
:1036F000DEB7F82E00918403109185032091860394
:103700003091870390918904992359F0692F70E0D3
:103710008AE090E00E942639AB01770F660B770BA9
:1037200004C04AE050E060E070E04023512362238F
:103730007323452B462B472B39F40E948C3960E3C9
:1037400070E00E94263901C08FEF00E010E0C82E23
:10375000D12CF11003C00C151D0581F40E948C3989
:1037600089830E948C39782F6981809188040E9416
:10377000E914472F282FC8010E949E150F5F1F4F85
:103780000033110531F70F90DF91CF911F910F9109
:10379000FF90DF90CF90089508950E94CC1B0C9469
:1037A000000D4091850440FD0AC00E94A8150E94AA
:1037B000CD1B8091850481708093070108958091CD
:1037C0007E03843120F48F5F80937E03089580917F
:1037D000840390918503A0918603B091870301969D
:1037E000A11DB11D8093840390938503A09386034C
:1037F000B09387038091800390918103A09182030D
:10380000B09183038F3F2FEF9207A207B20759F0C1
:103810000196A11DB11D8093800390938103A09315
:103820008203B093830380917F03E0E9F4E0908109
:103830009F3F61F09E3F41F4282F30E02230310558
:1038400014F0815001C080E09F5F9083319694E036
:10385000E03CF90761F780937F03E42FE695EF736F
:1038600080910601E81307C081E090910701913033
:1038700019F480E001C081E08170E093060191E0DD
:10388000909307014E2F50E0FA013197EB30F1058C
:1038900020F5E358FF4F0C943A390E94AD151DC036
:1038A0000E94BE171AC00E94C21517C00E9434168B
:1038B00014C00E94C31611C00E9414170EC00E94AB
:1038C00069170BC00E94771808C00E94791905C0BB
:1038D0000E94781A02C00E946F1B0C94CD1BE091CD
:1038E0009D02F0919E020995E0E9F4E08FEF81934B
:1038F00094E0E03CF907D9F70E942C2D811104C017
:103900000E94A62D0E9489150E947F156093850450
:103910007093860480938704909388046E7761F493
:103920000E9489150E947F15609385047093860418
:103930008093870490938804089560918403709124
:10394000850380918603909187030895E5E8F4E06C
:103950008081982F909590FB80F9808360817181A0
:10396000828193810C94831590918504892F86958B
:103970008F5F8F7391788C3018F4880F892B02C079
:10398000892F8260809385046091850470918604FC
:1039900080918704909188040C94831590918504FC
:1039A000892F8695815C8F739178882319F0880F11
:1039B000892B02C0892F86618093850460918504DC
:1039C0007091860480918704909188040C948315EB
:1039D00080918504982F991F9927991F80918604BB
:1039E000880F892B90E008968F3F910519F014F00D
:1039F0008FEF90E02091850480FB27F920938504C8
:103A0000282F2695809186048078822B90FB87F959
:103A10008093860460918504709186048091870468
:103A2000909188040C94831580918504982F991F98
:103A30009927991F80918604880F892B90E0089719
:103A400097FF02C080E090E08F3F910519F014F0DD
:103A50008FEF90E02091850480FB27F92093850467
:103A6000282F2695809186048078822B90FB87F9F9
:103A70008093860460918504709186048091870408
:103A8000909188040C9483158091870490E00896A7
:103A90008F3F910519F014F08FEF90E08093870429
:103AA00060918504709186048091870490918804C8
:103AB0000C9483158091870490E0089797FF02C0CB
:103AC00080E090E08F3F910519F014F08FEF90E0C7
:103AD00080938704609185047091860480918704A7
:103AE000909188040C9483158091880490E0089646
:103AF0008F3F910519F014F08FEF90E080938804C8
:103B00006091850470918604809187049091880467
:103B10000C9483158091880490E0089797FF02C069
:103B200080E090E08F3F910519F014F08FEF90E066
:103B30008093880460918504709186048091870445
:103B4000909188040C9483158091890490E00196EB
:103B50008430910514F083E090E0809389046091B3
:103B600085047091860480918704909188040C9458
:103B700083158091890490E0019797FF02C080E04F
:103B800090E08430910514F083E090E08093890404
:103B900060918504709186048091870490918804D7
:103BA0000C948315E5E8F4E08F73982F990F8081CA
:103BB0008178892B808360817181828193810C94CB
:103BC0008315E5E8F4E08F73982F990F8081817851
:103BD000892B808308958091850486958F7308953D
:103BE000E5E8F4E0208180FB27F92083A6E8B4E033
:103BF00086952C912078822B90FB87F98C93628399
:103C0000438360817181828193810C948315E5E8FF
:103C1000F4E0208180FB27F92083A6E8B4E08695B4
:103C20002C912078822B90FB87F98C9362834383BD
:103C3000089567E784E70C94EE1FCF930E942D2030
:103C400084E70E94731E87E70E94731EC0E021E094
:103C500041E061E08C2F0E94051FCF5FC033B9F7B0
:103C600067E784E7CF910C940120E0EEF5E06083F4
:103C7000418324E630E042E050E0BF01880F0C941D
:103C80000321EF92FF921F93CF93DF937B01182FB5
:103C9000110FC0E0D0E08C2F8C5D8093E00520E018
:103CA00030E0F901EC0FFD1FEE0DFF1D8081F901E1
:103CB000E052FA4F81832F5F3F4F2031310589F762
:103CC00024E630E041E150E060EE75E0812F0E9493
:103CD00003216096C039D105F1F6DF91CF911F9194
:103CE000FF90EF900895CF93DF93C82F4BE06DEFD7
:103CF0000E94351E40E06AE08C2F0E94351E8FE343
:103D00009CE90197F1F700C0000040E060E08C2FD3
:103D10000E94351E40E061E08C2F0E94351E40E07D
:103D200066E08C2F0E94351E40E06DEF8C2F0E94C4
:103D3000351ED0E040E06D2F8C2F0E94351EDF5FD6
:103D4000D231C1F740E06D2F8C2F0E94351EDF5F0E
:103D5000D432C1F740E06D2F8C2F0E94351EDF5FFB
:103D6000D43BC1F74BE06DEF8C2F0E94351E41E034
:103D70006AE08C2F0E94351E40E06DEF8C2FDF91A2
:103D8000CF910C94351E8033910520F5880F991F33
:103D9000880F991FFC01EB52FE4F528133818081C5
:103DA00083707181E0E98E9FC001112480549B4F84
:103DB000FC01E70FF11DB4976083FC01E50FF11DD5
:103DC000B4974083830F911DFC01B497208381E059
:103DD0008093AD030895FF920F931F93CF93DF93CA
:103DE000182F062FF42EC0E0D0E02F2D402F612F8A
:103DF000CE010E94C31E2196C033D105B1F7DF91D9
:103E0000CF911F910F91FF9008954F925F927F92F3
:103E10008F929F92AF92BF92CF92DF92EF92FF92DA
:103E20000F931F93CF93DF93362F54E0859FC001EC
:103E30001124FC01EB52FE4FA081A3707A2E618108
:103E400070E0CB0184978C0197FF02C0095F1F4F80
:103E5000A3E015950795AA95E1F7628170E07B01D3
:103E600054E2E51AF108E701F7FC279673E0D595CF
:103E7000C7957A95E1F7638170E04B01E4E28E1A11
:103E80009108F40197FC37962F0153E0559447941D
:103E90005A95E1F768E0A62EB12CB5010E942639AB
:103EA0006C01C701B5010E9426397C01C401B5012E
:103EB0000E942639A72DB0E01127DD243323A1F07D
:103EC00032E13A9FB0013B9F700D1124060F171F7E
:103ED00007571C4F61E070E001C0660FCA94EAF713
:103EE000F8013081632B14C032E13A9FB0013B9F4F
:103EF000700D1124060F171F07571C4F61E070E06B
:103F000001C0660FCA94EAF76095F8013081632317
:103F10006083DD27FF2432E1442391F03A9FA00122
:103F20003B9F500D1124C40FD51FC757DC4F41E0F4
:103F300050E001C0440FEA94EAF73881432B12C0E5
:103F40003A9FA0013B9F500D1124C40FD51FC757A6
:103F5000DC4F41E050E001C0440FEA94EAF740959D
:103F6000388143234883A2015527992792E19A9FDC
:103F7000F0019B9FF00D1124E40FF51FE757FC4F54
:103F8000222361F021E030E0A90102C0440F551F57
:103F90008A95E2F7CA019081892B0CC021E030E0BC
:103FA000A90102C0440F551F8A95E2F7CA01809506
:103FB00090818923808381E080938803DF91CF9172
:103FC0001F910F91FF90EF90DF90CF90BF90AF9037
:103FD0009F908F907F905F904F900895CF93909196
:103FE000AD03992351F0C62F60EC74E00E94411E8E
:103FF00060E575E08C2F0E94411E1092AD03CF91B9
:104000000895EF92FF920F931F93CF93DF939091B8
:1040100088039923D9F0162F082F89E8E82E83E02A
:10402000F82EC0E0D0E0F70141917F016C2F802F86
:104030000E94351EFE01E757FC4F42896C2F812FED
:104040000E94351E2196C231D10569F7DF91CF91CB
:104050001F910F91FF90EF9008951092B9008CE09E
:104060008093B8000895EF92FF920F931F93CF9320
:10407000DF93182FEB011092BC0084EA8093BC0000
:104080000E94BA2E7C019091BC0097FD0EC0CF3FDC
:104090008FEFD807C1F30E94BA2E8E199F098C1793
:1040A0009D0788F38EEF9FEF2EC09091B900987F07
:1040B000983041F09091B900987F903119F08FEFCE
:1040C0009FEF21C01093BB0084E88093BC000E9446
:1040D000BA2E8C019091BC0097FD0CC0CF3F8FEFA2
:1040E000D807C1F30E94BA2E801B910B8C179D0735
:1040F00088F3D8CF8091B900887F883111F080345F
:10410000F1F680E090E0DF91CF911F910F91FF9049
:10411000EF9008950F931F93CF93DF93EB0180935C
:10412000BB0084E88093BC000E94BA2E8C01909161
:10413000BC0097FD0EC0CF3F8FEFD807C1F30E94A0
:10414000BA2E801B910B8C179D0788F38EEF9FEF83
:104150000CC02091B900287F81E090E0283211F452
:1041600080E090E0919581959109DF91CF911F9129
:104170000F9108950F931F93CF93DF93EC0184E881
:104180008093BC000E94BA2E8C019091BC0097FDD8
:104190000EC0CF3F8FEFD807C1F30E94BA2E801B0D
:1041A000910B8C179D0788F38EEF9FEF03C08091D2
:1041B000BB0090E0DF91CF911F910F9108950F9375
:1041C0001F93CF93DF93EC0184E98093BC000E949E
:1041D000BA2E8C019091BC0094FF0EC0CF3F8FEFA0
:1041E000D807C1F30E94BA2E801B910B8C179D0734
:1041F00088F38EEF9FEF02C080E090E0DF91CF91D7
:104200001F910F910895CF92DF92EF92FF920F933B
:104210001F93CF93DF936B017A018901B9010E944B
:104220003320FC01892BC9F4E601EC0CFD1CCE15F2
:10423000DF0541F0B80189910E948A20FC01892B99
:10424000B1F30BC0C801DF91CF911F910F91FF9087
:10425000EF90DF90CF900C94DF20CF01DF91CF91D2
:104260001F910F91FF90EF90DF90CF900895909362
:10427000B3038093B2030895E091B203F091B303C6
:10428000309721F00190F081E02D099480E00895AD
:10429000E091B203F091B303309799F020911401AB
:1042A000222359F02091F80527FF07C0DC012C914B
:1042B00011962C93119725E02C930280F381E02D29
:1042C000099408952091B0033091B10382179307A8
:1042D00071F09093B1038093B003E091B203F09139
:1042E000B303309721F00680F781E02D09940895FB
:1042F0002091AE033091AF038217930771F0909332
:10430000AF038093AE03E091B203F091B303309713
:1043100021F00084F185E02D0994089585B7806827
:1043200085BF85B7806885BF0895089508950C946A
:10433000962108950C9499210E948E210E94952126
:104340000C94972181E008950E94B12E0E94B4063A
:104350000E94482F0C949A21CF92DF92EF92FF9205
:104360000F931F93CF93DF93CDB7DEB72B970FB685
:10437000F894DEBF0FBECDBF0E9486070E94A22127
:10438000811111C08FEF89838A831B820E94BA2E0C
:104390008160782F9D838C8349815A816B818D81C7
:1043A0000E94522256C085EBC82E83E0D82E00E032
:1043B00010E0E02E802F0E94CE07F60141916F01A0
:1043C000F42EF82631F40F5F1F4F0E30110589F7D8
:1043D000D9CF9091600491FF04C08B870E94D407CD
:1043E0008B8520E030E04F2D50E0922FBA01022E55
:1043F00002C0759567950A94E2F760FF24C02E838A
:10440000EF8221E030E0690102C0CC0CDD1C9A95FE
:10441000E2F790E08C219D21892B09F420E0288788
:104420000E94BA2E8160782F9A8789874E815F819A
:1044300068858A850E945222F801EB54FC4F8081E6
:10444000C826C08206C02F5F3F4F2630310569F66F
:10445000BACF1091B4030E943C211817A1F00E941A
:104460003C218093B4032B960FB6F894DEBF0FBEA9
:10447000CDBFDF91CF911F910F91FF90EF90DF9013
:10448000CF900C94FC0E2B960FB6F894DEBF0FBEA7
:10449000CDBFDF91CF911F910F91FF90EF90DF90F3
:1044A000CF900895CF93DF93CDB7DEB72B970FB69C
:1044B000F894DEBF0FBECDBF4F83588769877A87D8
:1044C0008B87DE01119686E0FD0111928A95E9F74E
:1044D00085E0FE01379601900D928A95E1F74981BA
:1044E0005A816B817C818D819E810E941D292B9632
:1044F0000FB6F894DEBF0FBECDBFDF91CF91089508
:10450000FC01808191810E94EA2B0895882309F49F
:1045100013C1682F8238C1F40E943C2181FD0CC177
:1045200069E380910801909109010E940D2E0E947B
:10453000782C2FEF81EE94E0215080409040E1F7FD
:1045400000C0000069E319C08338F9F40E943C21DF
:1045500080FDF2C063E580910801909109010E94FD
:104560000D2E0E94782C2FEF81EE94E02150804098
:104570009040E1F700C0000063E580910801909150
:1045800009010E94182E0C94782C8438C1F40E94E2
:104590003C2182FDD1C067E480910801909109011E
:1045A0000E940D2E0E94782C2FEF81EE94E0215076
:1045B00080409040E1F700C0000067E4DECF8CEF60
:1045C000860F813A38F480910801909109010E9488
:1045D0000D2ED9CF80E2860F883048F4677081E0D5
:1045E00001C0880F6A95EAF70E942C2CCCCF8BE58E
:1045F000860F833070F4653A29F0663A31F083E82B
:1046000090E005C081E890E002C082E890E00C9460
:10461000622188E5860F873108F08EC0683A09F478
:1046200045C0693A09F445C06A3A09F445C06B3A95
:1046300009F445C06C3A09F445C06B3B09F445C028
:104640006C3B09F445C06D3A09F445C0603B09F480
:1046500045C06E3A09F445C06F3A09F445C0613B64
:1046600009F445C0623B09F445C0633B09F445C009
:10467000643B09F445C0653B09F445C0663B09F459
:1046800045C0673B09F445C0683B09F445C0693B38
:1046900009F445C06D3B09F445C06E3B09F445C0C3
:1046A0006A3B09F445C080E090E044C082EE90E0AF
:1046B00041C089EE90E03EC08AEE90E03BC085EBC1
:1046C00090E038C086EB90E035C083EB90E032C0DC
:1046D00084EB90E02FC087EB90E02CC08CEC90E056
:1046E00029C08DEC90E026C083E891E023C08AE8E1
:1046F00091E020C082E991E01DC084E991E01AC0F8
:1047000081E292E017C083E292E014C084E292E07A
:1047100011C085E292E00EC086E292E00BC087E213
:1047200092E008C08FE690E005C080E790E002C00C
:104730008AE292E00C9478210895882309F45BC002
:10474000682F823879F40E943C2181FF54C069E3CC
:1047500080910801909109010E940D2E0E94782CF1
:1047600069E310C08338B1F40E943C2180FF43C04C
:1047700063E580910801909109010E940D2E0E942D
:10478000782C63E580910801909109010E94182E10
:104790000C94782C843879F40E943C2182FF2BC041
:1047A00067E480910801909109010E940D2E0E94FA
:1047B000782C67E4E7CF8CEF860F813A18F380E21C
:1047C000860F883048F4677081E001C0880F6A95D1
:1047D000EAF70E94322CDCCF8BE5860F833020F481
:1047E00080E090E00C946221685A673120F480E008
:1047F00090E00C9478210895CF93C82F0E948622D0
:104800008C2FCF910C949D23882321F00E942C2C77
:104810000C94782C0895882321F00E94322C0C945B
:10482000782C08958F929F92AF92BF92DF92EF9271
:10483000FF920F931F93CF93DF937C01D62FC72F47
:10484000FC01058102950F70128111110E944C2C00
:104850000E94222C882379F0112369F080E28D0FC9
:10486000883048F082E00E94C32C0E94222C91E004
:10487000D82ED92601C0D12CAC2EA2948FE0A8222C
:10488000B12CF501E857FF4F0C943A398C2F807FFB
:10489000CF70882311F0C295C07F112399F0CC23EB
:1048A00009F485C180E28D0F883010F0D11104C069
:1048B0008C2F0E942C2C03C08C2F0E943F2C0E9416
:1048C000782C75C18D2F0E949D23CC2309F494C1AF
:1048D00080E28D0F883010F0D11104C08C2F0E941F
:1048E000322C03C08C2F0E94452C0E94782C84C14E
:1048F0008C2F807FCF70803211F0C295C07FDD2376
:1049000019F0D130C9F021C0112371F0002341F01A
:10491000013031F40E945F2C8C2B0E94652C6CC1FD
:104920000E945F2C8C2BFDC0002319F0013009F48C
:1049300063C10E946E2C11C0112321F0023008F0D7
:104940005BC107C0011158C108C0112321F001113A
:104950002EC18C2FE6C001113BC18C2FE8C08C2FDB
:1049600086958695837090E0009719F0019761F025
:1049700043C1112321F08D2F9C2F937002C080E042
:1049800090E00E94622148C1112321F08D2F9C2FBD
:10499000937002C080E090E00E9478213DC18C2F8E
:1049A000837009F050C0111133C18D2F8295869507
:1049B0008770880F880F9D2F9F70892E912CA12CB6
:1049C000B12C082E04C0880C991CAA1CBB1C0A948C
:1049D000D2F7D4FF14C00FE010E020E030E0B901BE
:1049E000A80104C0440F551F661F771F8A95D2F790
:1049F000CB01BA01609570958095909503C060E0F9
:104A000070E0CB01C695C695C370D0E0C230D10529
:104A100061F0C330D10581F0682979298A299B2961
:104A2000219771F00E94622AF3C0682979298A29A6
:104A30009B290E94742AECC00E94622AC501B4011D
:104A40000E94502AE5C0112319F08C2F817001C0FB
:104A50008695882309F4DCC08D2F82958695877012
:104A6000880F880F9D2F9F70892E912CA12CB12C1F
:104A7000082E04C0880C991CAA1CBB1C0A94D2F7EF
:104A8000D4FF14C00FE010E020E030E0B901A8012D
:104A900004C0440F551F661F771F8A95D2F7CB01BC
:104AA000BA01609570958095909503C060E070E0C4
:104AB000CB01C695C695C3704C2F50E042305105CE
:104AC00069F04330510589F0682979298A299B29A1
:104AD0004130510571F00E94272B9AC0682979292D
:104AE0008A299B290E94392B93C00E94272BC5013C
:104AF000B4010E94152B8CC08D2F90E0FC01E05E6C
:104B0000F109E531F10508F04EC0E856FF4F0C946D
:104B10003A39DF708C2F8F71112331F00E94AE2A49
:104B20008D2F0E94042468C00E94CF2A8D2F0E94DE
:104B30000B2462C0112339F001115EC08C2F8F71DC
:104B40000E94F42A59C0023008F056C0F7CF112352
:104B500039F08C2F8F710E94AE2A4EC01123C9F3F9
:104B60008C2F8F710E94CF2A47C0112329F08C2FE0
:104B70008F710E94992A40C00E94942A3DC011233F
:104B800049F0CF718C2F0E94AE2A63E08C2F0E94D7
:104B9000AE2C32C081E00E94C32C023068F182E06A
:104BA0000E94C32C29C0112331F0002391F28D2FD4
:104BB0000E94862221C0002399F2D93349F45FEF85
:104BC00067EE73E0515060407040E1F700C00000B4
:104BD0008D2F0E949D2310C04C2F4F706D2FC70149
:104BE0000E946F0D0E94C12917C04C2F4F706D2F6E
:104BF000C7010E94B01110C088E0A816B10441F0AE
:104C00005CF0EAE0AE1AB108F2E0AF16B10420F4AD
:104C10000E943C210E94FC0EDD20E1F00E941E2C2F
:104C200080FD18C0F70112820E94182C0E94AE2A43
:104C3000C7010E9436260E94182CDF91CF911F9148
:104C40000F91FF90EF90DF90BF90AF909F908F906B
:104C50000C94CF2ADF91CF911F910F91FF90EF908D
:104C6000DF90BF90AF909F908F9008950F931F9308
:104C7000CF93DF93EC01888199812B813C81232B99
:104C8000B9F09F3F11F48F3F99F0CE010E940E0FB3
:104C9000882371F0688179818A810E94F52B8C01CB
:104CA0000E944B2B0E944D2AB801CE010E94122473
:104CB000DF91CF911F910F9108950E944C2C0E947B
:104CC0005C2C0E94782C80E090E00E94622180E0C1
:104CD00090E00C94782180910801909109010E9444
:104CE000232E0C945D260E943C2C0C946B26E92FFD
:104CF000E295EF70F0E03297EE30F105B0F4E35555
:104D0000FF4F0C943A39803F91F018F4803E68F4DC
:104D10000EC0843F51F40BC0803E48F0813F29F41F
:104D200006C093FB882780F9089580E0089581E00C
:104D300008950E94EA2B0E9477260895CF93DF936F
:104D400000D000D01F92CDB7DEB70F900F900F901C
:104D50000F900F90DF91CF910895CF93DF9300D004
:104D600000D000D0CDB7DEB726960FB6F894DEBFE0
:104D70000FBECDBFDF91CF9108951F93CF93DF93E7
:104D8000C091C40316E08091C503C81799F0D0E024
:104D90001C9FF0011D9FF00D1124EA53FC4F408130
:104DA000518162817381848195810E94AD26219613
:104DB000C770E9CFDF91CF911F9108954091F6031D
:104DC0005091F7036091F8037091F9038091FA0311
:104DD0009091FB030C94AD268091FB0382958F701C
:104DE00009F054C08091F803882309F44FC08091E2
:104DF000C403A091C5036091F6037091F70340913D
:104E0000F9035091FA03B6E08A1709F43FC090E025
:104E100041155105C1F17F3F11F46F3FA1F1B89FDA
:104E2000F001B99FF00D1124EA53FC4F2181721358
:104E30002AC02081621327C02281211124C023812E
:104E400034812417350710F421503109241B350B08
:104E5000283C3105C0F42091FB032F702061209382
:104E6000FB0326E0289FF001299FF00D1124E55354
:104E7000FC4F80818F708061808386EF93E00E9479
:104E800036260C94BD2601968770BECF0895CF922A
:104E9000DF92EF92FF920F931F93CF93DF93CDB7E3
:104EA000DEB762970FB6F894DEBF0FBECDBF8C01A0
:104EB00085E0F801DE011D9601900D928A95E1F7DB
:104EC000D8014C9111965C91119712966C911297A2
:104ED0001396CD90DC9014973091F6037091F70300
:104EE0008091F9039091FA03009709F46BC17F3F19
:104EF00019F43F3F09F466C1E090F803EE2009F48D
:104F0000C0C02091FB03C816D90628F0F601E81BA3
:104F1000F90BCF0104C0809590958C0D9D1DFF2449
:104F2000F394883C910578F0F12C207F09F0C6C0FD
:104F30007C2DD98AC88A89890E949E2686EF93E0B3
:104F40000E943626B1C0822F807F09F046C07513BB
:104F500014C0341312C0611110C02F70206120934F
:104F6000FB030E94DE2686EF93E00E9436268091A6
:104F7000FB03D80115968C932EC0CD2819F15F3F05
:104F800011F44F3FF9F0F62E61111CC08091C4035B
:104F90002091C50336E0821709F45AC090E0389F8B
:104FA000F001399FF00D1124EA53FC4F7181571322
:104FB00006C07081471303C07281711103C001964E
:104FC0008770E9CFF62E662309F427C18091FB0391
:104FD00081608093FB03F12C20C1751308C034134A
:104FE00006C0611104C08091FB03D801C3C04D8786
:104FF0005E878D859E856A8B0E9499266A898823A3
:10500000E1F16623D1F12091FB03822F82958F700D
:1050100090E0029774F08091F6039091F7039887DF
:105020008F831986DB86CA862C87CE0107960E945D
:10503000362686E0F801A6EFB3E001900D928A953E
:10504000E1F70E94EC260E94DE26FF24F394E5C0DF
:105050004D875E878D859E850E94EA2B292F22959C
:105060002F7030E0223031050CF0CBC09F7009F07A
:10507000C5C0805E883008F4D0C0C8010E943626C2
:10508000E4CFC816D90608F453C0F601E81BF90BA3
:10509000CF01883C910508F450C0F12C7C2DD98AB1
:1050A000C88A89890E949E26E6EFF3E086E0DF0148
:1050B0001D928A95E9F70E94DE26AFC0751314C0D1
:1050C000341312C0611110C08091FB03F801858375
:1050D000C8010E94362686E0E6EFF3E0DF011D926C
:1050E0008A95E9F7FE2C99C04D875E878D859E8550
:1050F0006A8B0E9499266A89882309F4BECF6623A9
:1051000009F4BBCF2091FB03822F82958F7090E032
:1051100002970CF48ECF8091F6039091F7039A8357
:1051200089831B82DD82CC822E83CE0101967FCFC4
:10513000809590958C0D9D1DACCFF62E662309F4BD
:105140009CCF75132EC034132CC02091FB0320FD7F
:105150001FC0822F82958F70D9F0D80115962C939D
:1051600015978F3049F08F5F982F9295907F822FFF
:105170008F70892B15968C93C8010E94362686E085
:10518000F801A6EFB3E001900D928A95E1F793CF75
:1051900086E0F801A6EFB3E001900D928A95E1F761
:1051A0003CC04D875E878D859E850E949926811122
:1051B00040CF8091FB0381608093FB03C8010E9474
:1051C00036262BC0662309F458CF4D875E878D8520
:1051D0009E850E949926F82E882309F44ECF86E0FA
:1051E000F801A6EFB3E001900D928A95E1F786EF02
:1051F00093E00E9480220E94EC265DCF811139CF7E
:105200000CC0243031050CF038CF9F7009F431CF39
:10521000F8019581907F09F02CCF8F2D62960FB603
:10522000F894DEBF0FBECDBFDF91CF911F910F91DC
:10523000FF90EF90DF90CF9008951F93CF93DF936F
:10524000CDB7DEB72C970FB6F894DEBF0FBECDBF3B
:105250004F83588769877A878B879C87CE0107960B
:105260000E944727882369F08F8198852A853B858E
:10527000232BF1F19F3F09F063C08F3F09F060C01D
:1052800037C086E0FE013796DE01119601900D923F
:105290008A95E1F76F817885EA85FB85309741F142
:1052A0007F3F11F46F3F21F12091C50330E0C90128
:1052B0000196877099274091C40350E084179507A1
:1052C00009F447C069837A83FD83EC8396E0929F5B
:1052D000D001939FB00D1124AA53BC4FFE0131960B
:1052E00001900D929A95E1F78093C5030E94BD2627
:1052F00016E08091C4039091C5038917C1F1189FEE
:10530000C00111248A539C4F0E944727882379F1BA
:10531000E091C4031E9FF0011124EA53FC4F408129
:10532000518162817381848195810E94AD26809133
:10533000C40390E00196877099278093C403D9CF66
:105340004F81588569857A858B859C850E94AD261D
:10535000CFCF0E9473261092C5031092C403E6EFCC
:10536000F3E086E0DF011D928A95E9F7C1CF2C9624
:105370000FB6F894DEBF0FBECDBFDF91CF911F9166
:105380000895EF92FF920F931F93CF93DF938C01B9
:10539000892B09F46CC0F12CEE24E394E8012196EA
:1053A000F8018491843740F4843008F051C0813092
:1053B00081F0823019F15BC0853709F444C0A8F14F
:1053C0009CE7980F903708F052C08F770E949D237A
:1053D00041C00E5F1F4FFE01C49180E28C0F8830E8
:1053E00048F4C7708E2D01C0880FCA95EAF70E9455
:1053F0004F2C14C08C2F0E9486222DC00E5F1F4F91
:10540000FE01C49180E28C0F883058F4C7708E2D55
:1054100001C0880FCA95EAF70E94552C0E94782C8B
:105420001AC08C2F0E949D2316C00E5F1F4FFE01D5
:10543000C491CC2381F08FE99FE00197F1F700C080
:105440000000C150F6CF0E5F1F4FFE01F49003C065
:105450000E9486228E018F2D882309F49FCFEFE9C9
:10546000FFE03197F1F700C000008150F5CFDF91E8
:10547000CF911F910F91FF90EF90089508950C9494
:105480003E2A0E943F2A6093370470933804809329
:10549000390490933A040C945D2608950C94412AA3
:1054A0000F931F9300913704109138042091390411
:1054B00030913A04602B712B822B932B1F910F910B
:1054C0000C94412A0F931F930091370410913804D4
:1054D0002091390430913A0460237123822393236D
:1054E0001F910F910C94412A0F931F930091370441
:1054F000109138042091390430913A0460277127C3
:10550000822793271F910F910C94412A0C94390EF6
:105510000E94862A60933304709334048093350488
:10552000909336040C945D2660E070E0CB010C94FF
:10553000882A0F931F9341E050E060E070E08A01F9
:105540009B0104C0000F111F221F331F8A95D2F741
:10555000C901B8011F910F910C94882A0F931F93D2
:1055600041E050E060E070E004C0440F551F661F4A
:10557000771F8A95D2F78091330490913404A091DB
:105580003504B09136048A019B01082B192B2A2B74
:105590003B2BC901B8011F910F910C94882A0F93DE
:1055A0001F9341E050E060E070E004C0440F551FDD
:1055B000661F771F8A95D2F7409550956095709534
:1055C0008091330490913404A0913504B091360455
:1055D0008A019B01082319232A233B23C901B8010F
:1055E0001F910F910C94882A0F931F9341E050E074
:1055F00060E070E004C0440F551F661F771F8A9556
:10560000D2F78091330490913404A0913504B09185
:1056100036048A019B01082719272A273B27C9013D
:10562000B8011F910F910C94882A0F931F9300913A
:105630003304109134042091350430913604602BEA
:10564000712B822B932B1F910F910C94882A0F930F
:105650001F9300913304109134042091350430914C
:10566000360460237123822393231F910F910C949E
:10567000882A0F931F9300913304109134042091D2
:1056800035043091360460277127822793271F91B4
:105690000F910C94882A0895292F220F920F990FA9
:1056A000890FA82FA695A695A695877051E001C0F1
:1056B000550F8A95EAF785E0A89FD001112420E0D4
:1056C00030E070E0F901EA0FFB1FE450FC4F40812D
:1056D000CB01022E02C0969587950A94E2F781705D
:1056E0009927819584278523842780832F5F3F4FC7
:1056F0002530310539F70895292F220F920F990F80
:10570000890F682F669566956695982F977085E046
:10571000689FB001112440E050E080E0FA01E60FFC
:10572000F71FE450FC4F208130E0092E02C036956F
:1057300027950A94E2F721703327042E01C0220F27
:105740000A94EAF7822B4F5F5F4F4530510531F7DE
:105750000895BF92CF92DF92EF92FF920F931F9323
:10576000CF93DF938C01C0903704D0903804E09041
:105770003904F0903A048091330490913404A0915C
:105780003504B0913604C82AD92AEA2AFB2ACFE187
:10579000D0E0D701C6010C2E04C0B695A795979509
:1057A00087950A94D2F780FF07C0BC2EB8018C2FD2
:1057B0000E94CB11019719F4219758F7B12C8B2D2A
:1057C000DF91CF911F910F91FF90EF90DF90CF90DD
:1057D000BF900895CF93DF93EC010E94A92BBE01E7
:1057E0000E94CB11DF91CF9108951F93CF93DF9348
:1057F000EB019091C303992321F0CB010E94EA2B86
:1058000013C0882349F0CB010E94A92B182F682FC1
:10581000CE010E944C2B04C0CB010E947C2B182F80
:10582000BE01812F0E94CB11DF91CF911F9108956E
:1058300080913B04859585958595089580913B04DD
:105840008770089590913B04977081E009F480E09F
:10585000089580915F04089590915F04892B80934F
:105860005F040895809590915F04892380935F047D
:10587000089580935F04089510925F0408959091B5
:105880005E04892B80935E040895809590915E0458
:10589000892380935E04089510925E040895909188
:1058A0005D04892B80935D040895809590915D043B
:1058B000892380935D04089510925D04089580917A
:1058C0003C04089508950C94622C90913C04981720
:1058D00021F080933C040C94632C089580913C0447
:1058E000882329F010923C0480E00C94632C0895E6
:1058F000E0910801F091090180915F048083E091BB
:105900000801F0910901908180915E04892B8083C8
:10591000E0910801F0910901908180915D04892B4B
:10592000808380913C04882381F0E0910801F0910C
:1059300009019081892B8083809108019091090150
:105940000E94A82D81110E946E2C809108019091D7
:1059500009010C94482108950C94AB2C98E0899F80
:1059600090011124262B20933B040E94AE2A8091A3
:105970003B048595859585950C94AC2C10923B0441
:1059800080E00C94AC2C20913B0480958223809382
:105990003B04982F977079F430E0482F082E000CC4
:1059A000550B2417350739F08595859585950E9407
:1059B000CF2A0C94BE2C0895CF92DF92EF92FF92E3
:1059C0006C01EE24FF24C114D104E104F10421F0A0
:1059D000C701B60120E101C020E0C72ED82EE92E74
:1059E000FF24C114D104E104F10419F0285FC701B8
:1059F000B6016B017C0154E0F694E794D794C79408
:105A00005A95D1F7C114D104E104F10419F02C5FC7
:105A1000C701B6016B017C0142E0F694E794D7948C
:105A2000C7944A95D1F7C114D104E104F10419F0E7
:105A30002E5FC701B601DC01CB01B695A7959795FE
:105A40008795892B8A2B8B2B09F02F5F822FFF9054
:105A5000EF90DF90CF90089580E090E00E94AA3907
:105A600021E08D3E9E4F09F020E0822F089582E0D4
:105A700090E00C949C3983E090E00C949C3984E095
:105A800090E00C949C39682F84E090E00C94B0393D
:105A9000AB01BC018FE090E00C94C239AB01BC01BA
:105AA00083E190E00C94C23960E070E0CB010C948B
:105AB0004E2D60E070E0CB010E94482D0C94542DD7
:105AC0006DEE7EEF80E090E00E94CE3960E082E0F3
:105AD00090E00E94B03960E083E090E00E94B0392D
