:100000000C94F7060C9414070C9414070C94140722
:100010000C9414070C9414070C9414070C941407F4
:100020000C9414070C9414070C9412350C94E435BA
:100030000C948D2F0C9414070C9414070C94140733
:100040000C9414070C9414070C9414070C941407C4
:100050000C9414070C942D300C9414070C94140772
:100060000C9414070C9414070C9414070C941407A4
:100070000C9414070C9414070C9414070C94140794
:100080000C9414070C9414070C9414070C94140784
:100090000C9414070C9414070C9414070C94140774
:1000A0000C9414070C9414070C9414076A076D073A
:1000B00070077307760779077C07B10AB60AC00A8A
:1000C000B40AB90ABE0ABC0AD10CD30CDE0CD50C9A
:1000D000D70CD90CDB0CDD0CE00CE20CE40CEF0CC3
:1000E000E60CE80CEA0CEC0CEE0CF10C6D1C8C1C14
:1000F000911C961C9B1CA01CA51CAA1CAF1CB41C0C
:10010000B91CBE1CC31CC81CCD1CD21CD71CDC1CBB
:10011000E11CE61CEB1CF01CF51CFA1CFF1C041D6A
:10012000091D0E1D131D181D1D1D221D271D4C25EB
:100130004C257E257E25B525F626F626F626D525E0
:10014000F62676267626E626F626F626EF26832659
:100150008326832683268326832683268326832657
:100160008326832683268326832683268326942636
:10017000A126A826AF26B926812781279327932772
:100180008A27932793279327812781278F279327D0
:1001900093278F27513678366A3778366A37C436D0
:1001A000E7366A373D374C3702E32003E3000000AF
:1001B000000000000000000000000000000000003F
:1001C000000000000000000000000000000000002F
:1001D000000000000000000000000000000000001F
:1001E000000000000000000000000000000000000F
:1001F00000000000000000000000000000000000FF
:1002000000000000000000000000000000000000EE
:1002100000000000000000000000000000000000DE
:1002200000000000000000000000000000000000CE
:1002300000000000000000000000000000009AFF25
:10024000FF9AFFFF9AFFFF9AFFFF9AFFFF9AFFFFB7
:100250009AFFFF9AFFFF9AFFFF9AFFFF9AFFFF9A0C
:10026000FFFF9AFFFF9AFFFF9AFFFF9AFFFFCDFF64
:10027000FF9AFFFF9AFFFF9AFFFF9AFFFF9AFFFF87
:100280009AFFFF9AFFFF9AFFFF9AFFFF9AFFFF9ADC
:10029000FFFF9AFFFF9AFFFF9AFFFF9AFFFF00CC34
:1002A000FF9AFFFF9AFFFF9AFFFF00CCFF00CCFFF1
:1002B00000CCFF9AFFFF9AFFFF9AFFFF9AFFFF9A79
:1002C000FFFF9AFFFF9AFFFF9AFFFF9AFFFF69FF68
:1002D000FF69FFFF69FFFF69FFFF69FFFF69FFFF1C
:1002E00069FFFF69FFFF69FFFF69FFFF69FFFF69A2
:1002F000FFFF69FFFF69FFFF69FFFF69FFFF69FFFC
:10030000FF69FFFF69FFFF69FFFF000000000000B9
:1003100000000000000069FFFF69FFFF69FFFF693F
:10032000FFFF69FFFF000000000000F9E4FF00008C
:1003300000000000000000F9E4FFF9E4FFF9E4FF29
:10034000F9E4FF000000000000F9E4FF00000000F5
:10035000000000000000000000000000000000009D
:10036000000000000000000000000000000000008D
:10037000000000000000000000000000000000007D
:10038000000000000000000000000000000000006D
:10039000000000000000000000000000000000005D
:1003A000000000000000000000000000000000004D
:1003B000000000000000000000000000000000003D
:1003C0000000000000000086FFD5F3DEEA00000018
:1003D000000000000000000000000000000000001D
:1003E000000000000000000000000000000000000D
:1003F000000000000EFFFF0EFFFF0EFFFF69FFFF72
:1004000023FFFF23FFFF23FFFF0EFFFF69FFFF23F3
:10041000FFFF23FFFF23FFFF000000F9E4FF23FF9E
:10042000FF23FFFF23FFFF69FFFF00000023FFFF03
:1004300023FFFF000000000000000000000000009B
:10044000000000000000000000000023FFFF00008B
:100450000000000000000023FFFF23FFFF23FFFF39
:10046000000000000000000000000000000000008C
:10047000000023FFFF23FFFF00000000000000003A
:10048000000000000000000000000000000000006C
:10049000000000FA9FFF000000000000000000FACA
:1004A0009FFFFA9FFFFA9FFF00000000000000007E
:1004B000000000000000000000000000000000003C
:1004C000000000000000000000000000000000002C
:1004D00000000000000000000000000EFFFF000010
:1004E0000000000000000069FFFF0EFFFF69FFFF32
:1004F00000000000000000000000000000000000FC
:1005000000000000000000000000000000000000EB
:1005100000000000000000000000000000000000DB
:1005200086FFD586FFD586FFD50000000000008637
:10053000FFD586FFD586FFD500000000000086FFAE
:10054000D555CB9E86FFD50000000000000AE1FFD4
:10055000000000000000000000000000000000009B
:10056000000000000000000000000000000000008B
:10057000000000000000000000000000000000007B
:10058000000000000000000000000000000000006B
:100590000000000000000000000000000000290032
:1005A0002B002A00E100350000001E0014000400AA
:1005B0001D00340001001F001A0015001B0001007F
:1005C00002512000090016000600E2002C00210064
:1005D000130017001900E000C35C22000A000700A6
:1005E00005000000650004510100000006510000F4
:1005F000E30001530100000000070000E7002300B2
:100600000D000B000E0000004C0024000F00110034
:1006100010000551FB5C25001800080036000100A1
:10062000280026001C000C003700010003512700A1
:100630003300120038000100FA5C2D003100340054
:10064000E5000100000001000100010001000100BF
:1006500000001E00140004001D000100F45C1F00D7
:100660001A0016001B00010001002000080007000E
:100670000600010001002100150009001900010019
:10068000C35C220017000A00050000000100010001
:100690001000000001000000010001000100000046
:1006A00001000000010023001C000B0011000000ED
:1006B0000100240018000D0010000100C55C250099
:1006C0000C000E00360001000100260012000F0091
:1006D000370001000100270013003300380001003B
:1006E000C65C0100010001000100010000000100E2
:1006F000010001000100010000003A0001000407B0
:1007000001000100CA5C3B00010016070100010066
:1007100001003C00090707070607010001003D0032
:100720000100090701000100C95C3E000100010051
:10073000010000003E000100000000000100000078
:100740003F0001000100000001000000C25C3F000A
:100750002502210222020000F45C40002F02260242
:100760002F000100F75C4100300227023000010039
:10077000C55C42002D0256001F020100C65C43000A
:100780002E022E0020020100F85C4400450001000A
:100790000100010000000100010001000100010052
:1007A0000000010001000100010001000100010042
:1007B0000100010001000100010001000100F95CDD
:1007C00001000100010001000100E600010001003C
:1007D0000100010001000100010000000100010012
:1007E0000100000001000000010001000100000004
:1007F00001000000010001000100010001000000F3
:1008000001000100010001000100010001000100E0
:1008100001000100010001000100010001000100D0
:1008200001000100010001000100010001000100C0
:1008300001000100010001000100010000000100B1
:1008400001000100010001000000010001000100A1
:1008500001000100010001000100F200010001009F
:1008600001000100F000F1000100F40001000100AE
:100870000100F3000100F50001000100010001008A
:100880000100000001000100010000000100000063
:100890000100010001000000010000000100010052
:1008A000A900AA00A8000000010001002400210006
:1008B0001E00010001005400250022001F006200FC
:1008C0000C005500260023002000630001005600A4
:1008D0005700000058000100010001000100010064
:1008E0000100010000000100010001000100010001
:1008F00000000100000000000000010001000000F5
:1009000000004A0000000100010000004B004E0002
:10091000000001000100000000004D000000010087
:1009200001000100000000000000000001000100C3
:1009300001000000010000000100010001000000B2
:1009400001000000010001000000000000000000A4
:100950000100000000005000000001000100000044
:1009600052005100000001000100000000004F0093
:100970000000010001000100000000000000010073
:100980000100010001000100010001000000010060
:100990000100010001000100000001000100010050
:1009A000010001000100010001000100010001003F
:1009B000010001000100010001000100010001002F
:1009C000010001000100010001000100010001001F
:1009D0000100000001000100010000000100000012
:1009E0000100010001000000010000000100010001
:1009F000010001000100000001000100240721079F
:100A00001E07010001000100250722071F07270715
:100A10000100010026072307200701000100010053
:100A200001000100010001000100010001000100BE
:100A300001000100000000000000000000002A2B5F
:100A4000280000000000000000000000000000007E
:100A50000029000000002C1E3420212224342627E7
:100A6000252E362D3738271E1F2021222324252608
:100A70003333362E37381F0405060708090A0B0CD6
:100A80000D0E0F101112131415161718191A1B1C1E
:100A90001D2F3130232D350405060708090A0B0CDC
:100AA0000D0E0F101112131415161718191A1B1CFE
:100AB0001D2F3130354C0000000000000000000008
:100AC0000000000000000000000000000000000026
:100AD0000000000000000000000000000000000016
:100AE0000000000000000000000000000000000006
:100AF00000000000000000000000000000000000F6
:100B000000000000000000000000000000000000E5
:100B100000000000000000000000000000000000D5
:100B200000000000000000000000000000000000C5
:100B300000000000000000000000000000000000B5
:100B400000000000000000000000000000000000A5
:100B5000000000000000000101010101010001018D
:100B60000101000000000000000000000000000083
:100B70000100010001010101010101010101010167
:100B80000101010101010101010101010101010155
:100B90000100000001010000000000000000000052
:100BA0000000000000000000000000000000000045
:100BB0000001010101000000000000000000000031
:100BC000010101010101010101020202020202020E
:100BD00002030303030303030404040404050505DB
:100BE0000505060606060607070707080808080998
:100BF00009090A0A0A0B0B0B0C0C0C0D0D0D0E0E3D
:100C00000E0F0F10101011111212131314141515CA
:100C100016161717181819191A1A1B1C1C1D1D1E39
:100C20001F1F202121222323242525262728282988
:100C30002A2B2C2C2D2E2F303131323334353637B0
:100C400038393A3B3C3D3E3F4041424344454647AC
:100C500048494B4C4D4E4F50525354555758595A82
:100C60005C5D5E606163646567686A6B6C6E6F7122
:100C700072747677797A7C7D7F8182848687898B8E
:100C80008D8E9092949597999B9D9FA1A2A4A6A8C2
:100C9000AAACAEB0B2B4B6B9BBBDBFC1C3C5C8CAB9
:100CA000CCCED0D3D5D7DADCDEE1E3E6E8EAEDEF6F
:100CB000F2F4F7F9FCFF04033000000016034500CE
:100CC000720067006F0044006F007800200045004C
:100CD0005A00000016034500720067006F004400D0
:100CE0006F007800200045005A000000040309044A
:100CF00009023B00020100A0FA09040000010301FF
:100D000001000921110100012240000705810308AB
:100D1000000A09040100010300000009211101007B
:100D2000012271000705820320000A120110010050
:100D3000000008EDFE07130100010203010501098F
:100D400080A10185031601002603001A81002A8371
:100D500000751095018100C0050C0901A1018504F1
:100D6000160100269C021A01002A9C0275109501AA
:100D70008100C005010906A1018505050719E029C3
:100D8000E71500250195087501810205081901295B
:100D900005950575019102950175039101050719E6
:100DA0000029EF1500250195F075018102C00501AC
:100DB0000906A101050719E029E715002501950895
:100DC0007501810295017508810105081901290540
:100DD00095057501910295017503910105071900AB
:100DE00029FF150026FF00950675088100C0112413
:100DF0001FBECFEFDAE0DEBFCDBF12E0A0E0B1E072
:100E0000EAE1F3E702C005900D92A03DB107D9F7E2
:100E100025E0A0EDB2E001C01D92A73AB207E1F7CC
:100E20000E9436320C948B390C94000080B38C7085
:100E300080BB81B3836F81BB089584B1807F84B907
:100E400085B1807F85B98AB1837F8AB98BB1837F71
:100E50008BB93E9846980895CF93E82F873080F558
:100E60008091EA019091EB01892B09F047C0CE2FC8
:100E700064E670E080E40E94AC209093EB018093E4
:100E8000EA01892BD1F464E670E082E10E9403213B
:100E90009093EB018093EA01892B79F481E090E053
:100EA00001C0880FCA95EAF764E670E080950E9459
:100EB00003219093EB018093EA01CF910C947F2161
:100EC00090E0FC013797E730F105C0F4EA5AFF4F94
:100ED0000C94E537209A289811C0219A29980EC0C1
:100EE000229A2A980BC0239A2B9808C0529A5A9893
:100EF00005C0539A5B9802C03E9A4698CF910895D8
:100F0000CF93873008F03FC08091EA019091EB01C8
:100F1000892B09F041C064E670E080E40E94AC20B7
:100F20009093EB018093EA01892B11F0C0E027C078
:100F300064E670E083E10E9403219093EB018093CB
:100F4000EA01892B99F764E670E081E40E94AC2005
:100F50009093EB018093EA01892B41F784E690E0BE
:100F60000E94332197FF05C09093EB018093EA0123
:100F7000DDCFC82FC0951092EB011092EA010E94BC
:100F80007F218C2F0AC09FB18FB1807F8695869577
:100F90009370892B809501C080E0CF9108950895CA
:100FA0000C94CF070E94DB0890E09093EB018093B4
:100FB000EA010E941D070E941607AFEDB2E0E1EDC5
:100FC000F2E08EE08E0F11921D928E13FCCF8EE018
:100FD0000E94D3100C94120C0E94DB0890E09093B6
:100FE000EB018093EA010E941D070E941607E1EDC4
:100FF000F2E08EE08E0F11928E13FDCF0895CF9206
:10100000DF92EF92FF920F931F93CF93DF93809124
:10101000EA019091EB01892B91F08091D0028F5FD2
:101020008093D00281110BC00E94DB0890E0909366
:10103000EB018093EA01892B11F40E946D089FED6A
:10104000E92E92E0F92E06EE12E0C0E0D12C87E006
:10105000C82ECC0E8C2F0E942C078C2D0E942C07A2
:101060008C2F0E948007F7019081981719F08083D8
:10107000D1E001C0D0E08C2D0E948007F801908162
:10108000981719F0808381E001C080E0D82BDD2A19
:101090000E941D07CF5FFFEFEF1AFF0A0F5F1F4F80
:1010A000C730A9F62D2D4EE061ED72E08FED92E094
:1010B0000E943F110E941E0C81E0DF91CF911F9191
:1010C0000F91FF90EF90DF90CF900895E82FF0E020
:1010D000EF52FD4F80810895089556985E982598A7
:1010E0002D9826982E9827982F988FEF90E0909320
:1010F00089008093880090938B0080938A0090935E
:101100008D0080938C00259A2D9A2FEF80E792E036
:10111000215080409040E1F700C00000269A2E9AAE
:101120002FEF80E792E0215080409040E1F700C02F
:101130000000279A2F9A2FEF80E792E021508040FD
:101140009040E1F700C0000025982D982FEF80E730
:1011500092E0215080409040E1F700C000002698C6
:101160002E982FEF80E792E0215080409040E1F7E9
:1011700000C0000027982F9856985E9825982D98C3
:1011800026982E9827982F98089589EA80938000B2
:1011900089E08093810024982C983F988AB18F7CB5
:1011A0008AB96E98479A8BB180638BB9769A0E9400
:1011B0006D080C94540980E290E09093EB018093C9
:1011C000EA018091ED0281110EC00E94A62081E00B
:1011D0008093ED022FEF83ED90E32150804090400B
:1011E000E1F700C0000064E670E080E40E94AC20FB
:1011F0009093EB018093EA01892B09F04EC064E6DD
:1012000070E080E00E9403219093EB018093EA015B
:10121000892B09F042C064E670E080E00E9403215F
:101220009093EB018093EA01892BB9F564E670E0B5
:101230008FE30E9403219093EB018093EA01892BB5
:1012400061F50E947F2164E670E080E40E94AC209A
:101250009093EB018093EA01892BF9F464E670E046
:101260008CE00E9403219093EB018093EA01892B8B
:10127000A1F464E670E080E00E9403219093EB010A
:101280008093EA01892B49F464E670E08FE30E94C1
:1012900003219093EB018093EA010E947F218091CA
:1012A000EA0108950C94C01D84E00C94AB11AF9238
:1012B000BF92CF92DF92EF92FF920F931F93CF9343
:1012C000DF9320E9289F7001299FF00C1124C0E0D2
:1012D000D0E000E010E067018FEFC81AD80A57018C
:1012E00082E0A80EB11CFE01EE0DFF1DE255FE4F7F
:1012F0006491F601EC0FFD1FE255FE4F7491F5016C
:10130000EC0FFD1FE255FE4F8491611107C0711172
:1013100005C0811103C020E040E005C00E944212D8
:10132000462F282F672FC8010E9434160F5F1F4FCA
:101330002396C039D105B9F6DF91CF911F910F9156
:10134000FF90EF90DF90CF90BF90AF900895809185
:10135000200381112FC08091EE0281112BC060917A
:10136000CF037091D0038091D1039091D2030E945A
:10137000DA2D833091F028F4813049F0823051F039
:101380000895853081F060F0863081F0089581E025
:1013900090E00EC082E090E00BC083E090E008C0D7
:1013A00084E090E005C085E090E002C086E090E037
:1013B0000C9457090895FB01873F2CE5920709F427
:1013C0004EC088F4843F2CE5920729F120F4823C3A
:1013D0009C4549F1AAC0853F2CE59207A9F1863FBB
:1013E0009C4591F0A2C0893F2CE5920709F451C0B9
:1013F00008F441C08A3F2CE5920709F453C08B3FA3
:101400009C4509F478C091C08281882309F48EC07C
:101410000E94AB2E88C08281882309F487C081E0B6
:101420000E94721E80C08281882309F47FC090913F
:10143000290480912704992311F040E001C04FEF67
:101440006091280490E022C08281882309F46EC054
:101450009091EE0281E089278093EE0264C0828140
:10146000882309F463C081E00E94721E4FEF64E993
:1014700085EC90E00BC08281882309F457C081E09D
:101480000E94721E4FEF69E787E890E00E94871E76
:101490004AC08281882309F449C088EA91E00E9409
:1014A0000F0C41C08281882309F440C080E190E0A4
:1014B0000E944B396093260470932704809328047C
:1014C000909329040E94272D8272909127048823EB
:1014D00011F0985001C0985F909327044091260422
:1014E00050912704609128047091290480E190E0D4
:1014F0000E94693918C082818823C1F080E190E0A0
:101500000E944B396093260470932704809328042B
:10151000909329040E94272D827219F00E94561E72
:1015200002C00E94641E80E0089581E00895CF9279
:10153000DF92EF92FF926B017C010E94DA2D5698A8
:101540005E9825982D9826982E9827982F9890E0A9
:10155000FC013197E730F105A8F4E35AFF4F0C94F2
:10156000E537259A2D9A0EC0259A2D9A269A2E9AFD
:1015700009C0259A2D9A04C0259A2D9A269A2E9A4A
:10158000279A2F9AC701B601FF90EF90DF90CF9076
:1015900008950F931F93CF93DF939C013A952115E4
:1015A0003F4148F5EB018C0190FF03C080EEFB0149
:1015B000099511FF03C081EEFE01099512FF03C0DA
:1015C00082EEFE01099513FF03C083EEFE0109952B
:1015D0000115104180F084EEFE01099585EEFE01B3
:1015E000099586EEFE01099587EEFE01DF91CF9108
:1015F0001F910F910994DF91CF911F910F91089541
:10160000877091E001C0990F8A95EAF7892F0E94AF
:101610003D2D0C94762D877091E001C0990F8A952D
:10162000EAF7892F0E943D2D0C94762D877091E06A
:1016300001C0990F8A95EAF7892F0E94432D0C94D7
:10164000762D877091E001C0990F8A95EAF7892F6E
:101650000E94432D0C94762DCF93DF93EC01805E96
:101660009109089710F0209719F46BE07BE002C015
:1016700060E07BE0CE010E94C90A8C2FDF91CF9100
:101680000C947F23CF93DF93EC010E949624CE012C
:10169000805E9109089710F0209719F461E27BE0D1
:1016A00002C066E17BE0CE01DF91CF910C94C90AC4
:1016B000CF93DF93EC010E942C0BCE01DF91CF91F1
:1016C0000C94420B81E008950C94DB091F93CF9397
:1016D000DF9300D000D01F92CDB7DEB749835A8385
:1016E00020915F0389819A81211112C0662349F0FC
:1016F0000E94A72C182F682F89819A810E944A2C5A
:1017000003C00E947A2C182F69817A81812F04C02E
:101710000E94A72C69817A810F900F900F900F90F3
:101720000F90DF91CF911F910C94620EFC014081CC
:1017300051816281738184810C94660B1F93CF93D6
:10174000DF93282F30E0F901EA5CF54F1491F9019D
:10175000EA5CF44FE491C1E0E11101C0C0E0F9019D
:10176000EA54F54F2491D1E0211101C0D0E0CC23FF
:1017700019F081EE0E947F23DD2319F086EE0E948E
:101780007F23812F0E94F524DD2319F086EE0E942D
:101790009624CC2331F081EEDF91CF911F910C94F0
:1017A0009624DF91CF911F9108950F931F93CF93AC
:1017B000DF93EC01062FFE018491882359F19E01ED
:1017C0002F5F3F4F813041F4E901F9011491812FDE
:1017D0000E947F23812F0DC0823031F4E901F9018D
:1017E00084910E947F230AC0833031F4E901F9011A
:1017F00084910E94962402C00E949E0B2196802F05
:101800008823C9F2EFE9FFE03197F1F700C000004B
:101810008150F6CFDF91CF911F910F91089560E035
:101820000C94D50B0E942A2E811102C00E94AB2E6F
:101830000E94641D0E9495110C94C5080E94B81B5B
:101840000C94D007282F2F7041F0822F90E02A307F
:1018500010F44D9608950697089587E290E0089554
:1018600008950C94300C0C94310C08950E9471274B
:101870000E94350C2FEF84E39CE021508040904083
:10188000E1F700C000000C9453300F931F93CF93E7
:10189000DF938C010E94960BEC01B8010E94141B8F
:1018A000882309F405C2B801CE010E94640B882385
:1018B00009F4FEC1B801CE010E940D12882309F47B
:1018C000F7C1B801CE010E94F021882309F4F0C1CC
:1018D000CA3CFCE5DF0741F4F8018281882309F462
:1018E000E7C10E94481EE4C1CB3C8CE5D80708F054
:1018F00012C1C33C9CE5D90761F4F80182818823B9
:1019000009F4D6C10E94272D8272E1F00E94EA1DDF
:10191000CFC1C43CECE5DE07C0F0C63C9CE5D9076E
:1019200009F4CAC008F0DCC0C43CFCE5DF0709F0DC
:10193000CBC0F8018281882309F4BAC10E94272D07
:10194000827221F30E94CC1DB3C1C531FCE5DF07D3
:1019500008F07BC0C2308CE5D80708F452C0F8010B
:101960008281882309F454C00E942A2E811102C06A
:101970000E94AB2E0E943D2E90E09093950580939F
:101980009405FE01E350FC45E231F10530F4EC59D9
:10199000FF4F809194050C94E53780919405816008
:1019A00027C0826025C0846023C0806121C080621E
:1019B0001FC080641DC080681BC08460886018C020
:1019C0008E7F16C08D7F14C08B7F12C08F7E10C09B
:1019D0008F7D0EC08F7B0CC08F770AC08B7F877F77
:1019E00007C087FB222720F991E0922790FB87F917
:1019F00080939405809194050E94412E0E94712746
:101A000057C1C1159CE5D90751F0C130DC4579F0CB
:101A1000C801DF91CF911F910F910C94620BF801D7
:101A20008281882309F444C10E94360C41C1F80127
:101A30008281882309F43CC18091FC03982F909502
:101A400090FB80F98093FC0333C1C631FCE5DF07CE
:101A500039F50E94272D282FF80182814091F2014B
:101A60005091F301882379F02A7A91E009F490E00B
:101A70009093EF02911102C069E201C065E3CA01CF
:101A80000E94122F0AC08091EF02811102C069E208
:101A900001C065E3CA010E941D2F0E94762D08C176
:101AA000C23CDC4509F0B4CFF8018281882309F4F7
:101AB000FFC00E94A51DFCC0F8018281882309F4A3
:101AC000F7C00E94131EF4C0C53CDC4509F0A0CF4E
:101AD000F8018281882309F4EBC00E94081EE8C047
:101AE000F8018281C83CFCE5DF0731F4882309F462
:101AF000DFC00E942C1EDCC0C93CDC4530F48823CA
:101B000009F4D6C00E941E1ED3C0882309F4D0C099
:101B10000E943A1ECDC0C13DECE5DE0791F4F8010C
:101B20008281882309F4C4C00E94821E8F3028F06D
:101B30000E94821E843108F405CF8FE00E94721E3D
:101B4000B7C0C23DFCE5DF0708F05AC0CD3C8CE5CC
:101B5000D80739F4F8018281882309F4A9C081E00B
:101B6000EDCFCE3C9CE5D907C0F4CB3CECE5DE07DD
:101B700041F4F8018281882309F49AC00E94561E1C
:101B800097C0CC3CDC4509F043CFF8018281882323
:101B900009F48EC00E94641E8BC0F8018281CF3C84
:101BA000FCE5DF0771F4882309F482C00E94821EDD
:101BB000863028F00E94821E883008F4C3CE86E06A
:101BC000BDCFC03DDC4570F4882309F471C00E948C
:101BD000821E823028F00E94821E853008F4B2CE28
:101BE00082E0ACCF882309F463C00E94821E893052
:101BF00028F00E94821E8E3008F4A4CE89E09ECF89
:101C0000C53DECE5DE0739F4F8018281882309F44B
:101C10004FC083E293CFC63DFCE5DF0740F5F801F6
:101C20008281C33DFCE5DF0729F4882309F440C025
:101C300088E184CFC43DDC4568F48823C9F10E9463
:101C4000821E853128F00E94821E873108F47ACEE8
:101C500085E174CF882361F10E94821E893128F0CA
:101C60000E94821E823208F46DCE89E167CFCD3D9D
:101C7000ECE5DE0741F4F80182818823C9F082E0B7
:101C80000E94D53215C0CE3DFCE5DF0739F4F801DE
:101C90008281882369F00E94AB2E0AC0CC3DDC45CE
:101CA00009F0B6CEF8018281882311F080E0E8CFF8
:101CB00080E0DF91CF911F910F91089580E090E037
:101CC0000895089596E0799FF001112494E5899F85
:101CD000E00DF11D1124E60FF11DEE0FFF1FE2567E
:101CE000FA4F859194910895880F991FFC01EA5449
:101CF000F44F859194910895CF93DF930E94620EE3
:101D00000E943310EC01811520E59207F0F5811552
:101D100030E4930708F024C1883E910500F5803E29
:101D2000910508F09CC1883A910570F4853A9105B7
:101D300008F09FC08130910509F491C108F442C1B7
:101D4000049708F08CC13EC18F3B910508F49CC0FC
:101D5000803C910508F436C1805C9109F4C081157E
:101D600040E2940758F4C11581E0D80708F077C124
:101D7000C03FD10508F426C1D06571C1811520E3AB
:101D8000920708F0E4C09F70DEC0811535E5930727
:101D900008F044C0811544E5940708F0F8C0C11567
:101DA00082E5D80708F5C11521E5D20708F0DBC0A8
:101DB0008C2F837021E030E002C0220F331F8A9500
:101DC000E2F73C68CE0174E0969587957A95E1F745
:101DD0008370382BCF70C695C69580E2C89FE0010E
:101DE0001124C22BD32B3BC12C2F26952695CE0137
:101DF00083709927C115D34508F0BAC040E2249FEB
:101E000090011124C1E0D0E002C0CC0FDD1F8A9503
:101E1000E2F72C2B3D2BE901DC6821C1811549E556
:101E20009407A0F4C11588E5D80708F0B5C0C1151E
:101E300026E5D20708F0C6C08C2F0E94B0108F7123
:101E4000C82FD0E0DC2FCC27D06209C181153AE53C
:101E5000930708F4A6C090568115904208F0B2C0CE
:101E60008D2F8F710E94B010DD27D0628F71D82B1B
:101E7000F6C0853A910509F4A8C0863A910509F0A3
:101E8000A7C0C2E8D0E4EBC0883A910509F4A3C02A
:101E9000893A910509F4A2C08A3A910509F4A1C0D2
:101EA0008B3A910509F4A0C08C3A910509F49FC0C2
:101EB0008B3B910509F49EC08C3B910509F49DC0B4
:101EC0008D3A910509F49CC0803B910509F49BC0B3
:101ED0008E3A910509F49AC08F3A910509F499C098
:101EE000813B910509F498C0823B910509F497C0A4
:101EF000833B910509F496C0843B910509F495C094
:101F0000853B910509F494C0863B910509F493C083
:101F1000873B910509F492C0883B910509F491C073
:101F2000893B910509F490C08D3B910509F48FC060
:101F30008E3B910509F48EC08A3B910509F48DC052
:101F4000C0E0D4E48CC00E94740EEC0188C09927D4
:101F5000D3FF03C0EC01D86C82C0EC01D06C7FC011
:101F6000DF70D06A7CC0DC2FCC27C16FD06A77C00D
:101F700040E2249F90011124C1E0D0E002C0CC0FC8
:101F8000DD1F8A95E2F7C22BD32BDA6868C0D82F01
:101F9000CC27C46FD06A63C0DC2FCC27C06FD06A57
:101FA0005EC08F700E94B01094E0D695C7959A9548
:101FB000E1F7CF70D0E0DC2FCC27D06A8F70806E35
:101FC000C82B4DC0C0E0D0E04AC0C1E8D0E447C053
:101FD000C3E8D0E444C0C2EED4E441C0C9EED4E4C6
:101FE0003EC0CAEED4E43BC0C5EBD4E438C0C6EB77
:101FF000D4E435C0C3EBD4E432C0C4EBD4E42FC086
:10200000C7EBD4E42CC0CCECD4E429C0CDECD4E4B0
:1020100026C0C3E8D5E423C0CAE8D5E420C0C2E99D
:10202000D5E41DC0C4E9D5E41AC0C1E2D6E417C0A6
:10203000C3E2D6E414C0C4E2D6E411C0C5E2D6E4DB
:102040000EC0C6E2D6E40BC0C7E2D6E408C0CFE6B5
:10205000D4E405C0C0E7D4E402C0CAE2D6E4CE01AD
:10206000DF91CF9108958238910549F1B0F4813321
:10207000910509F458C048F48932910509F44EC01D
:102080008A32910509F454C008958533910509F405
:1020900040C08933910599F00895833E910529F157
:1020A00038F4803E910591F0823E9105A1F00895AB
:1020B000863E9105F9F0873E910531F10895209112
:1020C000940520FD3AC021FD38C008958091940503
:1020D00080FD35C032C08091940582FF32C080916E
:1020E000940584FD30C083EE39C08091940582FD53
:1020F00028C0F5CF8091940583FF27C08091940577
:1021000084FD21C087EE2AC08091940583FD1DC007
:10211000F5CF8091940585FD1AC01BC08091940570
:1021200085FD17C014C08091940586FD14C015C0AC
:102130008091940586FD11C00EC080EE0FC089E32A
:102140000DC082EE0BC080E009C086EE07C089E2B8
:1021500005C085E303C08AE201C081E390E00895F1
:102160009091940592FF0DC0282F2871283019F402
:10217000877F846006C0282F2471243011F48B7F60
:10218000886093FF0DC0282F2871283119F4877EAD
:10219000846106C0282F2471243111F48B7E88615C
:1021A00094FD877E0895CF93C82F90E00E940D384C
:1021B0008093F1029093F202282FFC019BEF8E2F67
:1021C000821B8C1710F49193FACFCF9108950F933F
:1021D0001F93CF93DF931092F0025091F102E52FFD
:1021E000F091F20240E0A62FB0E07BEFCAEFD0E022
:1021F0009E2F951B9817D0F490819B3FA9F0292F13
:1022000030E0691728F08D01021B130B980106C0FE
:102210008E01021B130B98012A0F3B1F253031053D
:1022200014F0708301C041E03196E2CF4093F00298
:10223000DF91CF911F910F910895CF93DF9350912C
:10224000F1023091F002DB01E52FF091F2026E2FE6
:10225000651B641778F47C91EC016991CE01C08113
:10226000CB3F29F4761719F020836C9331E0319637
:102270001196EDCF3093F002DF91CF910895DF9268
:10228000EF92FF920F931F93CF93DF9300D0CDB7C0
:10229000DEB78C017B01D22E4A830E94BF2F6AEFEA
:1022A00070E00E949E37282F8091F0024A81882397
:1022B000D9F0622F842F29830E94E71029814A8157
:1022C000DD2069F0B701C8010F900F90DF91CF9129
:1022D0001F910F91FF90EF90DF900C941D11809152
:1022E000F002882379F302C0D110ECCF0F900F9049
:1022F000DF91CF911F910F91FF90EF90DF900895A4
:10230000CF93DF9397FF0DC0FB012281222349F079
:10231000EC010E94AF11CE019F770E94F0110E9444
:10232000D91181E0DF91CF9108958CE090E00E9477
:10233000433990E0A0E0B0E0809321049093220420
:10234000A0932304B09324040895609121048CE0A9
:1023500090E00C945739809321040C94A5110E94AD
:10236000272D809325040E943A2D809121048130ED
:1023700071F048F0823081F08430A1F486EE0E9442
:10238000F52488E10DC082EE0E947F230BC088E116
:1023900093E00E94580B06C082EE0E947F2387E5DF
:1023A0000E94F5248FE39CE90197F1F700C000003B
:1023B000089580912104813039F040F0823031F06D
:1023C000843051F488E206C08CE204C082EE0E94A0
:1023D000962402C00E94F524809125040C94372D88
:1023E0000F931F93CF93DF938C01CCE0D0E0C80113
:1023F0000C2E02C0969587950A94E2F78F700E9482
:10240000220C0E94F5242497CC3F8FEFD80779F750
:10241000DF91CF911F910F9108950F931F93CF9349
:10242000DF93EC018B01FB018281882319F1C33E0C
:10243000FCE5DF07C1F050F4C13EECE5DE0781F0BA
:10244000C23EFCE5DF07B1F481E010C0C43E8CE57C
:10245000D80759F0C53EECE5DE0761F484E006C01C
:102460001092210405C082E001C083E08093210422
:102470000E94A511B801CE01DF91CF911F910F915C
:102480000C948011CF92DF92EF92FF920F931F93E3
:10249000CF93DF937B01282F382FE82FF0E0F11046
:1024A00006C0EA54F44F6491762F862F7BC00F2D1F
:1024B00010E046E0649FC0011124CFEFD0E0BE01E0
:1024C0000E949E37AB016BEA6403C001659F900DCB
:1024D00011248E0D911D8E0D911D982F990F890F2E
:1024E000BE01601B710B6E9FD0016F9FB00D7E9F70
:1024F000B00D11249B2F8F9DB0011124672F7727DA
:102500007E01E61AF70AEE9EB001EF9E700DFE9E68
:10251000700D11246E01C81AD108C09E7001C19EB1
:10252000F00CD09EF00C11240F2D1127C01BD10BE5
:10253000CE9F8001CF9F100DDE9F100D1124812FA3
:102540004230510591F04CF441155105E1F0413014
:102550005105B9F4822F272F16C04430510569F078
:1025600044F04630510579F00CC0822F2B2F912F6B
:102570000AC02B2F932F872F06C08B2F922F212F2E
:1025800002C08B2F972FE22FF0E0EA54F44F7491A2
:10259000E82FF0E0EA54F44F6491E92FF0E0EA54B8
:1025A000F44F8491DF91CF911F910F91FF90EF90A5
:1025B000DF90CF90089520E030E0A901869F412D63
:1025C000969F400D511D1124CA010895BC0182300F
:1025D000910508F40895613E8EE1780748F49B0167
:1025E00095E0369527959A95E1F748E0420F01C0AE
:1025F0004FEF91E0242F30E0290F311D35952795BD
:10260000229FF001239FF00DF00D11246E177F071C
:1026100018F44FEF420F05C02F3F310539F091E01C
:10262000920F491738F78FEF890F08958FEF0895AC
:10263000482F982F46FD9095E92FEF739F7046FD28
:102640009F5FE295EF70EE0FF0E0E154FD4F2181C6
:10265000299F802D212D112482958F702295207F16
:10266000822B3081982F930F892F47FD81958058B9
:102670000895E62FF0E0EE0FFF1FE65AFE4F20818F
:1026800034EE239F212D11246091280470E030E066
:10269000245E3F4F241B310937FF03C0319521953C
:1026A000310943E0220F331F4A95E1F7AB01421B8A
:1026B000530B9A0157FF02C020E030E0FC01218358
:1026C0000895E62FF0E0EE0FFF1FE65AFE4F20813F
:1026D00034EE239F212D11246091290470E030E015
:1026E000245E3F4F241B310937FF03C031952195EC
:1026F000310943E0220F331F4A95E1F7AB01421B3A
:10270000530B9A0157FF02C020E030E0FC01228306
:102710000895FC0140830895DC01E62FF0E0EE0F00
:10272000FF1FE65AFE4F9081941B9C930895DC0195
:10273000E62FF0E0EE0FFF1FE55AFE4F9081941B4D
:102740009C930895DC0170E0FB01EE0FFF1FE55A3A
:10275000FE4F9081905297FD9195660F771FFB0178
:10276000E65AFE4F809127042081280F241B920FE8
:102770009C9308950F9343E0249F90011124359575
:102780002795200FFC0120830F9108950F931F932D
:10279000CF938C01C22F67FD6195E8E3F0E0CF0194
:1027A000861B910967FD9395889F9001899F300D45
:1027B000300D1124449FC001459F900D900D1124B0
:1027C000820F931F0E94E612982F880F980F9C0F7C
:1027D000F8019083CF911F910F9108950F931F934C
:1027E000E22FF0E0DF01AA0FBB1FA55ABE4F0C91EC
:1027F00010E0005211094003D001419FB00D112497
:10280000EE0FFF1FE65AFE4F408150E0405751093E
:1028100064039001659F300D11242A0F3B1F37FF81
:1028200002C021583F4F220F232F221F330B30911C
:102830002704230FFC0120831F910F910895E22F9D
:10284000F0E0DF01AA0FBB1FA55ABE4F2C9130E06C
:1028500020523109220F331F4203D001439FB00D94
:102860001124EE0FFF1FE65AFE4F408150E0405703
:102870005109440F551F64039001659F300D1124C9
:102880002A0F3B1F37FF02C021583F4F220F232F33
:10289000221F330B30912704230FFC01208308955E
:1028A000FC0130E0D901AA0FBB1FA65ABE4F9C9174
:1028B000905797FD9195220F331FD901A55ABE4F0E
:1028C0002C9130E020523109D901AA0FBB1F2A0FE9
:1028D0003B1F4203D001439FB00D112448E350E059
:1028E0009A01291B310997FD3395C901220F331F26
:1028F000A901480F591F64039001659F300D1124F1
:102900002A0F3B1F37FF02C021583F4F220F232FB2
:10291000221F330B80912704280F208308952091D4
:1029200029046095629F612D1124FC016283089542
:10293000FC0122E8261B08F420E090912704920F66
:10294000908308950F931F9335E0239F000D111D71
:1029500011240F3F110519F010F00FEF10E0009552
:10296000FC012281200F08F42FEF22831F910F9189
:1029700008950F931F93020F111D9A0157FF03C073
:10298000319521953109E4E0220F331FEA95E1F7F3
:102990002F3F310519F014F02FEF30E0AB0177FF36
:1029A00003C051954195510964E0440F551F6A9544
:1029B000E1F7421753070CF49A01020F131F0F3F60
:1029C000110519F010F00FEF10E00095FC012281C5
:1029D000200F08F42FEF22831F910F9108950F937A
:1029E0001F93FC01293430F4021B11090F3F11051C
:1029F00019F010F00FEF10E0685F7F4F6131710543
:102A000030F0CA010896419710F00FEF10E00095E2
:102A10002281200F08F42FEF228357FF02C04D5F61
:102A20005F4F559547955595479580912704480FD9
:102A300040831F910F9108950F931F93FC01021B78
:102A400011090F3F110519F010F00FEF10E0808110
:102A5000800F808300952281200F08F42FEF2283BE
:102A60001F910F9108950F931F93021B11090F3FA0
:102A7000110519F010F00FEF10E00095FC01228114
:102A8000200F08F42FEF22831F910F910895FC016E
:102A9000CB01309721F477FF2CC080E808959F0187
:102AA000F7FF04C0222733272E1B3F0BBC01621BFC
:102AB000730B280F391F97FD0DC0CB0145E0880F20
:102AC000991F4A95E1F7B9010E94B23780E2861B4F
:102AD000682F09C0C90125E0880F991F2A95E1F7E1
:102AE0000E94B237605A862FF7FF02C08195089581
:102AF000089580E008950F931F93CF938C01CA012E
:102B0000C0912804C21B0E944715982F880F980F68
:102B1000C91BF801C183CF911F910F9108950F93A5
:102B20001F93CF938C01CA01C0912904C21B0E943C
:102B30004715982F880F980FC91BF801C283CF91B2
:102B40001F910F910895EF92FF920F93CF937C0105
:102B5000201B90912804C22FC90FCA010E9447155B
:102B6000C81BF701C183CF910F91FF90EF9008959B
:102B7000EF92FF920F93CF937C01201B9091290439
:102B8000C22FC90FCA010E944715C81BF701C28393
:102B9000CF910F91FF90EF9008950F931F93CF93D4
:102BA000DF931F92CDB7DEB78C01CA0129830E9443
:102BB00047152981820FF80180830F90DF91CF9113
:102BC0001F910F910895EF92FF920F93CF937C0185
:102BD000CA01C22FC01B0E944715C81BF701C08342
:102BE000CF910F91FF90EF90089580E190E00C94C9
:102BF0004B39AB01BC0180E190E00C946939E6E20D
:102C0000F4E08DE2808311828FEF828383838FE7EC
:102C1000848360817181828193810C94F91580E0B5
:102C200008950F931F93CF93DF93C82FD62F8A0158
:102C30000E940F1696E0C99FF0011124ED0FF11DBF
:102C4000EA5FFE4F90819F3F29F0F801E80FF11DE8
:102C500090838F5FDF91CF911F910F910895E09145
:102C6000CD02F091CE020994E091C902F091CA021E
:102C700009945F926F927F928F929F92AF92BF92D0
:102C8000CF92DF92EF92FF920F931F93CF93DF9338
:102C900000D000D0CDB7DEB74C013B01FC01108164
:102CA000110F812F880F880F180F3AE0310F313341
:102CB00008F030E3809127048983809128048A8377
:102CC000809129048B8360912A0466958091540435
:102CD000909155043C830E94DB12582E3C811317BF
:102CE00008F045C0A12EB12CF501E654FE4F9081AD
:102CF000F40181818923C9F1F501EE0FFF1FE65A26
:102D0000FE4FE080F12CF0E7EF1AF108F501EE0F2D
:102D1000FF1FE55AFE4FC080D12C80E2C81AD108AF
:102D2000EE9CA001EF9C500D500D1124CC9CC001D5
:102D3000CD9C900D900D1124840F951F3C830E9413
:102D4000E612052D282FA601B701CE010196F30149
:102D5000099569817A818B810E944212462F282F22
:102D6000672FC5010E9434163C811F5FB8CF81E0F8
:102D7000303308F080E00F900F900F900F90DF91AC
:102D8000CF911F910F91FF90EF90DF90CF90BF9068
:102D9000AF909F908F907F906F905F90089563EABF
:102DA00075E10C94391668EB75E10C9439166AEBF1
:102DB00073E10C94391663EE75E10C9439169F9209
:102DC000AF92BF92CF92DF92EF92FF920F931F9339
:102DD000CF93DF9300D01F92CDB7DEB76C015B01BC
:102DE000FC011081110F812F880F880F180F0AE046
:102DF000010F013308F000E380912704898380915B
:102E000028048A83809129048B8360912A04669523
:102E100080915404909155040E94DB12982E101753
:102E200080F5E12EF12CF701E654FE4F9081F6017A
:102E30008181892321F1F701EE0FFF1FE55AFE4F33
:102E4000408150E040525109F701EE0FFF1FE65A52
:102E5000FE4F6081A62FB0E0BD0160577109292D9A
:102E6000CE010196F501099569817A818B810E94D5
:102E70004212462F282F672FC7010E9434161F5F6A
:102E8000CECF81E0003308F080E00F900F900F90DC
:102E9000DF91CF911F910F91FF90EF90DF90CF9036
:102EA000BF90AF909F9008956BE775E10C94DF168B
:102EB0006FE875E10C94DF1666EC73E10C94DF1695
:102EC0006DEC75E10C94DF169F92AF92BF92CF929A
:102ED000DF92EF92FF920F931F93CF93DF9300D077
:102EE0001F92CDB7DEB77C016B01FC011081110F81
:102EF000812F880F880F180F0AE0010F013308F0A7
:102F000000E3809127048983809128048A8380913B
:102F100029048B8360912A046695669580915404F8
:102F2000909155040E94DB12982E1017E8F4A12E00
:102F3000B12CF501E654FE4F8081F7019181982371
:102F400089F0492D612FCE010196F601099569811D
:102F50007A818B810E944212462F282F672FC5014C
:102F60000E9434161F5FE1CF81E0003308F080E05B
:102F70000F900F900F90DF91CF911F910F91FF90C5
:102F8000EF90DF90CF90BF90AF909F90089569E34E
:102F900073E10C94641761E673E10C94641769E8BB
:102FA00073E10C9464176CE873E10C94641767E99F
:102FB00073E10C94641762EA73E10C9464177F92D6
:102FC0008F929F92AF92BF92CF92DF92EF92FF9239
:102FD0000F931F93CF93DF9300D000D0CDB7DEB710
:102FE0006C015B01FC011081110F812F880F880F8C
:102FF000180F3AE0310F313308F030E380912704A5
:103000008983809128048A83809129048B8360912D
:103010002A046695669580915404909155043C83EA
:103020000E94DB12F82E80E48F0D0E94181390E8A6
:10303000E92EE80E8F2D0E94181320E8722E780ECC
:103040003C81131708F5812E912CF401E654FE4FB4
:103050008081F60191819823A9F00F2D212F472D12
:103060006E2DCE0101963C83F501099569817A8127
:103070008B810E944212462F282F672FC4010E9485
:1030800034163C811F5FDDCF81E0303308F080E0F3
:103090000F900F900F900F90DF91CF911F910F9194
:1030A000FF90EF90DF90CF90BF90AF909F908F9068
:1030B0007F9008956EEE73E10C94DF176FE174E179
:1030C0000C94DF1760E574E10C94DF178F929F92E8
:1030D000AF92BF92CF92DF92EF92FF920F931F9326
:1030E000CF93DF9300D01F92CDB7DEB76C015B01A9
:1030F000FC011081110F812F880F880F180F0AE033
:10310000010F013308F000E3809127048983809147
:1031100028048A83809129048B8320912A0430E03B
:1031200040E050E06FEF7FEF80E090E00E94C63714
:1031300079011017E0F5812E912CF401E654FE4F31
:103140009081F6018181892381F190912B04915026
:1031500097FD15C0292F092E000C330BF901E55DF1
:10316000FB4F81898113F3CF220F331FF901E55DF6
:10317000FB4F218D328D2E153F0548F701C0970179
:1031800060912A04C9010E94DB12BC01CE010196A4
:10319000F501099569817A818B810E944212462F3F
:1031A000282F672FC4010E9434161F5FC2CF81E011
:1031B000003308F080E00F900F900F90DF91CF91D7
:1031C0001F910F91FF90EF90DF90CF90BF90AF9045
:1031D0009F908F9008956FE874E10C94661868E9E9
:1031E00074E10C9466182F923F924F925F926F9207
:1031F0007F928F929F92AF92BF92CF92DF92EF9287
:10320000FF920F931F93CF93DF93CDB7DEB729972C
:103210000FB6F894DEBF0FBECDBF282E4B013A018A
:10322000DB013C90330C832D880F880F380EBAE0F9
:10323000B30DBC83B13310F0E0E3EC83809128043C
:103240008A83F0912B04FD834C81341608F074C0FE
:10325000C32CD12CF601E654FE4F9081D401119677
:103260008C91892309F466C08091270489831B828D
:10327000322DC601880F991FFC01E65AFE4F2F011F
:10328000C601880F991FAC01455A5E4F5A01FD8156
:103290003F1708F03DC0032F10E0D201EC90F12C55
:1032A000F801E55DFB4F8181E81AF108D5014C91E9
:1032B00050E08185481B5109EE9CB001EF9C700DD8
:1032C000700D1124449FC001459F900D900D112455
:1032D000860F971F39874F8358870E94E612282F41
:1032E000000F111FF801E55DFB4F60912A04818DED
:1032F000928D2E830E94DB128C012E814F81588586
:10330000B701CE010196F301099539853F5FBFCF23
:10331000309129042B81239F212D11242B83698136
:103320007A818B810E944212462F282F672FC60177
:103330000E943416339488CF81E0403308F080E057
:1033400029960FB6F894DEBF0FBECDBFDF91CF91A7
:103350001F910F91FF90EF90DF90CF90BF90AF90B3
:103360009F908F907F906F905F904F903F902F90A5
:10337000089520912B0431E0231B08F420E042EA59
:1033800054E1BC01822F0C94F31842EA54E1BC01D1
:1033900080E00C94F31820912B0431E0231B08F4F7
:1033A00020E049EB54E1BC01822F0C94F31849EB67
:1033B00054E1BC0180E00C94F31820912B0431E01F
:1033C000231B08F420E04FEE54E1BC01822F0C9443
:1033D000F3184FEE54E1BC0180E00C94F3182091F7
:1033E0002B0431E0231B08F420E04CE155E1BC0143
:1033F000822F0C94F3184CE155E1BC0180E00C9451
:10340000F31820912B0431E0231B08F420E043E360
:1034100055E1BC01822F0C94F31843E355E1BC0144
:1034200080E00C94F318DF92EF92FF920F931F93BA
:10343000CF93DF9300D0CDB7DEB78C01DC018C9148
:10344000880F982F990F990FD82ED90E3AE03D0D7D
:10345000313308F030E360912704709128048091A3
:1034600029043A830E944212F62EE82E3A81D3169E
:10347000B8F4ED2DF0E0DF01A654BE4F8C91D801D9
:1034800011969C91982351F02E2D4F2D672FCF012F
:103490003A8379830E94341679813A81D394E7CFB5
:1034A00081E0303308F080E00F900F90DF91CF91F2
:1034B0001F910F91FF90EF90DF900895BF92CF92F0
:1034C000DF92EF92FF920F931F93CF93DF936C01E4
:1034D000FC01C081CC0F8C2F880F880FC80FDAE059
:1034E000DC0FD13308F0D0E300912804B090290418
:1034F00020912A0410E4129F112D1124CD1718F5E4
:10350000EC2EF12CF701E654FE4F8081F6019181FB
:103510009823B9F0F701EE0FFF1FE55AFE4F908197
:1035200092959F7060912704199F600D1124702F50
:103530008B2D0E944212462F282F672FC7010E9411
:103540003416CF5FDBCF81E0D03308F080E0DF912D
:10355000CF911F910F91FF90EF90DF90CF90BF9090
:103560000895DF92EF92FF920F931F93CF93DF9313
:1035700000D0CDB7DEB78C01DC018C91D82EDD0CEC
:103580008D2D880F880FD80E5AE05D0D513308F04D
:1035900050E360912A04669566956695809154047F
:1035A000909155045A830E94DB12F09029040E94E6
:1035B00018138058982F97FD9195990F292F3F2D1B
:1035C000239F212D11246091270470912804822FBC
:1035D0000E944212F62EE82E5A81D516B8F4ED2D2F
:1035E000F0E0DF01A654BE4F8C91D80111969C915A
:1035F000982351F02E2D4F2D672FCF015A837983B9
:103600000E94341679815A81D394E7CF81E05033F8
:1036100008F080E00F900F90DF91CF911F910F91F4
:10362000FF90EF90DF900895AF92BF92CF92DF921C
:10363000EF92FF920F931F93CF93DF93CDB7DEB737
:1036400028970FB6F894DEBF0FBECDBFFB01828175
:103650009E012F5F3F4F7901882379F0A901608196
:1036600081810E941116D82E10925804109259048C
:1036700010925A0410925B0401C0D12CC090F30246
:103680000D2D10E0C8018C0D911D099764F188E0A3
:1036900090E05C01A01AB10AB8016C507D4FA50101
:1036A00084EF92E00E943A39B80164507D4FA50141
:1036B0008CEF92E00E943A39A501440F551FB801E2
:1036C000660F771F645F7C4F8CE093E00E943A396D
:1036D000B8016C5F7C4FA50184E093E00E943A3909
:1036E000CA94C092F3028091F302D701182F1E19D9
:1036F000212F2A0F9A2F9E199D1500F530E09D91DC
:10370000492F50E0B9016D507D4FFA01EE0FFF1FB8
:10371000E65AFE4F0081FB010183440F551FFA0159
:10372000E55AFE4F4081FB014187918B220F331FE9
:10373000F901ED50FD4F128E118EDACFD80ED092D6
:10374000F30281E028960FB6F894DEBF0FBECDBF1E
:10375000DF91CF911F910F91FF90EF90DF90CF906D
:10376000BF90AF90089508950E94B31B0C94A709D1
:10377000CF92DF92EF92FF920F931F93CF93DF933D
:1037800060911C0370911D0380911E0390911F0393
:103790000E9401306B017C01EB010E94CB2FAB0139
:1037A000BC0140931C0350931D0360931E03709350
:1037B0001F038091580490915904A0915A04B0912C
:1037C0005B048F3F2FEF9207A207B207E9F0EE24C8
:1037D000FF249701860100951095209530950817D4
:1037E00019072A073B0720F48FEF9FEFDC0104C085
:1037F0008C0D9D1DAE1DBF1D8093580490935904E0
:10380000A0935A04B0935B04A091F302E3EFF2E0BB
:103810002A2F30E07E01E094F0943A1771F0818D08
:10382000928DE816F90610F4215004C08C0F9D1FEC
:10383000928F818F3F5F3296F0CF2093F302809179
:103840002604982F937021F0D82FD695D69501C0D5
:10385000D0E09091EC019130E9F038F0923009F429
:103860000DC1933009F415C125C11092ED014093AB
:10387000540450935504609356047093570489E29E
:10388000E3EFF2E0ABE2B4E001900D928A95E1F74C
:1038900081E0FCC09091F001D9130EC0837090E0DC
:1038A0002091F10130E051E040E08217930709F4E4
:1038B00050E0852F942F02C081E090E0282F2170E6
:1038C0002093EF014D2F50E04132510508F0C4C064
:1038D000FA01EA58FF4F0C94E537C091ED01892BAE
:1038E00009F4BAC0CC0F8C2F880F880FC80F1AE0CC
:1038F0001C0F113308F010E3C11748F420E040E03A
:1039000060E08C2F90E00E943416CF5FF5CF81E00D
:10391000103308F4A2C0A0C08DEE91E00E94131AEB
:103920009CC08DEE91E00E945E1A97C08DEE91E0F2
:103930000E94B11A92C08DEE91E00E94C7178DC00F
:103940008DEE91E00E94CB1788C08DEE91E00E9431
:10395000541783C08DEE91E00E9458177EC08DEE03
:1039600091E00E94CF1679C08DEE91E00E94D316AF
:1039700074C08DEE91E00E94CF176FC08DEE91E084
:103980000E94D3176AC08DEE91E00E94D71765C0E0
:103990008DEE91E00E94DB1760C08DEE91E00E94F9
:1039A000D7165BC08DEE91E00E945C1756C08DEE7D
:1039B00091E00E94601751C08DEE91E00E94DB16ED
:1039C0004CC08DEE91E00E945A1847C08DEE91E0F8
:1039D0000E945E1842C08DEE91E00E9462183DC0C8
:1039E0008DEE91E00E94EB1838C08DEE91E00E94C0
:1039F000EF1833C08DEE91E00E94B9192EC08DEE04
:103A000091E00E94C51929C08DEE91E00E94CB196A
:103A100024C08DEE91E00E94D7191FC08DEE91E079
:103A20000E94DD191AC08DEE91E00E94E91915C0BF
:103A30008DEE91E00E94EF1910C08DEE91E00E9492
:103A4000FB190BC08DEE91E00E94011A06C08DEEAD
:103A500091E00E940D1A01C080E09091ED019F5FFE
:103A60009093ED01811126C082E08093EC0180915A
:103A7000EF0181111FC0DD2341F01CC0D093F00184
:103A800083708093F1010E942F1683E08093EC01F4
:103A900011C0609154047091550480915604909126
:103AA00057040E940130603171058105910510F0C5
:103AB0001092EC01DF91CF911F910F91FF90EF9049
:103AC000DF90CF900C94B41BE091C702F091C80234
:103AD000099510922B04E4E4F4E08FEF9FEF8193BB
:103AE000919324E0E435F207D1F71092F302ECE071
:103AF000F3E08FEF9FEF8193919323E0EC31F20796
:103B0000D1F70E942A2E811104C00E94AB2E0E9480
:103B1000FF150E94F5156093260470932704809387
:103B20002804909329048FE780932A046C7F61F422
:103B30000E94FF150E94F5156093260470932704D8
:103B400080932804909329040895E6E2F4E090819C
:103B500081E0892780831092EC01608171818281EC
:103B600093810C94F91580912604837011F41092BE
:103B7000EC01809126048C7F816080932604089557
:103B80000E94B31D6091260470912704809128043F
:103B9000909129040C94F91590912604892F86950B
:103BA00086958F5F8F739370813220F4880F880F12
:103BB000892B02C0892F8460809326041092EC0127
:103BC0006091260470912704809128049091290423
:103BD0000C94F91590912604892F86958695815C21
:103BE0008F739370882321F0880F880F892B02C070
:103BF000892F8068809326041092EC01609126043E
:103C00007091270480912804909129040C94F9154F
:103C1000E6E2F4E08181885F818360817181828145
:103C200093810C94F915E6E2F4E081818850818358
:103C300060817181828193810C94F915E6E2F4E050
:103C4000228130E1230F08F42FEF228360817181FC
:103C5000828193810C94F915E6E2F4E0228130E14F
:103C6000231B08F420E0228360817181828193818B
:103C70000C94F915E6E2F4E0238130E1230F08F417
:103C80002FEF238360817181828193810C94F915D8
:103C9000E6E2F4E0238130E1231B08F420E02383F3
:103CA00060817181828193810C94F915E6E2F4E0E0
:103CB000248130E1230F08F42FEF24836081718188
:103CC000828193810C94F915E6E2F4E0248130E1DD
:103CD000231B08F420E02483608171818281938119
:103CE0000C94F915E6E2F4E0880F880F9081937048
:103CF000892B80831092EC01608171818281938194
:103D00000C94F91580912604869586950895E6E22F
:103D1000F4E0818362834383608171818281938136
:103D20000C94F91567E784E70C946720CF930E9401
:103D3000A62084E70E94EC1E87E70E94EC1EC0E0EC
:103D400021E041E061E08C2F0E947E1FCF5FC033F5
:103D5000B9F767E784E7CF910C947A20ECE7F5E0B8
:103D60006083418324E630E042E050E0BF01880FE9
:103D70000C945821EF92FF921F93CF93DF937B0116
:103D8000182F110FC0E0D0E08C2F8C5D80937C0544
:103D900020E030E0F901EC0FFD1FEE0DFF1D8081EA
:103DA000F901E458FA4F81832F5F3F4F20313105ED
:103DB00089F724E630E041E150E06CE775E0812FBF
:103DC0000E9458216096C039D105F1F6DF91CF915C
:103DD0001F91FF90EF900895CF93DF93C82F4BE092
:103DE0006DEF0E94AE1E40E06AE08C2F0E94AE1E76
:103DF0008FE39CE90197F1F700C0000040E060E02C
:103E00008C2F0E94AE1E40E061E08C2F0E94AE1EFF
:103E100040E066E08C2F0E94AE1E40E06DEF8C2FDC
:103E20000E94AE1ED0E040E06D2F8C2F0E94AE1E8F
:103E3000DF5FD231C1F740E06D2F8C2F0E94AE1EA4
:103E4000DF5FD432C1F740E06D2F8C2F0E94AE1E91
:103E5000DF5FD43BC1F74BE06DEF8C2F0E94AE1EAD
:103E600041E06AE08C2F0E94AE1E40E06DEF8C2F87
:103E7000DF91CF910C94AE1E8033910520F5880F11
:103E8000991F880F991FFC01E150FE4F5281338129
:103E9000808183707181E0E98E9FC0011124845A72
:103EA0009B4FFC01E70FF11DB4976083FC01E50F08
:103EB000F11DB4974083830F911DFC01B4972083BB
:103EC00081E0809346030895FF920F931F93CF9351
:103ED000DF93182F062FF42EC0E0D0E02F2D402FB7
:103EE000612FCE010E943C1F2196C033D105B1F74E
:103EF000DF91CF911F910F91FF9008954F925F92A4
:103F00007F928F929F92AF92BF92CF92DF92EF9269
:103F1000FF920F931F93CF93DF93362F54E0859F2B
:103F2000C0011124FC01E150FE4FA081A3707A2E44
:103F3000618170E0CB0184978C0197FF02C0095F1B
:103F40001F4FA3E015950795AA95E1F7628170E0F0
:103F50007B0154E2E51AF108E701F7FC279673E0CC
:103F6000D595C7957A95E1F7638170E04B01E4E25E
:103F70008E1A9108F40197FC37962F0153E055945F
:103F800047945A95E1F768E0A62EB12CB5010E943E
:103F9000B2376C01C701B5010E94B2377C01C40180
:103FA000B5010E94B237A72DB0E01127DD243323DD
:103FB000A1F032E13A9FB0013B9F700D1124060F32
:103FC000171F0E5D1C4F61E070E001C0660FCA94C0
:103FD000EAF7F8013081632B14C032E13A9FB00157
:103FE0003B9F700D1124060F171F0E5D1C4F61E0E3
:103FF00070E001C0660FCA94EAF76095F80130815D
:1040000063236083DD27FF2432E1442391F03A9F4C
:10401000A0013B9F500D1124C40FD51FCE5DDC4F76
:1040200041E050E001C0440FEA94EAF73881432BA5
:1040300012C03A9FA0013B9F500D1124C40FD51F01
:10404000CE5DDC4F41E050E001C0440FEA94EAF756
:104050004095388143234883A2015527992792E14F
:104060009A9FF0019B9FF00D1124E40FF51FEE5D68
:10407000FC4F222361F021E030E0A90102C0440F8F
:10408000551F8A95E2F7CA019081892B0CC021E067
:1040900030E0A90102C0440F551F8A95E2F7CA011A
:1040A000809590818923808381E080932103DF9133
:1040B000CF911F910F91FF90EF90DF90CF90BF9025
:1040C000AF909F908F907F905F904F900895CF9387
:1040D00090914603992351F0C62F6CE574E00E943D
:1040E000BA1E6CEE74E08C2F0E94BA1E109246032A
:1040F000CF910895EF92FF920F931F93CF93DF9389
:10410000909121039923D9F0162F082F82E2E82EEF
:1041100083E0F82EC0E0D0E0F70141917F016C2FE1
:10412000802F0E94AE1EFE01EE5DFC4F42896C2F77
:10413000812F0E94AE1E2196C231D10569F7DF9111
:10414000CF911F910F91FF90EF9008951092B900B9
:104150008CE08093B8000895EF92FF920F931F9325
:10416000CF93DF93182FEB011092BC0084EA809369
:10417000BC000E94BF2F7C019091BC0097FD0EC037
:10418000CF3F8FEFD807C1F30E94BF2F8E199F0931
:104190008C179D0788F38EEF9FEF2EC09091B9008A
:1041A000987F983041F09091B900987F903119F044
:1041B0008FEF9FEF21C01093BB0084E88093BC0079
:1041C0000E94BF2F8C019091BC0097FD0CC0CF3F87
:1041D0008FEFD807C1F30E94BF2F801B910B8C1764
:1041E0009D0788F3D8CF8091B900887F883111F07E
:1041F0008034F1F680E090E0DF91CF911F910F9134
:10420000FF90EF9008950F931F93CF93DF93EB01EF
:104210008093BB0084E88093BC000E94BF2F8C0178
:104220009091BC0097FD0EC0CF3F8FEFD807C1F330
:104230000E94BF2F801B910B8C179D0788F38EEF78
:104240009FEF0CC02091B900287F81E090E02832D8
:1042500011F480E090E0919581959109DF91CF91E3
:104260001F910F9108950F931F93CF93DF93EC014C
:1042700084E88093BC000E94BF2F8C019091BC0009
:1042800097FD0EC0CF3F8FEFD807C1F30E94BF2F1D
:10429000801B910B8C179D0788F38EEF9FEF03C057
:1042A0008091BB0090E0DF91CF911F910F91089515
:1042B000CF92DF92EF92FF920F931F93CF93DF93F2
:1042C0006B018A017901B9010E94AC20E6010C0D55
:1042D0001D1DC017D10761F424E92093BC00DF91B4
:1042E000CF911F910F91FF90EF90DF90CF900895A5
:1042F00097FDF2CFB70189910E940321EACF84E9AB
:104300008093BC0008950F931F93CF93DF93C62F24
:10431000D42F022FFC0182818823C9F060934903C6
:104320000E94BF2F909348038093470380E28C0F35
:10433000883008F050C0C77081E001C0880FCA956E
:10434000EAF7DF91CF911F910F910C9408251091FE
:104350004903161330C080914703909148030E948F
:10436000D72F883C910538F5C0E2CD0F1D17B9F065
:1043700080E2810F883040F4177081E001C0880F1F
:104380001A95EAF70E940F25C83048F481E09D2F66
:10439000977001C0880F9A95EAF70E940825802F30
:1043A0000E94F524C830B8F4D77081E001C0880FAE
:1043B000DA95EAF70AC080E28C0F883060F4C770A3
:1043C00081E001C0880FCA95EAF7DF91CF911F9174
:1043D0000F910C940F25DF91CF911F910F910895AC
:1043E0009C01CB01203F4CE53407F9F078F4283DDF
:1043F000FCE53F07B9F0293D4CE5340711F1273DB5
:104400003C4531F526E241EE61EE1EC0223FFCE55F
:104410003F0799F070F0233F3C45D1F427E245EE89
:1044200066EE12C027E245EE0EC026E241EE60EED7
:104430000BC027E245EE64EE07C026E241EE62EED5
:1044400003C028E241E065EE0E94832180E00895E8
:10445000FC018281882319F010924903089581E0BC
:10446000089590934F0380934E030895E0914E0377
:10447000F0914F03309721F00190F081E02D0994E5
:1044800080E00895E0914E03F0914F03309799F04A
:104490002091FE01222359F02091940527FF07C0A7
:1044A000DC012C9111962C93119725E02C9302801E
:1044B000F381E02D0994089520914C0330914D0330
:1044C0008217930771F090934D0380934C03E09112
:1044D0004E03F0914F03309721F00680F781E02DD5
:1044E0000994089520914A0330914B038217930752
:1044F00071F090934B0380934A03E0914E03F09147
:104500004F03309721F00084F185E02D0994089540
:1045100085B7806885BF85B7806885BF0895089591
:1045200008950C9490220C9452090E9488220E94B3
:104530008F220C94912281E008950E94B62F0E9450
:10454000D2070E9485300C949322CF92DF92EF9293
:10455000FF920F931F93CF93DF93CDB7DEB72B97C7
:104560000FB6F894DEBF0FBECDBF0E94FF070E94BA
:104570009B22811111C08FEF89838A831B820E9445
:10458000BF2F8160782F9D838C8349815A816B81F5
:104590008D810E944B2356C081E5C82E83E0D82E22
:1045A00000E010E0E02E802F0E946608F6014191A5
:1045B0006F01F42EF82631F40F5F1F4F0E301105F6
:1045C00089F7D9CF9091FC0391FF04C08B870E949B
:1045D0006C088B8520E030E04F2D50E0922FBA011F
:1045E000022E02C0759567950A94E2F760FF24C019
:1045F0002E83EF8221E030E0690102C0CC0CDD1C8B
:104600009A95E2F790E08C219D21892B09F420E016
:1046100028870E94BF2F8160782F9A8789874E81D3
:104620005F8168858A850E944B23F801EF5AFC4F11
:104630008081C826C08206C02F5F3F4F26303105DB
:1046400069F6BACF109150030E9436221817A1F0D4
:104650000E943622809350032B960FB6F894DEBF4B
:104660000FBECDBFDF91CF911F910F91FF90EF90C3
:10467000DF90CF900C94330C2B960FB6F894DEBFDE
:104680000FBECDBFDF91CF911F910F91FF90EF90A3
:10469000DF90CF900895CF93DF93CDB7DEB72B9700
:1046A0000FB6F894DEBF0FBECDBF4F835887698722
:1046B0007A878B87DE01119686E0FD0111928A953B
:1046C000E9F785E0FE01379601900D928A95E1F7B2
:1046D00049815A816B817C818D819E810E941B2A38
:1046E0002B960FB6F894DEBF0FBECDBFDF91CF91F2
:1046F0000895FC01808191810E94E82C089588230F
:1047000009F413C1682F8238C1F40E94362281FD5A
:104710000CC169E38091F2019091F3010E94122F84
:104720000E94762D2FEF81EE94E021508040904042
:10473000E1F700C0000069E319C08338F9F40E9472
:10474000362280FDF2C063E58091F2019091F30181
:104750000E94122F0E94762D2FEF81EE94E02150BF
:1047600080409040E1F700C0000063E58091F201D5
:104770009091F3010E941D2F0C94762D8438C1F482
:104780000E94362282FDD1C067E48091F2019091AF
:10479000F3010E94122F0E94762D2FEF81EE94E0FC
:1047A000215080409040E1F700C0000067E4DECF78
:1047B0008CEF860F813A38F48091F2019091F301E9
:1047C0000E94122FD9CF80E2860F883048F467709C
:1047D00081E001C0880F6A95EAF70E942A2DCCCFAC
:1047E0008BE5860F833070F4653A29F0663A31F034
:1047F00083E890E005C081E890E002C082E890E0A4
:104800000C945C2288E5860F873108F08EC0683AE8
:1048100009F445C0693A09F445C06A3A09F445C04B
:104820006B3A09F445C06C3A09F445C06B3B09F496
:1048300045C06C3B09F445C06D3A09F445C0603B86
:1048400009F445C06E3A09F445C06F3A09F445C011
:10485000613B09F445C0623B09F445C0633B09F480
:1048600045C0643B09F445C0653B09F445C0663B5F
:1048700009F445C0673B09F445C0683B09F445C0ED
:10488000693B09F445C06D3B09F445C06E3B09F432
:1048900045C06A3B09F445C080E090E044C082EE28
:1048A00090E041C089EE90E03EC08AEE90E03BC0CF
:1048B00085EB90E038C086EB90E035C083EB90E06C
:1048C00032C084EB90E02FC087EB90E02CC08CECE2
:1048D00090E029C08DEC90E026C083E891E023C0F1
:1048E0008AE891E020C082E991E01DC084E991E06E
:1048F0001AC081E292E017C083E292E014C084E221
:1049000092E011C085E292E00EC086E292E00BC018
:1049100087E292E008C08FE690E005C080E790E073
:1049200002C08AE292E00C9472220895882309F46E
:104930005BC0682F823879F40E94362281FF54C010
:1049400069E38091F2019091F3010E94122F0E947D
:10495000762D69E310C08338B1F40E94362280FFBF
:1049600043C063E58091F2019091F3010E94122F00
:104970000E94762D63E58091F2019091F3010E94EF
:104980001D2F0C94762D843879F40E94362282FFF4
:104990002BC067E48091F2019091F3010E94122FE5
:1049A0000E94762D67E4E7CF8CEF860F813A18F3EB
:1049B00080E2860F883048F4677081E001C0880F7C
:1049C0006A95EAF70E94302DDCCF8BE5860F8330A5
:1049D00020F480E090E00C945C22685A673120F467
:1049E00080E090E00C9472220895CF93C82F0E942B
:1049F0007F23C93349F42FEF83EC99E021508040A5
:104A00009040E1F700C000008C2FCF910C949624C9
:104A1000882321F00E942A2D0C94762D0895882356
:104A200021F00E94302D0C94762D08954F925F92C4
:104A30006F927F92BF92CF92DF92EF92FF920F938D
:104A40001F93CF93DF937C01062FC72FFC011581A5
:104A500012951F70D281D1110E944A2D0E94202DE3
:104A6000882379F0DD2369F080E2800F883048F0F8
:104A700082E00E94C12D0E94202D91E0B82EB9261F
:104A800001C0B12CCC2EC2948FE0C822D12CF601EB
:104A9000E956FF4F0C94E5378C2F807FCF70882329
:104AA00011F0C295C07FDD2399F0CC2309F479C1C0
:104AB00080E2800F883010F0011104C08C2F0E941A
:104AC0002A2D03C08C2F0E943D2D0E94762D69C196
:104AD000802F0E949624CC2309F488C180E2800FA5
:104AE000883010F0011104C08C2F0E94302D03C0BB
:104AF0008C2F0E94432D0E94762D78C18C2F807FB1
:104B0000CF70803211F0C295C07F002319F00130C0
:104B1000C9F021C0DD2371F0112341F0113031F4CF
:104B20000E945D2D8C2B0E94632D60C10E945D2D23
:104B30008C2BF1C0112319F0113009F457C10E94D8
:104B40006C2D11C0DD2321F0123008F04FC107C0D9
:104B500011114CC108C0DD2321F0111122C18C2F8D
:104B6000DAC011112FC18C2FDCC08C2F8695869551
:104B7000837090E0009719F0019761F037C1DD2351
:104B800021F0802F9C2F937002C080E090E00E9463
:104B90005C223CC1DD2321F0802F9C2F937002C04A
:104BA00080E090E00E94722231C18C2F837009F066
:104BB0004BC0D11127C1202F229526952770220F97
:104BC000220F602F6F70862F90E0A0E0B0E02C01E4
:104BD0003D01022E04C0440C551C661C771C0A942F
:104BE000D2F704FF10C08FE090E0A0E0B0E004C076
:104BF000880F991FAA1FBB1F2A95D2F78095909501
:104C0000A095B09503C080E090E0DC01C695C69504
:104C1000C370D0E0BC01CD0164297529862997298C
:104C2000C230D10559F0C330D10559F0219719F0A0
:104C30000E94602BE7C00E944E2BE4C00E94722BA2
:104C4000E1C00E944C2BDEC0DD2319F08C2F817057
:104C500001C08695882309F4D5C0202F229526957A
:104C60002770220F220F602F6F70862F90E0A0E038
:104C7000B0E02C013D01022E04C0440C551C661C02
:104C8000771C0A94D2F704FF10C08FE090E0A0E0F8
:104C9000B0E004C0880F991FAA1FBB1F2A95D2F746
:104CA00080959095A095B09503C080E090E0DC01E0
:104CB000C695C695C370D0E0BC01CD0164297529A5
:104CC00086299729C230D10559F0C330D10559F052
:104CD000219719F00E94252C95C00E94132C92C098
:104CE0000E94372C8FC00E94862B8CC0802F90E0B2
:104CF000FC01E05EF109E531F10508F04EC0E9552F
:104D0000FF4F0C94E5370F708C2F8F71DD2331F03E
:104D10000E94AC2B802F0E94082568C00E94CD2BDA
:104D2000802F0E940F2562C0DD2339F011115EC073
:104D30008C2F8F710E94F22B59C0123008F056C090
:104D4000F7CFDD2339F08C2F8F710E94AC2B4EC032
:104D5000DD23C9F38C2F8F710E94CD2B47C0DD233B
:104D600029F08C2F8F710E94972B40C00E94922BAC
:104D70003DC0DD2349F0CF718C2F0E94AC2B63E046
:104D80008C2F0E94AC2D32C081E00E94C12D1230C8
:104D900068F182E00E94C12D29C0DD2331F011238A
:104DA00091F2802F0E947F2321C0112399F20933B1
:104DB00049F4FFEF23EC89E0F15020408040E1F717
:104DC00000C00000802F0E94962410C04C2F4F700E
:104DD000602FC7010E945E0E0E94BF2A17C04C2F91
:104DE0004F70602FC7010E94610E10C098E0C91675
:104DF000D10441F05CF0FAE0CF1AD10822E0C216EB
:104E0000D10420F40E9436220E94330CBB20F1F022
:104E10000E941C2D80FD1AC0F70112820E94162DDF
:104E20000E94AC2BC7010E9434270E94162DDF91EF
:104E3000CF911F910F91FF90EF90DF90CF90BF9097
:104E40007F906F905F904F900C94CD2BDF91CF911E
:104E50001F910F91FF90EF90DF90CF90BF907F90C8
:104E60006F905F904F9008950F931F93CF93DF93B0
:104E7000EC01888199812B813C81232BB9F09F3FE4
:104E800011F48F3F99F0CE010E94450C882371F0F8
:104E9000688179818A810E94F32C8C010E94492CBF
:104EA0000E944B2BB801CE010E941625DF91CF91B5
:104EB0001F910F9108950E944A2D0E945A2D0E9421
:104EC000762D80E090E00E945C2280E090E00C94DF
:104ED00072228091F2019091F3010E94282F0C948C
:104EE0005B270E943A2D0C946927E92FE295EF7019
:104EF000F0E03297EE30F105B0F4E454FF4F0C943B
:104F0000E537803F91F018F4803E68F40EC0843F8E
:104F100051F40BC0803E48F0813F29F406C093FB5A
:104F2000882780F9089580E0089581E008950E941F
:104F3000E82C0E9475270895CF93DF9300D000D00E
:104F40001F92CDB7DEB70F900F900F900F900F907C
:104F5000DF91CF910895CF93DF9300D000D000D0A0
:104F6000CDB7DEB726960FB6F894DEBF0FBECDBF25
:104F7000DF91CF9108951F93CF93DF93C09160038A
:104F800016E080916103C81799F0D0E01C9FF001F2
:104F90001D9FF00D1124EE59FC4F4081518162811B
:104FA0007381848195810E94AB272196C770E9CFD8
:104FB000DF91CF911F9108954091920350919303F7
:104FC000609194037091950380919603909197035B
:104FD0000C94AB278091970382958F7009F054C091
:104FE00080919403882309F44FC080916003A091BD
:104FF00061036091920370919303409195035091E6
:105000009603B6E08A1709F43FC090E041155105B8
:10501000C1F17F3F11F46F3FA1F1B89FF001B99F3B
:10502000F00D1124EE59FC4F218172132AC020810A
:10503000621327C02281211124C0238134812417C7
:10504000350710F421503109241B350B283C31055C
:10505000C0F4209197032F7020612093970326E0DE
:10506000289FF001299FF00D1124E959FC4F808100
:105070008F708061808382E993E00E9434270C94D2
:10508000BB2701968770BECF0895CF92DF92EF9233
:10509000FF920F931F93CF93DF93CDB7DEB7629745
:1050A0000FB6F894DEBF0FBECDBF8C0185E0F801CE
:1050B000DE011D9601900D928A95E1F7D8014C9181
:1050C00011965C91119712966C9112971396CD9050
:1050D000DC90149730919203709193038091950323
:1050E00090919603009709F46BC17F3F19F43F3FFD
:1050F00009F466C1E0909403EE2009F4C0C0209149
:105100009703C816D90628F0F601E81BF90BCF0162
:1051100004C0809590958C0D9D1DFF24F394883CD0
:10512000910578F0F12C207F09F0C6C07C2DD98A3A
:10513000C88A89890E949C2782E993E00E943427CB
:10514000B1C0822F807F09F046C0751314C034139C
:1051500012C0611110C02F702061209397030E942C
:10516000DC2782E993E00E94342780919703D801DD
:1051700015968C932EC0CD2819F15F3F11F44F3F47
:10518000F9F0F62E61111CC080916003209161033B
:1051900036E0821709F45AC090E0389FF001399F39
:1051A000F00D1124EE59FC4F7181571306C0708128
:1051B000471303C07281711103C001968770E9CF54
:1051C000F62E662309F427C18091970381608093AE
:1051D0009703F12C20C1751308C0341306C0611168
:1051E00004C080919703D801C3C04D875E878D8529
:1051F0009E856A8B0E9497276A898823E1F166233E
:10520000D1F120919703822F82958F7090E00297C1
:1052100074F0809192039091930398878F831986FD
:10522000DB86CA862C87CE0107960E94342786E04B
:10523000F801A2E9B3E001900D928A95E1F70E948E
:10524000EA270E94DC27FF24F394E5C04D875E87A0
:105250008D859E850E94E82C292F22952F7030E0A5
:10526000223031050CF0CBC09F7009F0C5C0805EC4
:10527000883008F4D0C0C8010E943427E4CFC81693
:10528000D90608F453C0F601E81BF90BCF01883C9E
:10529000910508F450C0F12C7C2DD98AC88A8989DF
:1052A0000E949C27E2E9F3E086E0DF011D928A95E7
:1052B000E9F70E94DC27AFC0751314C0341312C085
:1052C000611110C080919703F8018583C8010E9485
:1052D000342786E0E2E9F3E0DF011D928A95E9F7E1
:1052E000FE2C99C04D875E878D859E856A8B0E94B6
:1052F00097276A89882309F4BECF662309F4BBCFB8
:1053000020919703822F82958F7090E002970CF482
:105310008ECF80919203909193039A8389831B820D
:10532000DD82CC822E83CE0101967FCF8095909531
:105330008C0D9D1DACCFF62E662309F49CCF751302
:105340002EC034132CC02091970320FD1FC0822F44
:1053500082958F70D9F0D80115962C9315978F30C0
:1053600049F08F5F982F9295907F822F8F70892BB5
:1053700015968C93C8010E94342786E0F801A2E9B3
:10538000B3E001900D928A95E1F793CF86E0F801A2
:10539000A2E9B3E001900D928A95E1F73CC04D87F8
:1053A0005E878D859E850E949727811140CF8091D1
:1053B0009703816080939703C8010E9434272BC014
:1053C000662309F458CF4D875E878D859E850E94A0
:1053D0009727F82E882309F44ECF86E0F801A2E93A
:1053E000B3E001900D928A95E1F782E993E00E9483
:1053F00079230E94EA275DCF811139CF0CC0243078
:1054000031050CF038CF9F7009F431CFF801958148
:10541000907F09F02CCF8F2D62960FB6F894DEBFE7
:105420000FBECDBFDF91CF911F910F91FF90EF90F5
:10543000DF90CF9008951F93CF93DF93CDB7DEB762
:105440002C970FB6F894DEBF0FBECDBF4F835887A1
:1054500069877A878B879C87CE0107960E944528AB
:10546000882369F08F8198852A853B85232BF1F16C
:105470009F3F09F063C08F3F09F060C037C086E0EE
:10548000FE013796DE01119601900D928A95E1F7A3
:105490006F817885EA85FB85309741F17F3F11F474
:1054A0006F3F21F12091610330E0C90101968770BF
:1054B00099274091600350E08417950709F447C08D
:1054C00069837A83FD83EC8396E0929FD001939F5A
:1054D000B00D1124AE59BC4FFE01319601900D92D2
:1054E0009A95E1F7809361030E94BB2716E08091B3
:1054F0006003909161038917C1F1189FC0011124C5
:105500008E599C4F0E944528882379F1E0916003D1
:105510001E9FF0011124EE59FC4F408151816281A0
:105520007381848195810E94AB278091600390E014
:1055300001968770992780936003D9CF4F81588552
:1055400069857A858B859C850E94AB27CFCF0E9489
:1055500071271092610310926003E2E9F3E086E0A4
:10556000DF011D928A95E9F7C1CF2C960FB6F8940A
:10557000DEBF0FBECDBFDF91CF911F910895EF9297
:10558000FF920F931F93CF93DF938C01892B09F424
:105590006CC0F12CEE24E394E8012196F80184918B
:1055A000843740F4843008F051C0813081F082307B
:1055B00019F15BC0853709F444C0A8F19CE7980F46
:1055C000903708F052C08F770E94962441C00E5F3A
:1055D0001F4FFE01C49180E28C0F883048F4C770E1
:1055E0008E2D01C0880FCA95EAF70E944D2D14C078
:1055F0008C2F0E947F232DC00E5F1F4FFE01C49190
:1056000080E28C0F883058F4C7708E2D01C0880F4F
:10561000CA95EAF70E94532D0E94762D1AC08C2F4E
:105620000E94962416C00E5F1F4FFE01C491CC232A
:1056300081F08FE99FE00197F1F700C00000C150B1
:10564000F6CF0E5F1F4FFE01F49003C00E947F2330
:105650008E018F2D882309F49FCFEFE9FFE031976A
:10566000F1F700C000008150F5CFDF91CF911F917D
:105670000F91FF90EF90089508950C943C2B0E9499
:105680003D2B6093D3037093D4038093D503909301
:10569000D6030C945B2708950C943F2B0F931F9314
:1056A0000091D3031091D4032091D5033091D603F8
:1056B000602B712B822B932B1F910F910C943F2BFE
:1056C0000F931F930091D3031091D4032091D5031E
:1056D0003091D60360237123822393231F910F916E
:1056E0000C943F2B0F931F930091D3031091D4037D
:1056F0002091D5033091D603602771278227932705
:105700001F910F910C943F2B0C94970A0E94842BAD
:105710006093CF037093D0038093D1039093D2030F
:105720000C945B2760E070E0CB010C94862B0F9308
:105730001F9341E050E060E070E08A019B0104C0EB
:10574000000F111F221F331F8A95D2F7C901B8011C
:105750001F910F910C94862B0F931F9341E050E003
:1057600060E070E004C0440F551F661F771F8A95E4
:10577000D2F78091CF039091D003A091D103B09143
:10578000D2038A019B01082B192B2A2B3B2BC90121
:10579000B8011F910F910C94862B0F931F9341E03A
:1057A00050E060E070E004C0440F551F661F771F93
:1057B0008A95D2F740955095609570958091CF036A
:1057C0009091D003A091D103B091D2038A019B01A3
:1057D000082319232A233B23C901B8011F910F91E4
:1057E0000C94862B0F931F9341E050E060E070E033
:1057F00004C0440F551F661F771F8A95D2F780910A
:10580000CF039091D003A091D103B091D2038A012C
:105810009B01082719272A273B27C901B8011F9197
:105820000F910C94862B0F931F930091CF0310912F
:10583000D0032091D1033091D203602B712B822BA6
:10584000932B1F910F910C94862B0F931F93009114
:10585000CF031091D0032091D1033091D203602364
:105860007123822393231F910F910C94862B0F9306
:105870001F930091CF031091D0032091D103309159
:10588000D20360277127822793271F910F910C94D1
:10589000862B0895292F220F920F990F890FA82F79
:1058A000A695A695A695877051E001C0550F8A95DB
:1058B000EAF785E0A89FD001112420E030E070E0F5
:1058C000F901EA0FFB1FE856FC4F4081CB01022E85
:1058D00002C0969587950A94E2F781709927819581
:1058E00084278523842780832F5F3F4F2530310510
:1058F00039F70895292F220F920F990F890F682FDA
:10590000669566956695982F977085E0689FB001BB
:10591000112440E050E080E0FA01E60FF71FE8565E
:10592000FC4F208130E0092E02C0369527950A945D
:10593000E2F721703327042E01C0220F0A94EAF700
:10594000822B4F5F5F4F4530510531F70895BF926D
:10595000CF92DF92EF92FF920F931F93CF93DF933B
:105960008C01C090D303D090D403E090D503F09085
:10597000D6038091CF039091D003A091D103B09131
:10598000D203C82AD92AEA2AFB2ACFE1D0E0D701DC
:10599000C6010C2E04C0B695A795979587950A94D5
:1059A000D2F780FF07C0BC2EB8018C2F0E947C0E5E
:1059B000019719F4219758F7B12C8B2DDF91CF91D6
:1059C0001F910F91FF90EF90DF90CF90BF900895BF
:1059D000CF93DF93EC010E94A72CBE010E947C0EA6
:1059E000DF91CF9108951F93CF93DF93EB019091B7
:1059F0005F03992321F0CB010E94E82C13C0882378
:105A000049F0CB010E94A72C182F682FCE010E94CD
:105A10004A2C04C0CB010E947A2C182FBE01812F82
:105A20000E947C0EDF91CF911F9108958091D70342
:105A300085958595859508958091D70387700895FC
:105A40009091D703977081E009F480E008958091E8
:105A5000FB0308959091FB03892B8093FB0308952A
:105A600080959091FB0389238093FB030895809395
:105A7000FB0308951092FB0308959091FA03892B7C
:105A80008093FA03089580959091FA038923809377
:105A9000FA0308951092FA0308959091F903892B5F
:105AA0008093F903089580959091F9038923809359
:105AB000F90308951092F90308958091D803089589
:105AC00008950C94602D9091D803981721F080933D
:105AD000D8030C94612D08958091D803882329F070
