:100000000C9425060C9442060C9442060C9442066D
:100010000C9442060C9442060C9442060C94420640
:100020000C9442060C9442060C94E8360C94BA37B1
:100030000C949B310C9442060C9442060C9442069C
:100040000C9442060C9442060C9442060C94420610
:100050000C9442060C9403320C9442060C94420613
:100060000C9442060C9442060C9442060C944206F0
:100070000C9442060C9442060C9442060C944206E0
:100080000C9442060C9442060C9442060C944206D0
:100090000C9442060C9442060C9442060C944206C0
:1000A0000C9442060C9442060C9442069A069D0655
:1000B000A006A306A606A906AC069D10A210A610CF
:1000C000B010BC10C610291166116B1175116911A1
:1000D0006E1173117111B912BB12C612BD12BF128B
:1000E000C112C312C512C812CA12CC12D712CE1234
:1000F000D012D212D412D612D912601F631F661FFB
:10010000691F6C1F6F1F721F751F781F7B1F7E1F5B
:10011000592759278B278B27C2270F290F290F29EA
:10012000E2270F298F288F28FF280F290F29082958
:100130009C289C289C289C289C289C289C289C289F
:100140009C289C289C289C289C289C289C289C288F
:10015000AD28BA28C128C828D22896299629A829C6
:10016000A8299F29A829A829A82996299629A42938
:10017000A829A829A42927384E3840394E384039B3
:100180009A38BD3840391339223905A84CCDB2D43C
:100190004EB93836A9020C50B9918688083CA6AAF7
:1001A000AA2ABE000000803F6572676F646F785FA7
:1001B000657A2F616C6563672040204E4100000026
:1001C000F0A100000000000000000000000000009E
:1001D000000000000000000000000000000000001F
:1001E000000000000000000000000000000000000F
:1001F00000000000000000000000000000000000FF
:1002000000000000000000000000000000000000EE
:1002100000000000000000000000000000000000DE
:1002200000000000000000000000000000000000CE
:1002300000000000000000000000000000000000BE
:1002400000000000000000000000000000000000AE
:1002500000009AFFFF9AFFFF9AFFFF9AFFFF9AFFA5
:10026000FF9AFFFF9AFFFF9AFFFF9AFFFF9AFFFF97
:100270009AFFFF9AFFFF9AFFFF9AFFFF9AFFFF9AEC
:10028000FFFF9AFFFF9AFFFF9AFFFF9AFFFF9AFF77
:10029000FF9AFFFF9AFFFF9AFFFF9AFFFF9AFFFF67
:1002A0009AFFFF9AFFFF9AFFFF9AFFFF9AFFFF9ABC
:1002B000FFFF00CCFF9AFFFF9AFFFF9AFFFF00CCE1
:1002C000FF00CCFF00CCFF9AFFFF9AFFFF9AFFFFD1
:1002D0009AFFFF9AFFFF9AFFFF9AFFFF9AFFFF9A8C
:1002E000FFFF69FFFF69FFFF69FFFF69FFFF69FF0C
:1002F000FF69FFFF69FFFF69FFFF69FFFF69FFFFFC
:1003000069FFFF69FFFF69FFFF69FFFF69FFFF6981
:10031000FFFF69FFFF69FFFF69FFFF69FFFF000043
:100320000000000000000000000069FFFF69FFFFFF
:1003300069FFFF69FFFF69FFFF0000000000000088
:1003400000000000000000000000009AFFFFF9E438
:10035000FF9AFFFF00000000000000000000000006
:10036000000000000000000000000000000000008D
:1003700000000000000000000EFFFF0EFFFF0EFF58
:10038000FF69FFFF23FFFF23FFFF23FFFF0EFFFF98
:1003900069FFFF23FFFF23FFFF23FFFF000000F99A
:1003A000E4FF23FFFF23FFFF23FFFF69FFFF0000A0
:1003B0000023FFFF23FFFF000000000000000000FB
:1003C000000000000000000000000000000000230A
:1003D000FFFF00000000000000000023FFFF23FFDC
:1003E000FF23FFFF000000000000000000000000ED
:1003F00000000000000023FFFF23FFFF00000000BB
:1004000000000000000000000000000000000000EC
:1004100000000000000000FA9FFF00000000000044
:10042000000000FA9FFFFA9FFFFA9FFF0000000004
:1004300000000000000000000000000000000000BC
:1004400000000000000000000000000000000000AC
:100450000000000000000000000000000000000E8E
:10046000FFFF00000000000000000069FFFF0EFF1A
:10047000FF69FFFF00000000000000000000000016
:10048000000000000000000000000000000000006C
:10049000000000000000000000000000000000005C
:1004A0000000000086FFD586FFD586FFD50000003E
:1004B00000000086FFD586FFD586FFD5000000002E
:1004C000000086FFD555CB9E86FFD50000000000BA
:1004D000000AE1FF00000000000000000000000032
:1004E000000000000000000000000000000000000C
:1004F00000000000000000000000000000000000FC
:1005000000000000000000000000000000000000EB
:1005100000000000000000000000000000000000DB
:10052000000029002B002A00E100350000001E0019
:10053000140004001D003400F75C1F001A001500B1
:100540001B000100025120000900160006000004F3
:100550002C002100130017001900E000C35C2200EA
:100560000A000700050000006500035101000000BB
:1005700005510000E30001530100000000070000E6
:10058000E70023000D000B000E0000004C002400CB
:100590000F00110010000451F55C25001800080040
:1005A00036000100280026001C000C003700010066
:1005B000000427003300120038000100F65C2D0013
:1005C00031003400E50001000000010001000100DD
:1005D0000100010000001E00140004001D000100C5
:1005E000F25C1F001A0016001B0001000100200031
:1005F00008000700060001000100210015000900A5
:1006000019000100C35C220017000A000500000069
:100610000100010010500000010000000100010075
:100620000100000001000000010023001C000B007D
:10063000110000000100240018000D00100001004E
:10064000C55C25000C000E003600010001002600EC
:1006500012000F00370001000100270013003300D3
:1006600038000100C65C010001000100010001002A
:1006700000000100010001000100010000003A003B
:100680000100010001000100CA5C3B0001001507E8
:100690000100010001003C000100160701000100FB
:1006A00001003D000100170701000100C95C3E0088
:1006B00001000100010000000100010010500000D5
:1006C0000100000001000100010000000100000025
:1006D000C25C3F002502210222020000F25C4000C1
:1006E0002F0226022F000100F35C41003002270296
:1006F00030000100C55C42002D0256001F020100BF
:10070000C65C43002E022E0020020100F45C44006F
:10071000450001000100010000000100010001008E
:1007200001000100000001000100010001000100C2
:10073000010001000100F2000100010001000100C0
:10074000F000F1000100F400010001000100F300DD
:100750000100F5000100010001000100010000009E
:100760000100010010500000010000000100010024
:10077000010000000100000001000100A900AA0022
:10078000A800000001000100240021001E0001005B
:1007900001005400250022001F0062000C005500DB
:1007A00026002300200063000100560057000000CF
:1007B00058000100010001000100010001000100DA
:1007C0000000010001000100010001000000010023
:1007D00000000000000001000100000000004A00CD
:1007E00000000100010000004B004E00000001006D
:1007F0000100000000004D000000010001000100A8
:100800000000000000000000010001001050000086
:1008100001000000010001000100000001000000D3
:1008200001000100000000000000000001000000C5
:1008300000005000000001000100000052005100C3
:10084000000001000100000000004F000000010056
:100850000100010000000000000001000100010093
:100860000100010001000100000001000100010081
:100870000100010000000100010001000100010071
:100880000100010001000100010001000100010060
:100890000100010001000100010001000100010050
:1008A0000100010001000100010001000100000041
:1008B0000100010001000000010000000100010032
:1008C0000100000001000000010001000100010022
:1008D0000100000001000100240721071E0701009C
:1008E00001000100250722071F072707010001005B
:1008F0002607230720070100010001000100010075
:1009000001000100010001000100010001000100DF
:10091000000000000000000000002A2B280000005A
:10092000000000000000000000000000002900009E
:1009300000002C1E3420212224342627252E362D7B
:100940003738271E1F202122232425263333362E15
:1009500037381F0405060708090A0B0C0D0E0F1087
:100960001112131415161718191A1B1C1D2F3130CC
:10097000232D350405060708090A0B0C0D0E0F1070
:100980001112131415161718191A1B1C1D2F3130AC
:10099000354C0000000000000000000000000000D6
:1009A0000000000000000000000000000000000047
:1009B000000000010101010101000101010100002D
:1009C0000000000000000000000000000100010025
:1009D0000101010101010101010101010101010107
:1009E00001010101010101010101010101000000FA
:1009F00001010000000000000000000000000000F5
:100A000000000000000000000000000000010101E3
:100A100001000000000000010101010101010101CC
:100A2000020202020202020202030303030303039F
:100A3000030404040404040505050505060606066A
:100A40000607070707080808080909090A0A0A0A21
:100A50000B0B0B0C0C0C0D0D0D0E0E0F0F0F1010C1
:100A60001111111212131314141515161617171845
:100A70001819191A1A1B1C1C1D1D1E1F1F202021AE
:100A800022222324252526272728292A2B2B2C2DF3
:100A90002E2F2F30313233343536363738393A3B12
:100AA0003C3D3E3F4041424344464748494A4B4C07
:100AB0004D4F50515253555657585A5B5C5E5F60CC
:100AC0006263646667696A6C6D6E70717374767860
:100AD000797B7C7E8081838486888A8B8D8F9192BE
:100AE0009496989A9B9D9FA1A3A5A7A9ABADAFB1E2
:100AF000B3B5B7B9BBBDBFC1C4C6C8CACCCFD1D3CB
:100B0000D6D8DADCDFE1E4E6E8EBEDF0F2F5F7FA6F
:100B1000FCFF04033000000016034500720067006C
:100B20006F0044006F007800200045005A0000006C
:100B300016034500720067006F0044006F007800E4
:100B4000200045005A0000000403090409023B008C
:100B5000020100A0FA0904000001030101000921BB
:100B6000110100012240000705810308000A090461
:100B700001000103000000092111010001227100A0
:100B80000705820320000A1201100100000008ED91
:100B9000FE071301000102030105010980A101857F
:100BA000031601002603001A81002A8300751095A0
:100BB000018100C0050C0901A10185041601002670
:100BC0009C021A01002A9C02751095018100C00543
:100BD000010906A1018505050719E029E71500258A
:100BE000019508750181020508190129059505750A
:100BF0000191029501750391010507190029EF156F
:100C000000250195F075018102C005010906A101C9
:100C1000050719E029E715002501950875018102EE
:100C200095017508810105081901290595057501CA
:100C300091029501750391010507190029FF15001F
:100C400026FF00950675088100C011241FBECFEF56
:100C5000DAE0DEBFCDBF12E0A0E0B1E0E0E5FBE707
:100C600002C005900D92A83AB107D9F726E0A8EA8C
:100C7000B2E001C01D92AA33B207E1F70E940C3422
:100C80000C94A63D0C94000080B38C7080BB81B3A3
:100C9000836F81BB089584B1807F84B985B1807FE3
:100CA00085B98AB1837F8AB98BB1837F8BB93E982E
:100CB00046980895CF93E82F873090F580910401EE
:100CC00090910501892B09F049C0CE2F64E670E0B0
:100CD00080E40E9446239093050180930401892BB0
:100CE000D1F464E670E082E10E949D2390930501B7
:100CF00080930401892B79F481E090E001C0880F92
:100D0000CA95EAF764E670E080950E949D2390936F
:100D100005018093040184E690E0CF910C94F223C6
:100D200090E0FC013797E730F105C0F4EA5AFF4F35
:100D30000C94BB3C209A289811C0219A29980EC087
:100D4000229A2A980BC0239A2B9808C0529A5A9834
:100D500005C0539A5B9802C03E9A4698CF91089579
:100D6000089508950C94B106CF93DF930E94430831
:100D700090E090930501809304010E944B060E942D
:100D80004406ADEFB2E029EA32E0EBE0F3E04EE0FA
:100D90004E0F11921D9280E090E0E901C80FD91F1B
:100DA0001882019686309105C1F72A5F3F4F4E1396
:100DB000F0CFDF91CF910C94DE110E94430890E0B8
:100DC00090930501809304010E944B060E94440603
:100DD000EBE0F3E08EE08E0F11928E13FDCF0895BD
:100DE000CF93DF93E62FF0E0E350FD4F408148279B
:100DF000808386E0689FF0011124E755FD4F20E0D5
:100E000030E080E061E070E050E0AAE0B22F908135
:100E1000992319F09150908307C0EB01022E01C075
:100E2000CC0F0A94EAF78C2BEA0102C0D595C7953E
:100E3000BA95E2F7C0FDA0832F5F3F4F3196263071
:100E4000310521F7DF91CF910895CF93DF93D82F0C
:100E5000873008F040C08091040190910501892BF2
:100E600009F042C064E670E080E40E94462390935B
:100E7000050180930401892B11F0C0E027C064E6CE
:100E800070E083E10E949D2390930501809304010B
:100E9000892B99F764E670E081E40E9446239093E1
:100EA000050180930401892B41F784E690E00E94BC
:100EB000CD2397FF05C09093050180930401DDCFFA
:100EC000C82FC095109205011092040184E690E0AD
:100ED0000E94F2230AC09FB1CFB1C07FC695C695CC
:100EE0009370C92BC09501C0C0E06D2F8C2F0E945C
:100EF000F006282F2095ED2FF0E0E55FFC4F908164
:100F000092238C23892BDF91CF910895EF92FF924A
:100F10000F931F93CF93DF9380910401909105016C
:100F2000892B91F08091A8028F5F8093A802811194
:100F30000BC00E94430890E0909305018093040148
:100F4000892B11F40E94D5078BE0E82E83E0F82E60
:100F500002E113E0C0E08C2F0E945A06D7E0DC0FBC
:100F60008D2F0E945A068C2F0E942507F70181932E
:100F70007F018D2F0E942507F80181938F010E9428
:100F80004B06CF5FC73039F70E94EA1181E0DF914D
:100F9000CF911F910F91FF90EF900895E82FF0E00F
:100FA000E55FFC4F80810895089556985E982598D6
:100FB0002D9826982E9827982F988FEF90E0909351
:100FC00089008093880090938B0080938A0090938F
:100FD0008D0080938C00259A2D9A2FEF80E792E068
:100FE000215080409040E1F700C00000269A2E9AE0
:100FF0002FEF80E792E0215080409040E1F700C061
:101000000000279A2F9A2FEF80E792E0215080402E
:101010009040E1F700C0000025982D982FEF80E761
:1010200092E0215080409040E1F700C000002698F7
:101030002E982FEF80E792E0215080409040E1F71A
:1010400000C0000027982F9856985E9825982D98F4
:1010500026982E9827982F98089589EA80938000E3
:1010600089E08093810024982C983F988AB18F7CE6
:101070008AB96E98479A8BB180638BB9769A0E9431
:10108000D5070C94B00680E290E090930501809320
:1010900004018091190381110EC00E94402381E058
:1010A000809319032FEF83ED90E32150804090400F
:1010B000E1F700C0000064E670E080E40E9446238F
:1010C0009093050180930401892B09F050C064E6D8
:1010D00070E080E00E949D239093050180930401BD
:1010E000892B09F044C064E670E080E00E949D23F3
:1010F0009093050180930401892BC9F564E670E0A3
:101100008FE30E949D239093050180930401892B16
:1011100071F584E690E00E94F22364E670E080E4DA
:101120000E9446239093050180930401892BF9F4D2
:1011300064E670E08CE00E949D239093050180930B
:101140000401892BA1F464E670E080E00E949D23F5
:101150009093050180930401892B49F464E670E0C3
:101160008FE30E949D23909305018093040184E600
:1011700090E00E94F2238091040108958530C8F424
:101180006A30B8F4843049F49CEF960F923088F0BE
:10119000653010F46F5F01C06150982F990F990F5F
:1011A000890F653018F4845E861B08958550860F7C
:1011B00008958FEF08952F923F924F925F926F9212
:1011C0007F928F929F92AF92BF92CF92DF92EF92D7
:1011D000FF920F931F93CF93DF9300D000D000D0E6
:1011E000CDB7DEB77B01C090A203D090A303C60E9B
:1011F000D71E21EDC21627E0D20620F090EDC92EB1
:1012000097E0D92ED092A303C092A203B6010D2C71
:10121000000C880B990B0E94953A20E030E04AEFD1
:1012200054E40E94EB394B015C01109107011F3F10
:1012300051F49B01AC0160E070E080E89FE30E9404
:1012400074394B015C0120E030E040E05FE3C50110
:10125000B4010E94E13918163CF0C501B4010E94A6
:10126000183C9B01AC0122C020E030E040E05FE38D
:10127000C501B4010E9474394B015C019B01AC01B2
:101280000E9475392B013C01A501940160E070E0DA
:1012900080E89FE30E9474399B01AC01C301B20155
:1012A0000E94A33B20E030E040E05FE30E947539FC
:1012B000E0EDCE16E7E0DE0639F41092A3031092BB
:1012C000A20311951093070120E030E040E151E4C2
:1012D0000E94A33B69837A838B839C83B70180E060
:1012E00090E00E94933A9B01AC0160E070E08AEFCD
:1012F00094E40E94743920E030E04AEF54E40E9404
:10130000EB392B013C018AE7282E83E0382E10E0D0
:10131000612F70E080E090E00E94933A9B01AC0165
:1013200069817A818B819C810E9474396B017C0177
:10133000E894F7F8F1012081318142815381C301A2
:10134000B2010E94A33B4B015C0120E030E040E091
:1013500050E4C701B6010E94E1391816D4F0A70184
:10136000960160E070E080E090E40E94743920E033
:1013700030E040E05FE30E94A33B9B01AC01C5016C
:10138000B4010E94D03AF101608371838283938318
:1013900005C0F10180829182A282B3821F5FF4E0D6
:1013A0002F0E311C1A3009F0B3CFD12C0AE713E00D
:1013B000E12C24E0D21204C08CEF8E0D823000F1BB
:1013C00020E030E04FE753E4F801608171818281D1
:1013D00093810E94A33B0E94643A862F6AE47FEFC8
:1013E0000E94FC17F62E282F6E2D8D2D2E837D83C7
:1013F0000E94BE082E814D816F2D90E00E94B11891
:10140000E3940C5F1F4FFAE0EF12D3CFD39425E0A3
:10141000D212CCCF26960FB6F894DEBF0FBECDBF4A
:10142000DF91CF911F910F91FF90EF90DF90CF90C0
:10143000BF90AF909F908F907F906F905F904F90F4
:101440003F902F9008952F923F924F925F926F920C
:101450007F928F929F92AF92BF92CF92DF92EF9244
:10146000FF920F931F93CF93DF9300D000D000D053
:10147000CDB7DEB79C838B838B010E940D3D65E069
:1014800070E00E94853C3C010E940D3D6AE070E0E6
:101490000E94853CE0E0F0E0B12C772425E0E22ECC
:1014A000F12C3AE0332E4C0199244AE0C42ED12C81
:1014B000CF01860D971DB7010E94853C389E200103
:1014C000399E500C1124400E511E282E20E030E091
:1014D000C901880D991DB6010E94853CA201480FE3
:1014E000591F5E834D83DA01AC90AB81BC811296AB
:1014F000BC91B983AB1649F06A2D70E0AAE0BA9F9F
:10150000A00111246417750731F4AD81BE811C92CE
:10151000BB2029F016C0B11014C0A11014C0AB81BB
:10152000BC812C9211968C93119713961C92139751
:1015300015961C921E92149712968C91AD81BE81C5
:101540008C93BB24B3942F5F3F4F2A30310509F0B1
:10155000BFCF3196E530F10509F0AACF26960FB638
:10156000F894DEBF0FBECDBFDF91CF911F910F91D9
:10157000FF90EF90DF90CF90BF90AF909F908F90B3
:101580007F906F905F904F903F902F90089585309F
:10159000A8F46A3098F4843021F49CEF960F9230CE
:1015A00068F0FA019AE0899FE00DF11D1124E60F21
:1015B000F11D9081915081E0943008F480E008950D
:1015C0009F92AF92BF92CF92DF92EF92FF920F93D2
:1015D0001F93CF93DF93EC017B010E940D3D64E0EC
:1015E00070E00E94853C8C0184E0C82ED12C94E0F0
:1015F000A92EB12C0115110519F499809A9405C0F2
:101600000130110559F499809394A701692D8881BF
:101610000E94C70A8823B1F099821FC002301105C9
:1016200019F498809A9405C00330110559F49880F4
:101630009394A7016981892D0E94C70A882311F01C
:1016400098820BC0C8010196B5010E94853C8C01AF
:1016500081E0C81AD10871F680E0DF91CF911F9127
:101660000F91FF90EF90DF90CF90BF90AF909F9041
:1016700008950F931F93CF93DF938C01EB010E948A
:10168000E00A882389F0D8019C9112968C91FE0182
:10169000BAE09B9FE00DF11D1124D80111969C9199
:1016A000E90FF11D80831CC081E0F801838315825E
:1016B0001482FE0195E0AF01465F5F4F8081D80143
:1016C00012962C91821306C0880F282F220F220F0A
:1016D000820F80833196E417F50781F7915059F70F
:1016E000DF91CF911F910F910895262F60E08130F7
:1016F00011F46BE10BC0823011F46DE707C0833049
:1017000011F460E503C0843009F467ED7FEF822FA8
:101710000E94FC1708959F92AF92BF92CF92DF92E2
:10172000EF92FF920F931F93CF93DF9300D0CDB72B
:10173000DEB78B01882309F443C048E453E025E079
:1017400080E090E0FA01E80FF91F108201968A30DC
:101750009105C1F72150465F5F4F2111F1CF43E35F
:10176000E42E43E0F42EA12CB12C56E0D52ECC244F
:10177000C394DA9CF001DB9CF00D1124E05DFC4F7A
:10178000DF012D2D1D922A95E9F7F701319781E0B0
:101790008A0D8083D701CC9268E473E0C701039778
:1017A0000E94230ABFEFAB1ABB0AE6E0EE0EF11C63
:1017B000F4E0AF16B104E9F610922F0310922E0355
:1017C00080912E0390912F03800F911F823C21E086
:1017D000920738F490932F0380932E03E3E3F3E012
:1017E00037C010922F0310922E0330E3E32E33E024
:1017F000F32E5701D12CD50113968C91811106C07F
:1018000068E473E0C5010E94390B09C0813039F4E6
:10181000F501848195818634954008F0D39426E0C3
:10182000A20EB11C88E4A81683E0B80621F794E064
:10183000D912D4CF68E473E0C7010E94230AA6E05E
:10184000EA0EF11CB8E4EB16B3E0FB0699F7C6CF3D
:101850008081813061F481819281800F911F873472
:1018600025E0920710F086E495E092838183369616
:1018700083E0EB34F80761F788E4E82E83E0F82E84
:10188000A12C9AE0C92E26E0D22E00E010E0B02E66
:1018900094E0A91205C08CEF800F823008F45CC080
:1018A000F701E00FF11F8081882309F446C08530DD
:1018B00070F4282F30E021503109D29EF001D39EE0
:1018C000F00D1124E05DFC4F6FEF828130C06C2D74
:1018D0000E94653C90E00197D89EF001D99EF00DE2
:1018E0001124E05DFC4F9280648175816634A5E02F
:1018F0007A07D8F480E090E00E94933A20E030EC40
:1019000048EA54E40E94EB399B01AC0160E070E0CE
:1019100080E89FE30E94743920E030E04FE753E411
:101920000E94A33B0E94643A01C060E0892D0E949E
:10193000750B962E472F282F03C020E040E0912CF6
:101940006B2D8A2D2A8349830E94BE082A814981F2
:10195000692D90E00E94B1180F5F1F4F0A301105EA
:1019600009F095CFA394BAE0EB0EF11CE5E0AE12BE
:101970008CCF60912E0370912F0380E090E00E9445
:10198000933A20E030E041EE53E40E94EB3920E04E
:1019900030E04FE753E40E94A33B0E94643AD62E06
:1019A00000E010E0C801805D9C4F7C01DC011396D3
:1019B0008C911397811115C06D2D12968C910E94F8
:1019C000750B962E282FF701618180812A837983F8
:1019D0000E94BE082A817981472F692D90E00E94DC
:1019E000B1180A5F1F4F08311105E1F60F900F90F3
:1019F000DF91CF911F910F91FF90EF90DF90CF90EB
:101A0000BF90AF909F900895482F8074242F46FD7B
:101A10002095E22FEF732F7081112F5FE295EF7009
:101A2000EE0FF0E0E956FD4F9181929F9001112455
:101A300084E0359527958A95E1F78081280F822FDC
:101A400047FD819580580895AF92BF92DF92EF9243
:101A5000FF920F931F93CF93DF931F92CDB7DEB703
:101A600060FD05C080912D038F5F80932D03F09062
:101A70002D0303E213E090E0892F8F0D99830E94DC
:101A8000040DF80181938F0199819C5E983CA1F728
:101A9000F12C6F2D70E080E090E00E94933A20E0FE
:101AA00030E040E85EE30E94A33B20E030E04FE7F7
:101AB00053E40E94A33B0E94643AA62EB12C03E299
:101AC00013E0E12CF80181918F01B501681B7109C8
:101AD00077FF03C071956195710965367105E4F46E
:101AE00070E080E090E00E94933A20E030E048EC23
:101AF00052E40E94EB399B01AC0160E070E080E8A9
:101B00009FE30E94743920E030E04FE753E40E94E5
:101B1000A33B0E94643A01C060E0962F623308F450
:101B200092E36E2D8F2D99830E94BE08D82E60E01F
:101B300070E09981892F0E94FC17472F282F8D2D47
:101B400090E00E94B118E394FAE0EF12BBCFF39457
:101B500085E0F8129ECF0F90DF91CF911F910F91EA
:101B6000FF90EF90DF90BF90AF900895AF92BF923B
:101B7000CF92DF92EF92FF920F931F93CF93DF9359
:101B8000EC0181E00E94F42080E98C9F70018D9F20
:101B9000F00C1124C0E0D0E000E010E0670182E02A
:101BA000C80ED11C57018FEFA81AB80AF601EC0F26
:101BB000FD1FEE53FE4F8491FE01EE0DFF1DEE530F
:101BC000FE4F6491F501EC0FFD1FEE53FE4F749133
:101BD000882319F08091BB0401C080E00E94FC17AB
:101BE000472F282FC8010E94B1180F5F1F4F23965F
:101BF00000331105D9F6DF91CF911F910F91FF901E
:101C0000EF90DF90CF90BF90AF9008954F925F928A
:101C10006F927F928F929F92AF92BF92CF92DF92FC
:101C2000EF92FF920F931F93CF93DF93CDB7DEB761
:101C300028970FB6F894DEBF0FBECDBF182F0E94B5
:101C4000B01F6B017C018091BD049091BE040E9485
:101C5000D93190932203809321030E94CD31909338
:101C6000BE048093BD042091A5033091A6032230C9
:101C7000310509F0E2C043E0C422DD24EE24FF2454
:101C8000CD28CE28CF2809F05FC0F0900601009142
:101C90001F03109120030F0D111DF7FC1A951093CF
:101CA000200300931F03B80180E090E00E94933A64
:101CB00020E030E04AE753E40E94EB394B015C013D
:101CC00020E030E040E05FE30E94E13918163CF08C
:101CD000C501B4010E94183C9B01AC0122C020E068
:101CE00030E040E05FE3C501B4010E9474394B016C
:101CF0005C019B01AC010E9475392B013C01A501DF
:101D0000940160E070E080E89FE30E9474399B01D9
:101D1000AC01C301B2010E94A33B20E030E040E0EF
:101D20005FE30E94753960931B0370931C038093DB
:101D30001D0390931E0301501109093F110520F066
:101D40008F2D8195809306018091B804881F882784
:101D5000881F9091B904492F440F242F282B97FBFB
:101D6000332730F9C9018C549F4F68E671E00E9417
:101D7000853C821B930B8038910514F09A9505C021
:101D80008138EFEF9E070CF4939597FD0396959598
:101D9000879595958795182F8091BA04281B31094E
:101DA00037FF02C02D5F3F4F359527953595279515
:101DB000022FA090BB0429E1C22E21E0D22EE12CFB
:101DC000F12CF601B080B2948FE0B82220E030E030
:101DD00040EA52E460911B0370911C0380911D0343
:101DE00090911E030E94A33B0E945D3A962F609142
:101DF000B804262F221F2227221F6091B904660FE4
:101E0000622B690FB19E600D11247091BA04B09ECF
:101E1000700D11248A2D0E94FC17472F282FC7010F
:101E20000E94B118FFEFEF1AFF0A44E0C40ED11C64
:101E300080E3E816F10429F6DFC02330310509F00C
:101E40007EC0C701B60123E030E040E050E00E94D0
:101E5000993C672B682B692B29F480911A038F5FBB
:101E600080931A03E12CF12C1091B804912F991F43
:101E70009927991F1091B904110F192B6091BA0479
:101E800070E080E090E00E94953A2DEC3CEC4CE450
:101E90005FE30E94A33B0E94643A762F612F80E0AB
:101EA0000E94FC17472F282FC7010E94B1189FEFEF
:101EB000E91AF90AE0E3EE16F104B1F660E082E017
:101EC0000E94BE08898361E082E00E94BE088A8386
:101ED00062E082E00E94BE088B8363E082E00E94A1
:101EE000BE088C8366E082E00E94BE088D8367E0B6
:101EF00082E00E94BE088E8368E082E00E94BE08F5
:101F00008F8369E082E00E94BE088887CE01019637
:101F10007C0110E0F70101917F0180911A03612F8C
:101F2000681B70EA8FEF0E94FC17472F282F802F25
:101F300090E00E94B1181E5E103961F75DC0243038
:101F40003105E9F46091210370912203812F2896D5
:101F50000FB6F894DEBF0FBECDBFDF91CF911F91BA
:101F60000F91FF90EF90DF90CF90BF90AF909F9038
:101F70008F907F906F905F904F900C94DB0825308E
:101F80003105E9F46091210370912203812F289695
:101F90000FB6F894DEBF0FBECDBFDF91CF911F917A
:101FA0000F91FF90EF90DF90CF90BF90AF909F90F8
:101FB0008F907F906F905F904F900C948B0B21309F
:101FC0003105D1F4C701B60128960FB6F894DEBFEB
:101FD0000FBECDBFDF91CF911F910F91FF90EF907A
:101FE000DF90CF90BF90AF909F908F907F906F9039
:101FF0005F904F900C94240D28960FB6F894DEBF96
:102000000FBECDBFDF91CF911F910F91FF90EF9049
:10201000DF90CF90BF90AF909F908F907F906F9008
:102020005F904F9008958091A70381116AC06091DD
:1020300066047091670480916804909169040E941D
:10204000EF2F823009F450C030F4882369F08130DA
:1020500009F447C00895843009F44CC008F447C01F
:10206000853009F44AC0089580E190E00E94253D42
:102070006093B8047093B9048093BA049093BB043E
:102080008091A5039091A603892BE9F48091B8046F
:1020900086958F730E94F4208091B804982F9E77C4
:1020A000923079F1881F8827881F9091B904292FD1
:1020B000220F97FB992790F94091BB046091BA04D5
:1020C000822B0C941A2181E00E94F4208091A403B9
:1020D000882321F01092A40381E001C080E00C94D9
:1020E000060E81E090E00BC082E090E008C083E043
:1020F00090E005C084E090E002C085E090E00C94A0
:10210000B60D0895611108C0FC018281882321F079
:1021100088EA91E00E94DB1180E090E00895FC01E4
:10212000E15FFC45E730F10508F0B4C0DB01E35A9C
:10213000FF4F12969C910C94BB3C91110E94B930B8
:1021400080E008959923E1F381E01DC09923C1F354
:1021500081E00E94E5204FEF64E985EC90E009C042
:10216000992371F381E00E94E5204FEF69E787E84A
:1021700090E00E940321E4CF992311F31092A6036B
:102180001092A50383E00E94E520DACF9923C1F2E3
:1021900080E190E00E94253D6093B8047093B904FB
:1021A0008093BA049093BB040E943C2F82722091CA
:1021B000B8049091B904882371F0822F881F882772
:1021C000881F392F330F432F482B97FB552750F982
:1021D000485051090DC0822F881F8827881F392F2A
:1021E000330F432F482B97FB552750F9485F5F4F1C
:1021F00040FB27F92093B804842F86959078982B7C
:1022000050FB97F99093B9048091B804482F441F6C
:102210004427441F9091B904592F550F252F242B83
:1022200097FB332730F92F3F310531F02CF08F77B2
:102230008093B8041092B9044091B8045091B90445
:102240006091BA047091BB0480E190E00E94433D2C
:1022500077CF992309F474CF8091A5039091A603B9
:1022600001969093A6038093A50381E08093A40335
:102270000E94CD319093BE048093BD048091A5034C
:102280009091A603069708F45BCF1092A6031092D4
:10229000A50356CF81E00895CF92DF92EF92FF928F
:1022A0006B017C010E94EF2F56985E9825982D981F
:1022B00026982E9827982F9890E0FC013197E730C8
:1022C000F105A8F4EC59FF4F0C94BB3C259A2D9ACC
:1022D0000EC0259A2D9A269A2E9A09C0259A2D9AD3
:1022E00004C0259A2D9A269A2E9A279A2F9AC701CA
:1022F000B601FF90EF90DF90CF90089581E00895B0
:102300000C948F10CF93282F30E0F901EE5EF64F3A
:10231000C491F901EE56F64F2491222359F081EE33
:102320000E9499258C2F0E9499258C2F0E94B026FF
:1023300081EE04C08C2F0E9499258C2FCF910C9494
:10234000B0260F931F93CF93DF93EC01062FFE016E
:102350008491882359F19E012F5F3F4F813041F4D2
:10236000E901F9011491812F0E949925812F0DC057
:10237000823031F4E901F90184910E9499250AC063
:10238000833031F4E901F90184910E94B02602C042
:102390000E9482112196802F8823C9F2EFE9FFE085
:1023A0003197F1F700C000008150F6CFDF91CF9157
:1023B0001F910F91089560E00C94A1110E943F308D
:1023C000811102C00E94B9300E94821F0E944C17E6
:1023D0000C942D080E94E41E8091A803811102C074
:1023E0000E94AC188091A80390E001966BE070E029
:1023F0000E94853C8093A8030C94B206282F2F706E
:1024000041F0822F90E02A3010F44D9608950697FF
:10241000089587E290E0089508950C940C120C94AE
:102420000D1208950E9486290E9411122FEF84E355
:102430009CE0215080409040E1F700C000000C94E7
:102440002932FF920F931F93CF93DF938C01FC01EE
:10245000C081D1818091F603811113C082818823CC
:1024600049F0CE010E94BC2EF82E682FCE010E94AA
:102470005F2E04C0CE010E948F2EF82EBE018F2D3C
:1024800004C0CE010E94BC2EBE010E94C414EC0107
:10249000B8010E948011882309F46EC2B801CE01F0
:1024A0000E94C717882309F467C2CC3CFCE5DF070C
:1024B00041F4F8018281882309F45EC20E94CC2095
:1024C0005BC2CD3C8CE5D80708F01EC1C43C9CE53E
:1024D000D90761F4F8018281882309F44DC20E9472
:1024E0003C2F8272E1F40E94E11F46C2C53CECE53C
:1024F000DE0708F0C7C0C531FCE5DF0798F0C23C35
:10250000FCE5DF0709F48CC008F492C0F801828171
:10251000882309F431C20E943C2F827221F70E9465
:10252000C71F2AC2C2308CE5D80708F452C0F80190
:102530008281882309F459C00E943F30811102C072
:102540000E94B9300E94523090E090932C06809304
:102550002B06FE01E350FC45E231F10530F4E5596C
:10256000FF4F80912B060C94BB3C80912B06816021
:1025700027C0826025C0846023C0806121C0806242
:102580001FC080641DC080681BC08460886018C044
:102590008E7F16C08D7F14C08B7F12C08F7E10C0BF
:1025A0008F7D0EC08F7B0CC08F770AC08B7F877F9B
:1025B00007C087FB222720F991E0922790FB87F93B
:1025C00080932B0680912B060E9456300E9486290C
:1025D000D3C1C1159CE5D90781F0C130DC45A9F014
:1025E00081E08093AE038093AF03C801DF91CF9168
:1025F0001F910F91FF900C947E11F8018281882326
:1026000009F4BAC10E941212B7C1F801828188236D
:1026100009F4B2C180919304816080939304ACC1AA
:10262000F8018281882309F4A7C10E94B91FA4C1BF
:10263000C631DC45A9F60E943C2F282FF801828183
:1026400040910A0150910B01882379F02A7A91E098
:1026500009F490E09093A903911102C069E201C0CE
:1026600065E3CA010E9420310AC08091A90381114B
:1026700002C069E201C065E3CA010E942B310E94D9
:102680008B2F7AC1F8018281C83CFCE5DF0731F469
:10269000882309F471C10E946D206EC1C93C9CE57C
:1026A000D907C8F4C63CECE5DE0731F4882309F409
:1026B00063C10E94272060C1C73CDC4530F48823F9
:1026C00009F45AC10E94FB1F57C1882309F454C161
:1026D0000E94572051C1CA3C9CE5D90731F4882398
:1026E00009F44AC10E949D2047C1CB3CDC4530F42F
:1026F000882309F441C10E9487203EC1882309F440
:102700003BC10E94B72038C1C43DFCE5DF0791F40E
:10271000F8018281882309F42FC10E94FE208931AB
:1027200028F00E94FE20823208F4F9CE89E10E944E
:10273000E52022C1C53D8CE5D80708F068C0F80146
:102740008281C03DFCE5DF0771F4882309F414C1E0
:102750000E94FE20893028F00E94FE208E3008F46E
:10276000DECE89E0E4CFC13D9CE5D90740F5CE3C03
:10277000ECE5DE0771F4882309F4FEC00E94FE2018
:10278000823028F00E94FE20853008F4C8CE82E016
:10279000CECFCF3CDC4528F4882309F4EDC081E09E
:1027A000C6CF882309F4E8C00E94FE20863028F0B6
:1027B0000E94FE20883008F4B2CE86E0B8CFC23D39
:1027C0009CE5D90771F4882309F4D6C00E94FE2045
:1027D000853128F00E94FE20873108F4A0CE85E1E3
:1027E000A6CFC33DDC4570F4882309F4C5C00E9420
:1027F000FE208F3028F00E94FE20843108F48FCE16
:102800008FE095CF882309F4B7C088E190CFC93D08
:10281000FCE5DF0759F5F8018281882361F0109209
:10282000AF030E94CD319093AD038093AC0380E25F
:102830000E941727A1C08091AF03882321F080E276
:102840000E941E2799C08091AC039091AD030E9415
:10285000D931883C910598F780E20E941E2788E2D2
:102860000E94992588E20E94B02686C0CA3D8CE568
:10287000D80708F060C0C73D9CE5D90761F5F801AD
:102880008281882351F01092AE030E94CD31909343
:10289000AB038093AA0382E0CBCF0E943C2F85FF3D
:1028A00005C081E08093AE038093AF038091AE03B7
:1028B00081110FC08091AA039091AB030E94D9317E
:1028C000883C910530F486E20E94992586E20E94B8
:1028D000B02682E0B5CFC83DECE5DE0710F1F80187
:1028E000828181119CCF0E943C2F81FF05C081E035
:1028F0008093AE038093AF038091AF0381119FCF8C
:102900008091AC039091AD030E94D931883C910530
:1029100008F095CF87E20E94992587E20E94B026B1
:102920008ECFC53DDC4509F05BCEF801828188235E
:1029300019F183E2FCCECD3D8CE5D80741F4F801D6
:1029400082818823C9F082E00E94AB3415C0CE3D5D
:102950009CE5D90739F4F8018281882369F00E9447
:10296000B9300AC0CC3DDC4509F03ACEF80182818D
:10297000882311F080E0E8CF80E0DF91CF911F91B4
:102980000F91FF900895089596E0799FF00111242A
:1029900094E5899FE00DF11D1124E60FF11DEE0F66
:1029A000FF1FEE5DFA4F859194910895880F991F4E
:1029B000FC01E254FE4F859194910895CF93DF93EB
:1029C0000E94C4140E949516EC01811520E592071F
:1029D000F0F5811530E4930708F024C1883E910595
:1029E00000F5803E910508F09CC1883A910570F48D
:1029F000853A910508F09FC08130910509F491C195
:102A000008F442C1049708F08CC13EC18F3B910588
:102A100008F49CC0803C910508F436C1805C9109A3
:102A2000F4C0811540E2940758F4C11581E0D8073D
:102A300008F077C1C03FD10508F426C1D06571C147
:102A4000811520E3920708F0E4C09F70DEC0811575
:102A500035E5930708F044C0811544E5940708F074
:102A6000F8C0C11582E5D80708F5C11521E5D207E0
:102A700008F0DBC08C2F837021E030E002C0220F11
:102A8000331F8A95E2F73C68CE0174E096958795EE
:102A90007A95E1F78370382BCF70C695C69580E2A2
:102AA000C89FE0011124C22BD32B3BC12C2F2695AC
:102AB0002695CE0183709927C115D34508F0BAC079
:102AC00040E2249F90011124C1E0D0E002C0CC0F6D
:102AD000DD1F8A95E2F72C2B3D2BE901DC6821C133
:102AE000811549E59407A0F4C11588E5D80708F0D9
:102AF000B5C0C11526E5D20708F0C6C08C2F0E94CC
:102B000012178F71C82FD0E0DC2FCC27D06209C1FB
:102B100081153AE5930708F4A6C0905681159042B6
:102B200008F0B2C08D2F8F710E941217DD27D0627E
:102B30008F71D82BF6C0853A910509F4A8C0863A62
:102B4000910509F0A7C0C2E8D0E4EBC0883A91052E
:102B500009F4A3C0893A910509F4A2C08A3A910503
:102B600009F4A1C08B3A910509F4A0C08C3A9105F3
:102B700009F49FC08B3B910509F49EC08C3B9105E5
:102B800009F49DC08D3A910509F49CC0803B9105E4
:102B900009F49BC08E3A910509F49AC08F3A9105C9
:102BA00009F499C0813B910509F498C0823B9105D5
:102BB00009F497C0833B910509F496C0843B9105C5
:102BC00009F495C0853B910509F494C0863B9105B5
:102BD00009F493C0873B910509F492C0883B9105A5
:102BE00009F491C0893B910509F490C08D3B910592
:102BF00009F48FC08E3B910509F48EC08A3B910584
:102C000009F48DC0C0E0D4E48CC00E94D614EC015D
:102C100088C09927D3FF03C0EC01D86C82C0EC01B7
:102C2000D06C7FC0DF70D06A7CC0DC2FCC27C16F36
:102C3000D06A77C040E2249F90011124C1E0D0E027
:102C400002C0CC0FDD1F8A95E2F7C22BD32BDA68C6
:102C500068C0D82FCC27C46FD06A63C0DC2FCC27C4
:102C6000C06FD06A5EC08F700E94121794E0D69534
:102C7000C7959A95E1F7CF70D0E0DC2FCC27D06ACA
:102C80008F70806EC82B4DC0C0E0D0E04AC0C1E854
:102C9000D0E447C0C3E8D0E444C0C2EED4E441C0AD
:102CA000C9EED4E43EC0CAEED4E43BC0C5EBD4E4E4
:102CB00038C0C6EBD4E435C0C3EBD4E432C0C4EBB7
:102CC000D4E42FC0C7EBD4E42CC0CCECD4E429C0AE
:102CD000CDECD4E426C0C3E8D5E423C0CAE8D5E4EB
:102CE00020C0C2E9D5E41DC0C4E9D5E41AC0C1E2E0
:102CF000D6E417C0C3E2D6E414C0C4E2D6E411C0DF
:102D0000C5E2D6E40EC0C6E2D6E40BC0C7E2D6E404
:102D100008C0CFE6D4E405C0C0E7D4E402C0CAE2EC
:102D2000D6E4CE01DF91CF9108958238910549F123
:102D3000B0F48133910509F458C048F48932910503
:102D400009F44EC08A32910509F454C008958533C0
:102D5000910509F440C08933910599F00895833EA7
:102D6000910529F138F4803E910591F0823E91055C
:102D7000A1F00895863E9105F9F0873E910531F165
:102D8000089520912B0620FD3AC021FD38C00895FA
:102D900080912B0680FD35C032C080912B0682FFCA
:102DA00032C080912B0684FD30C083EE39C0809103
:102DB0002B0682FD28C0F5CF80912B0683FF27C00C
:102DC00080912B0684FD21C087EE2AC080912B06BE
:102DD00083FD1DC0F5CF80912B0685FD1AC01BC059
:102DE00080912B0685FD17C014C080912B0686FDAF
:102DF00014C015C080912B0686FD11C00EC080EE58
:102E00000FC089E30DC082EE0BC080E009C086EEE2
:102E100007C089E205C085E303C08AE201C081E3FF
:102E200090E0089590912B0692FF0DC0282F2871F5
:102E3000283019F4877F846006C0282F247124303D
:102E400011F48B7F886093FF0DC0282F28712831E3
:102E500019F4877E846106C0282F2471243111F46F
:102E60008B7E886194FD877E0895CF93DF938130B8
:102E700020E8920768F0FB012281222349F0EC014F
:102E80000E946217CE019F770E94AA170E9497178F
:102E900081E0DF91CF9108958CE090E00E941D3D8C
:102EA00090E0A0E0B0E08093BF049093C004A093B2
:102EB000C104B093C20408956091BF048CE090E017
:102EC0000C94313D0E943C2F8093B0030E944F2F01
:102ED0008091BF04813071F048F08230D9F08430A5
:102EE000F9F486EE0E940F2788E118C082EE0E9456
:102EF000992516C080EE0E94992581EE0E949925A1
:102F000088E10E940F2781EE0E94B02680EE0E9489
:102F1000B02606C082EE0E94992587E50E940F2701
:102F20008FE39CE90197F1F700C0000008958091BC
:102F3000BF04813021F038F0823029F007C08CE2E4
:102F40000E940F2703C082EE0E94B0268091B0033A
:102F50000C944C2F0F931F93CF93DF938C01CCE0F5
:102F6000D0E0C8010C2E02C0969587950A94E2F72E
:102F70008F700E94FE110E940F272497CC3F8FEF85
:102F8000D80779F7DF91CF911F910F9108950F9393
:102F90001F93CF93DF93EC018B01FB018281882388
:102FA00019F1C33EFCE5DF07C1F050F4C13EECE58A
:102FB000DE0781F0C23EFCE5DF07B1F481E010C01E
:102FC000C43E8CE5D80759F0C53EECE5DE0761F458
:102FD00084E006C01092BF0405C082E001C083E017
:102FE0008093BF040E945C17B801CE01DF91CF919E
:102FF0001F910F910C943517CF92DF92EF92FF92B1
:103000000F931F93CF93DF93E82FF82F711103C015
:10301000682F782F7EC0062F10E0C72FD0E0E82E53
:10302000F12CC8016BE270E00E94713C9B0145ED00
:103030004203B001439F700D1124060F171F86E055
:10304000809FB001819F700D11244FEF50E0CA01A5
:103050008C1B9D0B8E9DD0018F9DB00D9E9DB00D44
:1030600011248B2F6C9F80016D9F100D7C9F100D84
:103070001124012F11276A01C01AD10ACE9C8001A8
:10308000CF9C100DDE9C100D11246A01C61AD70AC0
:10309000CC9EB001CD9E700DDC9E700D1124672F6B
:1030A0007727461B570B4E9DE0014F9DD00D5E9D2F
:1030B000D00D11247D2F2230310599F04CF42115CB
:1030C0003105C9F021303105A1F47E2FE12F13C065
:1030D0002330310551F02430310559F4ED2F7B2F89
:1030E00006C0EB2F8D2F7F2F06C0712FEB2F8F2F58
:1030F00002C07B2F812FF0E0EE5EF54F6491E72F49
:10310000F0E0EE5EF54F7491E82FF0E0EE5EF54FE3
:103110008491DF91CF911F910F91FF90EF90DF90FD
:10312000CF90089580E190E00C94253DAB01BC0167
:1031300080E190E00C94433DE8EBF4E08DE0808387
:103140001092B9048FEF828383831482608171812E
:10315000828193810C949618E091A502F091A602C9
:103160000994E091A102F091A2020994E091A302D6
:10317000F091A402099440E060E080E00C94B6185D
:10318000E8EBF4E06081862F881F8827881F609114
:10319000B904660F682B728183810E94FC17962FF9
:1031A000672F482F892F0C94B618DF92EF92FF9269
:1031B0000F931F93CF93DF938091B804881F8827C4
:1031C000881F9091B904492F440F242F282B97FB77
:1031D000332730F9C9018C549F4F68E671E00E9493
:1031E000853C821B930B8038910514F09A9505C09D
:1031F00081384FEF94070CF4939597FD03969595BE
:10320000879595958795C82F8091BA04281B310919
:1032100037FF02C02D5F3F4F359527953595279590
:10322000D22FD090BB0499E1E92E91E0F92E00E075
:1032300010E0F701208122952F706091B804962F3D
:10324000991F9927991F6091B904660F692B2C9FCC
:10325000600D11247091BA042D9F700D11248D2DD5
:103260000E94FC17472F282FC8010E94B1180F5F3A
:103270001F4FF4E0EF0EF11C00331105D1F6DF9182
:10328000CF911F910F91FF90EF90DF900895AF9233
:10329000BF92CF92DF92EF92FF920F931F93CF9343
:1032A000DF931F92CDB7DEB7D82E2091B804221F2E
:1032B0002227221F8091B904982F990FB22EB92A84
:1032C00087FB882780F9EB2DF82FCF018C549F4F77
:1032D00068E671E00E94853C9C012E1B3F0B37FF86
:1032E00002C02D5F3F4F3595279535952795A22E26
:1032F000C090BA040091B7031091B8032091B903AC
:103300003091BA039091BC04992359F0692F70E071
:103310008AE090E00E94853CCB01770FAA0BBB0BA3
:1033200004C08AE090E0A0E0B0E080239123A223D3
:10333000B323892B8A2B8B2B41F40E940D3D60E334
:1033400070E00E94853C082F01C00FEFE12CF12CAA
:1033500010E0D11003C0E016F106A9F40E940D3D63
:1033600083706B2D8A9D600D112469830E940D3D31
:1033700069817C2D8091BB040E94FC17472F282F68
:10338000C7010E94B1188FEFE81AF80A80E3E81627
:10339000F104F9F60F90DF91CF911F910F91FF90FB
:1033A000EF90DF90CF90BF90AF900895CF92DF92D3
:1033B000EF92FF921F93CF93DF938091B703909189
:1033C000B803A091B903B091BA030090BC0404C043
:1033D000880F991FAA1FBB1F0A94D2F7182F87E1E5
:1033E000C82E81E0D82EC0E0D0E09FE3E92EF12C7A
:1033F000F60180818F3FE1F0FE01ED53FB4F8081AC
:10340000F4E08F9FC00111248034910524F4B701AA
:10341000681B790B02C060E070E0610F7FEF809164
:10342000BB040E94FC17472F282FCE010E94B11821
:10343000219624E0C20ED11CC033D105C9F6DF911C
:10344000CF911F91FF90EF90DF90CF900895CF9292
:10345000DF92EF92FF920F931F93CF93DF938091B0
:10346000B7039091B803A091B903B091BA0300904B
:10347000BC0404C0880F991FAA1FBB1F0A94D2F76F
:10348000D82EC090BB0407E111E0C0E0D0E08FE38C
:10349000E82EF12CF80180818F3FF9F0FE01ED5309
:1034A000FB4F2081F4E02F9F90011124203431053F
:1034B0002CF4C701821B930B9C0102C020E030E07A
:1034C000F80161816D0D620F7FEF8C2D0E94FC175A
:1034D000472F282FCE010E94B11821960C5F1F4F55
:1034E000C033D105B9F6DF91CF911F910F91FF90B5
:1034F000EF90DF90CF900895CF92DF92EF92FF92FE
:103500000F931F93CF93DF938091B7039091B803EC
:10351000A091B903B091BA030090BC0404C0880F15
:10352000991FAA1FBB1F0A94D2F7D82EC090BB04C4
:1035300007E111E0C0E0D0E08FE3E82EF12CF801C4
:1035400080818F3FF9F0FE01ED53FB4F2081F4E0C5
:103550002F9F90011124203431052CF4C701821BC8
:10356000930B9C0102C020E030E0F80162816D0DF8
:10357000620F7FEF8C2D0E94FC17472F282FCE0162
:103580000E94B11821960C5F1F4FC033D105B9F6C8
:10359000DF91CF911F910F91FF90EF90DF90CF902F
:1035A00008952F923F924F925F926F927F928F92E7
:1035B0009F92AF92BF92CF92DF92EF92FF920F93C2
:1035C0001F93CF93DF933090BA042090BB04609197
:1035D000B7037091B8038091B9039091BA030E9428
:1035E000933A2BED3FE049E450E40E94A33B20E0F6
:1035F00030E040E05CE30E94A33B6B017C010E9451
:10360000E63920E030E040E05DE30E94A33B2B017F
:103610003C01C701B6010E94103C20E030E040EEC2
:1036200052E40E94EB394B015C01C9E1D1E000E0BA
:1036300010E0688170E080E090E00E94953A20E020
:1036400030E040E052E40E947439A30192010E94EC
:10365000A33B6B017C01FE013197608170E080E04B
:1036600090E00E94953A20E030E040EE52E40E9463
:103670007439A50194010E94A33B9B01AC01C701D1
:10368000B6010E94753920E030E044E353E40E9423
:10369000A33B6B017C018091B804881F8827881F99
:1036A0009091B904292F220F622F682B97FB77275F
:1036B00070F9072E000C880B990B0E94953A9B011C
:1036C000AC01C701B6010E9475390E94643A732D9E
:1036D000822D0E94FC17472F282FC8010E94B11885
:1036E0000F5F1F4F24960033110509F0A2CFDF9121
:1036F000CF911F910F91FF90EF90DF90CF90BF90EF
:10370000AF909F908F907F906F905F904F903F9081
:103710002F9008952F923F924F925F926F927F92D7
:103720008F929F92AF92BF92CF92DF92EF92FF92D1
:103730000F931F93CF93DF93CDB7DEB728970FB6C4
:10374000F894DEBF0FBECDBF8091BA048D839091F7
:10375000BB049E836091B7037091B8038091B90355
:103760009091BA030E94933A2BED3FE049E450E474
:103770000E94A33B20E030E040E05CE30E94A33BDA
:103780006B017C010E94E6392B013C01C701B601A7
:103790000E94103C69837A838B839C83E9E1F1E08A
:1037A000F887EF8300E010E0EF81F8853197208003
:1037B000EF81F885B0803090BC04332079F0632D20
:1037C00070E080E090E00E94953A20E030E040EC2C
:1037D0005FE30E94A33B6B017C0106C0C12CD12C8E
:1037E00090ECE92E9FE3F92E6B2D70E080E090E0E5
:1037F0000E94953A20E030E040E052E40E947439A3
:103800009B01AC01C701B6010E94A33BA301920139
:103810000E94A33B4B015C01332079F0632D70E0E3
:1038200080E090E00E94953A20E030E040EC5FE3D9
:103830000E94A33B6B017C0106C0C12CD12C80EC03
:10384000E82E8FE3F82E622D70E080E090E00E9479
:10385000953A20E030E040EE52E40E9474399B013A
:10386000AC01C701B6010E94A33B29813A814B817B
:103870005C810E94A33B9B01AC01C501B4010E9485
:1038800075396B017C018091B804881F8827881FD7
:103890009091B904292F220F622F682B97FB77276D
:1038A00070F9072E000C880B990B0E94953A9B012A
:1038B000AC01C701B6010E9475390E94643A7D814E
:1038C0008E810E94FC17472F282FC8010E94B11833
:1038D0000F5F1F4F8F819885049698878F830033E1
:1038E000110509F061CF28960FB6F894DEBF0FBE20
:1038F000CDBFDF91CF911F910F91FF90EF90DF909F
:10390000CF90BF90AF909F908F907F906F905F907F
:103910004F903F902F9008952F923F924F925F9239
:103920006F927F928F929F92AF92BF92CF92DF92CF
:10393000EF92FF920F931F93CF93DF9300D000D0AD
:103940001F92CDB7DEB72091BA042A838091BB04C1
:103950008B836091B7037091B8038091B903909104
:10396000BA030E94933A2BED3FE049E450E40E94F1
:10397000A33B20E030E040E05CE30E94A33B6B010E
:103980007C010E94E6392B013C01C701B6010E946F
:10399000103C4B015C01A9E1B1E0BD83AC8300E0C8
:1039A00010E0EC81FD813197B081B983EC81FD811C
:1039B00030802090BC04222069F0622D70E0660FF8
:1039C000771F072E000C880B990B0E94953A6B010C
:1039D0007C0105C0C12CD12CE12C20E4F22E632DFA
:1039E00070E080E090E00E94953A20E030E040E016
:1039F00052E40E9474399B01AC01C701B6010E94D8
:103A0000A33BA30192010E94A33B6B017C012220F6
:103A100021F0312C220C331C03C082E0282E312CE3
:103A2000F9816F2F70E080E090E00E94953A20E0ED
:103A300030E040EE52E40E9474390E945D3A9B01EE
:103A400077FF04C022273327261B370B82E490E040
:103A5000821B930B289EB001299E700D389E700D1D
:103A60001124072E000C880B990B0E94953AA50192
:103A700094010E94A33B9B01AC01C701B6010E94C7
:103A800075396B017C018091B804881F8827881FD5
:103A90009091B904292F220F622F682B97FB77276B
:103AA00070F9072E000C880B990B0E94953A9B0128
:103AB000AC01C701B6010E9475390E94643A7A814F
:103AC0008B810E94FC17472F282FC8010E94B11834
:103AD0000F5F1F4F8C819D8104969D838C830033E3
:103AE000110509F05ECF0F900F900F900F900F907F
:103AF000DF91CF911F910F91FF90EF90DF90CF90CA
:103B0000BF90AF909F908F907F906F905F904F90FD
:103B10003F902F9008952F923F924F925F926F9215
:103B20007F928F929F92AF92BF92CF92DF92EF924D
:103B3000FF920F931F93CF93DF9300D01F92CDB7C7
:103B4000DEB72090BA048091BB0489836091B703EB
:103B50007091B8038091B9039091BA030E94933A8F
:103B600020E030E040E85BE30E94A33B20E030E04F
:103B700040E653E40E94A33B2B013C01E9E1F1E064
:103B8000FB83EA8300E010E0EA81FB81319730801B
:103B9000EA81FB81E080F090BC04FF2079F06F2D7A
:103BA00070E080E090E00E94953A20E030E040EC48
:103BB0005FE30E94A33B4B015C0106C0812C912C6A
:103BC00090ECA92E9FE3B92E6E2D70E080E090E07E
:103BD0000E94953A20E030E040E052E40E947439BF
:103BE0000E945D3A9B0177FF04C022273327261BE2
:103BF000370BB901330F880B990B0E94953A9B0143
:103C0000AC01C501B4010E94A33B2EE23DEB4BEB9E
:103C100053EB0E94A33B4B015C01FF2079F06F2D19
:103C200070E080E090E00E94953A20E030E040ECC7
:103C30005FE30E94A33B6B017C0106C0C12CD12C29
:103C400080ECE82E8FE3F82E632D70E080E090E0AA
:103C50000E94953AA30192010E9474399B01AC0124
:103C6000C701B6010E94A33B9B01AC01C501B40191
:103C70000E9474396B017C018091B804881F8827E9
:103C8000881F9091B904292F220F622F682B97FB70
:103C9000772770F9072E000C880B990B0E94953A34
:103CA0009B01AC01C701B6010E9475390E94643ABC
:103CB000722D89810E94FC17472F282FC8010E946E
:103CC000B1180F5F1F4F8A819B8104969B838A8363
:103CD0000033110509F058CF0F900F900F90DF912E
:103CE000CF911F910F91FF90EF90DF90CF90BF90F9
:103CF000AF909F908F907F906F905F904F903F908C
:103D00002F900895CF92DF92FF920F931F93CF933E
:103D1000DF931F92CDB7DEB7F82E0091B703109155
:103D2000B8032091B9033091BA039091BC04992350
:103D300059F0692F70E08AE090E00E94853CAB0169
:103D4000770F660B770B04C04AE050E060E070E04C
:103D50004023512362237323452B462B472B39F4F1
:103D60000E940D3D60E370E00E94853C01C08FEF32
:103D700000E010E0C82ED12CF11003C00C151D0579
:103D800081F40E940D3D89830E940D3D782F698149
:103D90008091BB040E94FC17472F282FC8010E9466
:103DA000B1180F5F1F4F0033110531F70F90DF91EE
:103DB000CF911F910F91FF90DF90CF9008950895BC
:103DC0000E94DF1E0C9413104091B80440FD0AC0FD
:103DD0000E94BB180E94E01E8091B80481708093FD
:103DE000090108958091B103843120F48F5F80939D
:103DF000B10308958091B7039091B803A091B903DE
:103E0000B091BA030196A11DB11D8093B7039093A1
:103E1000B803A093B903B093BA038091B303909110
:103E2000B403A091B503B091B6038F3F2FEF920773
:103E3000A207B20759F00196A11DB11D8093B303EB
:103E40009093B403A093B503B093B6038091B203EB
:103E5000E3ECF4E090819F3F61F09E3F41F4282F16
:103E600030E02230310514F0815001C080E09F5FC6
:103E70009083319694E0E33FF90761F78093B203B2
:103E8000E42FE695EF7380910801E81307C081E005
:103E900090910901913019F480E001C081E08170B6
:103EA000E093080191E0909309014E2F50E0FA0150
:103EB0003197EB30F10520F5E358FF4F0C94BB3CF4
:103EC0000E94C0181DC00E94D11A1AC00E94D518A5
:103ED00017C00E94471914C00E94D61911C00E9431
:103EE000271A0EC00E947C1A0BC00E948A1B08C0B1
:103EF0000E948C1C05C00E948B1D02C00E94821E65
:103F00000C94E01EE0919F02F091A0020995E3EC71
:103F1000F4E08FEF819394E0E33FF907D9F70E9433
:103F20003F30811104C00E94B9300E949C180E9449
:103F300092186093B8047093B9048093BA04909374
:103F4000BB046E7761F40E949C180E9492186093E3
:103F5000B8047093B9048093BA049093BB04089595
:103F60006091B7037091B8038091B9039091BA033F
:103F70000895E8EBF4E08081982F909590FB80F90C
:103F8000808360817181828193810C9496189091D5
:103F9000B804892F86958F5F8F7391788C3018F4D1
:103FA000880F892B02C0892F82608093B8046091AA
:103FB000B8047091B9048091BA049091BB040C9438
:103FC00096189091B804892F8695815C8F739178AB
:103FD000882319F0880F892B02C0892F866180936E
:103FE000B8046091B8047091B9048091BA049091BA
:103FF000BB040C9496188091B804982F991F9927A8
:10400000991F8091B904880F892B90E008968F3F03
:10401000910519F014F08FEF90E02091B80480FB27
:1040200027F92093B804282F26958091B904807829
:10403000822B90FB87F98093B9046091B80470914A
:10404000B9048091BA049091BB040C9496188091A5
:10405000B804982F991F9927991F8091B904880F48
:10406000892B90E0089797FF02C080E090E08F3F97
:10407000910519F014F08FEF90E02091B80480FBC7
:1040800027F92093B804282F26958091B9048078C9
:10409000822B90FB87F98093B9046091B8047091EA
:1040A000B9048091BA049091BB040C949618809145
:1040B000BA0490E008968F3F910519F014F08FEF45
:1040C00090E08093BA046091B8047091B904809133
:1040D000BA049091BB040C9496188091BA0490E0B5
:1040E000089797FF02C080E090E08F3F910519F09C
:1040F00014F08FEF90E08093BA046091B80470914F
:10410000B9048091BA049091BB040C9496188091E4
:10411000BB0490E008968F3F910519F014F08FEFE3
:1041200090E08093BB046091B8047091B9048091D1
:10413000BA049091BB040C9496188091BB0490E053
:10414000089797FF02C080E090E08F3F910519F03B
:1041500014F08FEF90E08093BB046091B8047091ED
:10416000B9048091BA049091BB040C949618809184
:10417000BC0490E001968430910514F083E090E057
:104180008093BC046091B8047091B9048091BA0422
:104190009091BB040C9496188091BC0490E0019718
:1041A00097FF02C080E090E08430910514F083E036
:1041B00090E08093BC046091B8047091B904809140
:1041C000BA049091BB040C949618E8EBF4E08F735A
:1041D000982F990F80818178892B808360817181EC
:1041E000828193810C949618E8EBF4E08F73982FFA
:1041F000990F80818178892B808308958091B804FC
:1042000086958F730895E8EBF4E0208180FB27F911
:104210002083A9EBB4E086952C912078822B90FB2B
:1042200087F98C936283438360817181828193815A
:104230000C949618E8EBF4E0208180FB27F92083AA
:10424000A9EBB4E086952C912078822B90FB87F91E
:104250008C9362834383089567E784E70C9401237A
:10426000CF930E94402384E70E94862187E70E9423
:104270008621C0E021E041E061E08C2F0E941822FD
:10428000CF5FC033B9F767E784E7CF910C9414236D
:10429000E3E1F6E06083418324E630E042E050E071
:1042A000BF01880F0C941624EF92FF921F93CF93B7
:1042B000DF937B01182F110FC0E0D0E08C2F8C5DB5
:1042C0008093130620E030E0F901EC0FFD1FEE0DA6
:1042D000FF1D8081F901ED5EF94F81832F5F3F4F14
:1042E0002031310589F724E630E041E150E063E117
:1042F00076E0812F0E9416246096C039D105F1F630
:10430000DF91CF911F91FF90EF900895CF93DF93AE
:10431000C82F4BE06DEF0E94482140E06AE08C2FEF
:104320000E9448218FE39CE90197F1F700C000004B
:1043300040E060E08C2F0E94482140E061E08C2F3B
:104340000E94482140E066E08C2F0E94482140E016
:104350006DEF8C2F0E944821D0E040E06D2F8C2F14
:104360000E944821DF5FD231C1F740E06D2F8C2FD2
:104370000E944821DF5FD432C1F740E06D2F8C2FBF
:104380000E944821DF5FD43BC1F74BE06DEF8C2FDB
:104390000E94482141E06AE08C2F0E94482140E0C1
:1043A0006DEF8C2FDF91CF910C94482180339105D4
:1043B00020F5880F991F880F991FFC01E952FE4FC5
:1043C00052813381808183707181E0E98E9FC001C9
:1043D00011248D509B4FFC01E70FF11DB4976083B2
:1043E000FC01E50FF11DB4974083830F911DFC0183
:1043F000B497208381E08093E0030895FF920F93A8
:104400001F93CF93DF93182F062FF42EC0E0D0E038
:104410002F2D402F612FCE010E94D6212196C0332F
:10442000D105B1F7DF91CF911F910F91FF900895C2
:104430004F925F927F928F929F92AF92BF92CF9254
:10444000DF92EF92FF920F931F93CF93DF93362F5C
:1044500054E0859FC0011124FC01E952FE4FA08168
:10446000A3707A2E618170E0CB0184978C0197FF55
:1044700002C0095F1F4FA3E015950795AA95E1F7C4
:10448000628170E07B0154E2E51AF108E701F7FC74
:10449000279673E0D595C7957A95E1F7638170E02B
:1044A0004B01E4E28E1A9108F40197FC37962F0134
:1044B00053E0559447945A95E1F768E0A62EB12C45
:1044C000B5010E94853C6C01C701B5010E94853C85
:1044D0007C01C401B5010E94853CA72DB0E01127E5
:1044E000DD243323A1F032E13A9FB0013B9F700DF0
:1044F0001124060F171F04541C4F61E070E001C027
:10450000660FCA94EAF7F8013081632B14C032E1D8
:104510003A9FB0013B9F700D1124060F171F0454E2
:104520001C4F61E070E001C0660FCA94EAF7609525
:10453000F801308163236083DD27FF2432E14423C7
:1045400091F03A9FA0013B9F500D1124C40FD51F3D
:10455000C454DC4F41E050E001C0440FEA94EAF754
:104560003881432B12C03A9FA0013B9F500D11246C
:10457000C40FD51FC454DC4F41E050E001C0440FCC
:10458000EA94EAF74095388143234883A2015527EE
:10459000992792E19A9FF0019B9FF00D1124E40F5F
:1045A000F51FE454FC4F222361F021E030E0A90123
:1045B00002C0440F551F8A95E2F7CA019081892BEA
:1045C0000CC021E030E0A90102C0440F551F8A95BC
:1045D000E2F7CA01809590818923808381E08093EE
:1045E000BB03DF91CF911F910F91FF90EF90DF9070
:1045F000CF90BF90AF909F908F907F905F904F90A3
:104600000895CF939091E003992351F0C62F63EF63
:1046100074E00E94542163E875E08C2F0E945421BD
:104620001092E003CF910895EF92FF920F931F93A2
:10463000CF93DF939091BB039923D9F0162F082FC6
:104640008CEBE82E83E0F82EC0E0D0E0F70141913A
:104650007F016C2F802F0E944821FE01E454FC4F03
:1046600042896C2F812F0E9448212196C231D105A9
:1046700069F7DF91CF911F910F91FF90EF9008950F
:104680001092B9008CE08093B8000895EF92FF92E9
:104690000F931F93CF93DF93182FEB011092BC0061
:1046A00084EA8093BC000E94CD317C019091BC00D3
:1046B00097FD0EC0CF3F8FEFD807C1F30E94CD31D9
:1046C0008E199F098C179D0788F38EEF9FEF2EC0E0
:1046D0009091B900987F983041F09091B900987FFF
:1046E000903119F08FEF9FEF21C01093BB0084E849
:1046F0008093BC000E94CD318C019091BC0097FD4D
:104700000CC0CF3F8FEFD807C1F30E94CD31801B83
:10471000910B8C179D0788F3D8CF8091B900887FC3
:10472000883111F08034F1F680E090E0DF91CF9194
:104730001F910F91FF90EF9008950F931F93CF93C8
:10474000DF93EB018093BB0084E88093BC000E9460
:10475000CD318C019091BC0097FD0EC0CF3F8FEF03
:10476000D807C1F30E94CD31801B910B8C179D0798
:1047700088F38EEF9FEF0CC02091B900287F81E075
:1047800090E0283211F480E090E0919581959109B4
:10479000DF91CF911F910F9108950F931F93CF93A6
:1047A000DF93EC0184E88093BC000E94CD318C0142
:1047B0009091BC0097FD0EC0CF3F8FEFD807C1F39B
:1047C0000E94CD31801B910B8C179D0788F38EEFD3
:1047D0009FEF03C08091BB0090E0DF91CF911F91CC
:1047E0000F9108950F931F93CF93DF93EC0184E90A
:1047F0008093BC000E94CD318C019091BC0094FF4D
:104800000EC0CF3F8FEFD807C1F30E94CD31801B80
:10481000910B8C179D0788F38EEF9FEF02C080E00D
:1048200090E0DF91CF911F910F910895CF92DF9289
:10483000EF92FF920F931F93CF93DF936B017A0157
:104840008901B9010E944623FC01892BC9F4E601C4
:10485000EC0CFD1CCE15DF0541F0B80189910E94DA
:104860009D23FC01892BB1F30BC0C801DF91CF91CF
:104870001F910F91FF90EF90DF90CF900C94F22357
:10488000CF01DF91CF911F910F91FF90EF90DF90BB
:10489000CF9008959093E6038093E5030895E09107
:1048A000E503F091E603309721F00190F081E02DCF
:1048B000099480E00895E091E503F091E6033097D4
:1048C00099F020911601222359F020912B0627FF01
:1048D00007C0DC012C9111962C93119725E02C93A5
:1048E0000280F381E02D099408952091E303309133
:1048F000E4038217930771F09093E4038093E3033A
:10490000E091E503F091E603309721F00680F7810E
:10491000E02D099408952091E1033091E20382177C
:10492000930771F09093E2038093E103E091E50334
:10493000F091E603309721F00084F185E02D099491
:10494000089585B7806885BF85B7806885BF08955D
:10495000089508950C94A92408950C94AC240E9401
:10496000A1240E94A8240C94AA2481E008950E9406
:10497000C4310E94B4060E945B320C94AD24CF92E5
:10498000DF92EF92FF920F931F93CF93DF93CDB7F8
:10499000DEB72B970FB6F894DEBF0FBECDBF0E94D7
:1049A00086070E94B524811111C08FEF89838A8305
:1049B0001B820E94CD318160782F9D838C83498139
:1049C0005A816B818D810E94652556C088EEC82E64
:1049D00083E0D82E00E010E0E02E802F0E94CE076A
:1049E000F60141916F01F42EF82631F40F5F1F4F4D
:1049F0000E30110589F7D9CF9091930491FF04C02F
:104A00008B870E94D4078B8520E030E04F2D50E04B
:104A1000922FBA01022E02C0759567950A94E2F7AB
:104A200060FF24C02E83EF8221E030E0690102C0E4
:104A3000CC0CDD1C9A95E2F790E08C219D21892B0E
:104A400009F420E028870E94CD318160782F9A8771
:104A500089874E815F8168858A850E946525F80176
:104A6000E851FC4F8081C826C08206C02F5F3F4FAF
:104A70002630310569F6BACF1091E7030E944F2422
:104A80001817A1F00E944F248093E7032B960FB6CE
:104A9000F894DEBF0FBECDBFDF91CF911F910F9174
:104AA000FF90EF90DF90CF900C940F122B960FB6E3
:104AB000F894DEBF0FBECDBFDF91CF911F910F9154
:104AC000FF90EF90DF90CF900895CF93DF93CDB715
:104AD000DEB72B970FB6F894DEBF0FBECDBF4F8366
:104AE000588769877A878B87DE01119686E0FD01FA
:104AF00011928A95E9F785E0FE01379601900D92B3
:104B00008A95E1F749815A816B817C818D819E81F3
:104B10000E94302C2B960FB6F894DEBF0FBECDBF8F
:104B2000DF91CF910895FC01808191810E94FD2E3B
:104B30000895882309F413C1682F8238C1F40E94B4
:104B40004F2481FD0CC169E380910A0190910B0112
:104B50000E9420310E948B2F2FEF81EE94E0215094
:104B600080409040E1F700C0000069E319C083383D
:104B7000F9F40E944F2480FDF2C063E580910A01A0
:104B800090910B010E9420310E948B2F2FEF81EE1C
:104B900094E0215080409040E1F700C0000063E5C0
:104BA00080910A0190910B010E942B310C948B2F64
:104BB0008438C1F40E944F2482FDD1C067E4809103
:104BC0000A0190910B010E9420310E948B2F2FEF40
:104BD00081EE94E0215080409040E1F700C0000059
:104BE00067E4DECF8CEF860F813A38F480910A01BA
:104BF00090910B010E942031D9CF80E2860F88303E
:104C000048F4677081E001C0880F6A95EAF70E9456
:104C10003F2FCCCF8BE5860F833070F4653A29F0B7
:104C2000663A31F083E890E005C081E890E002C088
:104C300082E890E00C94752488E5860F873108F0AF
:104C40008EC0683A09F445C0693A09F445C06A3A29
:104C500009F445C06B3A09F445C06C3A09F445C003
:104C60006B3B09F445C06C3B09F445C06D3A09F44F
:104C700045C0603B09F445C06E3A09F445C06F3A3F
:104C800009F445C0613B09F445C0623B09F445C0E5
:104C9000633B09F445C0643B09F445C0653B09F436
:104CA00045C0663B09F445C0673B09F445C0683B15
:104CB00009F445C0693B09F445C06D3B09F445C0A2
:104CC0006E3B09F445C06A3B09F445C080E090E0C2
:104CD00044C082EE90E041C089EE90E03EC08AEE92
:104CE00090E03BC085EB90E038C086EB90E035C0AB
:104CF00083EB90E032C084EB90E02FC087EB90E034
:104D00002CC08CEC90E029C08DEC90E026C083E8AC
:104D100091E023C08AE891E020C082E991E01DC0C3
:104D200084E991E01AC081E292E017C083E292E048
:104D300014C084E292E011C085E292E00EC086E2E7
:104D400092E00BC087E292E008C08FE690E005C0D9
:104D500080E790E002C08AE292E00C948B240895F0
:104D6000882309F45BC0682F823879F40E944F24AD
:104D700081FF54C069E380910A0190910B010E9468
:104D800020310E948B2F69E310C08338B1F40E9458
:104D90004F2480FF43C063E580910A0190910B018D
:104DA0000E9420310E948B2F63E580910A0190912F
:104DB0000B010E942B310C948B2F843879F40E94C4
:104DC0004F2482FF2BC067E480910A0190910B0170
:104DD0000E9420310E948B2F67E4E7CF8CEF860F73
:104DE000813A18F380E2860F883048F4677081E0DA
:104DF00001C0880F6A95EAF70E94452FDCCF8BE54A
:104E0000860F833020F480E090E00C947524685A7B
:104E1000673120F480E090E00C948B240895CF93C8
:104E2000C82F0E9499258C2FCF910C94B0268823EF
:104E300021F00E943F2F0C948B2F0895882321F09E
:104E40000E94452F0C948B2F08958F929F92AF92C2
:104E5000BF92DF92EF92FF920F931F93CF93DF9356
:104E60007C01D62FC72FFC01058102950F7012819E
:104E700011110E945F2F0E94352F882379F0112392
:104E800069F080E28D0F883048F082E00E94D62FD2
:104E90000E94352F91E0D82ED92601C0D12CAC2EFE
:104EA000A2948FE0A822B12CF501E857FF4F0C9493
:104EB000BB3C8C2F807FCF70882311F0C295C07FC0
:104EC000112399F0CC2309F485C180E28D0F88303D
:104ED00010F0D11104C08C2F0E943F2F03C08C2FE3
:104EE0000E94522F0E948B2F75C18D2F0E94B026D9
:104EF000CC2309F494C180E28D0F883010F0D111D9
:104F000004C08C2F0E94452F03C08C2F0E94582F65
:104F10000E948B2F84C18C2F807FCF70803211F044
:104F2000C295C07FDD2319F0D130C9F021C0112313
:104F300071F0002341F0013031F40E94722F8C2B6C
:104F40000E94782F6CC10E94722F8C2BFDC0002311
:104F500019F0013009F463C10E94812F11C011239F
:104F600021F0023008F05BC107C0011158C108C030
:104F7000112321F001112EC18C2FE6C001113BC17C
:104F80008C2FE8C08C2F86958695837090E00097D3
:104F900019F0019761F043C1112321F08D2F9C2F4F
:104FA000937002C080E090E00E94752448C11123F4
:104FB00021F08D2F9C2F937002C080E090E00E9422
:104FC0008B243DC18C2F837009F050C0111133C167
:104FD0008D2F829586958770880F880F9D2F9F70E3
:104FE000892E912CA12CB12C082E04C0880C991C60
:104FF000AA1CBB1C0A94D2F7D4FF14C00FE010E027
:1050000020E030E0B901A80104C0440F551F661F1D
:10501000771F8A95D2F7CB01BA016095709580957C
:10502000909503C060E070E0CB01C695C695C37053
:10503000D0E0C230D10561F0C330D10581F06829DC
:1050400079298A299B29219771F00E94752DF3C037
:10505000682979298A299B290E94872DECC00E9402
:10506000752DC501B4010E94632DE5C0112319F00F
:105070008C2F817001C08695882309F4DCC08D2FA8
:10508000829586958770880F880F9D2F9F70892E37
:10509000912CA12CB12C082E04C0880C991CAA1CA0
:1050A000BB1C0A94D2F7D4FF14C00FE010E020E03C
:1050B00030E0B901A80104C0440F551F661F771FD7
:1050C0008A95D2F7CB01BA0160957095809590953D
:1050D00003C060E070E0CB01C695C695C3704C2F4D
:1050E00050E04230510569F04330510589F068299C
:1050F00079298A299B294130510571F00E943A2E65
:105100009AC0682979298A299B290E944C2E93C02C
:105110000E943A2EC501B4010E94282E8CC08D2F0A
:1051200090E0FC01E05EF109E531F10508F04EC0C8
:10513000E856FF4F0C94BB3CDF708C2F8F7111230E
:1051400031F00E94C12D8D2F0E94172768C00E9448
:10515000E22D8D2F0E941E2762C0112339F001110C
:105160005EC08C2F8F710E94072E59C0023008F04C
:1051700056C0F7CF112339F08C2F8F710E94C12DAB
:105180004EC01123C9F38C2F8F710E94E22D47C0AE
:10519000112329F08C2F8F710E94AC2D40C00E94EA
:1051A000A72D3DC0112349F0CF718C2F0E94C12D36
:1051B00063E08C2F0E94C12F32C081E00E94D62F65
:1051C000023068F182E00E94D62F29C0112331F00D
:1051D000002391F28D2F0E94992521C0002399F27E
:1051E000D93349F45FEF67EE73E05150604070408F
:1051F000E1F700C000008D2F0E94B02610C04C2F98
:105200004F706D2FC7010E9482100E94D42C17C0CE
:105210004C2F4F706D2FC7010E94C31410C088E03F
:10522000A816B10441F05CF0EAE0AE1AB108F2E071
:10523000AF16B10420F40E944F240E940F12DD200B
:10524000E1F00E94312F80FD18C0F70112820E9408
:105250002B2F0E94C12DC7010E9449290E942B2F8C
:10526000DF91CF911F910F91FF90EF90DF90BF9052
:10527000AF909F908F900C94E22DDF91CF911F9172
:105280000F91FF90EF90DF90BF90AF909F908F9025
:1052900008950F931F93CF93DF93EC018881998139
:1052A0002B813C81232BB9F09F3F11F48F3F99F064
:1052B000CE010E942112882371F0688179818A8150
:1052C0000E94082F8C010E945E2E0E94602DB80162
:1052D000CE010E942527DF91CF911F910F91089554
:1052E0000E945F2F0E946F2F0E948B2F80E090E022
:1052F0000E94752480E090E00C948B2480910A0138
:1053000090910B010E9436310C9470290E944F2F0E
:105310000C947E29E92FE295EF70F0E03297EE30A1
:10532000F105B0F4E355FF4F0C94BB3C803F91F086
:1053300018F4803E68F40EC0843F51F40BC0803EE8
:1053400048F0813F29F406C093FB882780F908952F
:1053500080E0089581E008950E94FD2E0E948A2930
:105360000895CF93DF9300D000D01F92CDB7DEB762
:105370000F900F900F900F900F90DF91CF910895A5
:10538000CF93DF9300D000D000D0CDB7DEB7269604
:105390000FB6F894DEBF0FBECDBFDF91CF91089559
:1053A0001F93CF93DF93C091F70316E08091F8032A
:1053B000C81799F0D0E01C9FF0011D9FF00D11243B
:1053C000E750FC4F408151816281738184819581D6
:1053D0000E94C0292196C770E9CFDF91CF911F911C
:1053E00008954091290450912A0460912B047091F2
:1053F0002C0480912D0490912E040C94C02980914E
:105400002E0482958F7009F054C080912B0488235C
:1054100009F44FC08091F703A091F803609129042B
:1054200070912A0440912C0450912D04B6E08A1703
:1054300009F43FC090E041155105C1F17F3F11F4DF
:105440006F3FA1F1B89FF001B99FF00D1124E75013
:10545000FC4F218172132AC02081621327C0228150
:10546000211124C0238134812417350710F42150E1
:105470003109241B350B283C3105C0F420912E0442
:105480002F70206120932E0426E0289FF001299F91
:10549000F00D1124E250FC4F80818F708061808379
:1054A00089E294E00E9449290C94D02901968770E2
:1054B000BECF0895CF92DF92EF92FF920F931F938A
:1054C000CF93DF93CDB7DEB762970FB6F894DEBF08
:1054D0000FBECDBF8C0185E0F801DE011D96019065
:1054E0000D928A95E1F7D8014C9111965C91119734
:1054F00012966C9112971396CD90DC901497309180
:10550000290470912A0480912C0490912D04009715
:1055100009F46BC17F3F19F43F3F09F466C1E09085
:105520002B04EE2009F4C0C020912E04C816D90621
:1055300028F0F601E81BF90BCF0104C08095909587
:105540008C0D9D1DFF24F394883C910578F0F12C7F
:10555000207F09F0C6C07C2DD98AC88A89890E941B
:10556000B12989E294E00E944929B1C0822F807F4D
:1055700009F046C0751314C0341312C0611110C075
:105580002F70206120932E040E94F12989E294E07B
:105590000E94492980912E04D80115968C932EC023
:1055A000CD2819F15F3F11F44F3FF9F0F62E61114C
:1055B0001CC08091F7032091F80336E0821709F4AC
:1055C0005AC090E0389FF001399FF00D1124E75048
:1055D000FC4F7181571306C07081471303C072815D
:1055E000711103C001968770E9CFF62E662309F486
:1055F00027C180912E04816080932E04F12C20C15C
:10560000751308C0341306C0611104C080912E04C4
:10561000D801C3C04D875E878D859E856A8B0E94A9
:10562000AC296A898823E1F16623D1F120912E0407
:10563000822F82958F7090E0029774F080912904F8
:1056400090912A0498878F831986DB86CA862C87D7
:10565000CE0107960E94492986E0F801A9E2B4E04C
:1056600001900D928A95E1F70E94FF290E94F1298D
:10567000FF24F394E5C04D875E878D859E850E944B
:10568000FD2E292F22952F7030E0223031050CF0AD
:10569000CBC09F7009F0C5C0805E883008F4D0C0D0
:1056A000C8010E944929E4CFC816D90608F453C09E
:1056B000F601E81BF90BCF01883C910508F450C0B6
:1056C000F12C7C2DD98AC88A89890E94B129E9E206
:1056D000F4E086E0DF011D928A95E9F70E94F12946
:1056E000AFC0751314C0341312C0611110C0809183
:1056F0002E04F8018583C8010E94492986E0E9E269
:10570000F4E0DF011D928A95E9F7FE2C99C04D87E0
:105710005E878D859E856A8B0E94AC296A89882365
:1057200009F4BECF662309F4BBCF20912E04822F4B
:1057300082958F7090E002970CF48ECF80912904AF
:1057400090912A049A8389831B82DD82CC822E83E6
:10575000CE0101967FCF809590958C0D9D1DACCF8D
:10576000F62E662309F49CCF75132EC034132CC07B
:1057700020912E0420FD1FC0822F82958F70D9F0BA
:10578000D80115962C9315978F3049F08F5F982F7D
:105790009295907F822F8F70892B15968C93C801DC
:1057A0000E94492986E0F801A9E2B4E001900D9237
:1057B0008A95E1F793CF86E0F801A9E2B4E0019081
:1057C0000D928A95E1F73CC04D875E878D859E8559
:1057D0000E94AC29811140CF80912E04816080937A
:1057E0002E04C8010E9449292BC0662309F458CF12
:1057F0004D875E878D859E850E94AC29F82E882373
:1058000009F44ECF86E0F801A9E2B4E001900D92D0
:105810008A95E1F789E294E00E9493250E94FF298E
:105820005DCF811139CF0CC0243031050CF038CF59
:105830009F7009F431CFF8019581907F09F02CCF4A
:105840008F2D62960FB6F894DEBF0FBECDBFDF91ED
:10585000CF911F910F91FF90EF90DF90CF9008951F
:105860001F93CF93DF93CDB7DEB72C970FB6F89485
:10587000DEBF0FBECDBF4F83588769877A878B877E
:105880009C87CE0107960E945A2A882369F08F814F
:1058900098852A853B85232BF1F19F3F09F063C052
:1058A0008F3F09F060C037C086E0FE013796DE0109
:1058B000119601900D928A95E1F76F817885EA85BE
:1058C000FB85309741F17F3F11F46F3F21F120912B
:1058D000F80330E0C9010196877099274091F703DA
:1058E00050E08417950709F447C069837A83FD83E4
:1058F000EC8396E0929FD001939FB00D1124A750A6
:10590000BC4FFE01319601900D929A95E1F780937C
:10591000F8030E94D02916E08091F7039091F803D4
:105920008917C1F1189FC001112487509C4F0E9414
:105930005A2A882379F1E091F7031E9FF001112480
:10594000E750FC4F40815181628173818481958150
:105950000E94C0298091F70390E0019687709927F3
:105960008093F703D9CF4F81588569857A858B85D8
:105970009C850E94C029CFCF0E9486291092F803EF
:105980001092F703E9E2F4E086E0DF011D928A95C8
:10599000E9F7C1CF2C960FB6F894DEBF0FBECDBF8E
:1059A000DF91CF911F910895EF92FF920F931F9374
:1059B000CF93DF938C01892B09F46CC0F12CEE247A
:1059C000E394E8012196F8018491843740F484300F
:1059D00008F051C0813081F0823019F15BC0853709
:1059E00009F444C0A8F19CE7980F903708F052C022
:1059F0008F770E94B02641C00E5F1F4FFE01C491F9
:105A000080E28C0F883048F4C7708E2D01C0880F5B
:105A1000CA95EAF70E94622F14C08C2F0E94992524
:105A20002DC00E5F1F4FFE01C49180E28C0F8830A5
:105A300058F4C7708E2D01C0880FCA95EAF70E94EE
:105A4000682F0E948B2F1AC08C2F0E94B02616C080
:105A50000E5F1F4FFE01C491CC2381F08FE99FE0C0
:105A60000197F1F700C00000C150F6CF0E5F1F4F45
:105A7000FE01F49003C00E9499258E018F2D88238A
:105A800009F49FCFEFE9FFE03197F1F700C0000084
:105A90008150F5CFDF91CF911F910F91FF90EF9043
:105AA000089508950C94512D0E94522D60936A041C
:105AB00070936B0480936C0490936D040C94702924
:105AC00008950C94542D0F931F9300916A04109124
:105AD0006B0420916C0430916D04602B712B822B30
