:100000000C9454060C9471060C9471060C947106B1
:100010000C9471060C9471060C9471060C94710684
:100020000C9471060C9471060C9423340C94F534E2
:100030000C948B2C0C9471060C9471060C94710624
:100040000C9471060C9471060C9471060C94710654
:100050000C9471060C94F32C0C9471060C9471069C
:100060000C9471060C9471060C9471060C94710634
:100070000C9471060C9471060C9471060C94710624
:100080000C9471060C9471060C9471060C94710614
:100090000C9471060C9471060C9471060C94710604
:1000A0000C9471060C9471060C947106C906CC066A
:1000B000CF06D206D506D806DB06BD0AC20AC60A96
:1000C000D00ADC0AE20A450B760B7B0B850B790B19
:1000D0007E0B830B810BC90CCB0CD60CCD0CCF0C3B
:1000E000D10CD30CD50CD80CDA0CDC0CE70CDE0CE4
:1000F000E00CE20CE40CE60CE90C721975197819A5
:100100007B197E198119841987198A198D199019FB
:10011000D821D8210A220A2241226122CA23282476
:10012000A322282450235023C12328242824222416
:100130005D235D235D235D235D235D235D235D23BF
:100140005D235D235D235D235D235D235D235D23AF
:100150006E237B23822389239323B324B324C524D2
:10016000C524BC24C524C524C524B324B324C12478
:10017000C524C524C124623589357B3689357B3653
:10018000D535F8357B364E365D3605A84CCDB2D424
:100190004EB93836A9020C50B9918688083CA6AAF7
:1001A000AA2ABE000000803F6572676F646F785FA7
:1001B000657A2F616C656367204020302E362E32C1
:1001C00036362D332D67333461313164000000F051
:1001D000A10000000000000000000000000000007E
:1001E000000000000000000000000000000000000F
:1001F00000000000000000000000000000000000FF
:1002000000000000000000000000000000000000EE
:1002100000000000000000000000000000000000DE
:1002200000000000000000000000000000000000CE
:1002300000000000000000000000000000000000BE
:1002400000000000000000000000000000000000AE
:10025000000000000000000000000000000000009E
:10026000009AFFFF9AFFFF9AFFFF9AFFFF9AFFFF96
:100270009AFFFF9AFFFF9AFFFF9AFFFF9AFFFF9AEC
:10028000FFFF9AFFFF9AFFFF9AFFFF9AFFFF9AFF77
:10029000FF9AFFFF9AFFFF9AFFFF9AFFFF9AFFFF67
:1002A0009AFFFF9AFFFF9AFFFF9AFFFF9AFFFF9ABC
:1002B000FFFF9AFFFF9AFFFF9AFFFF9AFFFF9AFF47
:1002C000FF00CCFF9AFFFF9AFFFF9AFFFF00CCFFD1
:1002D00000CCFF00CCFF9AFFFF9AFFFF9AFFFF9A26
:1002E000FFFF9AFFFF9AFFFF9AFFFF9AFFFF9AFF17
:1002F000FF69FFFF69FFFF69FFFF69FFFF69FFFFFC
:1003000069FFFF69FFFF69FFFF69FFFF69FFFF6981
:10031000FFFF69FFFF69FFFF69FFFF69FFFF69FFDB
:10032000FF69FFFF69FFFF69FFFF69FFFF00000032
:1003300000000000000000000069FFFF69FFFF6986
:10034000FFFF69FFFF69FFFF000000000000F9E404
:10035000FF000000000000000000F9E4FFF9E4FFE6
:10036000F9E4FF00000000000000000000000000B1
:10037000000000000000000000000000000000007D
:10038000000000000000000EFFFF0EFFFF0EFFFF49
:1003900069FFFF23FFFF23FFFF23FFFF0EFFFF691E
:1003A000FFFF23FFFF23FFFF23FFFF000000F9E40F
:1003B000FF23FFFF23FFFF23FFFF69FFFF00000074
:1003C00023FFFF23FFFF00000000000000000000EB
:1003D000000000000000000000000000000023FFFB
:1003E000FF00000000000000000023FFFF23FFFFCC
:1003F00023FFFF00000000000000000000000000DC
:10040000000000000023FFFF23FFFF0000000000AA
:1004100000000000000000000000000000000000DC
:10042000000000000000FA9FFF0000000000000034
:100430000000FA9FFFFA9FFFFA9FFF0000000000F4
:1004400000000000000000000000000000000000AC
:10045000000000000000000000000000000000009C
:1004600000000000000000000000000000000EFF7F
:10047000FF00000000000000000069FFFF0EFFFF0A
:1004800069FFFF0000000000000000000000000005
:10049000000000000000000000000000000000005C
:1004A000000000000000000000000000000000004C
:1004B00000000086FFD586FFD586FFD5000000002E
:1004C000000086FFD586FFD586FFD500000000001E
:1004D0000086FFD555CB9E86FFD5000000000000AA
:1004E0000AE1FF0000000000000000000000000022
:1004F00000000000000000000000000000000000FC
:1005000000000000000000000000000000000000EB
:1005100000000000000000000000000000000000DB
:1005200000000000000000000000000000000000CB
:100530000029002B002A00E100350000001E0014F5
:100540000004001D003400EC5C1F001A0015001BA5
:1005500000000402512000090016000600E0002CF3
:10056000002100130017001900E400C35C22000AF8
:1005700000070005000000650003510100000005B0
:10058000510000E30001530100000000070000E7F4
:100590000023000D000B000E0000004C0024000F93
:1005A00000110010000451EA5C2500180008003614
:1005B000000100280026001C000C0037000100008C
:1005C0000427003300120038000100EB5C2D0031DD
:1005D000003400E5000100000001000100010001FD
:1005E00000010000001E00140004001D000100E7CF
:1005F0005C1F001A0016001B00010001002000080B
:100600000007000600010001002100150009001983
:10061000000100C35C220017000A00050000000171
:100620000001001050000001000000010001000165
:1006300000000001000000010023001C000B00115D
:100640000000000100240018000D0010000100C58A
:100650005C25000C000E003600010001002600128F
:10066000000F00370001000100270013003300389D
:10067000000100C65C010001000100010001000052
:10068000000100010058000100010000003A0001D3
:1006900000010001000100CA5C3B000100500001A4
:1006A00000010001003C0052005100010001000166
:1006B000003D0001004F0001000100C95C3E000147
:1006C00000010001000000010001001050000001C5
:1006D000000000010001000100000001000000C254
:1006E0005C3F002202210225020000E75C40002F4F
:1006F0000226022F000100E85C4100300227023090
:10070000000100C55C42002D0256001F020100C618
:100710005C43002E022E0020020100E95C440045EB
:1007200000010001000100000001000100010001C2
:1007300000010000000100010001000100010001B2
:100740000001000100F2000100010001000100F0C1
:1007500000F1000100F400010001000100F30001BC
:1007600000F500010001000100010001000000018E
:100770000001001050000001000000010001000114
:100780000000000100000001000100A900AA00A86B
:1007900000000001000100240021001E00010001F2
:1007A000005400250022001F0062000C00550026A6
:1007B000002300200063000100560057000000588D
:1007C0000001000100010001000100010001000022
:1007D0000001000100010001000100000001000013
:1007E000000000000001000100000000004A0000BD
:1007F000000100010000004B004E0000000100015C
:1008000000000000004D0000000100010001000098
:100810000000000000000001000100105000000175
:1008200000000001000100010000000100000001C3
:1008300000010000000000000000000100000000B6
:1008400000500000000100010000005200510000B3
:100850000001000100000000004F00000001000145
:100860000001000000000000000100010001000183
:100870000001000100010000000100010001000171
:100880000001000000010001000100010001000161
:100890000001000100010001000100010001000150
:1008A0000001000100010001000100010001000140
:1008B0000001000100010001000100010000000131
:1008C0000001000100000001000000010001000122
:1008D0000000000100000001000100010001000112
:1008E00000000001000100240721071E070100018C
:1008F000000100250722071F072707010001002626
:100900000723072007010001000100010001000189
:1009100000010001000100010001000100010000D0
:100920000000000000000000002A2B28000000004A
:10093000000000000000000000000000290000008E
:10094000002C1E3420212224342627252E362D3734
:1009500038271E1F202122232425263333362E3705
:10096000381F0405060708090A0B0C0D0E0F10119D
:1009700012131415161718191A1B1C1D2F313023AA
:100980002D350405060708090A0B0C0D0E0F101172
:1009900012131415161718191A1B1C1D2F31303578
:1009A0004C000000000000000000000000000000FB
:1009B0000000000000000000000000000000000037
:1009C000000001010101010100010101010000001D
:1009D0000000000000000000000000010001000114
:1009E00001010101010101010101010101010101F7
:1009F00001010101010101010101010100000001EA
:100A000001000000000000000000000000000000E5
:100A100000000000000000000000000001010101D2
:100A200000000000000001010101010101010102BB
:100A3000020202020202020203030303030303038E
:100A40000404040404040505050505060606060657
:100A500007070707080808080909090A0A0A0A0B0C
:100A60000B0B0C0C0C0D0D0D0E0E0F0F0F101011AB
:100A7000111112121313141415151616171718182E
:100A800019191A1A1B1C1C1D1D1E1F1F2020212294
:100A9000222324252526272728292A2B2B2C2D2ED7
:100AA0002F2F30313233343536363738393A3B3CF4
:100AB0003D3E3F4041424344464748494A4B4C4DE6
:100AC0004F50515253555657585A5B5C5E5F6062A7
:100AD00063646667696A6C6D6E7071737476787939
:100AE0007B7C7E8081838486888A8B8D8F91929493
:100AF00096989A9B9D9FA1A3A5A7A9ABADAFB1B3B3
:100B0000B5B7B9BBBDBFC1C4C6C8CACCCFD1D3D697
:100B1000D8DADCDFE1E4E6E8EBEDF0F2F5F7FAFC39
:100B2000FF04033000000016034500720067006FE9
:100B30000044006F007800200045005A00000016B5
:100B4000034500720067006F0044006F00780020CA
:100B50000045005A0000000403090409023B00029A
:100B60000100A0FA0904000001030101000921119C
:100B70000100012240000705810308000A09040161
:100B800000010300000009211101000122C000073B
:100B900005820320000A1201100100000008EDFE8A
:100BA000071301000102030105010902A1018502E9
:100BB0000901A1000509190129051500250195055F
:100BC0007501810295017503810105010930093123
:100BD0001581257F95027508810609381581257FC5
:100BE000950175088106050C0A38021581257F9547
:100BF0000175088106C0C005010980A101850316A1
:100C000001002603001A81002A83007510950181D6
:100C100000C0050C0901A1018504160100269C02F3
:100C20001A01002A9C02751095018100C005010976
:100C300006A1018505050719E029E715002501959D
:100C400008750181020508190129059505750191AD
:100C5000029501750391010507190029EF1500257B
:100C60000195F075018102C005010906A101050782
:100C700019E029E715002501950875018102950104
:100C8000750881010508190129059505750191026D
:100C90009501750391010507190029FF150026FF2D
:100CA00000950675088100C011241FBECFEFDAE061
:100CB000DEBFCDBF13E0A0E0B1E0E0E7F5E702C0A2
:100CC00005900D92AC34B107D9F726E0ACE4B3E05F
:100CD00001C01D92A437B207E1F70E9447310C947E
:100CE000B63A0C94000080B38C7080BB81B3836FE4
:100CF00081BB089584B1807F84B985B1807F85B937
:100D00008AB1837F8AB98BB1837F8BB93E9846982D
:100D10000895CF93E82F873090F58091040190914A
:100D20000501892B09F049C0CE2F64E670E080E40C
:100D30000E94581D9093050180930401892BD1F4E2
:100D400064E670E082E10E94AF1D909305018093FC
:100D50000401892B79F481E090E001C0880FCA95E5
:100D6000EAF764E670E080950E94AF1D909305015C
:100D70008093040184E690E0CF910C94041E90E0EF
:100D8000FC013797E730F105C0F4EA5AFF4F0C94A5
:100D9000A939209A289811C0219A29980EC0229A20
:100DA0002A980BC0239A2B9808C0529A5A9805C0CB
:100DB000539A5B9802C03E9A4698CF910895089541
:100DC00008950C94E006CF93DF930E94720890E0A0
:100DD00090930501809304010E947A060E94730695
:100DE000A1EAB3E02DE433E0EFEAF3E04EE04E0F8A
:100DF00011921D9280E090E0E901C80FD91F18827E
:100E0000019686309105C1F72A5F3F4F4E13F0CF10
:100E1000DF91CF910C94EE0B0E94720890E09093BA
:100E20000501809304010E947A060E947306EFEA8E
:100E3000F3E08EE08E0F11928E13FDCF0895CF93C5
:100E4000DF93E62FF0E0EF55FC4F40814827808389
:100E500086E0689FF0011124E35BFC4F20E030E066
:100E600080E061E070E050E0AAE0B22F9081992329
:100E700019F09150908307C0EB01022E01C0CC0FF6
:100E80000A94EAF78C2BEA0102C0D595C795BA956A
:100E9000E2F7C0FDA0832F5F3F4F3196263031052A
:100EA00021F7DF91CF910895CF93DF93D82F87302B
:100EB00008F040C08091040190910501892B09F050
:100EC00042C064E670E080E40E94581D90930501E2
:100ED00080930401892B11F0C0E027C064E670E024
:100EE00083E10E94AF1D9093050180930401892B3B
:100EF00099F764E670E081E40E94581D9093050123
:100F000080930401892B41F784E690E00E94DF1D65
:100F100097FF05C09093050180930401DDCFC82F92
:100F2000C095109205011092040184E690E00E94A1
:100F3000041E0AC09FB1CFB1C07FC695C6959370FD
:100F4000C92BC09501C0C0E06D2F8C2F0E941F07D8
:100F5000282F2095ED2FF0E0E155FC4F9081922352
:100F60008C23892BDF91CF910895EF92FF920F93FD
:100F70001F93CF93DF938091040190910501892BFA
:100F800091F080914C038F5F80934C0381110BC0D3
:100F90000E94720890E09093050180930401892BD0
:100FA00011F40E9404088FEAE82E83E0F82E06EB85
:100FB00013E0C0E08C2F0E948906D7E0DC0F8D2F54
:100FC0000E9489068C2F0E945407F70181937F01AC
:100FD0008D2F0E945407F80181938F010E947A0699
:100FE000CF5FC73039F70E94FA0B81E0DF91CF91D4
:100FF0001F910F91FF90EF900895E82FF0E0E155D9
:10100000FC4F80810895089556985E9825982D98F4
:1010100026982E9827982F988FEF90E0909389002C
:101020008093880090938B0080938A0090938D002A
:1010300080938C00259A2D9A2FEF80E792E0215023
:1010400080409040E1F700C00000269A2E9A2FEFD2
:1010500080E792E0215080409040E1F700C000001E
:10106000279A2F9A2FEF80E792E0215080409040FE
:10107000E1F700C0000025982D982FEF80E792E05F
:10108000215080409040E1F700C0000026982E9843
:101090002FEF80E792E0215080409040E1F700C0C0
:1010A000000027982F9856985E9825982D98269896
:1010B0002E9827982F98089589EA8093800089E0D8
:1010C0008093810024982C983F988AB18F7C8AB9AC
:1010D0006E98479A8BB180638BB9769A0E94040808
:1010E0000C94DF0680E290E0909305018093040168
:1010F0008091BD0381110EC00E94521D81E080933A
:10110000BD032FEF83ED90E3215080409040E1F745
:1011100000C0000064E670E080E40E94581D9093D7
:10112000050180930401892B09F050C064E670E04A
:1011300080E00E94AF1D9093050180930401892BEC
:1011400009F044C064E670E080E00E94AF1D909317
:10115000050180930401892BC9F564E670E08FE3F3
:101160000E94AF1D9093050180930401892B71F5B6
:1011700084E690E00E94041E64E670E080E40E9431
:10118000581D9093050180930401892BF9F464E6BE
:1011900070E08CE00E94AF1D9093050180930401E4
:1011A000892BA1F464E670E080E00E94AF1D90936B
:1011B000050180930401892B49F464E670E08FE314
:1011C0000E94AF1D909305018093040184E690E096
:1011D0000E94041E809104010895AF92BF92CF92A5
:1011E000DF92EF92FF920F931F93CF93DF93EC0167
:1011F00081E00E94061B80E98C9F70018D9FF00C9E
:101200001124C0E0D0E000E010E0670182E0C80EE9
:10121000D11C57018FEFA81AB80AF601EC0FFD1F79
:10122000EF52FE4F8491FE01EE0DFF1DEF52FE4F77
:101230006491F501EC0FFD1FEF52FE4F749188236E
:1012400019F08091F50401C080E00E940E12472F32
:10125000282FC8010E94C3120F5F1F4F239600332F
:101260001105D9F6DF91CF911F910F91FF90EF906B
:10127000DF90CF90BF90AF9008958F929F92AF92E2
:10128000BF92CF92DF92EF92FF920F931F93CF9373
:10129000DF930E94C2192091C4033091C50321300D
:1012A000310509F0DEC0DC01CB0183709927AA2744
:1012B000BB27892B8A2B8B2B09F05DC0109106016F
:1012C000C091BE03D091BF03C10FD11D17FDDA95A8
:1012D000D093BF03C093BE03BE0180E090E00E94A4
:1012E000CE3720E030E04AE753E40E9426376B0116
:1012F0007C0120E030E040E05FE30E941C371816DC
:101300003CF0C701B6010E9434399B01AC0122C0F8
:1013100020E030E040E05FE3C701B6010E94AF3655
:101320006B017C019B01AC010E94B0364B015C015A
:10133000A701960160E070E080E89FE30E94AF366D
:101340009B01AC01C501B4010E94BF3820E030E030
:1013500040E05FE30E94B0366093C0037093C10326
:101360008093C2039093C3032197C93FD10518F01E
:101370001195109306018091F204881F8827881F19
:101380009091F304492F440F242F282B97FB3327E8
:1013900030F9C9018C549F4F68E671E00E9495397D
:1013A000821B930B8038910514F09A9505C0813803
:1013B0004FEF94070CF4939597FD039695958795B9
:1013C00095958795C82F8091F404281B310937FF24
:1013D00002C02D5F3F4F3595279535952795D22F24
:1013E000C090F5042DE1E22E21E0F22E00E010E0A5
:1013F000F701D080D2948FE0D82220E030E040EA9C
:1014000052E46091C0037091C1038091C203909136
:10141000C3030E94BF380E949837962F6091F20450
:10142000262F221F2227221F6091F304660F622BB2
:10143000690FDC9E600D11247091F404DD9E700D27
:1014400011248C2D0E940E12472F282FC8010E94B4
:10145000C3120F5F1F4FF4E0EF0EF11C00331105B4
:1014600039F6DF91CF911F910F91FF90EF90DF90B0
:10147000CF90BF90AF909F908F9008958091C603BA
:1014800081115FC0609195047091960480919704DA
:10149000909198040E94EB2A823009F445C028F408
:1014A000882359F08130E9F10895843009F442C06D
:1014B000F0F1853009F441C0089580E190E00E9488
:1014C000133A6093F2047093F3048093F4049093BE
:1014D000F5048091C4039091C503892BE9F48091B0
:1014E000F20486958F730E94061B8091F204982F58
:1014F0009E77923031F1881F8827881F9091F304DE
:10150000292F220F97FB992790F94091F5046091BC
:10151000F404822B0C942C1B81E00E94061B0C947B
:101520003D0981E090E00BC082E090E008C083E0DC
:1015300090E005C084E090E002C085E090E00C946B
:10154000ED080895611108C0FC018281882321F013
:1015500088EA91E00E94EB0B80E090E00895FC01A6
:10156000E65EFC45E730F10508F0A4C0DB01E35A74
:10157000FF4F12969C910C94A93991110E94A92BAE
:1015800080E008959923E1F381E019C09923C1F324
:1015900081E00E94F71A4FEF64E985EC90E009C002
:1015A000992371F381E00E94F71A4FEF69E787E80A
:1015B00090E00E94151BE4CF992311F383E00E9471
:1015C000F71ADECF9923E1F280E190E00E94133A0E
:1015D0006093F2047093F3048093F4049093F50401
:1015E0000E94AC2A82722091F2049091F304882325
:1015F00071F0822F881F8827881F392F330F432FC0
:10160000482B97FB552750F9485051090DC0822FA0
:10161000881F8827881F392F330F432F482B97FBAC
:10162000552750F9485F5F4F40FB27F92093F2049C
:10163000842F86959078982B50FB97F99093F3041C
:101640008091F204482F441F4427441F9091F304D3
:10165000592F550F252F242B97FB332730F92F3F78
:10166000310531F02CF08F778093F2041092F3045F
:101670004091F2045091F3046091F4047091F504E8
:1016800080E190E00E94313A7BCF992309F478CF32
:101690008091C4039091C50301968230910528F48E
:1016A0009093C5038093C4036BCF1092C50310922F
:1016B000C40366CF81E00895CF92DF92EF92FF924C
:1016C0006B017C010E94EB2A56985E9825982D9814
:1016D00026982E9827982F9890E0FC013197E730B4
:1016E000F105A8F4EC59FF4F0C94A939259A2D9ACD
:1016F0000EC0259A2D9A269A2E9A09C0259A2D9ABF
:1017000004C0259A2D9A269A2E9A279A2F9AC701B5
:10171000B601FF90EF90DF90CF90089581E008959B
:101720000C94AF0ACF93282F30E0F901EF5DF64F0C
:10173000C491F901EF55F64F2491222359F081EE1F
:101740000E9408208C2F0E9408208C2F0E942621A6
:1017500081EE04C08C2F0E9408208C2FCF910C9416
:1017600026210F931F93CF93DF93EC01062FFE01E9
:101770008491882359F19E012F5F3F4F813041F4BE
:10178000E901F9011491812F0E940820812F0DC0D9
:10179000823031F4E901F90184910E9408200AC0E5
:1017A000833031F4E901F90184910E94262102C0BD
:1017B0000E94920B2196802F8823C9F2EFE9FFE067
:1017C0003197F1F700C000008150F6CFDF91CF9143
:1017D0001F910F91089560E00C94B10B0E943B2B78
:1017E000811102C00E94A92B0E9494190E945E11CF
:1017F0000C945C080E94F6188091C703811102C006
:101800000E94BE128091C70390E001966BE070E0E9
:101810000E9495398093C7030C94E106282F2F70FE
:1018200041F0822F90E02A3010F44D9608950697EB
:10183000089587E290E0089508950C941C0C0C9490
:101840001D0C08950E94A3240E94210C2FEF84E315
:101850009CE0215080409040E1F700C000000C94D3
:10186000192DFF920F931F93CF93DF938C01FC01EF
:10187000C081D18180912304811113C0828188238A
:1018800049F0CE010E94D929F82E682FCE010E947E
:101890007C2904C0CE010E94AC29F82EBE018F2DF8
:1018A00004C0CE010E94D929BE010E94CC0EEC01D9
:1018B000B8010E94900B882309F466C2B801CE01DA
:1018C0000E94D911882309F45FC2CC3CFCE5DF07F4
:1018D00041F4F8018281882309F456C20E94DE1A7D
:1018E00053C2CD3C8CE5D80708F01EC1C43C9CE532
:1018F000D90761F4F8018281882309F445C20E9466
:10190000AC2A8272E1F40E94F3193EC2C53CECE5B8
:10191000DE0708F0C7C0C531FCE5DF0798F0C23C20
:10192000FCE5DF0709F48CC008F492C0F80182815D
:10193000882309F429C20E94AC2A827221F70E94EE
:10194000D91922C2C2308CE5D80708F452C0F80178
:101950008281882309F459C00E943B2B811102C067
:101960000E94A92B0E944E2B90E0909366068093D4
:101970006506FE01E350FC45E231F10530F4E5591E
:10198000FF4F809165060C94A939809165068160AE
:1019900027C0826025C0846023C0806121C080622E
:1019A0001FC080641DC080681BC08460886018C030
:1019B0008E7F16C08D7F14C08B7F12C08F7E10C0AB
:1019C0008F7D0EC08F7B0CC08F770AC08B7F877F87
:1019D00007C087FB222720F991E0922790FB87F927
:1019E00080936506809165060E94522B0E94A32475
:1019F000CBC1C1159CE5D90781F0C130DC45A9F008
:101A000081E08093CD038093CE03C801DF91CF9115
:101A10001F910F91FF900C948E0BF8018281882307
:101A200009F4B2C10E94220CAFC1F801828188235F
:101A300009F4AAC18091C20481608093C204A4C148
:101A4000F8018281882309F49FC10E94CB199CC1AF
:101A5000C631DC45A9F60E94AC2A282FF801828104
:101A60004091090150910A01882379F02A7A91E086
:101A700009F490E09093C803911102C069E201C09B
:101A800065E3CA010E94102C0AC08091C80381112D
:101A900002C069E201C065E3CA010E941B2C0E94DA
:101AA000792A72C1F8018281C83CFCE5DF0731F474
:101AB000882309F469C10E947F1A66C1C93C9CE56C
:101AC000D907C8F4C63CECE5DE0731F4882309F4F5
:101AD0005BC10E94391A58C1C73CDC4530F48823E9
:101AE00009F452C10E940D1A4FC1882309F44CC158
:101AF0000E94691A49C1CA3C9CE5D90731F4882380
:101B000009F442C10E94AF1A3FC1CB3CDC4530F41E
:101B1000882309F439C10E94991A36C1882309F42F
:101B200033C10E94C91A30C1C43DFCE5DF0791F4FE
:101B3000F8018281882309F427C10E94101B893192
:101B400028F00E94101B823208F4F9CE89E10E942D
:101B5000F71A1AC1C53D8CE5D80708F068C0F8012E
:101B60008281C03DFCE5DF0771F4882309F40CC1D4
:101B70000E94101B893028F00E94101B8E3008F440
:101B8000DECE89E0E4CFC13D9CE5D90740F5CE3CEF
:101B9000ECE5DE0771F4882309F4F6C00E94101BFF
:101BA000823028F00E94101B853008F4C8CE82E0F5
:101BB000CECFCF3CDC4528F4882309F4E5C081E092
:101BC000C6CF882309F4E0C00E94101B863028F09D
:101BD0000E94101B883008F4B2CE86E0B8CFC23D18
:101BE0009CE5D90771F4882309F4CEC00E94101B2C
:101BF000853128F00E94101B873108F4A0CE85E1C2
:101C0000A6CFC33DDC4570F4882309F4BDC00E9413
:101C1000101B8F3028F00E94101B843108F48FCEE7
:101C20008FE095CF882309F4AFC088E190CFC83DFD
:101C3000FCE5DF0759F5F8018281882361F01092F5
:101C4000CE030E94BD2C9093CC038093CB0380E203
:101C50000E94962199C08091CE03882321F080E2D2
:101C60000E949D2191C08091CB039091CC030E9452
:101C7000C92C883C910598F780E20E949D2188E25A
:101C80000E94082088E20E9426217EC0C93D8CE582
:101C9000D80708F058C0F8018281C63DFCE5DF078F
:101CA00051F5882351F01092CD030E94BD2C9093E2
:101CB000CA038093C90382E0CBCF0E94AC2A85FF80
:101CC00005C081E08093CD038093CE038091CD0346
:101CD00081110FC08091C9039091CA030E94C92C41
:101CE000883C910530F486E20E94082086E20E943A
:101CF000262182E0B5CFC73DDC4528F4882309F4CE
:101D000043C083E224CF81119ACF0E94AC2A81FF85
:101D100005C081E08093CD038093CE038091CE03F4
:101D200081119DCF8091CB039091CC030E94C92C4F
:101D3000883C910508F093CF87E20E94082087E253
:101D40000E9426218CCFCC3DECE5DE0741F4F80162
:101D500082818823C9F082E00E94E63115C0CD3D22
:101D6000FCE5DF0739F4F8018281882369F00E94DD
:101D7000A92B0AC0CB3DDC4509F042CEF801828197
:101D8000882311F080E0E8CF80E0DF91CF911F91B0
:101D90000F91FF900895089596E0799FF001112426
:101DA00094E5899FE00DF11D1124E60FF11DEE0F62
:101DB000FF1FEF5CFA4F859194910895880F991F4A
:101DC000FC01E353FE4F859194910895CF93DF93E7
:101DD0000E94CC0E0E94A710EC01811520E592070D
:101DE000F0F5811530E4930708F028C1883E91058D
:101DF00000F5803E910508F0A6C1883A910570F47F
:101E0000853A910508F0A3C08130910509F49BC182
:101E100008F44CC1049708F096C148C18F3B910566
:101E200008F4A0C0803C910508F440C1805C910991
:101E3000F8C08115904258F4C11581E0D80708F028
:101E400082C1C03FD10508F431C1D0657CC1C11544
:101E500090E3D90708F0E8C0CE019F70E2C0811579
:101E600025E5920708F043C0811534E5930708F093
:101E7000FCC0811542E5940708F5C11581E5D80736
:101E800008F0DFC08C2F837021E030E002C0220F09
:101E9000331F8A95E2F73C68CE0154E0969587950A
:101EA0005A95E1F78370382BCF70C695C69540E2FE
:101EB000C49FE0011124C22BD32B45C1282F2695A6
:101EC000269583709927C115D34508F0BFC040E21D
:101ED000249F90011124C1E0D0E002C0CC0FDD1F8F
:101EE0008A95E2F72C2B3D2BE901DC682CC181158A
:101EF0004AE59407A0F4C11589E5D80708F0C4C0E5
:101F0000C11596E5D90708F4B5C0C11528E5D20773
:101F100008F4CCC0DC2FCC27C06FD06A14C1811567
:101F20003BE5930708F4C2C081154CE5940708F41B
:101F3000BAC090568115904208F0B8C08D2F8F71AD
:101F40000E942411DD27D0628F71D82BFCC0853A06
:101F5000910509F4AEC0863A910509F0ADC0C2E81A
:101F6000D0E4F1C0883A910509F4A9C0893A9105F5
:101F700009F4A8C08A3A910509F4A7C08B3A9105E3
:101F800009F4A6C08C3A910509F4A5C08B3B9105D4
:101F900009F4A4C08C3B910509F4A3C08D3A9105C6
:101FA00009F4A2C0803B910509F4A1C08E3A9105C5
:101FB00009F4A0C08F3A910509F49FC0813B9105B7
:101FC00009F49EC0823B910509F49DC0833B9105B5
:101FD00009F49CC0843B910509F49BC0853B9105A5
:101FE00009F49AC0863B910509F499C0873B910595
:101FF00009F498C0883B910509F497C0893B910585
:1020000009F496C08D3B910509F495C08E3B91056E
:1020100009F494C08A3B910509F493C0C0E0D4E46C
:1020200092C00E94DE0E3DC0CE019927D3FF03C0AF
:10203000EC01D86C88C0EC01D06C85C0DF70D06A30
:1020400082C0DC2FCC27C16FD06A7DC040E2249FC4
:1020500090011124C1E0D0E002C0CC0FDD1F8A95B1
:10206000E2F7C22BD32BDA686EC0D82FCC27C46F0F
:10207000D06A69C08C2F0E9424118F71C82FD0E0C4
:10208000DC2FCC27D0625FC02C2F2F70206E30E069
:10209000306A84E0D695C7958A95E1F7CF70C9017B
:1020A0009C2BEC0150C0DD27D0664DC0C0E0D0E0D5
:1020B0004AC0C1E8D0E447C0C3E8D0E444C0C2EE9F
:1020C000D4E441C0C9EED4E43EC0CAEED4E43BC07F
:1020D000C5EBD4E438C0C6EBD4E435C0C3EBD4E4DC
:1020E00032C0C4EBD4E42FC0C7EBD4E42CC0CCEC9A
:1020F000D4E429C0CDECD4E426C0C3E8D5E423C0A1
:10210000CAE8D5E420C0C2E9D5E41DC0C4E9D5E4DD
:102110001AC0C1E2D6E417C0C3E2D6E414C0C4E2D8
:10212000D6E411C0C5E2D6E40EC0C6E2D6E40BC0C8
:10213000C7E2D6E408C0CFE6D4E405C0C0E7D4E4E3
:1021400002C0CAE2D6E4CE01DF91CF910895823871
:10215000910549F1B0F48133910509F458C048F470
:102160008932910509F44EC08A32910509F454C0B0
:1021700008958533910509F440C08933910599F09C
:102180000895833E910529F138F4803E910591F040
:10219000823E9105A1F00895863E9105F9F0873EB3
:1021A000910531F108952091650620FD3AC021FD89
:1021B00038C008958091650680FD35C032C0809199
:1021C000650682FF32C08091650684FD30C083EED3
:1021D00039C08091650682FD28C0F5CF80916506E3
:1021E00083FF27C08091650684FD21C087EE2AC049
:1021F0008091650683FD1DC0F5CF8091650685FD44
:102200001AC01BC08091650685FD17C014C080915F
:10221000650686FD14C015C08091650686FD11C057
:102220000EC080EE0FC089E30DC082EE0BC080E0CF
:1022300009C086EE07C089E205C085E303C08AE2D3
:1022400001C081E390E008959091650692FF0DC072
:10225000282F2871283019F4877F846006C0282F22
:102260002471243011F48B7F886093FF0DC0282FD8
:102270002871283119F4877E846106C0282F2471C3
:10228000243111F48B7E886194FD877E0895CF936D
:10229000DF93813020E8920768F0FB01228122233E
:1022A00049F0EC010E947411CE019F770E94BC118D
:1022B0000E94A91181E0DF91CF9108958CE090E018
:1022C0000E940B3A90E0A0E0B0E08093F704909376
:1022D000F804A093F904B093FA0408956091F70408
:1022E0008CE090E00C941F3A0E94AC2A8093CF03BC
:1022F0000E94BF2A8091F704813071F048F082304B
:10230000D9F08430F9F486EE0E948E2188E118C05D
:1023100082EE0E94082016C080EE0E94082081EE06
:102320000E94082088E10E948E2181EE0E942621D1
:1023300080EE0E94262106C082EE0E94082087E5DA
:102340000E948E218FE39CE90197F1F700C0000005
:1023500008958091F704813021F038F0823029F01F
:1023600007C08CE20E948E2103C082EE0E942621CB
:102370008091CF030C94BC2A0F931F93CF93DF93CC
:102380008C01CCE0D0E0C8010C2E02C09695879558
:102390000A94E2F78F700E940E0C0E948E212497FF
:1023A000CC3F8FEFD80779F7DF91CF911F910F9135
:1023B00008950F931F93CF93DF93EC018B01FB01E3
:1023C0008281882319F1C23EFCE5DF07C1F050F499
:1023D000C03EECE5DE0781F0C13EFCE5DF07B1F46D
:1023E00081E010C0C33E8CE5D80759F0C43EECE54F
:1023F000DE0761F484E006C01092F70405C082E0B5
:1024000001C083E08093F7040E946E11B801CE01F1
:10241000DF91CF911F910F910C944711CF92DF92D2
:10242000EF92FF920F931F93CF93DF93E82FF82F34
:10243000711103C0682F782F7EC0062F10E0C72FC0
:10244000D0E0E82EF12CC8016BE270E00E948139E7
:102450009B0145ED4203B001439F700D1124060F0F
:10246000171F86E0809FB001819F700D11244FEFF0
:1024700050E0CA018C1B9D0B8E9DD0018F9DB00D2D
:102480009E9DB00D11248B2F6C9F80016D9F100DB0
:102490007C9F100D1124012F11276A01C01AD10A47
:1024A000CE9C8001CF9C100DDE9C100D11246A0182
:1024B000C61AD70ACC9EB001CD9E700DDC9E700D61
:1024C0001124672F7727461B570B4E9DE0014F9D28
:1024D000D00D5E9DD00D11247D2F2230310599F055
:1024E0004CF421153105C9F021303105A1F47E2FBE
:1024F000E12F13C02330310551F02430310559F458
:10250000ED2F7B2F06C0EB2F8D2F7F2F06C0712F55
:10251000EB2F8F2F02C07B2F812FF0E0EF5DF54F67
:102520006491E72FF0E0EF5DF54F7491E82FF0E054
:10253000EF5DF54F8491DF91CF911F910F91FF9047
:10254000EF90DF90CF90089580E190E00C94133AE3
:10255000AB01BC0180E190E00C94313AE2EFF4E091
:102560008DE080831092F3048FEF82838383148243
:1025700060817181828193810C94A812E09149035A
:10258000F0914A030994E0914503F09146030994C0
:10259000E0914703F0914803099440E060E080E057
:1025A0000C94C812E2EFF4E06081862F881F882720
:1025B000881F6091F304660F682B728183810E94EB
:1025C0000E12962F672F482F892F0C94C812DF9276
:1025D000EF92FF920F931F93CF93DF938091F204BA
:1025E000881F8827881F9091F304492F440F242FB8
:1025F000282B97FB332730F9C9018C549F4F68E68D
:1026000071E00E949539821B930B8038910514F07C
:102610009A9505C081384FEF94070CF4939597FD78
:1026200003969595879595958795C82F8091F40485
:10263000281B310937FF02C02D5F3F4F3595279585
:1026400035952795D22FD090F5049DE1E92E91E0A4
:10265000F92E00E010E0F701208122952F706091A3
:10266000F204962F991F9927991F6091F304660F22
:10267000692B2C9F600D11247091F4042D9F700D17
:1026800011248D2D0E940E12472F282FC8010E9461
:10269000C3120F5F1F4FF4E0EF0EF11C0033110562
:1026A000D1F6DF91CF911F910F91FF90EF90DF90C6
:1026B0000895AF92BF92CF92DF92EF92FF920F9365
:1026C0001F93CF93DF931F92CDB7DEB7D82E209103
:1026D000F204221F2227221F8091F304982F990FC2
:1026E000B22EB92A87FB882780F9EB2DF82FCF016E
:1026F0008C549F4F68E671E00E9495399C012E1B17
:102700003F0B37FF02C02D5F3F4F3595279535951D
:102710002795A22EC090F4040091D6031091D70300
:102720002091D8033091D9039091F604992359F060
:10273000692F70E08AE090E00E949539CB01770F15
:10274000AA0BBB0B04C08AE090E0A0E0B0E08023BD
:102750009123A223B323892B8A2B8B2B41F40E9434
:10276000FB3960E370E00E949539082F01C00FEF3C
:10277000E12CF12C10E0D11003C0E016F106A9F411
:102780000E94FB3983706B2D8A9D600D1124698333
:102790000E94FB3969817C2D8091F5040E940E1204
:1027A000472F282FC7010E94C3128FEFE81AF80A9B
:1027B00080E3E816F104F9F60F90DF91CF911F91B5
:1027C0000F91FF90EF90DF90CF90BF90AF90089562
:1027D000CF92DF92EF92FF921F93CF93DF9380917E
:1027E000D6039091D703A091D803B091D90300905C
:1027F000F60404C0880F991FAA1FBB1F0A94D2F7C2
:10280000182F8BE1C82E81E0D82EC0E0D0E09FE3E6
:10281000E92EF12CF60180818F3FE1F0FE01E550B9
:10282000FB4F8081F4E08F9FC0011124803491051B
:1028300024F4B701681B790B02C060E070E0610FFF
:102840007FEF8091F5040E940E12472F282FCE01B2
:102850000E94C312219624E0C20ED11CC033D105C0
:10286000C9F6DF91CF911F91FF90EF90DF90CF904D
:102870000895CF92DF92EF92FF920F931F93CF9321
:10288000DF938091D6039091D703A091D803B091A4
:10289000D9030090F60404C0880F991FAA1FBB1F1C
:1028A0000A94D2F7D82EC090F5040BE111E0C0E0F5
:1028B000D0E08FE3E82EF12CF80180818F3FF9F012
:1028C000FE01E550FB4F2081F4E02F9F9001112481
:1028D000203431052CF4C701821B930B9C0102C0EC
:1028E00020E030E0F80161816D0D620F7FEF8C2DEB
:1028F0000E940E12472F282FCE010E94C31221964C
:102900000C5F1F4FC033D105B9F6DF91CF911F91F6
:102910000F91FF90EF90DF90CF900895CF92DF92CC
:10292000EF92FF920F931F93CF93DF938091D60383
:102930009091D703A091D803B091D9030090F604E9
:1029400004C0880F991FAA1FBB1F0A94D2F7D82E64
:10295000C090F5040BE111E0C0E0D0E08FE3E82E79
:10296000F12CF80180818F3FF9F0FE01E550FB4F1B
:102970002081F4E02F9F90011124203431052CF4A4
:10298000C701821B930B9C0102C020E030E0F801DC
:1029900062816D0D620F7FEF8C2D0E940E12472F0A
:1029A000282FCE010E94C31221960C5F1F4FC03307
:1029B000D105B9F6DF91CF911F910F91FF90EF9064
:1029C000DF90CF9008952F923F924F925F926F9237
:1029D0007F928F929F92AF92BF92CF92DF92EF92AF
:1029E000FF920F931F93CF93DF933090F4042090C6
:1029F000F5046091D6037091D7038091D80390912C
:102A0000D9030E94CE372BED3FE049E450E40E9409
:102A1000BF3820E030E040E05CE30E94BF386B014B
:102A20007C010E94213720E030E040E05DE30E941D
:102A3000BF382B013C01C701B6010E942C3920E0B0
:102A400030E040EE52E40E9426374B015C01CDE1BC
:102A5000D1E000E010E0688170E080E090E00E944A
:102A6000D03720E030E040E052E40E94AF36A301CE
:102A700092010E94BF386B017C01FE013197608199
:102A800070E080E090E00E94D03720E030E040EE3F
:102A900052E40E94AF36A50194010E94BF389B0109
:102AA000AC01C701B6010E94B03620E030E044E33B
:102AB00053E40E94BF386B017C018091F204881FAF
:102AC0008827881F9091F304292F220F622F682BEB
:102AD00097FB772770F9072E000C880B990B0E9443
:102AE000D0379B01AC01C701B6010E94B0360E94ED
:102AF0009F37732D822D0E940E12472F282FC80159
:102B00000E94C3120F5F1F4F24960033110509F076
:102B1000A2CFDF91CF911F910F91FF90EF90DF90A7
:102B2000CF90BF90AF909F908F907F906F905F906D
:102B30004F903F902F9008952F923F924F925F9227
:102B40006F927F928F929F92AF92BF92CF92DF92BD
:102B5000EF92FF920F931F93CF93DF93CDB7DEB722
:102B600028970FB6F894DEBF0FBECDBF8091F40456
:102B70008D839091F5049E836091D6037091D70365
:102B80008091D8039091D9030E94CE372BED3FE07E
:102B900049E450E40E94BF3820E030E040E05CE3CC
:102BA0000E94BF386B017C010E9421372B013C0140
:102BB000C701B6010E942C3969837A838B839C8379
:102BC000EDE1F1E0F887EF8300E010E0EF81F885B8
:102BD00031972080EF81F885B0803090F604332063
:102BE00079F0632D70E080E090E00E94D03720E023
:102BF00030E040EC5FE30E94BF386B017C0106C00F
:102C0000C12CD12C90ECE92E9FE3F92E6B2D70E0B6
:102C100080E090E00E94D03720E030E040E052E4D5
:102C20000E94AF369B01AC01C701B6010E94BF38BC
:102C3000A30192010E94BF384B015C01332079F05F
:102C4000632D70E080E090E00E94D03720E030E01B
:102C500040EC5FE30E94BF386B017C0106C0C12CD1
:102C6000D12C80ECE82E8FE3F82E622D70E080E00E
:102C700090E00E94D03720E030E040EE52E40E9425
:102C8000AF369B01AC01C701B6010E94BF38298154
:102C90003A814B815C810E94BF389B01AC01C50128
:102CA000B4010E94B0366B017C018091F204881F50
:102CB0008827881F9091F304292F220F622F682BF9
:102CC00097FB772770F9072E000C880B990B0E9451
:102CD000D0379B01AC01C701B6010E94B0360E94FB
:102CE0009F377D818E810E940E12472F282FC801A9
:102CF0000E94C3120F5F1F4F8F819885049698879B
:102D00008F830033110509F061CF28960FB6F89430
:102D1000DEBF0FBECDBFDF91CF911F910F91FF900E
:102D2000EF90DF90CF90BF90AF909F908F907F906B
:102D30006F905F904F903F902F9008952F923F9209
:102D40004F925F926F927F928F929F92AF92BF92BB
:102D5000CF92DF92EF92FF920F931F93CF93DF9367
:102D600000D000D01F92CDB7DEB72091F4042A83A3
:102D70008091F5048B836091D6037091D703809185
:102D8000D8039091D9030E94CE372BED3FE049E460
:102D900050E40E94BF3820E030E040E05CE30E9455
:102DA000BF386B017C010E9421372B013C01C70118
:102DB000B6010E942C394B015C01ADE1B1E0BD834D
:102DC000AC8300E010E0EC81FD813197B081B983E4
:102DD000EC81FD8130802090F604222069F0622D84
:102DE00070E0660F771F072E000C880B990B0E946E
:102DF000D0376B017C0105C0C12CD12CE12C20E423
:102E0000F22E632D70E080E090E00E94D03720E049
:102E100030E040E052E40E94AF369B01AC01C701B4
:102E2000B6010E94BF38A30192010E94BF386B0116
:102E30007C01222021F0312C220C331C03C082E0C3
:102E4000282E312CF9816F2F70E080E090E00E94F5
:102E5000D03720E030E040EE52E40E94AF360E94CE
:102E600098379B0177FF04C022273327261B370B97
:102E700082E490E0821B930B289EB001299E700D86
:102E8000389E700D1124072E000C880B990B0E94A0
:102E9000D037A50194010E94BF389B01AC01C70146
:102EA000B6010E94B0366B017C018091F204881F4C
:102EB0008827881F9091F304292F220F622F682BF7
:102EC00097FB772770F9072E000C880B990B0E944F
:102ED000D0379B01AC01C701B6010E94B0360E94F9
:102EE0009F377A818B810E940E12472F282FC801AD
:102EF0000E94C3120F5F1F4F8C819D8104969D839A
:102F00008C830033110509F05ECF0F900F900F9066
:102F10000F900F90DF91CF911F910F91FF90EF9045
:102F2000DF90CF90BF90AF909F908F907F906F90E9
:102F30005F904F903F902F9008952F923F924F9225
:102F40005F926F927F928F929F92AF92BF92CF9239
:102F5000DF92EF92FF920F931F93CF93DF9300D0F6
:102F60001F92CDB7DEB72090F4048091F5048983D9
:102F70006091D6037091D7038091D8039091D903C3
:102F80000E94CE3720E030E040E85BE30E94BF388B
:102F900020E030E040E653E40E94BF382B013C01C2
:102FA000EDE1F1E0FB83EA8300E010E0EA81FB81E0
:102FB00031973080EA81FB81E080F090F604FF20B9
:102FC00079F06F2D70E080E090E00E94D03720E033
:102FD00030E040EC5FE30E94BF384B015C0106C06B
:102FE000812C912C90ECA92E9FE3B92E6E2D70E0D0
:102FF00080E090E00E94D03720E030E040E052E4F2
:103000000E94AF360E9498379B0177FF04C02227A9
:103010003327261B370BB901330F880B990B0E94FE
:10302000D0379B01AC01C501B4010E94BF382EE22C
:103030003DEB4BEB53EB0E94BF384B015C01FF2093
:1030400079F06F2D70E080E090E00E94D03720E0B2
:1030500030E040EC5FE30E94BF386B017C0106C0AA
:10306000C12CD12C80ECE82E8FE3F82E632D70E07C
:1030700080E090E00E94D037A30192010E94AF3619
:103080009B01AC01C701B6010E94BF389B01AC0196
:10309000C501B4010E94AF366B017C018091F2043E
:1030A000881F8827881F9091F304292F220F622FF1
:1030B000682B97FB772770F9072E000C880B990B6C
:1030C0000E94D0379B01AC01C701B6010E94B03607
:1030D0000E949F37722D89810E940E12472F282F40
:1030E000C8010E94C3120F5F1F4F8A819B81049603
:1030F0009B838A830033110509F058CF0F900F90FE
:103100000F90DF91CF911F910F91FF90EF90DF9083
:10311000CF90BF90AF909F908F907F906F905F9077
:103120004F903F902F900895CF92DF92FF920F9390
:103130001F93CF93DF931F92CDB7DEB7F82E009188
:10314000D6031091D7032091D8033091D9039091E1
:10315000F604992359F0692F70E08AE090E00E940C
:103160009539AB01770F660B770B04C04AE050E04E
:1031700060E070E04023512362237323452B462BEC
:10318000472B39F40E94FB3960E370E00E949539C7
:1031900001C08FEF00E010E0C82ED12CF11003C069
:1031A0000C151D0581F40E94FB3989830E94FB39AF
:1031B000782F69818091F5040E940E12472F282FE5
:1031C000C8010E94C3120F5F1F4F0033110531F772
:1031D0000F90DF91CF911F910F91FF90DF90CF90D3
:1031E000089508950E94F1180C943E0A4091F2044B
:1031F00040FD0AC00E94CD120E94F2188091F20494
:1032000081708093080108958091D003843120F467
:103210008F5F8093D00308958091D6039091D70358
:10322000A091D803B091D9030196A11DB11D80933F
:10323000D6039093D703A093D803B093D90380917A
:10324000D2039091D303A091D403B091D5038F3FC3
:103250002FEF9207A207B20759F00196A11DB11DE9
:103260008093D2039093D303A093D403B093D50358
:103270008091D103EBEFF4E090819F3F61F09E3F9E
:1032800041F4282F30E02230310514F0815001C084
:1032900080E09F5F9083319695E0EB32F90761F70C
:1032A0008093D103E42FE695EF7380910701E81333
:1032B00007C081E090910801913019F480E001C0CD
:1032C00081E08170E093070191E0909308014E2F17
:1032D00050E0FA013197EB30F10520F5E358FF4F4C
:1032E0000C94A9390E94D2121DC00E94E3141AC086
:1032F0000E94E71217C00E94591314C00E94E813DD
:1033000011C00E9439140EC00E948E140BC00E947E
:103310009C1508C00E949E1605C00E949D1702C001
:103320000E9494180C94F218E0914303F091440326
:103330000995EBEFF4E08FEF819395E0EB32F9071D
:10334000D9F70E943B2B811104C00E94A92B0E9437
:10335000AE120E94A4126093F2047093F30480935F
:10336000F4049093F5046E7761F40E94AE120E940B
:10337000A4126093F2047093F3048093F404909386
:10338000F50408956091D6037091D7038091D80316
:103390009091D9030895E2EFF4E08081982F909501
:1033A00090FB80F9808360817181828193810C948C
:1033B000A8129091F204892F86958F5F8F73917870
:1033C0008C3018F4880F892B02C0892F826080937B
:1033D000F2046091F2047091F3048091F4049091EE
:1033E000F5040C94A8129091F204892F8695815CC3
:1033F0008F739178882319F0880F892B02C0892F49
:1034000086618093F2046091F2047091F3048091DC
:10341000F4049091F5040C94A8128091F204982F72
:10342000991F9927991F8091F304880F892B90E0A9
:1034300008968F3F910519F014F08FEF90E02091DE
:10344000F20480FB27F92093F204282F269580911F
:10345000F3048078822B90FB87F98093F3046091CA
:10346000F2047091F3048091F4049091F5040C94AB
:10347000A8128091F204982F991F9927991F809183
:10348000F304880F892B90E0089797FF02C080E033
:1034900090E08F3F910519F014F08FEF90E02091AC
:1034A000F20480FB27F92093F204282F26958091BF
:1034B000F3048078822B90FB87F98093F30460916A
:1034C000F2047091F3048091F4049091F5040C944B
:1034D000A8128091F40490E008968F3F910519F0AE
:1034E00014F08FEF90E08093F4046091F2047091F7
:1034F000F3048091F4049091F5040C94A812809147
:10350000F40490E0089797FF02C080E090E08F3FBE
:10351000910519F014F08FEF90E08093F40460911E
:10352000F2047091F3048091F4049091F5040C94EA
:10353000A8128091F50490E008968F3F910519F04C
:1035400014F08FEF90E08093F5046091F204709195
:10355000F3048091F4049091F5040C94A8128091E6
:10356000F50490E0089797FF02C080E090E08F3F5D
:10357000910519F014F08FEF90E08093F5046091BD
:10358000F2047091F3048091F4049091F5040C948A
:10359000A8128091F60490E001968430910514F011
:1035A00083E090E08093F6046091F2047091F3045C
:1035B0008091F4049091F5040C94A8128091F60483
:1035C00090E0019797FF02C080E090E08430910581
:1035D00014F083E090E08093F6046091F20470911F
:1035E000F3048091F4049091F5040C94A812E2EF96
:1035F000F4E08F73982F990F80818178892B8083D5
:1036000060817181828193810C94A812E2EFF4E0D1
:103610008F73982F990F80818178892B80830895EB
:103620008091F20486958F730895E2EFF4E0208193
:1036300080FB27F92083A3EFB4E086952C912078B6
:10364000822B90FB87F98C93628343836081718125
:10365000828193810C94A812E2EFF4E0208180FB38
:1036600027F92083A3EFB4E086952C912078822B54
:1036700090FB87F98C9362834383089567E784E71F
:103680000C94131DCF930E94521D84E70E94981B37
:1036900087E70E94981BC0E021E041E061E08C2FA9
:1036A0000E942A1CCF5FC033B9F767E784E7CF9148
:1036B0000C94261DEBE4F6E06083418324E630E0C1
:1036C00042E050E0BF01880F0C94281EEF92FF9259
:1036D0001F93CF93DF937B01182F110FC0E0D0E031
:1036E0008C2F8C5D80934B0620E030E0F901EC0FCD
:1036F000FD1FEE0DFF1D8081F901E55BF94F818310
:103700002F5F3F4F2031310589F724E630E041E15A
:1037100050E06BE476E0812F0E94281E6096C0394D
:10372000D105F1F6DF91CF911F91FF90EF900895B1
:10373000CF93DF93C82F4BE06DEF0E945A1B40E000
:103740006AE08C2F0E945A1B8FE39CE90197F1F7E6
:1037500000C0000040E060E08C2F0E945A1B40E057
:1037600061E08C2F0E945A1B40E066E08C2F0E9483
:103770005A1B40E06DEF8C2F0E945A1BD0E040E0B6
:103780006D2F8C2F0E945A1BDF5FD231C1F740E0B2
:103790006D2F8C2F0E945A1BDF5FD432C1F740E09F
:1037A0006D2F8C2F0E945A1BDF5FD43BC1F74BE07B
:1037B0006DEF8C2F0E945A1B41E06AE08C2F0E9413
:1037C0005A1B40E06DEF8C2FDF91CF910C945A1B68
:1037D0008033910520F5880F991F880F991FFC01F0
:1037E000E552FE4F52813381808183707181E0E91F
:1037F0008E9FC0011124855D9A4FFC01E70FF11DDA
:10380000B4976083FC01E50FF11DB4974083830FEB
:10381000911DFC01B497208381E08093FF030895FC
:10382000FF920F931F93CF93DF93182F062FF42E41
:10383000C0E0D0E02F2D402F612FCE010E94E81B69
:103840002196C033D105B1F7DF91CF911F910F9130
:10385000FF9008954F925F927F928F929F92AF92C6
:10386000BF92CF92DF92EF92FF920F931F93CF936D
:10387000DF93362F54E0859FC0011124FC01E552EF
:10388000FE4FA081A3707A2E618170E0CB018497F6
:103890008C0197FF02C0095F1F4FA3E015950795A4
:1038A000AA95E1F7628170E07B0154E2E51AF10824
:1038B000E701F7FC279673E0D595C7957A95E1F770
:1038C000638170E04B01E4E28E1A9108F40197FCE9
:1038D00037962F0153E0559447945A95E1F768E0E5
:1038E000A62EB12CB5010E9495396C01C701B50116
:1038F0000E9495397C01C401B5010E949539A72D1C
:10390000B0E01127DD243323A1F032E13A9FB0016A
:103910003B9F700D1124060F171F05521C4F61E0CD
:1039200070E001C0660FCA94EAF7F8013081632B9A
:1039300014C032E13A9FB0013B9F700D1124060F75
:10394000171F05521C4F61E070E001C0660FCA945A
:10395000EAF76095F801308163236083DD27FF2457
:1039600032E1442391F03A9FA0013B9F500D112476
:10397000C40FD51FC552DC4F41E050E001C0440FD9
:10398000EA94EAF73881432B12C03A9FA0013B9F8B
:10399000500D1124C40FD51FC552DC4F41E050E03B
:1039A00001C0440FEA94EAF74095388143234883E5
:1039B000A2015527992792E19A9FF0019B9FF00D54
:1039C0001124E40FF51FE552FC4F222361F021E0A2
:1039D00030E0A90102C0440F551F8A95E2F7CA01E1
:1039E0009081892B0CC021E030E0A90102C0440F76
:1039F000551F8A95E2F7CA018095908189238083BB
:103A000081E08093DA03DF91CF911F910F91FF90B6
:103A1000EF90DF90CF90BF90AF909F908F907F906E
:103A20005F904F900895CF939091FF03992351F0A9
:103A3000C62F6BE275E00E94661B6BEB75E08C2F66
:103A40000E94661B1092FF03CF910895EF92FF92A0
:103A50000F931F93CF93DF939091DA039923D9F0BB
:103A6000162F082F8BEDE82E83E0F82EC0E0D0E073
:103A7000F70141917F016C2F802F0E945A1BFE019C
:103A8000E552FC4F42896C2F812F0E945A1B2196D0
:103A9000C231D10569F7DF91CF911F910F91FF904E
:103AA000EF9008951092B9008CE08093B8000895CB
:103AB000EF92FF920F931F93CF93DF93182FEB0199
:103AC0001092BC0084EA8093BC000E94BD2C7C0153
:103AD0009091BC0097FD0EC0CF3F8FEFD807C1F388
:103AE0000E94BD2C8E199F098C179D0788F38EEFBD
:103AF0009FEF2EC09091B900987F983041F090913F
:103B0000B900987F903119F08FEF9FEF21C010938B
:103B1000BB0084E88093BC000E94BD2C8C01909176
:103B2000BC0097FD0CC0CF3F8FEFD807C1F30E94B8
:103B3000BD2C801B910B8C179D0788F3D8CF8091EB
:103B4000B900887F883111F08034F1F680E090E090
:103B5000DF91CF911F910F91FF90EF9008950F93F8
:103B60001F93CF93DF93EB018093BB0084E8809396
:103B7000BC000E94BD2C8C019091BC0097FD0EC032
:103B8000CF3F8FEFD807C1F30E94BD2C801B910B54
:103B90008C179D0788F38EEF9FEF0CC02091B90022
:103BA000287F81E090E0283211F480E090E0919548
:103BB00081959109DF91CF911F910F9108950F93F6
:103BC0001F93CF93DF93EC0184E88093BC000E94A5
:103BD000BD2C8C019091BC0097FD0EC0CF3F8FEFA4
:103BE000D807C1F30E94BD2C801B910B8C179D0739
:103BF00088F38EEF9FEF03C08091BB0090E0DF91D0
:103C0000CF911F910F9108950F931F93CF93DF933F
:103C1000EC0184E98093BC000E94BD2C8C01909142
:103C2000BC0094FF0EC0CF3F8FEFD807C1F30E94B6
:103C3000BD2C801B910B8C179D0788F38EEF9FEF97
:103C400002C080E090E0DF91CF911F910F91089525
:103C5000CF92DF92EF92FF920F931F93CF93DF9358
:103C60006B017A018901B9010E94581DFC01892B61
:103C7000C9F4E601EC0CFD1CCE15DF0541F0B801DE
:103C800089910E94AF1DFC01892BB1F30BC0C801C3
:103C9000DF91CF911F910F91FF90EF90DF90CF9028
:103CA0000C94041ECF01DF91CF911F910F91FF90D3
:103CB000EF90DF90CF9008959093050480930404D3
:103CC0000895E0910404F0910504309721F00190EB
:103CD000F081E02D099480E00895E0910404F091D2
:103CE0000504309799F020911A01222359F0209170
:103CF000650627FF07C0DC012C9111962C931197C4
:103D000025E02C930280F381E02D09940895E09141
:103D10000404F0910504309739F022E0DC012C9383
:103D20000480F581E02D09940895209102043091DA
:103D300003048217930771F09093030480930204A5
:103D4000E0910404F0910504309721F00680F7819A
:103D5000E02D099408952091000430910104821708
:103D6000930771F09093010480930004E0910404A0
:103D7000F0910504309721F00084F185E02D09943D
:103D8000089585B7806885BF85B7806885BF089529
:103D900008950E94C11E0C94C81E81E008950E94DF
:103DA000B42C0E94E3060C944B2DCF92DF92EF923D
:103DB000FF920F931F93CF93DF93CDB7DEB72B976F
:103DC0000FB6F894DEBF0FBECDBF0E94B5070E94AC
:103DD000CD1E811111C08FEF89838A831B820E94BF
:103DE000BD2C8160782F9D838C8349815A816B81A2
:103DF0008D810E94B91F56C087E0C82E84E0D82E5E
:103E000000E010E0E02E802F0E94FD07F6014191B6
:103E10006F01F42EF82631F40F5F1F4F0E3011059D
:103E200089F7D9CF9091C20491FF04C08B870E947B
:103E300003088B8520E030E04F2D50E0922FBA012F
:103E4000022E02C0759567950A94E2F760FF24C0C0
:103E50002E83EF8221E030E0690102C0CC0CDD1C32
:103E60009A95E2F790E08C219D21892B09F420E0BE
:103E700028870E94BD2C8160782F9A8789874E8180
:103E80005F8168858A850E94B91FF801E95FFB4F51
:103E90008081C826C08206C02F5F3F4F2630310583
:103EA00069F6BACF0E94DE2E109106040E94611EB0
:103EB0001817A1F00E94611E809306042B960FB67E
:103EC000F894DEBF0FBECDBFDF91CF911F910F9150
:103ED000FF90EF90DF90CF900C941F0C2B960FB6B5
:103EE000F894DEBF0FBECDBFDF91CF911F910F9130
:103EF000FF90EF90DF90CF900895DC0111962C9108
:103F000011978C91682F70E041E050E001C0440FA0
:103F10008A95EAF712968C91129730E0882329F05F
:103F2000809125048823E9F006C0F901EB5EFB4F80
:103F300090819423B1F086E0829FF001839FF00D81
:103F40001124E60FF71FEE0FFF1FE556FD4F80818E
:103F500091818D939C93F901EB5EFB4F8081482BFF
:103F600006C0F901EB5EFB4F4095808148234083FA
:103F70000895CF93DF93CDB7DEB72B970FB6F894A4
:103F8000DEBF0FBECDBF942F4F83252F5887698783
:103F90007A878B874A855B85452B21F02F3F09F572
:103FA0009F3FF9F4DE01119686E0FD0111928A959A
:103FB000E9F785E0FE01379601900D928A95E1F7C9
:103FC00049815A816B817C818D819E810E944D2720
:103FD0002B960FB6F894DEBF0FBECDBFDF91CF9109
:103FE0000895CE0107960E947D1FDCCFFC018081E1
:103FF00091810E941A2A92959F70963041F4809187
:10400000250491E089278093250490932404089542
:10401000882309F41AC18238C1F40E94611E81FD0F
:1040200014C169E38091090190910A010E94102C4A
:104030000E94792A2FEF81EE94E021508040904039
:10404000E1F700C0000069E319C08338F9F40E9469
:10405000611E80FDFAC063E58091090190910A011B
:104060000E94102C0E94792A2FEF81EE94E02150BB
:1040700080409040E1F700C0000063E580910901B5
:1040800090910A010E941B2C0C94792A8438C1F467
:104090000E94611E82FDD9C067E480910901909160
:1040A0000A010E94102C0E94792A2FEF81EE94E0E1
:1040B000215080409040E1F700C0000067E4DECF6F
:1040C0009CEF980F913A40F4682F809109019091EC
:1040D0000A010E94102CD8CF90E2980F983050F42B
:1040E000877091E001C0990F8A95EAF7892F0E94A5
:1040F000AF2ACACF9BE5980F933070F4853A29F028
:10410000863A31F083E890E005C081E890E002C093
:1041100082E890E00C94951E98E5980F973108F08E
:104120008EC0883A09F445C0893A09F445C08A3AF4
:1041300009F445C08B3A09F445C08C3A09F445C0EE
:104140008B3B09F445C08C3B09F445C08D3A09F41A
:1041500045C0803B09F445C08E3A09F445C08F3A0A
:1041600009F445C0813B09F445C0823B09F445C0D0
:10417000833B09F445C0843B09F445C0853B09F401
:1041800045C0863B09F445C0873B09F445C0883BE0
:1041900009F445C0893B09F445C08D3B09F445C08D
:1041A0008E3B09F445C08A3B09F445C080E090E0AD
:1041B00044C082EE90E041C089EE90E03EC08AEEBD
:1041C00090E03BC085EB90E038C086EB90E035C0D6
:1041D00083EB90E032C084EB90E02FC087EB90E05F
:1041E0002CC08CEC90E029C08DEC90E026C083E8D8
:1041F00091E023C08AE891E020C082E991E01DC0EF
:1042000084E991E01AC081E292E017C083E292E073
:1042100014C084E292E011C085E292E00EC086E212
:1042200092E00BC087E292E008C08FE690E005C004
:1042300080E790E002C08AE292E00C94AB1E803FDF
:1042400020F00E94E62D0C94D32E0895882309F4C3
:1042500064C0823879F40E94611E81FF5EC069E308
:104260008091090190910A010E94102C0E94792AE4
:1042700069E310C08338B1F40E94611E80FF4DC015
:1042800063E58091090190910A010E94102C0E941F
:10429000792A63E58091090190910A010E941B2C03
:1042A0000C94792A843879F40E94611E82FF35C00B
:1042B00067E48091090190910A010E94102C0E94EC
:1042C000792A67E4E7CF9CEF980F913A10F4682FB2
:1042D000E1CF90E2980F983050F4877091E001C0E0
:1042E000990F8A95EAF7892F0E94B52AD9CF9BE5C5
:1042F000980F933020F480E090E00C94951E98E5A0
:10430000980F973120F480E090E00C94AB1E803F32
:1043100020F00E944E2E0C94D32E0895CF93C82FD8
:104320000E9408208C2FCF910C942621882321F005
:104330000E94AF2A0C94792A0895882321F00E94C4
:10434000B52A0C94792A08958F929F92AF92BF92CA
:10435000DF92EF92FF920F931F93CF93DF937C0135
:10436000D62FC72FFC01058102950F701281111104
:104370000E94CF2A0E94722A882379F0112369F0C3
:1043800080E28D0F883048F082E00E945B2A0E9414
:10439000722A91E0D82ED92601C0D12CAC2EA2943D
:1043A0008FE0A822B12CF501E857FF4F0C94A939F2
:1043B0008C2F807FCF70882311F0C295C07F11238E
:1043C00099F0CC2309F4C8C180E28D0F883010F039
:1043D000D11104C08C2F0E94AF2A03C08C2F0E94E1
:1043E000C22A0E94792AB8C18D2F0E942621CC238F
:1043F00009F42EC280E28D0F883010F0D11104C074
:104400008C2F0E94B52A03C08C2F0E94C82A0E94BC
:10441000792A1EC28C2F807FCF70803211F0C29516
:10442000C07FDD2319F0D130C9F021C0112371F014
:10443000002341F0013031F40E94E82A8C2B0E94C5
:10444000E22A06C20E94E82A8C2B3FC1002319F001
:10445000013009F4FDC10E94E52A11C0112321F0A9
:10446000023008F0F5C107C00111F2C108C01123E4
:1044700021F0011171C18C2F28C101117EC18C2F37
:104480002AC18C2F86958695837090E0009719F04D
:10449000019761F0DDC1112321F08D2F9C2F9370C6
:1044A00002C080E090E00E94951EE2C1112321F03D
:1044B0008D2F9C2F937002C080E090E00E94AB1E75
:1044C000D7C11123F9F0D53F51F0D63F71F0D43F59
:1044D000A9F480915F069091600681600BC0809185
:1044E0005F0690916006826005C080915F069091A2
:1044F000600684609093600680935F068D2F0E9413
:10450000E62D1EC0D53F51F0D63F71F0D43FA9F43F
:1045100080915F06909160068E7F0BC080915F0650
:10452000909160068D7F05C080915F069091600636
:104530008B7F9093600680935F068D2F0E944E2E96
:104540000E94D32E95C18C2F837009F050C0111199
:104550008BC18D2F829586958770880F880F9D2F30
:104560009F70892E912CA12CB12C082E04C0880C90
:10457000991CAA1CBB1C0A94D2F7D4FF14C00FE0EC
:1045800010E020E030E0B901A80104C0440F551F3D
:10459000661F771F8A95D2F7CB01BA016095709597
:1045A0008095909503C060E070E0CB01C695C695FC
:1045B000C370D0E0C230D10561F0C330D10581F0C5
:1045C000682979298A299B29219771F00E949228CC
:1045D0004BC1682979298A299B290E94A42844C1B2
:1045E0000E949228C501B4010E9480283DC1112378
:1045F00019F08C2F817001C08695882309F434C18D
:104600008D2F829586958770880F880F9D2F9F70BC
:10461000892E912CA12CB12C082E04C0880C991C39
:10462000AA1CBB1C0A94D2F7D4FF14C00FE010E000
:1046300020E030E0B901A80104C0440F551F661FF7
:10464000771F8A95D2F7CB01BA0160957095809556
:10465000909503C060E070E0CB01C695C695C3702D
:104660004C2F50E04230510569F04330510589F03C
:10467000682979298A299B294130510571F00E94C6
:104680005729F2C0682979298A299B290E9469291A
:10469000EBC00E945729C501B4010E944529E4C01E
:1046A0008D2F90E0FC01E05EF109E531F10508F0A5
:1046B0004FC0E856FF4F0C94A939DF708C2F8F71D3
:1046C000112331F00E94DE288D2F0E949621C0C058
:1046D0000E94FF288D2F0E949D21BAC0112339F01E
:1046E0000111B6C08C2F8F710E942429B1C00230F5
:1046F00008F0AEC0F7CF112339F08C2F8F710E94D4
:10470000DE28A6C01123C9F38C2F8F710E94FF28C9
:104710009FC0112329F08C2F8F710E94C92898C047
:104720000E94C42895C0112349F0CF718C2F0E949C
:10473000DE2863E08C2F0E94522A8AC081E00E940A
:104740005B2A023008F484C082E00E945B2A80C0A9
:10475000112331F0002389F28D2F0E94082078C0A8
:10476000002391F2D93349F45FEF67EE73E05150C3
:1047700060407040E1F700C000008D2F0E942621AC
:1047800067C04C2F4F706D2FC7010E94A20A0E9474
:10479000F1276EC0D23FB1F028F4D03F49F0D13FAD
:1047A000F9F028C0D43FB9F058F0D53F71F022C0DD
:1047B000112309F447C09091250481E0892708C09E
:1047C00081E01827109325043DC011113BC081E002
:1047D0008093250437C0111135C01092250432C0D2
:1047E000112329F080912404882329F329C0002370
:1047F00011F328C0809124040023C1F0882341F0E4
:104800009091250481E08927809325041092240447
:104810008D2F112319F00E94082014C00E94262118
:1048200086E0F70111928A95E9F70CC0882351F0D0
:10483000111108C09091250481E0892780932504F7
:10484000109224044C2F4F706D2FC7010E94CB0E85
:10485000F8E0AF16B10441F05CF04AE0A41AB108E8
:1048600052E0A516B10420F40E94611E0E941F0CA4
:10487000DD20E1F00E944E2A80FD18C0F70112826F
:104880000E94482A0E94DE28C7010E9462240E94DA
:10489000482ADF91CF911F910F91FF90EF90DF9009
:1048A000BF90AF909F908F900C94FF28DF91CF9195
:1048B0001F910F91FF90EF90DF90BF90AF909F906E
:1048C0008F9008950F931F93CF93DF93EC0188810E
:1048D00099812B813C81232BB9F09F3F11F48F3FAD
:1048E00099F0CE010E94310C882371F068817981A2
:1048F0008A810E94252A8C010E947B290E947D28A2
:10490000B801CE010E94A421DF91CF911F910F9198
:1049100008950E94CF2A0E94DF2A0E94792A0E94CD
:10492000792F0E94D32E80E090E00E94951E80E0B7
:1049300090E00C94AB1E8091090190910A010E94B5
:10494000262C0C9489240E94BF2A0C949B24E92FC6
:10495000E295EF70F0E03297EE30F105B0F4E355F8
:10496000FF4F0C94A939803F91F018F4803E68F411
:104970000EC0843F51F40BC0803E48F0813F29F4C3
:1049800006C093FB882780F9089580E0089581E0B0
:1049900008950E941A2A0E94A7240895CF93DF93B6
:1049A00000D000D01F92CDB7DEB70F900F900F90C0
:1049B0000F900F90DF91CF910895CF93DF9300D0A8
:1049C00000D000D0CDB7DEB726960FB6F894DEBF84
:1049D0000FBECDBFDF91CF9108951F93CF93DF938B
:1049E000C091260416E080912704C81799F0D0E002
:1049F0001C9FF0011D9FF00D1124E85DFB4F4081CD
:104A0000518162817381848195810E94DD24219688
:104A1000C770E9CFDF91CF911F910895409158045D
:104A20005091590460915A0470915B0480915C0428
:104A300090915D040C94DD2480915D0482958F70CB
:104A400009F054C080915A04882309F44FC0809122
:104A50002604A09127046091580470915904409154
:104A60005B0450915C04B6E08A1709F43FC090E003
:104A700041155105C1F17F3F11F46F3FA1F1B89F7E
:104A8000F001B99FF00D1124E85DFB4F21817213F5
:104A90002AC02081621327C02281211124C02381D2
:104AA00034812417350710F421503109241B350BAC
:104AB000283C3105C0F420915D042F7020612093C3
:104AC0005D0426E0289FF001299FF00D1124E35D8D
:104AD000FB4F80818F708061808388E594E00E9425
:104AE00062240C94ED2401968770BECF0895CF9276
:104AF000DF92EF92FF920F931F93CF93DF93CDB787
:104B0000DEB762970FB6F894DEBF0FBECDBF8C0143
:104B100085E0F801DE011D9601900D928A95E1F77E
:104B2000D8014C9111965C91119712966C91129745
:104B30001396CD90DC9014973091580470915904DD
:104B400080915B0490915C04009709F46BC17F3FF6
:104B500019F43F3F09F466C1E0905A04EE2009F4CD
:104B6000C0C020915D04C816D90628F0F601E81BE4
:104B7000F90BCF0104C0809590958C0D9D1DFF24ED
:104B8000F394883C910578F0F12C207F09F0C6C0A1
:104B90007C2DD98AC88A89890E94CE2488E594E030
:104BA0000E946224B1C0822F807F09F046C0751335
:104BB00014C0341312C0611110C02F7020612093F3
:104BC0005D040E940E2588E594E00E946224809195
:104BD0005D04D80115968C932EC0CD2819F15F3F46
:104BE00011F44F3FF9F0F62E61111CC0809126049C
:104BF0002091270436E0821709F45AC090E0389FCC
:104C0000F001399FF00D1124E85DFB4F71815713BE
:104C100006C07081471303C07281711103C00196F1
:104C20008770E9CFF62E662309F427C180915D04D1
:104C3000816080935D04F12C20C1751308C034138A
:104C400006C0611104C080915D04D801C3C04D87C6
:104C50005E878D859E856A8B0E94C9246A89882318
:104C6000E1F16623D1F120915D04822F82958F704E
:104C700090E0029774F080915804909159049887BD
:104C80008F831986DB86CA862C87CE0107960E9401
:104C9000622486E0F801A8E5B4E001900D928A95BF
:104CA000E1F70E941C250E940E25FF24F394E5C025
:104CB0004D875E878D859E850E941A2A292F229511
:104CC0002F7030E0223031050CF0CBC09F7009F01E
:104CD000C5C0805E883008F4D0C0C8010E9462243C
:104CE000E4CFC816D90608F453C0F601E81BF90B47
:104CF000CF01883C910508F450C0F12C7C2DD98A55
:104D0000C88A89890E94CE24E8E5F4E086E0DF01C4
:104D10001D928A95E9F70E940E25AFC0751314C045
:104D2000341312C0611110C080915D04F8018583B5
:104D3000C8010E94622486E0E8E5F4E0DF011D92EC
:104D40008A95E9F7FE2C99C04D875E878D859E85F3
:104D50006A8B0E94C9246A89882309F4BECF66231E
:104D600009F4BBCF20915D04822F82958F7090E073
:104D700002970CF48ECF80915804909159049A8335
:104D800089831B82DD82CC822E83CE0101967FCF68
:104D9000809590958C0D9D1DACCFF62E662309F461
:104DA0009CCF75132EC034132CC020915D0420FDC0
:104DB0001FC0822F82958F70D9F0D80115962C9341
:104DC00015978F3049F08F5F982F9295907F822FA3
:104DD0008F70892B15968C93C8010E94622486E0FF
:104DE000F801A8E5B4E001900D928A95E1F793CF20
:104DF00086E0F801A8E5B4E001900D928A95E1F70C
:104E00003CC04D875E878D859E850E94C924811197
:104E100040CF80915D04816080935D04C8010E9451
:104E200062242BC0662309F458CF4D875E878D8599
:104E30009E850E94C924F82E882309F44ECF86E06F
:104E4000F801A8E5B4E001900D928A95E1F788E5B4
:104E500094E00E94F61F0E941C255DCF811139CF7E
:104E60000CC0243031050CF038CF9F7009F431CFDD
:104E7000F8019581907F09F02CCF8F2D62960FB6A7
:104E8000F894DEBF0FBECDBFDF91CF911F910F9180
:104E9000FF90EF90DF90CF9008951F93CF93DF9313
:104EA000CDB7DEB72C970FB6F894DEBF0FBECDBFDF
:104EB0004F83588769877A878B879C87CE010796AF
:104EC0000E947725882369F08F8198852A853B8504
:104ED000232BF1F19F3F09F063C08F3F09F060C0C1
:104EE00037C086E0FE013796DE01119601900D92E3
:104EF0008A95E1F76F817885EA85FB85309741F1E6
:104F00007F3F11F46F3F21F12091270430E0C90168
:104F10000196877099274091260450E084179507E1
:104F200009F447C069837A83FD83EC8396E0929FFE
:104F3000D001939FB00D1124A85DBB4FFE013196A7
:104F400001900D929A95E1F7809327040E94ED2439
:104F500016E080912604909127048917C1F1189FCB
:104F6000C0011124885D9B4F0E947725882379F129
:104F7000E09126041E9FF0011124E85DFB4F408163
:104F8000518162817381848195810E94DD248091A9
:104F9000260490E001968770992780932604D9CF44
:104FA0004F81588569857A858B859C850E94DD2493
:104FB000CFCF0E94A3241092270410922604E8E584
:104FC000F4E086E0DF011D928A95E9F7C1CF2C96C7
:104FD0000FB6F894DEBF0FBECDBFDF91CF911F910A
:104FE0000895EF92FF920F931F93CF93DF938C015D
:104FF000892B09F46CC0F12CEE24E394E80121968E
:10500000F8018491843740F4843008F051C0813035
:1050100081F0823019F15BC0853709F444C0A8F1F2
:105020009CE7980F903708F052C08F770E94262196
:1050300041C00E5F1F4FFE01C49180E28C0F88308B
:1050400048F4C7708E2D01C0880FCA95EAF70E94F8
:10505000D22A14C08C2F0E9408202DC00E5F1F4F33
:10506000FE01C49180E28C0F883058F4C7708E2DF9
:1050700001C0880FCA95EAF70E94D82A0E94792AAF
:105080001AC08C2F0E94262116C00E5F1F4FFE01F2
:10509000C491CC2381F08FE99FE00197F1F700C024
:1050A0000000C150F6CF0E5F1F4FFE01F49003C009
:1050B0000E9408208E018F2D882309F49FCFEFE9ED
:1050C000FFE03197F1F700C000008150F5CFDF918C
:1050D000CF911F910F91FF90EF90089508950C9438
:1050E0006E280E946F286093990470939A048093AD
:1050F0009B0490939C040C94892408950C9471282B
:105100000F931F930091990410919A0420919B048E
:1051100030919C04602B712B822B932B1F910F914C
:105120000C9471280F931F930091990410919A0485
:1051300020919B0430919C0460237123822393234C
:105140001F910F910C9471280F931F930091990454
:1051500010919A0420919B0430919C046027712740
:10516000822793271F910F910C9471280C945C0B4C
:105170000E94B628609395047093960480939704D8
:10518000909398040C94892460E070E0CB010C9417
:10519000B8280F931F9341E050E060E070E08A016F
:1051A0009B0104C0000F111F221F331F8A95D2F7E5
:1051B000C901B8011F910F910C94B8280F931F9348
:1051C00041E050E060E070E004C0440F551F661FEE
:1051D000771F8A95D2F78091950490919604A091BB
:1051E0009704B09198048A019B01082B192B2A2B54
:1051F0003B2BC901B8011F910F910C94B8280F9354
:105200001F9341E050E060E070E004C0440F551F80
:10521000661F771F8A95D2F74095509560957095D7
:105220008091950490919604A0919704B091980470
:105230008A019B01082319232A233B23C901B801B2
:105240001F910F910C94B8280F931F9341E050E0E9
:1052500060E070E004C0440F551F661F771F8A95F9
:10526000D2F78091950490919604A0919704B09103
:1052700098048A019B01082719272A273B27C9017F
:10528000B8011F910F910C94B8280F931F930091B0
:105290009504109196042091970430919804602B06
:1052A000712B822B932B1F910F910C94B8280F9385
:1052B0001F930091950410919604209197043091CA
:1052C000980460237123822393231F910F910C94E0
:1052D000B8280F931F930091950410919604209184
:1052E00097043091980460277127822793271F9194
:1052F0000F910C94B8280895292F220F920F990F1F
:10530000890FA82FA695A695A695877051E001C094
:10531000550F8A95EAF785E0A89FD001112420E077
:1053200030E070E0F901EA0FFB1FE25AFB4F4081C9
:10533000CB01022E02C0969587950A94E2F7817000
:105340009927819584278523842780832F5F3F4F6A
:105350002530310539F70895292F220F920F990F23
:10536000890F682F669566956695982F977085E0EA
:10537000689FB001112440E050E080E0FA01E60FA0
:10538000F71FE25AFB4F208130E0092E02C036950C
:1053900027950A94E2F721703327042E01C0220FCB
:1053A0000A94EAF7822B4F5F5F4F4530510531F782
:1053B0000895BF92CF92DF92EF92FF920F931F93C7
:1053C000CF93DF938C01C0909904D0909A04E09021
:1053D0009B04F0909C048091950490919604A09178
:1053E0009704B0919804C82AD92AEA2AFB2ACFE167
:1053F000D0E0D701C6010C2E04C0B695A7959795AD
:1054000087950A94D2F780FF07C0BC2EB8018C2F75
:105410000E94E60E019719F4219758F7B12C8B2DB5
:10542000DF91CF911F910F91FF90EF90DF90CF9080
:10543000BF900895CF93DF93EC010E94D929BE015C
:105440000E94E60EDF91CF9108951F93CF93DF93D3
:10545000EB0190912304992321F0CB010E941A2A99
:1054600013C0882349F0CB010E94D929182F682F37
:10547000CE010E947C2904C0CB010E94AC29182FC8
:10548000BE01812F0E94E60EDF91CF911F910895FA
:1054900080919D04859585958595089580919D04BD
:1054A0008770089598E0899F90011124262B2093FE
:1054B0009D040C94DE2820919D0480958223809386
:1054C0009D04982F977069F430E0482F082E000C47
:1054D000550B2417350729F08595859585950C94EE
:1054E000FF28089590919D04977081E009F480E071
:1054F0000895E0910901F0910A018091C10480832F
:10550000E0910901F0910A0190818091C004892BFA
:105510008083E0910901F0910A0190818091BF049C
:10552000892B808380919E04882381F0E09109017A
:10553000F0910A019081892B8083809109019091DB
:105540000A010E94AB2B811110929E0480910901E7
:1055500090910A010C946D1E8091C1040895909160
:10556000C104892B8093C104089580959091C10452
:1055700089238093C10408958093C10408951092F3
:10558000C10408959091C004892B8093C0040895AC
:1055900080959091C00489238093C004089510924F
:1055A000C00408959091BF04892B8093BF0408958F
:1055B00080959091BF0489238093BF040895109231
:1055C000BF04089580939E04089510929E04089548
:1055D00080919E040895CF92DF92EF92FF926C012A
:1055E000EE24FF24C114D104E104F10421F0C70129
:1055F000B60120E101C020E0C72ED82EE92EFF24FD
:10560000C114D104E104F10419F0285FC701B60107
:105610006B017C0154E0F694E794D794C7945A95B3
:10562000D1F7C114D104E104F10419F02C5FC701D2
:10563000B6016B017C0142E0F694E794D794C794DD
:105640004A95D1F7C114D104E104F10419F02E5F99
:10565000C701B601DC01CB01B695A7959795879553
:10566000892B8A2B8B2B09F02F5F822FFF90EF90D5
:10567000DF90CF90089580E090E00E94193A21E0F9
:105680008D3E9E4F09F020E0822F089582E090E049
:105690000C940B3A83E090E00C940B3A84E090E099
:1056A0000C940B3A682F84E090E00C941F3AAB0105
:1056B000BC018FE090E00C94313AAB01BC0183E176
:1056C00090E00C94313A60E070E0CB010C945D2BDB
:1056D00060E070E0CB010E94572B0C94632B6DEEC1
:1056E0007EEF80E090E00E943D3A60E082E090E052
:1056F0000E941F3A60E083E090E00E941F3A1092FF
:10570000990410929A0410929B0410929C0460E0F9
:1057100084E090E00E941F3A60E085E090E00E9403
:105720001F3A60E086E090E00E941F3A6FEF87E04A
:1057300090E00E941F3A40E050E0BA0188E090E01B
:105740000E94313A60E08DE090E00E941F3A0C9494
:10575000682B0C946F2BFC01329680911A018823E0
:1057600031F08091650687FF02C09EE101C096E09E
:1057700080E0915028F021912223D9F38F5FF9CF57
:1057800008959C01FC0132969FEF80E041914617FD
:1057900089F09F3F19F4411101C0982F8F5F863027
:1057A000A9F79F3F39F0F901E90FF11D97FDFA952F
:1057B000628308950895FC0132960896208126138D
:1057C00001C010823196E817F907C1F70895262F16
:1057D0002695269526952E3168F4FC01E20FF11DE1
:1057E000677021E030E001C0220F6A95EAF78281FC
:1057F000282B22830895262F2695269526952E312F
:1058000070F4FC01E20FF11D677021E030E001C08F
:10581000220F6A95EAF72095828128232283089532
:1058200020911A01222329F02091650627FD0C946E
:10583000E72B0C94C12B20911A01222329F02091EF
:10584000650627FD0C94FB2B0C94DB2B20911A0191
:10585000FC013296222331F08091650687FF02C059
:105860008EE101C086E0DF011D928A95E9F7089577
:1058700008950C94382C0E94392C80916B0684304A
:1058800049F11092C30420E488E190E00FB6F89447
:10589000A895809360000FBE2093600080E00E9476
:1058A0001F0C0E94392C83B7817F846083BF83B72C
:1058B000816083BF7894889583B78E7F83BF0FB64E
:1058C000F894A895809160008861809360001092A0
:1058D00060000FBE08950895CF930E940C070E94A8
:1058E000B5070E946B2CC0E08C2F0E94FD07811130
:1058F00004C0CF5FCE30C1F701C081E0CF910895E1
:1059000008950C94802C0E94A3240E94611E0E9482
:105910001F0C0C94812C1F920F920FB60F92112422
:105920008F939F93AF93BF938091C304811113C052
:105930008091610690916206A0916306B091640621
:105940004196A11DB11D8093610690936206A093BC
:105950006306B0936406BF91AF919F918F910F90B2
:105960000FBE0F901F90189582E084BD93E095BD07
:105970009AEF97BD80936E0008952FB7F8948091A9
:10598000610690916206A0916306B09164062FBFF4
:105990000895CF92DF92EF92FF920F931F932FB74C
:1059A000F89440916106509162066091630670918F
:1059B00064062FBF6A017B01EE24FF248C0120E0E6
:1059C00030E0C016D106E206F30610F4415051094A
:1059D0009A01281B390BC9011F910F91FF90EF907D
:1059E000DF90CF90089578941F920F920FB60F9288
:1059F00011248F939F93AF93BF93809161069091F1
:105A00006206A0916306B09164060196A11DB11DC6
:105A10008093610690936206A0936306B093640638
:105A2000BF91AF919F918F910F900FBE0F901F90DC
:105A30001895F89481E08093E00080E28093D8008C
:105A4000E9ECF0E010828FE19EE40197F1F700C0ED
:105A500000001DBA109268001CBC10BE1FBA109244
:105A60007A0010926E0010926F00109271001092E6
:105A700072001082ECEBF0E0108214B817B81AB87C
:105A80001DB810BA108215B818B81BB81EB811BAD4
:105A90000C94003F08950E943B2B811102C00E948C
:105AA000A92B0E94462B8093C2040E944E2B90E0AB
:105AB00090936606809365060E944A2B682F70E0DB
:105AC00080E090E00C947E288091C70480FF0BC09A
:105AD00060910E0185E0689FB0011124759567956E
