:100000000C944D060C946A060C946A060C946A06CD
:100010000C946A060C946A060C946A060C946A06A0
:100020000C946A060C946A060C9496320C9468330D
:100030000C94FE2A0C946A060C946A060C946A06C8
:100040000C946A060C946A060C946A060C946A0670
:100050000C946A060C94662B0C946A060C946A063F
:100060000C946A060C946A060C946A060C946A0650
:100070000C946A060C946A060C946A060C946A0640
:100080000C946A060C946A060C946A060C946A0630
:100090000C946A060C946A060C946A060C946A0620
:1000A0000C946A060C946A060C946A06C206C5068D
:1000B000C806CB06CE06D106D406EC09F109FB0929
:1000C000EF09F409F909F7093F0B410B4C0B430BFE
:1000D000450B470B490B4B0B4E0B500B520B5D0B5B
:1000E000540B560B580B5A0B5C0B5F0BE817EB17B6
:1000F000EE17F117F417F717FA17FD170018031882
:1001000006184B204B207D207D20B420D4203D229A
:100110009B2216219B22C321C32134229B229B2296
:100120009522D021D021D021D021D021D021D02181
:10013000D021D021D021D021D021D021D021D02137
:10014000D021E121EE21F521FC21062226232623C0
:10015000382338232F2338233823382326232623F4
:100160003423382338233423D533FC33EE34FC33A3
:10017000EE3448346B34EE34C134D03405A84CCD61
:10018000B2D44EB93836A9020C50B9918688083CD1
:10019000A6AAAA2ABE000000803F6572676F646F3E
:1001A000785F657A2F616C656367204020302E365A
:1001B0002E3236362D332D673334613131640000F1
:1001C00000F0A1000000000000000000000000009E
:1001D000000000000000000000000000000000001F
:1001E000000000000000000000000000000000000F
:1001F00000000000000000000000000000000000FF
:1002000000000000000000000000000000000000EE
:1002100000000000000000000000000000000000DE
:1002200000000000000000000000000000000000CE
:1002300000000000000000000000000000000000BE
:1002400000000000000000000000000000000000AE
:100250000000009AFFFF9AFFFF9AFFFF9AFFFF9AA4
:10026000FFFF9AFFFF9AFFFF9AFFFF9AFFFF9AFF97
:10027000FF9AFFFF9AFFFF9AFFFF9AFFFF9AFFFF87
:100280009AFFFF9AFFFF9AFFFF9AFFFF9AFFFF9ADC
:10029000FFFF9AFFFF9AFFFF9AFFFF9AFFFF9AFF67
:1002A000FF9AFFFF9AFFFF9AFFFF9AFFFF9AFFFF57
:1002B0009AFFFF00CCFF9AFFFF9AFFFF9AFFFF0013
:1002C000CCFF00CCFF00CCFF9AFFFF9AFFFF9AFF04
:1002D000FF9AFFFF9AFFFF9AFFFF9AFFFF9AFFFF27
:1002E0009AFFFF69FFFF69FFFF69FFFF69FFFF6971
:1002F000FFFF69FFFF69FFFF69FFFF69FFFF69FFFC
:10030000FF69FFFF69FFFF69FFFF69FFFF69FFFFEB
:1003100069FFFF69FFFF69FFFF69FFFF69FFFF00DA
:10032000000000000000000000000069FFFF69FFFE
:10033000FF69FFFF69FFFF69FFFF00000000000089
:1003400000000000000000000000000000000000AD
:10035000000000000000000000000000000000009D
:10036000000000000000000000000000000000008D
:100370000000000000000000000EFFFF0EFFFF0E57
:10038000FFFF69FFFF23FFFF23FFFF23FFFF0EFF98
:10039000FF69FFFF23FFFF23FFFF23FFFF00000094
:1003A000F9E4FF23FFFF23FFFF23FFFF69FFFF00A7
:1003B000000023FFFF23FFFF0000000000000000FB
:1003C000000000000000000000000000000000002D
:1003D00023FFFF00000000000000000023FFFF23B8
:1003E000FFFF23FFFF0000000000000000000000EE
:1003F0000000000000000023FFFF23FFFF000000BB
:1004000000000000000000000000000000000000EC
:100410000000000000000000FA9FFF000000000044
:1004200000000000FA9FFFFA9FFFFA9FFF00000004
:1004300000000000000000000000000000000000BC
:1004400000000000000000000000000000000000AC
:10045000000000000000000000000000000000009C
:100460000EFFFF00000000000000000069FFFF0E0B
:10047000FFFF69FFFF000000000000000000000017
:10048000000000000000000000000000000000006C
:10049000000000000000000000000000000000005C
:1004A000000000000086FFD586FFD586FFD500003E
:1004B0000000000086FFD586FFD586FFD50000002E
:1004C00000000086FFD555CB9E86FFD500000000BA
:1004D00000000AE1FF000000000000000000000032
:1004E000000000000000000000000000000000000C
:1004F00000000000000000000000000000000000FC
:1005000000000000000000000000000000000000EB
:1005100000000000000000000000000000000000DB
:1005200000000029002B002A00E100350000001E19
:1005300000140004001D0034004D001F001A0015B7
:10054000001B00000402512000090016000600E014
:10055000002C002100130017001900E4004A0022BB
:10056000000A0007000500000065000351C35C009D
:100570000005510000E300015301000000000700E6
:1005800000E70023000D000B000E0000004C0024CB
:10059000000F001100100004514B00250018000846
:1005A0000036000100280026001C000C0037000166
:1005B000000004270033001200380001004E002D17
:1005C0000031003400E500010000000100010001DD
:1005D000000100010000001E00140004001D0001C5
:1005E00000E75C1F001A0016001B0001000100203C
:1005F00000080007000600010001002100150009A5
:100600000019000100C35C220017000A0005000069
:100610000001000100105000000100000001000175
:10062000000100000001000000010023001C000B7D
:1006300000110000000100240018000D001000014E
:1006400000C55C25000C000E0036000100010026EC
:100650000012000F003700010001002700130033D3
:100660000038000100C65C0100010001000100012A
:100670000000000100010058000100010000003AE4
:10068000000100010001000100CA5C3B0001000103
:10069000000100010001003C000100010001000117
:1006A0000001003D000100010001000100C95C3EA5
:1006B00000010001000100000001000100105000D5
:1006C0000001000000C35C01000100000001000007
:1006D00000C25C3F002202210225020000E75C40CC
:1006E000002F0226022F000100E85C4100300227A3
:1006F0000230000100C55C42002D0256001F0201BD
:1007000000C65C43002E022E0020020100E95C447A
:10071000004500010001000100000001000100018E
:1007200000010001000000010001000100010001C2
:1007300000010001000100F20001000100010001C0
:1007400000F000F1000100F400010001000100F3DD
:10075000000100F50001000100010001000100009E
:100760000001000100105000000100000001000124
:1007700000010000000100000001000100A900AA22
:1007800000A800000001000100240021001E00015B
:100790000001005400250022001F0062000C0055DB
:1007A00000260023002000630001005600570000CF
:1007B00000580001000100010001000100010001DA
:1007C0000000000100010001000100010000000123
:1007D0000000000000000001000100000000004ACD
:1007E0000000000100010000004B004E000000016D
:1007F000000100000000004D0000000100010001A8
:100800000000000000000000000100010010500086
:1008100000010000000100010001000000010000D3
:1008200000010001000000000000000000010000C5
:1008300000000050000000010001000000520051C3
:1008400000000001000100000000004F0000000156
:100850000001000100000000000000010001000193
:100860000001000100010001000000010001000181
:100870000001000100000001000100010001000171
:100880000001000100010001000100010001000160
:100890000001000100010001000100010001000150
:1008A0000001000100010001000100010001000041
:1008B0000001000100010000000100000001000132
:1008C0000001000000010000000100010001000122
:1008D000000100000001000100240721071E07019C
:1008E0000001000100250722071F0727070100015B
:1008F0000026072307200701000100010001000175
:1009000000010001000100010001000100010001DF
:1009100000000000000000000000002A2B2800005A
:10092000000000000000000000000000000029009E
:100930000000002C1E3420212224342627252E36A8
:100940002D3738271E1F2021222324252633333616
:100950002E37381F0405060708090A0B0C0D0E0F69
:10096000101112131415161718191A1B1C1D2F31EC
:1009700030232D350405060708090A0B0C0D0E0F50
:10098000101112131415161718191A1B1C1D2F31CC
:1009900030354C00000000000000000000000000A6
:1009A0000000000000000000000000000000000047
:1009B000000000000101010101010001010101002D
:1009C0000000000000000000000000000001000125
:1009D0000001010101010101010101010101010108
:1009E00001010101010101010101010101010000F9
:1009F00000010100000000000000000000000000F5
:100A000000000000000000000000000000000101E4
:100A100001010000000000000101010101010101CC
:100A200001020202020202020202030303030303A1
:100A3000030304040404040405050505050606066D
:100A4000060607070707080808080909090A0A0A25
:100A50000A0B0B0B0C0C0C0D0D0D0E0E0F0F0F10C7
:100A6000101111111212131314141515161617174D
:100A7000181819191A1A1B1C1C1D1D1E1F1F2020B7
:100A80002122222324252526272728292A2B2B2CFF
:100A90002D2E2F2F30313233343536363738393A20
:100AA0003B3C3D3E3F4041424344464748494A4B18
:100AB0004C4D4F50515253555657585A5B5C5E5FE0
:100AC000606263646667696A6C6D6E707173747678
:100AD00078797B7C7E8081838486888A8B8D8F91D8
:100AE000929496989A9B9D9FA1A3A5A7A9ABADAF01
:100AF000B1B3B5B7B9BBBDBFC1C4C6C8CACCCFD1ED
:100B0000D3D6D8DADCDFE1E4E6E8EBEDF0F2F5F796
:100B1000FAFCFF0403300000001603450072006772
:100B2000006F0044006F007800200045005A00006C
:100B30000016034500720067006F0044006F0078E4
:100B400000200045005A0000000403090409023B8C
:100B500000020100A0FA09040000010301010009DC
:100B600021110100012240000705810308000A0944
:100B7000040100010300000009211101000122C04D
:100B8000000705820320000A12011001000000087E
:100B9000EDFE071301000102030105010902A10195
:100BA00085020901A1000509190129051500250182
:100BB00095057501810295017503810105010930D3
:100BC00009311581257F950275088106093815813F
:100BD000257F950175088106050C0A3802158125C7
:100BE0007F950175088106C0C005010980A10185B6
:100BF000031601002603001A81002A830075109550
:100C0000018100C0050C0901A1018504160100261F
:100C10009C021A01002A9C02751095018100C005F2
:100C2000010906A1018505050719E029E715002539
:100C300001950875018102050819012905950575B9
:100C40000191029501750391010507190029EF151E
:100C500000250195F075018102C005010906A10179
:100C6000050719E029E7150025019508750181029E
:100C7000950175088101050819012905950575017A
:100C800091029501750391010507190029FF1500CF
:100C900026FF00950675088100C011241FBECFEF06
:100CA000DAE0DEBFCDBF13E0A0E0B1E0ECEFF1E7AA
:100CB00002C005900D92AA34B107D9F726E0AAE444
:100CC000B3E001C01D92AA36B207E1F70E94BA2F25
:100CD0000C94FC380C94000080B38C7080BB81B302
:100CE000836F81BB089584B1807F84B985B1807F93
:100CF00085B98AB1837F8AB98BB1837F8BB93E98DE
:100D000046980895CF93E82F873090F5809104019D
:100D100090910501892B09F049C0CE2F64E670E05F
:100D200080E40E94C51B9093050180930401892BE8
:100D3000D1F464E670E082E10E941C1C90930501EE
:100D400080930401892B79F481E090E001C0880F41
:100D5000CA95EAF764E670E080950E941C1C9093A7
:100D600005018093040184E690E0CF910C94711CFE
:100D700090E0FC013797E730F105C0F4EA5AFF4FE5
:100D80000C94EF37209A289811C0219A29980EC008
:100D9000229A2A980BC0239A2B9808C0529A5A98E4
:100DA00005C0539A5B9802C03E9A4698CF91089529
:100DB000089508950C94D906CF93DF930E946B0891
:100DC00090E090930501809304010E9473060E94B5
:100DD0006C06AFE9B3E02BE433E0EDEAF3E04EE07C
:100DE0004E0F11921D9280E090E0E901C80FD91FCB
:100DF0001882019686309105C1F72A5F3F4F4E1346
:100E0000F0CFDF91CF910C94640A0E946B0890E0C0
:100E100090930501809304010E9473060E946C0662
:100E2000EDEAF3E08EE08E0F11928E13FDCF089560
:100E3000CF93DF93E62FF0E0E156FC4F4081482747
:100E4000808386E0689FF0011124E55BFC4F20E081
:100E500030E080E061E070E050E0AAE0B22F9081E5
:100E6000992319F09150908307C0EB01022E01C025
:100E7000CC0F0A94EAF78C2BEA0102C0D595C795EE
:100E8000BA95E2F7C0FDA0832F5F3F4F3196263021
:100E9000310521F7DF91CF910895CF93DF93D82FBC
:100EA000873008F040C08091040190910501892BA2
:100EB00009F042C064E670E080E40E94C51B909394
:100EC000050180930401892B11F0C0E027C064E67E
:100ED00070E083E10E941C1C909305018093040143
:100EE000892B99F764E670E081E40E94C51B90931A
:100EF000050180930401892B41F784E690E00E946C
:100F00004C1C97FF05C09093050180930401DDCF31
:100F1000C82FC095109205011092040184E690E05C
:100F20000E94711C0AC09FB1CFB1C07FC695C69503
:100F30009370C92BC09501C0C0E06D2F8C2F0E940B
:100F40001807282F2095ED2FF0E0E355FC4F9081F6
:100F500092238C23892BDF91CF910895EF92FF92FA
:100F60000F931F93CF93DF9380910401909105011C
:100F7000892B91F080914A038F5F80934A038111FE
:100F80000BC00E946B0890E09093050180930401D0
:100F9000892B11F40E94FD078DEAE82E83E0F82EDC
:100FA00004EB13E0C0E08C2F0E948206D7E0DC0F38
:100FB0008D2F0E9482068C2F0E944D07F70181938E
:100FC0007F018D2F0E944D07F80181938F010E94B0
:100FD0007306CF5FC73039F70E94700A81E0DF9156
:100FE000CF911F910F91FF90EF900895E82FF0E0BF
:100FF000E355FC4F80810895089556985E98259892
:101000002D9826982E9827982F988FEF90E0909300
:1010100089008093880090938B0080938A0090933E
:101020008D0080938C00259A2D9A2FEF80E792E017
:10103000215080409040E1F700C00000269A2E9A8F
:101040002FEF80E792E0215080409040E1F700C010
:101050000000279A2F9A2FEF80E792E021508040DE
:101060009040E1F700C0000025982D982FEF80E711
:1010700092E0215080409040E1F700C000002698A7
:101080002E982FEF80E792E0215080409040E1F7CA
:1010900000C0000027982F9856985E9825982D98A4
:1010A00026982E9827982F98089589EA8093800093
:1010B00089E08093810024982C983F988AB18F7C96
:1010C0008AB96E98479A8BB180638BB9769A0E94E1
:1010D000FD070C94D80680E290E090930501809380
:1010E00004018091BB0381110EC00E94BF1B81E0EF
:1010F0008093BB032FEF83ED90E32150804090401D
:10110000E1F700C0000064E670E080E40E94C51BC7
:101110009093050180930401892B09F050C064E687
:1011200070E080E00E941C1C9093050180930401F4
:10113000892B09F044C064E670E080E00E941C1C2A
:101140009093050180930401892BC9F564E670E052
:101150008FE30E941C1C9093050180930401892B4E
:1011600071F584E690E00E94711C64E670E080E412
:101170000E94C51B9093050180930401892BF9F40B
:1011800064E670E08CE00E941C1C90930501809343
:101190000401892BA1F464E670E080E00E941C1C2D
:1011A0009093050180930401892B49F464E670E073
:1011B0008FE30E941C1C909305018093040184E638
:1011C00090E00E94711C809104010895AF92BF923B
:1011D000CF92DF92EF92FF920F931F93CF93DF9303
:1011E000EC0181E00E94731980E98C9F70018D9F52
:1011F000F00C1124C0E0D0E000E010E0670182E0D4
:10120000C80ED11C57018FEFA81AB80AF601EC0FCF
:10121000FD1FED53FE4F8491FE01EE0DFF1DED53BA
:10122000FE4F6491F501EC0FFD1FED53FE4F7491DD
:10123000882319F08091EB0401C080E00E948410A3
:10124000472F282FC8010E9439110F5F1F4F239687
:1012500000331105D9F6DF91CF911F910F91FF90C7
:10126000EF90DF90CF90BF90AF9008958091BC0336
:10127000811150C060918B0470918C0480918D0419
:1012800090918E040E945E298230B9F128F488235F
:1012900049F0813079F108958430A9F188F18530E1
:1012A000A9F1089580E190E00E9459386093E80424
:1012B0007093E9048093EA049093EB04862F86955B
:1012C0008F730E9473198091E804982F9E77923053
:1012D00009F1881F8827881F9091E904292F220F80
:1012E00097FB992790F94091EB046091EA04822BD7
:1012F0000C94991981E090E00BC082E090E008C066
:1013000083E090E005C084E090E002C085E090E0DA
:101310000C94E6080895611108C0FC0182818823BD
:1013200021F08AE991E00E94610A80E090E008954E
:10133000FB01873E2CE5920799F020F4863E9C4500
:1013400049F02EC0883E2CE5920789F0893E9C45E5
:10135000C9F026C08281882321F10E941C2A1EC068
:1013600082818823F1F081E00E94641917C0828194
:101370008823B9F081E00E9464194FEF64E985EC9D
:1013800090E00AC08281882361F081E00E946419A4
:101390004FEF69E787E890E00E94821980E00895A6
:1013A00081E00895CF92DF92EF92FF926B017C0172
:1013B0000E945E2956985E9825982D9826982E981A
:1013C00027982F9890E0FC013197E730F105A8F4B9
:1013D000E35AFF4F0C94EF37259A2D9A0EC0259AA9
:1013E0002D9A269A2E9A09C0259A2D9A04C0259ADC
:1013F0002D9A269A2E9A279A2F9AC701B601FF9006
:10140000EF90DF90CF90089581E008950C949809B3
:10141000CF93282F30E0F901ED5EF64FC491F9012A
:10142000ED56F64F2491222359F081EE0E947B1E47
:101430008C2F0E947B1E8C2F0E94991F81EE04C06E
:101440008C2F0E947B1E8C2FCF910C94991F0F9391
:101450001F93CF93DF93EC01062FFE018491882325
:1014600059F19E012F5F3F4F813041F4E901F901AD
:101470001491812F0E947B1E812F0DC0823031F488
:10148000E901F90184910E947B1E0AC0833031F486
:10149000E901F90184910E94991F02C00E94080A83
:1014A0002196802F8823C9F2EFE9FFE03197F1F709
:1014B00000C000008150F6CFDF91CF911F910F91B6
:1014C000089560E00C94270A0E94AE29811102C0A1
:1014D0000E941C2A0E940A180E94D40F0C945508DE
:1014E0000E946C178091BD03811102C00E943411CB
:1014F0008091BD0390E001966BE070E00E94DB37C5
:101500008093BD030C94DA06282F2F7041F0822FB0
:1015100090E02A3010F44D9608950697089587E2DA
:1015200090E0089508950C94920A0C94930A0895FB
:101530000E9416230E94970A2FEF84E39CE021501B
:1015400080409040E1F700C000000C948C2BFF928B
:101550000F931F93CF93DF938C01FC01C081D18146
:1015600080911904811113C08281882349F0CE0132
:101570000E944C28F82E682FCE010E94EF2704C04D
:10158000CE010E941F28F82EBE018F2D04C0CE016F
:101590000E944C28BE010E94420DEC01B8010E943D
:1015A000060A882309F466C2B801CE010E944F10D2
:1015B000882309F45FC2CC3CFCE5DF0741F4F80165
:1015C0008281882309F456C20E944B1953C2CD3C34
:1015D0008CE5D80708F01EC1C43C9CE5D90761F42E
:1015E000F8018281882309F445C20E941F29827272
:1015F000E1F40E9460183EC2C53CECE5DE0708F04D
:10160000C7C0C531FCE5DF0798F0C23CFCE5DF0749
:1016100009F48CC008F492C0F8018281882309F48F
:1016200029C20E941F29827221F70E94461822C2F5
:10163000C2308CE5D80708F452C0F80182818823B3
:1016400009F459C00E94AE29811102C00E941C2ACF
:101650000E94C12990E090935C0680935B06FE0196
:10166000E350FC45E231F10530F4EC59FF4F809135
:101670005B060C94EF3780915B06816027C0826027
:1016800025C0846023C0806121C080621FC0806447
:101690001DC080681BC08460886018C08E7F16C023
:1016A0008D7F14C08B7F12C08F7E10C08F7D0EC0C7
:1016B0008F7B0CC08F770AC08B7F877F07C087FB2B
:1016C000222720F991E0922790FB87F980935B060F
:1016D00080915B060E94C5290E941623CBC1C115CB
:1016E0009CE5D90781F0C130DC45A9F081E0809309
:1016F000C3038093C403C801DF91CF911F910F9161
:10170000FF900C94040AF8018281882309F4B2C185
:101710000E94980AAFC1F8018281882309F4AAC106
:101720008091B80481608093B804A4C1F8018281DB
:10173000882309F49FC10E9438189CC1C631DC453A
:10174000A9F60E941F29282FF801828140910801E3
:1017500050910901882379F02A7A91E009F490E008
:101760009093BE03911102C069E201C065E3CA0112
:101770000E94832A0AC08091BE03811102C069E2DF
:1017800001C065E3CA010E948E2A0E94EC2872C142
:10179000F8018281C83CFCE5DF0731F4882309F4B5
:1017A00069C10E94EC1866C1C93C9CE5D907C8F420
:1017B000C63CECE5DE0731F4882309F45BC10E94E6
:1017C000A61858C1C73CDC4530F4882309F452C13F
:1017D0000E947A184FC1882309F44CC10E94D61880
:1017E00049C1CA3C9CE5D90731F4882309F442C1B8
:1017F0000E941C193FC1CB3CDC4530F4882309F41E
:1018000039C10E94061936C1882309F433C10E94E8
:10181000361930C1C43DFCE5DF0791F4F80182813F
:10182000882309F427C10E947D19893128F00E947C
:101830007D19823208F4F9CE89E10E9464191AC137
:10184000C53D8CE5D80708F068C0F8018281C03D2D
:10185000FCE5DF0771F4882309F40CC10E947D19AF
:10186000893028F00E947D198E3008F4DECE89E0A0
:10187000E4CFC13D9CE5D90740F5CE3CECE5DE0761
:1018800071F4882309F4F6C00E947D19823028F093
:101890000E947D19853008F4C8CE82E0CECFCF3CBF
:1018A000DC4528F4882309F4E5C081E0C6CF88230D
:1018B00009F4E0C00E947D19863028F00E947D194D
:1018C000883008F4B2CE86E0B8CFC23D9CE5D90797
:1018D00071F4882309F4CEC00E947D19853128F067
:1018E0000E947D19873108F4A0CE85E1A6CFC33DC3
:1018F000DC4570F4882309F4BDC00E947D198F3047
:1019000028F00E947D19843108F48FCE8FE095CFA6
:10191000882309F4AFC088E190CFC83DFCE5DF071C
:1019200059F5F8018281882361F01092C4030E9466
:10193000302B9093C2038093C10380E20E94092060
:1019400099C08091C403882321F080E20E94102076
:1019500091C08091C1039091C2030E943C2B883CAE
:10196000910598F780E20E94102088E20E947B1E79
:1019700088E20E94991F7EC0C93D8CE5D80708F017
:1019800058C0F8018281C63DFCE5DF0751F5882388
:1019900051F01092C3030E94302B9093C0038093A8
:1019A000BF0382E0CBCF0E941F2985FF05C081E0E5
:1019B0008093C3038093C4038091C30381110FC03C
:1019C0008091BF039091C0030E943C2B883C9105FD
:1019D00030F486E20E947B1E86E20E94991F82E01C
:1019E000B5CFC73DDC4528F4882309F443C083E222
:1019F00024CF81119ACF0E941F2981FF05C081E069
:101A00008093C3038093C4038091C40381119DCF4D
:101A10008091C1039091C2030E943C2B883C9105A8
:101A200008F093CF87E20E947B1E87E20E94991FF5
:101A30008CCFCC3DECE5DE0741F4F80182818823B0
:101A4000C9F082E00E94593015C0CD3DFCE5DF07AA
:101A500039F4F8018281882369F00E941C2A0AC0A7
:101A6000CB3DDC4509F042CEF8018281882311F09C
:101A700080E0E8CF80E0DF91CF911F910F91FF9040
:101A80000895089596E0799FF001112494E5899FC7
:101A9000E00DF11D1124E60FF11DEE0FFF1FED5DAE
:101AA000FA4F859194910895880F991FFC01E15494
:101AB000FE4F859194910895CF93DF930E94420D3C
:101AC0000E941D0FEC01811520E59207F0F58115AC
:101AD00030E4930708F028C1883E910500F5803E68
:101AE000910508F0A6C1883A910570F4853A9105F0
:101AF00008F0A3C08130910509F49BC108F44CC1E2
:101B0000049708F096C148C18F3B910508F4A0C026
:101B1000803C910508F440C1805C9109F8C08115B2
:101B2000904258F4C11581E0D80708F082C1C03F47
:101B3000D10508F431C1D0657CC1C11590E3D90746
:101B400008F0E8C0CE019F70E2C0811525E592073C
:101B500008F043C0811534E5930708F0FCC08115F7
:101B600042E5940708F5C11581E5D80708F0DFC004
:101B70008C2F837021E030E002C0220F331F8A9542
:101B8000E2F73C68CE0154E0969587955A95E1F7C7
:101B90008370382BCF70C695C69540E2C49FE00194
:101BA0001124C22BD32B45C1282F2695269583704F
:101BB0009927C115D34508F0BFC040E2249F90018A
:101BC0001124C1E0D0E002C0CC0FDD1F8A95E2F7FE
:101BD0002C2B3D2BE901DC682CC181154AE59407CB
:101BE000A0F4C11589E5D80708F0C4C0C11596E571
:101BF000D90708F4B5C0C11528E5D20708F4CCC050
:101C0000DC2FCC27C06FD06A14C181153BE5930748
:101C100008F4C2C081154CE5940708F4BAC0905688
:101C20008115904208F0B8C08D2F8F710E949A0FD5
:101C3000DD27D0628F71D82BFCC0853A910509F45D
:101C4000AEC0863A910509F0ADC0C2E8D0E4F1C05B
:101C5000883A910509F4A9C0893A910509F4A8C008
:101C60008A3A910509F4A7C08B3A910509F4A6C0F8
:101C70008C3A910509F4A5C08B3B910509F4A4C0E9
:101C80008C3B910509F4A3C08D3A910509F4A2C0DB
:101C9000803B910509F4A1C08E3A910509F4A0C0DA
:101CA0008F3A910509F49FC0813B910509F49EC0CC
:101CB000823B910509F49DC0833B910509F49CC0CA
:101CC000843B910509F49BC0853B910509F49AC0BA
:101CD000863B910509F499C0873B910509F498C0AA
:101CE000883B910509F497C0893B910509F496C09A
:101CF0008D3B910509F495C08E3B910509F494C084
:101D00008A3B910509F493C0C0E0D4E492C00E94DC
:101D1000540D3DC0CE019927D3FF03C0EC01D86C10
:101D200088C0EC01D06C85C0DF70D06A82C0DC2F27
:101D3000CC27C16FD06A7DC040E2249F900111245E
:101D4000C1E0D0E002C0CC0FDD1F8A95E2F7C22BC4
:101D5000D32BDA686EC0D82FCC27C46FD06A69C085
:101D60008C2F0E949A0F8F71C82FD0E0DC2FCC27C8
:101D7000D0625FC02C2F2F70206E30E0306A84E07C
:101D8000D695C7958A95E1F7CF70C9019C2BEC01D8
:101D900050C0DD27D0664DC0C0E0D0E04AC0C1E8E9
:101DA000D0E447C0C3E8D0E444C0C2EED4E441C0AC
:101DB000C9EED4E43EC0CAEED4E43BC0C5EBD4E4E3
:101DC00038C0C6EBD4E435C0C3EBD4E432C0C4EBB6
:101DD000D4E42FC0C7EBD4E42CC0CCECD4E429C0AD
:101DE000CDECD4E426C0C3E8D5E423C0CAE8D5E4EA
:101DF00020C0C2E9D5E41DC0C4E9D5E41AC0C1E2DF
:101E0000D6E417C0C3E2D6E414C0C4E2D6E411C0DD
:101E1000C5E2D6E40EC0C6E2D6E40BC0C7E2D6E403
:101E200008C0CFE6D4E405C0C0E7D4E402C0CAE2EB
:101E3000D6E4CE01DF91CF9108958238910549F122
:101E4000B0F48133910509F458C048F48932910502
:101E500009F44EC08A32910509F454C008958533BF
:101E6000910509F440C08933910599F00895833EA6
:101E7000910529F138F4803E910591F0823E91055B
:101E8000A1F00895863E9105F9F0873E910531F164
:101E9000089520915B0620FD3AC021FD38C00895C9
:101EA00080915B0680FD35C032C080915B0682FF69
:101EB00032C080915B0684FD30C083EE39C08091D2
:101EC0005B0682FD28C0F5CF80915B0683FF27C0AB
:101ED00080915B0684FD21C087EE2AC080915B065D
:101EE00083FD1DC0F5CF80915B0685FD1AC01BC028
:101EF00080915B0685FD17C014C080915B0686FD4E
:101F000014C015C080915B0686FD11C00EC080EE26
:101F10000FC089E30DC082EE0BC080E009C086EEE1
:101F200007C089E205C085E303C08AE201C081E3FE
:101F300090E0089590915B0692FF0DC0282F2871C4
:101F4000283019F4877F846006C0282F247124303C
:101F500011F48B7F886093FF0DC0282F28712831E2
:101F600019F4877E846106C0282F2471243111F46E
:101F70008B7E886194FD877E0895CF93DF938130B7
:101F800020E8920768F0FB012281222349F0EC014E
:101F90000E94EA0FCE019F770E9432100E941F100C
:101FA00081E0DF91CF9108958CE090E00E9451385C
:101FB00090E0A0E0B0E08093ED049093EE04A09355
:101FC000EF04B093F00408956091ED048CE090E08C
:101FD0000C9465380E941F298093C5030E94322902
:101FE0008091ED04813071F048F08230D9F0843076
:101FF000F9F486EE0E94012088E118C082EE0E946A
:102000007B1E16C080EE0E947B1E81EE0E947B1E0E
:1020100088E10E94012081EE0E94991F80EE0E94BB
:10202000991F06C082EE0E947B1E87E50E94012058
:102030008FE39CE90197F1F700C0000008958091BB
:10204000ED04813021F038F0823029F007C08CE2B5
:102050000E94012003C082EE0E94991F8091C50357
:102060000C942F290F931F93CF93DF938C01CCE017
:10207000D0E0C8010C2E02C0969587950A94E2F72D
:102080008F700E94840A0E9401202497CC3F8FEF1A
:10209000D80779F7DF91CF911F910F9108950F9392
:1020A0001F93CF93DF93EC018B01FB018281882387
:1020B00019F1C23EFCE5DF07C1F050F4C03EECE58B
:1020C000DE0781F0C13EFCE5DF07B1F481E010C01E
:1020D000C33E8CE5D80759F0C43EECE5DE0761F459
:1020E00084E006C01092ED0405C082E001C083E0E8
:1020F0008093ED040E94E40FB801CE01DF91CF91EF
:102100001F910F910C94BD0FCF92DF92EF92FF922F
:102110000F931F93CF93DF93E82FF82F711103C014
:10212000682F782F7EC0062F10E0C72FD0E0E82E52
:10213000F12CC8016BE270E00E94C7379B0145EDAE
:102140004203B001439F700D1124060F171F86E054
:10215000809FB001819F700D11244FEF50E0CA01A4
:102160008C1B9D0B8E9DD0018F9DB00D9E9DB00D43
:1021700011248B2F6C9F80016D9F100D7C9F100D83
:102180001124012F11276A01C01AD10ACE9C8001A7
:10219000CF9C100DDE9C100D11246A01C61AD70ABF
:1021A000CC9EB001CD9E700DDC9E700D1124672F6A
:1021B0007727461B570B4E9DE0014F9DD00D5E9D2E
:1021C000D00D11247D2F2230310599F04CF42115CA
:1021D0003105C9F021303105A1F47E2FE12F13C064
:1021E0002330310551F02430310559F4ED2F7B2F88
:1021F00006C0EB2F8D2F7F2F06C0712FEB2F8F2F57
:1022000002C07B2F812FF0E0ED5EF54F6491E72F48
:10221000F0E0ED5EF54F7491E82FF0E0ED5EF54FE4
:102220008491DF91CF911F910F91FF90EF90DF90FC
:10223000CF90089580E190E00C945938AB01BC0137
:1022400080E190E00C947738E8EEF4E08DE0808354
:102250001092E9048FEF82838383148260817181FD
:10226000828193810C941E11E0914803F0914903FF
:102270000994E0914403F09145030994E0914603E9
:10228000F0914703099440E060E080E00C943E1137
:10229000E8EEF4E06081862F881F8827881F609110
:1022A000E904660F682B728183810E948410962F47
:1022B000672F482F892F0C943E11DF92EF92FF92E7
:1022C0000F931F93CF93DF938091E804881F882793
:1022D000881F9091E904492F440F242F282B97FB46
:1022E000332730F9C9018C549F4F68E671E00E9492
:1022F000DB37821B930B8038910514F09A9505C04B
:1023000081384FEF94070CF4939597FD03969595BC
:10231000879595958795C82F8091EA04281B3109E8
:1023200037FF02C02D5F3F4F35952795359527958F
:10233000D22FD090EB049CE1E92E91E0F92E00E041
:1023400010E0F701208122952F706091E804962F0C
:10235000991F9927991F6091E904660F692B2C9F9B
:10236000600D11247091EA042D9F700D11248D2DA4
:102370000E948410472F282FC8010E9439110F5F37
:102380001F4FF4E0EF0EF11C00331105D1F6DF9181
:10239000CF911F910F91FF90EF90DF900895AF9232
:1023A000BF92CF92DF92EF92FF920F931F93CF9342
:1023B000DF931F92CDB7DEB7D82E2091E804221FFD
:1023C0002227221F8091E904982F990FB22EB92A53
:1023D00087FB882780F9EB2DF82FCF018C549F4F76
:1023E00068E671E00E94DB379C012E1B3F0B37FF34
:1023F00002C02D5F3F4F3595279535952795A22E25
:10240000C090EA040091CC031091CD032091CE033B
:102410003091CF039091EC04992359F0692F70E02B
:102420008AE090E00E94DB37CB01770FAA0BBB0B51
:1024300004C08AE090E0A0E0B0E080239123A223D2
:10244000B323892B8A2B8B2B41F40E94413860E304
:1024500070E00E94DB37082F01C00FEFE12CF12C58
:1024600010E0D11003C0E016F106A9F40E94413833
:1024700083706B2D8A9D600D112469830E94413801
:1024800069817C2D8091EB040E948410472F282FB6
:10249000C7010E9439118FEFE81AF80A80E3E816A5
:1024A000F104F9F60F90DF91CF911F910F91FF90FA
:1024B000EF90DF90CF90BF90AF900895CF92DF92D2
:1024C000EF92FF921F93CF93DF938091CC03909173
:1024D000CD03A091CE03B091CF030090EC0404C0D3
:1024E000880F991FAA1FBB1F0A94D2F7182F8AE1E1
:1024F000C82E81E0D82EC0E0D0E09FE3E92EF12C79
:10250000F60180818F3FE1F0FE01EF50FB4F8081AB
:10251000F4E08F9FC00111248034910524F4B701A9
:10252000681B790B02C060E070E0610F7FEF809163
:10253000EB040E948410472F282FCE010E943911EE
:10254000219624E0C20ED11CC033D105C9F6DF911B
:10255000CF911F91FF90EF90DF90CF900895CF9291
:10256000DF92EF92FF920F931F93CF93DF938091AF
:10257000CC039091CD03A091CE03B091CF030090F6
:10258000EC0404C0880F991FAA1FBB1F0A94D2F73E
:10259000D82EC090EB040AE111E0C0E0D0E08FE358
:1025A000E82EF12CF80180818F3FF9F0FE01EF5009
:1025B000FB4F2081F4E02F9F90011124203431053E
:1025C0002CF4C701821B930B9C0102C020E030E079
:1025D000F80161816D0D620F7FEF8C2D0E948410D8
:1025E000472F282FCE010E94391121960C5F1F4FD3
:1025F000C033D105B9F6DF91CF911F910F91FF90B4
:10260000EF90DF90CF900895CF92DF92EF92FF92FC
:102610000F931F93CF93DF938091CC039091CD03C1
:10262000A091CE03B091CF030090EC0404C0880FBA
:10263000991FAA1FBB1F0A94D2F7D82EC090EB0493
:102640000AE111E0C0E0D0E08FE3E82EF12CF801C0
:1026500080818F3FF9F0FE01EF50FB4F2081F4E0C5
:102660002F9F90011124203431052CF4C701821BC7
:10267000930B9C0102C020E030E0F80162816D0DF7
:10268000620F7FEF8C2D0E948410472F282FCE01E0
:102690000E94391121960C5F1F4FC033D105B9F646
:1026A000DF91CF911F910F91FF90EF90DF90CF902E
:1026B00008952F923F924F925F926F927F928F92E6
:1026C0009F92AF92BF92CF92DF92EF92FF920F93C1
:1026D0001F93CF93DF933090EA042090EB04609136
:1026E000CC037091CD038091CE039091CF030E94D3
:1026F0003C362BED3FE049E450E40E94093720E0EE
:1027000030E040E05CE30E9409376B017C010E94ED
:102710008F3520E030E040E05DE30E9409372B0177
:102720003C01C701B6010E94763720E030E040EE60
:1027300052E40E9494354B015C01CCE1D1E000E011
:1027400010E0688170E080E090E00E943E3620E07A
:1027500030E040E052E40E942235A30192010E9441
:1027600009376B017C01FE013197608170E080E0E8
:1027700090E00E943E3620E030E040EE52E40E94BD
:102780002235A50194010E9409379B01AC01C701C4
:10279000B6010E94233520E030E044E353E40E9478
:1027A00009376B017C018091E804881F8827881F06
:1027B0009091E904292F220F622F682B97FB77272E
:1027C00070F9072E000C880B990B0E943E369B0176
:1027D000AC01C701B6010E9423350E940D36732D4E
:1027E000822D0E948410472F282FC8010E94391182
:1027F0000F5F1F4F24960033110509F0A2CFDF9120
:10280000CF911F910F91FF90EF90DF90CF90BF90ED
:10281000AF909F908F907F906F905F904F903F9080
:102820002F9008952F923F924F925F926F927F92D6
:102830008F929F92AF92BF92CF92DF92EF92FF92D0
:102840000F931F93CF93DF93CDB7DEB728970FB6C3
:10285000F894DEBF0FBECDBF8091EA048D839091C6
:10286000EB049E836091CC037091CD038091CE03E5
:102870009091CF030E943C362BED3FE049E450E4B9
:102880000E94093720E030E040E05CE30E94093715
:102890006B017C010E948F352B013C01C701B60101
:1028A0000E94763769837A838B839C83ECE1F1E025
:1028B000F887EF8300E010E0EF81F8853197208002
:1028C000EF81F885B0803090EC04332079F0632DEF
:1028D00070E080E090E00E943E3620E030E040EC86
:1028E0005FE30E9409376B017C0106C0C12CD12C2B
:1028F00090ECE92E9FE3F92E6B2D70E080E090E0E4
:102900000E943E3620E030E040E052E40E94223552
:102910009B01AC01C701B6010E940937A3019201D6
:102920000E9409374B015C01332079F0632D70E080
:1029300080E090E00E943E3620E030E040EC5FE333
:102940000E9409376B017C0106C0C12CD12C80ECA0
:10295000E82E8FE3F82E622D70E080E090E00E9478
:102960003E3620E030E040EE52E40E9422359B01EA
:10297000AC01C701B6010E94093729813A814B8118
:102980005C810E9409379B01AC01C501B4010E9422
:1029900023356B017C018091E804881F8827881FFC
:1029A0009091E904292F220F622F682B97FB77273C
:1029B00070F9072E000C880B990B0E943E369B0184
:1029C000AC01C701B6010E9423350E940D367D81FE
:1029D0008E810E948410472F282FC8010E94391130
:1029E0000F5F1F4F8F819885049698878F830033E0
:1029F000110509F061CF28960FB6F894DEBF0FBE1F
:102A0000CDBFDF91CF911F910F91FF90EF90DF909D
:102A1000CF90BF90AF909F908F907F906F905F907E
:102A20004F903F902F9008952F923F924F925F9238
:102A30006F927F928F929F92AF92BF92CF92DF92CE
:102A4000EF92FF920F931F93CF93DF9300D000D0AC
:102A50001F92CDB7DEB72091EA042A838091EB0460
:102A60008B836091CC037091CD038091CE039091C4
:102A7000CF030E943C362BED3FE049E450E40E9436
:102A8000093720E030E040E05CE30E9409376B0149
:102A90007C010E948F352B013C01C701B6010E94C9
:102AA00076374B015C01ACE1B1E0BD83AC8300E063
:102AB00010E0EC81FD813197B081B983EC81FD811B
:102AC00030802090EC04222069F0622D70E0660FC7
:102AD000771F072E000C880B990B0E943E366B0166
:102AE0007C0105C0C12CD12CE12C20E4F22E632DF9
:102AF00070E080E090E00E943E3620E030E040E070
:102B000052E40E9422359B01AC01C701B6010E942C
:102B10000937A30192010E9409376B017C01222031
:102B200021F0312C220C331C03C082E0282E312CE2
:102B3000F9816F2F70E080E090E00E943E3620E047
:102B400030E040EE52E40E9422350E9406369B019E
:102B500077FF04C022273327261B370B82E490E03F
:102B6000821B930B289EB001299E700D389E700D1C
:102B70001124072E000C880B990B0E943E36A501EC
:102B800094010E9409379B01AC01C701B6010E9464
:102B900023356B017C018091E804881F8827881FFA
:102BA0009091E904292F220F622F682B97FB77273A
:102BB00070F9072E000C880B990B0E943E369B0182
:102BC000AC01C701B6010E9423350E940D367A81FF
:102BD0008B810E948410472F282FC8010E94391131
:102BE0000F5F1F4F8C819D8104969D838C830033E2
:102BF000110509F05ECF0F900F900F900F900F907E
:102C0000DF91CF911F910F91FF90EF90DF90CF90C8
:102C1000BF90AF909F908F907F906F905F904F90FC
:102C20003F902F9008952F923F924F925F926F9214
:102C30007F928F929F92AF92BF92CF92DF92EF924C
:102C4000FF920F931F93CF93DF9300D01F92CDB7C6
:102C5000DEB72090EA048091EB0489836091CC0375
:102C60007091CD038091CE039091CF030E943C36AA
:102C700020E030E040E85BE30E94093720E030E0EC
:102C800040E653E40E9409372B013C01ECE1F1E0FE
:102C9000FB83EA8300E010E0EA81FB81319730801A
:102CA000EA81FB81E080F090EC04FF2079F06F2D49
:102CB00070E080E090E00E943E3620E030E040ECA2
:102CC0005FE30E9409374B015C0106C0812C912C07
:102CD00090ECA92E9FE3B92E6E2D70E080E090E07D
:102CE0000E943E3620E030E040E052E40E9422356F
:102CF0000E9406369B0177FF04C022273327261B3C
:102D0000370BB901330F880B990B0E943E369B019C
:102D1000AC01C501B4010E9409372EE23DEB4BEB3B
:102D200053EB0E9409374B015C01FF2079F06F2DB6
:102D300070E080E090E00E943E3620E030E040EC21
:102D40005FE30E9409376B017C0106C0C12CD12CC6
:102D500080ECE82E8FE3F82E632D70E080E090E0A9
:102D60000E943E36A30192010E9422359B01AC01D4
:102D7000C701B6010E9409379B01AC01C501B4012E
:102D80000E9422356B017C018091E804881F88270E
:102D9000881F9091E904292F220F622F682B97FB3F
:102DA000772770F9072E000C880B990B0E943E368E
:102DB0009B01AC01C701B6010E9423350E940D366C
:102DC000722D89810E948410472F282FC8010E94EC
:102DD00039110F5F1F4F8A819B8104969B838A83E1
:102DE0000033110509F058CF0F900F900F90DF912D
:102DF000CF911F910F91FF90EF90DF90CF90BF90F8
:102E0000AF909F908F907F906F905F904F903F908A
:102E10002F900895CF92DF92FF920F931F93CF933D
:102E2000DF931F92CDB7DEB7F82E0091CC0310913F
:102E3000CD032091CE033091CF039091EC049923E0
:102E400059F0692F70E08AE090E00E94DB37AB0117
:102E5000770F660B770B04C04AE050E060E070E04B
:102E60004023512362237323452B462B472B39F4F0
:102E70000E94413860E370E00E94DB3701C08FEFB1
:102E800000E010E0C82ED12CF11003C00C151D0578
:102E900081F40E94413889830E944138782F6981EA
:102EA0008091EB040E948410472F282FC8010E94B4
:102EB00039110F5F1F4F0033110531F70F90DF916C
:102EC000CF911F910F91FF90DF90CF9008950895BB
:102ED0000E9467170C9436094091E80440FD0AC02F
:102EE0000E9443110E9468178091E80481708093CA
:102EF000070108958091C603843120F48F5F809389
:102F0000C60308958091CC039091CD03A091CE0388
:102F1000B091CF030196A11DB11D8093CC03909376
:102F2000CD03A093CE03B093CF038091C8039091BB
:102F3000C903A091CA03B091CB038F3F2FEF920733
:102F4000A207B20759F00196A11DB11D8093C803D5
:102F50009093C903A093CA03B093CB038091C70396
:102F6000E1EFF4E090819F3F61F09E3F41F4282F14
:102F700030E02230310514F0815001C080E09F5FC5
:102F80009083319695E0E132F90761F78093C703AA
:102F9000E42FE695EF7380910601E81307C081E006
:102FA00090910701913019F480E001C081E08170B7
:102FB000E093060191E0909307014E2F50E0FA0153
:102FC0003197EB30F10520F5EA58FF4F0C94EF37BD
:102FD0000E9448111DC00E9459131AC00E945D1121
:102FE00017C00E94CF1114C00E945E1211C00E942F
:102FF000AF120EC00E9404130BC00E94121408C02E
:103000000E94141505C00E94131602C00E940A17E0
:103010000C946817E0914203F09143030995E1EFA6
:10302000F4E08FEF819395E0E132F907D9F70E9440
:10303000AE29811104C00E941C2A0E9424110E9402
:103040001A116093E8047093E9048093EA04909362
:10305000EB046E7761F40E9424110E941A116093B0
:10306000E8047093E9048093EA049093EB040895D4
:10307000E8EEF4E08081982F909590FB80F98083B2
:1030800060817181828193810C941E119091E8047A
:10309000892F86958F5F8F7391788C3018F4880F05
:1030A000892B02C0892F82608093E8046091E80434
:1030B0007091E9048091EA049091EB040C941E1144
:1030C0009091E804892F8695815C8F73917888238D
:1030D00019F0880F892B02C0892F86618093E8043C
:1030E0006091E8047091E9048091EA049091EB0406
:1030F0000C941E118091E804982F991F9927991F0D
:103100008091E904880F892B90E008968F3F910504
:1031100019F014F08FEF90E02091E80480FB27F97C
:103120002093E804282F26958091E9048078822B4B
:1031300090FB87F98093E9046091E8047091E904B9
:103140008091EA049091EB040C941E118091E804A4
:10315000982F991F9927991F8091E904880F892B2F
:1031600090E0089797FF02C080E090E08F3F9105C4
:1031700019F014F08FEF90E02091E80480FB27F91C
:103180002093E804282F26958091E9048078822BEB
:1031900090FB87F98093E9046091E8047091E90459
:1031A0008091EA049091EB040C941E118091EA0442
:1031B00090E008968F3F910519F014F08FEF90E0A2
:1031C0008093EA046091E8047091E9048091EA0434
:1031D0009091EB040C941E118091EA0490E0089702
:1031E00097FF02C080E090E08F3F910519F014F046
:1031F0008FEF90E08093EA046091E8047091E90415
:103200008091EA049091EB040C941E118091EB04E0
:1032100090E008968F3F910519F014F08FEF90E041
:103220008093EB046091E8047091E9048091EA04D2
:103230009091EB040C941E118091EB0490E00897A0
:1032400097FF02C080E090E08F3F910519F014F0E5
:103250008FEF90E08093EB046091E8047091E904B3
:103260008091EA049091EB040C941E118091EC047F
:1032700090E001968430910514F083E090E0809313
:10328000EC046091E8047091E9048091EA04909163
:10329000EB040C941E118091EC0490E0019797FFD1
:1032A00002C080E090E08430910514F083E090E06B
:1032B0008093EC046091E8047091E9048091EA0441
:1032C0009091EB040C941E11E8EEF4E08F73982FAC
:1032D000990F80818178892B8083608171818281BF
:1032E00093810C941E11E8EEF4E08F73982F990FE0
:1032F00080818178892B808308958091E804869568
:103300008F730895E8EEF4E0208180FB27F9208395
:10331000A9EEB4E086952C912078822B90FB87F95A
:103320008C936283438360817181828193810C9449
:103330001E11E8EEF4E0208180FB27F92083A9EE3E
:10334000B4E086952C912078822B90FB87F98C93A2
:1033500062834383089567E784E70C94801BCF93CF
:103360000E94BF1B84E70E94051A87E70E94051A86
:10337000C0E021E041E061E08C2F0E94971ACF5F0E
:10338000C033B9F767E784E7CF910C94931BE1E46E
:10339000F6E06083418324E630E042E050E0BF0184
:1033A000880F0C94951CEF92FF921F93CF93DF939D
:1033B0007B01182F110FC0E0D0E08C2F8C5D809323
:1033C000410620E030E0F901EC0FFD1FEE0DFF1D7E
:1033D0008081F901EF5BF94F81832F5F3F4F2031EF
:1033E000310589F724E630E041E150E061E476E020
:1033F000812F0E94951C6096C039D105F1F6DF91AE
:10340000CF911F91FF90EF900895CF93DF93C82F36
:103410004BE06DEF0E94C71940E06AE08C2F0E94DC
:10342000C7198FE39CE90197F1F700C0000040E065
:1034300060E08C2F0E94C71940E061E08C2F0E9451
:10344000C71940E066E08C2F0E94C71940E06DEF7D
:103450008C2F0E94C719D0E040E06D2F8C2F0E9466
:10346000C719DF5FD231C1F740E06D2F8C2F0E946A
:10347000C719DF5FD432C1F740E06D2F8C2F0E9457
:10348000C719DF5FD43BC1F74BE06DEF8C2F0E9473
:10349000C71941E06AE08C2F0E94C71940E06DEF28
:1034A0008C2FDF91CF910C94C7198033910520F5B3
:1034B000880F991F880F991FFC01E652FE4F528119
:1034C0003381808183707181E0E98E9FC001112476
:1034D0008F5D9A4FFC01E70FF11DB4976083FC01EB
:1034E000E50FF11DB4974083830F911DFC01B49744
:1034F000208381E08093F5030895FF920F931F933B
:10350000CF93DF93182F062FF42EC0E0D0E02F2D9D
:10351000402F612FCE010E94551A2196C033D1054C
:10352000B1F7DF91CF911F910F91FF9008954F92C6
:103530005F927F928F929F92AF92BF92CF92DF92D3
:10354000EF92FF920F931F93CF93DF93362F54E0A8
:10355000859FC0011124FC01E652FE4FA081A3709B
:103560007A2E618170E0CB0184978C0197FF02C0B5
:10357000095F1F4FA3E015950795AA95E1F76281B2
:1035800070E07B0154E2E51AF108E701F7FC2796A9
:1035900073E0D595C7957A95E1F7638170E04B01AB
:1035A000E4E28E1A9108F40197FC37962F0153E05C
:1035B000559447945A95E1F768E0A62EB12CB501D1
:1035C0000E94DB376C01C701B5010E94DB377C012B
:1035D000C401B5010E94DB37A72DB0E01127DD241F
:1035E0003323A1F032E13A9FB0013B9F700D1124CB
:1035F000060F171F0F521C4F61E070E001C0660FED
:10360000CA94EAF7F8013081632B14C032E13A9F83
:10361000B0013B9F700D1124060F171F0F521C4F56
:1036200061E070E001C0660FCA94EAF76095F801A6
:10363000308163236083DD27FF2432E1442391F04E
:103640003A9FA0013B9F500D1124C40FD51FCF52AC
:10365000DC4F41E050E001C0440FEA94EAF73881C2
:10366000432B12C03A9FA0013B9F500D1124C40F61
:10367000D51FCF52DC4F41E050E001C0440FEA9427
:10368000EAF74095388143234883A20155279927BB
:1036900092E19A9FF0019B9FF00D1124E40FF51F1A
:1036A000EF52FC4F222361F021E030E0A90102C07B
:1036B000440F551F8A95E2F7CA019081892B0CC0EF
:1036C00021E030E0A90102C0440F551F8A95E2F7BE
:1036D000CA01809590818923808381E08093D00303
:1036E000DF91CF911F910F91FF90EF90DF90CF90DE
:1036F000BF90AF909F908F907F905F904F90089574
:10370000CF939091F503992351F0C62F61E275E0B4
:103710000E94D31961EB75E08C2F0E94D31910928F
:10372000F503CF910895EF92FF920F931F93CF93DC
:10373000DF939091D0039923D9F0162F082F81EDB4
:10374000E82E83E0F82EC0E0D0E0F70141917F0140
:103750006C2F802F0E94C719FE01EF52FC4F428947
:103760006C2F812F0E94C7192196C231D10569F7AC
:10377000DF91CF911F910F91FF90EF9008951092DC
:10378000B9008CE08093B8000895EF92FF920F93F8
:103790001F93CF93DF93182FEB011092BC0084EAA4
:1037A0008093BC000E94302B7C019091BC0097FD5F
:1037B0000EC0CF3F8FEFD807C1F30E94302B8E1978
:1037C0009F098C179D0788F38EEF9FEF2EC0909175
:1037D000B900987F983041F09091B900987F90316E
:1037E00019F08FEF9FEF21C01093BB0084E8809306
:1037F000BC000E94302B8C019091BC0097FD0CC046
:10380000CF3F8FEFD807C1F30E94302B801B910B65
:103810008C179D0788F3D8CF8091B900887F8831B5
:1038200011F08034F1F680E090E0DF91CF911F91AC
:103830000F91FF90EF9008950F931F93CF93DF9315
:10384000EB018093BB0084E88093BC000E94302B86
:103850008C019091BC0097FD0EC0CF3F8FEFD80731
:10386000C1F30E94302B801B910B8C179D0788F3AE
:103870008EEF9FEF0CC02091B900287F81E090E08F
:10388000283211F480E090E0919581959109DF91C3
:10389000CF911F910F9108950F931F93CF93DF93B3
:1038A000EC0184E88093BC000E94302B8C01909145
:1038B000BC0097FD0EC0CF3F8FEFD807C1F30E9429
:1038C000302B801B910B8C179D0788F38EEF9FEF99
:1038D00003C08091BB0090E0DF91CF911F910F91C9
:1038E00008950F931F93CF93DF93EC0184E98093A6
:1038F000BC000E94302B8C019091BC0094FF0EC044
:10390000CF3F8FEFD807C1F30E94302B801B910B64
:103910008C179D0788F38EEF9FEF02C080E090E048
:10392000DF91CF911F910F910895CF92DF92EF9287
:10393000FF920F931F93CF93DF936B017A0189015D
:10394000B9010E94C51BFC01892BC9F4E601EC0CEE
:10395000FD1CCE15DF0541F0B80189910E941C1CA9
:10396000FC01892BB1F30BC0C801DF91CF911F91EE
:103970000F91FF90EF90DF90CF900C94711CCF01CE
:10398000DF91CF911F910F91FF90EF90DF90CF903B
:1039900008959093FB038093FA030895E091FA034E
:1039A000F091FB03309721F00190F081E02D099414
:1039B00080E00895E091FA03F091FB03309799F0CD
:1039C00020911901222359F020915B0627FF07C09F
:1039D000DC012C9111962C93119725E02C930280F9
:1039E000F381E02D09940895E091FA03F091FB032F
:1039F000309739F022E0DC012C930480F581E02D32
:103A0000099408952091F8033091F90382179307E0
:103A100071F09093F9038093F803E091FA03F09129
:103A2000FB03309721F00680F781E02D099408957B
:103A30002091F6033091F7038217930771F090936A
:103A4000F7038093F603E091FA03F091FB033097BC
:103A500021F00084F185E02D0994089585B78068F0
:103A600085BF85B7806885BF089508950E942E1D83
:103A70000C94351D81E008950E94272B0E94DC06DE
:103A80000E94BE2BEBE5F6E080818068808308957C
:103A9000CF92DF92EF92FF920F931F93CF93DF931A
:103AA000CDB7DEB72B970FB6F894DEBF0FBECDBFF4
:103AB0000E94AE070E943A1D811111C08FEF8983C9
:103AC0008A831B820E94302B8160782F9D838C8398
:103AD00049815A816B818D810E942C1E56C08DEFC9
:103AE000C82E83E0D82E00E010E0E02E802F0E9448
:103AF000F607F60141916F01F42EF82631F40F5FBD
:103B00001F4F0E30110589F7D9CF9091B80491FF5E
:103B100004C08B870E94FC078B8520E030E04F2D8E
:103B200050E0922FBA01022E02C0759567950A9453
:103B3000E2F760FF24C02E83EF8221E030E06901CC
:103B400002C0CC0CDD1C9A95E2F790E08C219D21FF
:103B5000892B09F420E028870E94302B8160782F80
:103B60009A8789874E815F8168858A850E942C1E8D
:103B7000F801E350FC4F8081C826C08206C02F5F49
:103B80003F4F2630310569F6BACF0E94512D109172
:103B9000FC030E94CE1C1817A1F00E94CE1C80933B
:103BA000FC032B960FB6F894DEBF0FBECDBFDF919E
:103BB000CF911F910F91FF90EF90DF90CF900C94D9
:103BC000950A2B960FB6F894DEBF0FBECDBFDF91DE
:103BD000CF911F910F91FF90EF90DF90CF900895BC
:103BE000DC0111962C9111978C91682F70E041E0C7
:103BF00050E001C0440F8A95EAF712968C91129713
:103C000030E0882329F080911B048823E9F006C066
:103C1000F901E55FFB4F90819423B1F086E0829F2C
:103C2000F001839FF00D1124E60FF71FEE0FFF1F29
:103C3000E656FD4F808191818D939C93F901E55F5C
:103C4000FB4F8081482B06C0F901E55FFB4F409593
:103C50008081482340830895CF93DF93CDB7DEB7AB
:103C60002B970FB6F894DEBF0FBECDBF942F4F83B6
:103C7000252F588769877A878B874A855B85452BEF
:103C800021F02F3F09F59F3FF9F4DE01119686E000
:103C9000FD0111928A95E9F785E0FE0137960190C2
:103CA0000D928A95E1F749815A816B817C818D81E2
:103CB0009E810E94C0252B960FB6F894DEBF0FBEE2
:103CC000CDBFDF91CF910895CE0107960E94F01DE0
:103CD000DCCFFC01808191810E948D2892959F709C
:103CE000963041F480911B0491E0892780931B0456
:103CF00090931A040895882309F41AC18238C1F4F4
:103D00000E94CE1C81FD14C169E38091080190914D
:103D100009010E94832A0E94EC282FEF81EE94E093
:103D2000215080409040E1F700C0000069E319C0D5
:103D30008338F9F40E94CE1C80FDFAC063E58091BF
:103D40000801909109010E94832A0E94EC282FEF1C
:103D500081EE94E0215080409040E1F700C00000E7
:103D600063E580910801909109010E948E2A0C94CC
:103D7000EC288438C1F40E94CE1C82FDD9C067E4CF
:103D800080910801909109010E94832A0E94EC28E9
:103D90002FEF81EE94E0215080409040E1F700C089
:103DA000000067E4DECF9CEF980F913A40F4682F53
:103DB00080910801909109010E94832AD8CF90E256
:103DC000980F983050F4877091E001C0990F8A9550
:103DD000EAF7892F0E942229CACF9BE5980F9330DA
:103DE00070F4853A29F0863A31F083E890E005C016
:103DF00081E890E002C082E890E00C94021D98E512
:103E0000980F973108F08EC0883A09F445C0893A76
:103E100009F445C08A3A09F445C08B3A09F445C013
:103E20008C3A09F445C08B3B09F445C08C3B09F43E
:103E300045C08D3A09F445C0803B09F445C08E3A2F
:103E400009F445C08F3A09F445C0813B09F445C0E7
:103E5000823B09F445C0833B09F445C0843B09F427
:103E600045C0853B09F445C0863B09F445C0873B06
:103E700009F445C0883B09F445C0893B09F445C0B5
:103E80008D3B09F445C08E3B09F445C08A3B09F4DB
:103E900045C080E090E044C082EE90E041C089EEF1
:103EA00090E03EC08AEE90E03BC085EB90E038C0E9
:103EB00086EB90E035C083EB90E032C084EB90E07D
:103EC0002FC087EB90E02CC08CEC90E029C08DECEB
:103ED00090E026C083E891E023C08AE891E020C00A
:103EE00082E991E01DC084E991E01AC081E292E08C
:103EF00017C083E292E014C084E292E011C085E230
:103F000092E00EC086E292E00BC087E292E008C029
:103F10008FE690E005C080E790E002C08AE292E080
:103F20000C94181D803F20F00E94592C0C94462DB3
:103F30000895882309F464C0823879F40E94CE1C65
:103F400081FF5EC069E380910801909109010E94A0
:103F5000832A0E94EC2869E310C08338B1F40E94E0
:103F6000CE1C80FF4DC063E580910801909109014E
:103F70000E94832A0E94EC2863E5809108019091B9
:103F800009010E948E2A0C94EC28843879F40E944E
:103F9000CE1C82FF35C067E4809108019091090131
:103FA0000E94832A0E94EC2867E4E7CF9CEF980FD9
:103FB000913A10F4682FE1CF90E2980F983050F4C6
:103FC000877091E001C0990F8A95EAF7892F0E94C6
:103FD0002829D9CF9BE5980F933020F480E090E01A
:103FE0000C94021D98E5980F973120F480E090E042
:103FF0000C94181D803F20F00E94C12C0C94462D7B
:104000000895CF93C82F0E947B1E8C2FCF910C94C4
:10401000991F882321F00E9422290C94EC280895EE
:10402000882321F00E9428290C94EC2808958F926F
:104030009F92AF92BF92DF92EF92FF920F931F93E6
:10404000CF93DF937C01D62FC72FFC01058102950A
:104050000F70128111110E9442290E94E5288823C5
:1040600079F0112369F080E28D0F883048F082E00A
:104070000E94CE280E94E52891E0D82ED92601C0C2
:10408000D12CAC2EA2948FE0A822B12CF501EF57D1
:10409000FF4F0C94EF378C2F807FCF70882311F067
:1040A000C295C07F112399F0CC2309F4C8C180E2E6
:1040B0008D0F883010F0D11104C08C2F0E9422295E
:1040C00003C08C2F0E9435290E94EC28B8C18D2F87
:1040D0000E94991FCC2309F42EC280E28D0F8830F4
:1040E00010F0D11104C08C2F0E94282903C08C2FFE
:1040F0000E943B290E94EC281EC28C2F807FCF702B
:10410000803211F0C295C07FDD2319F0D130C9F0A3
:1041100021C0112371F0002341F0013031F40E94DD
:104120005B298C2B0E94552906C20E945B298C2B8F
:104130003FC1002319F0013009F4FDC10E94582944
:1041400011C0112321F0023008F0F5C107C00111A0
:10415000F2C108C0112321F0011171C18C2F28C1B7
:1041600001117EC18C2F2AC18C2F86958695837074
:1041700090E0009719F0019761F0DDC1112321F063
:104180008D2F9C2F937002C080E090E00E94021D52
:10419000E2C1112321F08D2F9C2F937002C080E08B
:1041A00090E00E94181DD7C11123F9F0D53F51F0BE
:1041B000D63F71F0D43FA9F48091550690915606F0
:1041C00081600BC08091550690915606826005C0B3
:1041D0008091550690915606846090935606809380
:1041E00055068D2F0E94592C1EC0D53F51F0D63F49
:1041F00071F0D43FA9F480915506909156068E7FB8
:104200000BC080915506909156068D7F05C0809118
:104210005506909156068B7F9093560680935506CF
:104220008D2F0E94C12C0E94462D95C18C2F83702A
:1042300009F050C011118BC18D2F82958695877022
:10424000880F880F9D2F9F70892E912CA12CB12C47
:10425000082E04C0880C991CAA1CBB1C0A94D2F717
:10426000D4FF14C00FE010E020E030E0B901A80155
:1042700004C0440F551F661F771F8A95D2F7CB01E4
:10428000BA01609570958095909503C060E070E0EC
:10429000CB01C695C695C370D0E0C230D10561F0A0
:1042A000C330D10581F0682979298A299B29219772
:1042B00071F00E9405274BC1682979298A299B2919
:1042C0000E94172744C10E940527C501B4010E941E
:1042D000F3263DC1112319F08C2F817001C0869502
:1042E000882309F434C18D2F829586958770880FB5
:1042F000880F9D2F9F70892E912CA12CB12C082EF8
:1043000004C0880C991CAA1CBB1C0A94D2F7D4FFC9
:1043100014C00FE010E020E030E0B901A80104C0B3
:10432000440F551F661F771F8A95D2F7CB01BA013C
:10433000609570958095909503C060E070E0CB012A
:10434000C695C695C3704C2F50E04230510569F0B8
:104350004330510589F0682979298A299B29413000
:10436000510571F00E94CA27F2C0682979298A296B
:104370009B290E94DC27EBC00E94CA27C501B4011B
:104380000E94B827E4C08D2F90E0FC01E05EF109A7
:10439000E531F10508F04FC0EF56FF4F0C94EF37B1
:1043A000DF708C2F8F71112331F00E9451278D2FD8
:1043B0000E940920C0C00E9472278D2F0E941020E9
:1043C000BAC0112339F00111B6C08C2F8F710E9431
:1043D0009727B1C0023008F0AEC0F7CF112339F0F3
:1043E0008C2F8F710E945127A6C01123C9F38C2FE7
:1043F0008F710E9472279FC0112329F08C2F8F711B
:104400000E943C2798C00E94372795C0112349F08D
:10441000CF718C2F0E94512763E08C2F0E94C528FA
:104420008AC081E00E94CE28023008F484C082E075
:104430000E94CE2880C0112331F0002389F28D2FF5
:104440000E947B1E78C0002391F2D93349F45FEFBC
:1044500067EE73E0515060407040E1F700C000002B
:104460008D2F0E94991F67C04C2F4F706D2FC70171
:104470000E948B090E9464266EC0D23FB1F028F4DE
:10448000D03F49F0D13FF9F028C0D43FB9F058F0FF
:10449000D53F71F022C0112309F447C090911B044D
:1044A00081E0892708C081E0182710931B043DC0D4
:1044B00011113BC081E080931B0437C0111135C03E
:1044C00010921B0432C0112329F080911A04882312
:1044D00029F329C0002311F328C080911A04002376
:1044E000C1F0882341F090911B0481E089278093DB
:1044F0001B0410921A048D2F112319F00E947B1EA9
:1045000014C00E94991F86E0F70111928A95E9F77D
:104510000CC0882351F0111108C090911B0481E058
:10452000892780931B0410921A044C2F4F706D2F13
:10453000C7010E94410DF8E0AF16B10441F05CF0F4
:104540004AE0A41AB10852E0A516B10420F40E9472
:10455000CE1C0E94950ADD20E1F00E94C12880FD5A
:1045600018C0F70112820E94BB280E945127C70180
:104570000E94D5220E94BB28DF91CF911F910F91FD
:10458000FF90EF90DF90BF90AF909F908F900C9432
:104590007227DF91CF911F910F91FF90EF90DF90E5
:1045A000BF90AF909F908F9008950F931F93CF93DC
:1045B000DF93EC01888199812B813C81232BB9F019
:1045C0009F3F11F48F3F99F0CE010E94A70A8823E4
:1045D00071F0688179818A810E9498288C010E94FB
:1045E000EE270E94F026B801CE010E941720DF912D
:1045F000CF911F910F9108950E9442290E94522944
:104600000E94EC280E94EC2D0E94462D80E090E054
:104610000E94021D80E090E00C94181D809108011A
:10462000909109010E94992A0C94FC220E9432293F
:104630000C940E23E92FE295EF70F0E03297EE3004
:10464000F105B0F4EA55FF4F0C94EF37803F91F03D
:1046500018F4803E68F40EC0843F51F40BC0803ED5
:1046600048F0813F29F406C093FB882780F908951C
:1046700080E0089581E008950E948D280E941A2309
:104680000895CF93DF9300D000D01F92CDB7DEB74F
:104690000F900F900F900F900F90DF91CF91089592
:1046A000CF93DF9300D000D000D0CDB7DEB72696F1
:1046B0000FB6F894DEBF0FBECDBFDF91CF91089546
:1046C0001F93CF93DF93C0911C0416E080911D04CB
:1046D000C81799F0D0E01C9FF0011D9FF00D112428
:1046E000E25EFB4F408151816281738184819581BB
:1046F0000E9450232196C770E9CFDF91CF911F917F
:10470000089540914E0450914F046091500470916F
:10471000510480915204909153040C945023809141
:10472000530482958F7009F054C0809150048823FF
:1047300009F44FC080911C04A0911D0460914E04A7
:1047400070914F044091510450915204B6E08A1781
:1047500009F43FC090E041155105C1F17F3F11F4CC
:104760006F3FA1F1B89FF001B99FF00D1124E25EF7
:10477000FB4F218172132AC02081621327C022813E
:10478000211124C0238134812417350710F42150CE
:104790003109241B350B283C3105C0F4209153040A
:1047A0002F7020612093530426E0289FF001299F59
:1047B000F00D1124ED5DFB4F80818F70806180834F
:1047C0008EE494E00E94D5220C94602301968770B9
:1047D000BECF0895CF92DF92EF92FF920F931F9377
:1047E000CF93DF93CDB7DEB762970FB6F894DEBFF5
:1047F0000FBECDBF8C0185E0F801DE011D96019052
:104800000D928A95E1F7D8014C9111965C91119720
:1048100012966C9112971396CD90DC90149730916C
:104820004E0470914F04809151049091520400976E
:1048300009F46BC17F3F19F43F3F09F466C1E09072
:104840005004EE2009F4C0C020915304C816D906C4
:1048500028F0F601E81BF90BCF0104C08095909574
:104860008C0D9D1DFF24F394883C910578F0F12C6C
:10487000207F09F0C6C07C2DD98AC88A89890E9408
:1048800041238EE494E00E94D522B1C0822F807F24
:1048900009F046C0751314C0341312C0611110C062
:1048A0002F702061209353040E9481238EE494E0B2
:1048B0000E94D52280915304D80115968C932EC066
:1048C000CD2819F15F3F11F44F3FF9F0F62E611139
:1048D0001CC080911C0420911D0436E0821709F44D
:1048E0005AC090E0389FF001399FF00D1124E25E2C
:1048F000FB4F7181571306C07081471303C072814B
:10490000711103C001968770E9CFF62E662309F472
:1049100027C180915304816080935304F12C20C1FE
:10492000751308C0341306C0611104C0809153048C
:10493000D801C3C04D875E878D859E856A8B0E9496
:104940003C236A898823E1F16623D1F12091530445
:10495000822F82958F7090E0029774F080914E04C0
:1049600090914F0498878F831986DB86CA862C879F
:10497000CE0107960E94D52286E0F801AEE4B4E0AD
:1049800001900D928A95E1F70E948F230E94812366
:10499000FF24F394E5C04D875E878D859E850E9438
:1049A0008D28292F22952F7030E0223031050CF010
:1049B000CBC09F7009F0C5C0805E883008F4D0C0BD
:1049C000C8010E94D522E4CFC816D90608F453C006
:1049D000F601E81BF90BCF01883C910508F450C0A3
:1049E000F12C7C2DD98AC88A89890E944123EEE462
:1049F000F4E086E0DF011D928A95E9F70E948123A9
:104A0000AFC0751314C0341312C0611110C080916F
:104A10005304F8018583C8010E94D52286E0EEE4A4
:104A2000F4E0DF011D928A95E9F7FE2C99C04D87CD
:104A30005E878D859E856A8B0E943C236A898823C8
:104A400009F4BECF662309F4BBCF20915304822F13
:104A500082958F7090E002970CF48ECF80914E0477
:104A600090914F049A8389831B82DD82CC822E83AE
:104A7000CE0101967FCF809590958C0D9D1DACCF7A
:104A8000F62E662309F49CCF75132EC034132CC068
:104A90002091530420FD1FC0822F82958F70D9F082
:104AA000D80115962C9315978F3049F08F5F982F6A
:104AB0009295907F822F8F70892B15968C93C801C9
:104AC0000E94D52286E0F801AEE4B4E001900D9298
:104AD0008A95E1F793CF86E0F801AEE4B4E0019067
:104AE0000D928A95E1F73CC04D875E878D859E8546
:104AF0000E943C23811140CF8091530481608093B8
:104B00005304C8010E94D5222BC0662309F458CF54
:104B10004D875E878D859E850E943C23F82E8823D5
:104B200009F44ECF86E0F801AEE4B4E001900D92B6
:104B30008A95E1F78EE494E00E94691E0E948F231B
:104B40005DCF811139CF0CC0243031050CF038CF46
:104B50009F7009F431CFF8019581907F09F02CCF37
:104B60008F2D62960FB6F894DEBF0FBECDBFDF91DA
:104B7000CF911F910F91FF90EF90DF90CF9008950C
:104B80001F93CF93DF93CDB7DEB72C970FB6F89472
:104B9000DEBF0FBECDBF4F83588769877A878B876B
:104BA0009C87CE0107960E94EA23882369F08F81B3
:104BB00098852A853B85232BF1F19F3F09F063C03F
:104BC0008F3F09F060C037C086E0FE013796DE01F6
:104BD000119601900D928A95E1F76F817885EA85AB
:104BE000FB85309741F17F3F11F46F3F21F1209118
:104BF0001D0430E0C90101968770992740911C047B
:104C000050E08417950709F447C069837A83FD83D0
:104C1000EC8396E0929FD001939FB00D1124A25E89
:104C2000BB4FFE01319601900D929A95E1F780936A
:104C30001D040E94602316E080911C0490911D04C5
:104C40008917C1F1189FC0011124825E9B4F0E94F9
:104C5000EA23882379F1E0911C041E9FF0011124BE
:104C6000E25EFB4F40815181628173818481958135
:104C70000E94502380911C0490E001968770992730
:104C800080931C04D9CF4F81588569857A858B859F
:104C90009C850E945023CFCF0E94162310921D04A2
:104CA00010921C04EEE4F4E086E0DF011D928A9588
:104CB000E9F7C1CF2C960FB6F894DEBF0FBECDBF7B
:104CC000DF91CF911F910895EF92FF920F931F9361
:104CD000CF93DF938C01892B09F46CC0F12CEE2467
:104CE000E394E8012196F8018491843740F48430FC
:104CF00008F051C0813081F0823019F15BC08537F6
:104D000009F444C0A8F19CE7980F903708F052C00E
:104D10008F770E94991F41C00E5F1F4FFE01C49103
:104D200080E28C0F883048F4C7708E2D01C0880F48
:104D3000CA95EAF70E94452914C08C2F0E947B1E59
:104D40002DC00E5F1F4FFE01C49180E28C0F883092
:104D500058F4C7708E2D01C0880FCA95EAF70E94DB
:104D60004B290E94EC281AC08C2F0E94991F16C054
:104D70000E5F1F4FFE01C491CC2381F08FE99FE0AD
:104D80000197F1F700C00000C150F6CF0E5F1F4F32
:104D9000FE01F49003C00E947B1E8E018F2D88239C
:104DA00009F49FCFEFE9FFE03197F1F700C0000071
:104DB0008150F5CFDF91CF911F910F91FF90EF9030
:104DC000089508950C94E1260E94E22660938F04D2
:104DD0007093900480939104909392040C94FC221D
:104DE00008950C94E4260F931F9300918F04109163
:104DF00090042091910430919204602B712B822BAE
:104E0000932B1F910F910C94E4260F931F93009105
:104E10008F041091900420919104309192046023AA
:104E20007123822393231F910F910C94E4260F93F7
:104E30001F9300918F041091900420919104309160
:104E4000920460277127822793271F910F910C945A
:104E5000E4260C94D2090E94292760938B04709356
:104E60008C0480938D0490938E040C94FC2260E05B
:104E700070E0CB010C942B270F931F9341E050E07F
:104E800060E070E08A019B0104C0000F111F221F27
:104E9000331F8A95D2F7C901B8011F910F910C9465
:104EA0002B270F931F9341E050E060E070E004C0B7
:104EB000440F551F661F771F8A95D2F780918B0488
:104EC00090918C04A0918D04B0918E048A019B0175
:104ED000082B192B2A2B3B2BC901B8011F910F91CD
:104EE0000C942B270F931F9341E050E060E070E09B
:104EF00004C0440F551F661F771F8A95D2F740954F
:104F000050956095709580918B0490918C04A09140
:104F10008D04B0918E048A019B01082319232A2352
:104F20003B23C901B8011F910F910C942B270F93BC
:104F30001F9341E050E060E070E004C0440F551F53
:104F4000661F771F8A95D2F780918B0490918C040D
:104F5000A0918D04B0918E048A019B010827192726
:104F60002A273B27C901B8011F910F910C942B27C9
:104F70000F931F9300918B0410918C0420918D044A
:104F800030918E04602B712B822B932B1F910F91EC
:104F90000C942B270F931F9300918B0410918C047A
:104FA00020918D0430918E046023712382239323FA
:104FB0001F910F910C942B270F931F9300918B043B
:104FC00010918C0420918D0430918E0460277127FC
:104FD000822793271F910F910C942B270895292F37
:104FE000220F920F990F890FA82FA695A695A69527
:104FF000877051E001C0550F8A95EAF785E0A89FB8
:10500000D001112420E030E070E0F901EA0FFB1F2D
:10501000EC5AFB4F4081CB01022E02C0969587953A
:105020000A94E2F781709927819584278523842744
:1050300080832F5F3F4F2530310539F70895292FA1
:10504000220F920F990F890F682F669566956695C6
:10505000982F977085E0689FB001112440E050E0E0
:1050600080E0FA01E60FF71FEC5AFB4F208130E099
:10507000092E02C0369527950A94E2F7217033274E
:10508000042E01C0220F0A94EAF7822B4F5F5F4F74
:105090004530510531F70895BF92CF92DF92EF92DC
:1050A000FF920F931F93CF93DF938C01C0908F04D7
:1050B000D0909004E0909104F090920480918B0441
:1050C00090918C04A0918D04B0918E04C82AD92AA5
:1050D000EA2AFB2ACFE1D0E0D701C6010C2E04C09A
:1050E000B695A795979587950A94D2F780FF07C044
:1050F000BC2EB8018C2F0E945C0D019719F42197EA
:1051000058F7B12C8B2DDF91CF911F910F91FF900C
:10511000EF90DF90CF90BF900895CF93DF93EC0195
:105120000E944C28BE010E945C0DDF91CF91089532
:105130001F93CF93DF93EB0190911904992321F0F2
:10514000CB010E948D2813C0882349F0CB010E9417
:105150004C28182F682FCE010E94EF2704C0CB01E6
:105160000E941F28182FBE01812F0E945C0DDF9125
:10517000CF911F910895809193048595859585958C
:105180000895809193048770089598E0899F900115
:105190001124262B209393040C94512720919304DF
:1051A0008095822380939304982F977069F430E060
:1051B000482F082E000C550B2417350729F085952C
:1051C000859585950C947227089590919304977016
:1051D00081E009F480E00895E0910801F09109016F
:1051E0008091B7048083E0910801F09109019081DA
:1051F0008091B604892B8083E0910801F091090128
:1052000090818091B504892B8083809194048823B8
:1052100081F0E0910801F09109019081892B808350
:1052200080910801909109010E941E2A811110921B
:10523000940480910801909109010C94DA1C8091EA
:10524000B70408959091B704892B8093B70408950B
:1052500080959091B70489238093B7040895809333
:10526000B70408951092B70408959091B604892B5D
:105270008093B604089580959091B6048923809315
:10528000B60408951092B60408959091B504892B40
:105290008093B504089580959091B50489238093F7
:1052A000B50408951092B504089580939404089568
:1052B000109294040895809194040895CF92DF92FF
:1052C000EF92FF926C01EE24FF24C114D104E1049B
:1052D000F10421F0C701B60120E101C020E0C72E92
:1052E000D82EE92EFF24C114D104E104F10419F0F1
:1052F000285FC701B6016B017C0154E0F694E79486
:10530000D794C7945A95D1F7C114D104E104F1049C
:1053100019F02C5FC701B6016B017C0142E0F694E5
:10532000E794D794C7944A95D1F7C114D104E10406
:10533000F10419F02E5FC701B601DC01CB01B6956F
:10534000A79597958795892B8A2B8B2B09F02F5F33
:10535000822FFF90EF90DF90CF90089580E090E053
:105360000E945F3821E08D3E9E4F09F020E0822FA1
:10537000089582E090E00C94513883E090E00C9422
:10538000513884E090E00C945138682F84E090E02C
:105390000C946538AB01BC018FE090E00C94773839
:1053A000AB01BC0183E190E00C94773860E070E0E1
:1053B000CB010C94D02960E070E0CB010E94CA2997
:1053C0000C94D6296DEE7EEF80E090E00E94833849
:1053D00060E082E090E00E94653860E083E090E069
:1053E0000E94653810928F041092900410929104DC
:1053F0001092920460E084E090E00E94653860E0E2
:1054000085E090E00E94653860E086E090E00E94D0
:1054100065386FEF87E090E00E94653840E050E02B
:10542000BA0188E090E00E94773860E08DE090E07B
:105430000E9465380C94DB290C94E229FC01329619
:1054400080911901882331F080915B0687FF02C0AB
:105450009EE101C096E080E0915028F02191222346
:10546000D9F38F5FF9CF08959C01FC0132969FEF2D
:1054700080E04191461789F09F3F19F4411101C026
:10548000982F8F5F8630A9F79F3F39F0F901E90F18
:10549000F11D97FDFA95628308950895FC013296F7
:1054A00008962081261301C010823196E817F9076B
:1054B000C1F70895262F2695269526952E3168F456
:1054C000FC01E20FF11D677021E030E001C0220F06
:1054D0006A95EAF78281282B22830895262F269544
:1054E000269526952E3170F4FC01E20FF11D6770B0
:1054F00021E030E001C0220F6A95EAF72095828111
:1055000028232283089520911901222329F0209134
:105510005B0627FD0C945A2A0C94342A2091190119
:10552000222329F020915B0627FD0C946E2A0C940F
:105530004E2A20911901FC013296222331F08091EC
:105540005B0687FF02C08EE101C086E0DF011D928D
:105550008A95E9F7089508950C94AB2A0E94AC2A25
:1055600080916106843049F11092B90420E488E109
:1055700090E00FB6F894A895809360000FBE20933A
:10558000600080E00E94950A0E94AC2A83B7817F68
:10559000846083BF83B7816083BF7894889583B725
:1055A0008E7F83BF0FB6F894A895809160008861C4
:1055B00080936000109260000FBE08950895CF930D
:1055C0000E9405070E94AE070E94DE2AC0E08C2FD1
:1055D0000E94F607811104C0CF5FCE30C1F701C031
:1055E00081E0CF91089508950C94F32A0E94162328
:1055F0000E94CE1C0E94950A0C94F42A1F920F92CE
:105600000FB60F9211248F939F93AF93BF93809106
:10561000B904811113C08091570690915806A0914A
:105620005906B0915A064196A11DB11D80935706A7
:1056300090935806A0935906B0935A06BF91AF9124
:105640009F918F910F900FBE0F901F90189582E041
:1056500084BD93E095BD9AEF97BD80936E00089549
:105660002FB7F8948091570690915806A09159064B
:10567000B0915A062FBF0895CF92DF92EF92FF921A
:105680000F931F932FB7F8944091570650915806E7
:105690006091590670915A062FBF6A017B01EE2472
:1056A000FF248C0120E030E0C016D106E206F306AC
:1056B00010F4415051099A01281B390BC9011F915F
:1056C0000F91FF90EF90DF90CF90089578941F9204
:1056D0000F920FB60F9211248F939F93AF93BF93A6
:1056E0008091570690915806A0915906B0915A069C
:1056F0000196A11DB11D8093570690935806A09363
:105700005906B0935A06BF91AF919F918F910F9018
:105710000FBE0F901F901895F89481E08093E000E1
:1057200080E28093D800E9ECF0E010828FE19EE403
:105730000197F1F700C000001DBA109268001CBC70
:1057400010BE1FBA10927A0010926E0010926F0075
:1057500010927100109272001082ECEBF0E0108257
:1057600014B817B81AB81DB810BA108215B818B8FE
:105770001BB81EB811BA0C94003F08950E94AE29C0
:10578000811102C00E941C2A0E94B9298093B8048A
:105790000E94C12990E090935C0680935B060E9472
:1057A000BD29682F70E080E090E00C94F126809194
:1057B000BD0480FF0BC060910D0185E0689FB001C2
:1057C000112475956795759567952BC081FF09C064
:1057D00060910D0185E0689FB00111247595679572
:1057E00020C082FF07C060910D0185E0689FB00175
:1057F000112417C09091BE049923D1F060910C013F
:10580000961788F720910D0185E0289F90011124BB
:10581000929FA001939F500D112470E0CA010E9435
:10582000DB376038710540F46115710539F002C04D
:1058300065E070E0862F08958FE7089581E0089570
:105840008091BD0480FF08C060910B0170E07595E8
:1058500067957595679521C081FF06C060910B0122
:1058600070E07595679519C082FF04C060910B01C7
:1058700070E010C09091BE049923C1F060910A01BC
:105880009617A0F780910B01899FC001112470E049
:105890000E94DB376038710528F46115710521F02D
:1058A000862F08958FE7089581E0089561E070E004
:1058B000F4CF803F21F40E94D72B819504C0813F13
:1058C00029F40E94D72B8093C2040895823F21F4CB
:1058D0000E94D72B819504C0833F29F40E94D72BC7
:1058E0008093C1040895893F19F40E94202C05C0BB
:1058F0008A3F31F40E94202C81958093C30408953F
:105900008B3F21F40E94202C819504C08C3F29F408
:105910000E94202C8093C4040895843F21F4809138
:10592000C004816017C0853F21F48091C00482606B
:1059300011C0863F21F48091C00484600BC0873F72
:1059400021F48091C004886005C0883F31F48091C3
:10595000C00480618093C00408958D3F21F480913C
:10596000BD0481600BC08E3F21F48091BD04826034
:1059700005C08F3F29F48091BD0484608093BD04ED
:105980000895803F39F48091C20487FF6CC0109263
:10599000C20469C0813F29F48091C2041816BCF387
:1059A00062C09091C104823F29F497FF5CC01092BD
:1059B000C10459C0833F19F41916CCF354C0893F70
:1059C00041F48091C30418160CF04DC01092C3042A
:1059D0004AC08A3F29F48091C30487FF44C0F6CFB0
:1059E0008B3F39F48091C40487FF3DC01092C404FA
:1059F0003AC08C3F29F48091C4041816BCF333C01C
:105A0000843F21F48091C0048E7F17C0853F21F42C
:105A10008091C0048D7F11C0863F21F48091C00425
:105A20008B7F0BC0873F21F48091C004877F05C026
:105A3000883F31F48091C0048F7E8093C00413C0EE
:105A40008D3F21F48091BD048E7F0BC08E3F21F4E9
:105A50008091BD048D7F05C08F3F29F48091BD04E6
:105A60008B7F8093BD048091C10481110EC0809111
:105A7000C20481110AC08091C304811106C08091C3
:105A8000C404811102C01092BE0408958FEB94E00B
:105A90000E94F41C0E94302B9093BB048093BA04A4
:105AA00008951F93CF93DF938091BA049091BB0424
:105AB0000E943C2BAC019091BE04992321F02091CF
:105AC0000E0130E006C02091BC048AE0289F9001BE
:105AD00011244217530708F47BC08091C104C09180
