:100000000C9425060C9442060C9442060C9442066D
:100010000C9442060C9442060C9442060C94420640
:100020000C9442060C9442060C9477340C94493597
:100030000C94F22E0C9442060C9442060C94420648
:100040000C9442060C9442060C9442060C94420610
:100050000C9442060C94922F0C9442060C94420687
:100060000C9442060C9442060C9442060C944206F0
:100070000C9442060C9442060C9442060C944206E0
:100080000C9442060C9442060C9442060C944206D0
:100090000C9442060C9442060C9442060C944206C0
:1000A0000C9442060C9442060C94420698069B0659
:1000B0009E06A106A406A706AA065B0B630B6C0BA3
:1000C000790B880BB20BCC0BEC0B630B6C0B790B25
:1000D000880BB20BCC0B190C1E0C280C1C0C210C21
:1000E000260C240C7C0D7E0D890D800D820D840D57
:1000F000860D880D8B0D8D0D8F0D9A0D910D930D25
:10010000950D970D990D9C0DD21CF11CF61CFB1C36
:10011000001D051D0A1D0F1D141D191D1E1D231D6B
:10012000281D2D1D321D371D3C1D411D461DB024AF
:10013000B024E224E224192566266626662639259F
:100140006626E625E6255626662666265F26F325DC
:10015000F325F325F325F325F325F325F325F325DF
:10016000F325F325F325F325F325F325F3250426BD
:10017000112618261F262926ED26ED26FF26FF2606
:10018000F626FF26FF26FF26ED26ED26FB26FF2678
:10019000FF26FB26B635DD35CF36DD35CF362936A1
:1001A0004C36CF36A236B1366572676F646F785FB2
:1001B000657A2F616C6563672040204E4100000026
:1001C000F0A100000000000000000000000000009E
:1001D000000000000000000000000000000000001F
:1001E000000000000000000000000000000000000F
:1001F00000000000000000000000000000000000FF
:1002000000000000000000000000000000000000EE
:1002100000000000000000000000000000000000DE
:1002200000000000000000000000000000000000CE
:1002300000000000000000000000000000000000BE
:1002400000000000000000000000000000000000AE
:1002500000009AFFFF9AFFFF9AFFFF9AFFFF9AFFA5
:10026000FF9AFFFF9AFFFF9AFFFF9AFFFF9AFFFF97
:100270009AFFFF9AFFFF9AFFFF9AFFFF9AFFFF9AEC
:10028000FFFFCDFFFF9AFFFF9AFFFF9AFFFF9AFF44
:10029000FF9AFFFF9AFFFF9AFFFF9AFFFF9AFFFF67
:1002A0009AFFFF9AFFFF9AFFFF9AFFFF9AFFFF9ABC
:1002B000FFFF00CCFF9AFFFF9AFFFF9AFFFF00CCE1
:1002C000FF00CCFF00CCFF9AFFFF9AFFFF9AFFFFD1
:1002D0009AFFFF9AFFFF9AFFFF9AFFFF9AFFFF9A8C
:1002E000FFFF69FFFF69FFFF69FFFF69FFFF69FF0C
:1002F000FF69FFFF69FFFF69FFFF69FFFF69FFFFFC
:1003000069FFFF69FFFF69FFFF69FFFF69FFFF6981
:10031000FFFF69FFFF69FFFF69FFFF69FFFF000043
:100320000000000000000000000069FFFF69FFFFFF
:1003300069FFFF69FFFF69FFFF0000000000000088
:1003400000000000000000000000009AFFFFF9E438
:10035000FF9AFFFF00000000000000000000000006
:10036000000000000000000000000000000000008D
:1003700000000000000000000EFFFF0EFFFF0EFF58
:10038000FF69FFFF23FFFF23FFFF23FFFF0EFFFF98
:1003900069FFFF23FFFF23FFFF23FFFF000000F99A
:1003A000E4FF23FFFF23FFFF23FFFF69FFFF0000A0
:1003B0000023FFFF23FFFF000000000000000000FB
:1003C000000000000000000000000000000000230A
:1003D000FFFF00000000000000000023FFFF23FFDC
:1003E000FF23FFFF000000000000000000000000ED
:1003F00000000000000023FFFF23FFFF00000000BB
:1004000000000000000000000000000000000000EC
:1004100000000000000000FA9FFF00000000000044
:10042000000000FA9FFFFA9FFFFA9FFF0000000004
:1004300000000000000000000000000000000000BC
:1004400000000000000000000000000000000000AC
:100450000000000000000000000000000000000E8E
:10046000FFFF00000000000000000069FFFF0EFF1A
:10047000FF69FFFF00000000000000000000000016
:10048000000000000000000000000000000000006C
:10049000000000000000000000000000000000005C
:1004A0000000000086FFD586FFD586FFD50000003E
:1004B00000000086FFD586FFD586FFD5000000002E
:1004C000000086FFD555CB9E86FFD50000000000BA
:1004D000000AE1FF00000000000000000000000032
:1004E000000000000000000000000000000000000C
:1004F00000000000000000000000000000000000FC
:1005000000000000000000000000000000000000EB
:1005100000000000000000000000000000000000DB
:10052000000029002B002A00E100350000001E0019
:10053000140004001D003400F75C1F001A001500B1
:100540001B00010002512000090016000600E20015
:100550002C002100130017001900E000C35C2200EA
:100560000A000700050000006500035101000000BB
:1005700005510000E30001530100000000070000E6
:10058000E70023000D000B000E0000004C002400CB
:100590000F00110010000451F65C2500180008003F
:1005A00036000100280026001C000C003700010066
:1005B000000427003300120038000100F55C2D0014
:1005C00031003400E50001000000010001000100DD
:1005D0000100010000001E00140004001D000100C5
:1005E000F25C1F001A0016001B0001000100200031
:1005F00008000700060001000100210015000900A5
:1006000019000100C35C220017000A000500000069
:1006100001000100100000000100000001000100C5
:100620000100000001000000010023001C000B007D
:10063000110000000100240018000D00100001004E
:10064000C55C25000C000E003600010001002600EC
:1006500012000F00370001000100270013003300D3
:1006600038000100C65C010001000100010001002A
:1006700000000100010001000100010000003A003B
:100680000100010001000100CA5C3B0001001507E8
:100690000100010001003C000100160701000100FB
:1006A00001003D000100170701000100C95C3E0088
:1006B0000100010001000000010001000000000035
:1006C0000100000001000100010000000100000025
:1006D000C25C3F002502210222020000F25C4000C1
:1006E0002F0226022F000100F35C41003002270296
:1006F00030000100C55C42002D0256001F020100BF
:10070000C65C43002E022E0020020100F45C44006F
:10071000450001000100010000000100010001008E
:1007200001000100000001000100010001000100C2
:10073000010001000100F2000100010001000100C0
:10074000F000F1000100F400010001000100F300DD
:100750000100F5000100010001000100010000009E
:100760000100010001000000010000000100010083
:10077000010000000100000001000100A900AA0022
:10078000A800000001000100240021001E0001005B
:1007900001005400250022001F0062000C005500DB
:1007A00026002300200063000100560057000000CF
:1007B00058000100010001000100010001000100DA
:1007C0000000010001000100010001000000010023
:1007D00000000000000001000100000000004A00CD
:1007E00000000100010000004B004E00000001006D
:1007F0000100000000004D000000010001000100A8
:1008000000000000000000000100010001000000E5
:1008100001000000010001000100000001000000D3
:1008200001000100000000000000000001000000C5
:1008300000005000000001000100000052005100C3
:10084000000001000100000000004F000000010056
:100850000100010000000000000001000100010093
:100860000100010001000100000001000100010081
:100870000100010000000100010001000100010071
:100880000100010001000100010001000100010060
:100890000100010001000100010001000100010050
:1008A0000100010001000100010001000100000041
:1008B0000100010001000000010000000100010032
:1008C0000100000001000000010001000100010022
:1008D0000100000001000100240721071E0701009C
:1008E00001000100250722071F072707010001005B
:1008F0002607230720070100010001000100010075
:1009000001000100010001000100010001000100DF
:10091000000000000000000000002A2B280000005A
:10092000000000000000000000000000002900009E
:1009300000002C1E3420212224342627252E362D7B
:100940003738271E1F202122232425263333362E15
:1009500037381F0405060708090A0B0C0D0E0F1087
:100960001112131415161718191A1B1C1D2F3130CC
:10097000232D350405060708090A0B0C0D0E0F1070
:100980001112131415161718191A1B1C1D2F3130AC
:10099000354C0000000000000000000000000000D6
:1009A0000000000000000000000000000000000047
:1009B000000000010101010101000101010100002D
:1009C0000000000000000000000000000100010025
:1009D0000101010101010101010101010101010107
:1009E00001010101010101010101010101000000FA
:1009F00001010000000000000000000000000000F5
:100A000000000000000000000000000000010101E3
:100A100001000000000000010101010101010101CC
:100A2000020202020202020202030303030303039F
:100A3000030404040404040505050505060606066A
:100A40000607070707080808080909090A0A0A0A21
:100A50000B0B0B0C0C0C0D0D0D0E0E0F0F0F1010C1
:100A60001111111212131314141515161617171845
:100A70001819191A1A1B1C1C1D1D1E1F1F202021AE
:100A800022222324252526272728292A2B2B2C2DF3
:100A90002E2F2F30313233343536363738393A3B12
:100AA0003C3D3E3F4041424344464748494A4B4C07
:100AB0004D4F50515253555657585A5B5C5E5F60CC
:100AC0006263646667696A6C6D6E70717374767860
:100AD000797B7C7E8081838486888A8B8D8F9192BE
:100AE0009496989A9B9D9FA1A3A5A7A9ABADAFB1E2
:100AF000B3B5B7B9BBBDBFC1C4C6C8CACCCFD1D3CB
:100B0000D6D8DADCDFE1E4E6E8EBEDF0F2F5F7FA6F
:100B1000FCFF04033000000016034500720067006C
:100B20006F0044006F007800200045005A0000006C
:100B300016034500720067006F0044006F007800E4
:100B4000200045005A0000000403090409023B008C
:100B5000020100A0FA0904000001030101000921BB
:100B6000110100012240000705810308000A090461
:100B700001000103000000092111010001227100A0
:100B80000705820320000A1201100100000008ED91
:100B9000FE071301000102030105010980A101857F
:100BA000031601002603001A81002A8300751095A0
:100BB000018100C0050C0901A10185041601002670
:100BC0009C021A01002A9C02751095018100C00543
:100BD000010906A1018505050719E029E71500258A
:100BE000019508750181020508190129059505750A
:100BF0000191029501750391010507190029EF156F
:100C000000250195F075018102C005010906A101C9
:100C1000050719E029E715002501950875018102EE
:100C200095017508810105081901290595057501CA
:100C300091029501750391010507190029FF15001F
:100C400026FF00950675088100C011241FBECFEF56
:100C5000DAE0DEBFCDBF12E0A0E0B1E0E2EFF6E700
:100C600002C005900D92A43BB107D9F726E0A4EB92
:100C7000B2E001C01D92A036B207E1F70E949B319D
:100C80000C94773B0C94000080B38C7080BB81B3D4
:100C9000836F81BB089584B1807F84B985B1807FE3
:100CA00085B98AB1837F8AB98BB1837F8BB93E982E
:100CB00046980895CF93E82F873080F580910A01F8
:100CC00090910B01892B09F047C0CE2F64E670E0AC
:100CD00080E40E94CA2090930B0180930A01892B23
:100CE000D1F464E670E082E10E94212190930B012F
:100CF00080930A01892B79F481E090E001C0880F8C
:100D0000CA95EAF764E670E080950E9421219093ED
:100D10000B0180930A01CF910C949D2190E0FC017E
:100D20003797E730F105C0F4EA5AFF4F0C94533976
:100D3000209A289811C0219A29980EC0229A2A98A0
:100D40000BC0239A2B9808C0529A5A9805C0539A00
:100D50005B9802C03E9A4698CF910895CF93873012
:100D600008F03FC080910A0190910B01892B09F096
:100D700041C064E670E080E40E94CA2090930B01B9
:100D800080930A01892B11F0C0E027C064E670E06F
:100D900083E10E94212190930B0180930A01892B0A
:100DA00099F764E670E081E40E94CA2090930B01F9
:100DB00080930A01892B41F784E690E00E9451213B
:100DC00097FF05C090930B0180930A01DDCFC82FD8
:100DD000C09510920B0110920A010E949D218C2F48
:100DE0000AC09FB18FB1807F869586959370892BBD
:100DF000809501C080E0CF910895089508950C94E6
:100E0000FE060E940A0890E090930B0180930A016D
:100E10000E944B060E944406A3ECB2E0E5EBF2E030
:100E20008EE08E0F11921D928E13FCCF8EE00E94E9
:100E3000F6110C94C90C0E940A0890E090930B01E3
:100E400080930A010E944B060E944406E5EBF2E003
:100E50008EE08E0F11928E13FDCF0895CF92DF9208
:100E6000EF92FF920F931F93CF93DF9380910A012C
:100E700090910B01892B91F08091B4028F5F809348
:100E8000B40281110BC00E940A0890E090930B01FC
:100E900080930A01892B11F40E949C0793ECE92EA0
:100EA00092E0F92E0AEC12E0C0E0D12C87E0C82EC7
:100EB000CC0E8C2F0E945A068C2D0E945A068C2F25
:100EC0000E94AE06F7019081981719F08083D1E057
:100ED00001C0D0E08C2D0E94AE06F80190819817D9
:100EE00019F0808381E001C080E0D82BDD2A0E94C8
:100EF0004B06CF5FFFEFEF1AFF0A0F5F1F4FC730A0
:100F0000A9F62D2D4EE065EB72E083EC92E00E9495
:100F100056120E94D50C81E0DF91CF911F910F9165
:100F2000FF90EF90DF90CF900895E82FF0E0EB5422
:100F3000FD4F80810895089556985E9825982D98C4
:100F400026982E9827982F988FEF90E090938900FD
:100F50008093880090938B0080938A0090938D00FB
:100F600080938C00259A2D9A2FEF80E792E02150F4
:100F700080409040E1F700C00000269A2E9A2FEFA3
:100F800080E792E0215080409040E1F700C00000EF
:100F9000279A2F9A2FEF80E792E0215080409040CF
:100FA000E1F700C0000025982D982FEF80E792E030
:100FB000215080409040E1F700C0000026982E9814
:100FC0002FEF80E792E0215080409040E1F700C091
:100FD000000027982F9856985E9825982D98269867
:100FE0002E9827982F98089589EA8093800089E0A9
:100FF0008093810024982C983F988AB18F7C8AB97D
:101000006E98479A8BB180638BB9769A0E949C0741
:101010000C94FD0680E290E090930B0180930A010E
:101020008091D10281110EC00E94C42081E0809382
:10103000D1022FEF83ED90E3215080409040E1F703
:1010400000C0000064E670E080E40E94CA20909333
:101050000B0180930A01892B09F04EC064E670E011
:1010600080E00E94212190930B0180930A01892B3B
:1010700009F042C064E670E080E00E942121909374
:101080000B0180930A01892BB9F564E670E08FE3C8
:101090000E94212190930B0180930A01892B61F515
:1010A0000E949D2164E670E080E40E94CA20909333
:1010B0000B0180930A01892BF9F464E670E08CE05F
:1010C0000E94212190930B0180930A01892BA1F4A6
:1010D00064E670E080E00E94212190930B018093F0
:1010E0000A01892B49F464E670E08FE30E94212114
:1010F00090930B0180930A010E949D2180910A0127
:1011000008958530C8F46A30B8F4843049F49CEF0F
:10111000960F923088F0653010F46F5F01C0615017
:10112000982F990F990F890F653018F4845E861BEC
:1011300008958550860F08958FEF0895DF92EF92FE
:10114000FF920F931F93CF93DF93CDB7DEB728970E
:101150000FB6F894DEBF0FBECDBF40910D05509184
:101160000E052091DD042695269580E090E0429FB3
:10117000812D529F800D911D1124182F40E060E0B9
:1011800080E00E94771B60E082E00E9481088983F2
:1011900061E082E00E9481088A8362E082E00E942E
:1011A00081088B8363E082E00E9481088C8366E083
:1011B00082E00E9481088D8367E082E00E948108BE
:1011C0008E8368E082E00E9481088F8369E082E07C
:1011D0000E9481088887CE0101967C0100E0F7011A
:1011E000D1907F01602F611B70EA8FEF0E9448133E
:1011F000472F282F8D2D90E00E946A140E5E003933
:1012000071F728960FB6F894DEBF0FBECDBFDF9101
:10121000CF911F910F91FF90EF90DF900895AF92C3
:10122000BF92DF92EF92FF920F931F93CF93DF93C2
:101230001F92CDB7DEB740910D0550910E0520915C
:10124000DD042695269580E090E0429F812D529FF7
:10125000800D911D1124382FA4EDB2E040E0242F21
:10126000230F822F26FD8095E82FEF738F7026FDC8
:101270008F5FE295EF70EE0FF0E0E456FD4F918145
:10128000989F802D912D112482958F709295907F3B
:10129000892B9081890F27FD819580588D934C5E15
:1012A000483CE9F6F12C6F2D70E080E090E00E9460
:1012B000113820E030E040E85EE30E949F3820E0F3
:1012C00030E04FE753E40E949F380E94E237A62E99
:1012D000B12C04ED12E0E12CF80181918F01B501F0
:1012E000681B710977FF03C07195619571096536B7
:1012F0007105E4F470E080E090E00E94113820E095
:1013000030E048EC52E40E9470379B01AC0160E091
:1013100070E080E89FE30E94033720E030E04FE771
:1013200053E40E949F380E94E23701C060E0962F8C
:10133000623308F492E36E2D8F2D99830E94810809
:10134000D82E60E070E09981892F0E944813472FC2
:10135000282F8D2D90E00E946A14E394FAE0EF129A
:10136000BBCFF39485E0F8129ECF0F90DF91CF9121
:101370001F910F91FF90EF90DF90BF90AF90089575
:10138000FC0131814081ECE1F1E080E090E02081DE
:10139000522F52955F702F70321316C0451314C030
:1013A000880F991F880F991FFC01EE51FD4F809106
:1013B0000D0590910E05A0910F05B0911005808349
:1013C0009183A283B3830895019634968033910567
:1013D000F1F60895CF92DF92EF92FF920F931F9351
:1013E000CF93DF9302EE12E0C0E0D0E0F801C190AD
:1013F000D190E190F1908F0180910D0590910E05B3
:10140000A0910F05B09110058C199D09AE09BF0977
:10141000893BFBE09F07A105B10520F460E07FEF69
:101420008FEF30C06C017D0129EBC21A2BE0D20A8C
:10143000E108F108E8EBCE16EBE0DE06E104F1048A
:1014400030F5BC01CD01685B7B40810991090E94A8
:10145000113820E030E84BE355E40E9470379B01DF
:10146000AC0160E070E080E89FE30E94033720E079
:1014700030E04FE753E40E949F380E94E237862F06
:1014800060E07FEF0E944813472F282F03C020E021
:1014900040E060E0CE010E946A142196C033D1057D
:1014A00009F0A4CFDF91CF911F910F91FF90EF90A2
:1014B000DF90CF900895AF92BF92CF92DF92EF92DC
:1014C000FF920F931F93CF93DF93EC0181E00E9473
:1014D000911E80E98C9F70018D9FF00C1124C0E05B
:1014E000D0E000E010E0670182E0C80ED11C570197
:1014F0008FEFA81AB80AF601EC0FFD1FEE53FE4F4E
:101500008491FE01EE0DFF1DEE53FE4F6491F50137
:10151000EC0FFD1FEE53FE4F7491882319F080915C
:10152000DC0401C080E00E944813472F282FC80127
:101530000E946A140F5F1F4F239600331105D9F6DE
:10154000DF91CF911F910F91FF90EF90DF90CF909F
:10155000BF90AF9008958091DE049091DF040E94C7
:101560003C2F9093D3028093D2020E94242F909319
:10157000DF048093DE048091DF029091E002009707
:1015800071F08130910511F40C94EA0982309105D3
:1015900011F40C949E08039711F40C940F0908950C
:1015A0008091E10281115FC060918704709188048D
:1015B0008091890490918A040E94462D823009F41A
:1015C00045C028F4882359F08130E9F1089584302A
:1015D00009F442C0F0F1853009F441C0089580E17A
:1015E00090E00E94153B6093D9047093DA048093D5
:1015F000DB049093DC048091DF029091E002892B60
:10160000A1F48091D904869586950E94911E8091BF
:10161000D9048C7F843039F18091DA044091DC0464
:101620006091DB0490E00C94AA1E81E00E94911E60
:101630008091DE02882321F01092DE0281E001C059
:1016400080E00C94AB0A81E090E00BC082E090E077
:1016500008C083E090E005C084E090E002C085E02F
:1016600090E00C945B0A0895611108C0FC0182812E
:10167000882321F088EA91E00E94C60C80E090E087
:101680000895EF92FF920F931F93CF937B01FB017D
:10169000C2818C01015F1C45CC2309F49FC0CB01A2
:1016A0000E94C0090730110508F0A2C0F801E35AF2
:1016B000FF4F0C945339F7018281882309F48CC0C1
:1016C0000E94102E89C0F7018281882309F484C00A
:1016D00081E00E94811E80C0F7018281882309F485
:1016E0007BC081E00E94811E4FEF64E985EC90E0B1
:1016F0000CC0F7018281882309F46EC081E00E944A
:10170000811E4FEF69E787E890E00E949F1E64C04A
:10171000F7018281882309F45FC080E190E00E9494
:10172000153B6093D9047093DA048093DB049093A3
:10173000DC040E94932C82729091DA04882311F0C9
:10174000985001C0985F9093DA044091D904509169
:10175000DA046091DB047091DC0480E190E00E9487
:10176000333B3AC0F70182818823B1F180E190E0F8
:101770000E94153B6093D9047093DA048093DB04D4
:101780009093DC040E94932C827219F00E94731EC5
:1017900023C00E94651E20C0F70182818823E1F0EA
:1017A0008091DF029091E00201969093E002809395
:1017B000DF0281E08093DE020E94242F9093DF04F9
:1017C0008093DE048091DF029091E002049720F084
:1017D0001092E0021092DF02C0E00AC0073011054B
:1017E00010F0C1E005C0F801EC59FF4F0C945339DB
:1017F0008C2FCF911F910F91FF90EF900895CF9272
:10180000DF92EF92FF926B017C010E94462D569869
:101810005E9825982D9826982E9827982F9890E0D6
:10182000FC013197E730F105A8F4E559FF4F0C941E
:101830005339259A2D9A0EC0259A2D9A269A2E9ABA
:1018400009C0259A2D9A04C0259A2D9A269A2E9A77
:10185000279A2F9AC701B601FF90EF90DF90CF90A3
:10186000089581E008950C94410B1F93CF93DF936B
:1018700000D000D01F92CDB7DEB749835A832091A4
:10188000170489819A81211112C0662349F00E94B0
:10189000132C182F682F89819A810E94B62B03C0C0
:1018A0000E94E62B182F69817A81812F04C00E9443
:1018B000132C69817A810F900F900F900F900F90E9
:1018C000DF91CF911F910C94850FFC0140815181D4
:1018D0006281738184810C94350CCF93282F30E082
:1018E000F901EE5EF64FC491F901EE56F64F2491E0
:1018F000222359F081EE0E94F0228C2F0E94F022C8
:101900008C2F0E94072481EE04C08C2F0E94F022AD
:101910008C2FCF910C9407240F931F93CF93DF93B9
:10192000EC01062FFE018491882359F19E012F5F5F
:101930003F4F813041F4E901F9011491812F0E9458
:10194000F022812F0DC0823031F4E901F901849138
:101950000E94F0220AC0833031F4E901F901849138
:101960000E94072402C00E946D0C2196802F8823BC
:10197000C9F2EFE9FFE03197F1F700C000008150B4
:10198000F6CFDF91CF911F910F91089560E00C94F5
:101990008C0C0E94962D811102C00E94102E0E9474
:1019A000831D0E9494120C94F4070E941D1C0C9439
:1019B000FF06282F2F7041F0822F90E02A3010F47C
:1019C0004D9608950697089587E290E0089508954A
:1019D0000C94E70C0C94E80C08950E94DD260E94FC
:1019E000EC0C2FEF84E39CE0215080409040E1F725
:1019F00000C000000C94B82F0F931F93CF93DF9378
:101A00008C010E94650CEC01B8010E947C1B8823AC
:101A100009F474C2B801CE010E94330C882309F482
:101A20006DC2B801CE010E941313882309F466C267
:101A3000CC3CFCE5DF0741F4F8018281882309F4FE
:101A40005DC20E94731E5AC2CD3C8CE5D80708F0D7
:101A50001DC1C43C9CE5D90761F4F801828188234B
:101A600009F44CC20E94932C8272E1F40E94F91D89
:101A700045C2C53CECE5DE0708F0C6C0C531FCE553
:101A8000DF0798F0C23CFCE5DF0709F48BC008F4DF
:101A900091C0F8018281882309F430C20E94932CFE
:101AA000827221F70E94DB1D29C2C2308CE5D80763
:101AB00008F452C0F8018281882309F459C00E94B9
:101AC000962D811102C00E94102E0E94A92D90E037
:101AD00090934E0680934D06FE01E350FC45E231A3
:101AE000F10530F4EE58FF4F80914D060C945339B8
:101AF00080914D06816027C0826025C0846023C02C
:101B0000806121C080621FC080641DC080681BC0CE
:101B10008460886018C08E7F16C08D7F14C08B7F54
:101B200012C08F7E10C08F7D0EC08F7B0CC08F7750
:101B30000AC08B7F877F07C087FB222720F991E0AF
:101B4000922790FB87F980934D0680914D060E9465
:101B5000AD2D0E94DD26D2C1C1159CE5D90779F0D3
:101B6000C130DC45A1F081E08093A7038093A803F6
:101B7000C801DF91CF911F910F910C94310CF801A6
:101B80008281882309F4BAC10E94ED0CB7C1F80123
:101B90008281882309F4B2C18091B404816080936A
:101BA000B404ACC1F8018281882309F4A7C10E9462
:101BB000C41DA4C1C631DC45B1F60E94932C282F68
:101BC000F801828140910F0150911001882379F032
:101BD0002A7A91E009F490E09093A203911102C057
:101BE00069E201C065E3CA010E94772E0AC08091B4
:101BF000A203811102C069E201C065E3CA010E942B
:101C0000822E0E94E22C7AC1F8018281C83CFCE558
:101C1000DF0731F4882309F471C10E943B1E6EC1B5
:101C2000C93C9CE5D907C8F4C63CECE5DE0731F4B5
:101C3000882309F463C10E94221E60C1C73CDC45B1
:101C400030F4882309F45AC10E94171E57C1882313
:101C500009F454C10E942D1E51C1CA3C9CE5D9070C
:101C600031F4882309F44AC10E94571E47C1CB3C76
:101C7000DC4530F4882309F441C10E94491E3EC16D
:101C8000882309F43BC10E94651E38C1C43DFCE5B0
:101C9000DF0791F4F8018281882309F42FC10E94A3
:101CA0009A1E893128F00E949A1E823208F4FACED8
:101CB00089E10E94811E22C1C53D8CE5D80708F04C
:101CC00068C0F8018281C03DFCE5DF0771F488231C
:101CD00009F414C10E949A1E893028F00E949A1EAD
:101CE0008E3008F4DFCE89E0E4CFC13D9CE5D90712
:101CF00040F5CE3CECE5DE0771F4882309F4FEC024
:101D00000E949A1E823028F00E949A1E853008F4A4
:101D1000C9CE82E0CECFCF3CDC4528F4882309F43D
:101D2000EDC081E0C6CF882309F4E8C00E949A1E66
:101D3000863028F00E949A1E883008F4B3CE86E0E0
:101D4000B8CFC23D9CE5D90771F4882309F4D6C009
:101D50000E949A1E853128F00E949A1E873108F44D
:101D6000A1CE85E1A6CFC33DDC4570F4882309F4FC
:101D7000C5C00E949A1E8F3028F00E949A1E84319E
:101D800008F490CE8FE095CF882309F4B7C088E19E
:101D900090CFC93DFCE5DF0759F5F8018281882322
:101DA00061F01092A8030E94242F9093A6038093C1
:101DB000A50380E20E946E24A1C08091A80388231D
:101DC00021F080E20E94752499C08091A503909132
:101DD000A6030E943C2F883C910598F780E20E9460
:101DE000752488E20E94F02288E20E94072486C0BF
:101DF000CA3D8CE5D80708F060C0C73D9CE5D9070F
:101E000061F5F8018281882351F01092A7030E94A6
:101E1000242F9093A4038093A30382E0CBCF0E944E
:101E2000932C85FF05C081E08093A7038093A803CE
:101E30008091A70381110FC08091A3039091A40307
:101E40000E943C2F883C910530F486E20E94F022EB
:101E500086E20E94072482E0B5CFC83DECE5DE07AC
:101E600010F1F801828181119CCF0E94932C81FF97
:101E700005C081E08093A7038093A8038091A80305
:101E800081119FCF8091A5039091A6030E943C2FC2
:101E9000883C910508F095CF87E20E94F02287E206
:101EA0000E9407248ECFC53DDC4509F05CCEF801C9
:101EB0008281882319F183E2FCCECD3D8CE5D807E1
:101EC00041F4F80182818823C9F082E00E943A320D
:101ED00015C0CE3D9CE5D90739F4F80182818823ED
:101EE00069F00E94102E0AC0CC3DDC4509F03BCEC3
:101EF000F8018281882311F080E0E8CF80E0DF9153
:101F0000CF911F910F910895089596E0799FF00168
:101F1000112494E5899FE00DF11D1124E60FF11DB8
:101F2000EE0FFF1FEE5DFA4F859194910895880F93
:101F3000991FFC01E254FE4F859194910895CF932F
:101F4000DF930E94850F0E945611EC01811520E558
:101F50009207F0F5811530E4930708F024C1883E1C
:101F6000910500F5803E910508F09CC1883A9105E5
:101F700070F4853A910508F09FC08130910509F40D
:101F800091C108F442C1049708F08CC13EC18F3B57
:101F9000910508F49CC0803C910508F436C1805C32
:101FA0009109F4C0811540E2940758F4C11581E00D
:101FB000D80708F077C1C03FD10508F426C1D06525
:101FC00071C1811520E3920708F0E4C09F70DEC064
:101FD000811535E5930708F044C0811544E5940761
:101FE00008F0F8C0C11582E5D80708F5C11521E54C
:101FF000D20708F0DBC08C2F837021E030E002C0F4
:10200000220F331F8A95E2F73C68CE0174E0969563
:1020100087957A95E1F78370382BCF70C695C69572
:1020200080E2C89FE0011124C22BD32B3BC12C2F8F
:1020300026952695CE0183709927C115D34508F0C2
:10204000BAC040E2249F90011124C1E0D0E002C058
:10205000CC0FDD1F8A95E2F72C2B3D2BE901DC68C4
:1020600021C1811549E59407A0F4C11588E5D80779
:1020700008F0B5C0C11526E5D20708F0C6C08C2F00
:102080000E94D3118F71C82FD0E0DC2FCC27D062F3
:1020900009C181153AE5930708F4A6C09056811549
:1020A000904208F0B2C08D2F8F710E94D311DD27AE
:1020B000D0628F71D82BF6C0853A910509F4A8C07B
:1020C000863A910509F0A7C0C2E8D0E4EBC0883A8F
:1020D000910509F4A3C0893A910509F4A2C08A3A8E
:1020E000910509F4A1C08B3A910509F4A0C08C3A7E
:1020F000910509F49FC08B3B910509F49EC08C3B70
:10210000910509F49DC08D3A910509F49CC0803B6E
:10211000910509F49BC08E3A910509F49AC08F3A53
:10212000910509F499C0813B910509F498C0823B5F
:10213000910509F497C0833B910509F496C0843B4F
:10214000910509F495C0853B910509F494C0863B3F
:10215000910509F493C0873B910509F492C0883B2F
:10216000910509F491C0893B910509F490C08D3B1C
:10217000910509F48FC08E3B910509F48EC08A3B0E
:10218000910509F48DC0C0E0D4E48CC00E94970F83
:10219000EC0188C09927D3FF03C0EC01D86C82C042
:1021A000EC01D06C7FC0DF70D06A7CC0DC2FCC2704
:1021B000C16FD06A77C040E2249F90011124C1E032
:1021C000D0E002C0CC0FDD1F8A95E2F7C22BD32BE3
:1021D000DA6868C0D82FCC27C46FD06A63C0DC2F00
:1021E000CC27C06FD06A5EC08F700E94D31194E07C
:1021F000D695C7959A95E1F7CF70D0E0DC2FCC2724
:10220000D06A8F70806EC82B4DC0C0E0D0E04AC04D
:10221000C1E8D0E447C0C3E8D0E444C0C2EED4E48F
:1022200041C0C9EED4E43EC0CAEED4E43BC0C5EB25
:10223000D4E438C0C6EBD4E435C0C3EBD4E432C038
:10224000C4EBD4E42FC0C7EBD4E42CC0CCECD4E472
:1022500029C0CDECD4E426C0C3E8D5E423C0CAE845
:10226000D5E420C0C2E9D5E41DC0C4E9D5E41AC054
:10227000C1E2D6E417C0C3E2D6E414C0C4E2D6E497
:1022800011C0C5E2D6E40EC0C6E2D6E40BC0C7E278
:10229000D6E408C0CFE6D4E405C0C0E7D4E402C069
:1022A000CAE2D6E4CE01DF91CF910895823891053C
:1022B00049F1B0F48133910509F458C048F48932EA
:1022C000910509F44EC08A32910509F454C008956D
:1022D0008533910509F440C08933910599F008953B
:1022E000833E910529F138F4803E910591F0823EBC
:1022F0009105A1F00895863E9105F9F0873E91057C
:1023000031F1089520914D0620FD3AC021FD38C0DD
:10231000089580914D0680FD35C032C080914D06F4
:1023200082FF32C080914D0684FD30C083EE39C0FB
:1023300080914D0682FD28C0F5CF80914D0683FF28
:1023400027C080914D0684FD21C087EE2AC0809170
:102350004D0683FD1DC0F5CF80914D0685FD1AC049
:102360001BC080914D0685FD17C014C080914D069D
:1023700086FD14C015C080914D0686FD11C00EC0AB
:1023800080EE0FC089E30DC082EE0BC080E009C073
:1023900086EE07C089E205C085E303C08AE201C07A
:1023A00081E390E0089590914D0692FF0DC0282F93
:1023B0002871283019F4877F846006C0282F247183
:1023C000243011F48B7F886093FF0DC0282F287173
:1023D000283119F4877E846106C0282F24712431A6
:1023E00011F48B7E886194FD877E0895CF93C82F6A
:1023F00090E00E947B398093A9039093AA03282F31
:10240000FC019BEF8E2F821B8C1710F49193FACF57
:10241000CF9108950F931F93CF93DF934091A9031A
:10242000E42FF091AA03A62FB0E05BEFCAEFD0E053
:102430009E2F941B9817C0F490819B3F99F0292FF1
:1024400030E0691728F08D01021B130B980106C0BC
:102450008E01021B130B98012A0F3B1F2A303105F6
:102460000CF050833196E4CFDF91CF911F910F9103
:102470000895CF93DF933091A903DB01EC01E32FA3
:10248000F091AA038E2F831B841768F48C91999185
:1024900050815B3F21F4891719F0208301C0982FE8
:1024A0009D933196EFCFDF91CF910895EF92FF92F8
:1024B0000F931F93CF93DF9300D0CDB7DEB77C018E
:1024C0008B014A830E94242F6AEF70E00E940C392E
:1024D000282F682F4A81842F29830E940A1229817C
:1024E0004A81B801C7010F900F90DF91CF911F91E2
:1024F0000F91FF90EF900C943912CF93DF938130BE
:1025000020E8920768F0FB012281222349F0EC01C8
:102510000E94AA12CE019F770E94F6120E94DF123B
:1025200081E0DF91CF9108958CE090E00E940D3B17
:1025300090E0A0E0B0E08093E0049093E104A093E9
:10254000E204B093E30408956091E0048CE090E02D
:102550000C94213B0E94932C8093AB030E94A62CE9
:102560008091E004813071F048F08230D9F08430FD
:10257000F9F486EE0E94662488E118C082EE0E947B
:10258000F02216C080EE0E94F02281EE0E94F0221E
:1025900088E10E94662481EE0E94072480EE0E945A
:1025A000072406C082EE0E94F02287E50E9466247E
:1025B0008FE39CE90197F1F700C000000895809136
:1025C000E004813039F040F0823031F0843051F451
:1025D00088E206C08CE204C082EE0E94072402C09A
:1025E0000E9466248091AB030C94A32C0F931F933D
:1025F000CF93DF938C01CCE0D0E0C8010C2E02C059
:10260000969587950A94E2F78F700E94D90C0E94E4
:1026100066242497CC3F8FEFD80779F7DF91CF91CD
:102620001F910F9108950F931F93CF93DF93EC01A8
:102630008B01FB018281882319F1C33EFCE5DF0792
:10264000C1F050F4C13EECE5DE0781F0C23EFCE58E
:10265000DF07B1F481E010C0C43E8CE5D80759F023
:10266000C53EECE5DE0761F484E006C01092E004AC
:1026700005C082E001C083E08093E0040E94A412C0
:10268000B801CE01DF91CF911F910F910C947D1273
:10269000CF92DF92EF92FF920F931F93CF93DF932E
:1026A000E82FF82F711103C0682F782F7EC0062FF6
:1026B00010E0C72FD0E0E82EF12CC8016BE270E0EB
:1026C0000E940C399B0145ED4203B001439F700D00
:1026D0001124060F171F86E0809FB001819F700DA7
:1026E00011244FEF50E0CA018C1B9D0B8E9DD00131
:1026F0008F9DB00D9E9DB00D11248B2F6C9F80017E
:102700006D9F100D7C9F100D1124012F11276A0160
:10271000C01AD10ACE9C8001CF9C100DDE9C100DFA
:1027200011246A01C61AD70ACC9EB001CD9E700D45
:10273000DC9E700D1124672F7727461B570B4E9D8B
:10274000E0014F9DD00D5E9DD00D11247D2F2230D4
:10275000310599F04CF421153105C9F021303105CE
:10276000A1F47E2FE12F13C02330310551F0243026
:10277000310559F4ED2F7B2F06C0EB2F8D2F7F2FC6
:1027800006C0712FEB2F8F2F02C07B2F812FF0E01F
:10279000EE5EF54F6491E72FF0E0EE5EF54F749139
:1027A000E82FF0E0EE5EF54F8491DF91CF911F911D
:1027B0000F91FF90EF90DF90CF900895BC01823091
:1027C000910508F40895613E8EE1780748F49B0175
:1027D00095E0369527959A95E1F748E0420F01C0BC
:1027E0004FEF91E0242F30E0290F311D35952795CB
:1027F000229FF001239FF00DF00D11246E177F072B
:1028000018F44FEF420F05C02F3F310539F091E02A
:10281000920F491738F78FEF890F08958FEF0895BA
:10282000482F982F46FD9095E92FEF739F7046FD36
:102830009F5FE295EF70EE0FF0E0EC55FD4F2181C8
:10284000299F802D212D112482958F702295207F24
:10285000822B3081982F930F892F47FD81958058C7
:10286000089580E190E00C94153BAB01BC0180E140
:1028700090E00C94333BE9EDF4E085E18083118234
:102880008FEF828383838FE784836081718182816C
:1028900093810C943514382FECE1F1E090E080E066
:1028A0002081722F72957F702F70321307C06713CB
:1028B00005C0DA01A80FB11D9C938F5F9F5F903315
:1028C00019F03496883060F30895E091B202F091E7
:1028D000B3020994E091AE02F091AF020994FF9225
:1028E0000F931F93CF93DF9300D0CDB7DEB7FC01DA
:1028F0008081F82EFF0C8F2D880F880FF80E3AE09C
:102900003F0D313308F030E36091DA047091DB045D
:102910008091DC043A830E944813162F082F3A81D5
:10292000F31660F4202F472F612F8F2D90E03A830C
:1029300079830E946A14F3947981F1CF81E0303376
:1029400008F080E00F900F90DF91CF911F910F91D1
:10295000FF900895AF92BF92CF92DF92EF92FF92D5
:102960000F931F93CF93DF93FC01C081CC0F8C2F6B
:10297000880F880FC80FDAE0DC0FD13308F0D0E3FE
:10298000A090DB04B090DC0420910D0530910E0581
:102990008091DD048695869500E010E0289F012D4A
:1029A000389F000D111D112480E4800F0E94101427
:1029B00010E8180F802F0E9410148058012F110F5B
:1029C000110BE82E880FFF08CD17B0F5CC2ED12CB7
:1029D000F601EE0FFF1FEE0FFF1FE35EFE4F81813A
:1029E00090E08097809FB001819F700D909F700D47
:1029F0001124408150E0405751094E9D90014F9D58
:102A0000300D5E9D300D1124620F731F77FF02C0E1
:102A100061587F4F660F672F661F770B8091DA042E
:102A2000680F7A2D8B2D0E944813472F282FC6013F
:102A30000E946A14CF5FC8CF81E0D03308F080E0F5
:102A4000DF91CF911F910F91FF90EF90DF90CF908A
:102A5000BF90AF900895DF92EF92FF920F931F9374
:102A6000CF93DF93FC01C081CC0F8C2F880F880F90
:102A7000C80FDAE0DC0FD13308F0D0E30091DB04BB
:102A8000D090DC042091DD0410E4129F112D11245C
:102A9000CD17E0F4EC2EF12CF701EE0FFF1FEE0F37
:102AA000FF1FE35EFE4F918192959F706091DA0463
:102AB000199F600D1124702F8D2D0E944813472FF0
:102AC000282FC7010E946A14CF5FE2CF81E0D03384
:102AD00008F080E0DF91CF911F910F91FF90EF9070
:102AE000DF900895DF92EF92FF920F931F93CF93A1
:102AF000DF937C01D090DB04D091DC04C091DA0438
:102B00000C2F10E00E94F43A482F4370C8018C54F7
:102B10009F4F68E671E00E9420399C01201B310B19
:102B200037FF02C02D5F3F4F359527953595279587
:102B30006C2F429F600D11247D2D8D2F0E94481314
:102B4000472F282FC701DF91CF911F910F91FF9041
:102B5000EF90DF900C946A14EF92FF921F93CF9343
:102B6000DF93FC01C281C11122C02091DD0430E15C
:102B7000230F08F42FEF40910D0550910E0580E0D2
:102B800090E0429F812D529F800D911D11246AE09B
:102B900070E00E940C39892B29F50E94F43A68E113
:102BA00070E00E94203948960E9472151BC0FC01FB
:102BB000C081CC0F8C2F880F880FC80F1AE01C0F14
:102BC000113308F010E3D0E0E12EF12CCE15DF0533
:102BD0002CF4CE010E9472152196F8CFC1E010337B
:102BE00008F0C0E08C2FDF91CF911F91FF90EF9004
:102BF0000895FF920F931F93CF93DF93FC01C08141
:102C0000CC0F8C2F880F880FC80F1AE01C0F1133C0
:102C100008F010E30091DB04F090DC0420910D0536
:102C200030910E059091DD049695969560E070E0E8
:102C3000299F612D399F600D711D1124D62FC11759
:102C400068F46D2F702F8F2D0E944813472F282F67
:102C50008C2F90E00E946A14CF5FF1CF81E0103397
:102C600008F080E0DF91CF911F910F91FF900895C0
:102C7000DF92EF92FF920F931F93CF93DF93FC01AC
:102C8000C081CC0F8C2F880F880FC80F1AE01C0F43
:102C9000113308F010E30091DB04D090DC04409184
:102CA0000D0550910E059091DD049695969520E0C6
:102CB00030E0499F212D599F200D311D1124D22F25
:102CC000C117B0F4EC2EF12CF701EE0FFF1FEE0F41
:102CD000FF1FE35EFE4F60816D1B702F8D2D0E94E4
:102CE0004813472F282FC7010E946A14CF5FE8CFEF
:102CF00081E0103308F080E0DF91CF911F910F91B8
:102D0000FF90EF90DF900895DF92EF92FF920F9384
:102D10001F93CF93DF93FC01C081CC0F8C2F880FC2
:102D2000880FC80F1AE01C0F113308F010E3009150
:102D3000DB04D090DC0440910D0550910E0590917C
:102D4000DD049695969520E030E0499F212D599F0E
:102D5000200D311D1124D22FC117B0F4EC2EF12C0F
:102D6000F701EE0FFF1FEE0FFF1FE35EFE4F6181C5
:102D70006D1B702F8D2D0E944813472F282FC701E0
:102D80000E946A14CF5FE8CF81E0103308F080E042
:102D9000DF91CF911F910F91FF90EF90DF900895F9
:102DA000AF92BF92CF92DF92EF92FF920F931F9359
:102DB000CF93DF93FC01C081CC0F8C2F880F880F3D
:102DC000C80FDAE0DC0FD13308F0D0E3A090DB04C9
:102DD000B090DC0420910D0530910E058091DD044A
:102DE00086958695E12CF12C289FE12C389FE00CEC
:102DF000F11C112480E48E0D0E941014082F10E0A5
:102E000000581109000F111F8E2D0E941014E82E7A
:102E1000F12CF0E8EF1AF108EE0CFF1CCD17B0F51D
:102E2000CC2ED12CF601EE0FFF1FEE0FFF1FE35E3D
:102E3000FE4F818190E08097809FB001819F700D4F
:102E4000909F700D1124408150E0405751094E9DD4
:102E500090014F9D300D5E9D300D1124620F731F48
:102E600077FF02C061587F4F660F672F661F770B91
:102E70008091DA04680F7A2D8B2D0E944813472F1A
:102E8000282FC6010E946A14CF5FC8CF81E0D033DB
:102E900008F080E0DF91CF911F910F91FF90EF90AC
:102EA000DF90CF90BF90AF9008956F927F929F92E6
:102EB000AF92BF92CF92DF92EF92FF920F931F9348
:102EC000CF93DF931F92CDB7DEB7FC019080990CB2
:102ED000892D880F880F980E5AE0590D513308F04C
:102EE00050E3B090DB04A090DC0420910D053091FC
:102EF0000E058091DD048695869500E010E0289F00
:102F0000012D389F000D111D112480E4800F59837D
:102F10000E94101490E09C01205831093901660C80
:102F2000771C620E731E802F0E94101490E0805850
:102F300091098C01000F111F080F191F68E3E62E7D
:102F4000F12C5981951608F03DC0C92CD12CF60101
:102F5000EE0FFF1FEE0FFF1FE35EFE4F818190E03B
:102F60008097869DB001879D700D969D700D1124F0
:102F70009081905797FD91959701291B310997FDF5
:102F80003395C901809F9001819F300D909F300D36
:102F90001124620F731F77FF02C061587F4F660FC5
:102FA000672F661F770B8091DA04680F7B2D8A2DBF
:102FB00059830E944813472F282FC6010E946A1484
:102FC0009394BFCF81E0503308F080E00F90DF9101
:102FD000CF911F910F91FF90EF90DF90CF90BF9016
:102FE000AF909F907F906F900895CF92DF92EF9275
:102FF000FF920F931F93CF93DF931F92CDB7DEB74E
:10300000FC018081D82EDD0C8D2D880F880FD80E05
:103010005AE05D0D513308F050E3F090DB04E0908E
:10302000DC0460910D0570910E058091DD0486959C
:10303000869520E030E0689F212D789F200D311D7E
:103040001124C22ED51600F50D2D10E0F801EE0F5B
:10305000FF1FEE0FFF1FE35EFE4F608191819052D4
:1030600097FD91952091DA04620F6C19690F7F2DFD
:103070008E2D59830E944813472F282FC8010E9484
:103080006A14D3945981DECF81E0503308F080E098
:103090000F90DF91CF911F910F91FF90EF90DF90F4
:1030A000CF9008950F931F93CF93DF931F92CDB7C7
:1030B000DEB78C010E94F43A89830E94F43A782F9B
:1030C00069818091DC040E944813472F282FC80192
:1030D0000F90DF91CF911F910F910C946A14EF9292
:1030E000FF921F93CF93DF93FC01C281C11122C0D5
:1030F0002091DD0430E1230F08F42FEF40910D05FE
:1031000050910E0580E090E0429F812D529F800DEE
:10311000911D112465E070E00E940C39892B29F57E
:103120000E94F43A68E170E00E94203948960E94BB
:1031300052181BC0FC01C081CC0F8C2F880F880F48
:10314000C80F1AE01C0F113308F010E3D0E0E12E95
:10315000F12CCE15DF052CF4CE010E9452182196D9
:10316000F8CFC1E0103308F0C0E08C2FDF91CF9191
:103170001F91FF90EF900895AF92BF92CF92DF9290
:10318000EF92FF920F931F93CF93DF93FC01C081C7
:10319000CC0F8C2F880F880FC80FDAE0DC0FD133EB
:1031A00008F0D0E3B090DA04A090DB042091DD04B5
:1031B00030E040E050E06FEF7FEF80E090E00E9471
:1031C0003439890185EFE82E84E0F82EC12CD12C0A
:1031D000CD1708F034C08091E404A4EEB4E0E5EF2C
:1031E000F4E09E2F9E19981760F491919C1307C0EC
:1031F00059962D913C915A972017310718F0129645
:10320000F0CF98014091DD04C601249F812D349FA9
:10321000800D911D11242091DC048095382F329F60
:10322000312D1124832F6B2D7A2D0E944813472FA7
:10323000282F8C2F90E00E946A14CF5FC9CF81E0C5
:10324000D03308F080E0DF91CF911F910F91FF9074
:10325000EF90DF90CF90BF90AF900895AF92BF9264
:10326000CF92DF92EF92FF920F931F93CF93DF9352
:10327000FC01C081CC0F8C2F880F880FC80FDAE0BB
:10328000DC0FD13308F0D0E3B090DC042091DD04F2
:1032900030E040E050E06FEF7FEF80E090E00E9490
:1032A0003439890185EFE82E84E0F82EC12CD12C29
:1032B00092E8A92ECD1708F033C02091E404A4EEC3
:1032C000B4E0E5EFF4E08E2F8E19821760F481915F
:1032D0008C1307C059968D919C915A97801791072E
:1032E00018F01296F0CFC8014091DD049601849F3A
:1032F000212D949F200D311D11249091DA046A2D07
:10330000621B08F460E0690F7FEF8B2D0E94481369
:10331000472F282F8C2F90E00E946A14CF5FCACFCE
:1033200081E0D03308F080E0DF91CF911F910F91C1
:10333000FF90EF90DF90CF90BF90AF9008952F92C5
:103340003F924F925F926F927F928F929F92AF9235
:10335000BF92CF92DF92EF92FF920F931F93CF9382
:10336000DF9300D01F92CDB7DEB7782E660F262EE2
:10337000220C220C260E3AE0320D3B83313310F042
:1033800050E35B834090DB043090E404812C912C6B
:103390003B81231608F068C06091DA04A22CB12C9E
:1033A000F501EE0FFF1FEE0FFF1FE35EFE4FE08003
:1033B000C1805090DD04672C70E0F12CD12C631497
:1033C00008F041C0062D10E0F801EC51FB4F81815F
:1033D000A701481B510981859601281B3109449F8B
:1033E000F001459FF00DF00D1124229FC001239F95
:1033F000900D900D11248E0F9F1F6A8379830E9478
:10340000DE13000F111FF801EC51FB4F418D528D5F
:103410009401459D212D559D200D311D1124A9019B
:10342000481B5109CA016A8179814F3F510519F042
:1034300010F08FEF90E0680F282F2095720F08F49E
:103440007FEF6394BCCF2091DC04572F529F512D06
:103450001124852F742D0E944813472F282FC50152
:103460000E946A14239494CF81E0303308F080E006
:103470000F900F900F90DF91CF911F910F91FF90C0
:10348000EF90DF90CF90BF90AF909F908F907F9004
:103490006F905F904F903F902F900895FC01608156
:1034A00080E00C949F192091E40431E0231B08F480
:1034B00020E0FC016081822F0C949F192F923F9293
:1034C0004F925F926F927F928F929F92AF92BF9234
:1034D000CF92DF92EF92FF920F931F93CF93DF93E0
:1034E00000D01F92CDB7DEB7782E660F862F880FDB
:1034F000880F860F8A83865F8B83813310F030E3D9
:103500003B832090DA043090DB045091E40459832B
:10351000812C912C3A815B81351708F067C03A8184
:10352000A32EB12CF501EE0FFF1FEE0FFF1FE35E80
:10353000FE4FE080C1804090DD04572C612CF12CBF
:10354000D12C3981531608F03EC0052D10E0F8014A
:10355000EC51FB4F8181A701481B510981859601E0
:10356000281B3109449FB001459F700D700D112437
:10357000229FC001239F900D900D1124860F971F4D
:103580000E94DE13000F111FF801EC51FB4F418D1B
:10359000528D9401449D212D549D200D311D1124E7
:1035A000A901481B5109CA014F3F510519F010F0FC
:1035B0008FEF90E0282F2095562D520F08F45FEFE3
:1035C000652E5394BECF2091DC04462D429F412DA1
:1035D0001124842FB1010E944813472F282FC501C1
:1035E0000E946A145A815F5F5A8394CF81E05033FE
:1035F00008F080E00F900F900F90DF91CF911F9116
:103600000F91FF90EF90DF90CF90BF90AF909F9081
:103610008F907F906F905F904F903F902F90089584
:10362000FC01608180E00C945E1A2091E40431E09A
:10363000231B08F420E0FC016081822F0C945E1AA9
:10364000FF920F931F93CF93DF9300D0CDB7DEB7D8
:10365000FC018081F82EFF0C8F2D880F880FF80E4B
:103660003AE03F0D313308F030E340910D055091C1
:103670000E052091DD0426952695269580E090E0A4
:10368000429F812D529F800D911D11241091DC04C9
:103690003A830E941014805887FD8195880F282F47
:1036A000219F212D1124822F6091DA047091DB0477
:1036B0000E944813162F082F3A81F31660F4202F2A
:1036C000472F612F8F2D90E03A8379830E946A14EF
:1036D000F3947981F1CF81E0303308F080E00F90EE
:1036E0000F90DF91CF911F910F91FF900895E0917E
:1036F000B002F091B1020994AF92BF92CF92DF92E3
:10370000EF92FF920F931F93CF93DF93CDB7DEB766
:1037100028970FB6F894DEBF0FBECDBFFB018281A4
:103720009E012F5F3F4F7901882379F0A9016081C5
:1037300081810E944B14B82E10921105109212052F
:10374000109213051092140501C0B12CA090AF0384
:103750000B2D10E0C8018A0D911D099764F188E0D6
:1037600090E06C01C01AD10AB80160557C4FA601E7
:1037700080EB93E00E94043BB80168547C4FA601A3
:1037800088EB93E00E94043BA601440F551FB8014B
:10379000660F771F68537C4F88EC93E00E94043BD0
:1037A000B80160547C4FA60180EC93E00E94043B7A
:1037B000AA94A092AF039091AF03D701692F6E191D
:1037C000262F2A0F8A2F8E198B15E8F430E08D9161
:1037D000A90141555C4F74E0879FF00111248F01CE
:1037E000045E1E4FF8017181FA017183F801728144
:1037F000FA017187818B220F331FF901E155FC4FCC
:10380000128E118EDDCF9B0D9093AF0381E0289631
:103810000FB6F894DEBF0FBECDBFDF91CF911F91E1
:103820000F91FF90EF90DF90CF90BF90AF900895F1
:1038300008950E94181C0C94D00ACF92DF92EF9248
:10384000FF920F931F93CF93DF936091D8037091F2
:10385000D9038091DA039091DB030E94662F6B01FC
:103860007C01EB010E94302FAB01BC014093D803D7
:103870005093D9036093DA037093DB0380911105B1
:1038800090911205A0911305B09114058F3F2FEF71
:103890009207A207B207E9F0EE24FF249701860100
:1038A0000095109520953095081719072A073B07B2
:1038B00020F48FEF9FEFDC0104C08C0D9D1DAE1D29
:1038C000BF1D8093110590931205A0931305B0932B
:1038D0001405A091AF03EFEAF3E02A2F30E07E0158
:1038E000E094F0943A1771F0818D928DE816F90604
:1038F00010F4215004C08C0F9D1F928F818F3F5F69
:103900003296F0CF2093AF038091D904982F937013
:1039100021F0D82FD695D69501C0D0E090910C011A
:103920009130E9F038F0923009F4C7C0933009F4CF
:10393000CFC0DFC01092AC0340930D0550930E052D
:1039400060930F057093100589E2EFEAF3E0A4EEAF
:10395000B4E001900D928A95E1F781E0B6C09091B4
:103960000D01D9130EC0837090E020910E0130E05C
:1039700051E040E08217930709F450E0852F942F1F
:1039800002C081E090E0282F21702093AE034D2FDC
:1039900050E04331510508F07EC0FA01EC57FF4F6B
:1039A0000C945339C091AC03892B09F474C0CC0F2B
:1039B0008C2F880F880FC80F1AE01C0F113308F0E6
:1039C00010E3C11748F420E040E060E08C2F90E065
:1039D0000E946A14CF5FF5CF81E0103308F45CC019
:1039E0005AC08CEA93E00E946F1456C08CEA93E0B0
:1039F0000E942B1551C08CEA93E00E94201B4CC002
:103A00008CEA93E00E94F91547C08CEA93E00E948B
:103A1000381642C08CEA93E00E9484163DC08CEABE
:103A200093E00E94F51738C08CEA93E00E94AA1434
:103A300033C08CEA93E00E94D0162EC08CEA93E04B
:103A40000E94551729C08CEA93E00E94AC1524C04F
:103A50008CEA93E00E946F181FC08CEA93E00E94EA
:103A6000BC181AC08CEA93E00E942E1915C08CEA8B
:103A700093E00E94531A10C08CEA93E00E944E1A01
:103A80000BC08CEA93E00E94151B06C08CEA93E001
:103A90000E94101B01C080E09091AC039F5F909347
:103AA000AC03811126C082E080930C018091AE03AB
:103AB00081111FC0DD2341F01CC0D0930D01837024
:103AC00080930E010E94651483E080930C0111C065
:103AD00060910D0570910E0580910F059091100574
:103AE0000E94662F603171058105910510F01092DA
:103AF0000C01DF91CF911F910F91FF90EF90DF901C
:103B0000CF900C94191CE091AC02F091AD02099594
:103B10001092E404EDEFF4E08FEF9FEF8193919327
:103B200025E0ED30F207D1F71092AF03E8ECF3E0B7
:103B30008FEF9FEF8193919323E0E83DF207D1F758
:103B40000E94962D811104C00E94102E0E943B14E9
:103B50000E9431146093D9047093DA048093DB04DB
:103B60009093DC048FE78093DD046C7F61F40E9406
:103B70003B140E9431146093D9047093DA0480934B
:103B8000DB049093DC0408958091D90491E0980FB0
:103B900093708C7F892B8093D904837011F41092D9
:103BA0000C016091D9047091DA048091DB0490914A
:103BB000DC040C9435149091D904892F8695869550
:103BC0008F5F8F739370833120F4880F880F892B58
:103BD00002C0892F84608093D90410920C016091F7
:103BE000D9047091DA048091DB049091DC040C9488
:103BF00035149091D904892F86958695815C8F73B1
:103C00009370882321F0880F880F892B02C0892F99
:103C100088648093D90410920C016091D90470914A
:103C2000DA048091DB049091DC040C943514E9ED06
:103C3000F4E08181885F81836081718182819381D9
:103C40000C943514E9EDF4E0818188508183608122
:103C50007181828193810C943514E9EDF4E0228125
:103C600030E1230F08F42FEF22836081718182817C
:103C700093810C943514E9EDF4E0228130E1231BAB
:103C800008F420E0228360817181828193810C9409
:103C90003514E9EDF4E0238130E1230F08F42FEF30
:103CA000238360817181828193810C943514E9EDC5
:103CB000F4E0238130E1231B08F420E023836081BA
:103CC0007181828193810C943514E9EDF4E02481B3
:103CD00030E1230F08F42FEF24836081718182810A
:103CE00093810C943514E9EDF4E0248130E1231B39
:103CF00008F420E0248360817181828193810C9497
:103D00003514E9EDF4E0880F880F90819370892BCA
:103D1000808310920C0160817181828193810C9467
:103D20003514E9EDF4E0880F880F90819370892BAA
:103D3000808308958091D904869586950895E9ED4C
:103D4000F4E0818362834383608171818281938106
:103D50000C943514E9EDF4E0818362834383089584
:103D600067E784E70C948520CF930E94C42084E702
:103D70000E940A1F87E70E940A1FC0E021E041E07D
:103D800061E08C2F0E949C1FCF5FC033B9F767E7BB
:103D900084E7CF910C949820E5E3F6E060834183BB
:103DA00024E630E042E050E0BF01880F0C94762119
:103DB000EF92FF921F93CF93DF937B01182F110F88
:103DC000C0E0D0E08C2F8C5D8093350620E030E0A1
:103DD000F901EC0FFD1FEE0DFF1D8081F901EB5C79
:103DE000F94F81832F5F3F4F2031310589F724E65A
:103DF00030E041E150E065E376E0812F0E947621DA
:103E00006096C039D105F1F6DF91CF911F91FF90F7
:103E1000EF900895CF93DF93C82F4BE06DEF0E9492
:103E2000CC1E40E06AE08C2F0E94CC1E8FE39CE900
:103E30000197F1F700C0000040E060E08C2F0E9485
:103E4000CC1E40E061E08C2F0E94CC1E40E066E07A
:103E50008C2F0E94CC1E40E06DEF8C2F0E94CC1E58
:103E6000D0E040E06D2F8C2F0E94CC1EDF5FD2315E
:103E7000C1F740E06D2F8C2F0E94CC1EDF5FD43243
:103E8000C1F740E06D2F8C2F0E94CC1EDF5FD43B2A
:103E9000C1F74BE06DEF8C2F0E94CC1E41E06AE031
:103EA0008C2F0E94CC1E40E06DEF8C2FDF91CF91C4
:103EB0000C94CC1E8033910520F5880F991F880F34
:103EC000991FFC01E452FE4F52813381808183703F
:103ED0007181E0E98E9FC00111248B5E9A4FFC0135
:103EE000E70FF11DB4976083FC01E50FF11DB49756
:103EF0004083830F911DFC01B497208381E0809360
:103F000001040895FF920F931F93CF93DF93182F0F
:103F1000062FF42EC0E0D0E02F2D402F612FCE01D0
:103F20000E945A1F2196C033D105B1F7DF91CF917E
:103F30001F910F91FF9008954F925F927F928F9201
:103F40009F92AF92BF92CF92DF92EF92FF920F9328
:103F50001F93CF93DF93362F54E0859FC001112428
:103F6000FC01E452FE4FA081A3707A2E618170E0C3
:103F7000CB0184978C0197FF02C0095F1F4FA3E01C
:103F800015950795AA95E1F7628170E07B0154E2EF
:103F9000E51AF108E701F7FC279673E0D595C79578
:103FA0007A95E1F7638170E04B01E4E28E1A9108A3
:103FB000F40197FC37962F0153E0559447945A9596
:103FC000E1F768E0A62EB12CB5010E9420396C0102
:103FD000C701B5010E9420397C01C401B5010E94CE
:103FE0002039A72DB0E01127DD243323A1F032E1E1
:103FF0003A9FB0013B9F700D1124060F171F03520B
:104000001C4F61E070E001C0660FCA94EAF7F80146
:104010003081632B14C032E13A9FB0013B9F700D99
:104020001124060F171F03521C4F61E070E001C0FE
:10403000660FCA94EAF76095F801308163236083C4
:10404000DD27FF2432E1442391F03A9FA0013B9FFA
:10405000500D1124C40FD51FC352DC4F41E050E076
:1040600001C0440FEA94EAF73881432B12C03A9F0B
:10407000A0013B9F500D1124C40FD51FC352DC4F2C
:1040800041E050E001C0440FEA94EAF740953881DE
:1040900043234883A2015527992792E19A9FF00173
:1040A0009B9FF00D1124E40FF51FE352FC4F2223D8
:1040B00061F021E030E0A90102C0440F551F8A954C
:1040C000E2F7CA019081892B0CC021E030E0A90100
:1040D00002C0440F551F8A95E2F7CA01809590816E
:1040E0008923808381E08093DC03DF91CF911F914E
:1040F0000F91FF90EF90DF90CF90BF90AF909F9087
:104100008F907F905F904F900895CF93909101048E
:10411000992351F0C62F65E175E00E94D81E65EA2B
:1041200075E08C2F0E94D81E10920104CF91089543
:10413000EF92FF920F931F93CF93DF939091DC0345
:104140009923D9F0162F082F8DEDE82E83E0F82E55
:10415000C0E0D0E0F70141917F016C2F802F0E94D9
:10416000CC1EFE01E352FC4F42896C2F812F0E942E
:10417000CC1E2196C231D10569F7DF91CF911F91F5
:104180000F91FF90EF9008951092B9008CE080930A
:10419000B8000895EF92FF920F931F93CF93DF9390
:1041A000182FEB011092BC0084EA8093BC000E949F
:1041B000242F7C019091BC0097FD0EC0CF3F8FEF64
:1041C000D807C1F30E94242F8E199F098C179D07D1
:1041D00088F38EEF9FEF2EC09091B900987F9830B2
:1041E00041F09091B900987F903119F08FEF9FEFD7
:1041F00021C01093BB0084E88093BC000E94242F50
:104200008C019091BC0097FD0CC0CF3F8FEFD80779
:10421000C1F30E94242F801B910B8C179D0788F3FC
:10422000D8CF8091B900887F883111F08034F1F6C1
:1042300080E090E0DF91CF911F910F91FF90EF9080
:1042400008950F931F93CF93DF93EB018093BB00EF
:1042500084E88093BC000E94242F8C019091BC00C4
:1042600097FD0EC0CF3F8FEFD807C1F30E94242FD8
:10427000801B910B8C179D0788F38EEF9FEF0CC06E
:104280002091B900287F81E090E0283211F480E08D
:1042900090E0919581959109DF91CF911F910F91B8
:1042A00008950F931F93CF93DF93EC0184E88093DD
:1042B000BC000E94242F8C019091BC0097FD0EC081
:1042C000CF3F8FEFD807C1F30E94242F801B910BA3
:1042D0008C179D0788F38EEF9FEF03C08091BB0082
:1042E00090E0DF91CF911F910F910895CF92DF92CF
:1042F000EF92FF920F931F93CF93DF936B018A018D
:104300007901B9010E94CA20E6010C0D1D1DC017DC
:10431000D10761F424E92093BC00DF91CF911F9174
:104320000F91FF90EF90DF90CF90089597FDF2CF1F
:10433000B70189910E942121EACF84E98093BC00D2
:10434000089590930704809306040895E09106046D
:10435000F0910704309721F00190F081E02D09944D
:1043600080E00895E0910604F0910704309799F0F9
:1043700020911B01222359F020914D0627FF07C0F1
:10438000DC012C9111962C93119725E02C9302803F
:10439000F381E02D099408952091040430910504DF
:1043A0008217930771F09093050480930404E091C1
:1043B0000604F0910704309721F00680F781E02D84
:1043C0000994089520910204309103048217930701
:1043D00071F09093030480930204E0910604F0913D
:1043E0000704309721F00084F185E02D09940895A9
:1043F00085B7806885BF85B7806885BF08950895B3
:1044000008950C94002208950C9403220E94F82130
:104410000E94FF210C94012281E008950E941B2F2D
:104420000E9401070E94EA2F0C940422CF92DF928F
:10443000EF92FF920F931F93CF93DF93CDB7DEB729
:104440002B970FB6F894DEBF0FBECDBF0E942E078C
:104450000E940C22811111C08FEF89838A831B82F5
:104460000E94242F8160782F9D838C8349815A81FB
:104470006B818D810E94BC2256C089E0C82E84E0E9
:10448000D82E00E010E0E02E802F0E949507F60164
:1044900041916F01F42EF82631F40F5F1F4F0E305B
:1044A000110589F7D9CF9091B40491FF04C08B878F
:1044B0000E949B078B8520E030E04F2D50E0922F2B
:1044C000BA01022E02C0759567950A94E2F760FF63
:1044D00024C02E83EF8221E030E0690102C0CC0CC1
:1044E000DD1C9A95E2F790E08C219D21892B09F43F
:1044F00020E028870E94242F8160782F9A8789875F
:104500004E815F8168858A850E94BC22F801E75F41
:10451000FB4F8081C826C08206C02F5F3F4F2630E8
:10452000310569F6BACF109108040E94A621181728
:10453000A1F00E94A621809308042B960FB6F89450
:10454000DEBF0FBECDBFDF91CF911F910F91FF90C6
:10455000EF90DF90CF900C94EA0C2B960FB6F89466
:10456000DEBF0FBECDBFDF91CF911F910F91FF90A6
:10457000EF90DF90CF900895CF93DF93CDB7DEB764
:104580002B970FB6F894DEBF0FBECDBF4F83588771
:1045900069877A878B87DE01119686E0FD0111928B
:1045A0008A95E9F785E0FE01379601900D928A958C
:1045B000E1F749815A816B817C818D819E810E94C6
:1045C00087292B960FB6F894DEBF0FBECDBFDF91C3
:1045D000CF910895FC01808191810E94542C08950F
:1045E000882309F413C1682F8238C1F40E94A621E0
:1045F00081FD0CC169E380910F01909110010E942F
:10460000772E0E94E22C2FEF81EE94E02150804023
:104610009040E1F700C0000069E319C08338F9F465
:104620000E94A62180FDF2C063E580910F01909168
:1046300010010E94772E0E94E22C2FEF81EE94E071
:10464000215080409040E1F700C0000063E5809178
:104650000F01909110010E94822E0C94E22C84385C
:10466000C1F40E94A62182FDD1C067E480910F01B0
:10467000909110010E94772E0E94E22C2FEF81EE84
:1046800094E0215080409040E1F700C0000067E4D2
:10469000DECF8CEF860F813A38F480910F01909134
:1046A00010010E94772ED9CF80E2860F883048F41F
:1046B000677081E001C0880F6A95EAF70E94962C26
:1046C000CCCF8BE5860F833070F4653A29F0663ADB
:1046D00031F083E890E005C081E890E002C082E814
:1046E00090E00C94CC2188E5860F873108F08EC0CD
:1046F000683A09F445C0693A09F445C06A3A09F4D0
:1047000045C06B3A09F445C06C3A09F445C06B3BAF
:1047100009F445C06C3B09F445C06D3A09F445C045
:10472000603B09F445C06E3A09F445C06F3A09F49C
:1047300045C0613B09F445C0623B09F445C0633B99
:1047400009F445C0643B09F445C0653B09F445C024
:10475000663B09F445C0673B09F445C0683B09F472
:1047600045C0693B09F445C06D3B09F445C06E3B4B
:1047700009F445C06A3B09F445C080E090E044C0BC
:1047800082EE90E041C089EE90E03EC08AEE90E07B
:104790003BC085EB90E038C086EB90E035C083EB02
:1047A00090E032C084EB90E02FC087EB90E02CC00B
:1047B0008CEC90E029C08DEC90E026C083E891E07D
:1047C00023C08AE891E020C082E991E01DC084E91D
:1047D00091E01AC081E292E017C083E292E014C037
:1047E00084E292E011C085E292E00EC086E292E09F
:1047F0000BC087E292E008C08FE690E005C080E73A
:1048000090E002C08AE292E00C94E22108958823AD
:1048100009F45BC0682F823879F40E94A62181FFD9
:1048200054C069E380910F01909110010E94772E8E
:104830000E94E22C69E310C08338B1F40E94A621E3
:1048400080FF43C063E580910F01909110010E94A9
:10485000772E0E94E22C63E580910F019091100168
:104860000E94822E0C94E22C843879F40E94A621B6
:1048700082FF2BC067E480910F01909110010E948C
:10488000772E0E94E22C67E4E7CF8CEF860F813A07
:1048900018F380E2860F883048F4677081E001C029
:1048A000880F6A95EAF70E949C2CDCCF8BE5860F77
:1048B000833020F480E090E00C94CC21685A67317A
:1048C00020F480E090E00C94E2210895CF93C82F6B
:1048D0000E94F0228C2FCF910C940724882321F082
:1048E0000E94962C0C94E22C0895882321F00E94BB
:1048F0009C2C0C94E22C08958F929F92AF92BF92C1
:10490000DF92EF92FF920F931F93CF93DF937C017F
:10491000D62FC72FFC01058102950F70128111114E
:104920000E94B62C0E948C2C882379F0112369F008
:1049300080E28D0F883048F082E00E942D2D0E9489
:104940008C2C91E0D82ED92601C0D12CAC2EA2946B
:104950008FE0A822B12CF501E956FF4F0C94533992
:104960008C2F807FCF70882311F0C295C07F1123D8
:1049700099F0CC2309F485C180E28D0F883010F0C6
:10498000D11104C08C2F0E94962C03C08C2F0E9442
:10499000A92C0E94E22C75C18D2F0E940724CC23E4
:1049A00009F494C180E28D0F883010F0D11104C059
:1049B0008C2F0E949C2C03C08C2F0E94AF2C0E9435
:1049C000E22C84C18C2F807FCF70803211F0C29591
:1049D000C07FDD2319F0D130C9F021C0112371F05F
:1049E000002341F0013031F40E94C92C8C2B0E942D
:1049F000CF2C6CC10E94C92C8C2BFDC0002319F058
:104A0000013009F463C10E94D82C11C0112321F098
:104A1000023008F05BC107C0011158C108C0112362
:104A200021F001112EC18C2FE6C001113BC18C2F4A
:104A3000E8C08C2F86958695837090E0009719F0DA
:104A4000019761F043C1112321F08D2F9C2F9370AA
:104A500002C080E090E00E94CC2148C1112321F0E7
:104A60008D2F9C2F937002C080E090E00E94E22185
:104A70003DC18C2F837009F050C0111133C18D2FAF
:104A8000829586958770880F880F9D2F9F70892E3D
:104A9000912CA12CB12C082E04C0880C991CAA1CA6
:104AA000BB1C0A94D2F7D4FF14C00FE010E020E042
:104AB00030E0B901A80104C0440F551F661F771FDD
:104AC0008A95D2F7CB01BA01609570958095909543
:104AD00003C060E070E0CB01C695C695C370D0E01E
:104AE000C230D10561F0C330D10581F06829792940
:104AF0008A299B29219771F00E94CC2AF3C068294A
:104B000079298A299B290E94DE2AECC00E94CC2A9E
:104B1000C501B4010E94BA2AE5C0112319F08C2FF7
:104B2000817001C08695882309F4DCC08D2F8295A1
:104B300086958770880F880F9D2F9F70892E912CE6
:104B4000A12CB12C082E04C0880C991CAA1CBB1CDB
:104B50000A94D2F7D4FF14C00FE010E020E030E058
:104B6000B901A80104C0440F551F661F771F8A951D
:104B7000D2F7CB01BA01609570958095909503C0EE
:104B800060E070E0CB01C695C695C3704C2F50E035
:104B90004230510569F04330510589F0682979297F
:104BA0008A299B294130510571F00E94912B9AC0AE
:104BB000682979298A299B290E94A32B93C00E94E6
:104BC000912BC501B4010E947F2B8CC08D2F90E0EA
:104BD000FC01E05EF109E531F10508F04EC0E95550
:104BE000FF4F0C945339DF708C2F8F71112331F0EC
:104BF0000E94182B8D2F0E946E2468C00E94392BB2
:104C00008D2F0E94752462C0112339F001115EC0FE
:104C10008C2F8F710E945E2B59C0023008F056C055
:104C2000F7CF112339F08C2F8F710E94182B4EC0B3
:104C30001123C9F38C2F8F710E94392B47C0112388
:104C400029F08C2F8F710E94032B40C00E94FE2AF6
:104C50003DC0112349F0CF718C2F0E94182B63E0C7
:104C60008C2F0E94182D32C081E00E942D2D023021
:104C700068F182E00E942D2D29C0112331F000231C
:104C800091F28D2F0E94F02221C0002399F2D93396
:104C900049F45FEF67EE73E0515060407040E1F718
:104CA00000C000008D2F0E94072410C04C2F4F70B1
:104CB0006D2FC7010E94340B0E942B2A17C04C2F66
:104CC0004F706D2FC7010E94840F10C088E0A81696
:104CD000B10441F05CF0EAE0AE1AB108F2E0AF16C0
:104CE000B10420F40E94A6210E94EA0CDD20E1F02C
:104CF0000E94882C80FD18C0F70112820E94822C2D
:104D00000E94182BC7010E94A0260E94822CDF91CE
:104D1000CF911F910F91FF90EF90DF90BF90AF90D8
:104D20009F908F900C94392BDF91CF911F910F9111
:104D3000FF90EF90DF90BF90AF909F908F9008957D
:104D40000F931F93CF93DF93EC01888199812B817F
:104D50003C81232BB9F09F3F11F48F3F99F0CE0196
:104D60000E94FC0C882371F0688179818A810E94FD
:104D70005F2C8C010E94B52B0E94B72AB801CE018E
:104D80000E947C24DF91CF911F910F9108950E9482
:104D9000B62C0E94C62C0E94E22C80E090E00E947B
:104DA000CC2180E090E00C94E22180910F01909161
:104DB00010010E948D2E0C94C7260E94A62C0C94E4
:104DC000D526E92FE295EF70F0E03297EE30F1054D
:104DD000B0F4E454FF4F0C945339803F91F018F431
:104DE000803E68F40EC0843F51F40BC0803E48F012
:104DF000813F29F406C093FB882780F9089580E05D
:104E0000089581E008950E94542C0E94E12608959F
:104E1000CF93DF9300D000D01F92CDB7DEB70F90B5
:104E20000F900F900F900F90DF91CF910895CF9337
:104E3000DF9300D000D000D0CDB7DEB726960FB6F6
:104E4000F894DEBF0FBECDBFDF91CF9108951F93C1
:104E5000CF93DF93C091180416E080911904C8170E
:104E600099F0D0E01C9FF0011D9FF00D1124E65E2B
:104E7000FB4F4081518162817381848195810E94C1
:104E800017272196C770E9CFDF91CF911F91089521
:104E900040914A0450914B0460914C0470914D0430
:104EA00080914E0490914F040C94172780914F04E9
:104EB00082958F7009F054C080914C04882309F4C6
:104EC0004FC080911804A091190460914A04709118
:104ED0004B0440914D0450914E04B6E08A1709F4FA
:104EE0003FC090E041155105C1F17F3F11F46F3F84
:104EF000A1F1B89FF001B99FF00D1124E65EFB4FC0
:104F0000218172132AC02081621327C022812111BE
:104F100024C0238134812417350710F4215031092E
:104F2000241B350B283C3105C0F420914F042F7011
:104F3000206120934F0426E0289FF001299FF00D67
:104F40001124E15EFB4F80818F70806180838AE451
:104F500094E00E94A0260C94272701968770BECF6C
:104F60000895CF92DF92EF92FF920F931F93CF930A
:104F7000DF93CDB7DEB762970FB6F894DEBF0FBEF2
:104F8000CDBF8C0185E0F801DE011D9601900D92E8
:104F90008A95E1F7D8014C9111965C911197129680
:104FA0006C9112971396CD90DC90149730914A042F
:104FB00070914B0480914D0490914E04009709F438
:104FC0006BC17F3F19F43F3F09F466C1E0904C0488
:104FD000EE2009F4C0C020914F04C816D90628F06D
:104FE000F601E81BF90BCF0104C0809590958C0D5C
:104FF0009D1DFF24F394883C910578F0F12C207FCF
:1050000009F0C6C07C2DD98AC88A89890E940827E0
:105010008AE494E00E94A026B1C0822F807F09F02C
:1050200046C0751314C0341312C0611110C02F7024
:10503000206120934F040E9448278AE494E00E9454
:10504000A02680914F04D80115968C932EC0CD28B0
:1050500019F15F3F11F44F3FF9F0F62E61111CC0BA
:10506000809118042091190436E0821709F45AC07F
:1050700090E0389FF001399FF00D1124E65EFB4F60
:105080007181571306C07081471303C0728171117B
:1050900003C001968770E9CFF62E662309F427C175
:1050A00080914F04816080934F04F12C20C17513CF
:1050B00008C0341306C0611104C080914F04D801A8
:1050C000C3C04D875E878D859E856A8B0E940327AE
:1050D0006A898823E1F16623D1F120914F04822F60
:1050E00082958F7090E0029774F080914A049091BD
:1050F0004B0498878F831986DB86CA862C87CE015E
:1051000007960E94A02686E0F801AAE4B4E0019088
:105110000D928A95E1F70E9456270E944827FF24A6
:10512000F394E5C04D875E878D859E850E94542C43
:10513000292F22952F7030E0223031050CF0CBC0A2
:105140009F7009F0C5C0805E883008F4D0C0C801E7
:105150000E94A026E4CFC816D90608F453C0F60171
:10516000E81BF90BCF01883C910508F450C0F12CE5
:105170007C2DD98AC88A89890E940827EAE4F4E04C
:1051800086E0DF011D928A95E9F70E944827AFC0AB
:10519000751314C0341312C0611110C080914F04F4
:1051A000F8018583C8010E94A02686E0EAE4F4E0C5
:1051B000DF011D928A95E9F7FE2C99C04D875E8725
:1051C0008D859E856A8B0E9403276A89882309F44E
:1051D000BECF662309F4BBCF20914F04822F829566
:1051E0008F7090E002970CF48ECF80914A049091DA
:1051F0004B049A8389831B82DD82CC822E83CE016D
:1052000001967FCF809590958C0D9D1DACCFF62E8D
:10521000662309F49CCF75132EC034132CC0209143
:105220004F0420FD1FC0822F82958F70D9F0D801C6
:1052300015962C9315978F3049F08F5F982F929584
:10524000907F822F8F70892B15968C93C8010E94B6
:10525000A02686E0F801AAE4B4E001900D928A95B8
:10526000E1F793CF86E0F801AAE4B4E001900D9253
:105270008A95E1F73CC04D875E878D859E850E94AB
:105280000327811140CF80914F04816080934F04A8
:10529000C8010E94A0262BC0662309F458CF4D8771
:1052A0005E878D859E850E940327F82E882309F44A
:1052B0004ECF86E0F801AAE4B4E001900D928A9501
:1052C000E1F78AE494E00E94EA220E9456275DCF2B
:1052D000811139CF0CC0243031050CF038CF9F70CC
:1052E00009F431CFF8019581907F09F02CCF8F2DF3
:1052F00062960FB6F894DEBF0FBECDBFDF91CF919F
:105300001F910F91FF90EF90DF90CF9008951F9322
:10531000CF93DF93CDB7DEB72C970FB6F894DEBFEF
:105320000FBECDBF4F83588769877A878B879C874D
:10533000CE0107960E94B127882369F08F81988556
:105340002A853B85232BF1F19F3F09F063C08F3FF6
:1053500009F060C037C086E0FE013796DE01119685
:1053600001900D928A95E1F76F817885EA85FB853A
:10537000309741F17F3F11F46F3F21F120911904E3
:1053800030E0C9010196877099274091180450E0D8
:105390008417950709F447C069837A83FD83EC83FA
:1053A00096E0929FD001939FB00D1124A65EBB4F53
:1053B000FE01319601900D929A95E1F780931904C0
:1053C0000E94272716E080911804909119048917EC
:1053D000C1F1189FC0011124865E9B4F0E94B12726
:1053E000882379F1E09118041E9FF0011124E65EF4
:1053F000FB4F4081518162817381848195810E943C
:1054000017278091180490E0019687709927809360
:105410001804D9CF4F81588569857A858B859C85FD
:105420000E941727CFCF0E94DD26109219041092F8
:105430001804EAE4F4E086E0DF011D928A95E9F7BA
:10544000C1CF2C960FB6F894DEBF0FBECDBFDF9153
:10545000CF911F910895EF92FF920F931F93CF93D7
:10546000DF938C01892B09F46CC0F12CEE24E394BA
:10547000E8012196F8018491843740F4843008F0E3
:1054800051C0813081F0823019F15BC0853709F459
:1054900044C0A8F19CE7980F903708F052C08F776E
:1054A0000E94072441C00E5F1F4FFE01C49180E29D
:1054B0008C0F883048F4C7708E2D01C0880FCA95B4
:1054C000EAF70E94B92C14C08C2F0E94F0222DC044
:1054D0000E5F1F4FFE01C49180E28C0F883058F49C
:1054E000C7708E2D01C0880FCA95EAF70E94BF2CA5
:1054F0000E94E22C1AC08C2F0E94072416C00E5F57
:105500001F4FFE01C491CC2381F08FE99FE00197EA
:10551000F1F700C00000C150F6CF0E5F1F4FFE0133
:10552000F49003C00E94F0228E018F2D882309F48D
:105530009FCFEFE9FFE03197F1F700C00000815005
:10554000F5CFDF91CF911F910F91FF90EF900895CC
:1055500008950C94A82A0E94A92A60938B04709342
:105560008C0480938D0490938E040C94C726089528
:105570000C94AB2A0F931F9300918B0410918C0411
:1055800020918D0430918E04602B712B822B932BF4
:105590001F910F910C94AB2A0F931F9300918B04D2
:1055A00010918C0420918D0430918E04602371231E
:1055B000822393231F910F910C94AB2A0F931F9377
:1055C00000918B0410918C0420918D0430918E04F5
:1055D00060277127822793271F910F910C94AB2A84
:1055E0000C94FF0B0E94F02A609387047093880448
:1055F0008093890490938A040C94C72660E070E03D
:10560000CB010C94F22A0F931F9341E050E060E02D
:1056100070E08A019B0104C0000F111F221F331F7D
:105620008A95D2F7C901B8011F910F910C94F22A03
:105630000F931F9341E050E060E070E004C0440F1E
:10564000551F661F771F8A95D2F780918704909126
:105650008804A0918904B0918A048A019B01082BD7
:10566000192B2A2B3B2BC901B8011F910F910C94C8
:10567000F22A0F931F9341E050E060E070E004C015
:10568000440F551F661F771F8A95D2F74095509596
:10569000609570958091870490918804A091890409
:1056A000B0918A048A019B01082319232A233B23F2
:1056B000C901B8011F910F910C94F22A0F931F9307
:1056C00041E050E060E070E004C0440F551F661FE9
:1056D000771F8A95D2F78091870490918804A091D2
:1056E0008904B0918A048A019B01082719272A2777
:1056F0003B27C901B8011F910F910C94F22A0F9317
:105700001F9300918704109188042091890430919F
:105710008A04602B712B822B932B1F910F910C9479
:10572000F22A0F931F93009187041091880420910F
:10573000890430918A0460237123822393231F916B
:105740000F910C94F22A0F931F93009187041091EC
:1057500088042091890430918A0460277127822768
:1057600093271F910F910C94F22A0895292F220F4D
:10577000920F990F890FA82FA695A695A6958770C9
:1057800051E001C0550F8A95EAF785E0A89FD00146
:10579000112420E030E070E0F901EA0FFB1FE05B2C
:1057A000FB4F4081CB01022E02C0969587950A944B
:1057B000E2F7817099278195842785238427808348
:1057C0002F5F3F4F2530310539F70895292F220FDC
:1057D000920F990F890F682F669566956695982F99
:1057E000977085E0689FB001112440E050E080E0B0
:1057F000FA01E60FF71FE05BFB4F208130E0092E36
:1058000002C0369527950A94E2F721703327042EBB
:1058100001C0220F0A94EAF7822B4F5F5F4F453099
:10582000510531F70895BF92CF92DF92EF92FF9228
:105830000F931F93CF93DF938C01C0908B04D09074
:105840008C04E0908D04F0908E04809187049091F8
:105850008804A0918904B0918A04C82AD92AEA2A26
:10586000FB2ACFE1D0E0D701C6010C2E04C0B695CB
:10587000A795979587950A94D2F780FF07C0BC2E0D
:10588000B8018C2F0E949F0F019719F4219758F7A8
:10589000B12C8B2DDF91CF911F910F91FF90EF9045
:1058A000DF90CF90BF900895CF93DF93EC010E94DB
:1058B000132CBE010E949F0FDF91CF9108951F937B
:1058C000CF93DF93EB0190911704992321F0CB0143
:1058D0000E94542C13C0882349F0CB010E94132C42
:1058E000182F682FCE010E94B62B04C0CB010E9456
:1058F000E62B182FBE01812F0E949F0FDF91CF91C1
:105900001F91089580918F048595859585950895BB
:1059100080918F048770089590918F04977081E033
:1059200009F480E008958091B30408959091B30440
:10593000892B8093B304089580959091B3048923B3
:105940008093B30408958093B30408951092B30430
:1059500008959091B204892B8093B20408958095A4
:105960009091B20489238093B20408951092B204F6
:1059700008959091B104892B8093B1040895809586
:105980009091B10489238093B10408951092B104D9
:10599000089580919004089508950C94CC2C9091D2
:1059A0009004981721F0809390040C94CD2C0895C6
:1059B00080919004882329F01092900480E00C9448
:1059C000CD2C0895E0910F01F09110018091B30466
:1059D0008083E0910F01F091100190818091B204D9
:1059E000892B8083E0910F01F091100190818091CB
:1059F000B104892B808380919004882381F0E09109
:105A00000F01F09110019081892B808380910F010B
:105A1000909110010E94122E81110E94D82C809129
:105A20000F01909110010C94B22108950C94152D42
:105A300098E0899F90011124262B20938F040E94C7
:105A4000182B80918F048595859585950C94162D3E
:105A500010928F0480E00C94162D20918F04809575
:105A6000822380938F04982F977079F430E0482F29
:105A7000082E000C550B2417350739F085958595B0
:105A800085950E94392B0C94282D0895CF92DF9292
:105A9000EF92FF926C01EE24FF24C114D104E104C3
:105AA000F10421F0C701B60120E101C020E0C72EBA
:105AB000D82EE92EFF24C114D104E104F10419F019
:105AC000285FC701B6016B017C0154E0F694E794AE
:105AD000D794C7945A95D1F7C114D104E104F104C5
