:100000000C942D060C944A060C944A060C944A064D
:100010000C944A060C944A060C944A060C944A0620
:100020000C944A060C944A060C9450360C942237D1
:100030000C9403310C944A060C944A060C944A061C
:100040000C944A060C944A060C944A060C944A06F0
:100050000C944A060C946B310C944A060C944A0694
:100060000C944A060C944A060C944A060C944A06D0
:100070000C944A060C944A060C944A060C944A06C0
:100080000C944A060C944A060C944A060C944A06B0
:100090000C944A060C944A060C944A060C944A06A0
:1000A0000C944A060C944A060C944A06A206A5062D
:1000B000A806AB06AE06B106B4068F0F940F980FD4
:1000C000A20FAE0FB40F1710541059106310571031
:1000D0005C1061105F10A711A911B411AB11AD1123
:1000E000AF11B111B311B611B811BA11C511BC11CC
:1000F000BE11C011C211C411C711501E531E561E8D
:10010000591E5C1E5F1E621E651E681E6B1E6E1EE3
:1001100096269626C826C826FF26A4284628A42860
:100120001F27A428CC27CC273D28A428A4289E2814
:10013000D927D927D927D927D927D927D927D927BF
:10014000D927D927D927D927D927D927D927D927AF
:10015000EA27F727FE2705280F282B292B293D29D9
:100160003D2934293D293D293D292B292B29392990
:100170003D293D2939298F37B637A838B637A838F1
:1001800002382538A8387B388A3805A84CCDB2D437
:100190004EB93836A9020C50B9918688083CA6AAF7
:1001A000AA2ABE000000803F6572676F646F785FA7
:1001B000657A2F616C656367204020302E362E32C1
:1001C00036362D332D67333461313164000000F051
:1001D000A10000000000000000000000000000007E
:1001E000000000000000000000000000000000000F
:1001F00000000000000000000000000000000000FF
:1002000000000000000000000000000000000000EE
:1002100000000000000000000000000000000000DE
:1002200000000000000000000000000000000000CE
:1002300000000000000000000000000000000000BE
:1002400000000000000000000000000000000000AE
:10025000000000000000000000000000000000009E
:10026000009AFFFF9AFFFF9AFFFF9AFFFF9AFFFF96
:100270009AFFFF9AFFFF9AFFFF9AFFFF9AFFFF9AEC
:10028000FFFF9AFFFF9AFFFF9AFFFF9AFFFF9AFF77
:10029000FF9AFFFF9AFFFF9AFFFF9AFFFF9AFFFF67
:1002A0009AFFFF9AFFFF9AFFFF9AFFFF9AFFFF9ABC
:1002B000FFFF9AFFFF9AFFFF9AFFFF9AFFFF9AFF47
:1002C000FF00CCFF9AFFFF9AFFFF9AFFFF00CCFFD1
:1002D00000CCFF00CCFF9AFFFF9AFFFF9AFFFF9A26
:1002E000FFFF9AFFFF9AFFFF9AFFFF9AFFFF9AFF17
:1002F000FF69FFFF69FFFF69FFFF69FFFF69FFFFFC
:1003000069FFFF69FFFF69FFFF69FFFF69FFFF6981
:10031000FFFF69FFFF69FFFF69FFFF69FFFF69FFDB
:10032000FF69FFFF69FFFF69FFFF69FFFF00000032
:1003300000000000000000000069FFFF69FFFF6986
:10034000FFFF69FFFF69FFFF000000000000F9E404
:10035000FF000000000000000000F9E4FFF9E4FFE6
:10036000F9E4FF00000000000000000000000000B1
:10037000000000000000000000000000000000007D
:10038000000000000000000EFFFF0EFFFF0EFFFF49
:1003900069FFFF23FFFF23FFFF23FFFF0EFFFF691E
:1003A000FFFF23FFFF23FFFF23FFFF000000F9E40F
:1003B000FF23FFFF23FFFF23FFFF69FFFF00000074
:1003C00023FFFF23FFFF00000000000000000000EB
:1003D000000000000000000000000000000023FFFB
:1003E000FF00000000000000000023FFFF23FFFFCC
:1003F00023FFFF00000000000000000000000000DC
:10040000000000000023FFFF23FFFF0000000000AA
:1004100000000000000000000000000000000000DC
:10042000000000000000FA9FFF0000000000000034
:100430000000FA9FFFFA9FFFFA9FFF0000000000F4
:1004400000000000000000000000000000000000AC
:10045000000000000000000000000000000000009C
:1004600000000000000000000000000000000EFF7F
:10047000FF00000000000000000069FFFF0EFFFF0A
:1004800069FFFF0000000000000000000000000005
:10049000000000000000000000000000000000005C
:1004A000000000000000000000000000000000004C
:1004B00000000086FFD586FFD586FFD5000000002E
:1004C000000086FFD586FFD586FFD500000000001E
:1004D0000086FFD555CB9E86FFD5000000000000AA
:1004E0000AE1FF0000000000000000000000000022
:1004F00000000000000000000000000000000000FC
:1005000000000000000000000000000000000000EB
:1005100000000000000000000000000000000000DB
:1005200000000000000000000000000000000000CB
:100530000029002B002A00E100350000001E0014F5
:100540000004001D003400EC5C1F001A0015001BA5
:100550000001000251200009001600060000042CD2
:10056000002100130017001900E000C35C22000AFC
:1005700000070005000000650003510100000005B0
:10058000510000E30001530100000000070000E7F4
:100590000023000D000B000E0000004C0024000F93
:1005A00000110010000451EA5C2500180008003614
:1005B000000100280026001C000C0037000100008C
:1005C0000427003300120038000100EB5C2D0031DD
:1005D000003400E5000100000001000100010001FD
:1005E00000010000001E00140004001D000100E7CF
:1005F0005C1F001A0016001B00010001002000080B
:100600000007000600010001002100150009001983
:10061000000100C35C220017000A00050000000171
:100620000001001050000001000000010001000165
:1006300000000001000000010023001C000B00115D
:100640000000000100240018000D0010000100C58A
:100650005C25000C000E003600010001002600128F
:10066000000F00370001000100270013003300389D
:10067000000100C65C010001000100010001000052
:10068000000100010058000100010000003A0001D3
:1006900000010001000100CA5C3B000100500001A4
:1006A00000010001003C0052005100010001000166
:1006B000003D0001004F0001000100C95C3E000147
:1006C00000010001000000010001001050000001C5
:1006D000000000010001000100000001000000C254
:1006E0005C3F002202210225020000E75C40002F4F
:1006F0000226022F000100E85C4100300227023090
:10070000000100C55C42002D0256001F020100C618
:100710005C43002E022E0020020100E95C440045EB
:1007200000010001000100000001000100010001C2
:1007300000010000000100010001000100010001B2
:100740000001000100F2000100010001000100F0C1
:1007500000F1000100F400010001000100F30001BC
:1007600000F500010001000100010001000000018E
:100770000001001050000001000000010001000114
:100780000000000100000001000100A900AA00A86B
:1007900000000001000100240021001E00010001F2
:1007A000005400250022001F0062000C00550026A6
:1007B000002300200063000100560057000000588D
:1007C0000001000100010001000100010001000022
:1007D0000001000100010001000100000001000013
:1007E000000000000001000100000000004A0000BD
:1007F000000100010000004B004E0000000100015C
:1008000000000000004D0000000100010001000098
:100810000000000000000001000100105000000175
:1008200000000001000100010000000100000001C3
:1008300000010000000000000000000100000000B6
:1008400000500000000100010000005200510000B3
:100850000001000100000000004F00000001000145
:100860000001000000000000000100010001000183
:100870000001000100010000000100010001000171
:100880000001000000010001000100010001000161
:100890000001000100010001000100010001000150
:1008A0000001000100010001000100010001000140
:1008B0000001000100010001000100010000000131
:1008C0000001000100000001000000010001000122
:1008D0000000000100000001000100010001000112
:1008E00000000001000100240721071E070100018C
:1008F000000100250722071F072707010001002626
:100900000723072007010001000100010001000189
:1009100000010001000100010001000100010000D0
:100920000000000000000000002A2B28000000004A
:10093000000000000000000000000000290000008E
:10094000002C1E3420212224342627252E362D3734
:1009500038271E1F202122232425263333362E3705
:10096000381F0405060708090A0B0C0D0E0F10119D
:1009700012131415161718191A1B1C1D2F313023AA
:100980002D350405060708090A0B0C0D0E0F101172
:1009900012131415161718191A1B1C1D2F31303578
:1009A0004C000000000000000000000000000000FB
:1009B0000000000000000000000000000000000037
:1009C000000001010101010100010101010000001D
:1009D0000000000000000000000000010001000114
:1009E00001010101010101010101010101010101F7
:1009F00001010101010101010101010100000001EA
:100A000001000000000000000000000000000000E5
:100A100000000000000000000000000001010101D2
:100A200000000000000001010101010101010102BB
:100A3000020202020202020203030303030303038E
:100A40000404040404040505050505060606060657
:100A500007070707080808080909090A0A0A0A0B0C
:100A60000B0B0C0C0C0D0D0D0E0E0F0F0F101011AB
:100A7000111112121313141415151616171718182E
:100A800019191A1A1B1C1C1D1D1E1F1F2020212294
:100A9000222324252526272728292A2B2B2C2D2ED7
:100AA0002F2F30313233343536363738393A3B3CF4
:100AB0003D3E3F4041424344464748494A4B4C4DE6
:100AC0004F50515253555657585A5B5C5E5F6062A7
:100AD00063646667696A6C6D6E7071737476787939
:100AE0007B7C7E8081838486888A8B8D8F91929493
:100AF00096989A9B9D9FA1A3A5A7A9ABADAFB1B3B3
:100B0000B5B7B9BBBDBFC1C4C6C8CACCCFD1D3D697
:100B1000D8DADCDFE1E4E6E8EBEDF0F2F5F7FAFC39
:100B2000FF04033000000016034500720067006FE9
:100B30000044006F007800200045005A00000016B5
:100B4000034500720067006F0044006F00780020CA
:100B50000045005A0000000403090409023B00029A
:100B60000100A0FA0904000001030101000921119C
:100B70000100012240000705810308000A09040161
:100B8000000103000000092111010001227100078A
:100B900005820320000A1201100100000008EDFE8A
:100BA000071301000102030105010980A10185036A
:100BB0001601002603001A81002A83007510950192
:100BC0008100C0050C0901A1018504160100269CC5
:100BD000021A01002A9C02751095018100C00501CE
:100BE0000906A1018505050719E029E7150025017A
:100BF00095087501810205081901290595057501FA
:100C000091029501750391010507190029EF15005F
:100C1000250195F075018102C005010906A10105B4
:100C20000719E029E715002501950875018102954E
:100C300001750881010508190129059505750191BE
:100C4000029501750391010507190029FF1500267A
:100C5000FF00950675088100C00011241FBECFEF6C
:100C6000DAE0DEBFCDBF13E0A0E0B1E0E8E0FAE7F4
:100C700002C005900D92AA3DB107D9F727E0AAED71
:100C8000B3E001C01D92AC3CB207E1F70E9474339F
:100C90000C94023D0C94000080B38C7080BB81B337
:100CA000836F81BB089584B1807F84B985B1807FD3
:100CB00085B98AB1837F8AB98BB1837F8BB93E981E
:100CC00046980895CF93E82F873090F580910401DE
:100CD00090910501892B09F049C0CE2F64E670E0A0
:100CE00080E40E9436229093050180930401892BB1
:100CF000D1F464E670E082E10E948D2290930501B8
:100D000080930401892B79F481E090E001C0880F81
:100D1000CA95EAF764E670E080950E948D22909370
:100D200005018093040184E690E0CF910C94E222C7
:100D300090E0FC013797E730F105C0F4EA5AFF4F25
:100D40000C94173C209A289811C0219A29980EC01B
:100D5000229A2A980BC0239A2B9808C0529A5A9824
:100D600005C0539A5B9802C03E9A4698CF91089569
:100D7000089508950C94B906CF93DF930E944B0811
:100D800090E090930501809304010E9453060E9415
:100D90004C06AFE2B4E02BED33E0EDE3F4E04EE0DF
:100DA0004E0F11921D9280E090E0E901C80FD91F0B
:100DB0001882019686309105C1F72A5F3F4F4E1386
:100DC000F0CFDF91CF910C94CC100E944B0890E0B3
:100DD00090930501809304010E9453060E944C06E3
:100DE000EDE3F4E08EE08E0F11928E13FDCF0895A7
:100DF000CF93DF93E62FF0E0E15DFB4F4081482782
:100E0000808386E0689FF0011124E552FC4F20E0CA
:100E100030E080E061E070E050E0AAE0B22F908125
:100E2000992319F09150908307C0EB01022E01C065
:100E3000CC0F0A94EAF78C2BEA0102C0D595C7952E
:100E4000BA95E2F7C0FDA0832F5F3F4F3196263061
:100E5000310521F7DF91CF910895CF93DF93D82FFC
:100E6000873008F040C08091040190910501892BE2
:100E700009F042C064E670E080E40E94362290935C
:100E8000050180930401892B11F0C0E027C064E6BE
:100E900070E083E10E948D2290930501809304010C
:100EA000892B99F764E670E081E40E9436229093E2
:100EB000050180930401892B41F784E690E00E94AC
:100EC000BD2297FF05C09093050180930401DDCFFB
:100ED000C82FC095109205011092040184E690E09D
:100EE0000E94E2220AC09FB1CFB1C07FC695C695CD
:100EF0009370C92BC09501C0C0E06D2F8C2F0E944C
:100F0000F806282F2095ED2FF0E0E35CFB4F908151
:100F100092238C23892BDF91CF910895EF92FF923A
:100F20000F931F93CF93DF9380910401909105015C
:100F3000892B91F08091DA038F5F8093DA0381111E
:100F40000BC00E944B0890E0909305018093040130
:100F5000892B11F40E94DD078DE3E82E84E0F82E42
:100F600004E414E0C0E08C2F0E946206D7E0DC0F9E
:100F70008D2F0E9462068C2F0E942D07F70181930E
:100F80007F018D2F0E942D07F80181938F010E9410
:100F90005306CF5FC73039F70E94D81081E0DF9148
:100FA000CF911F910F91FF90EF900895E82FF0E0FF
:100FB000E35CFB4F80810895089556985E982598CC
:100FC0002D9826982E9827982F988FEF90E0909341
:100FD00089008093880090938B0080938A0090937F
:100FE0008D0080938C00259A2D9A2FEF80E792E058
:100FF000215080409040E1F700C00000269A2E9AD0
:101000002FEF80E792E0215080409040E1F700C050
:101010000000279A2F9A2FEF80E792E0215080401E
:101020009040E1F700C0000025982D982FEF80E751
:1010300092E0215080409040E1F700C000002698E7
:101040002E982FEF80E792E0215080409040E1F70A
:1010500000C0000027982F9856985E9825982D98E4
:1010600026982E9827982F98089589EA80938000D3
:1010700089E08093810024982C983F988AB18F7CD6
:101080008AB96E98479A8BB180638BB9769A0E9421
:10109000DD070C94B80680E290E090930501809300
:1010A000040180914B0481110EC00E94302281E026
:1010B00080934B042FEF83ED90E3215080409040CC
:1010C000E1F700C0000064E670E080E40E94362290
:1010D0009093050180930401892B09F050C064E6C8
:1010E00070E080E00E948D229093050180930401BE
:1010F000892B09F044C064E670E080E00E948D22F4
:101100009093050180930401892BC9F564E670E092
:101110008FE30E948D229093050180930401892B17
:1011200071F584E690E00E94E22264E670E080E4DB
:101130000E9436229093050180930401892BF9F4D3
:1011400064E670E08CE00E948D229093050180930C
:101150000401892BA1F464E670E080E00E948D22F6
:101160009093050180930401892B49F464E670E0B3
:101170008FE30E948D22909305018093040184E601
:1011800090E00E94E222809104010895AF92BF9204
:10119000CF92DF92EF92FF920F931F93CF93DF9343
:1011A000EC0181E00E94E41F80E98C9F70018D9F1B
:1011B000F00C1124C0E0D0E000E010E0670182E014
:1011C000C80ED11C57018FEFA81AB80AF601EC0F10
:1011D000FD1FEF52FE4F8491FE01EE0DFF1DEF52F9
:1011E000FE4F6491F501EC0FFD1FEF52FE4F74911D
:1011F000882319F08091E40501C080E00E94EC167C
:10120000472F282FC8010E94A1170F5F1F4F239659
:1012100000331105D9F6DF91CF911F910F91FF9007
:10122000EF90DF90CF90BF90AF900895853008F099
:1012300044C06A3008F041C0909168019F3F51F06E
:101240005AE0859FF0011124E60FF11DE859FE4F89
:1012500080810895A9E0B2E028E144E03AE09C9161
:10126000E92FEF7092959F70E1119550542F591B03
:101270003E9FF0011124E50FF11DE859FE4F208338
:101280002F5F1496203359F7A9EAB1E020E03AE045
:101290009C91E92FEF7092959F70E11101C09B5FC7
:1012A0003E9FF0011124E90FF11DE859FE4F208304
:1012B0002F5F1496283161F7C3CF80E00895CF9354
:1012C000DF938133C8F5909108019F3F69F0611564
:1012D000710531F1E82FF0E0EE0FFF1FE85FFE4FE0
:1012E0009081FB0190831CC0A9EAB1E0E8E0F1E045
:1012F00020E0C4E09C91392F3F7092959F7031118E
:101300009550283110F49B5F03C0DC2FD91B9D2F13
:10131000308391832F5F14963296203359F7D7CFBD
:101320004115510549F0E82FF0E0EE0FFF1FE85F8F
:10133000FE4F8181FA018083DF91CF91089585303E
:10134000A8F46A3098F4843021F49CEF960F923020
:1013500068F0FA019AE0899FE00DF11D1124E60F73
:10136000F11D9081915081E0923008F480E0089561
:101370009F92AF92BF92CF92DF92EF92FF920F9324
:101380001F93CF93DF937B01EA010E94693C64E0E5
:1013900070E00E94E13B8C0184E0C82ED12C94E0E7
:1013A000A92EB12C0115110519F499809A9405C044
:1013B0000130110559F499809394A701692D888112
:1013C0000E949F098823B1F099821FC00230110545
:1013D00019F498809A9405C00330110559F4988047
:1013E0009394A7016981892D0E949F09882311F098
:1013F00098820BC0C8010196B5010E94E13B8C01A7
:1014000081E0C81AD10871F680E0DF91CF911F9179
:101410000F91FF90EF90DF90CF90BF90AF909F9093
:1014200008952F923F924F925F926F927F928F9288
:101430009F92AF92BF92CF92DF92EF92FF920F9363
:101440001F93CF93DF93CDB7DEB72C970FB6F894E9
:10145000DEBF0FBECDBF182F0E94A01E6B017C0106
:1014600080914606909147060E9441319093BC04BA
:101470008093BB040E9435319093470680934606C3
:101480002091BE043091BF042130310509F0E2C043
:1014900023E0C222DD24EE24FF24CD28CE28CF284D
:1014A00009F05FC0F09007010091B9041091BA04EF
:1014B0000F0D111DF7FC1A951093BA040093B9048F
:1014C000B80180E090E00E94FB3920E030E04AE77C
:1014D00053E40E9453394B015C0120E030E040E0CE
:1014E0005FE30E94493918163CF0C501B4010E941F
:1014F000803B9B01AC0122C020E030E040E05FE394
:10150000C501B4010E94DC384B015C019B01AC01B8
:101510000E94DD382B013C01A501940160E070E0E0
:1015200080E89FE30E94DC389B01AC01C301B2015B
:101530000E940B3B20E030E040E05FE30E94DD389A
:101540006093B5047093B6048093B7049093B80485
:1015500001501109093F110520F08F2D81958093CD
:1015600007018091E105881F8827881F9091E20577
:10157000492F440F242F282B97FB332730F9C9011B
:101580008C549F4F68E671E00E94E13B821B930BF5
:101590008038910514F09A9505C081384FEF940773
:1015A0000CF4939597FD039695958795959587955A
:1015B000182F8091E305281B310937FF02C02D5FEA
:1015C0003F4F3595279535952795022FA090E40537
:1015D0005BEAC52E51E0D52EE12CF12CF601B0804E
:1015E000B2949FE0B92220E030E040EA52E46091FA
:1015F000B5047091B6048091B7049091B8040E942C
:101600000B3B0E94C539962F6091E105262F221FC2
:101610002227221F6091E205660F622B690FB19E9F
:10162000600D11247091E305B09E700D11248A2D78
:101630000E94EC16472F282FC7010E94A117FFEF29
:10164000EF1AFF0A24E0C20ED11C40E3E416F104B5
:1016500029F6C2C32230310509F07EC0C701B601A8
:1016600023E030E040E050E00E94F53B672B682B20
:10167000692B29F48091B4048F5F8093B404E12C2A
:10168000F12C1091E105912F991F9927991F109125
:10169000E205110F192B6091E30570E080E090E006
:1016A0000E94FD392DEC3CEC4CE45FE30E940B3BC7
:1016B0000E94CC39762F612F80E00E94EC16472FD4
:1016C000282FC7010E94A1178FEFE81AF80A90E3AC
:1016D000E916F104B1F660E082E00E941609898300
:1016E00061E082E00E9416098A8362E082E00E9443
:1016F00016098B8363E082E00E9416098C8366E002
:1017000082E00E9416098D8367E082E00E9416093C
:101710008E8368E082E00E9416098F8369E082E090
:101720000E9416098887FE0131967F0110E0F701BB
:1017300001917F018091B404612F681B70EA8FEFE3
:101740000E94EC16472F282F802F90E00E94A117AF
:101750001E5E103961F740C32330310509F00DC119
:10176000E090BB04F090BC040091B2041091B3046B
:101770000E0D1F1D013DF7E01F0710F000ED17E0F3
:101780001093B3040093B204B801012E000C880B2F
:10179000990B0E94FD3920E030E04AEF54E40E94AA
:1017A00053394B015C01D09006012FEFD2120AC0D1
:1017B0009B01AC0160E070E080E89FE30E94DC38B0
:1017C0004B015C0120E030E040E05FE3C501B40183
:1017D0000E94493918163CF0C501B4010E94803BB3
:1017E0009B01AC0122C020E030E040E05FE3C50196
:1017F000B4010E94DC384B015C019B01AC010E94EA
:10180000DD382B013C01A501940160E070E080E827
:101810009FE30E94DC389B01AC01C301B2010E942E
:101820000B3B20E030E040E05FE30E94DD38003D0C
:10183000174041F41092B3041092B2042D2D21955B
:101840002093060120E030E040E151E40E940B3B90
:1018500069877A878B879C87B70180E090E00E9438
:10186000FB399B01AC0160E070E88BEB94E40E94D3
:10187000DC3820E030E84BEB54E40E9453392B0174
:101880003C010AE814E0312C632D70E080E090E028
:101890000E94FB399B01AC0169857A858B859C850B
:1018A0000E94DC386B017C01E894F7F8F801208194
:1018B000318142815381C301B2010E940B3B4B0134
:1018C0005C0120E030E040E050E4C701B6010E9436
:1018D00049391816D4F0A701960160E070E080E065
:1018E00090E40E94DC3820E030E040E05FE30E94BA
:1018F0000B3B9B01AC01C501B4010E94383AF801D1
:10190000608371838283938305C0F8018082918212
:10191000A282B38233940C5F1F4FFAE03F12B4CF20
:1019200000E010E0AE014F5F5F4F60E070E0802F9D
:101930000E945F09E98124E0E29FF0011124E6574B
:10194000FB4F20E030E04FE753E4608171818281FA
:1019500093810E940B3B0E94CC39862F6AE47FEF73
:101960000E94EC16472F282FC8010E94A1170F5F75
:101970001F4F00331105B1F62FC22430310509F095
:101980002BC2112351F148E554E025E080E090E0BE
:10199000FA01E80FF91F108201968A309105C1F70C
:1019A0002150465F5F4F2111F1CF109257041092E2
:1019B00055041092560481E0809358041092540408
:1019C00084E08093520489E08093530482E0809302
:1019D000890410925104109250042091BB0430915C
:1019E000BC048091500490915104820F931F8A3F50
:1019F000910508F477C01092510410925004809120
:101A00005704811135C045E554E068E574E081E094
:101A10000E94B809882379F080915604E09155041A
:101A20004AE0E49FF0011124E80FF11DE85AFB4F52
:101A300081E080831DC081E08093570410924F04A1
:101A400010924E0448E554E025E033E080E090E059
:101A5000FA01E80FF91F6081613009F430830196C3
:101A60008A309105A9F72150465F5F4F2111EECFD3
:101A70008091540481113AC042E554E068E574E075
:101A800082E00E94B809882379F080915304E091A4
:101A900052049AE0E99FF0011124E80FF11DE85A81
:101AA000FB4F82E0808322C081E080935404109237
:101AB0004D0410924C0448E554E025E034E080E009
:101AC00090E0FA01E80FF91F6081623009F4308379
:101AD00001968A309105A9F72150465F5F4F211189
:101AE000EECF04C09093510480935004809157042A
:101AF000813009F040C02091BB043091BC0480913A
:101B00004E0490914F04820F931F90934F04809343
:101B10004E048132934078F17091550460915604DF
:101B200048E554E090E080E0B1E020E030E0122FA2
:101B3000FA01E20FF31FA081A33021F41082882361
:101B400029F007C0811105C0A11104C0B083612F25
:101B5000792F81E02F5F3F4F2A30310541F79F5F9A
:101B6000465F5F4F953009F77093550460935604B4
:101B700081111092570480915404813009F043C0C0
:101B80002091BB043091BC0480914C0490914D0491
:101B9000820F931F90934D0480934C0481329340A5
:101BA00090F1509152044091530420E030E080E0E5
:101BB00001E310E0A9E0B2E0F801E21BF30BE85A00
:101BC000FB4F94E07A2F721B6081643021F4108205
:101BD000882329F007C0811105C0611104C0592F65
:101BE000472FB08381E091503A979F3F69F72F5F6D
:101BF0003F4F2A30310501F750935204409353046C
:101C000081111092540440E060E080E00E94A61729
:101C10006BE17FEF8FEF0E94EC16C62EB72EA82E39
:101C200060914E0470914F0480E090E00E94FB3977
:101C300020E030E048E454E40E9453399B01AC01B9
:101C400060E070E080E89FE30E94DC3820E030E054
:101C50004FE753E40E940B3B0E94CC39862F6BE187
:101C60007FEF0E94EC166987672E582E6DE77FEF95
:101C70008FEF0E94EC16F62EE72ED82E60914C04C2
:101C800070914D0480E090E00E94FB3920E030E04C
:101C900048E454E40E9453399B01AC0160E070E0D9
:101CA00080E89FE30E94DC3820E030E04FE753E417
:101CB0000E940B3B0E94CC39862F6DE77FEF0E947C
:101CC000EC16462E372E282E88E5882E84E0982E96
:101CD000712C00E010E0F401E00FF11F80818130F1
:101CE00041F4602F872D0E9416092A2D4B2D6C2D53
:101CF0001DC0823041F4602F872D0E9416092D2DC2
:101D00004E2D6F2D13C0833041F4602F872D0E941C
:101D10001609252D462D698509C0843051F4602FA0
:101D2000872D0E941609222D432D642D90E00E94DC
:101D3000A1170F5F1F4F0A30110569F673942AE04F
:101D4000820E911C45E07412C4CF609150047091D2
:101D5000510480E090E00E94FB3920E030E04AE747
:101D600053E40E94533920E030E04FE753E40E94EF
:101D70000B3B0E94CC39162F80915704811114C05F
:101D80006BE17FEF812F0E94EC16C62EB72EA82E96
:101D900060915604809155040E9416092A2D4B2DFE
:101DA0006C2D90E00E94A11780915404811114C001
:101DB0006DE77FEF812F0E94EC16F62EE72ED82ECE
:101DC00060915304809152040E9416092D2D4E2DCE
:101DD0006F2D90E00E94A1172C960FB6F894DEBFED
:101DE0000FBECDBFDF91CF911F910F91FF90EF906C
:101DF000DF90CF90BF90AF909F908F907F906F902B
:101E00005F904F903F902F9008958091C004811172
:101E10006AC060918F0570919005809191059091B5
:101E200092050E94632F823009F450C030F4882359
:101E300069F0813009F447C00895843009F44CC03A
:101E400008F447C0853009F44AC0089580E190E065
:101E50000E94813C6093E1057093E2058093E30565
:101E60009093E4058091BE049091BF04892BE9F41E
:101E70008091E10586958F730E94E41F8091E105B2
:101E8000982F9E77923079F1881F8827881F90912C
:101E9000E205292F220F97FB992790F94091E4053D
:101EA0006091E305822B0C940A2081E00E94E41FDC
:101EB0008091BD04882321F01092BD0481E001C00F
:101EC00080E00C94110A81E090E00BC082E090E089
:101ED00008C083E090E005C084E090E002C085E0A7
:101EE00090E00C94C6080895611108C0FC0182813D
:101EF000882321F088EA91E00E94C91080E090E0F8
:101F00000895FC01E65EFC45E730F10508F0B0C03D
:101F1000DB01E35AFF4F12969C910C94173C9111F0
:101F20000E94213080E008959923E1F381E019C0F7
:101F30009923C1F381E00E94D51F4FEF64E985EC3E
:101F400090E009C0992371F381E00E94D51F4FEF03
:101F500069E787E890E00E94F31FE4CF992311F32B
:101F600083E00E94D51FDECF9923E1F280E190E06B
:101F70000E94813C6093E1057093E2058093E30544
:101F80009093E4050E94242F82722091E1059091A4
:101F9000E205882371F0822F881F8827881F392F38
:101FA000330F432F482B97FB552750F948505109C1
:101FB0000DC0822F881F8827881F392F330F432F8A
:101FC000482B97FB552750F9485F5F4F40FB27F997
:101FD0002093E105842F86959078982B50FB97F9F4
:101FE0009093E2058091E105482F441F4427441F48
:101FF0009091E205592F550F252F242B97FB33275E
:1020000030F92F3F310531F02CF08F778093E105C7
:102010001092E2054091E1055091E2056091E305DF
:102020007091E40580E190E00E949F3C7BCF992372
:1020300009F478CF8091BE049091BF0401969093EB
:10204000BF048093BE0481E08093BD040E943531BB
:1020500090934706809346068091BE049091BF04FA
:10206000059708F45FCF1092BF041092BE045ACFB8
:1020700081E00895CF92DF92EF92FF926B017C0195
:102080000E94632F56985E9825982D9826982E9832
:1020900027982F9890E0FC013197E730F105A8F4DC
:1020A000EC59FF4F0C94173C259A2D9A0EC0259A97
:1020B0002D9A269A2E9A09C0259A2D9A04C0259AFF
:1020C0002D9A269A2E9A279A2F9AC701B601FF9029
:1020D000EF90DF90CF90089581E008950C94810FE8
:1020E000CF93282F30E0F901EF5DF64FC491F9014D
:1020F000EF55F64F2491222359F081EE0E94D62409
:102100008C2F0E94D6248C2F0E94ED2581EE04C0D6
:102110008C2F0E94D6248C2FCF910C94ED250F93F9
:102120001F93CF93DF93EC01062FFE018491882348
:1021300059F19E012F5F3F4F813041F4E901F901D0
:102140001491812F0E94D624812F0DC0823031F44A
:10215000E901F90184910E94D6240AC0833031F448
:10216000E901F90184910E94ED2502C00E947010DE
:102170002196802F8823C9F2EFE9FFE03197F1F72C
:1021800000C000008150F6CFDF91CF911F910F91D9
:10219000089560E00C948F100E94B32F811102C04B
:1021A0000E9421300E94721E0E943C160C94350839
:1021B0000E94D41D8091C104811102C00E949C170D
:1021C0008091C10490E001966BE070E00E94E13BD9
:1021D0008093C1040C94BA06282F2F7041F0822FEF
:1021E00090E02A3010F44D9608950697089587E2FE
:1021F00090E0089508950C94FA100C94FB10089543
:102200000E941B290E94FF102FEF84E39CE02150C5
:1022100080409040E1F700C000000C949131FF92A3
:102220000F931F93CF93DF938C01FC01C081D18169
:1022300080911D05811113C08281882349F0CE0150
:102240000E94512EF82E682FCE010E94F42D04C05A
:10225000CE010E94242EF82EBE018F2D04C0CE0187
:102260000E94512EBE010E94AA13EC01B8010E94E7
:102270006E10882309F466C2B801CE010E94B71619
:10228000882309F45FC2CC3CFCE5DF0741F4F80188
:102290008281882309F456C20E94BC1F53C2CD3CE0
:1022A0008CE5D80708F01EC1C43C9CE5D90761F451
:1022B000F8018281882309F445C20E94242F82728A
:1022C000E1F40E94D11E3EC2C53CECE5DE0708F0F9
:1022D000C7C0C531FCE5DF0798F0C23CFCE5DF076D
:1022E00009F48CC008F492C0F8018281882309F4B3
:1022F00029C20E94242F827221F70E94B71E22C297
:10230000C2308CE5D80708F452C0F80182818823D6
:1023100009F459C00E94B32F811102C00E942130DC
:102320000E94C62F90E09093BE078093BD07FE01E8
:10233000E350FC45E231F10530F4E559FF4F80915F
:10234000BD070C94173C8091BD07816027C0826057
:1023500025C0846023C0806121C080621FC080646A
:102360001DC080681BC08460886018C08E7F16C046
:102370008D7F14C08B7F12C08F7E10C08F7D0EC0EA
:102380008F7B0CC08F770AC08B7F877F07C087FB4E
:10239000222720F991E0922790FB87F98093BD07CF
:1023A0008091BD070E94CA2F0E941B29CBC1C11575
:1023B0009CE5D90781F0C130DC45A9F081E080932C
:1023C000C7048093C804C801DF91CF911F910F917A
:1023D000FF900C946C10F8018281882309F4B2C13B
:1023E0000E940011AFC1F8018281882309F4AAC1BB
:1023F0008091BC0581608093BC05A4C1F8018281F5
:10240000882309F49FC10E94A91E9CC1C631DC45E6
:10241000A9F60E94242F282FF801828140919C0167
:1024200050919D01882379F02A7A91E009F490E097
:102430009093C204911102C069E201C065E3CA0130
:102440000E9488300AC08091C204811102C069E2F2
:1024500001C065E3CA010E9493300E94F12E72C14F
:10246000F8018281C83CFCE5DF0731F4882309F4D8
:1024700069C10E945D1F66C1C93C9CE5D907C8F4CB
:10248000C63CECE5DE0731F4882309F45BC10E9409
:10249000171F58C1C73CDC4530F4882309F452C1EA
:1024A0000E94EB1E4FC1882309F44CC10E94471FB4
:1024B00049C1CA3C9CE5D90731F4882309F442C1DB
:1024C0000E948D1F3FC1CB3CDC4530F4882309F4CA
:1024D00039C10E94771F36C1882309F433C10E9495
:1024E000A71F30C1C43DFCE5DF0791F4F8018281EC
:1024F000882309F427C10E94EE1F893128F00E9429
:10250000EE1F823208F4F9CE89E10E94D51F1AC16C
:10251000C53D8CE5D80708F068C0F8018281C03D50
:10252000FCE5DF0771F4882309F40CC10E94EE1F5B
:10253000893028F00E94EE1F8E3008F4DECE89E04C
:10254000E4CFC13D9CE5D90740F5CE3CECE5DE0784
:1025500071F4882309F4F6C00E94EE1F823028F03F
:102560000E94EE1F853008F4C8CE82E0CECFCF3C6B
:10257000DC4528F4882309F4E5C081E0C6CF882330
:1025800009F4E0C00E94EE1F863028F00E94EE1F82
:10259000883008F4B2CE86E0B8CFC23D9CE5D907BA
:1025A00071F4882309F4CEC00E94EE1F853128F013
:1025B0000E94EE1F873108F4A0CE85E1A6CFC33D6F
:1025C000DC4570F4882309F4BDC00E94EE1F8F30F3
:1025D00028F00E94EE1F843108F48FCE8FE095CF53
:1025E000882309F4AFC088E190CFC83DFCE5DF0740
:1025F00059F5F8018281882361F01092C8040E9485
:1026000035319093C6048093C50480E20E9454261D
:1026100099C08091C804882321F080E20E945B2643
:1026200091C08091C5049091C6040E944131883CBC
:10263000910598F780E20E945B2688E20E94D624EA
:1026400088E20E94ED257EC0C93D8CE5D80708F0E0
:1026500058C0F8018281C63DFCE5DF0751F58823AB
:1026600051F01092C7040E9435319093C4048093B6
:10267000C30482E0CBCF0E94242F85FF05C081E0F8
:102680008093C7048093C8048091C70481110FC050
:102690008091C3049091C4040E944131883C91050B
:1026A00030F486E20E94D62486E20E94ED2582E084
:1026B000B5CFC73DDC4528F4882309F443C083E245
:1026C00024CF81119ACF0E94242F81FF05C081E081
:1026D0008093C7048093C8048091C80481119DCF62
:1026E0008091C5049091C6040E944131883C9105B7
:1026F00008F093CF87E20E94D62487E20E94ED255E
:102700008CCFCC3DECE5DE0741F4F80182818823D3
:10271000C9F082E00E94133415C0CD3DFCE5DF070F
:1027200039F4F8018281882369F00E9421300AC0BF
:10273000CB3DDC4509F042CEF8018281882311F0BF
:1027400080E0E8CF80E0DF91CF911F910F91FF9063
:102750000895089596E0799FF001112494E5899FEA
:10276000E00DF11D1124E60FF11DEE0FFF1FEF5CD0
:10277000FA4F859194910895880F991FFC01E353B6
:10278000FE4F859194910895CF93DF930E94AA13F1
:102790000E948515EC01811520E59207F0F5811561
:1027A00030E4930708F028C1883E910500F5803E8B
:1027B000910508F0A6C1883A910570F4853A910513
:1027C00008F0A3C08130910509F49BC108F44CC105
:1027D000049708F096C148C18F3B910508F4A0C04A
:1027E000803C910508F440C1805C9109F8C08115D6
:1027F000904258F4C11581E0D80708F082C1C03F6B
:10280000D10508F431C1D0657CC1C11590E3D90769
:1028100008F0E8C0CE019F70E2C0811525E592075F
:1028200008F043C0811534E5930708F0FCC081151A
:1028300042E5940708F5C11581E5D80708F0DFC027
:102840008C2F837021E030E002C0220F331F8A9565
:10285000E2F73C68CE0154E0969587955A95E1F7EA
:102860008370382BCF70C695C69540E2C49FE001B7
:102870001124C22BD32B45C1282F26952695837072
:102880009927C115D34508F0BFC040E2249F9001AD
:102890001124C1E0D0E002C0CC0FDD1F8A95E2F721
:1028A0002C2B3D2BE901DC682CC181154AE59407EE
:1028B000A0F4C11589E5D80708F0C4C0C11596E594
:1028C000D90708F4B5C0C11528E5D20708F4CCC073
:1028D000DC2FCC27C06FD06A14C181153BE593076C
:1028E00008F4C2C081154CE5940708F4BAC09056AC
:1028F0008115904208F0B8C08D2F8F710E9402168A
:10290000DD27D0628F71D82BFCC0853A910509F480
:10291000AEC0863A910509F0ADC0C2E8D0E4F1C07E
:10292000883A910509F4A9C0893A910509F4A8C02B
:102930008A3A910509F4A7C08B3A910509F4A6C01B
:102940008C3A910509F4A5C08B3B910509F4A4C00C
:102950008C3B910509F4A3C08D3A910509F4A2C0FE
:10296000803B910509F4A1C08E3A910509F4A0C0FD
:102970008F3A910509F49FC0813B910509F49EC0EF
:10298000823B910509F49DC0833B910509F49CC0ED
:10299000843B910509F49BC0853B910509F49AC0DD
:1029A000863B910509F499C0873B910509F498C0CD
:1029B000883B910509F497C0893B910509F496C0BD
:1029C0008D3B910509F495C08E3B910509F494C0A7
:1029D0008A3B910509F493C0C0E0D4E492C00E9400
:1029E000BC133DC0CE019927D3FF03C0EC01D86CC6
:1029F00088C0EC01D06C85C0DF70D06A82C0DC2F4B
:102A0000CC27C16FD06A7DC040E2249F9001112481
:102A1000C1E0D0E002C0CC0FDD1F8A95E2F7C22BE7
:102A2000D32BDA686EC0D82FCC27C46FD06A69C0A8
:102A30008C2F0E9402168F71C82FD0E0DC2FCC277C
:102A4000D0625FC02C2F2F70206E30E0306A84E09F
:102A5000D695C7958A95E1F7CF70C9019C2BEC01FB
:102A600050C0DD27D0664DC0C0E0D0E04AC0C1E80C
:102A7000D0E447C0C3E8D0E444C0C2EED4E441C0CF
:102A8000C9EED4E43EC0CAEED4E43BC0C5EBD4E406
:102A900038C0C6EBD4E435C0C3EBD4E432C0C4EBD9
:102AA000D4E42FC0C7EBD4E42CC0CCECD4E429C0D0
:102AB000CDECD4E426C0C3E8D5E423C0CAE8D5E40D
:102AC00020C0C2E9D5E41DC0C4E9D5E41AC0C1E202
:102AD000D6E417C0C3E2D6E414C0C4E2D6E411C001
:102AE000C5E2D6E40EC0C6E2D6E40BC0C7E2D6E427
:102AF00008C0CFE6D4E405C0C0E7D4E402C0CAE20F
:102B0000D6E4CE01DF91CF9108958238910549F145
:102B1000B0F48133910509F458C048F48932910525
:102B200009F44EC08A32910509F454C008958533E2
:102B3000910509F440C08933910599F00895833EC9
:102B4000910529F138F4803E910591F0823E91057E
:102B5000A1F00895863E9105F9F0873E910531F187
:102B600008952091BD0720FD3AC021FD38C0089589
:102B70008091BD0780FD35C032C08091BD0782FFC6
:102B800032C08091BD0784FD30C083EE39C0809192
:102B9000BD0782FD28C0F5CF8091BD0783FF27C008
:102BA0008091BD0784FD21C087EE2AC08091BD07BA
:102BB00083FD1DC0F5CF8091BD0785FD1AC01BC0E8
:102BC0008091BD0785FD17C014C08091BD0786FDAB
:102BD00014C015C08091BD0786FD11C00EC080EEE7
:102BE0000FC089E30DC082EE0BC080E009C086EE05
:102BF00007C089E205C085E303C08AE201C081E322
:102C000090E008959091BD0792FF0DC0282F287184
:102C1000283019F4877F846006C0282F247124305F
:102C200011F48B7F886093FF0DC0282F2871283105
:102C300019F4877E846106C0282F2471243111F491
:102C40008B7E886194FD877E0895CF93DF938130DA
:102C500020E8920768F0FB012281222349F0EC0171
:102C60000E945216CE019F770E949A160E948716E4
:102C700081E0DF91CF9108958CE090E00E94793C53
:102C800090E0A0E0B0E08093510690935206A093AC
:102C90005306B09354060895609151068CE090E07D
:102CA0000C948D3C0E94242F8093C9040E94372FDE
:102CB00080915106813071F048F08230D9F0843033
:102CC000F9F486EE0E944C2688E118C082EE0E943C
:102CD000D62416C080EE0E94D62481EE0E94D6240F
:102CE00088E10E944C2681EE0E94ED2580EE0E9434
:102CF000ED2506C082EE0E94D62487E50E944C2670
:102D00008FE39CE90197F1F700C0000008958091DE
:102D10005106813021F038F0823029F007C08CE272
:102D20000E944C2603C082EE0E94ED258091C904CA
:102D30000C94342F0F931F93CF93DF938C01CCE02F
:102D4000D0E0C8010C2E02C0969587950A94E2F750
:102D50008F700E94EC100E944C262497CC3F8FEF7E
:102D6000D80779F7DF91CF911F910F9108950F93B5
:102D70001F93CF93DF93EC018B01FB0182818823AA
:102D800019F1C23EFCE5DF07C1F050F4C03EECE5AE
:102D9000DE0781F0C13EFCE5DF07B1F481E010C041
:102DA000C33E8CE5D80759F0C43EECE5DE0761F47C
:102DB00084E006C01092510605C082E001C083E0A5
:102DC000809351060E944C16B801CE01DF91CF913D
:102DD0001F910F910C942516CF92DF92EF92FF92E4
:102DE0000F931F93CF93DF93E82FF82F711103C038
:102DF000682F782F7EC0062F10E0C72FD0E0E82E76
:102E0000F12CC8016BE270E00E94CD3B9B0145EDC7
:102E10004203B001439F700D1124060F171F86E077
:102E2000809FB001819F700D11244FEF50E0CA01C7
:102E30008C1B9D0B8E9DD0018F9DB00D9E9DB00D66
:102E400011248B2F6C9F80016D9F100D7C9F100DA6
:102E50001124012F11276A01C01AD10ACE9C8001CA
:102E6000CF9C100DDE9C100D11246A01C61AD70AE2
:102E7000CC9EB001CD9E700DDC9E700D1124672F8D
:102E80007727461B570B4E9DE0014F9DD00D5E9D51
:102E9000D00D11247D2F2230310599F04CF42115ED
:102EA0003105C9F021303105A1F47E2FE12F13C087
:102EB0002330310551F02430310559F4ED2F7B2FAB
:102EC00006C0EB2F8D2F7F2F06C0712FEB2F8F2F7A
:102ED00002C07B2F812FF0E0EF5DF54F6491E72F6B
:102EE000F0E0EF5DF54F7491E82FF0E0EF5DF54F06
:102EF0008491DF91CF911F910F91FF90EF90DF9020
:102F0000CF90089580E190E00C94813CAB01BC012E
:102F100080E190E00C949F3CE1EEF5E08DE0808351
:102F20001092E2058FEF8283838314826081718126
:102F3000828193810C948617E091D703F091D80396
:102F40000994E091D303F091D4030994E091D5035F
:102F5000F091D603099440E060E080E00C94A6175D
:102F6000E1EEF5E06081862F881F8827881F609139
:102F7000E205660F682B728183810E94EC16962F02
:102F8000672F482F892F0C94A617DF92EF92FF929C
:102F90000F931F93CF93DF938091E105881F8827BC
:102FA000881F9091E205492F440F242F282B97FB6F
:102FB000332730F9C9018C549F4F68E671E00E94B5
:102FC000E13B821B930B8038910514F09A9505C064
:102FD00081384FEF94070CF4939597FD03969595E0
:102FE000879595958795C82F8091E305281B310912
:102FF00037FF02C02D5F3F4F3595279535952795B3
:10300000D22FD090E4059BEAE92E91E0F92E00E062
:1030100010E0F701208122952F706091E105962F35
:10302000991F9927991F6091E205660F692B2C9FC4
:10303000600D11247091E3052D9F700D11248D2DCD
:103040000E94EC16472F282FC8010E94A1170F5F7E
:103050001F4FF4E0EF0EF11C00331105D1F6DF91A4
:10306000CF911F910F91FF90EF90DF900895AF9255
:10307000BF92CF92DF92EF92FF920F931F93CF9365
:10308000DF931F92CDB7DEB7D82E2091E105221F26
:103090002227221F8091E205982F990FB22EB92A7C
:1030A00087FB882780F9EB2DF82FCF018C549F4F99
:1030B00068E671E00E94E13B9C012E1B3F0B37FF4D
:1030C00002C02D5F3F4F3595279535952795A22E48
:1030D000C090E3050091D0041091D1042091D20456
:1030E0003091D3049091E505992359F0692F70E050
:1030F0008AE090E00E94E13BCB01770FAA0BBB0B6B
:1031000004C08AE090E0A0E0B0E080239123A223F5
:10311000B323892B8A2B8B2B41F40E94693C60E3FB
:1031200070E00E94E13B082F01C00FEFE12CF12C71
:1031300010E0D11003C0E016F106A9F40E94693C2A
:1031400083706B2D8A9D600D112469830E94693CF8
:1031500069817C2D8091E4050E94EC16472F282F71
:10316000C7010E94A1178FEFE81AF80A80E3E8165A
:10317000F104F9F60F90DF91CF911F910F91FF901D
:10318000EF90DF90CF90BF90AF900895CF92DF92F5
:10319000EF92FF921F93CF93DF938091D004909191
:1031A000D104A091D204B091D3040090E50504C0ED
:1031B000880F991FAA1FBB1F0A94D2F7182F89EAFC
:1031C000C82E81E0D82EC0E0D0E09FE3E92EF12C9C
:1031D000F60180818F3FE1F0FE01EB5AF94F8081CB
:1031E000F4E08F9FC00111248034910524F4B701CD
:1031F000681B790B02C060E070E0610F7FEF809187
:10320000E4050E94EC16472F282FCE010E94A1173B
:10321000219624E0C20ED11CC033D105C9F6DF913E
:10322000CF911F91FF90EF90DF90CF900895CF92B4
:10323000DF92EF92FF920F931F93CF93DF938091D2
:10324000D0049091D104A091D204B091D304009005
:10325000E50504C0880F991FAA1FBB1F0A94D2F767
:10326000D82EC090E40509EA11E0C0E0D0E08FE379
:10327000E82EF12CF80180818F3FF9F0FE01EB5A26
:10328000F94F2081F4E02F9F900111242034310563
:103290002CF4C701821B930B9C0102C020E030E09C
:1032A000F80161816D0D620F7FEF8C2D0E94EC168D
:1032B000472F282FCE010E94A11721960C5F1F4F88
:1032C000C033D105B9F6DF91CF911F910F91FF90D7
:1032D000EF90DF90CF900895CF92DF92EF92FF9220
:1032E0000F931F93CF93DF938091D0049091D104DB
:1032F000A091D204B091D3040090E50504C0880FDA
:10330000991FAA1FBB1F0A94D2F7D82EC090E405BC
:1033100009EA11E0C0E0D0E08FE3E82EF12CF801DB
:1033200080818F3FF9F0FE01EB5AF94F2081F4E0E4
:103330002F9F90011124203431052CF4C701821BEA
:10334000930B9C0102C020E030E0F80162816D0D1A
:10335000620F7FEF8C2D0E94EC16472F282FCE0195
:103360000E94A11721960C5F1F4FC033D105B9F6FB
:10337000DF91CF911F910F91FF90EF90DF90CF9051
:1033800008952F923F924F925F926F927F928F9209
:103390009F92AF92BF92CF92DF92EF92FF920F93E4
:1033A0001F93CF93DF933090E3052090E405609165
:1033B000D0047091D1048091D2049091D3040E94E2
:1033C000FB392BED3FE049E450E40E940B3B20E049
:1033D00030E040E05CE30E940B3B6B017C010E940B
:1033E0004E3920E030E040E05DE30E940B3B2B01D2
:1033F0003C01C701B6010E94783B20E030E040EE7E
:1034000052E40E9453394B015C01CBEAD1E000E069
:1034100010E0688170E080E090E00E94FD3920E0DB
:1034200030E040E052E40E94DC38A30192010E94A7
:103430000B3B6B017C01FE013197608170E080E005
:1034400090E00E94FD3920E030E040EE52E40E941E
:10345000DC38A50194010E940B3B9B01AC01C70124
:10346000B6010E94DD3820E030E044E353E40E94DE
:103470000B3B6B017C018091E105881F8827881F29
:103480009091E205292F220F622F682B97FB772757
:1034900070F9072E000C880B990B0E94FD399B01D7
:1034A000AC01C701B6010E94DD380E94CC39732DF2
:1034B000822D0E94EC16472F282FC8010E94A117C9
:1034C0000F5F1F4F24960033110509F0A2CFDF9143
:1034D000CF911F910F91FF90EF90DF90CF90BF9011
:1034E000AF909F908F907F906F905F904F903F90A4
:1034F0002F9008952F923F924F925F926F927F92FA
:103500008F929F92AF92BF92CF92DF92EF92FF92F3
:103510000F931F93CF93DF93CDB7DEB728970FB6E6
:10352000F894DEBF0FBECDBF8091E3058D839091EF
:10353000E4059E836091D0047091D1048091D204FF
:103540009091D3040E94FB392BED3FE049E450E415
:103550000E940B3B20E030E040E05CE30E940B3B2C
:103560006B017C010E944E392B013C01C701B60161
:103570000E94783B69837A838B839C83EBEAF1E03A
:10358000F887EF8300E010E0EF81F8853197208025
:10359000EF81F885B0803090E505332079F0632D18
:1035A00070E080E090E00E94FD3920E030E040ECE7
:1035B0005FE30E940B3B6B017C0106C0C12CD12C48
:1035C00090ECE92E9FE3F92E6B2D70E080E090E007
:1035D0000E94FD3920E030E040E052E40E94DC38F7
:1035E0009B01AC01C701B6010E940B3BA3019201F4
:1035F0000E940B3B4B015C01332079F0632D70E09E
:1036000080E090E00E94FD3920E030E040EC5FE394
:103610000E940B3B6B017C0106C0C12CD12C80ECBD
:10362000E82E8FE3F82E622D70E080E090E00E949B
:10363000FD3920E030E040EE52E40E94DC389B018E
:10364000AC01C701B6010E940B3B29813A814B8135
:103650005C810E940B3B9B01AC01C501B4010E943F
:10366000DD386B017C018091E105881F8827881F68
:103670009091E205292F220F622F682B97FB772765
:1036800070F9072E000C880B990B0E94FD399B01E5
:10369000AC01C701B6010E94DD380E94CC397D81A2
:1036A0008E810E94EC16472F282FC8010E94A11777
:1036B0000F5F1F4F8F819885049698878F83003303
:1036C000110509F061CF28960FB6F894DEBF0FBE42
:1036D000CDBFDF91CF911F910F91FF90EF90DF90C1
:1036E000CF90BF90AF909F908F907F906F905F90A2
:1036F0004F903F902F9008952F923F924F925F925C
:103700006F927F928F929F92AF92BF92CF92DF92F1
:10371000EF92FF920F931F93CF93DF9300D000D0CF
:103720001F92CDB7DEB72091E3052A838091E4058F
:103730008B836091D0047091D1048091D2049091D8
:10374000D3040E94FB392BED3FE049E450E40E9492
:103750000B3B20E030E040E05CE30E940B3B6B0160
:103760007C010E944E392B013C01C701B6010E9429
:10377000783B4B015C01ABEAB1E0BD83AC8300E078
:1037800010E0EC81FD813197B081B983EC81FD813E
:1037900030802090E505222069F0622D70E0660FF0
:1037A000771F072E000C880B990B0E94FD396B01C7
:1037B0007C0105C0C12CD12CE12C20E4F22E632D1C
:1037C00070E080E090E00E94FD3920E030E040E0D1
:1037D00052E40E94DC389B01AC01C701B6010E9493
:1037E0000B3BA30192010E940B3B6B017C01222049
:1037F00021F0312C220C331C03C082E0282E312C06
:10380000F9816F2F70E080E090E00E94FD3920E0A8
:1038100030E040EE52E40E94DC380E94C5399B0142
:1038200077FF04C022273327261B370B82E490E062
:10383000821B930B289EB001299E700D389E700D3F
:103840001124072E000C880B990B0E94FD39A5014D
:1038500094010E940B3B9B01AC01C701B6010E9481
:10386000DD386B017C018091E105881F8827881F66
:103870009091E205292F220F622F682B97FB772763
:1038800070F9072E000C880B990B0E94FD399B01E3
:10389000AC01C701B6010E94DD380E94CC397A81A3
:1038A0008B810E94EC16472F282FC8010E94A11778
:1038B0000F5F1F4F8C819D8104969D838C83003305
:1038C000110509F05ECF0F900F900F900F900F90A1
:1038D000DF91CF911F910F91FF90EF90DF90CF90EC
:1038E000BF90AF909F908F907F906F905F904F9020
:1038F0003F902F9008952F923F924F925F926F9238
:103900007F928F929F92AF92BF92CF92DF92EF926F
:10391000FF920F931F93CF93DF9300D01F92CDB7E9
:10392000DEB72090E3058091E40589836091D0049F
:103930007091D1048091D2049091D3040E94FB39FC
:1039400020E030E040E85BE30E940B3B20E030E009
:1039500040E653E40E940B3B2B013C01EBEAF1E013
:10396000FB83EA8300E010E0EA81FB81319730803D
:10397000EA81FB81E080F090E505FF2079F06F2D72
:1039800070E080E090E00E94FD3920E030E040EC03
:103990005FE30E940B3B4B015C0106C0812C912C24
:1039A00090ECA92E9FE3B92E6E2D70E080E090E0A0
:1039B0000E94FD3920E030E040E052E40E94DC3813
:1039C0000E94C5399B0177FF04C022273327261B9D
:1039D000370BB901330F880B990B0E94FD399B01FE
:1039E000AC01C501B4010E940B3B2EE23DEB4BEB59
:1039F00053EB0E940B3B4B015C01FF2079F06F2DD4
:103A000070E080E090E00E94FD3920E030E040EC82
:103A10005FE30E940B3B6B017C0106C0C12CD12CE3
:103A200080ECE82E8FE3F82E632D70E080E090E0CC
:103A30000E94FD39A30192010E94DC389B01AC0178
:103A4000C701B6010E940B3B9B01AC01C501B4014B
:103A50000E94DC386B017C018091E105881F88277A
:103A6000881F9091E205292F220F622F682B97FB68
:103A7000772770F9072E000C880B990B0E94FD39EF
:103A80009B01AC01C701B6010E94DD380E94CC3910
:103A9000722D89810E94EC16472F282FC8010E94A1
:103AA000A1170F5F1F4F8A819B8104969B838A8396
:103AB0000033110509F058CF0F900F900F90DF9150
:103AC000CF911F910F91FF90EF90DF90CF90BF901B
:103AD000AF909F908F907F906F905F904F903F90AE
:103AE0002F900895CF92DF92FF920F931F93CF9361
:103AF000DF931F92CDB7DEB7F82E0091D00410915E
:103B0000D1042091D2043091D3049091E5059923FA
:103B100059F0692F70E08AE090E00E94E13BAB0130
:103B2000770F660B770B04C04AE050E060E070E06E
:103B30004023512362237323452B462B472B39F413
:103B40000E94693C60E370E00E94E13B01C08FEF9E
:103B500000E010E0C82ED12CF11003C00C151D059B
:103B600081F40E94693C89830E94693C782F6981B5
:103B70008091E4050E94EC16472F282FC8010E946F
:103B8000A1170F5F1F4F0033110531F70F90DF9121
:103B9000CF911F910F91FF90DF90CF9008950895DE
:103BA0000E94CF1D0C94050F4091E10540FD0AC015
:103BB0000E94AB170E94D01D8091E1058170809317
:103BC0009B0108958091CA04843120F48F5F809313
:103BD000CA0408958091D0049091D104A091D20498
:103BE000B091D3040196A11DB11D8093D004909390
:103BF000D104A093D204B093D3048091CC049091CB
:103C0000CD04A091CE04B091CF048F3F2FEF920747
:103C1000A207B20759F00196A11DB11D8093CC04F3
:103C20009093CD04A093CE04B093CF048091CB04A5
:103C3000E5E5F6E090819F3F61F09E3F41F4282F3B
:103C400030E02230310514F0815001C080E09F5FE8
:103C50009083319696E0E538F90761F78093CB04BD
:103C6000E42FE695EF7380919A01E81307C081E095
:103C700090919B01913019F480E001C081E0817046
:103C8000E0939A0191E090939B014E2F50E0FA014E
:103C90003197EB30F10520F5E358FF4F0C94173CBA
:103CA0000E94B0171DC00E94C1191AC00E94C517FA
:103CB00017C00E94371814C00E94C61811C00E9475
:103CC00017190EC00E946C190BC00E947A1A08C006
:103CD0000E947C1B05C00E947B1C02C00E94721DBA
:103CE0000C94D01DE091D103F091D2030995E5E544
:103CF000F6E08FEF819396E0E538F907D9F70E9457
:103D0000B32F811104C00E9421300E948C170E94A1
:103D100082176093E1057093E2058093E305909329
:103D2000E4056E7761F40E948C170E9482176093FD
:103D3000E1057093E2058093E3059093E40508950F
:103D40006091D0047091D1048091D2049091D304F9
:103D50000895E1EEF5E08081982F909590FB80F931
:103D6000808360817181828193810C948617909108
:103D7000E105892F86958F5F8F7391788C3018F4C9
:103D8000880F892B02C0892F82608093E1056091A2
:103D9000E1057091E2058091E3059091E4050C94B2
:103DA00086179091E105892F8695815C8F739178B4
:103DB000882319F0880F892B02C0892F8661809390
:103DC000E1056091E1057091E2058091E305909134
:103DD000E4050C9486178091E105982F991F992787
:103DE000991F8091E205880F892B90E008968F3FFC
:103DF000910519F014F08FEF90E02091E10580FB20
:103E000027F92093E105282F26958091E2058078F7
:103E1000822B90FB87F98093E2056091E105709118
:103E2000E2058091E3059091E4050C94861780915A
:103E3000E105982F991F9927991F8091E205880F16
:103E4000892B90E0089797FF02C080E090E08F3FB9
:103E5000910519F014F08FEF90E02091E10580FBBF
:103E600027F92093E105282F26958091E205807897
:103E7000822B90FB87F98093E2056091E1057091B8
:103E8000E2058091E3059091E4050C9486178091FA
:103E9000E30590E008968F3F910519F014F08FEF3D
:103EA00090E08093E3056091E1057091E2058091D7
:103EB000E3059091E4050C9486178091E30590E06A
:103EC000089797FF02C080E090E08F3F910519F0BE
:103ED00014F08FEF90E08093E3056091E10570911D
:103EE000E2058091E3059091E4050C94861780919A
:103EF000E40590E008968F3F910519F014F08FEFDC
:103F000090E08093E4056091E1057091E205809175
:103F1000E3059091E4050C9486178091E40590E008
:103F2000089797FF02C080E090E08F3F910519F05D
:103F300014F08FEF90E08093E4056091E1057091BB
:103F4000E2058091E3059091E4050C948617809139
:103F5000E50590E001968430910514F083E090E04F
:103F60008093E5056091E1057091E2058091E3059C
:103F70009091E4050C9486178091E50590E00197F7
:103F800097FF02C080E090E08430910514F083E058
:103F900090E08093E5056091E1057091E2058091E4
:103FA000E3059091E4050C948617E1EEF5E08F733C
:103FB000982F990F80818178892B8083608171810E
:103FC000828193810C948617E1EEF5E08F73982F30
:103FD000990F80818178892B808308958091E105F4
:103FE00086958F730895E1EEF5E0208180FB27F937
:103FF0002083A2EEB5E086952C912078822B90FB51
:1040000087F98C936283438360817181828193817C
:104010000C948617E1EEF5E0208180FB27F92083E0
:10402000A2EEB5E086952C912078822B90FB87F943
:104030008C9362834383089567E784E70C94F121AE
:10404000CF930E94302284E70E94762087E70E9467
:104050007620C0E021E041E061E08C2F0E94082141
:10406000CF5FC033B9F767E784E7CF910C940422A0
:10407000E5EAF7E06083418324E630E042E050E087
:10408000BF01880F0C940623EF92FF921F93CF93EA
:10409000DF937B01182F110FC0E0D0E08C2F8C5DD7
:1040A0008093A50720E030E0F901EC0FFD1FEE0D35
:1040B000FF1D8081F901EB55F84F81832F5F3F4F42
:1040C0002031310589F724E630E041E150E065EA2E
:1040D00077E0812F0E9406236096C039D105F1F662
:1040E000DF91CF911F91FF90EF900895CF93DF93D1
:1040F000C82F4BE06DEF0E94382040E06AE08C2F23
:104100000E9438208FE39CE90197F1F700C000007E
:1041100040E060E08C2F0E94382040E061E08C2F6E
:104120000E94382040E066E08C2F0E94382040E05A
:104130006DEF8C2F0E943820D0E040E06D2F8C2F47
:104140000E943820DF5FD231C1F740E06D2F8C2F05
:104150000E943820DF5FD432C1F740E06D2F8C2FF2
:104160000E943820DF5FD43BC1F74BE06DEF8C2F0E
:104170000E94382041E06AE08C2F0E94382040E005
:104180006DEF8C2FDF91CF910C9438208033910507
:1041900020F5880F991F880F991FFC01E759FD4FE3
:1041A00052813381808183707181E0E98E9FC001EB
:1041B00011248B57994FFC01E70FF11DB4976083D1
:1041C000FC01E50FF11DB4974083830F911DFC01A5
:1041D000B497208381E08093F9040895FF920F93B0
:1041E0001F93CF93DF93182F062FF42EC0E0D0E05B
:1041F0002F2D402F612FCE010E94C6202196C03363
:10420000D105B1F7DF91CF911F910F91FF900895E4
:104210004F925F927F928F929F92AF92BF92CF9276
:10422000DF92EF92FF920F931F93CF93DF93362F7E
:1042300054E0859FC0011124FC01E759FD4FA08186
:10424000A3707A2E618170E0CB0184978C0197FF77
:1042500002C0095F1F4FA3E015950795AA95E1F7E6
:10426000628170E07B0154E2E51AF108E701F7FC96
:10427000279673E0D595C7957A95E1F7638170E04D
:104280004B01E4E28E1A9108F40197FC37962F0156
:1042900053E0559447945A95E1F768E0A62EB12C67
:1042A000B5010E94E13B6C01C701B5010E94E13BF1
:1042B0007C01C401B5010E94E13BA72DB0E01127AC
:1042C000DD243323A1F032E13A9FB0013B9F700D12
:1042D0001124060F171F0B521B4F61E070E001C045
:1042E000660FCA94EAF7F8013081632B14C032E1FB
:1042F0003A9FB0013B9F700D1124060F171F0B5200
:104300001B4F61E070E001C0660FCA94EAF7609548
:10431000F801308163236083DD27FF2432E14423E9
:1043200091F03A9FA0013B9F500D1124C40FD51F5F
:10433000CB52DB4F41E050E001C0440FEA94EAF772
:104340003881432B12C03A9FA0013B9F500D11248E
:10435000C40FD51FCB52DB4F41E050E001C0440FEA
:10436000EA94EAF74095388143234883A201552710
:10437000992792E19A9FF0019B9FF00D1124E40F81
:10438000F51FEB52FB4F222361F021E030E0A90141
:1043900002C0440F551F8A95E2F7CA019081892B0C
:1043A0000CC021E030E0A90102C0440F551F8A95DE
:1043B000E2F7CA01809590818923808381E0809310
:1043C000D404DF91CF911F910F91FF90EF90DF9078
:1043D000CF90BF90AF909F908F907F905F904F90C5
:1043E0000895CF939091F904992351F0C62F65E871
:1043F00076E00E94442065E177E08C2F0E94442003
:104400001092F904CF910895EF92FF920F931F93AA
:10441000CF93DF939091D4049923D9F0162F082FCE
:1044200085EDE82E84E0F82EC0E0D0E0F701419160
:104430007F016C2F802F0E943820FE01EB52FB4F32
:1044400042896C2F812F0E9438202196C231D105DC
:1044500069F7DF91CF911F910F91FF90EF90089531
:104460001092B9008CE08093B8000895EF92FF920B
:104470000F931F93CF93DF93182FEB011092BC0083
:1044800084EA8093BC000E9435317C019091BC008D
:1044900097FD0EC0CF3F8FEFD807C1F30E94353193
:1044A0008E199F098C179D0788F38EEF9FEF2EC002
:1044B0009091B900987F983041F09091B900987F21
:1044C000903119F08FEF9FEF21C01093BB0084E86B
:1044D0008093BC000E9435318C019091BC0097FD07
:1044E0000CC0CF3F8FEFD807C1F30E943531801B3E
:1044F000910B8C179D0788F3D8CF8091B900887FE6
:10450000883111F08034F1F680E090E0DF91CF91B6
:104510001F910F91FF90EF9008950F931F93CF93EA
:10452000DF93EB018093BB0084E88093BC000E9482
:1045300035318C019091BC0097FD0EC0CF3F8FEFBD
:10454000D807C1F30E943531801B910B8C179D0752
:1045500088F38EEF9FEF0CC02091B900287F81E097
:1045600090E0283211F480E090E0919581959109D6
:10457000DF91CF911F910F9108950F931F93CF93C8
:10458000DF93EC0184E88093BC000E9435318C01FC
:104590009091BC0097FD0EC0CF3F8FEFD807C1F3BD
:1045A0000E943531801B910B8C179D0788F38EEF8D
:1045B0009FEF03C08091BB0090E0DF91CF911F91EE
:1045C0000F9108950F931F93CF93DF93EC0184E92C
:1045D0008093BC000E9435318C019091BC0094FF07
:1045E0000EC0CF3F8FEFD807C1F30E943531801B3B
:1045F000910B8C179D0788F38EEF9FEF02C080E030
:1046000090E0DF91CF911F910F910895CF92DF92AB
:10461000EF92FF920F931F93CF93DF936B017A0179
:104620008901B9010E943622FC01892BC9F4E601F7
:10463000EC0CFD1CCE15DF0541F0B80189910E94FC
:104640008D22FC01892BB1F30BC0C801DF91CF9102
:104650001F910F91FF90EF90DF90CF900C94E2228A
:10466000CF01DF91CF911F910F91FF90EF90DF90DD
:10467000CF9008959093FF048093FE040895E091F5
:10468000FE04F091FF04309721F00190F081E02DBD
:10469000099480E00895E091FE04F091FF043097C2
:1046A00099F02091A801222359F02091BD0727FFFE
:1046B00007C0DC012C9111962C93119725E02C93C7
:1046C0000280F381E02D099408952091FC0430913B
:1046D000FD048217930771F09093FD048093FC040E
:1046E000E091FE04F091FF04309721F00680F781FD
:1046F000E02D099408952091FA043091FB0482176B
:10470000930771F09093FB048093FA04E091FE0408
:10471000F091FF04309721F00084F185E02D099499
:10472000089585B7806885BF85B7806885BF08957F
:1047300008950E9491230C94982381E008950E948B
:104740002C310E94BC060C94C331CF92DF92EF92C1
:10475000FF920F931F93CF93DF93CDB7DEB72B97C5
:104760000FB6F894DEBF0FBECDBF0E948E070E9429
:104770009D23811111C08FEF89838A831B820E9440
:1047800035318160782F9D838C8349815A816B817B
:104790008D810E94872456C081E0C82E85E0D82EE6
:1047A00000E010E0E02E802F0E94D607F601419134
:1047B0006F01F42EF82631F40F5F1F4F0E301105F4
:1047C00089F7D9CF9091BC0591FF04C08B870E94D7
:1047D000DC078B8520E030E04F2D50E0922FBA01AE
:1047E000022E02C0759567950A94E2F760FF24C017
:1047F0002E83EF8221E030E0690102C0CC0CDD1C89
:104800009A95E2F790E08C219D21892B09F420E014
:1048100028870E9435318160782F9A8789874E8159
:104820005F8168858A850E948724F801EF5FFA4FCF
:104830008081C826C08206C02F5F3F4F26303105D9
:1048400069F6BACF109100050E943F231817A1F016
:104850000E943F23809300052B960FB6F894DEBF8D
:104860000FBECDBFDF91CF911F910F91FF90EF90C1
:10487000DF90CF900C94FD102B960FB6F894DEBF0E
:104880000FBECDBFDF91CF911F910F91FF90EF90A1
:10489000DF90CF900895DC0111962C9111978C91A7
:1048A000682F70E041E050E001C0440F8A95EAF7BC
:1048B00012968C91129730E0882329F080911F0581
:1048C0008823E9F006C0F901E15FFA4F9081942353
:1048D000B1F086E0829FF001839FF00D1124E60F76
:1048E000F71FEE0FFF1FE75DFC4F808191818D93D5
:1048F0009C93F901E15FFA4F8081482B06C0F901D2
:10490000E15FFA4F40958081482340830895CF931B
:10491000DF93CDB7DEB72B970FB6F894DEBF0FBE8F
:10492000CDBF942F4F83252F588769877A878B8730
:104930004A855B85452B21F02F3F09F59F3FF9F410
:10494000DE01119686E0FD0111928A95E9F785E076
:10495000FE01379601900D928A95E1F749815A81BF
:104960006B817C818D819E810E94C52B2B960FB619
:10497000F894DEBF0FBECDBFDF91CF910895CE0179
:1049800007960E944B24DCCFFC01808191810E941C
:10499000922E92959F70963041F480911F0591E080
:1049A000892780931F0590931E050895882309F495
:1049B00013C1682F8238C1F40E943F2381FD0CC1CE
:1049C00069E380919C0190919D010E9488300E9432
:1049D000F12E2FEF81EE94E0215080409040E1F7DE
:1049E00000C0000069E319C08338F9F40E943F2336
:1049F00080FDF2C063E580919C0190919D010E9431
:104A000088300E94F12E2FEF81EE94E021508040FB
:104A10009040E1F700C0000063E580919C01909117
:104A20009D010E9493300C94F12E8438C1F40E94B1
:104A30003F2382FDD1C067E480919C0190919D014C
:104A40000E9488300E94F12E2FEF81EE94E02150D9
:104A500080409040E1F700C0000067E4DECF8CEFBB
:104A6000860F813A38F480919C0190919D010E94BB
:104A70008830D9CF80E2860F883048F4677081E0B3
:104A800001C0880F6A95EAF70E94272FCCCF8BE5EB
:104A9000860F833070F4653A29F0663A31F083E886
:104AA00090E005C081E890E002C082E890E00C94BC
:104AB000652388E5860F873108F08EC0683A09F4CF
:104AC00045C0693A09F445C06A3A09F445C06B3AF1
:104AD00009F445C06C3A09F445C06B3B09F445C084
:104AE0006C3B09F445C06D3A09F445C0603B09F4DC
:104AF00045C06E3A09F445C06F3A09F445C0613BC0
:104B000009F445C0623B09F445C0633B09F445C064
:104B1000643B09F445C0653B09F445C0663B09F4B4
:104B200045C0673B09F445C0683B09F445C0693B93
:104B300009F445C06D3B09F445C06E3B09F445C01E
:104B40006A3B09F445C080E090E044C082EE90E00A
:104B500041C089EE90E03EC08AEE90E03BC085EB1C
:104B600090E038C086EB90E035C083EB90E032C037
:104B700084EB90E02FC087EB90E02CC08CEC90E0B1
:104B800029C08DEC90E026C083E891E023C08AE83C
:104B900091E020C082E991E01DC084E991E01AC053
:104BA00081E292E017C083E292E014C084E292E0D6
:104BB00011C085E292E00EC086E292E00BC087E26F
:104BC00092E008C08FE690E005C080E790E002C068
:104BD0008AE292E00C947B230895882309F45BC059
:104BE000682F823879F40E943F2381FF54C069E323
:104BF00080919C0190919D010E9488300E94F12E2D
:104C000069E310C08338B1F40E943F2380FF43C0A2
:104C100063E580919C0190919D010E9488300E94E3
:104C2000F12E63E580919C0190919D010E9493304B
:104C30000C94F12E843879F40E943F2382FF2BC01C
:104C400067E480919C0190919D010E9488300E94B0
:104C5000F12E67E4E7CF8CEF860F813A18F380E2FC
:104C6000860F883048F4677081E001C0880F6A952C
:104C7000EAF70E942D2FDCCF8BE5860F833020F4DE
:104C800080E090E00C946523685A673120F480E05E
:104C900090E00C947B230895CF93C82F0E94D624D4
:104CA0008C2FCF910C94ED25882321F00E94272F83
:104CB0000C94F12E0895882321F00E942D2F0C943E
:104CC000F12E08958F929F92AF92BF92DF92EF9252
:104CD000FF920F931F93CF93DF937C01D62FC72FA3
:104CE000FC01058102950F70128111110E94472F5E
:104CF0000E94EA2E882379F0112369F080E28D0F5B
:104D0000883048F082E00E94D32E0E94EA2E91E083
:104D1000D82ED92601C0D12CAC2EA2948FE0A82287
:104D2000B12CF501E857FF4F0C94173C8C2F807F76
:104D3000CF70882311F0C295C07F112399F0CC2346
:104D400009F486C180E28D0F883010F0D11104C0C3
:104D50008C2F0E94272F03C08C2F0E943A2F0E9475
:104D6000F12E76C18D2F0E94ED25CC2309F4ECC1E4
:104D700080E28D0F883010F0D11104C08C2F0E947A
:104D80002D2F03C08C2F0E94402F0E94F12EDCC1DA
:104D90008C2F807FCF70803211F0C295C07FDD23D1
:104DA00019F0D130C9F021C0112371F0002341F076
:104DB000013031F40E94602F8C2B0E945A2FC4C105
:104DC0000E94602F8C2BFDC0002319F0013009F4E4
:104DD000BBC10E945D2F11C0112321F0023008F0E9
:104DE000B3C107C00111B0C108C0112321F00111E6
:104DF0002FC18C2FE6C001113CC18C2FE8C08C2F35
:104E000086958695837090E0009719F0019761F080
:104E10009BC1112321F08D2F9C2F937002C080E045
:104E200090E00E946523A0C1112321F08D2F9C2FBB
:104E3000937002C080E090E00E947B2395C18C2F8C
:104E4000837009F050C011118BC18D2F829586950A
:104E50008770880F880F9D2F9F70892E912CA12C11
:104E6000B12C082E04C0880C991CAA1CBB1C0A94E7
:104E7000D2F7D4FF14C00FE010E020E030E0B90119
:104E8000A80104C0440F551F661F771F8A95D2F7EB
:104E9000CB01BA01609570958095909503C060E054
:104EA00070E0CB01C695C695C370D0E0C230D10585
:104EB00061F0C330D10581F0682979298A299B29BD
:104EC000219771F00E940A2D4BC1682979298A29FE
:104ED0009B290E941C2D44C10E940A2DC501B401CA
:104EE0000E94F82C3DC1112319F08C2F817001C054
:104EF0008695882309F434C18D2F82958695877015
:104F0000880F880F9D2F9F70892E912CA12CB12C7A
:104F1000082E04C0880C991CAA1CBB1C0A94D2F74A
:104F2000D4FF14C00FE010E020E030E0B901A80188
:104F300004C0440F551F661F771F8A95D2F7CB0117
:104F4000BA01609570958095909503C060E070E01F
:104F5000CB01C695C695C3704C2F50E04230510529
:104F600069F04330510589F0682979298A299B29FC
:104F70004130510571F00E94CF2DF2C06829792986
:104F80008A299B290E94E12DEBC00E94CF2DC501EB
:104F9000B4010E94BD2DE4C08D2F90E0FC01E05EC5
:104FA000F109E531F10508F04FC0E856FF4F0C94C8
:104FB000173CDF708C2F8F71112331F00E94562D1A
:104FC0008D2F0E945426C0C00E94772D8D2F0E94E5
:104FD0005B26BAC0112339F00111B6C08C2F8F7136
:104FE0000E949C2DB1C0023008F0AEC0F7CF112353
:104FF00039F08C2F8F710E94562DA6C01123C9F352
:105000008C2F8F710E94772D9FC0112329F08C2F38
:105010008F710E94412D98C00E943C2D95C0112394
:1050200049F0CF718C2F0E94562D63E08C2F0E9487
:10503000CA2E8AC081E00E94D32E023008F484C0B8
:1050400082E00E94D32E80C0112331F0002389F228
:105050008D2F0E94D62478C0002391F2D93349F4D1
:105060005FEF67EE73E0515060407040E1F700C0C1
:1050700000008D2F0E94ED2567C04C2F4F706D2FC3
:10508000C7010E94740F0E94692C6EC0D23FB1F01C
:1050900028F4D03F49F0D13FF9F028C0D43FB9F00F
:1050A00058F0D53F71F022C0112309F447C0909108
:1050B0001F0581E0892708C081E0182710931F058C
:1050C0003DC011113BC081E080931F0537C0111115
:1050D00035C010921F0532C0112329F080911E05A2
:1050E000882329F329C0002311F328C080911E05CD
:1050F0000023C1F0882341F090911F0581E08927AA
:1051000080931F0510921E058D2F112319F00E9408
:10511000D62414C00E94ED2586E0F70111928A95ED
:10512000E9F70CC0882351F0111108C090911F05B8
:1051300081E0892780931F0510921E054C2F4F7028
:105140006D2FC7010E94A913F8E0AF16B10441F01A
:105150005CF04AE0A41AB10852E0A516B10420F4AC
:105160000E943F230E94FD10DD20E1F00E94C62E28
:1051700080FD18C0F70112820E94C02E0E94562D99
:10518000C7010E94DE280E94C02EDF91CF911F919F
:105190000F91FF90EF90DF90BF90AF909F908F9016
:1051A0000C94772DDF91CF911F910F91FF90EF908D
:1051B000DF90BF90AF909F908F9008950F931F93B3
:1051C000CF93DF93EC01888199812B813C81232B44
:1051D000B9F09F3F11F48F3F99F0CE010E940F115B
:1051E000882371F0688179818A810E949D2E8C01CB
:1051F0000E94F32D0E94F52CB801CE010E94622678
:10520000DF91CF911F910F9108950E94472F0E9427
:10521000572F0E94F12E80E090E00E94652380E0ED
:1052200090E00C947B2380919C0190919D010E94C1
:105230009E300C9405290E94372F0C941329E92FD6
:10524000E295EF70F0E03297EE30F105B0F4E355FF
:10525000FF4F0C94173C803F91F018F4803E68F4A7
:105260000EC0843F51F40BC0803E48F0813F29F4CA
:1052700006C093FB882780F9089580E0089581E0B7
:1052800008950E94922E0E941F290895CF93DF93C4
:1052900000D000D01F92CDB7DEB70F900F900F90C7
:1052A0000F900F90DF91CF910895CF93DF9300D0AF
:1052B00000D000D0CDB7DEB726960FB6F894DEBF8B
:1052C0000FBECDBFDF91CF9108951F93CF93DF9392
:1052D000C091200516E080912105C81799F0D0E013
:1052E0001C9FF0011D9FF00D1124EE5DFA4F4081CF
:1052F000518162817381848195810E945529219613
:10530000C770E9CFDF91CF911F9108954091520569
:105310005091530560915405709155058091560543
:10532000909157050C9455298091570582958F705F
:1053300009F054C080915405882309F44FC080912E
:105340002005A0912105609152057091530540916F
:10535000550550915605B6E08A1709F43FC090E014
:1053600041155105C1F17F3F11F46F3FA1F1B89F85
:10537000F001B99FF00D1124EE5DFA4F21817213F7
:105380002AC02081621327C02281211124C02381D9
:1053900034812417350710F421503109241B350BB3
:1053A000283C3105C0F4209157052F7020612093CF
:1053B000570526E0289FF001299FF00D1124E95D93
:1053C000FA4F80818F708061808382E595E00E9432
:1053D000DE280C94652901968770BECF0895CF9280
:1053E000DF92EF92FF920F931F93CF93DF93CDB78E
:1053F000DEB762970FB6F894DEBF0FBECDBF8C014B
:1054000085E0F801DE011D9601900D928A95E1F785
:10541000D8014C9111965C91119712966C9112974C
:105420001396CD90DC9014973091520570915305EE
:105430008091550590915605009709F46BC17F3F07
:1054400019F43F3F09F466C1E0905405EE2009F4D9
:10545000C0C020915705C816D90628F0F601E81BF0
:10546000F90BCF0104C0809590958C0D9D1DFF24F4
:10547000F394883C910578F0F12C207F09F0C6C0A8
:105480007C2DD98AC88A89890E94462982E595E0BF
:105490000E94DE28B1C0822F807F09F046C07513BC
:1054A00014C0341312C0611110C02F7020612093FA
:1054B00057050E94862982E595E00E94DE288091AA
:1054C0005705D80115968C932EC0CD2819F15F3F52
:1054D00011F44F3FF9F0F62E61111CC080912005A8
:1054E0002091210536E0821709F45AC090E0389FD8
:1054F000F001399FF00D1124EE5DFA4F71815713C1
:1055000006C07081471303C07281711103C00196F8
:105510008770E9CFF62E662309F427C180915705DD
:10552000816080935705F12C20C1751308C0341396
:1055300006C0611104C080915705D801C3C04D87D2
:105540005E878D859E856A8B0E9441296A898823A2
:10555000E1F16623D1F120915705822F82958F705A
:1055600090E0029774F080915205909153059887CE
:105570008F831986DB86CA862C87CE0107960E9408
:10558000DE2886E0F801A2E5B5E001900D928A954B
:10559000E1F70E9494290E948629FF24F394E5C034
:1055A0004D875E878D859E850E94922E292F22959C
:1055B0002F7030E0223031050CF0CBC09F7009F025
:1055C000C5C0805E883008F4D0C0C8010E94DE28C3
:1055D000E4CFC816D90608F453C0F601E81BF90B4E
:1055E000CF01883C910508F450C0F12C7C2DD98A5C
:1055F000C88A89890E944629E2E5F5E086E0DF0154
:105600001D928A95E9F70E948629AFC0751314C0D0
:10561000341312C0611110C080915705F8018583C1
:10562000C8010E94DE2886E0E2E5F5E0DF011D9278
:105630008A95E9F7FE2C99C04D875E878D859E85FA
:105640006A8B0E9441296A89882309F4BECF6623A8
:1056500009F4BBCF20915705822F82958F7090E07F
:1056600002970CF48ECF80915205909153059A8346
:1056700089831B82DD82CC822E83CE0101967FCF6F
:10568000809590958C0D9D1DACCFF62E662309F468
:105690009CCF75132EC034132CC02091570520FDCC
:1056A0001FC0822F82958F70D9F0D80115962C9348
:1056B00015978F3049F08F5F982F9295907F822FAA
:1056C0008F70892B15968C93C8010E94DE2886E086
:1056D000F801A2E5B5E001900D928A95E1F793CF2C
:1056E00086E0F801A2E5B5E001900D928A95E1F718
:1056F0003CC04D875E878D859E850E944129811122
:1057000040CF80915705816080935705C8010E9462
:10571000DE282BC0662309F458CF4D875E878D8520
:105720009E850E944129F82E882309F44ECF86E0F9
:10573000F801A2E5B5E001900D928A95E1F782E5C6
:1057400095E00E94C4240E9494295DCF811139CF35
:105750000CC0243031050CF038CF9F7009F431CFE4
:10576000F8019581907F09F02CCF8F2D62960FB6AE
:10577000F894DEBF0FBECDBFDF91CF911F910F9187
:10578000FF90EF90DF90CF9008951F93CF93DF931A
:10579000CDB7DEB72C970FB6F894DEBF0FBECDBFE6
:1057A0004F83588769877A878B879C87CE010796B6
:1057B0000E94EF29882369F08F8198852A853B858F
:1057C000232BF1F19F3F09F063C08F3F09F060C0C8
:1057D00037C086E0FE013796DE01119601900D92EA
:1057E0008A95E1F76F817885EA85FB85309741F1ED
:1057F0007F3F11F46F3F21F12091210530E0C90175
:105800000196877099274091200550E084179507ED
:1058100009F447C069837A83FD83EC8396E0929F05
:10582000D001939FB00D1124AE5DBA4FFE013196A9
:1058300001900D929A95E1F7809321050E946529C8
:1058400016E080912005909121058917C1F1189FDC
:10585000C00111248E5D9A4F0E94EF29882379F1AF
:10586000E09120051E9FF0011124EE5DFA4F40816A
:10587000518162817381848195810E945529809133
:10588000200590E001968770992780932005D9CF55
:105890004F81588569857A858B859C850E9455291D
:1058A000CFCF0E941B291092210510922005E2E51E
:1058B000F5E086E0DF011D928A95E9F7C1CF2C96CD
:1058C0000FB6F894DEBF0FBECDBFDF91CF911F9111
:1058D0000895EF92FF920F931F93CF93DF938C0164
:1058E000892B09F46CC0F12CEE24E394E801219695
:1058F000F8018491843740F4843008F051C081303D
:1059000081F0823019F15BC0853709F444C0A8F1F9
:105910009CE7980F903708F052C08F770E94ED25D2
:1059200041C00E5F1F4FFE01C49180E28C0F883092
:1059300048F4C7708E2D01C0880FCA95EAF70E94FF
:105940004A2F14C08C2F0E94D6242DC00E5F1F4FEB
:10595000FE01C49180E28C0F883058F4C7708E2D00
:1059600001C0880FCA95EAF70E94502F0E94F12EBD
:105970001AC08C2F0E94ED2516C00E5F1F4FFE012E
:10598000C491CC2381F08FE99FE00197F1F700C02B
:105990000000C150F6CF0E5F1F4FFE01F49003C010
:1059A0000E94D6248E018F2D882309F49FCFEFE922
:1059B000FFE03197F1F700C000008150F5CFDF9193
:1059C000CF911F910F91FF90EF90089508950C943F
:1059D000E62C0E94E72C60939305709394058093C6
:1059E0009505909396050C94052908950C94E92C3F
:1059F0000F931F93009193051091940520919505A5
:105A000030919605602B712B822B932B1F910F9158
:105A10000C94E92C0F931F9300919305109194051A
:105A2000209195053091960560237123822393235D
:105A30001F910F910C94E92C0F931F9300919305E4
:105A40001091940520919505309196056027712756
:105A5000822793271F910F910C94E92C0C943A10F4
:105A60000E942E2D60938F05709390058093910571
:105A7000909392050C94052960E070E0CB010C94A2
:105A8000302D0F931F9341E050E060E070E08A01F9
:105A90009B0104C0000F111F221F331F8A95D2F7EC
:105AA000C901B8011F910F910C94302D0F931F93D2
:105AB00041E050E060E070E004C0440F551F661FF5
:105AC000771F8A95D2F780918F0590919005A091CC
:105AD0009105B09192058A019B01082B192B2A2B65
