:100000000C9454060C9471060C9471060C947106B1
:100010000C9471060C9471060C9471060C94710684
:100020000C9471060C9471060C9458360C942A3773
:100030000C94C02E0C9471060C9471060C947106ED
:100040000C9471060C9471060C9471060C94710654
:100050000C9471060C94282F0C9471060C94710664
:100060000C9471060C9471060C9471060C94710634
:100070000C9471060C9471060C9471060C94710624
:100080000C9471060C9471060C9471060C94710614
:100090000C9471060C9471060C9471060C94710604
:1000A0000C9471060C9471060C947106C906CC066A
:1000B000CF06D206D506D806DB06F20CF70CFB0CF1
:1000C000050D110D170D7A0DAB0DB00DBA0DAE0D5E
:1000D000B30DB80DB60DFE0E000F0B0F020F040F7F
:1000E000060F080F0A0F0D0F0F0F110F1C0F130F24
:1000F000150F170F190F1B0F1E0FA71BAA1BAD1BE8
:10010000B01BB31BB61BB91BBC1BBF1BC21BC51B43
:100110000D240D243F243F2476249624FF255D26BC
:10012000D8245D2685258525F6255D265D2657265E
:100130009225922592259225922592259225922507
:1001400092259225922592259225922592259225F7
:10015000A325B025B725BE25C825E826E826FA261A
:10016000FA26F126FA26FA26FA26E826E826F626C0
:10017000FA26FA26F6269737BE37B038BE37B0389B
:100180000A382D38B0388338923805A84CCDB2D40F
:100190004EB93836A9020C50B9918688083CA6AAF7
:1001A000AA2ABE000000803F6572676F646F785FA7
:1001B000657A2F616C656367204020302E362E32C1
:1001C00036362D332D67333461313164000000F051
:1001D000A10000000000000000000000000000007E
:1001E000000000000000000000000000000000000F
:1001F00000000000000000000000000000000000FF
:1002000000000000000000000000000000000000EE
:1002100000000000000000000000000000000000DE
:1002200000000000000000000000000000000000CE
:1002300000000000000000000000000000000000BE
:1002400000000000000000000000000000000000AE
:10025000000000000000000000000000000000009E
:10026000009AFFFF9AFFFF9AFFFF9AFFFF9AFFFF96
:100270009AFFFF9AFFFF9AFFFF9AFFFF9AFFFF9AEC
:10028000FFFF9AFFFF9AFFFF9AFFFF9AFFFF9AFF77
:10029000FF9AFFFF9AFFFF9AFFFF9AFFFF9AFFFF67
:1002A0009AFFFF9AFFFF9AFFFF9AFFFF9AFFFF9ABC
:1002B000FFFF9AFFFF9AFFFF9AFFFF9AFFFF9AFF47
:1002C000FF00CCFF9AFFFF9AFFFF9AFFFF00CCFFD1
:1002D00000CCFF00CCFF9AFFFF9AFFFF9AFFFF9A26
:1002E000FFFF9AFFFF9AFFFF9AFFFF9AFFFF9AFF17
:1002F000FF69FFFF69FFFF69FFFF69FFFF69FFFFFC
:1003000069FFFF69FFFF69FFFF69FFFF69FFFF6981
:10031000FFFF69FFFF69FFFF69FFFF69FFFF69FFDB
:10032000FF69FFFF69FFFF69FFFF69FFFF00000032
:1003300000000000000000000069FFFF69FFFF6986
:10034000FFFF69FFFF69FFFF000000000000F9E404
:10035000FF000000000000000000F9E4FFF9E4FFE6
:10036000F9E4FF00000000000000000000000000B1
:10037000000000000000000000000000000000007D
:10038000000000000000000EFFFF0EFFFF0EFFFF49
:1003900069FFFF23FFFF23FFFF23FFFF0EFFFF691E
:1003A000FFFF23FFFF23FFFF23FFFF000000F9E40F
:1003B000FF23FFFF23FFFF23FFFF69FFFF00000074
:1003C00023FFFF23FFFF00000000000000000000EB
:1003D000000000000000000000000000000023FFFB
:1003E000FF00000000000000000023FFFF23FFFFCC
:1003F00023FFFF00000000000000000000000000DC
:10040000000000000023FFFF23FFFF0000000000AA
:1004100000000000000000000000000000000000DC
:10042000000000000000FA9FFF0000000000000034
:100430000000FA9FFFFA9FFFFA9FFF0000000000F4
:1004400000000000000000000000000000000000AC
:10045000000000000000000000000000000000009C
:1004600000000000000000000000000000000EFF7F
:10047000FF00000000000000000069FFFF0EFFFF0A
:1004800069FFFF0000000000000000000000000005
:10049000000000000000000000000000000000005C
:1004A000000000000000000000000000000000004C
:1004B00000000086FFD586FFD586FFD5000000002E
:1004C000000086FFD586FFD586FFD500000000001E
:1004D0000086FFD555CB9E86FFD5000000000000AA
:1004E0000AE1FF0000000000000000000000000022
:1004F00000000000000000000000000000000000FC
:1005000000000000000000000000000000000000EB
:1005100000000000000000000000000000000000DB
:1005200000000000000000000000000000000000CB
:100530000029002B002A00E100350000001E0014F5
:100540000004001D003400EC5C1F001A0015001BA5
:1005500000000402512000090016000600E0002CF3
:10056000002100130017001900E400C35C22000AF8
:1005700000070005000000650003510100000005B0
:10058000510000E30001530100000000070000E7F4
:100590000023000D000B000E0000004C0024000F93
:1005A00000110010000451EA5C2500180008003614
:1005B000000100280026001C000C0037000100008C
:1005C0000427003300120038000100EB5C2D0031DD
:1005D000003400E5000100000001000100010001FD
:1005E00000010000001E00140004001D000100E7CF
:1005F0005C1F001A0016001B00010001002000080B
:100600000007000600010001002100150009001983
:10061000000100C35C220017000A00050000000171
:100620000001001050000001000000010001000165
:1006300000000001000000010023001C000B00115D
:100640000000000100240018000D0010000100C58A
:100650005C25000C000E003600010001002600128F
:10066000000F00370001000100270013003300389D
:10067000000100C65C010001000100010001000052
:10068000000100010058000100010000003A0001D3
:1006900000010001000100CA5C3B000100500001A4
:1006A00000010001003C0052005100010001000166
:1006B000003D0001004F0001000100C95C3E000147
:1006C00000010001000000010001001050000001C5
:1006D000000000010001000100000001000000C254
:1006E0005C3F002202210225020000E75C40002F4F
:1006F0000226022F000100E85C4100300227023090
:10070000000100C55C42002D0256001F020100C618
:100710005C43002E022E0020020100E95C440045EB
:1007200000010001000100000001000100010001C2
:1007300000010000000100010001000100010001B2
:100740000001000100F2000100010001000100F0C1
:1007500000F1000100F400010001000100F30001BC
:1007600000F500010001000100010001000000018E
:100770000001001050000001000000010001000114
:100780000000000100000001000100A900AA00A86B
:1007900000000001000100240021001E00010001F2
:1007A000005400250022001F0062000C00550026A6
:1007B000002300200063000100560057000000588D
:1007C0000001000100010001000100010001000022
:1007D0000001000100010001000100000001000013
:1007E000000000000001000100000000004A0000BD
:1007F000000100010000004B004E0000000100015C
:1008000000000000004D0000000100010001000098
:100810000000000000000001000100105000000175
:1008200000000001000100010000000100000001C3
:1008300000010000000000000000000100000000B6
:1008400000500000000100010000005200510000B3
:100850000001000100000000004F00000001000145
:100860000001000000000000000100010001000183
:100870000001000100010000000100010001000171
:100880000001000000010001000100010001000161
:100890000001000100010001000100010001000150
:1008A0000001000100010001000100010001000140
:1008B0000001000100010001000100010000000131
:1008C0000001000100000001000000010001000122
:1008D0000000000100000001000100010001000112
:1008E00000000001000100240721071E070100018C
:1008F000000100250722071F072707010001002626
:100900000723072007010001000100010001000189
:1009100000010001000100010001000100010000D0
:100920000000000000000000002A2B28000000004A
:10093000000000000000000000000000290000008E
:10094000002C1E3420212224342627252E362D3734
:1009500038271E1F202122232425263333362E3705
:10096000381F0405060708090A0B0C0D0E0F10119D
:1009700012131415161718191A1B1C1D2F313023AA
:100980002D350405060708090A0B0C0D0E0F101172
:1009900012131415161718191A1B1C1D2F31303578
:1009A0004C000000000000000000000000000000FB
:1009B0000000000000000000000000000000000037
:1009C000000001010101010100010101010000001D
:1009D0000000000000000000000000010001000114
:1009E00001010101010101010101010101010101F7
:1009F00001010101010101010101010100000001EA
:100A000001000000000000000000000000000000E5
:100A100000000000000000000000000001010101D2
:100A200000000000000001010101010101010102BB
:100A3000020202020202020203030303030303038E
:100A40000404040404040505050505060606060657
:100A500007070707080808080909090A0A0A0A0B0C
:100A60000B0B0C0C0C0D0D0D0E0E0F0F0F101011AB
:100A7000111112121313141415151616171718182E
:100A800019191A1A1B1C1C1D1D1E1F1F2020212294
:100A9000222324252526272728292A2B2B2C2D2ED7
:100AA0002F2F30313233343536363738393A3B3CF4
:100AB0003D3E3F4041424344464748494A4B4C4DE6
:100AC0004F50515253555657585A5B5C5E5F6062A7
:100AD00063646667696A6C6D6E7071737476787939
:100AE0007B7C7E8081838486888A8B8D8F91929493
:100AF00096989A9B9D9FA1A3A5A7A9ABADAFB1B3B3
:100B0000B5B7B9BBBDBFC1C4C6C8CACCCFD1D3D697
:100B1000D8DADCDFE1E4E6E8EBEDF0F2F5F7FAFC39
:100B2000FF04033000000016034500720067006FE9
:100B30000044006F007800200045005A00000016B5
:100B4000034500720067006F0044006F00780020CA
:100B50000045005A0000000403090409023B00029A
:100B60000100A0FA0904000001030101000921119C
:100B70000100012240000705810308000A09040161
:100B800000010300000009211101000122C000073B
:100B900005820320000A1201100100000008EDFE8A
:100BA000071301000102030105010902A1018502E9
:100BB0000901A1000509190129051500250195055F
:100BC0007501810295017503810105010930093123
:100BD0001581257F95027508810609381581257FC5
:100BE000950175088106050C0A38021581257F9547
:100BF0000175088106C0C005010980A101850316A1
:100C000001002603001A81002A83007510950181D6
:100C100000C0050C0901A1018504160100269C02F3
:100C20001A01002A9C02751095018100C005010976
:100C300006A1018505050719E029E715002501959D
:100C400008750181020508190129059505750191AD
:100C5000029501750391010507190029EF1500257B
:100C60000195F075018102C005010906A101050782
:100C700019E029E715002501950875018102950104
:100C8000750881010508190129059505750191026D
:100C90009501750391010507190029FF150026FF2D
:100CA00000950675088100C011241FBECFEFDAE061
:100CB000DEBFCDBF13E0A0E0B1E0E8E1FAE702C09B
:100CC00005900D92AE3DB107D9F727E0AEEDB3E048
:100CD00001C01D92A533B207E1F70E947C330C944A
:100CE0000A3D0C94000080B38C7080BB81B3836F8D
:100CF00081BB089584B1807F84B985B1807F85B937
:100D00008AB1837F8AB98BB1837F8BB93E9846982D
:100D10000895CF93E82F873090F58091040190914A
:100D20000501892B09F049C0CE2F64E670E080E40C
:100D30000E948D1F9093050180930401892BD1F4AB
:100D400064E670E082E10E94E41F909305018093C5
:100D50000401892B79F481E090E001C0880FCA95E5
:100D6000EAF764E670E080950E94E41F9093050125
:100D70008093040184E690E0CF910C94392090E0B8
:100D8000FC013797E730F105C0F4EA5AFF4F0C94A5
:100D90001F3C209A289811C0219A29980EC0229AA7
:100DA0002A980BC0239A2B9808C0529A5A9805C0CB
:100DB000539A5B9802C03E9A4698CF910895089541
:100DC00008950C94E006CF93DF930E94720890E0A0
:100DD00090930501809304010E947A060E94730695
:100DE000A3E3B4E02FED33E0E1E4F4E04EE04E0F96
:100DF00011921D9280E090E0E901C80FD91F18827E
:100E0000019686309105C1F72A5F3F4F4E13F0CF10
:100E1000DF91CF910C94230E0E94720890E0909382
:100E20000501809304010E947A060E947306E1E4A2
:100E3000F4E08EE08E0F11928E13FDCF0895CF93C4
:100E4000DF93E62FF0E0ED5CFB4F40814827808385
:100E500086E0689FF0011124E152FC4F20E030E071
:100E600080E061E070E050E0AAE0B22F9081992329
:100E700019F09150908307C0EB01022E01C0CC0FF6
:100E80000A94EAF78C2BEA0102C0D595C795BA956A
:100E9000E2F7C0FDA0832F5F3F4F3196263031052A
:100EA00021F7DF91CF910895CF93DF93D82F87302B
:100EB00008F040C08091040190910501892B09F050
:100EC00042C064E670E080E40E948D1F90930501AB
:100ED00080930401892B11F0C0E027C064E670E024
:100EE00083E10E94E41F9093050180930401892B04
:100EF00099F764E670E081E40E948D1F90930501EC
:100F000080930401892B41F784E690E00E9414202D
:100F100097FF05C09093050180930401DDCFC82F92
:100F2000C095109205011092040184E690E00E94A1
:100F300039200AC09FB1CFB1C07FC695C6959370C6
:100F4000C92BC09501C0C0E06D2F8C2F0E941F07D8
:100F5000282F2095ED2FF0E0EF5BFB4F908192233F
:100F60008C23892BDF91CF910895EF92FF920F93FD
:100F70001F93CF93DF938091040190910501892BFA
:100F800091F08091DE038F5F8093DE0381110BC0AF
:100F90000E94720890E09093050180930401892BD0
:100FA00011F40E94040881E4E82E84E0F82E08E49D
:100FB00014E0C0E08C2F0E948906D7E0DC0F8D2F53
:100FC0000E9489068C2F0E945407F70181937F01AC
:100FD0008D2F0E945407F80181938F010E947A0699
:100FE000CF5FC73039F70E942F0E81E0DF91CF919C
:100FF0001F910F91FF90EF900895E82FF0E0EF5BC5
:10100000FB4F80810895089556985E9825982D98F5
:1010100026982E9827982F988FEF90E0909389002C
:101020008093880090938B0080938A0090938D002A
:1010300080938C00259A2D9A2FEF80E792E0215023
:1010400080409040E1F700C00000269A2E9A2FEFD2
:1010500080E792E0215080409040E1F700C000001E
:10106000279A2F9A2FEF80E792E0215080409040FE
:10107000E1F700C0000025982D982FEF80E792E05F
:10108000215080409040E1F700C0000026982E9843
:101090002FEF80E792E0215080409040E1F700C0C0
:1010A000000027982F9856985E9825982D98269896
:1010B0002E9827982F98089589EA8093800089E0D8
:1010C0008093810024982C983F988AB18F7C8AB9AC
:1010D0006E98479A8BB180638BB9769A0E94040808
:1010E0000C94DF0680E290E0909305018093040168
:1010F00080914F0481110EC00E94871F81E0809370
:101100004F042FEF83ED90E3215080409040E1F7B2
:1011100000C0000064E670E080E40E948D1F9093A0
:10112000050180930401892B09F050C064E670E04A
:1011300080E00E94E41F9093050180930401892BB5
:1011400009F044C064E670E080E00E94E41F9093E0
:10115000050180930401892BC9F564E670E08FE3F3
:101160000E94E41F9093050180930401892B71F57F
:1011700084E690E00E94392064E670E080E40E94FA
:101180008D1F9093050180930401892BF9F464E687
:1011900070E08CE00E94E41F9093050180930401AD
:1011A000892BA1F464E670E080E00E94E41F909334
:1011B000050180930401892B49F464E670E08FE314
:1011C0000E94E41F909305018093040184E690E05F
:1011D0000E943920809104010895AF92BF92CF926E
:1011E000DF92EF92FF920F931F93CF93DF93EC0167
:1011F00081E00E943B1D80E98C9F70018D9FF00C67
:101200001124C0E0D0E000E010E0670182E0C80EE9
:10121000D11C57018FEFA81AB80AF601EC0FFD1F79
:10122000EF52FE4F8491FE01EE0DFF1DEF52FE4F77
:101230006491F501EC0FFD1FEF52FE4F749188236E
:1012400019F08091B60501C080E00E944314472F39
:10125000282FC8010E94F8140F5F1F4F23960033F8
:101260001105D9F6DF91CF911F910F91FF90EF906B
:10127000DF90CF90BF90AF900895653008F046C0E2
:10128000453008F043C0811103C094E0941B492FFE
:10129000623008F04B5F909168019F3F79F025E044
:1012A000629FF001112499E1899FE00DF11D112445
:1012B000E859FE4FE40FF11D80810895813019F443
:1012C00090E038E102C098E130E325E0629FF00150
:1012D000112429E1829FE00DF11D1124E859FE4FF0
:1012E000E40FF11D9317D9F224E0929FD00111244D
:1012F000A255BE4F2C91522F52955F702F706213E2
:1013000003C0451301C090839F5FECCF80E0089538
:10131000CF93DF938133C8F5909108019F3F69F027
:101320006115710531F1E82FF0E0EE0FFF1FE85F66
:10133000FE4F9081FB0190831CC0AEEAB1E0E8E073
:10134000F1E020E0C4E09C91392F3F7092959F70AE
:1013500031119550283110F49B5F03C0DC2FD91B4D
:101360009D2F308391832F5F14963296203359F747
:10137000D7CF4115510549F0E82FF0E0EE0FFF1FE0
:10138000E85FFE4F8181FA018083DF91CF9108955C
:101390004F925F926F927F928F929F92AF92BF9285
:1013A000CF92DF92EF92FF920F931F93CF93DF9331
:1013B000CDB7DEB728970FB6F894DEBF0FBECDBF0E
:1013C0000E94F71B2091850430918604213031055D
:1013D00009F0E3C0DC01CB0183709927AA27BB2762
:1013E000892B8A2B8B2B09F05FC0F09007010091AD
:1013F0008304109184040F0D111DF7FC1A951093AE
:10140000840400938304B80180E090E00E94033AD2
:1014100020E030E04AE753E40E945B394B015C0175
:1014200020E030E040E05FE30E94513918163CF0C4
:10143000C501B4010E94883B9B01AC0122C020E0A1
:1014400030E040E05FE3C501B4010E94E4384B01A5
:101450005C019B01AC010E94E5382B013C01A50118
:10146000940160E070E080E89FE30E94E4389B0113
:10147000AC01C301B2010E94133B20E030E040E028
:101480005FE30E94E53860937F047093800480934B
:1014900081049093820401501109093F110520F045
:1014A0008F2D8195809307018091B305881F882730
:1014B000881F9091B405492F440F242F282B97FBA8
:1014C000332730F9C9018C549F4F68E671E00E94C0
:1014D000E93B821B930B8038910514F09A9505C067
:1014E00081384FEF94070CF4939597FD03969595EB
:1014F000879595958795182F8091B505281B3109FB
:1015000037FF02C02D5F3F4F3595279535952795BD
:10151000022FA090B60520EBC22E21E0D22EE12CA6
:10152000F12CF601B080B2948FE0B82220E030E0D8
:1015300040EA52E460917F047091800480918104BC
:10154000909182040E94133B0E94CD39962F6091A6
:10155000B305262F221F2227221F6091B405660F94
:10156000622B690FB19E600D11247091B505B09E7C
:10157000700D11248A2D0E944314472F282FC70174
:101580000E94F814FFEFEF1AFF0A44E0C40ED11CCA
:1015900080E3E816F10429F68FC12230310509F005
:1015A00094C023E030E040E050E00E94FD3B672B18
:1015B000682B692B29F480917E048F5F80937E04D1
:1015C000E12CF12C1091B305812F881F8827881FEB
:1015D0001091B405110F182B6091B50570E080E0F3
:1015E00090E00E94053A2DEC3CEC4CE45FE30E9455
:1015F000133B0E94D439062F6091B60570E080E05D
:1016000090E00E94053A2DEC3CEC4CE45FE30E9434
:10161000133B0E94D439862F612F702F0E944314F0
:10162000472F282FC7010E94F8149FEFE91AF90AE3
:10163000E0E3EE16F10431F640E062E080E00E9463
:101640003D09898341E062E080E00E943D098A8390
:1016500042E062E080E00E943D098B8343E062E06B
:1016600080E00E943D098C8341E062E081E00E94BD
:101670003D098D8342E062E081E00E943D098E8356
:1016800043E062E081E00E943D098F8344E062E034
:1016900081E00E943D098887CE0101967C0110E01F
:1016A000F70101917F0180917E04612F681B7FEF1C
:1016B0008FEF0E944314472F282F802F90E00E9425
:1016C000F814115E183F61F7F7C02330310509F0B7
:1016D000F3C0DC01CB0183709927AA27BB27892B94
:1016E0008A2B8B2B09F05FC0B090060100917C041F
:1016F00010917D040B0D111DB7FC1A9510937D04FC
:1017000000937C04B80180E090E00E94033A20E05E
:1017100030E048EC52E40E945B396B017C0120E030
:1017200030E040E05FE30E94513918163CF0C701F9
:10173000B6010E94883B9B01AC0122C020E030E052
:1017400040E05FE3C701B6010E94E4386B017C0111
:101750009B01AC010E94E5382B013C01A7019601D9
:1017600060E070E080E89FE30E94E4389B01AC01F8
:10177000C301B2010E94133B20E030E040E05FE390
:101780000E94E538609378047093790480937A041A
:1017900090937B04015011090336110520F08B2D25
:1017A00081958093060120E030E040E151E46091B2
:1017B00078047091790480917A0490917B040E945E
:1017C000133B2B013C0100E514E0B12C6B2D70E0C4
:1017D00080E090E00E94033A9B01AC01C301B2019A
:1017E0000E94E4386B017C01E894F7F820E030E0D7
:1017F00040E85FE3C701B6010E9451391816D4F0E2
:10180000A701960160E070E080E89FE30E94E43861
:101810006B017C0122E538EB4EE75FE3F801608164
:101820007181828193810E94133BA70196010E94DE
:10183000403A0BC022E538EB4EE75FE3F8016081E8
:101840007181828193810E94133BF80160837183CF
:1018500082839383B3940C5F1F4FFAE0BF12B6CF1D
:1018600000E010E0AE014F5F5F4F60E070E0802F5E
:101870000E948809E98144E0E49FF0011124E05BC3
:10188000FB4F20E030E04FE753E4608171818281BB
:1018900093810E94133B0E94D439862F6AE47FEF24
:1018A0000E944314472F282FC8010E94F8140F5F8D
:1018B0001F4F00331105B1F628960FB6F894DEBF1E
:1018C0000FBECDBFDF91CF911F910F91FF90EF9091
:1018D000DF90CF90BF90AF909F908F907F906F9050
:1018E0005F904F9008958091870481115FC060914F
:1018F00056057091570580915805909159050E94A1
:10190000202D823009F445C028F4882359F0813015
:10191000E9F10895843009F442C0F0F1853009F40A
:1019200041C0089580E190E00E94893C6093B30536
:101930007093B4058093B5059093B60580918504A6
:1019400090918604892BE9F48091B30586958F7375
:101950000E943B1D8091B305982F9E77923031F104
:10196000881F8827881F9091B405292F220F97FB85
:10197000992790F94091B6056091B505822B0C949A
:10198000611D81E00E943B1D0C94C80981E090E03C
:101990000BC082E090E008C083E090E005C084E0E6
:1019A00090E002C085E090E00C94ED08089561118C
:1019B00008C0FC018281882321F088EA91E00E941E
:1019C000200E80E090E00895FC01E65EFC45E730E3
:1019D000F10508F0A4C0DB01E35AFF4F12969C9179
:1019E0000C941F3C91110E94DE2D80E008959923F4
:1019F000E1F381E019C09923C1F381E00E942C1D1D
:101A00004FEF64E985EC90E009C0992371F381E020
:101A10000E942C1D4FEF69E787E890E00E944A1D65
:101A2000E4CF992311F383E00E942C1DDECF99238C
:101A3000E1F280E190E00E94893C6093B3057093ED
:101A4000B4058093B5059093B6050E94E12C82728F
:101A50002091B3059091B405882371F0822F881FDF
:101A60008827881F392F330F432F482B97FB552783
:101A700050F9485051090DC0822F881F8827881FB0
:101A8000392F330F432F482B97FB552750F9485FC9
:101A90005F4F40FB27F92093B305842F86959078FC
:101AA000982B50FB97F99093B4058091B305482F7C
:101AB000441F4427441F9091B405592F550F252FDB
:101AC000242B97FB332730F92F3F310531F02CF0D1
:101AD0008F778093B3051092B4054091B305509170
:101AE000B4056091B5057091B60580E190E00E9463
:101AF000A73C7BCF992309F478CF809185049091FE
:101B0000860401968430910528F49093860480938E
:101B100085046BCF109286041092850466CF81E015
:101B20000895CF92DF92EF92FF926B017C010E94A9
:101B3000202D56985E9825982D9826982E982798AF
:101B40002F9890E0FC013197E730F105A8F4EC59AB
:101B5000FF4F0C941F3C259A2D9A0EC0259A2D9A62
:101B6000269A2E9A09C0259A2D9A04C0259A2D9A54
:101B7000269A2E9A279A2F9AC701B601FF90EF90C6
:101B8000DF90CF90089581E008950C94E40CCF93FA
:101B9000282F30E0F901EF5DF64FC491F901EF55C0
:101BA000F64F2491222359F081EE0E943D228C2F82
:101BB0000E943D228C2F0E945B2381EE04C08C2F5B
:101BC0000E943D228C2FCF910C945B230F931F9387
:101BD000CF93DF93EC01062FFE018491882359F106
:101BE0009E012F5F3F4F813041F4E901F9011491CB
:101BF000812F0E943D22812F0DC0823031F4E901F6
:101C0000F90184910E943D220AC0833031F4E90138
:101C1000F90184910E945B2302C00E94C70D2196A6
:101C2000802F8823C9F2EFE9FFE03197F1F700C078
:101C300000008150F6CFDF91CF911F910F91089551
:101C400060E00C94E60D0E94702D811102C00E948C
:101C5000DE2D0E94C91B0E9493130C945C080E9405
:101C60002B1B80918804811102C00E94F314809183
:101C7000880490E001966BE070E00E94E93B80935D
:101C800088040C94E106282F2F7041F0822F90E0F9
:101C90002A3010F44D9608950697089587E290E053
:101CA000089508950C94510E0C94520E08950E94BC
:101CB000D8260E94560E2FEF84E39CE021508040EE
:101CC0009040E1F700C000000C944E2FFF920F935C
:101CD0001F93CF93DF938C01FC01C081D181809150
:101CE000E404811113C08281882349F0CE010E944F
:101CF0000E2CF82E682FCE010E94B12B04C0CE010D
:101D00000E94E12BF82EBE018F2D04C0CE010E944F
:101D10000E2CBE010E940111EC01B8010E94C50DFC
:101D2000882309F466C2B801CE010E940E148823EC
:101D300009F45FC2CC3CFCE5DF0741F4F801828185
:101D4000882309F456C20E94131D53C2CD3C8CE572
:101D5000D80708F01EC1C43C9CE5D90761F4F8011E
:101D60008281882309F445C20E94E12C8272E1F449
:101D70000E94281C3EC2C53CECE5DE0708F0C7C047
:101D8000C531FCE5DF0798F0C23CFCE5DF0709F44C
:101D90008CC008F492C0F8018281882309F429C21A
:101DA0000E94E12C827221F70E940E1C22C2C230D6
:101DB0008CE5D80708F452C0F8018281882309F421
:101DC00059C00E94702D811102C00E94DE2D0E9418
:101DD000832D90E09093270780932607FE01E35020
:101DE000FC45E231F10530F4E559FF4F80912607BB
:101DF0000C941F3C80912607816027C0826025C01B
:101E0000846023C0806121C080621FC080641DC0C7
:101E100080681BC08460886018C08E7F16C08D7F6C
:101E200014C08B7F12C08F7E10C08F7D0EC08F7B41
:101E30000CC08F770AC08B7F877F07C087FB222764
:101E400020F991E0922790FB87F9809326078091F3
:101E500026070E94872D0E94D826CBC1C1159CE57C
:101E6000D90781F0C130DC45A9F081E080938E0470
:101E700080938F04C801DF91CF911F910F91FF9044
:101E80000C94C30DF8018281882309F4B2C10E9429
:101E9000570EAFC1F8018281882309F4AAC180914D
:101EA0008305816080938305A4C1F8018281882322
:101EB00009F49FC10E94001C9CC1C631DC45A9F6F3
:101EC0000E94E12C282FF801828140919C015091C1
:101ED0009D01882379F02A7A91E009F490E09093AB
:101EE0008904911102C069E201C065E3CA010E9440
:101EF000452E0AC080918904811102C069E201C0A7
:101F000065E3CA010E94502E0E94AE2C72C1F801F6
:101F10008281C83CFCE5DF0731F4882309F469C1FC
:101F20000E94B41C66C1C93C9CE5D907C8F4C63CF4
:101F3000ECE5DE0731F4882309F45BC10E946E1CD6
:101F400058C1C73CDC4530F4882309F452C10E94D3
:101F5000421C4FC1882309F44CC10E949E1C49C1F8
:101F6000CA3C9CE5D90731F4882309F442C10E9498
:101F7000E41C3FC1CB3CDC4530F4882309F439C173
:101F80000E94CE1C36C1882309F433C10E94FE1C76
:101F900030C1C43DFCE5DF0791F4F801828188235C
:101FA00009F427C10E94451D893128F00E94451D72
:101FB000823208F4F9CE89E10E942C1D1AC1C53D78
:101FC0008CE5D80708F068C0F8018281C03DFCE5C7
:101FD000DF0771F4882309F40CC10E94451D893084
:101FE00028F00E94451D8E3008F4DECE89E0E4CF53
:101FF000C13D9CE5D90740F5CE3CECE5DE0771F428
:10200000882309F4F6C00E94451D823028F00E9402
:10201000451D853008F4C8CE82E0CECFCF3CDC45EC
:1020200028F4882309F4E5C081E0C6CF882309F4A9
:10203000E0C00E94451D863028F00E94451D883072
:1020400008F4B2CE86E0B8CFC23D9CE5D90771F462
:10205000882309F4CEC00E94451D853128F00E94D6
:10206000451D873108F4A0CE85E1A6CFC33DDC45F0
:1020700070F4882309F4BDC00E94451D8F3028F0FC
:102080000E94451D843108F48FCE8FE095CF8823C0
:1020900009F4AFC088E190CFC83DFCE5DF0759F5F2
:1020A000F8018281882361F010928F040E94F22E41
:1020B00090938D0480938C0480E20E94CB2399C07E
:1020C00080918F04882321F080E20E94D22391C066
:1020D00080918C0490918D040E94FE2E883C910585
:1020E00098F780E20E94D22388E20E943D2288E293
:1020F0000E945B237EC0C93D8CE5D80708F058C01C
:10210000F8018281C63DFCE5DF0751F5882351F0D7
:1021100010928E040E94F22E90938B0480938A0476
:1021200082E0CBCF0E94E12C85FF05C081E0809347
:102130008E0480938F0480918E0481110FC0809152
:102140008A0490918B040E94FE2E883C910530F405
:1021500086E20E943D2286E20E945B2382E0B5CFA8
:10216000C73DDC4528F4882309F443C083E224CF2B
:1021700081119ACF0E94E12C81FF05C081E08093FC
:102180008E0480938F0480918F0481119DCF809164
:102190008C0490918D040E94FE2E883C910508F0DD
:1021A00093CF87E20E943D2287E20E945B238CCF7F
:1021B000CC3DECE5DE0741F4F80182818823C9F0CB
:1021C00082E00E941B3415C0CD3DFCE5DF0739F4E9
:1021D000F8018281882369F00E94DE2D0AC0CB3D80
:1021E000DC4509F042CEF8018281882311F080E0BD
:1021F000E8CF80E0DF91CF911F910F91FF9008957C
:10220000089596E0799FF001112494E5899FE00DEF
:10221000F11D1124E60FF11DEE0FFF1FEF5CFA4FC9
:10222000859194910895880F991FFC01E353FE4F07
:10223000859194910895CF93DF930E9401110E949C
:10224000DC12EC01811520E59207F0F5811530E4F0
:10225000930708F028C1883E910500F5803E91055E
:1022600008F0A6C1883A910570F4853A910508F006
:10227000A3C08130910509F49BC108F44CC10497B7
:1022800008F096C148C18F3B910508F4A0C0803C7E
:10229000910508F440C1805C9109F8C08115904215
:1022A00058F4C11581E0D80708F082C1C03FD105BC
:1022B00008F431C1D0657CC1C11590E3D90708F09D
:1022C000E8C0CE019F70E2C0811525E5920708F0B5
:1022D00043C0811534E5930708F0FCC0811542E541
:1022E000940708F5C11581E5D80708F0DFC08C2FE9
:1022F000837021E030E002C0220F331F8A95E2F79D
:102300003C68CE0154E0969587955A95E1F7837025
:10231000382BCF70C695C69540E2C49FE0011124CA
:10232000C22BD32B45C1282F26952695837099273C
:10233000C115D34508F0BFC040E2249F900111248D
:10234000C1E0D0E002C0CC0FDD1F8A95E2F72C2B54
:102350003D2BE901DC682CC181154AE59407A0F406
:10236000C11589E5D80708F0C4C0C11596E5D9079D
:1023700008F4B5C0C11528E5D20708F4CCC0DC2F9D
:10238000CC27C06FD06A14C181153BE5930708F4D0
:10239000C2C081154CE5940708F4BAC09056811567
:1023A000904208F0B8C08D2F8F710E945913DD271D
:1023B000D0628F71D82BFCC0853A910509F4AEC06C
:1023C000863A910509F0ADC0C2E8D0E4F1C0883A80
:1023D000910509F4A9C0893A910509F4A8C08A3A7F
:1023E000910509F4A7C08B3A910509F4A6C08C3A6F
:1023F000910509F4A5C08B3B910509F4A4C08C3B61
:10240000910509F4A3C08D3A910509F4A2C0803B5F
:10241000910509F4A1C08E3A910509F4A0C08F3A44
:10242000910509F49FC0813B910509F49EC0823B50
:10243000910509F49DC0833B910509F49CC0843B40
:10244000910509F49BC0853B910509F49AC0863B30
:10245000910509F499C0873B910509F498C0883B20
:10246000910509F497C0893B910509F496C08D3B0D
:10247000910509F495C08E3B910509F494C08A3BFF
:10248000910509F493C0C0E0D4E492C00E941311F6
:102490003DC0CE019927D3FF03C0EC01D86C88C0A2
:1024A000EC01D06C85C0DF70D06A82C0DC2FCC27F5
:1024B000C16FD06A7DC040E2249F90011124C1E029
:1024C000D0E002C0CC0FDD1F8A95E2F7C22BD32BE0
:1024D000DA686EC0D82FCC27C46FD06A69C08C2F41
:1024E0000E9459138F71C82FD0E0DC2FCC27D06207
:1024F0005FC02C2F2F70206E30E0306A84E0D695BC
:10250000C7958A95E1F7CF70C9019C2BEC0150C0AB
:10251000DD27D0664DC0C0E0D0E04AC0C1E8D0E4BD
:1025200047C0C3E8D0E444C0C2EED4E441C0C9EE21
:10253000D4E43EC0CAEED4E43BC0C5EBD4E438C01A
:10254000C6EBD4E435C0C3EBD4E432C0C4EBD4E46E
:102550002FC0C7EBD4E42CC0CCECD4E429C0CDEC24
:10256000D4E426C0C3E8D5E423C0CAE8D5E420C03B
:10257000C2E9D5E41DC0C4E9D5E41AC0C1E2D6E47D
:1025800017C0C3E2D6E414C0C4E2D6E411C0C5E269
:10259000D6E40EC0C6E2D6E40BC0C7E2D6E408C05B
:1025A000CFE6D4E405C0C0E7D4E402C0CAE2D6E472
:1025B000CE01DF91CF9108958238910549F1B0F4B1
:1025C0008133910509F458C048F48932910509F422
:1025D0004EC08A32910509F454C00895853391059F
:1025E00009F440C08933910599F00895833E91051F
:1025F00029F138F4803E910591F0823E9105A1F0D9
:102600000895863E9105F9F0873E910531F10895D0
:102610002091260720FD3AC021FD38C00895809101
:10262000260780FD35C032C08091260782FF32C068
:102630008091260784FD30C083EE39C08091260743
:1026400082FD28C0F5CF8091260783FF27C08091A7
:10265000260784FD21C087EE2AC08091260783FDCE
:102660001DC0F5CF8091260785FD1AC01BC0809143
:10267000260785FD17C014C08091260786FD14C06B
:1026800015C08091260786FD11C00EC080EE0FC0D8
:1026900089E30DC082EE0BC080E009C086EE07C062
:1026A00089E205C085E303C08AE201C081E390E0CE
:1026B00008959091260792FF0DC0282F2871283089
:1026C00019F4877F846006C0282F2471243011F408
:1026D0008B7F886093FF0DC0282F2871283119F453
:1026E000877E846106C0282F2471243111F48B7EEB
:1026F000886194FD877E0895CF93DF93813020E831
:10270000920768F0FB012281222349F0EC010E942C
:10271000A913CE019F770E94F1130E94DE1381E07E
:10272000DF91CF9108958CE090E00E94813C90E091
:10273000A0E0B0E08093B8059093B905A093BA05E6
:10274000B093BB0508956091B8058CE090E00C94BF
:10275000953C0E94E12C809390040E94F42C80917F
:10276000B805813071F048F08230D9F08430F9F446
:1027700086EE0E94C32388E118C082EE0E943D22AB
:1027800016C080EE0E943D2281EE0E943D2288E12B
:102790000E94C32381EE0E945B2380EE0E945B2394
:1027A00006C082EE0E943D2287E50E94C3238FE38C
:1027B0009CE90197F1F700C0000008958091B805E9
:1027C000813021F038F0823029F007C08CE20E947D
:1027D000C32303C082EE0E945B23809190040C947B
:1027E000F12C0F931F93CF93DF938C01CCE0D0E0BB
:1027F000C8010C2E02C0969587950A94E2F78F7057
:102800000E94430E0E94C3232497CC3F8FEFD8072A
:1028100079F7DF91CF911F910F9108950F931F9337
:10282000CF93DF93EC018B01FB018281882319F1A7
:10283000C23EFCE5DF07C1F050F4C03EECE5DE0728
:1028400081F0C13EFCE5DF07B1F481E010C0C33E7A
:102850008CE5D80759F0C43EECE5DE0761F484E06E
:1028600006C01092B80505C082E001C083E08093E5
:10287000B8050E94A313B801CE01DF91CF911F913B
:102880000F910C947C13CF92DF92EF92FF920F93F3
:102890001F93CF93DF93E82FF82F711103C0682F98
:1028A000782F7EC0062F10E0C72FD0E0E82EF12C45
:1028B000C8016BE270E00E94D53B9B0145ED4203ED
:1028C000B001439F700D1124060F171F86E0809FF3
:1028D000B001819F700D11244FEF50E0CA018C1B95
:1028E0009D0B8E9DD0018F9DB00D9E9DB00D11242E
:1028F0008B2F6C9F80016D9F100D7C9F100D1124FC
:10290000012F11276A01C01AD10ACE9C8001CF9CE9
:10291000100DDE9C100D11246A01C61AD70ACC9E38
:10292000B001CD9E700DDC9E700D1124672F7727AE
:10293000461B570B4E9DE0014F9DD00D5E9DD00D67
:1029400011247D2F2230310599F04CF421153105E9
:10295000C9F021303105A1F47E2FE12F13C02330BF
:10296000310551F02430310559F4ED2F7B2F06C08D
:10297000EB2F8D2F7F2F06C0712FEB2F8F2F02C0D3
:102980007B2F812FF0E0EF5DF54F6491E72FF0E0B2
:10299000EF5DF54F7491E82FF0E0EF5DF54F849116
:1029A000DF91CF911F910F91FF90EF90DF90CF902B
:1029B000089580E190E00C94893CAB01BC0180E17A
:1029C00090E00C94A73CE3EBF5E08DE0808310925F
:1029D000B4058FEF82838383148260817181828149
:1029E00093810C94DD14E091DC03F091DD030994F4
:1029F000E091D803F091D9030994E091DA03F091C2
:102A0000DB03099440E060E080E00C94FD14E3EB0C
:102A1000F5E06081862F881F8827881F6091B405A4
:102A2000660F682B728183810E944314962F672F53
:102A3000482F892F0C94FD14DF92EF92FF920F9391
:102A40001F93CF93DF938091B305881F8827881F3A
:102A50009091B405492F440F242F282B97FB33273F
:102A600030F9C9018C549F4F68E671E00E94E93B40
:102A7000821B930B8038910514F09A9505C081381C
:102A80004FEF94070CF4939597FD039695958795D2
:102A900095958795C82F8091B505281B310937FF7B
:102AA00002C02D5F3F4F3595279535952795D22F3D
:102AB000D090B60590EBE92E91E0F92E00E010E001
:102AC000F701208122952F706091B305962F991FF1
:102AD0009927991F6091B405660F692B2C9F600D93
:102AE00011247091B5052D9F700D11248D2D0E941C
:102AF0004314472F282FC8010E94F8140F5F1F4F5F
:102B0000F4E0EF0EF11C00331105D1F6DF91CF9107
:102B10001F910F91FF90EF90DF900895AF92BF92B9
:102B2000CF92DF92EF92FF920F931F93CF93DF9399
:102B30001F92CDB7DEB7D82E2091B305221F2227D2
:102B4000221F8091B405982F990FB22EB92A87FBC6
:102B5000882780F9EB2DF82FCF018C549F4F68E622
:102B600071E00E94E93B9C012E1B3F0B37FF02C026
:102B70002D5F3F4F3595279535952795A22EC0900F
:102B8000B505009197041091980420919904309113
:102B90009A049091B705992359F0692F70E08AE063
:102BA00090E00E94E93BCB01770FAA0BBB0B04C05E
:102BB0008AE090E0A0E0B0E080239123A223B32339
:102BC000892B8A2B8B2B41F40E94713C60E370E0CF
:102BD0000E94E93B082F01C00FEFE12CF12C10E01F
:102BE000D11003C0E016F106A9F40E94713C837075
:102BF0006B2D8A9D600D112469830E94713C69814F
:102C00007C2D8091B6050E944314472F282FC701C1
:102C10000E94F8148FEFE81AF80A80E3E816F1042E
:102C2000F9F60F90DF91CF911F910F91FF90EF90E8
:102C3000DF90CF90BF90AF900895CF92DF92EF9248
:102C4000FF921F93CF93DF93809197049091980404
:102C5000A0919904B0919A040090B70504C0880F20
:102C6000991FAA1FBB1F0A94D2F7182F8EEAC82EED
:102C700081E0D82EC0E0D0E09FE3E92EF12CF601F0
:102C800080818F3FE1F0FE01E454FA4F8081F4E04F
:102C90008F9FC00111248034910524F4B701681B73
:102CA000790B02C060E070E0610F7FEF8091B605A4
:102CB0000E944314472F282FCE010E94F81421961A
:102CC00024E0C20ED11CC033D105C9F6DF91CF91EB
:102CD0001F91FF90EF90DF90CF900895CF92DF92F9
:102CE000EF92FF920F931F93CF93DF9380919704FE
:102CF00090919804A0919904B0919A040090B7051E
:102D000004C0880F991FAA1FBB1F0A94D2F7D82EA0
:102D1000C090B6050EEA11E0C0E0D0E08FE3E82EE7
:102D2000F12CF80180818F3FF9F0FE01E454FA4F55
:102D30002081F4E02F9F90011124203431052CF4E0
:102D4000C701821B930B9C0102C020E030E0F80118
:102D500061816D0D620F7FEF8C2D0E944314472F10
:102D6000282FCE010E94F81421960C5F1F4FC0330C
:102D7000D105B9F6DF91CF911F910F91FF90EF90A0
:102D8000DF90CF900895CF92DF92EF92FF920F9352
:102D90001F93CF93DF938091970490919804A09113
:102DA0009904B0919A040090B70504C0880F991F48
:102DB000AA1FBB1F0A94D2F7D82EC090B6050EEA00
:102DC00011E0C0E0D0E08FE3E82EF12CF801808123
:102DD0008F3FF9F0FE01E454FA4F2081F4E02F9F79
:102DE00090011124203431052CF4C701821B930B70
:102DF0009C0102C020E030E0F80162816D0D620F9D
:102E00007FEF8C2D0E944314472F282FCE010E9464
:102E1000F81421960C5F1F4FC033D105B9F6DF912E
:102E2000CF911F910F91FF90EF90DF90CF90089579
:102E30002F923F924F925F926F927F928F929F92CA
:102E4000AF92BF92CF92DF92EF92FF920F931F93B8
:102E5000CF93DF933090B5052090B605609197042D
:102E6000709198048091990490919A040E94033A79
:102E70002BED3FE049E450E40E94133B20E030E0BA
:102E800040E05CE30E94133B6B017C010E945639D9
:102E900020E030E040E05DE30E94133B2B013C0169
:102EA000C701B6010E94803B20E030E040EE52E4D2
:102EB0000E945B394B015C01C0EBD1E000E010E007
:102EC000688170E080E090E00E94053A20E030E008
:102ED00040E052E40E94E438A30192010E94133BB7
:102EE0006B017C01FE013197608170E080E090E031
:102EF0000E94053A20E030E040EE52E40E94E438BF
:102F0000A50194010E94133B9B01AC01C701B601CE
:102F10000E94E53820E030E044E353E40E94133B94
:102F20006B017C018091B305881F8827881F9091D1
:102F3000B405292F220F622F682B97FB772770F992
:102F4000072E000C880B990B0E94053A9B01AC01DF
:102F5000C701B6010E94E5380E94D439732D822D35
:102F60000E944314472F282FC8010E94F8140F5FB6
:102F70001F4F24960033110509F0A2CFDF91CF91A6
:102F80001F910F91FF90EF90DF90CF90BF90AF9087
:102F90009F908F907F906F905F904F903F902F9079
:102FA00008952F923F924F925F926F927F928F92ED
:102FB0009F92AF92BF92CF92DF92EF92FF920F93C8
:102FC0001F93CF93DF93CDB7DEB728970FB6F89452
:102FD000DEBF0FBECDBF8091B5058D839091B60544
:102FE0009E836091970470919804809199049091C8
:102FF0009A040E94033A2BED3FE049E450E40E941A
:10300000133B20E030E040E05CE30E94133B6B01A7
:103010007C010E9456392B013C01C701B6010E9478
:10302000803B69837A838B839C83E0EBF1E0F887B4
:10303000EF8300E010E0EF81F88531972080EF8189
:10304000F885B0803090B705332079F0632D70E0BB
:1030500080E090E00E94053A20E030E040EC5FE341
:103060000E94133B6B017C0106C0C12CD12C90EC5B
:10307000E92E9FE3F92E6B2D70E080E090E00E9436
:10308000053A20E030E040E052E40E94E4389B0141
:10309000AC01C701B6010E94133BA30192010E943B
:1030A000133B4B015C01332079F0632D70E080E02D
:1030B00090E00E94053A20E030E040EC5FE30E949F
:1030C000133B6B017C0106C0C12CD12C80ECE82E97
:1030D0008FE3F82E622D70E080E090E00E94053AC8
:1030E00020E030E040EE52E40E94E4389B01AC0165
:1030F000C701B6010E94133B29813A814B815C8153
:103100000E94133B9B01AC01C501B4010E94E5384C
:103110006B017C018091B305881F8827881F9091DF
:10312000B405292F220F622F682B97FB772770F9A0
:10313000072E000C880B990B0E94053A9B01AC01ED
:10314000C701B6010E94E5380E94D4397D818E8185
:103150000E944314472F282FC8010E94F8140F5FC4
:103160001F4F8F819885049698878F8300331105B0
:1031700009F061CF28960FB6F894DEBF0FBECDBF21
:10318000DF91CF911F910F91FF90EF90DF90CF9043
:10319000BF90AF909F908F907F906F905F904F9077
:1031A0003F902F9008952F923F924F925F926F928F
:1031B0007F928F929F92AF92BF92CF92DF92EF92C7
:1031C000FF920F931F93CF93DF9300D000D01F92F5
:1031D000CDB7DEB72091B5052A838091B6058B83E4
:1031E00060919704709198048091990490919A0449
:1031F0000E94033A2BED3FE049E450E40E94133B68
:1032000020E030E040E05CE30E94133B6B017C0176
:103210000E9456392B013C01C701B6010E94803B38
:103220004B015C01A0EBB1E0BD83AC8300E010E09A
:10323000EC81FD813197B081B983EC81FD813080D3
:103240002090B705222069F0622D70E0660F771F8D
:10325000072E000C880B990B0E94053A6B017C012C
:1032600005C0C12CD12CE12C20E4F22E632D70E09E
:1032700080E090E00E94053A20E030E040E052E437
:103280000E94E4389B01AC01C701B6010E94133BC8
:10329000A30192010E94133B6B017C01222021F0CB
:1032A000312C220C331C03C082E0282E312CF981F2
:1032B0006F2F70E080E090E00E94053A20E030E05F
:1032C00040EE52E40E94E4380E94CD399B0177FF22
:1032D00004C022273327261B370B82E490E0821B91
:1032E000930B289EB001299E700D389E700D1124FD
:1032F000072E000C880B990B0E94053AA50194013A
:103300000E94133B9B01AC01C701B6010E94E53846
:103310006B017C018091B305881F8827881F9091DD
:10332000B405292F220F622F682B97FB772770F99E
:10333000072E000C880B990B0E94053A9B01AC01EB
:10334000C701B6010E94E5380E94D4397A818B8189
:103350000E944314472F282FC8010E94F8140F5FC2
:103360001F4F8C819D8104969D838C8300331105B2
:1033700009F05ECF0F900F900F900F900F90DF919C
:10338000CF911F910F91FF90EF90DF90CF90BF9062
:10339000AF909F908F907F906F905F904F903F90F5
:1033A0002F9008952F923F924F925F926F927F924B
:1033B0008F929F92AF92BF92CF92DF92EF92FF9245
:1033C0000F931F93CF93DF9300D01F92CDB7DEB73B
:1033D0002090B5058091B60589836091970470911E
:1033E00098048091990490919A040E94033A20E0F5
:1033F00030E040E85BE30E94133B20E030E040E631
:1034000053E40E94133B2B013C01E0EBF1E0FB8312
:10341000EA8300E010E0EA81FB8131973080EA81A5
:10342000FB81E080F090B705FF2079F06F2D70E010
:1034300080E090E00E94053A20E030E040EC5FE35D
:103440000E94133B4B015C0106C0812C912C90EC37
:10345000A92E9FE3B92E6E2D70E080E090E00E94CF
:10346000053A20E030E040E052E40E94E4380E9457
:10347000CD399B0177FF04C022273327261B370B4A
:10348000B901330F880B990B0E94053A9B01AC01DF
:10349000C501B4010E94133B2EE23DEB4BEB53EB15
:1034A0000E94133B4B015C01FF2079F06F2D70E00F
:1034B00080E090E00E94053A20E030E040EC5FE3DD
:1034C0000E94133B6B017C0106C0C12CD12C80EC07
:1034D000E82E8FE3F82E632D70E080E090E00E94EC
:1034E000053AA30192010E94E4389B01AC01C70197
:1034F000B6010E94133B9B01AC01C501B4010E94BF
:10350000E4386B017C018091B305881F8827881FF0
:103510009091B405292F220F622F682B97FB7727F4
:1035200070F9072E000C880B990B0E94053A9B013D
:10353000AC01C701B6010E94E5380E94D439722D52
:1035400089810E944314472F282FC8010E94F81434
:103550000F5F1F4F8A819B8104969B838A83003370
:10356000110509F058CF0F900F900F90DF91CF9178
:103570001F910F91FF90EF90DF90CF90BF90AF9091
:103580009F908F907F906F905F904F903F902F9083
:103590000895CF92DF92FF920F931F93CF93DF9303
:1035A0001F92CDB7DEB7F82E0091970410919804C2
:1035B0002091990430919A049091B705992359F07C
:1035C000692F70E08AE090E00E94E93BAB01770F41
:1035D000660B770B04C04AE050E060E070E04023E7
:1035E000512362237323452B462B472B39F40E942A
:1035F000713C60E370E00E94E93B01C08FEF00E0A6
:1036000010E0C82ED12CF11003C00C151D0581F45B
:103610000E94713C89830E94713C782F698180915E
:10362000B6050E944314472F282FC8010E94F814A2
:103630000F5F1F4F0033110531F70F90DF91CF91CE
:103640001F910F91FF90DF90CF90089508950E94F1
:10365000261B0C94730C4091B30540FD0AC00E94D8
:1036600002150E94271B8091B305817080939B01F6
:10367000089580919104843120F48F5F80939104A8
:1036800008958091970490919804A0919904B09125
:103690009A040196A11DB11D8093970490939804FC
:1036A000A0939904B0939A04809193049091940408
:1036B000A0919504B09196048F3F2FEF9207A20737
:1036C000B20759F00196A11DB11D80939304909308
:1036D0009404A0939504B093960480919204ECEB2B
:1036E000F5E090819F3F61F09E3F41F4282F30E04C
:1036F0002230310514F0815001C080E09F5F90833B
:10370000319695E0EC3EF90761F780939204E42F3F
:10371000E695EF7380919A01E81307C081E09091DC
:103720009B01913019F480E001C081E08170E09349
:103730009A0191E090939B014E2F50E0FA0131974E
:10374000EB30F10520F5E358FF4F0C941F3C0E942D
:1037500007151DC00E9418171AC00E941C1517C01B
:103760000E948E1514C00E941D1611C00E946E1674
:103770000EC00E94C3160BC00E94D11708C00E9441
:10378000D31805C00E94D21902C00E94C91A0C9415
:10379000271BE091D603F091D7030995ECEBF5E0F8
:1037A0008FEF819395E0EC3EF907D9F70E94702DD9
:1037B000811104C00E94DE2D0E94E3140E94D914DE
:1037C0006093B3057093B4058093B5059093B605E7
:1037D0006E7761F40E94E3140E94D9146093B305DC
:1037E0007093B4058093B5059093B60508956091E4
:1037F0009704709198048091990490919A04089587
:10380000E3EBF5E08081982F909590FB80F9808321
:1038100060817181828193810C94DD149091B30554
:10382000892F86958F5F8F7391788C3018F4880F6D
:10383000892B02C0892F82608093B3056091B30504
:103840007091B4058091B5059091B6050C94DD1486
:103850009091B305892F8695815C8F739178882329
:1038600019F0880F892B02C0892F86618093B305D8
:103870006091B3057091B4058091B5059091B6053E
:103880000C94DD148091B305982F991F9927991FE7
:103890008091B405880F892B90E008968F3F9105A1
:1038A00019F014F08FEF90E02091B30580FB27F919
:1038B0002093B305282F26958091B4058078822B1C
:1038C00090FB87F98093B4056091B3057091B405BE
:1038D0008091B5059091B6050C94DD148091B305E7
:1038E000982F991F9927991F8091B405880F892BCC
:1038F00090E0089797FF02C080E090E08F3F91052D
:1039000019F014F08FEF90E02091B30580FB27F9B8
:103910002093B305282F26958091B4058078822BBB
:1039200090FB87F98093B4056091B3057091B4055D
:103930008091B5059091B6050C94DD148091B50584
:1039400090E008968F3F910519F014F08FEF90E00A
:103950008093B5056091B3057091B4058091B5056C
:103960009091B6050C94DD148091B50590E0089710
:1039700097FF02C080E090E08F3F910519F014F0AE
:103980008FEF90E08093B5056091B3057091B40519
:103990008091B5059091B6050C94DD148091B60523
:1039A00090E008968F3F910519F014F08FEF90E0AA
:1039B0008093B6056091B3057091B4058091B5050B
:1039C0009091B6050C94DD148091B60590E00897AF
:1039D00097FF02C080E090E08F3F910519F014F04E
:1039E0008FEF90E08093B6056091B3057091B405B8
:1039F0008091B5059091B6050C94DD148091B705C2
:103A000090E001968430910514F083E090E080937B
:103A1000B7056091B3057091B4058091B50590919B
:103A2000B6050C94DD148091B70590E0019797FFDF
:103A300002C080E090E08430910514F083E090E0D3
:103A40008093B7056091B3057091B4058091B50579
:103A50009091B6050C94DD14E3EBF5E08F73982F8D
:103A6000990F80818178892B808360817181828127
:103A700093810C94DD14E3EBF5E08F73982F990F8D
:103A800080818178892B808308958091B305869504
:103A90008F730895E3EBF5E0208180FB27F9208305
:103AA000A4EBB5E086952C912078822B90FB87F9CA
:103AB0008C936283438360817181828193810C94B2
:103AC000DD14E3EBF5E0208180FB27F92083A4EBF4
:103AD000B5E086952C912078822B90FB87F98C930A
:103AE00062834383089567E784E70C94481FCF936C
:103AF0000E94871F84E70E94CD1D87E70E94CD1D8D
:103B0000C0E021E041E061E08C2F0E945F1ECF5FAA
:103B1000C033B9F767E784E7CF910C945B1FECE003
:103B2000F7E06083418324E630E042E050E0BF01EB
:103B3000880F0C945D20EF92FF921F93CF93DF9339
:103B40007B01182F110FC0E0D0E08C2F8C5D80938B
:103B50000C0720E030E0F901EC0FFD1FEE0DFF1D1A
:103B60008081F901E45FF84F81832F5F3F4F20315F
:103B7000310589F724E630E041E150E06CE077E080
:103B8000812F0E945D206096C039D105F1F6DF914A
:103B9000CF911F91FF90EF900895CF93DF93C82F9F
:103BA0004BE06DEF0E948F1D40E06AE08C2F0E9479
:103BB0008F1D8FE39CE90197F1F700C0000040E002
:103BC00060E08C2F0E948F1D40E061E08C2F0E94EE
:103BD0008F1D40E066E08C2F0E948F1D40E06DEF4E
:103BE0008C2F0E948F1DD0E040E06D2F8C2F0E9403
:103BF0008F1DDF5FD231C1F740E06D2F8C2F0E9407
:103C00008F1DDF5FD432C1F740E06D2F8C2F0E94F3
:103C10008F1DDF5FD43BC1F74BE06DEF8C2F0E940F
:103C20008F1D41E06AE08C2F0E948F1D40E06DEFF8
:103C30008C2FDF91CF910C948F1D8033910520F54F
:103C4000880F991F880F991FFC01E259FD4F52817F
:103C50003381808183707181E0E98E9FC0011124DE
:103C600084519A4FFC01E70FF11DB4976083FC016A
:103C7000E50FF11DB4974083830F911DFC01B497AC
:103C8000208381E08093C0040895FF920F931F93D7
:103C9000CF93DF93182F062FF42EC0E0D0E02F2D06
:103CA000402F612FCE010E941D1E2196C033D105E9
:103CB000B1F7DF91CF911F910F91FF9008954F922F
:103CC0005F927F928F929F92AF92BF92CF92DF923C
:103CD000EF92FF920F931F93CF93DF93362F54E011
:103CE000859FC0011124FC01E259FD4FA081A37002
:103CF0007A2E618170E0CB0184978C0197FF02C01E
:103D0000095F1F4FA3E015950795AA95E1F762811A
:103D100070E07B0154E2E51AF108E701F7FC279611
:103D200073E0D595C7957A95E1F7638170E04B0113
:103D3000E4E28E1A9108F40197FC37962F0153E0C4
:103D4000559447945A95E1F768E0A62EB12CB50139
:103D50000E94E93B6C01C701B5010E94E93B7C016F
:103D6000C401B5010E94E93BA72DB0E01127DD2475
:103D70003323A1F032E13A9FB0013B9F700D112433
:103D8000060F171F04561B4F61E070E001C0660F5D
:103D9000CA94EAF7F8013081632B14C032E13A9FEC
:103DA000B0013B9F700D1124060F171F04561B4FC7
:103DB00061E070E001C0660FCA94EAF76095F8010F
:103DC000308163236083DD27FF2432E1442391F0B7
:103DD0003A9FA0013B9F500D1124C40FD51FC4561C
:103DE000DB4F41E050E001C0440FEA94EAF738812C
:103DF000432B12C03A9FA0013B9F500D1124C40FCA
:103E0000D51FC456DB4F41E050E001C0440FEA9497
:103E1000EAF74095388143234883A2015527992723
:103E200092E19A9FF0019B9FF00D1124E40FF51F82
:103E3000E456FB4F222361F021E030E0A90102C0EB
:103E4000440F551F8A95E2F7CA019081892B0CC057
:103E500021E030E0A90102C0440F551F8A95E2F726
:103E6000CA01809590818923808381E080939B049F
:103E7000DF91CF911F910F91FF90EF90DF90CF9046
:103E8000BF90AF909F908F907F905F904F900895DC
:103E9000CF939091C004992351F0C62F6CEE75E03A
:103EA0000E949B1D6CE776E08C2F0E949B1D109258
:103EB000C004CF910895EF92FF920F931F93CF9379
:103EC000DF9390919B049923D9F0162F082F8CE94A
:103ED000E82E84E0F82EC0E0D0E0F70141917F01A8
:103EE0006C2F802F0E948F1DFE01E456FB4F4289EC
:103EF0006C2F812F0E948F1D2196C231D10569F749
:103F0000DF91CF911F910F91FF90EF900895109244
:103F1000B9008CE08093B8000895EF92FF920F9360
:103F20001F93CF93DF93182FEB011092BC0084EA0C
:103F30008093BC000E94F22E7C019091BC0097FD02
:103F40000EC0CF3F8FEFD807C1F30E94F22E8E191B
:103F50009F098C179D0788F38EEF9FEF2EC09091DD
:103F6000B900987F983041F09091B900987F9031D6
:103F700019F08FEF9FEF21C01093BB0084E880936E
:103F8000BC000E94F22E8C019091BC0097FD0CC0E9
:103F9000CF3F8FEFD807C1F30E94F22E801B910B09
:103FA0008C179D0788F3D8CF8091B900887F88311E
:103FB00011F08034F1F680E090E0DF91CF911F9115
:103FC0000F91FF90EF9008950F931F93CF93DF937E
:103FD000EB018093BB0084E88093BC000E94F22E2A
:103FE0008C019091BC0097FD0EC0CF3F8FEFD8079A
:103FF000C1F30E94F22E801B910B8C179D0788F352
:104000008EEF9FEF0CC02091B900287F81E090E0F7
:10401000283211F480E090E0919581959109DF912B
:10402000CF911F910F9108950F931F93CF93DF931B
:10403000EC0184E88093BC000E94F22E8C019091E8
:10404000BC0097FD0EC0CF3F8FEFD807C1F30E9491
:10405000F22E801B910B8C179D0788F38EEF9FEF3C
:1040600003C08091BB0090E0DF91CF911F910F9131
:1040700008950F931F93CF93DF93EC0184E980930E
:10408000BC000E94F22E8C019091BC0094FF0EC0E7
:10409000CF3F8FEFD807C1F30E94F22E801B910B08
:1040A0008C179D0788F38EEF9FEF02C080E090E0B1
:1040B000DF91CF911F910F910895CF92DF92EF92F0
:1040C000FF920F931F93CF93DF936B017A018901C6
:1040D000B9010E948D1FFC01892BC9F4E601EC0C8B
:1040E000FD1CCE15DF0541F0B80189910E94E41F47
:1040F000FC01892BB1F30BC0C801DF91CF911F9157
:104100000F91FF90EF90DF90CF900C943920CF016A
:10411000DF91CF911F910F91FF90EF90DF90CF90A3
:1041200008959093C6048093C5040895E091C50452
:10413000F091C604309721F00190F081E02D0994B0
:1041400080E00895E091C504F091C604309799F09D
:104150002091AD01222359F02091260727FF07C0A7
:10416000DC012C9111962C93119725E02C93028061
:10417000F381E02D09940895E091C504F091C604FF
:10418000309739F022E0DC012C930480F581E02D9A
:10419000099408952091C3043091C40482179307B1
:1041A00071F09093C4048093C304E091C504F0912E
:1041B000C604309721F00680F781E02D0994089518
:1041C0002091C1043091C2048217930771F090933B
:1041D000C2048093C104E091C504F091C6043097F5
:1041E00021F00084F185E02D0994089585B7806859
:1041F00085BF85B7806885BF089508950E94F62021
:104200000C94FD2081E008950E94E92E0E94E306AF
:104210000C94802FCF92DF92EF92FF920F931F9317
:10422000CF93DF93CDB7DEB72B970FB6F894DEBFF1
:104230000FBECDBF0E94B5070E940221811111C09F
:104240008FEF89838A831B820E94F22E8160782FF0
:104250009D838C8349815A816B818D810E94EE21DF
:1042600056C088ECC82E84E0D82E00E010E0E02E86
:10427000802F0E94FD07F60141916F01F42EF82670
:1042800031F40F5F1F4F0E30110589F7D9CF909190
:10429000830591FF04C08B870E9403088B8520E073
:1042A00030E04F2D50E0922FBA01022E02C07595DA
:1042B00067950A94E2F760FF24C02E83EF8221E025
:1042C00030E0690102C0CC0CDD1C9A95E2F790E069
:1042D0008C219D21892B09F420E028870E94F22E51
:1042E0008160782F9A8789874E815F8168858A856A
:1042F0000E94EE21F801E853FB4F8081C826C0825E
:1043000006C02F5F3F4F2630310569F6BACF0E94B5
:1043100013311091C7040E9496201817A1F00E9433
:1043200096208093C7042B960FB6F894DEBF0FBE7D
:10433000CDBFDF91CF911F910F91FF90EF90DF9054
:10434000CF900C94540E2B960FB6F894DEBF0FBE90
:10435000CDBFDF91CF911F910F91FF90EF90DF9034
:10436000CF900895DC0111962C9111978C91682FB4
:1043700070E041E050E001C0440F8A95EAF71296E0
:104380008C91129730E0882329F08091E6048823ED
:10439000E9F006C0F901EA52FB4F90819423B1F095
:1043A00086E0829FF001839FF00D1124E60FF71F36
:1043B000EE0FFF1FE25DFC4F808191818D939C93F6
:1043C000F901EA52FB4F8081482B06C0F901EA52FD
:1043D000FB4F40958081482340830895CF93DF931E
:1043E000CDB7DEB72B970FB6F894DEBF0FBECDBFAB
:1043F000942F4F83252F588769877A878B874A8523
:104400005B85452B21F02F3F09F59F3FF9F4DE0135
:10441000119686E0FD0111928A95E9F785E0FE018B
:10442000379601900D928A95E1F749815A816B8107
:104430007C818D819E810E9482292B960FB6F894F3
:10444000DEBF0FBECDBFDF91CF910895CE0107969D
:104450000E94B221DCCFFC01808191810E944F2C0F
:1044600092959F70963041F48091E60491E08927FF
:104470008093E6049093E5040895882309F41AC113
:104480008238C1F40E94962081FD14C169E38091B5
:104490009C0190919D010E94452E0E94AE2C2FEF11
:1044A00081EE94E0215080409040E1F700C0000090
:1044B00069E319C08338F9F40E94962080FDFAC0A0
:1044C00063E580919C0190919D010E94452E0E9480
:1044D000AE2C2FEF81EE94E0215080409040E1F728
:1044E00000C0000063E580919C0190919D010E94B5
:1044F000502E0C94AE2C8438C1F40E94962082FD7C
:10450000D9C067E480919C0190919D010E94452E45
:104510000E94AE2C2FEF81EE94E02150804090401D
:10452000E1F700C0000067E4DECF9CEF980F913AFE
:1045300040F4682F80919C0190919D010E94452E2E
:10454000D8CF90E2980F983050F4877091E001C076
:10455000990F8A95EAF7892F0E94E42CCACF9BE530
:10456000980F933070F4853A29F0863A31F083E859
:1045700090E005C081E890E002C082E890E00C94F1
:10458000CA2098E5980F973108F08EC0883A09F450
:1045900045C0893A09F445C08A3A09F445C08B3AC6
:1045A00009F445C08C3A09F445C08B3B09F445C079
:1045B0008C3B09F445C08D3A09F445C0803B09F4B1
:1045C00045C08E3A09F445C08F3A09F445C0813B95
:1045D00009F445C0823B09F445C0833B09F445C05A
:1045E000843B09F445C0853B09F445C0863B09F48A
:1045F00045C0873B09F445C0883B09F445C0893B69
:1046000009F445C08D3B09F445C08E3B09F445C013
:104610008A3B09F445C080E090E044C082EE90E01F
:1046200041C089EE90E03EC08AEE90E03BC085EB51
:1046300090E038C086EB90E035C083EB90E032C06C
:1046400084EB90E02FC087EB90E02CC08CEC90E0E6
:1046500029C08DEC90E026C083E891E023C08AE871
:1046600091E020C082E991E01DC084E991E01AC088
:1046700081E292E017C083E292E014C084E292E00B
:1046800011C085E292E00EC086E292E00BC087E2A4
:1046900092E008C08FE690E005C080E790E002C09D
:1046A0008AE292E00C94E020803F20F00E941B30D0
:1046B0000C9408310895882309F464C0823879F491
:1046C0000E94962081FF5EC069E380919C019091D9
:1046D0009D010E94452E0E94AE2C69E310C08338D4
:1046E000B1F40E94962080FF4DC063E580919C014B
:1046F00090919D010E94452E0E94AE2C63E5809111
:104700009C0190919D010E94502E0C94AE2C8438F7
:1047100079F40E94962082FF35C067E480919C0165
:1047200090919D010E94452E0E94AE2C67E4E7CF38
:104730009CEF980F913A10F4682FE1CF90E2980F18
:10474000983050F4877091E001C0990F8A95EAF78C
:10475000892F0E94EA2CD9CF9BE5980F933020F443
:1047600080E090E00C94CA2098E5980F973120F4EF
:1047700080E090E00C94E020803F20F00E948330A5
:104780000C9408310895CF93C82F0E943D228C2F9E
:10479000CF910C945B23882321F00E94E42C0C948D
:1047A000AE2C0895882321F00E94EA2C0C94AE2CA4
:1047B00008958F929F92AF92BF92DF92EF92FF92F5
:1047C0000F931F93CF93DF937C01D62FC72FFC014C
:1047D000058102950F70128111110E94042D0E9413
:1047E000A72C882379F0112369F080E28D0F88309F
:1047F00048F082E00E94902C0E94A72C91E0D82ED5
:10480000D92601C0D12CAC2EA2948FE0A822B12CC5
:10481000F501E857FF4F0C941F3C8C2F807FCF7021
:10482000882311F0C295C07F112399F0CC2309F49D
:10483000C8C180E28D0F883010F0D11104C08C2FD8
:104840000E94E42C03C08C2F0E94F72C0E94AE2CF7
:10485000B8C18D2F0E945B23CC2309F42EC280E2C5
:104860008D0F883010F0D11104C08C2F0E94EA2CDB
:1048700003C08C2F0E94FD2C0E94AE2C1EC28C2FD8
:10488000807FCF70803211F0C295C07FDD2319F098
:10489000D130C9F021C0112371F0002341F0013063
:1048A00031F40E941D2D8C2B0E94172D06C20E94F0
:1048B0001D2D8C2B3FC1002319F0013009F4FDC1DF
:1048C0000E941A2D11C0112321F0023008F0F5C109
:1048D00007C00111F2C108C0112321F0011171C1FB
:1048E0008C2F28C101117EC18C2F2AC18C2F869557
:1048F0008695837090E0009719F0019761F0DDC113
:10490000112321F08D2F9C2F937002C080E090E046
:104910000E94CA20E2C1112321F08D2F9C2F937099
:1049200002C080E090E00E94E020D7C11123F9F09E
:10493000D53F51F0D63F71F0D43FA9F480912007C4
:104940009091210781600BC08091200790912107F1
:10495000826005C080912007909121078460909328
:104960002107809320078D2F0E941B301EC0D53F4A
:1049700051F0D63F71F0D43FA9F480912007909177
:1049800021078E7F0BC080912007909121078D7F9A
:1049900005C080912007909121078B7F909321077C
:1049A000809320078D2F0E9483300E94083195C18B
:1049B0008C2F837009F050C011118BC18D2F8295FF
:1049C00086958770880F880F9D2F9F70892E912C58
:1049D000A12CB12C082E04C0880C991CAA1CBB1C4D
:1049E0000A94D2F7D4FF14C00FE010E020E030E0CA
:1049F000B901A80104C0440F551F661F771F8A958F
:104A0000D2F7CB01BA01609570958095909503C05F
:104A100060E070E0CB01C695C695C370D0E0C230AF
:104A2000D10561F0C330D10581F0682979298A293F
:104A30009B29219771F00E94C72A4BC168297929C7
:104A40008A299B290E94D92A44C10E94C72AC501EC
:104A5000B4010E94B52A3DC1112319F08C2F817039
:104A600001C08695882309F434C18D2F82958695DF
:104A70008770880F880F9D2F9F70892E912CA12CF5
:104A8000B12C082E04C0880C991CAA1CBB1C0A94CB
:104A9000D2F7D4FF14C00FE010E020E030E0B901FD
:104AA000A80104C0440F551F661F771F8A95D2F7CF
:104AB000CB01BA01609570958095909503C060E038
:104AC00070E0CB01C695C695C3704C2F50E04230C4
:104AD000510569F04330510589F0682979298A29FF
:104AE0009B294130510571F00E948C2BF2C068293E
:104AF00079298A299B290E949E2BEBC00E948C2B2E
:104B0000C501B4010E947A2BE4C08D2F90E0FC0116
:104B1000E05EF109E531F10508F04FC0E856FF4FBE
:104B20000C941F3CDF708C2F8F71112331F00E9489
:104B3000132B8D2F0E94CB23C0C00E94342B8D2FAE
:104B40000E94D223BAC0112339F00111B6C08C2FB4
:104B50008F710E94592BB1C0023008F0AEC0F7CF60
:104B6000112339F08C2F8F710E94132BA6C01123B3
:104B7000C9F38C2F8F710E94342B9FC0112329F011
:104B80008C2F8F710E94FE2A98C00E94F92A95C02E
:104B9000112349F0CF718C2F0E94132B63E08C2FCF
:104BA0000E94872C8AC081E00E94902C023008F479
:104BB00084C082E00E94902C80C0112331F0002339
:104BC00089F28D2F0E943D2278C0002391F2D933C3
:104BD00049F45FEF67EE73E0515060407040E1F7D9
:104BE00000C000008D2F0E945B2367C04C2F4F70C8
:104BF0006D2FC7010E94D70C0E94262A6EC0D23F9B
:104C0000B1F028F4D03F49F0D13FF9F028C0D43FAB
:104C1000B9F058F0D53F71F022C0112309F447C014
:104C20009091E60481E0892708C081E0182710935D
:104C3000E6043DC011113BC081E08093E60437C01B
:104C4000111135C01092E60432C0112329F0809171
:104C5000E504882329F329C0002311F328C080919B
:104C6000E5040023C1F0882341F09091E60481E03F
:104C700089278093E6041092E5048D2F112319F003
:104C80000E943D2214C00E945B2386E0F70111922E
:104C90008A95E9F70CC0882351F0111108C0909152
:104CA000E60481E089278093E6041092E5044C2F06
:104CB0004F706D2FC7010E940011F8E0AF16B104CC
:104CC00041F05CF04AE0A41AB10852E0A516B10424
:104CD00020F40E9496200E94540EDD20E1F00E94F4
:104CE000832C80FD18C0F70112820E947D2C0E9447
:104CF000132BC7010E9497260E947D2CDF91CF9134
:104D00001F910F91FF90EF90DF90BF90AF909F9019
:104D10008F900C94342BDF91CF911F910F91FF90C6
:104D2000EF90DF90BF90AF909F908F9008950F937A
:104D30001F93CF93DF93EC01888199812B813C8174
:104D4000232BB9F09F3F11F48F3F99F0CE010E94C1
:104D5000660E882371F0688179818A810E945A2CBD
:104D60008C010E94B02B0E94B22AB801CE010E9491
:104D7000D923DF91CF911F910F9108950E94042DA7
:104D80000E94142D0E94AE2C0E94AE310E94083168
:104D900080E090E00E94CA2080E090E00C94E02047
:104DA00080919C0190919D010E945B2E0C94BE26E7
:104DB0000E94F42C0C94D026E92FE295EF70F0E0DD
:104DC0003297EE30F105B0F4E355FF4F0C941F3CE1
:104DD000803F91F018F4803E68F40EC0843F51F497
:104DE0000BC0803E48F0813F29F406C093FB882722
:104DF00080F9089580E0089581E008950E944F2C85
:104E00000E94DC260895CF93DF9300D000D01F923C
:104E1000CDB7DEB70F900F900F900F900F90DF91EE
:104E2000CF910895CF93DF9300D000D000D0CDB7BD
:104E3000DEB726960FB6F894DEBF0FBECDBFDF916A
:104E4000CF9108951F93CF93DF93C091E70416E0AD
:104E50008091E804C81799F0D0E01C9FF0011D9FD5
:104E6000F00D1124E751FB4F408151816281738124
:104E7000848195810E9412272196C770E9CFDF9126
:104E8000CF911F9108954091190550911A05609195
:104E90001B0570911C0580911D0590911E050C94B9
:104EA000122780911E0582958F7009F054C0809161
:104EB0001B05882309F44FC08091E704A091E80402
:104EC0006091190570911A0540911C0550911D05BE
:104ED000B6E08A1709F43FC090E041155105C1F1D1
:104EE0007F3F11F46F3FA1F1B89FF001B99FF00D22
:104EF0001124E751FB4F218172132AC020816213D4
:104F000027C02281211124C0238134812417350731
:104F100010F421503109241B350B283C3105C0F415
:104F200020911E052F70206120931E0526E0289FEA
:104F3000F001299FF00D1124E251FB4F80818F7009
:104F40008061808389E195E00E9497260C94222756
:104F500001968770BECF0895CF92DF92EF92FF92B5
:104F60000F931F93CF93DF93CDB7DEB762970FB642
:104F7000F894DEBF0FBECDBF8C0185E0F801DE01E5
:104F80001D9601900D928A95E1F7D8014C911196EA
:104F90005C91119712966C9112971396CD90DC90BC
:104FA00014973091190570911A0580911C05909104
:104FB0001D05009709F46BC17F3F19F43F3F09F4C9
:104FC00066C1E0901B05EE2009F4C0C020911E05CB
:104FD000C816D90628F0F601E81BF90BCF0104C06A
:104FE000809590958C0D9D1DFF24F394883C910530
:104FF00078F0F12C207F09F0C6C07C2DD98AC88AB0
:1050000089890E94032789E195E00E949726B1C013
:10501000822F807F09F046C0751314C0341312C06C
:10502000611110C02F70206120931E050E9443273C
:1050300089E195E00E94972680911E05D80115967A
:105040008C932EC0CD2819F15F3F11F44F3FF9F03A
:10505000F62E61111CC08091E7042091E80436E02F
:10506000821709F45AC090E0389FF001399FF00D83
:105070001124E751FB4F7181571306C0708147130C
:1050800003C07281711103C001968770E9CFF62EBB
:10509000662309F427C180911E05816080931E0557
:1050A000F12C20C1751308C0341306C0611104C06F
:1050B00080911E05D801C3C04D875E878D859E8572
:1050C0006A8B0E94FE266A898823E1F16623D1F16A
:1050D00020911E05822F82958F7090E0029774F0C8
:1050E0008091190590911A0598878F831986DB8620
:1050F000CA862C87CE0107960E94972686E0F80183
:10510000A9E1B5E001900D928A95E1F70E9451273F
:105110000E944327FF24F394E5C04D875E878D8569
:105120009E850E944F2C292F22952F7030E022302F
:1051300031050CF0CBC09F7009F0C5C0805E88308F
:1051400008F4D0C0C8010E949726E4CFC816D9063B
:1051500008F453C0F601E81BF90BCF01883C910518
:1051600008F450C0F12C7C2DD98AC88A89890E9404
:105170000327E9E1F5E086E0DF011D928A95E9F772
:105180000E944327AFC0751314C0341312C06111BD
:1051900010C080911E05F8018583C8010E949726E2
:1051A00086E0E9E1F5E0DF011D928A95E9F7FE2C42
:1051B00099C04D875E878D859E856A8B0E94FE26ED
:1051C0006A89882309F4BECF662309F4BBCF2091F6
:1051D0001E05822F82958F7090E002970CF48ECF7F
:1051E0008091190590911A059A8389831B82DD822B
:1051F000CC822E83CE0101967FCF809590958C0D29
:105200009D1DACCFF62E662309F49CCF75132EC0DE
:1052100034132CC020911E0520FD1FC0822F8295C3
:105220008F70D9F0D80115962C9315978F3049F0CF
:105230008F5F982F9295907F822F8F70892B159674
:105240008C93C8010E94972686E0F801A9E1B5E099
:1052500001900D928A95E1F793CF86E0F801A9E1DC
:10526000B5E001900D928A95E1F73CC04D875E87CD
:105270008D859E850E94FE26811140CF80911E055E
:10528000816080931E05C8010E9497262BC066236B
:1052900009F458CF4D875E878D859E850E94FE2636
:1052A000F82E882309F44ECF86E0F801A9E1B5E095
:1052B00001900D928A95E1F789E195E00E942B22F9
:1052C0000E9451275DCF811139CF0CC024303105A8
:1052D0000CF038CF9F7009F431CFF8019581907FA1
:1052E00009F02CCF8F2D62960FB6F894DEBF0FBE5B
:1052F000CDBFDF91CF911F910F91FF90EF90DF9085
:10530000CF9008951F93CF93DF93CDB7DEB72C973F
:105310000FB6F894DEBF0FBECDBF4F8358876987A5
:105320007A878B879C87CE0107960E94AC278823BB
:1053300069F08F8198852A853B85232BF1F19F3F6A
:1053400009F063C08F3F09F060C037C086E0FE01FE
:105350003796DE01119601900D928A95E1F76F81E3
:105360007885EA85FB85309741F17F3F11F46F3FE7
:1053700021F12091E80430E0C90101968770992756
:105380004091E70450E08417950709F447C069830A
:105390007A83FD83EC8396E0929FD001939FB00DBA
:1053A0001124A751BB4FFE01319601900D929A95A1
:1053B000E1F78093E8040E94222716E08091E70439
:1053C0009091E8048917C1F1189FC00111248751F9
:1053D0009B4F0E94AC27882379F1E091E7041E9F40
:1053E000F0011124E751FB4F4081518162817381AB
:1053F000848195810E9412278091E70490E00196B4
:10540000877099278093E704D9CF4F8158856985A4
:105410007A858B859C850E941227CFCF0E94D82643
:105420001092E8041092E704E9E1F5E086E0DF017C
:105430001D928A95E9F7C1CF2C960FB6F894DEBF7E
:105440000FBECDBFDF91CF911F910895EF92FF92D4
:105450000F931F93CF93DF938C01892B09F46CC0BA
:10546000F12CEE24E394E8012196F801849184372D
:1054700040F4843008F051C0813081F0823019F15D
:105480005BC0853709F444C0A8F19CE7980F9037BA
:1054900008F052C08F770E945B2341C00E5F1F4F00
:1054A000FE01C49180E28C0F883048F4C7708E2DC5
:1054B00001C0880FCA95EAF70E94072D14C08C2FEF
:1054C0000E943D222DC00E5F1F4FFE01C49180E25D
:1054D0008C0F883058F4C7708E2D01C0880FCA9584
:1054E000EAF70E940D2D0E94AE2C1AC08C2F0E944C
:1054F0005B2316C00E5F1F4FFE01C491CC2381F0C9
:105500008FE99FE00197F1F700C00000C150F6CF8E
:105510000E5F1F4FFE01F49003C00E943D228E01DA
:105520008F2D882309F49FCFEFE9FFE03197F1F742
:1055300000C000008150F5CFDF91CF911F910F91F6
:10554000FF90EF90089508950C94A32A0E94A42A36
:1055500060935A0570935B0580935C0590935D059D
:105560000C94BE2608950C94A62A0F931F930091C5
:105570005A0510915B0520915C0530915D05602B0B
:10558000712B822B932B1F910F910C94A62A0F93B2
:105590001F9300915A0510915B0520915C05309195
:1055A0005D0560237123822393231F910F910C9437
:1055B000A62A0F931F9300915A0510915B05209125
:1055C0005C0530915D0560277127822793271F9125
:1055D0000F910C94A62A0C94910D0E94EB2A6093D3
:1055E00056057093570580935805909359050C9470
:1055F000BE2660E070E0CB010C94ED2A0F931F9360
:1056000041E050E060E070E08A019B0104C0000FBF
:10561000111F221F331F8A95D2F7C901B8011F91AC
:105620000F910C94ED2A0F931F9341E050E060E03E
:1056300070E004C0440F551F661F771F8A95D2F78C
:105640008091560590915705A0915805B091590544
:105650008A019B01082B192B2A2B3B2BC901B8016E
:105660001F910F910C94ED2A0F931F9341E050E08E
:1056700060E070E004C0440F551F661F771F8A95D5
:10568000D2F7409550956095709580915605909110
:105690005705A0915805B09159058A019B0108232F
:1056A00019232A233B23C901B8011F910F910C94A0
:1056B000ED2A0F931F9341E050E060E070E004C0DA
:1056C000440F551F661F771F8A95D2F780915605A4
:1056D00090915705A0915805B09159058A019B01F9
:1056E000082719272A273B27C901B8011F910F91C5
:1056F0000C94ED2A0F931F930091560510915705B6
:105700002091580530915905602B712B822B932BDA
:105710001F910F910C94ED2A0F931F930091560542
:105720001091570520915805309159056023712338
:10573000822393231F910F910C94ED2A0F931F93B3
:105740000091560510915705209158053091590543
:1057500060277127822793271F910F910C94ED2AC0
:105760000895292F220F920F990F890FA82FA69520
:10577000A695A695877051E001C0550F8A95EAF766
:1057800085E0A89FD001112420E030E070E0F9010D
:10579000EA0FFB1FE15EFA4F4081CB01022E02C0EF
:1057A000969587950A94E2F78170992781958427C9
:1057B0008523842780832F5F3F4F2530310539F7BC
:1057C0000895292F220F920F990F890F682F669540
:1057D00066956695982F977085E0689FB0011124B3
:1057E00040E050E080E0FA01E60FF71FE15EFA4F7B
:1057F000208130E0092E02C0369527950A94E2F701
:1058000021703327042E01C0220F0A94EAF7822B5D
:105810004F5F5F4F4530510531F70895BF92CF92EA
:10582000DF92EF92FF920F931F93CF93DF938C0140
:10583000C0905A05D0905B05E0905C05F0905D0546
:105840008091560590915705A0915805B091590542
:10585000C82AD92AEA2AFB2ACFE1D0E0D701C6011B
:105860000C2E04C0B695A795979587950A94D2F704
:1058700080FF07C0BC2EB8018C2F0E941B1101971E
:1058800019F4219758F7B12C8B2DDF91CF911F91EF
:105890000F91FF90EF90DF90CF90BF900895CF933E
:1058A000DF93EC010E940E2CBE010E941B11DF91C0
:1058B000CF9108951F93CF93DF93EB019091E40470
:1058C000992321F0CB010E944F2C13C0882349F06B
:1058D000CB010E940E2C182F682FCE010E94B12BF5
:1058E00004C0CB010E94E12B182FBE01812F0E9422
:1058F0001B11DF91CF911F91089580915E058595D1
:1059000085958595089580915E058770089598E046
:10591000899F90011124262B20935E050C94132B54
:1059200020915E058095822380935E05982F977065
:1059300069F430E0482F082E000C550B241735076A
:1059400029F08595859585950C94342B0895909133
:105950005E05977081E009F480E00895E0919C0174
:10596000F0919D01809182058083E0919C01F091EE
:105970009D01908180918105892B8083E0919C011C
:10598000F0919D01908180918005892B8083809189
:105990005F05882381F0E0919C01F0919D01908149
:1059A000892B808380919C0190919D010E94E02D24
:1059B000811110925F0580919C0190919D010C9442
:1059C000A22080918205089590918205892B809371
:1059D00082050895809590918205892380938205A0
:1059E00008958093820508951092820508959091FC
:1059F0008105892B8093810508958095909181057B
:105A000089238093810508951092810508959091CE
:105A10008005892B8093800508958095909180055D
:105A200089238093800508951092800508958093BE
:105A30005F05089510925F05089580915F050895B0
:105A4000CF92DF92EF92FF926C01EE24FF24C114FB
:105A5000D104E104F10421F0C701B60120E101C045
:105A600020E0C72ED82EE92EFF24C114D104E10472
:105A7000F10419F0285FC701B6016B017C0154E005
:105A8000F694E794D794C7945A95D1F7C114D104EA
:105A9000E104F10419F02C5FC701B6016B017C0130
:105AA00042E0F694E794D794C7944A95D1F7C1148D
:105AB000D104E104F10419F02E5FC701B601DC0145
:105AC000CB01B695A79597958795892B8A2B8B2B1C
:105AD00009F02F5F822FFF90EF90DF90CF90089515
