:100000000C9425060C9442060C9442060C9442066D
:100010000C9442060C9442060C9442060C94420640
:100020000C9442060C9442060C9486360C94583775
:100030000C9439310C9442060C9442060C944206FE
:100040000C9442060C9442060C9442060C94420610
:100050000C9442060C94A1310C9442060C94420676
:100060000C9442060C9442060C9442060C944206F0
:100070000C9442060C9442060C9442060C944206E0
:100080000C9442060C9442060C9442060C944206D0
:100090000C9442060C9442060C9442060C944206C0
:1000A0000C9442060C9442060C9442069A069D0655
:1000B000A006A306A606A906AC063B1040104410F5
:1000C0004E105A106410C7100411091113110711B2
:1000D0000C1111110F115712591264125B125D129B
:1000E0005F1261126312661268126A1275126C1244
:1000F0006E127012721274127712FE1E011F041F0C
:10010000071F0A1F0D1F101F131F161F191F1C1F6B
:10011000F726F726292729276027AD28AD28AD28FF
:100120008027AD282D282D289D28AD28AD28A6286C
:100130003A283A283A283A283A283A283A283A28AF
:100140003A283A283A283A283A283A283A283A289F
:100150004B2858285F2866287028342934294629D6
:1001600046293D2946294629462934293429422948
:10017000462946294229C537EC37DE38EC37DE38C8
:1001800038385B38DE38B138C03805A84CCDB2D429
:100190004EB93836A9020C50B9918688083CA6AAF7
:1001A000AA2ABE000000803F6572676F646F785FA7
:1001B000657A2F616C6563672040204E4100000026
:1001C000F0A100000000000000000000000000009E
:1001D000000000000000000000000000000000001F
:1001E000000000000000000000000000000000000F
:1001F00000000000000000000000000000000000FF
:1002000000000000000000000000000000000000EE
:1002100000000000000000000000000000000000DE
:1002200000000000000000000000000000000000CE
:1002300000000000000000000000000000000000BE
:1002400000000000000000000000000000000000AE
:1002500000009AFFFF9AFFFF9AFFFF9AFFFF9AFFA5
:10026000FF9AFFFF9AFFFF9AFFFF9AFFFF9AFFFF97
:100270009AFFFF9AFFFF9AFFFF9AFFFF9AFFFF9AEC
:10028000FFFF9AFFFF9AFFFF9AFFFF9AFFFF9AFF77
:10029000FF9AFFFF9AFFFF9AFFFF9AFFFF9AFFFF67
:1002A0009AFFFF9AFFFF9AFFFF9AFFFF9AFFFF9ABC
:1002B000FFFF00CCFF9AFFFF9AFFFF9AFFFF00CCE1
:1002C000FF00CCFF00CCFF9AFFFF9AFFFF9AFFFFD1
:1002D0009AFFFF9AFFFF9AFFFF9AFFFF9AFFFF9A8C
:1002E000FFFF69FFFF69FFFF69FFFF69FFFF69FF0C
:1002F000FF69FFFF69FFFF69FFFF69FFFF69FFFFFC
:1003000069FFFF69FFFF69FFFF69FFFF69FFFF6981
:10031000FFFF69FFFF69FFFF69FFFF69FFFF000043
:100320000000000000000000000069FFFF69FFFFFF
:1003300069FFFF69FFFF69FFFF0000000000000088
:1003400000000000000000000000009AFFFFF9E438
:10035000FF9AFFFF00000000000000000000000006
:10036000000000000000000000000000000000008D
:1003700000000000000000000EFFFF0EFFFF0EFF58
:10038000FF69FFFF23FFFF23FFFF23FFFF0EFFFF98
:1003900069FFFF23FFFF23FFFF23FFFF000000F99A
:1003A000E4FF23FFFF23FFFF23FFFF69FFFF0000A0
:1003B0000023FFFF23FFFF000000000000000000FB
:1003C000000000000000000000000000000000230A
:1003D000FFFF00000000000000000023FFFF23FFDC
:1003E000FF23FFFF000000000000000000000000ED
:1003F00000000000000023FFFF23FFFF00000000BB
:1004000000000000000000000000000000000000EC
:1004100000000000000000FA9FFF00000000000044
:10042000000000FA9FFFFA9FFFFA9FFF0000000004
:1004300000000000000000000000000000000000BC
:1004400000000000000000000000000000000000AC
:100450000000000000000000000000000000000E8E
:10046000FFFF00000000000000000069FFFF0EFF1A
:10047000FF69FFFF00000000000000000000000016
:10048000000000000000000000000000000000006C
:10049000000000000000000000000000000000005C
:1004A0000000000086FFD586FFD586FFD50000003E
:1004B00000000086FFD586FFD586FFD5000000002E
:1004C000000086FFD555CB9E86FFD50000000000BA
:1004D000000AE1FF00000000000000000000000032
:1004E000000000000000000000000000000000000C
:1004F00000000000000000000000000000000000FC
:1005000000000000000000000000000000000000EB
:1005100000000000000000000000000000000000DB
:10052000000029002B002A00E100350000001E0019
:10053000140004001D003400F75C1F001A001500B1
:100540001B000100025120000900160006000004F3
:100550002C002100130017001900E000C35C2200EA
:100560000A000700050000006500035101000000BB
:1005700005510000E30001530100000000070000E6
:10058000E70023000D000B000E0000004C002400CB
:100590000F00110010000451F55C25001800080040
:1005A00036000100280026001C000C003700010066
:1005B000000427003300120038000100F65C2D0013
:1005C00031003400E50001000000010001000100DD
:1005D0000100010000001E00140004001D000100C5
:1005E000F25C1F001A0016001B0001000100200031
:1005F00008000700060001000100210015000900A5
:1006000019000100C35C220017000A000500000069
:100610000100010010500000010000000100010075
:100620000100000001000000010023001C000B007D
:10063000110000000100240018000D00100001004E
:10064000C55C25000C000E003600010001002600EC
:1006500012000F00370001000100270013003300D3
:1006600038000100C65C010001000100010001002A
:1006700000000100010001000100010000003A003B
:100680000100010001000100CA5C3B0001001507E8
:100690000100010001003C000100160701000100FB
:1006A00001003D000100170701000100C95C3E0088
:1006B00001000100010000000100010010500000D5
:1006C0000100000001000100010000000100000025
:1006D000C25C3F002202210225020000F25C4000C1
:1006E0002F0226022F000100F35C41003002270296
:1006F00030000100C55C42002D0256001F020100BF
:10070000C65C43002E022E0020020100F45C44006F
:10071000450001000100010000000100010001008E
:1007200001000100000001000100010001000100C2
:10073000010001000100F2000100010001000100C0
:10074000F000F1000100F400010001000100F300DD
:100750000100F5000100010001000100010000009E
:100760000100010010500000010000000100010024
:10077000010000000100000001000100A900AA0022
:10078000A800000001000100240021001E0001005B
:1007900001005400250022001F0062000C005500DB
:1007A00026002300200063000100560057000000CF
:1007B00058000100010001000100010001000100DA
:1007C0000000010001000100010001000000010023
:1007D00000000000000001000100000000004A00CD
:1007E00000000100010000004B004E00000001006D
:1007F0000100000000004D000000010001000100A8
:100800000000000000000000010001001050000086
:1008100001000000010001000100000001000000D3
:1008200001000100000000000000000001000000C5
:1008300000005000000001000100000052005100C3
:10084000000001000100000000004F000000010056
:100850000100010000000000000001000100010093
:100860000100010001000100000001000100010081
:100870000100010000000100010001000100010071
:100880000100010001000100010001000100010060
:100890000100010001000100010001000100010050
:1008A0000100010001000100010001000100000041
:1008B0000100010001000000010000000100010032
:1008C0000100000001000000010001000100010022
:1008D0000100000001000100240721071E0701009C
:1008E00001000100250722071F072707010001005B
:1008F0002607230720070100010001000100010075
:1009000001000100010001000100010001000100DF
:10091000000000000000000000002A2B280000005A
:10092000000000000000000000000000002900009E
:1009300000002C1E3420212224342627252E362D7B
:100940003738271E1F202122232425263333362E15
:1009500037381F0405060708090A0B0C0D0E0F1087
:100960001112131415161718191A1B1C1D2F3130CC
:10097000232D350405060708090A0B0C0D0E0F1070
:100980001112131415161718191A1B1C1D2F3130AC
:10099000354C0000000000000000000000000000D6
:1009A0000000000000000000000000000000000047
:1009B000000000010101010101000101010100002D
:1009C0000000000000000000000000000100010025
:1009D0000101010101010101010101010101010107
:1009E00001010101010101010101010101000000FA
:1009F00001010000000000000000000000000000F5
:100A000000000000000000000000000000010101E3
:100A100001000000000000010101010101010101CC
:100A2000020202020202020202030303030303039F
:100A3000030404040404040505050505060606066A
:100A40000607070707080808080909090A0A0A0A21
:100A50000B0B0B0C0C0C0D0D0D0E0E0F0F0F1010C1
:100A60001111111212131314141515161617171845
:100A70001819191A1A1B1C1C1D1D1E1F1F202021AE
:100A800022222324252526272728292A2B2B2C2DF3
:100A90002E2F2F30313233343536363738393A3B12
:100AA0003C3D3E3F4041424344464748494A4B4C07
:100AB0004D4F50515253555657585A5B5C5E5F60CC
:100AC0006263646667696A6C6D6E70717374767860
:100AD000797B7C7E8081838486888A8B8D8F9192BE
:100AE0009496989A9B9D9FA1A3A5A7A9ABADAFB1E2
:100AF000B3B5B7B9BBBDBFC1C4C6C8CACCCFD1D3CB
:100B0000D6D8DADCDFE1E4E6E8EBEDF0F2F5F7FA6F
:100B1000FCFF04033000000016034500720067006C
:100B20006F0044006F007800200045005A0000006C
:100B300016034500720067006F0044006F007800E4
:100B4000200045005A0000000403090409023B008C
:100B5000020100A0FA0904000001030101000921BB
:100B6000110100012240000705810308000A090461
:100B700001000103000000092111010001227100A0
:100B80000705820320000A1201100100000008ED91
:100B9000FE071301000102030105010980A101857F
:100BA000031601002603001A81002A8300751095A0
:100BB000018100C0050C0901A10185041601002670
:100BC0009C021A01002A9C02751095018100C00543
:100BD000010906A1018505050719E029E71500258A
:100BE000019508750181020508190129059505750A
:100BF0000191029501750391010507190029EF156F
:100C000000250195F075018102C005010906A101C9
:100C1000050719E029E715002501950875018102EE
:100C200095017508810105081901290595057501CA
:100C300091029501750391010507190029FF15001F
:100C400026FF00950675088100C011241FBECFEF56
:100C5000DAE0DEBFCDBF12E0A0E0B1E0ECE8FAE7F9
:100C600002C005900D92A83AB107D9F726E0A8EA8C
:100C7000B2E001C01D92A033B207E1F70E94AA338F
:100C80000C94443D0C94000080B38C7080BB81B305
:100C9000836F81BB089584B1807F84B985B1807FE3
:100CA00085B98AB1837F8AB98BB1837F8BB93E982E
:100CB00046980895CF93E82F873090F580910401EE
:100CC00090910501892B09F049C0CE2F64E670E0B0
:100CD00080E40E94E4229093050180930401892B13
:100CE000D1F464E670E082E10E943B239093050119
:100CF00080930401892B79F481E090E001C0880F92
:100D0000CA95EAF764E670E080950E943B239093D1
:100D100005018093040184E690E0CF910C94902328
:100D200090E0FC013797E730F105C0F4EA5AFF4F35
:100D30000C94593C209A289811C0219A29980EC0E9
:100D4000229A2A980BC0239A2B9808C0529A5A9834
:100D500005C0539A5B9802C03E9A4698CF91089579
:100D6000089508950C94B106CF93DF930E94430831
:100D700090E090930501809304010E944B060E942D
:100D80004406ADEFB2E029EA32E0EBE0F3E04EE0FA
:100D90004E0F11921D9280E090E0E901C80FD91F1B
:100DA0001882019686309105C1F72A5F3F4F4E1396
:100DB000F0CFDF91CF910C947C110E94430890E01A
:100DC00090930501809304010E944B060E94440603
:100DD000EBE0F3E08EE08E0F11928E13FDCF0895BD
:100DE000CF93DF93E62FF0E0E350FD4F408148279B
:100DF000808386E0689FF0011124E755FD4F20E0D5
:100E000030E080E061E070E050E0AAE0B22F908135
:100E1000992319F09150908307C0EB01022E01C075
:100E2000CC0F0A94EAF78C2BEA0102C0D595C7953E
:100E3000BA95E2F7C0FDA0832F5F3F4F3196263071
:100E4000310521F7DF91CF910895CF93DF93D82F0C
:100E5000873008F040C08091040190910501892BF2
:100E600009F042C064E670E080E40E94E4229093BE
:100E7000050180930401892B11F0C0E027C064E6CE
:100E800070E083E10E943B2390930501809304016D
:100E9000892B99F764E670E081E40E94E422909344
:100EA000050180930401892B41F784E690E00E94BC
:100EB0006B2397FF05C09093050180930401DDCF5C
:100EC000C82FC095109205011092040184E690E0AD
:100ED0000E9490230AC09FB1CFB1C07FC695C6952E
:100EE0009370C92BC09501C0C0E06D2F8C2F0E945C
:100EF000F006282F2095ED2FF0E0E55FFC4F908164
:100F000092238C23892BDF91CF910895EF92FF924A
:100F10000F931F93CF93DF9380910401909105016C
:100F2000892B91F08091A8028F5F8093A802811194
:100F30000BC00E94430890E0909305018093040148
:100F4000892B11F40E94D5078BE0E82E83E0F82E60
:100F500002E113E0C0E08C2F0E945A06D7E0DC0FBC
:100F60008D2F0E945A068C2F0E942507F70181932E
:100F70007F018D2F0E942507F80181938F010E9428
:100F80004B06CF5FC73039F70E94881181E0DF91AF
:100F9000CF911F910F91FF90EF900895E82FF0E00F
:100FA000E55FFC4F80810895089556985E982598D6
:100FB0002D9826982E9827982F988FEF90E0909351
:100FC00089008093880090938B0080938A0090938F
:100FD0008D0080938C00259A2D9A2FEF80E792E068
:100FE000215080409040E1F700C00000269A2E9AE0
:100FF0002FEF80E792E0215080409040E1F700C061
:101000000000279A2F9A2FEF80E792E0215080402E
:101010009040E1F700C0000025982D982FEF80E761
:1010200092E0215080409040E1F700C000002698F7
:101030002E982FEF80E792E0215080409040E1F71A
:1010400000C0000027982F9856985E9825982D98F4
:1010500026982E9827982F98089589EA80938000E3
:1010600089E08093810024982C983F988AB18F7CE6
:101070008AB96E98479A8BB180638BB9769A0E9431
:10108000D5070C94B00680E290E090930501809320
:1010900004018091190381110EC00E94DE2281E0BB
:1010A000809319032FEF83ED90E32150804090400F
:1010B000E1F700C0000064E670E080E40E94E422F2
:1010C0009093050180930401892B09F050C064E6D8
:1010D00070E080E00E943B2390930501809304011F
:1010E000892B09F044C064E670E080E00E943B2355
:1010F0009093050180930401892BC9F564E670E0A3
:101100008FE30E943B239093050180930401892B78
:1011100071F584E690E00E94902364E670E080E43C
:101120000E94E4229093050180930401892BF9F435
:1011300064E670E08CE00E943B239093050180936D
:101140000401892BA1F464E670E080E00E943B2357
:101150009093050180930401892B49F464E670E0C3
:101160008FE30E943B23909305018093040184E662
:1011700090E00E9490238091040108958530C8F486
:101180006A30B8F4843049F49CEF960F923088F0BE
:10119000653010F46F5F01C06150982F990F990F5F
:1011A000890F653018F4845E861B08958550860F7C
:1011B00008958FEF08952F923F924F925F926F9212
:1011C0007F928F929F92AF92BF92CF92DF92EF92D7
:1011D000FF920F931F93CF93DF9300D000D000D0E6
:1011E000CDB7DEB77B01C0909803D0909903C60EAF
:1011F000D71E21EDC21627E0D20620F090EDC92EB1
:1012000097E0D92ED0929903C0929803B6010D2C85
:10121000000C880B990B0E94333A20E030E04AEF33
:1012200054E40E9489394B015C01109107011F3F72
:1012300051F49B01AC0160E070E080E89FE30E9404
:1012400012394B015C0120E030E040E05FE3C50172
:10125000B4010E947F3918163CF0C501B4010E9408
:10126000B63B9B01AC0122C020E030E040E05FE3F0
:10127000C501B4010E9412394B015C019B01AC0114
:101280000E9413392B013C01A501940160E070E03C
:1012900080E89FE30E9412399B01AC01C301B201B7
:1012A0000E94413B20E030E040E05FE30E941339C0
:1012B000E0EDCE16E7E0DE0639F4109299031092C5
:1012C000980311951093070120E030E040E151E4CC
:1012D0000E94413B69837A838B839C83B70180E0C2
:1012E00090E00E94313A9B01AC0160E070E08AEF2F
:1012F00094E40E94123920E030E04AEF54E40E9466
:1013000089392B013C0180E7282E83E0382E10E03C
:10131000612F70E080E090E00E94313A9B01AC01C7
:1013200069817A818B819C810E9412396B017C01D9
:10133000E894F7F8F1012081318142815381C301A2
:10134000B2010E94413B4B015C0120E030E040E0F3
:1013500050E4C701B6010E947F391816D4F0A701E6
:10136000960160E070E080E090E40E94123920E095
:1013700030E040E05FE30E94413B9B01AC01C501CE
:10138000B4010E946E3AF10160837183828393837A
:1013900005C0F10180829182A282B3821F5FF4E0D6
:1013A0002F0E311C1A3009F0B3CFD12C00E713E017
:1013B000E12C24E0D21204C08CEF8E0D823000F1BB
:1013C00020E030E04FE753E4F801608171818281D1
:1013D00093810E94413B0E94023A862F6AE47FEF8C
:1013E0000E949A17F62E282F6E2D8D2D2E837D8329
:1013F0000E94BE082E814D816F2D90E00E944F18F3
:10140000E3940C5F1F4FFAE0EF12D3CFD39425E0A3
:10141000D212CCCF26960FB6F894DEBF0FBECDBF4A
:10142000DF91CF911F910F91FF90EF90DF90CF90C0
:10143000BF90AF909F908F907F906F905F904F90F4
:101440003F902F9008952F923F924F925F926F920C
:101450007F928F929F92AF92BF92CF92DF92EF9244
:10146000FF920F931F93CF93DF9300D000D000D053
:10147000CDB7DEB79C838B838B010E94AB3C65E0CC
:1014800070E00E94233C3C010E94AB3C6AE070E0AB
:101490000E94233CE0E0F0E0B12C772425E0E22E2E
:1014A000F12C3AE0332E4C0199244AE0C42ED12C81
:1014B000CF01860D971DB7010E94233C389E200165
:1014C000399E500C1124400E511E282E20E030E091
:1014D000C901880D991DB6010E94233CA201480F45
:1014E000591F5E834D83DA01AC90AB81BC811296AB
:1014F000BC91B983AB1649F06A2D70E0AAE0BA9F9F
:10150000A00111246417750731F4AD81BE811C92CE
:10151000BB2029F016C0B11014C0A11014C0AB81BB
:10152000BC812C9211968C93119713961C92139751
:1015300015961C921E92149712968C91AD81BE81C5
:101540008C93BB24B3942F5F3F4F2A30310509F0B1
:10155000BFCF3196E530F10509F0AACF26960FB638
:10156000F894DEBF0FBECDBFDF91CF911F910F91D9
:10157000FF90EF90DF90CF90BF90AF909F908F90B3
:101580007F906F905F904F903F902F90089585309F
:10159000A8F46A3098F4843021F49CEF960F9230CE
:1015A00068F0FA019AE0899FE00DF11D1124E60F21
:1015B000F11D9081915081E0943008F480E008950D
:1015C0009F92AF92BF92CF92DF92EF92FF920F93D2
:1015D0001F93CF93DF93EC017B010E94AB3C64E04F
:1015E00070E00E94233C8C0184E0C82ED12C94E052
:1015F000A92EB12C0115110519F499809A9405C0F2
:101600000130110559F499809394A701692D8881BF
:101610000E94C70A8823B1F099821FC002301105C9
:1016200019F498809A9405C00330110559F49880F4
:101630009394A7016981892D0E94C70A882311F01C
:1016400098820BC0C8010196B5010E94233C8C0111
:1016500081E0C81AD10871F680E0DF91CF911F9127
:101660000F91FF90EF90DF90CF90BF90AF909F9041
:1016700008950F931F93CF93DF938C01EB010E948A
:10168000E00A882389F0D8019C9112968C91FE0182
:10169000BAE09B9FE00DF11D1124D80111969C9199
:1016A000E90FF11D80831CC081E0F801838315825E
:1016B0001482FE0195E0AF01465F5F4F8081D80143
:1016C00012962C91821306C0880F282F220F220F0A
:1016D000820F80833196E417F50781F7915059F70F
:1016E000DF91CF911F910F910895262F60E08130F7
:1016F00011F46BE10BC0823011F46DE707C0833049
:1017000011F460E503C0843009F467ED7FEF822FA8
:101710000E949A1708959F92AF92BF92CF92DF9244
:10172000EF92FF920F931F93CF93DF9300D0CDB72B
:10173000DEB78B01882309F443C04EE353E025E074
:1017400080E090E0FA01E80FF91F108201968A30DC
:101750009105C1F72150465F5F4F2111F1CF49E25A
:10176000E42E43E0F42EA12CB12C56E0D52ECC244F
:10177000C394DA9CF001DB9CF00D1124EA5DFC4F70
:10178000DF012D2D1D922A95E9F7F701319781E0B0
:101790008A0D8083D701CC926EE373E0C701039773
:1017A0000E94230ABFEFAB1ABB0AE6E0EE0EF11C63
:1017B000F4E0AF16B104E9F6109225031092240369
:1017C0008091240390912503800F911F823C21E09A
:1017D000920738F49093250380932403E9E2F3E021
:1017E00037C0109225031092240336E2E32E33E033
:1017F000F32E5701D12CD50113968C91811106C07F
:101800006EE373E0C5010E94390B09C0813039F4E1
:10181000F501848195818634954008F0D39426E0C3
:10182000A20EB11C8EE3A81683E0B80621F794E05F
:10183000D912D4CF6EE373E0C7010E94230AA6E059
:10184000EA0EF11CBEE3EB16B3E0FB0699F7C6CF38
:101850008081813061F481819281800F911F873472
:1018600025E0920710F086E495E092838183369616
:1018700083E0E134F80761F78EE3E82E83E0F82E89
:10188000A12C9AE0C92E26E0D22E00E010E0B02E66
:1018900094E0A91205C08CEF800F823008F45CC080
:1018A000F701E00FF11F8081882309F446C08530DD
:1018B00070F4282F30E021503109D29EF001D39EE0
:1018C000F00D1124EA5DFC4F6FEF828130C06C2D6A
:1018D0000E94033C90E00197D89EF001D99EF00D44
:1018E0001124EA5DFC4F9280648175816634A5E025
:1018F0007A07D8F480E090E00E94313A20E030ECA2
:1019000048EA54E40E9489399B01AC0160E070E030
:1019100080E89FE30E94123920E030E04FE753E473
:101920000E94413B0E94023A01C060E0892D0E9462
:10193000750B962E472F282F03C020E040E0912CF6
:101940006B2D8A2D2A8349830E94BE082A814981F2
:10195000692D90E00E944F180F5F1F4F0A3011054C
:1019600009F095CFA394BAE0EB0EF11CE5E0AE12BE
:101970008CCF609124037091250380E090E00E9459
:10198000313A20E030E041EE53E40E94893920E012
:1019900030E04FE753E40E94413B0E94023AD62ECA
:1019A00000E010E0C8018A5D9C4F7C01DC011396C9
:1019B0008C911397811115C06D2D12968C910E94F8
:1019C000750B962E282FF701618180812A837983F8
:1019D0000E94BE082A817981472F692D90E00E94DC
:1019E0004F180A5F1F4F08311105E1F60F900F9055
:1019F000DF91CF911F910F91FF90EF90DF90CF90EB
:101A0000BF90AF909F900895482F8074242F46FD7B
:101A10002095E22FEF732F7081112F5FE295EF7009
:101A2000EE0FF0E0E956FD4F9181929F9001112455
:101A300084E0359527958A95E1F78081280F822FDC
:101A400047FD819580580895FF920F931F93CF9380
:101A5000DF9360FD05C0809123038F5F8093230394
:101A600000E0D0E010E0C0E0812F800F90912303D0
:101A7000891B0E94040DF82E6C2F8D2F0E94BE082A
:101A80002F2D4F2D6F2D90E00E944F18CF5F1E5CC1
:101A9000CA3051F7DF5F0E5CD53021F7DF91CF916F
:101AA0001F910F91FF900895AF92BF92CF92DF9256
:101AB000EF92FF920F931F93CF93DF93EC0181E09E
:101AC0000E94922080E98C9F70018D9FF00C112460
:101AD000C0E0D0E000E010E0670182E0C80ED11C59
:101AE00057018FEFA81AB80AF601EC0FFD1FEE534D
:101AF000FE4F8491FE01EE0DFF1DEE53FE4F6491EB
:101B0000F501EC0FFD1FEE53FE4F7491882319F081
:101B10008091B10401C080E00E949A17472F282FBE
:101B2000C8010E944F180F5F1F4F23960033110505
:101B3000D9F6DF91CF911F910F91FF90EF90DF9039
:101B4000CF90BF90AF9008954F925F926F927F9227
:101B50008F929F92AF92BF92CF92DF92EF92FF92BD
:101B60000F931F93CF93DF93CDB7DEB728970FB6B0
:101B7000F894DEBF0FBECDBF182F0E944E1F6B0121
:101B80007C018091B3049091B4040E9477319093CA
:101B90002203809321030E946B319093B4048093BD
:101BA000B30420919B0330919C032230310509F04E
:101BB000E2C043E0C422DD24EE24FF24CD28CE2859
:101BC000CF2809F05FC0F090060100911F0310912B
:101BD00020030F0D111DF7FC1A951093200300939D
:101BE0001F03B80180E090E00E94313A20E030E02D
:101BF0004AE753E40E9489394B015C0120E030E060
:101C000040E05FE30E947F3918163CF0C501B40143
:101C10000E94B63B9B01AC0122C020E030E040E0D6
:101C20005FE3C501B4010E9412394B015C019B01C5
:101C3000AC010E9413392B013C01A501940160E025
:101C400070E080E89FE30E9412399B01AC01C30160
:101C5000B2010E94413B20E030E040E05FE30E949F
:101C6000133960931B0370931C0380931D0390939F
:101C70001E0301501109093F110520F08F2D819598
:101C8000809306018091AE04881F8827881F909159
:101C9000AF04492F440F242F282B97FB332730F90B
:101CA000C9018C549F4F68E671E00E94233C821B5F
:101CB000930B8038910514F09A9505C08138EFEFA9
:101CC0009E070CF4939597FD0396959587959595AA
:101CD0008795182F8091B004281B310937FF02C067
:101CE0002D5F3F4F3595279535952795022FA0906D
:101CF000B10429E1C22E21E0D22EE12CF12CF60113
:101D0000B080B2948FE0B82220E030E040EA52E4A4
:101D100060911B0370911C0380911D0390911E0321
:101D20000E94413B0E94FB39962F6091AE04262F02
:101D3000221F2227221F6091AF04660F622B690FBA
:101D4000B19E600D11247091B004B09E700D1124ED
:101D50008A2D0E949A17472F282FC7010E944F18DB
:101D6000FFEFEF1AFF0A44E0C40ED11C80E3E8162F
:101D7000F10429F6DFC02330310509F07EC0C70128
:101D8000B60123E030E040E050E00E94373C672B92
:101D9000682B692B29F480911A038F5F80931A03B3
:101DA000E12CF12C1091AE04912F991F9927991FC6
:101DB0001091AF04110F192B6091B00470E080E016
:101DC00090E00E94333A2DEC3CEC4CE45FE30E943F
:101DD000413B0E94023A762F612F80E00E949A17C1
:101DE000472F282FC7010E944F189FEFE91AF90AC1
:101DF000E0E3EE16F104B1F660E082E00E94BE0876
:101E0000898361E082E00E94BE088A8362E082E00A
:101E10000E94BE088B8363E082E00E94BE088C8330
:101E200066E082E00E94BE088D8367E082E00E9447
:101E3000BE088E8368E082E00E94BE088F8369E05E
:101E400082E00E94BE088887CE0101967C0110E0E6
:101E5000F70101917F0180911A03612F681B70EADD
:101E60008FEF0E949A17472F282F802F90E00E9413
:101E70004F181E5E103961F75DC024303105E9F45A
:101E80006091210370912203812F28960FB6F89458
:101E9000DEBF0FBECDBFDF91CF911F910F91FF909D
:101EA000EF90DF90CF90BF90AF909F908F907F90FA
:101EB0006F905F904F900C94DB0825303105E9F46A
:101EC0006091210370912203812F28960FB6F89418
:101ED000DEBF0FBECDBFDF91CF911F910F91FF905D
:101EE000EF90DF90CF90BF90AF909F908F907F90BA
:101EF0006F905F904F900C948B0B21303105D1F493
:101F0000C701B60128960FB6F894DEBF0FBECDBF4D
:101F1000DF91CF911F910F91FF90EF90DF90CF90C5
:101F2000BF90AF909F908F907F906F905F904F90F9
:101F30000C94240D28960FB6F894DEBF0FBECDBFCB
:101F4000DF91CF911F910F91FF90EF90DF90CF9095
:101F5000BF90AF909F908F907F906F905F904F90C9
:101F6000089580919D0381116AC060915C04709115
:101F70005D0480915E0490915F040E948D2F8230F9
:101F800009F450C030F4882369F0813009F447C067
:101F90000895843009F44CC008F447C0853009F432
:101FA0004AC0089580E190E00E94C33C6093AE0473
:101FB0007093AF048093B0049093B10480919B031D
:101FC00090919C03892BE9F48091AE0486958F73E0
:101FD0000E9492208091AE04982F9E77923079F1E2
:101FE000881F8827881F9091AF04292F220F97FB05
:101FF000992790F94091B1046091B004822B0C9420
:10200000B82081E00E94922080919A03882321F0D9
:1020100010929A0381E001C080E00C94A40D81E04D
:1020200090E00BC082E090E008C083E090E005C043
:1020300084E090E002C085E090E00C94540D089597
:10204000611108C0FC018281882321F088EA91E0B7
:102050000E94791180E090E00895FC01E15FFC4569
:10206000E730F10508F0B4C0DB01E35AFF4F1296E8
:102070009C910C94593C91110E94573080E0089536
:102080009923E1F381E01DC09923C1F381E00E940F
:1020900083204FEF64E985EC90E009C0992371F348
:1020A00081E00E9483204FEF69E787E890E00E947B
:1020B000A120E4CF992311F310929C0310929B036B
:1020C00083E00E948320DACF9923C1F280E190E07F
:1020D0000E94C33C6093AE047093AF048093B0043D
:1020E0009093B1040E94DA2E82722091AE049091F6
:1020F000AF04882371F0822F881F8827881F392F0B
:10210000330F432F482B97FB552750F9485051095F
:102110000DC0822F881F8827881F392F330F432F28
:10212000482B97FB552750F9485F5F4F40FB27F935
:102130002093AE04842F86959078982B50FB97F9C6
:102140009093AF048091AE04482F441F4427441F4E
:102150009091AF04592F550F252F242B97FB332730
:1021600030F92F3F310531F02CF08F778093AE049A
:102170001092AF044091AE045091AF046091B0044E
:102180007091B10480E190E00E94E13C77CF992307
:1021900009F474CF80919B0390919C0301969093D6
:1021A0009C0380939B0381E080939A030E946B3190
:1021B0009093B4048093B30480919B0390919C030B
:1021C000069708F45BCF10929C0310929B0356CFA6
:1021D00081E00895CF92DF92EF92FF926B017C0134
:1021E0000E948D2F56985E9825982D9826982E98A7
:1021F00027982F9890E0FC013197E730F105A8F47B
:10220000EC59FF4F0C94593C259A2D9A0EC0259AF3
:102210002D9A269A2E9A09C0259A2D9A04C0259A9D
:102220002D9A269A2E9A279A2F9AC701B601FF90C7
:10223000EF90DF90CF90089581E008950C942D10D9
:10224000CF93282F30E0F901EE5EF64FC491F901EB
:10225000EE56F64F2491222359F081EE0E94372545
:102260008C2F0E9437258C2F0E944E2681EE04C0B1
:102270008C2F0E9437258C2FCF910C944E260F93D4
:102280001F93CF93DF93EC01062FFE0184918823E7
:1022900059F19E012F5F3F4F813041F4E901F9016F
:1022A0001491812F0E943725812F0DC0823031F487
:1022B000E901F90184910E9437250AC0833031F485
:1022C000E901F90184910E944E2602C00E9420116A
:1022D0002196802F8823C9F2EFE9FFE03197F1F7CB
:1022E00000C000008150F6CFDF91CF911F910F9178
:1022F000089560E00C943F110E94DD2F811102C00F
:102300000E9457300E94201F0E94EA160C942D084C
:102310000E94821E80919E03811102C00E944A1871
:1023200080919E0390E001966BE070E00E94233C58
:1023300080939E030C94B206282F2F7041F0822FB9
:1023400090E02A3010F44D9608950697089587E29C
:1023500090E0089508950C94AA110C94AB1108957F
:102360000E9424290E94AF112FEF84E39CE02150AA
:1023700080409040E1F700C000000C94C731FF920C
:102380000F931F93CF93DF938C01FC01C081D18108
:102390008091EC03811113C08281882349F0CE0122
:1023A0000E945A2EF82E682FCE010E94FD2D04C0E7
:1023B000CE010E942D2EF82EBE018F2D04C0CE011D
:1023C0000E945A2EBE010E946214EC01B8010E94C4
:1023D0001E11882309F46EC2B801CE010E94651750
:1023E000882309F467C2CC3CFCE5DF0741F4F8011F
:1023F0008281882309F45EC20E946A205BC2CD3CC0
:102400008CE5D80708F01EC1C43C9CE5D90761F4EF
:10241000F8018281882309F44DC20E94DA2E82726B
:10242000E1F40E947F1F46C2C53CECE5DE0708F0E0
:10243000C7C0C531FCE5DF0798F0C23CFCE5DF070B
:1024400009F48CC008F492C0F8018281882309F451
:1024500031C20E94DA2E827221F70E94651F2AC2C1
:10246000C2308CE5D80708F452C0F8018281882375
:1024700009F459C00E94DD2F811102C00E9457301B
:102480000E94F02F90E09093220680932106FE0197
:10249000E350FC45E231F10530F4E559FF4F8091FE
:1024A00021060C94593C80912106816027C08260EE
:1024B00025C0846023C0806121C080621FC0806409
:1024C0001DC080681BC08460886018C08E7F16C0E5
:1024D0008D7F14C08B7F12C08F7E10C08F7D0EC089
:1024E0008F7B0CC08F770AC08B7F877F07C087FBED
:1024F000222720F991E0922790FB87F9809321060B
:10250000809121060E94F42F0E942429D3C1C11575
:102510009CE5D90781F0C130DC45A9F081E08093CA
:10252000A4038093A503C801DF91CF911F910F9160
:10253000FF900C941C11F8018281882309F4BAC120
:102540000E94B011B7C1F8018281882309F4B2C199
:1025500080918904816080938904ACC1F8018281F3
:10256000882309F4A7C10E94571FA4C1C631DC45C6
:10257000A9F60E94DA2E282FF801828140910A01E3
:1025800050910B01882379F02A7A91E009F490E0C8
:1025900090939F03911102C069E201C065E3CA01F3
:1025A0000E94BE300AC080919F03811102C069E27F
:1025B00001C065E3CA010E94C9300E94292F7AC177
:1025C000F8018281C83CFCE5DF0731F4882309F477
:1025D00071C10E940B206EC1C93C9CE5D907C8F4AB
:1025E000C63CECE5DE0731F4882309F463C10E94A0
:1025F000C51F60C1C73CDC4530F4882309F45AC1CB
:102600000E94991F57C1882309F454C10E94F51FE5
:1026100051C1CA3C9CE5D90731F4882309F44AC169
:102620000E943B2047C1CB3CDC4530F4882309F4B1
:1026300041C10E9425203EC1882309F43BC10E946C
:10264000552038C1C43DFCE5DF0791F4F8018281D3
:10265000882309F42FC10E949C20893128F00E9410
:102660009C20823208F4F9CE89E10E94832022C1A5
:10267000C53D8CE5D80708F068C0F8018281C03DEF
:10268000FCE5DF0771F4882309F414C10E949C2043
:10269000893028F00E949C208E3008F4DECE89E03C
:1026A000E4CFC13D9CE5D90740F5CE3CECE5DE0723
:1026B00071F4882309F4FEC00E949C20823028F027
:1026C0000E949C20853008F4C8CE82E0CECFCF3C5B
:1026D000DC4528F4882309F4EDC081E0C6CF8823C7
:1026E00009F4E8C00E949C20863028F00E949C20BB
:1026F000883008F4B2CE86E0B8CFC23D9CE5D90759
:1027000071F4882309F4D6C00E949C20853128F0FA
:102710000E949C20873108F4A0CE85E1A6CFC33D5E
:10272000DC4570F4882309F4C5C00E949C208F30DA
:1027300028F00E949C20843108F48FCE8FE095CF42
:10274000882309F4B7C088E190CFC93DFCE5DF07D5
:1027500059F5F8018281882361F01092A5030E9447
:102760006B319093A3038093A20380E20E94B5266D
:10277000A1C08091A503882321F080E20E94BC269D
:1027800099C08091A2039091A3030E947731883C65
:10279000910598F780E20E94BC2688E20E943725C6
:1027A00088E20E944E2686C0CA3D8CE5D80708F014
:1027B00060C0C73D9CE5D90761F5F8018281882397
:1027C00051F01092A4030E946B319093A103809367
:1027D000A00382E0CBCF0E94DA2E85FF05C081E006
:1027E0008093A4038093A5038091A40381110FC05B
:1027F0008091A0039091A1030E947731883C9105BC
:1028000030F486E20E94372586E20E944E2682E05E
:10281000B5CFC83DECE5DE0710F1F80182818111EA
:102820009CCF0E94DA2E81FF05C081E08093A40333
:102830008093A5038091A50381119FCF8091A2036E
:102840009091A3030E947731883C910508F095CFC1
:1028500087E20E94372587E20E944E268ECFC53D33
:10286000DC4509F05BCEF8018281882319F183E20F
:10287000FCCECD3D8CE5D80741F4F8018281882358
:10288000C9F082E00E94493415C0CE3D9CE5D907CD
:1028900039F4F8018281882369F00E9457300AC018
:1028A000CC3DDC4509F03ACEF8018281882311F055
:1028B00080E0E8CF80E0DF91CF911F910F91FF90F2
:1028C0000895089596E0799FF001112494E5899F79
:1028D000E00DF11D1124E60FF11DEE0FFF1FEE5D5F
:1028E000FA4F859194910895880F991FFC01E25445
:1028F000FE4F859194910895CF93DF930E946214C7
:102900000E943316EC01811520E59207F0F5811540
:1029100030E4930708F024C1883E910500F5803E1D
:10292000910508F09CC1883A910570F4853A9105AB
:1029300008F09FC08130910509F491C108F442C1AB
:10294000049708F08CC13EC18F3B910508F49CC0F0
:10295000803C910508F436C1805C9109F4C0811572
:1029600040E2940758F4C11581E0D80708F077C118
:10297000C03FD10508F426C1D06571C1811520E39F
:10298000920708F0E4C09F70DEC0811535E593071B
:1029900008F044C0811544E5940708F0F8C0C1155B
:1029A00082E5D80708F5C11521E5D20708F0DBC09C
:1029B0008C2F837021E030E002C0220F331F8A95F4
:1029C000E2F73C68CE0174E0969587957A95E1F739
:1029D0008370382BCF70C695C69580E2C89FE00102
:1029E0001124C22BD32B3BC12C2F26952695CE012B
:1029F00083709927C115D34508F0BAC040E2249FDF
:102A000090011124C1E0D0E002C0CC0FDD1F8A95F7
:102A1000E2F72C2B3D2BE901DC6821C1811549E54A
:102A20009407A0F4C11588E5D80708F0B5C0C11512
:102A300026E5D20708F0C6C08C2F0E94B0168F7111
:102A4000C82FD0E0DC2FCC27D06209C181153AE530
:102A5000930708F4A6C090568115904208F0B2C0C2
:102A60008D2F8F710E94B016DD27D0628F71D82B09
:102A7000F6C0853A910509F4A8C0863A910509F097
:102A8000A7C0C2E8D0E4EBC0883A910509F4A3C01E
:102A9000893A910509F4A2C08A3A910509F4A1C0C6
:102AA0008B3A910509F4A0C08C3A910509F49FC0B6
:102AB0008B3B910509F49EC08C3B910509F49DC0A8
:102AC0008D3A910509F49CC0803B910509F49BC0A7
:102AD0008E3A910509F49AC08F3A910509F499C08C
:102AE000813B910509F498C0823B910509F497C098
:102AF000833B910509F496C0843B910509F495C088
:102B0000853B910509F494C0863B910509F493C077
:102B1000873B910509F492C0883B910509F491C067
:102B2000893B910509F490C08D3B910509F48FC054
:102B30008E3B910509F48EC08A3B910509F48DC046
:102B4000C0E0D4E48CC00E947414EC0188C09927C2
:102B5000D3FF03C0EC01D86C82C0EC01D06C7FC005
:102B6000DF70D06A7CC0DC2FCC27C16FD06A77C001
:102B700040E2249F90011124C1E0D0E002C0CC0FBC
:102B8000DD1F8A95E2F7C22BD32BDA6868C0D82FF5
:102B9000CC27C46FD06A63C0DC2FCC27C06FD06A4B
:102BA0005EC08F700E94B01694E0D695C7959A9536
:102BB000E1F7CF70D0E0DC2FCC27D06A8F70806E29
:102BC000C82B4DC0C0E0D0E04AC0C1E8D0E447C047
:102BD000C3E8D0E444C0C2EED4E441C0C9EED4E4BA
:102BE0003EC0CAEED4E43BC0C5EBD4E438C0C6EB6B
:102BF000D4E435C0C3EBD4E432C0C4EBD4E42FC07A
:102C0000C7EBD4E42CC0CCECD4E429C0CDECD4E4A4
:102C100026C0C3E8D5E423C0CAE8D5E420C0C2E991
:102C2000D5E41DC0C4E9D5E41AC0C1E2D6E417C09A
:102C3000C3E2D6E414C0C4E2D6E411C0C5E2D6E4CF
:102C40000EC0C6E2D6E40BC0C7E2D6E408C0CFE6A9
:102C5000D4E405C0C0E7D4E402C0CAE2D6E4CE01A1
:102C6000DF91CF9108958238910549F1B0F4813315
:102C7000910509F458C048F48932910509F44EC011
:102C80008A32910509F454C008958533910509F4F9
:102C900040C08933910599F00895833E910529F14B
:102CA00038F4803E910591F0823E9105A1F008959F
:102CB000863E9105F9F0873E910531F10895209106
:102CC000210620FD3AC021FD38C0089580912106DB
:102CD00080FD35C032C08091210682FF32C08091D4
:102CE000210684FD30C083EE39C08091210682FD2B
:102CF00028C0F5CF8091210683FF27C0809121064F
:102D000084FD21C087EE2AC08091210683FD1DC06D
:102D1000F5CF8091210685FD1AC01BC08091210648
:102D200085FD17C014C08091210686FD14C015C012
:102D30008091210686FD11C00EC080EE0FC089E390
:102D40000DC082EE0BC080E009C086EE07C089E2AC
:102D500005C085E303C08AE201C081E390E00895E5
:102D60009091210692FF0DC0282F2871283019F468
:102D7000877F846006C0282F2471243011F48B7F54
:102D8000886093FF0DC0282F2871283119F4877EA1
:102D9000846106C0282F2471243111F48B7E886150
:102DA00094FD877E0895CF93DF93813020E89207CA
:102DB00068F0FB012281222349F0EC010E940017F8
:102DC000CE019F770E9448170E94351781E0DF915E
:102DD000CF9108958CE090E00E94BB3C90E0A0E091
:102DE000B0E08093B5049093B604A093B704B09379
:102DF000B80408956091B5048CE090E00C94CF3C49
:102E00000E94DA2E8093A6030E94ED2E8091B504D5
:102E1000813071F048F08230D9F08430F9F486EED8
:102E20000E94AD2688E118C082EE0E94372516C0A8
:102E300080EE0E94372581EE0E94372588E10E94AE
:102E4000AD2681EE0E944E2680EE0E944E2606C0E0
:102E500082EE0E94372587E50E94AD268FE39CE92C
:102E60000197F1F700C0000008958091B50481300A
:102E700021F038F0823029F007C08CE20E94AD26A4
:102E800003C082EE0E944E268091A6030C94EA2E87
:102E90000F931F93CF93DF938C01CCE0D0E0C80158
:102EA0000C2E02C0969587950A94E2F78F700E94C7
:102EB0009C110E94AD262497CC3F8FEFD80779F75D
:102EC000DF91CF911F910F9108950F931F93CF938F
:102ED000DF93EC018B01FB018281882319F1C33E52
:102EE000FCE5DF07C1F050F4C13EECE5DE0781F000
:102EF000C23EFCE5DF07B1F481E010C0C43E8CE5C2
:102F0000D80759F0C53EECE5DE0761F484E006C061
:102F10001092B50405C082E001C083E08093B5043F
:102F20000E94FA16B801CE01DF91CF911F910F9147
:102F30000C94D316CF92DF92EF92FF920F931F93D0
:102F4000CF93DF93E82FF82F711103C0682F782FEC
:102F50007EC0062F10E0C72FD0E0E82EF12CC8016C
:102F60006BE270E00E940F3C9B0145ED4203B00113
:102F7000439F700D1124060F171F86E0809FB0013C
:102F8000819F700D11244FEF50E0CA018C1B9D0BE7
:102F90008E9DD0018F9DB00D9E9DB00D11248B2F65
:102FA0006C9F80016D9F100D7C9F100D1124012FCF
:102FB00011276A01C01AD10ACE9C8001CF9C100D46
:102FC000DE9C100D11246A01C61AD70ACC9EB001EE
:102FD000CD9E700DDC9E700D1124672F7727461B48
:102FE000570B4E9DE0014F9DD00D5E9DD00D1124DD
:102FF0007D2F2230310599F04CF421153105C9F0AF
:1030000021303105A1F47E2FE12F13C0233031058B
:1030100051F02430310559F4ED2F7B2F06C0EB2FF2
:103020008D2F7F2F06C0712FEB2F8F2F02C07B2F8C
:10303000812FF0E0EE5EF54F6491E72FF0E0EE5E59
:10304000F54F7491E82FF0E0EE5EF54F8491DF913B
:10305000CF911F910F91FF90EF90DF90CF90089547
:1030600080E190E00C94C33CAB01BC0180E190E0B6
:103070000C94E13CEEEAF4E08DE080831092AF0422
:103080008FEF828383831482608171818281938137
:103090000C943418E091A502F091A6020994E091F5
:1030A000A102F091A2020994E091A302F091A4027E
:1030B000099440E060E080E00C945418EEEAF4E0FB
:1030C0006081862F881F8827881F6091AF04660F54
:1030D000682B728183810E949A17962F672F482F41
:1030E000892F0C945418DF92EF92FF920F931F9345
:1030F000CF93DF938091AE04881F8827881F90911B
:10310000AF04492F440F242F282B97FB332730F986
:10311000C9018C549F4F68E671E00E94233C821BDA
:10312000930B8038910514F09A9505C081384FEFC4
:1031300094070CF4939597FD03969595879595952F
:103140008795C82F8091B004281B310937FF02C032
:103150002D5F3F4F3595279535952795D22FD090E8
:10316000B10499E1E92E91E0F92E00E010E0F701B9
:10317000208122952F706091AE04962F991F992778
:10318000991F6091AF04660F692B2C9F600D11246D
:103190007091B0042D9F700D11248D2D0E949A17EF
:1031A000472F282FC8010E944F180F5F1F4FF4E0D0
:1031B000EF0EF11C00331105D1F6DF91CF911F9175
:1031C0000F91FF90EF90DF900895AF92BF92CF9252
:1031D000DF92EF92FF920F931F93CF93DF931F9293
:1031E000CDB7DEB7D82E2091AE04221F2227221F92
:1031F0008091AF04982F990FB22EB92A87FB8827A8
:1032000080F9EB2DF82FCF018C549F4F68E671E0C9
:103210000E94233C9C012E1B3F0B37FF02C02D5FF9
:103220003F4F3595279535952795A22EC090B00430
:103230000091AD031091AE032091AF033091B00324
:103240009091B204992359F0692F70E08AE090E0E0
:103250000E94233CCB01770FAA0BBB0B04C08AE072
:1032600090E0A0E0B0E080239123A223B323892B38
:103270008A2B8B2B41F40E94AB3C60E370E00E94F0
:10328000233C082F01C00FEFE12CF12C10E0D110EE
:1032900003C0E016F106A9F40E94AB3C83706B2DCD
:1032A0008A9D600D112469830E94AB3C69817C2D4D
:1032B0008091B1040E949A17472F282FC7010E94BE
:1032C0004F188FEFE81AF80A80E3E816F104F9F6D0
:1032D0000F90DF91CF911F910F91FF90EF90DF90B2
:1032E000CF90BF90AF900895CF92DF92EF92FF9270
:1032F0001F93CF93DF938091AD039091AE03A09184
:10330000AF03B091B0030090B20404C0880F991FBE
:10331000AA1FBB1F0A94D2F7182F87E1C82E81E09D
:10332000D82EC0E0D0E09FE3E92EF12CF601808199
:103330008F3FE1F0FE01E754FB4F8081F4E08F9F67
:10334000C00111248034910524F4B701681B790B66
:1033500002C060E070E0610F7FEF8091B1040E94D5
:103360009A17472F282FCE010E944F18219624E04C
:10337000C20ED11CC033D105C9F6DF91CF911F9188
:10338000FF90EF90DF90CF900895CF92DF92EF9271
:10339000FF920F931F93CF93DF938091AD03909192
:1033A000AE03A091AF03B091B0030090B20404C08B
:1033B000880F991FAA1FBB1F0A94D2F7D82EC0905E
:1033C000B10407E111E0C0E0D0E08FE3E82EF12C7A
:1033D000F80180818F3FF9F0FE01E754FB4F208117
:1033E000F4E02F9F90011124203431052CF4C70103
:1033F000821B930B9C0102C020E030E0F801618148
:103400006D0D620F7FEF8C2D0E949A17472F282F8A
:10341000CE010E944F1821960C5F1F4FC033D1057B
:10342000B9F6DF91CF911F910F91FF90EF90DF9050
:10343000CF900895CF92DF92EF92FF920F931F9358
:10344000CF93DF938091AD039091AE03A091AF0332
:10345000B091B0030090B20404C0880F991FAA1F56
:10346000BB1F0A94D2F7D82EC090B10407E111E037
:10347000C0E0D0E08FE3E82EF12CF80180818F3F8F
:10348000F9F0FE01E754FB4F2081F4E02F9F9001FB
:103490001124203431052CF4C701821B930B9C01AD
:1034A00002C020E030E0F80162816D0D620F7FEF15
:1034B0008C2D0E949A17472F282FCE010E944F185B
:1034C00021960C5F1F4FC033D105B9F6DF91CF9124
:1034D0001F910F91FF90EF90DF90CF9008952F9262
:1034E0003F924F925F926F927F928F929F92AF9294
:1034F000BF92CF92DF92EF92FF920F931F93CF93E1
:10350000DF933090B0042090B1046091AD037091CE
:10351000AE038091AF039091B0030E94313A2BED3E
:103520003FE049E450E40E94413B20E030E040E0CD
:103530005CE30E94413B6B017C010E94843920E0E6
:1035400030E040E05DE30E94413B2B013C01C701BC
:10355000B6010E94AE3B20E030E040EE52E40E9413
:1035600089394B015C01C9E1D1E000E010E06881DC
:1035700070E080E090E00E94333A20E030E040E0EC
:1035800052E40E941239A30192010E94413B6B0157
:103590007C01FE013197608170E080E090E00E9444
:1035A000333A20E030E040EE52E40E941239A501A7
:1035B00094010E94413B9B01AC01C701B6010E94EE
:1035C000133920E030E044E353E40E94413B6B01B7
:1035D0007C018091AE04881F8827881F9091AF04DA
:1035E000292F220F622F682B97FB772770F9072E60
:1035F000000C880B990B0E94333A9B01AC01C70168
:10360000B6010E9413390E94023A732D822D0E9446
:103610009A17472F282FC8010E944F180F5F1F4F7E
:1036200024960033110509F0A2CFDF91CF911F91AD
:103630000F91FF90EF90DF90CF90BF90AF909F9051
:103640008F907F906F905F904F903F902F90089554
:103650002F923F924F925F926F927F928F929F92A2
:10366000AF92BF92CF92DF92EF92FF920F931F9390
:10367000CF93DF93CDB7DEB728970FB6F894DEBFB0
:103680000FBECDBF8091B0048D839091B1049E8315
:103690006091AD037091AE038091AF039091B00340
:1036A0000E94313A2BED3FE049E450E40E94413B57
:1036B00020E030E040E05CE30E94413B6B017C0194
:1036C0000E9484392B013C01C701B6010E94AE3B28
:1036D00069837A838B839C83E9E1F1E0F887EF8348
:1036E00000E010E0EF81F88531972080EF81F885C8
:1036F000B0803090B204332079F0632D70E080E028
:1037000090E00E94333A20E030E040EC5FE30E941A
:10371000413B6B017C0106C0C12CD12C90ECE92E01
:103720009FE3F92E6B2D70E080E090E00E94333A29
:1037300020E030E040E052E40E9412399B01AC01ED
:10374000C701B6010E94413BA30192010E94413B87
:103750004B015C01332079F0632D70E080E090E054
:103760000E94333A20E030E040EC5FE30E94413BAE
:103770006B017C0106C0C12CD12C80ECE82E8FE3BC
:10378000F82E622D70E080E090E00E94333A20E055
:1037900030E040EE52E40E9412399B01AC01C701B7
:1037A000B6010E94413B29813A814B815C810E9494
:1037B000413B9B01AC01C501B4010E9413396B016F
:1037C0007C018091AE04881F8827881F9091AF04E8
:1037D000292F220F622F682B97FB772770F9072E6E
:1037E000000C880B990B0E94333A9B01AC01C70176
:1037F000B6010E9413390E94023A7D818E810E9497
:103800009A17472F282FC8010E944F180F5F1F4F8C
:103810008F819885049698878F830033110509F06E
:1038200061CF28960FB6F894DEBF0FBECDBFDF91F3
:10383000CF911F910F91FF90EF90DF90CF90BF90AD
:10384000AF909F908F907F906F905F904F903F9040
:103850002F9008952F923F924F925F926F927F9296
:103860008F929F92AF92BF92CF92DF92EF92FF9290
:103870000F931F93CF93DF9300D000D01F92CDB74B
:10388000DEB72091B0042A838091B1048B836091CC
:10389000AD037091AE038091AF039091B0030E948D
:1038A000313A2BED3FE049E450E40E94413B20E0F7
:1038B00030E040E05CE30E94413B6B017C010E94F0
:1038C00084392B013C01C701B6010E94AE3B4B017C
:1038D0005C01A9E1B1E0BD83AC8300E010E0EC81C4
:1038E000FD813197B081B983EC81FD8130802090DA
:1038F000B204222069F0622D70E0660F771F072E58
:10390000000C880B990B0E94333A6B017C0105C0B7
:10391000C12CD12CE12C20E4F22E632D70E080E04C
:1039200090E00E94333A20E030E040E052E40E9410
:1039300012399B01AC01C701B6010E94413BA301B2
:1039400092010E94413B6B017C01222021F0312C2D
:10395000220C331C03C082E0282E312CF9816F2FFA
:1039600070E080E090E00E94333A20E030E040EEEA
:1039700052E40E9412390E94FB399B0177FF04C078
:1039800022273327261B370B82E490E0821B930B00
:10399000289EB001299E700D389E700D1124072EAF
:1039A000000C880B990B0E94333AA50194010E94E8
:1039B000413B9B01AC01C701B6010E9413396B0169
:1039C0007C018091AE04881F8827881F9091AF04E6
:1039D000292F220F622F682B97FB772770F9072E6C
:1039E000000C880B990B0E94333A9B01AC01C70174
:1039F000B6010E9413390E94023A7A818B810E949B
:103A00009A17472F282FC8010E944F180F5F1F4F8A
:103A10008C819D8104969D838C830033110509F070
:103A20005ECF0F900F900F900F900F90DF91CF917E
:103A30001F910F91FF90EF90DF90CF90BF90AF90CC
:103A40009F908F907F906F905F904F903F902F90BE
:103A500008952F923F924F925F926F927F928F9232
:103A60009F92AF92BF92CF92DF92EF92FF920F930D
:103A70001F93CF93DF9300D01F92CDB7DEB7209076
:103A8000B0048091B10489836091AD037091AE035D
:103A90008091AF039091B0030E94313A20E030E072
:103AA00040E85BE30E94413B20E030E040E653E425
:103AB0000E94413B2B013C01E9E1F1E0FB83EA83F9
:103AC00000E010E0EA81FB8131973080EA81FB81E0
:103AD000E080F090B204FF2079F06F2D70E080E07C
:103AE00090E00E94333A20E030E040EC5FE30E9437
:103AF000413B4B015C0106C0812C912C90ECA92E1E
:103B00009FE3B92E6E2D70E080E090E00E94333A82
:103B100020E030E040E052E40E9412390E94FB397C
:103B20009B0177FF04C022273327261B370BB901DF
:103B3000330F880B990B0E94333A9B01AC01C501EE
:103B4000B4010E94413B2EE23DEB4BEB53EB0E9454
:103B5000413B4B015C01FF2079F06F2D70E080E06C
:103B600090E00E94333A20E030E040EC5FE30E94B6
:103B7000413B6B017C0106C0C12CD12C80ECE82EAE
:103B80008FE3F82E632D70E080E090E00E94333ADE
:103B9000A30192010E9412399B01AC01C701B60139
:103BA0000E94413B9B01AC01C501B4010E94123946
:103BB0006B017C018091AE04881F8827881F90913B
:103BC000AF04292F220F622F682B97FB772770F9FC
:103BD000072E000C880B990B0E94333A9B01AC0115
:103BE000C701B6010E9413390E94023A722D8981E1
:103BF0000E949A17472F282FC8010E944F180F5F65
:103C00001F4F8A819B8104969B838A830033110511
:103C100009F058CF0F900F900F90DF91CF911F9127
:103C20000F91FF90EF90DF90CF90BF90AF909F905B
:103C30008F907F906F905F904F903F902F9008955E
:103C4000CF92DF92FF920F931F93CF93DF931F9238
:103C5000CDB7DEB7F82E0091AD031091AE032091E1
:103C6000AF033091B0039091B204992359F0692FBA
:103C700070E08AE090E00E94233CAB01770F660B76
:103C8000770B04C04AE050E060E070E0402351232D
:103C900062237323452B462B472B39F40E94AB3C00
:103CA00060E370E00E94233C01C08FEF00E010E071
:103CB000C82ED12CF11003C00C151D0581F40E94F3
:103CC000AB3C89830E94AB3C782F69818091B10421
:103CD0000E949A17472F282FC8010E944F180F5F84
:103CE0001F4F0033110531F70F90DF91CF911F91D6
:103CF0000F91FF90DF90CF90089508950E947D1E50
:103D00000C94B10F4091AE0440FD0AC00E945918B6
:103D10000E947E1E8091AE048170809309010895F7
:103D20008091A703843120F48F5F8093A7030895C7
:103D30008091AD039091AE03A091AF03B091B00319
:103D40000196A11DB11D8093AD039093AE03A09386
:103D5000AF03B093B0038091A9039091AA03A091FF
:103D6000AB03B091AC038F3F2FEF9207A207B207CE
:103D700059F00196A11DB11D8093A9039093AA0348
:103D8000A093AB03B093AC038091A803E9EBF4E0FC
:103D900090819F3F61F09E3F41F4282F30E0223018
:103DA000310514F0815001C080E09F5F908331960F
:103DB00094E0E93EF90761F78093A803E42FE695C4
:103DC000EF7380910801E81307C081E09091090129
:103DD000913019F480E001C081E08170E093080126
:103DE00091E0909309014E2F50E0FA013197EB30AA
:103DF000F10520F5E358FF4F0C94593C0E945E18E2
:103E00001DC00E946F1A1AC00E94731817C00E942A
:103E1000E51814C00E94741911C00E94C5190EC083
:103E20000E941A1A0BC00E94281B08C00E942A1C5C
:103E300005C00E94291D02C00E94201E0C947E1EF7
:103E4000E0919F02F091A0020995E9EBF4E08FEF79
:103E5000819394E0E93EF907D9F70E94DD2F8111A3
:103E600004C00E9457300E943A180E943018609394
:103E7000AE047093AF048093B0049093B1046E7756
:103E800061F40E943A180E9430186093AE04709357
:103E9000AF048093B0049093B10408956091AD0392
:103EA0007091AE038091AF039091B0030895EEEA54
:103EB000F4E08081982F909590FB80F98083608159
:103EC0007181828193810C9434189091AE04892F72
:103ED00086958F5F8F7391788C3018F4880F892BBB
:103EE00002C0892F82608093AE046091AE0470910D
:103EF000AF048091B0049091B1040C943418909167
:103F0000AE04892F8695815C8F739178882319F090
:103F1000880F892B02C0892F86618093AE0460913F
:103F2000AE047091AF048091B0049091B1040C94F0
:103F300034188091AE04982F991F9927991F80916A
:103F4000AF04880F892B90E008968F3F910519F0F8
:103F500014F08FEF90E02091AE0480FB27F92093BE
:103F6000AE04282F26958091AF048078822B90FB99
:103F700087F98093AF046091AE047091AF04809193
:103F8000B0049091B1040C9434188091AE04982F31
:103F9000991F9927991F8091AF04880F892B90E072
:103FA000089797FF02C080E090E08F3F910519F0DD
:103FB00014F08FEF90E02091AE0480FB27F920935E
:103FC000AE04282F26958091AF048078822B90FB39
:103FD00087F98093AF046091AE047091AF04809133
:103FE000B0049091B1040C9434188091B00490E026
:103FF00008968F3F910519F014F08FEF90E08093B1
:10400000B0046091AE047091AF048091B0049091BF
:10401000B1040C9434188091B00490E0089797FF95
:1040200002C080E090E08F3F910519F014F08FEF0F
:1040300090E08093B0046091AE047091AF048091E1
:10404000B0049091B1040C9434188091B10490E0C4
:1040500008968F3F910519F014F08FEF90E0809350
:10406000B1046091AE047091AF048091B00490915E
:10407000B1040C9434188091B10490E0089797FF34
:1040800002C080E090E08F3F910519F014F08FEFAF
:1040900090E08093B1046091AE047091AF04809180
:1040A000B0049091B1040C9434188091B20490E063
:1040B00001968430910514F083E090E08093B2047F
:1040C0006091AE047091AF048091B0049091B104FE
:1040D0000C9434188091B20490E0019797FF02C0CD
:1040E00080E090E08430910514F083E090E08093CC
:1040F000B2046091AE047091AF048091B0049091CD
:10410000B1040C943418EEEAF4E08F73982F990FF1
:1041100080818178892B8083608171818281938104
:104120000C943418EEEAF4E08F73982F990F808185
:104130008178892B808308958091AE0486958F7352
:104140000895EEEAF4E0208180FB27F92083AFEAAE
:10415000B4E086952C912078822B90FB87F98C9384
:104160006283438360817181828193810C943418CE
:10417000EEEAF4E0208180FB27F92083AFEAB4E087
:1041800086952C912078822B90FB87F98C93628303
:104190004383089567E784E70C949F22CF930E949E
:1041A000DE2284E70E94242187E70E942421C0E0C8
:1041B00021E041E061E08C2F0E94B621CF5FC03347
:1041C000B9F767E784E7CF910C94B222E9E0F6E013
:1041D0006083418324E630E042E050E0BF01880F75
:1041E0000C94B423EF92FF921F93CF93DF937B0144
:1041F000182F110FC0E0D0E08C2F8C5D8093090642
:1042000020E030E0F901EC0FFD1FEE0DFF1D808175
:10421000F901E75FF94F81832F5F3F4F203131056F
:1042200089F724E630E041E150E069E076E0812F53
:104230000E94B4236096C039D105F1F6DF91CF9189
:104240001F91FF90EF900895CF93DF93C82F4BE01D
:104250006DEF0E94E62040E06AE08C2F0E94E6208D
:104260008FE39CE90197F1F700C0000040E060E0B7
:104270008C2F0E94E62040E061E08C2F0E94E62017
:1042800040E066E08C2F0E94E62040E06DEF8C2F2E
:104290000E94E620D0E040E06D2F8C2F0E94E620A7
:1042A000DF5FD231C1F740E06D2F8C2F0E94E620F6
:1042B000DF5FD432C1F740E06D2F8C2F0E94E620E3
:1042C000DF5FD43BC1F74BE06DEF8C2F0E94E620FF
:1042D00041E06AE08C2F0E94E62040E06DEF8C2FD9
:1042E000DF91CF910C94E6208033910520F5880F63
:1042F000991F880F991FFC01E952FE4F52813381AB
:10430000808183707181E0E98E9FC0011124875103
:104310009B4FFC01E70FF11DB4976083FC01E50F93
:10432000F11DB4974083830F911DFC01B497208346
:1043300081E08093D6030895FF920F931F93CF934C
:10434000DF93182F062FF42EC0E0D0E02F2D402F42
:10435000612FCE010E9474212196C033D105B1F79F
:10436000DF91CF911F910F91FF9008954F925F922F
:104370007F928F929F92AF92BF92CF92DF92EF92F5
:10438000FF920F931F93CF93DF93362F54E0859FB7
:10439000C0011124FC01E952FE4FA081A3707A2EC6
:1043A000618170E0CB0184978C0197FF02C0095FA7
:1043B0001F4FA3E015950795AA95E1F7628170E07C
:1043C0007B0154E2E51AF108E701F7FC279673E058
:1043D000D595C7957A95E1F7638170E04B01E4E2EA
:1043E0008E1A9108F40197FC37962F0153E05594EB
:1043F00047945A95E1F768E0A62EB12CB5010E94CA
:10440000233C6C01C701B5010E94233C7C01C4011F
:10441000B5010E94233CA72DB0E01127DD243323F2
:10442000A1F032E13A9FB0013B9F700D1124060FBD
:10443000171F0E541C4F61E070E001C0660FCA9454
:10444000EAF7F8013081632B14C032E13A9FB001E2
:104450003B9F700D1124060F171F0E541C4F61E077
:1044600070E001C0660FCA94EAF76095F8013081E8
:1044700063236083DD27FF2432E1442391F03A9FD8
:10448000A0013B9F500D1124C40FD51FCE54DC4F0B
:1044900041E050E001C0440FEA94EAF73881432B31
:1044A00012C03A9FA0013B9F500D1124C40FD51F8D
:1044B000CE54DC4F41E050E001C0440FEA94EAF7EB
:1044C0004095388143234883A2015527992792E1DB
:1044D0009A9FF0019B9FF00D1124E40FF51FEE54FD
:1044E000FC4F222361F021E030E0A90102C0440F1B
:1044F000551F8A95E2F7CA019081892B0CC021E0F3
:1045000030E0A90102C0440F551F8A95E2F7CA01A5
:10451000809590818923808381E08093B103DF912E
:10452000CF911F910F91FF90EF90DF90CF90BF90B0
:10453000AF909F908F907F905F904F900895CF9312
:104540009091D603992351F0C62F69EE74E00E9432
:10455000F22069E775E08C2F0E94F2201092D603BA
:10456000CF910895EF92FF920F931F93CF93DF9314
:104570009091B1039923D9F0162F082F82EBE82EE2
:1045800083E0F82EC0E0D0E0F70141917F016C2F6D
:10459000802F0E94E620FE01EE54FC4F42896C2FD2
:1045A000812F0E94E6202196C231D10569F7DF9163
:1045B000CF911F910F91FF90EF9008951092B90045
:1045C0008CE08093B8000895EF92FF920F931F93B1
:1045D000CF93DF93182FEB011092BC0084EA8093F5
:1045E000BC000E946B317C019091BC0097FD0EC015
:1045F000CF3F8FEFD807C1F30E946B318E199F090F
:104600008C179D0788F38EEF9FEF2EC09091B90015
:10461000987F983041F09091B900987F903119F0CF
:104620008FEF9FEF21C01093BB0084E88093BC0004
:104630000E946B318C019091BC0097FD0CC0CF3F64
:104640008FEFD807C1F30E946B31801B910B8C1741
:104650009D0788F3D8CF8091B900887F883111F009
:104660008034F1F680E090E0DF91CF911F910F91BF
:10467000FF90EF9008950F931F93CF93DF93EB017B
:104680008093BB0084E88093BC000E946B318C0156
:104690009091BC0097FD0EC0CF3F8FEFD807C1F3BC
:1046A0000E946B31801B910B8C179D0788F38EEF56
:1046B0009FEF0CC02091B900287F81E090E0283264
:1046C00011F480E090E0919581959109DF91CF916F
:1046D0001F910F9108950F931F93CF93DF93EC01D8
:1046E00084E88093BC000E946B318C019091BC00E7
:1046F00097FD0EC0CF3F8FEFD807C1F30E946B31FB
:10470000801B910B8C179D0788F38EEF9FEF03C0E2
:104710008091BB0090E0DF91CF911F910F910895A0
:104720000F931F93CF93DF93EC0184E98093BC0038
:104730000E946B318C019091BC0094FF0EC0CF3F62
:104740008FEFD807C1F30E946B31801B910B8C1740
:104750009D0788F38EEF9FEF02C080E090E0DF912D
:10476000CF911F910F910895CF92DF92EF92FF9218
:104770000F931F93CF93DF936B017A018901B901E6
:104780000E94E422FC01892BC9F4E601EC0CFD1C1B
:10479000CE15DF0541F0B80189910E943B23FC0151
:1047A000892BB1F30BC0C801DF91CF911F910F91FD
:1047B000FF90EF90DF90CF900C949023CF01DF918A
:1047C000CF911F910F91FF90EF90DF90CF900895C0
:1047D0009093DC038093DB030895E091DB03F09179
:1047E000DC03309721F00190F081E02D099480E006
:1047F0000895E091DB03F091DC03309799F020916C
:104800001601222359F02091210627FF07C0DC0161
:104810002C9111962C93119725E02C930280F38113
:10482000E02D099408952091D9033091DA0382177D
:10483000930771F09093DA038093D903E091DB033F
:10484000F091DC03309721F00680F781E02D099488
:1048500008952091D7033091D8038217930771F000
:104860009093D8038093D703E091DB03F091DC03AE
:10487000309721F00084F185E02D0994089585B7E3
:10488000806885BF85B7806885BF089508950895BD
:104890000C94472408950C944A240E943F240E94BB
:1048A00046240C94482481E008950E9462310E94BD
:1048B000B4060E94F9310C944B24CF92DF92EF9210
:1048C000FF920F931F93CF93DF93CDB7DEB72B9754
:1048D0000FB6F894DEBF0FBECDBF0E9486070E94C0
:1048E0005324811111C08FEF89838A831B820E9418
:1048F0006B318160782F9D838C8349815A816B81D4
:104900008D810E94032556C08EEDC82E83E0D82EDF
:1049100000E010E0E02E802F0E94CE07F6014191CA
:104920006F01F42EF82631F40F5F1F4F0E30110582
:1049300089F7D9CF9091890491FF04C08B870E9499
:10494000D4078B8520E030E04F2D50E0922FBA0144
:10495000022E02C0759567950A94E2F760FF24C0A5
:104960002E83EF8221E030E0690102C0CC0CDD1C17
:104970009A95E2F790E08C219D21892B09F420E0A3
:1049800028870E946B318160782F9A8789874E81B2
:104990005F8168858A850E940325F801E252FC4FF9
:1049A0008081C826C08206C02F5F3F4F2630310568
:1049B00069F6BACF1091DD030E94ED231817A1F01C
:1049C0000E94ED238093DD032B960FB6F894DEBF93
:1049D0000FBECDBFDF91CF911F910F91FF90EF9050
:1049E000DF90CF900C94AD112B960FB6F894DEBFEC
:1049F0000FBECDBFDF91CF911F910F91FF90EF9030
:104A0000DF90CF900895CF93DF93CDB7DEB72B978C
:104A10000FB6F894DEBF0FBECDBF4F8358876987AE
:104A20007A878B87DE01119686E0FD0111928A95C7
:104A3000E9F785E0FE01379601900D928A95E1F73E
:104A400049815A816B817C818D819E810E94CE2B10
:104A50002B960FB6F894DEBF0FBECDBFDF91CF917E
:104A60000895FC01808191810E949B2E08958823E6
:104A700009F413C1682F8238C1F40E94ED2381FD2F
:104A80000CC169E380910A0190910B010E94BE3034
:104A90000E94292F2FEF81EE94E02150804090401A
:104AA000E1F700C0000069E319C08338F9F40E94FF
:104AB000ED2380FDF2C063E580910A0190910B0126
:104AC0000E94BE300E94292F2FEF81EE94E02150EA
:104AD00080409040E1F700C0000063E580910A014A
:104AE00090910B010E94C9300C94292F8438C1F495
:104AF0000E94ED2382FDD1C067E480910A0190916C
:104B00000B010E94BE300E94292F2FEF81EE94E00E
:104B1000215080409040E1F700C0000067E4DECF04
:104B20008CEF860F813A38F480910A0190910B0145
:104B30000E94BE30D9CF80E2860F883048F467707B
:104B400081E001C0880F6A95EAF70E94DD2ECCCF84
:104B50008BE5860F833070F4653A29F0663A31F0C0
:104B600083E890E005C081E890E002C082E890E030
:104B70000C94132488E5860F873108F08EC0683ABC
:104B800009F445C0693A09F445C06A3A09F445C0D8
:104B90006B3A09F445C06C3A09F445C06B3B09F423
:104BA00045C06C3B09F445C06D3A09F445C0603B13
:104BB00009F445C06E3A09F445C06F3A09F445C09E
:104BC000613B09F445C0623B09F445C0633B09F40D
:104BD00045C0643B09F445C0653B09F445C0663BEC
:104BE00009F445C0673B09F445C0683B09F445C07A
:104BF000693B09F445C06D3B09F445C06E3B09F4BF
:104C000045C06A3B09F445C080E090E044C082EEB4
:104C100090E041C089EE90E03EC08AEE90E03BC05B
:104C200085EB90E038C086EB90E035C083EB90E0F8
:104C300032C084EB90E02FC087EB90E02CC08CEC6E
:104C400090E029C08DEC90E026C083E891E023C07D
:104C50008AE891E020C082E991E01DC084E991E0FA
:104C60001AC081E292E017C083E292E014C084E2AD
:104C700092E011C085E292E00EC086E292E00BC0A5
:104C800087E292E008C08FE690E005C080E790E000
:104C900002C08AE292E00C9429240895882309F442
:104CA0005BC0682F823879F40E94ED2381FF54C0E5
:104CB00069E380910A0190910B010E94BE300E942D
:104CC000292F69E310C08338B1F40E94ED2380FFDF
:104CD00043C063E580910A0190910B010E94BE30B0
:104CE0000E94292F63E580910A0190910B010E9497
:104CF000C9300C94292F843879F40E94ED2382FF67
:104D00002BC067E480910A0190910B010E94BE3094
:104D10000E94292F67E4E7CF8CEF860F813A18F3C2
:104D200080E2860F883048F4677081E001C0880F08
:104D30006A95EAF70E94E32EDCCF8BE5860F83307D
:104D400020F480E090E00C941324685A673120F43A
:104D500080E090E00C9429240895CF93C82F0E94FE
:104D600037258C2FCF910C944E26882321F00E945A
:104D7000DD2E0C94292F0895882321F00E94E32E24
:104D80000C94292F08958F929F92AF92BF92DF9239
:104D9000EF92FF920F931F93CF93DF937C01D62F57
:104DA000C72FFC01058102950F70128111110E941D
:104DB000FD2E0E94D32E882379F0112369F080E222
:104DC0008D0F883048F082E00E94742F0E94D32E0D
:104DD00091E0D82ED92601C0D12CAC2EA2948FE020
:104DE000A822B12CF501E857FF4F0C94593C8C2FA9
:104DF000807FCF70882311F0C295C07F112399F076
:104E0000CC2309F485C180E28D0F883010F0D111D8
:104E100004C08C2F0E94DD2E03C08C2F0E94F02E28
:104E20000E94292F75C18D2F0E944E26CC2309F494
:104E300094C180E28D0F883010F0D11104C08C2F06
:104E40000E94E32E03C08C2F0E94F62E0E94292F71
:104E500084C18C2F807FCF70803211F0C295C07FCB
:104E6000DD2319F0D130C9F021C0112371F00023E6
:104E700041F0013031F40E94102F8C2B0E94162F2C
:104E80006CC10E94102F8C2BFDC0002319F0013043
:104E900009F463C10E941F2F11C0112321F00230B9
:104EA00008F05BC107C0011158C108C0112321F0EF
:104EB00001112EC18C2FE6C001113BC18C2FE8C01F
:104EC0008C2F86958695837090E0009719F0019756
:104ED00061F043C1112321F08D2F9C2F937002C0EC
:104EE00080E090E00E94132448C1112321F08D2F0F
:104EF0009C2F937002C080E090E00E9429243DC165
:104F00008C2F837009F050C0111133C18D2F829501
:104F100086958770880F880F9D2F9F70892E912C02
:104F2000A12CB12C082E04C0880C991CAA1CBB1CF7
:104F30000A94D2F7D4FF14C00FE010E020E030E074
:104F4000B901A80104C0440F551F661F771F8A9539
:104F5000D2F7CB01BA01609570958095909503C00A
:104F600060E070E0CB01C695C695C370D0E0C2305A
:104F7000D10561F0C330D10581F0682979298A29EA
:104F80009B29219771F00E94132DF3C0682979297C
:104F90008A299B290E94252DECC00E94132DC50152
:104FA000B4010E94012DE5C0112319F08C2F8170EE
:104FB00001C08695882309F4DCC08D2F82958695E3
:104FC0008770880F880F9D2F9F70892E912CA12CA0
:104FD000B12C082E04C0880C991CAA1CBB1C0A9476
:104FE000D2F7D4FF14C00FE010E020E030E0B901A8
:104FF000A80104C0440F551F661F771F8A95D2F77A
:10500000CB01BA01609570958095909503C060E0E2
:1050100070E0CB01C695C695C3704C2F50E042306E
:10502000510569F04330510589F0682979298A29A9
:105030009B294130510571F00E94D82D9AC06829F2
:1050400079298A299B290E94EA2D93C00E94D82D94
:10505000C501B4010E94C62D8CC08D2F90E0FC01CB
:10506000E05EF109E531F10508F04EC0E856FF4F6A
:105070000C94593CDF708C2F8F71112331F00E94FA
:105080005F2D8D2F0E94B52668C00E94802D8D2F28
:105090000E94BC2662C0112339F001115EC08C2F22
:1050A0008F710E94A52D59C0023008F056C0F7CF6D
:1050B000112339F08C2F8F710E945F2D4EC0112368
:1050C000C9F38C2F8F710E94802D47C0112329F0C6
:1050D0008C2F8F710E944A2D40C00E94452D3DC0EB
:1050E000112349F0CF718C2F0E945F2D63E08C2F2C
:1050F0000E945F2F32C081E00E94742F023068F15D
:1051000082E00E94742F29C0112331F0002391F214
:105110008D2F0E94372521C0002399F2D93349F4FD
:105120005FEF67EE73E0515060407040E1F700C000
:1051300000008D2F0E944E2610C04C2F4F706D2FF7
:10514000C7010E9420100E94722C17C04C2F4F7074
:105150006D2FC7010E94611410C088E0A816B10429
:1051600041F05CF0EAE0AE1AB108F2E0AF16B1042B
:1051700020F40E94ED230E94AD11DD20E1F00E9499
:10518000CF2E80FD18C0F70112820E94C92E0E9406
:105190005F2DC7010E94E7280E94C92EDF91CF91A1
:1051A0001F910F91FF90EF90DF90BF90AF909F9075
:1051B0008F900C94802DDF91CF911F910F91FF90D4
:1051C000EF90DF90BF90AF909F908F9008950F93D6
:1051D0001F93CF93DF93EC01888199812B813C81D0
:1051E000232BB9F09F3F11F48F3F99F0CE010E941D
:1051F000BF11882371F0688179818A810E94A62E6F
:105200008C010E94FC2D0E94FE2CB801CE010E9450
:10521000C326DF91CF911F910F9108950E94FD2E1B
:105220000E940D2F0E94292F80E090E00E941324FD
:1052300080E090E00C94292480910A0190910B0168
:105240000E94D4300C940E290E94ED2E0C941C293F
:10525000E92FE295EF70F0E03297EE30F105B0F40F
:10526000E355FF4F0C94593C803F91F018F4803E79
:1052700068F40EC0843F51F40BC0803E48F0813F7B
:1052800029F406C093FB882780F9089580E00895EB
:1052900081E008950E949B2E0E9428290895CF93B3
:1052A000DF9300D000D01F92CDB7DEB70F900F90E4
:1052B0000F900F900F90DF91CF910895CF93DF93D0
:1052C00000D000D000D0CDB7DEB726960FB6F89448
:1052D000DEBF0FBECDBFDF91CF9108951F93CF9357
:1052E000DF93C091ED0316E08091EE03C81799F0AB
:1052F000D0E01C9FF0011D9FF00D1124E151FC4FE7
:105300004081518162817381848195810E945E29EF
:105310002196C770E9CFDF91CF911F9108954091F9
:105320001F04509120046091210470912204809107
:105330002304909124040C945E2980912404829586
:105340008F7009F054C080912104882309F44FC064
:105350008091ED03A091EE0360911F0470912004F1
:105360004091220450912304B6E08A1709F43FC00B
:1053700090E041155105C1F17F3F11F46F3FA1F15C
:10538000B89FF001B99FF00D1124E151FC4F21812C
:1053900072132AC02081621327C02281211124C0E8
:1053A000238134812417350710F421503109241B3F
:1053B000350B283C3105C0F4209124042F70206166
:1053C0002093240426E0289FF001299FF00D11244A
:1053D000EC50FC4F80818F70806180838FE194E07E
:1053E0000E94E7280C946E2901968770BECF08951D
:1053F000CF92DF92EF92FF920F931F93CF93DF93A1
:10540000CDB7DEB762970FB6F894DEBF0FBECDBF43
:105410008C0185E0F801DE011D9601900D928A95C0
:10542000E1F7D8014C9111965C91119712966C910D
:1054300012971396CD90DC90149730911F047091C1
:1054400020048091220490912304009709F46BC1F9
:105450007F3F19F43F3F09F466C1E0902104EE203C
:1054600009F4C0C020912404C816D90628F0F6011A
:10547000E81BF90BCF0104C0809590958C0D9D1D04
:10548000FF24F394883C910578F0F12C207F09F0FB
:10549000C6C07C2DD98AC88A89890E944F298FE18C
:1054A00094E00E94E728B1C0822F807F09F046C0B7
:1054B000751314C0341312C0611110C02F70206115
:1054C000209324040E948F298FE194E00E94E72812
:1054D00080912404D80115968C932EC0CD2819F103
:1054E0005F3F11F44F3FF9F0F62E61111CC080911F
:1054F000ED032091EE0336E0821709F45AC090E0E4
:10550000389FF001399FF00D1124E151FC4F71815A
:10551000571306C07081471303C07281711103C015
:1055200001968770E9CFF62E662309F427C1809192
:105530002404816080932404F12C20C1751308C0D9
:10554000341306C0611104C080912404D801C3C083
:105550004D875E878D859E856A8B0E944A296A8960
:105560008823E1F16623D1F120912404822F8295D2
:105570008F7090E0029774F080911F049091200446
:1055800098878F831986DB86CA862C87CE0107967B
:105590000E94E72886E0F801AFE1B4E001900D92A7
:1055A0008A95E1F70E949D290E948F29FF24F39498
:1055B000E5C04D875E878D859E850E949B2E292F95
:1055C00022952F7030E0223031050CF0CBC09F7057
:1055D00009F0C5C0805E883008F4D0C0C8010E94C0
:1055E000E728E4CFC816D90608F453C0F601E81B33
:1055F000F90BCF01883C910508F450C0F12C7C2DAB
:10560000D98AC88A89890E944F29EFE1F4E086E0AF
:10561000DF011D928A95E9F70E948F29AFC07513AB
:1056200014C0341312C0611110C080912404F80119
:105630008583C8010E94E72886E0EFE1F4E0DF01FE
:105640001D928A95E9F7FE2C99C04D875E878D855E
:105650009E856A8B0E944A296A89882309F4BECFF5
:10566000662309F4BBCF20912404822F82958F708A
:1056700090E002970CF48ECF80911F04909120044B
:105680009A8389831B82DD82CC822E83CE01019690
:105690007FCF809590958C0D9D1DACCFF62E662307
:1056A00009F49CCF75132EC034132CC02091240410
:1056B00020FD1FC0822F82958F70D9F0D8011596DA
:1056C0002C9315978F3049F08F5F982F9295907F8C
:1056D000822F8F70892B15968C93C8010E94E72822
:1056E00086E0F801AFE1B4E001900D928A95E1F710
:1056F00093CF86E0F801AFE1B4E001900D928A9576
:10570000E1F73CC04D875E878D859E850E944A29C2
:10571000811140CF80912404816080932404C801CA
:105720000E94E7282BC0662309F458CF4D875E8777
:105730008D859E850E944A29F82E882309F44ECF34
:1057400086E0F801AFE1B4E001900D928A95E1F7AF
:105750008FE194E00E9431250E949D295DCF811147
:1057600039CF0CC0243031050CF038CF9F7009F4CC
:1057700031CFF8019581907F09F02CCF8F2D629663
:105780000FB6F894DEBF0FBECDBFDF91CF911F9152
:105790000F91FF90EF90DF90CF9008951F93CF93DC
:1057A000DF93CDB7DEB72C970FB6F894DEBF0FBEF0
:1057B000CDBF4F83588769877A878B879C87CE01B7
:1057C00007960E94F829882369F08F8198852A8599
:1057D0003B85232BF1F19F3F09F063C08F3F09F018
:1057E00060C037C086E0FE013796DE011196019059
:1057F0000D928A95E1F76F817885EA85FB85309770
:1058000041F17F3F11F46F3F21F12091EE0330E031
:10581000C9010196877099274091ED0350E08417E4
:10582000950709F447C069837A83FD83EC8396E08A
:10583000929FD001939FB00D1124A151BC4FFE0146
:10584000319601900D929A95E1F78093EE030E94B4
:105850006E2916E08091ED039091EE038917C1F156
:10586000189FC001112481519C4F0E94F829882360
:1058700079F1E091ED031E9FF0011124E151FC4FFD
:105880004081518162817381848195810E945E296A
:105890008091ED0390E00196877099278093ED0346
:1058A000D9CF4F81588569857A858B859C850E94E3
:1058B0005E29CFCF0E9424291092EE031092ED03AF
:1058C000EFE1F4E086E0DF011D928A95E9F7C1CFB0
:1058D0002C960FB6F894DEBF0FBECDBFDF91CF91EF
:1058E0001F910895EF92FF920F931F93CF93DF9331
:1058F0008C01892B09F46CC0F12CEE24E394E801AF
:105900002196F8018491843740F4843008F051C026
:10591000813081F0823019F15BC0853709F444C0D1
:10592000A8F19CE7980F903708F052C08F770E943B
:105930004E2641C00E5F1F4FFE01C49180E28C0FC6
:10594000883048F4C7708E2D01C0880FCA95EAF7D9
:105950000E94002F14C08C2F0E9437252DC00E5F8F
:105960001F4FFE01C49180E28C0F883058F4C7703D
:105970008E2D01C0880FCA95EAF70E94062F0E945B
:10598000292F1AC08C2F0E944E2616C00E5F1F4F63
:10599000FE01C491CC2381F08FE99FE00197F1F7DC
:1059A00000C00000C150F6CF0E5F1F4FFE01F49003
:1059B00003C00E9437258E018F2D882309F49FCFC5
:1059C000EFE9FFE03197F1F700C000008150F5CF1B
:1059D000DF91CF911F910F91FF90EF90089508955F
:1059E0000C94EF2C0E94F02C60936004709361047F
:1059F00080936204909363040C940E2908950C9490
:105A0000F22C0F931F930091600410916104209178
:105A1000620430916304602B712B822B932B1F91B6
:105A20000F910C94F22C0F931F930091600410912E
:105A30006104209162043091630460237123822306
:105A400093231F910F910C94F22C0F931F930091AD
:105A50006004109161042091620430916304602716
:105A60007127822793271F910F910C94F22C0C948D
:105A7000EA100E94372D60935C0470935D0480935C
:105A80005E0490935F040C940E2960E070E0CB01FB
:105A90000C94392D0F931F9341E050E060E070E0CB
:105AA0008A019B0104C0000F111F221F331F8A951A
:105AB000D2F7C901B8011F910F910C94392D0F93A2
:105AC0001F9341E050E060E070E004C0440F551FB8
:105AD000661F771F8A95D2F780915C0490915D04D0
