:100000000C9425060C9442060C9442060C9442066D
:100010000C9442060C9442060C9442060C94420640
:100020000C9442060C9442060C9424360C94F6363A
:100030000C94D7300C9442060C9442060C94420661
:100040000C9442060C9442060C9442060C94420610
:100050000C9442060C943F310C9442060C944206D8
:100060000C9442060C9442060C9442060C944206F0
:100070000C9442060C9442060C9442060C944206E0
:100080000C9442060C9442060C9442060C944206D0
:100090000C9442060C9442060C9442060C944206C0
:1000A0000C9442060C9442060C9442069A069D0655
:1000B000A006A306A606A906AC06DD0FE20FE60F12
:1000C000F00FFC0F02106510A210A710B110A510C0
:1000D000AA10AF10AD10F511F7110212F911FB11B2
:1000E000FD11FF11011204120612081213120A1256
:1000F0000C120E121012121215129C1E9F1EA21E1E
:10010000A51EA81EAB1EAE1EB11EB41EB71EBA1E83
:1001100095269526C726C726FE264B284B284B2812
:100120001E274B28CB27CB273B284B284B2844287E
:10013000D827D827D827D827D827D827D827D827C7
:10014000D827D827D827D827D827D827D827D827B7
:10015000E927F627FD2704280E28D228D228E428EC
:10016000E428DB28E428E428E428D228D228E02860
:10017000E428E428E02863378A377C388A377C38DB
:10018000D637F9377C384F385E3805A84CCDB2D415
:100190004EB93836A9020C50B9918688083CA6AAF7
:1001A000AA2ABE000000803F6572676F646F785FA7
:1001B000657A2F616C6563672040204E4100000026
:1001C000F0A100000000000000000000000000009E
:1001D000000000000000000000000000000000001F
:1001E000000000000000000000000000000000000F
:1001F00000000000000000000000000000000000FF
:1002000000000000000000000000000000000000EE
:1002100000000000000000000000000000000000DE
:1002200000000000000000000000000000000000CE
:1002300000000000000000000000000000000000BE
:1002400000000000000000000000000000000000AE
:1002500000009AFFFF9AFFFF9AFFFF9AFFFF9AFFA5
:10026000FF9AFFFF9AFFFF9AFFFF9AFFFF9AFFFF97
:100270009AFFFF9AFFFF9AFFFF9AFFFF9AFFFF9AEC
:10028000FFFF9AFFFF9AFFFF9AFFFF9AFFFF9AFF77
:10029000FF9AFFFF9AFFFF9AFFFF9AFFFF9AFFFF67
:1002A0009AFFFF9AFFFF9AFFFF9AFFFF9AFFFF9ABC
:1002B000FFFF00CCFF9AFFFF9AFFFF9AFFFF00CCE1
:1002C000FF00CCFF00CCFF9AFFFF9AFFFF9AFFFFD1
:1002D0009AFFFF9AFFFF9AFFFF9AFFFF9AFFFF9A8C
:1002E000FFFF69FFFF69FFFF69FFFF69FFFF69FF0C
:1002F000FF69FFFF69FFFF69FFFF69FFFF69FFFFFC
:1003000069FFFF69FFFF69FFFF69FFFF69FFFF6981
:10031000FFFF69FFFF69FFFF69FFFF69FFFF000043
:100320000000000000000000000069FFFF69FFFFFF
:1003300069FFFF69FFFF69FFFF000000000000F98F
:10034000E4FF000000000000000000F9E4FFF9E411
:10035000FFF9E4FF000000000000000000000000C2
:10036000000000000000000000000000000000008D
:1003700000000000000000000EFFFF0EFFFF0EFF58
:10038000FF69FFFF23FFFF23FFFF23FFFF0EFFFF98
:1003900069FFFF23FFFF23FFFF23FFFF000000F99A
:1003A000E4FF23FFFF23FFFF23FFFF69FFFF0000A0
:1003B0000023FFFF23FFFF000000000000000000FB
:1003C000000000000000000000000000000000230A
:1003D000FFFF00000000000000000023FFFF23FFDC
:1003E000FF23FFFF000000000000000000000000ED
:1003F00000000000000023FFFF23FFFF00000000BB
:1004000000000000000000000000000000000000EC
:1004100000000000000000FA9FFF00000000000044
:10042000000000FA9FFFFA9FFFFA9FFF0000000004
:1004300000000000000000000000000000000000BC
:1004400000000000000000000000000000000000AC
:100450000000000000000000000000000000000E8E
:10046000FFFF00000000000000000069FFFF0EFF1A
:10047000FF69FFFF00000000000000000000000016
:10048000000000000000000000000000000000006C
:10049000000000000000000000000000000000005C
:1004A0000000000086FFD586FFD586FFD50000003E
:1004B00000000086FFD586FFD586FFD5000000002E
:1004C000000086FFD555CB9E86FFD50000000000BA
:1004D000000AE1FF00000000000000000000000032
:1004E000000000000000000000000000000000000C
:1004F00000000000000000000000000000000000FC
:1005000000000000000000000000000000000000EB
:1005100000000000000000000000000000000000DB
:10052000000029002B002A00E100350000001E0019
:10053000140004001D003400F75C1F001A001500B1
:100540001B000100025120000900160006000004F3
:100550002C002100130017001900E000C35C2200EA
:100560000A000700050000006500035101000000BB
:1005700005510000E30001530100000000070000E6
:10058000E70023000D000B000E0000004C002400CB
:100590000F00110010000451F55C25001800080040
:1005A00036000100280026001C000C003700010066
:1005B000000427003300120038000100F65C2D0013
:1005C00031003400E50001000000010001000100DD
:1005D0000100010000001E00140004001D000100C5
:1005E000F25C1F001A0016001B0001000100200031
:1005F00008000700060001000100210015000900A5
:1006000019000100C35C220017000A000500000069
:100610000100010010500000010000000100010075
:100620000100000001000000010023001C000B007D
:10063000110000000100240018000D00100001004E
:10064000C55C25000C000E003600010001002600EC
:1006500012000F00370001000100270013003300D3
:1006600038000100C65C010001000100010001002A
:1006700000000100010058000100010000003A00E4
:100680000100010001000100CA5C3B0001005000B4
:100690000100010001003C00520051000100010076
:1006A00001003D0001004F0001000100C95C3E0057
:1006B00001000100010000000100010010500000D5
:1006C0000100000001000100010000000100000025
:1006D000C25C3F002202210225020000F25C4000C1
:1006E0002F0226022F000100F35C41003002270296
:1006F00030000100C55C42002D0256001F020100BF
:10070000C65C43002E022E0020020100F45C44006F
:10071000450001000100010000000100010001008E
:1007200001000100000001000100010001000100C2
:10073000010001000100F2000100010001000100C0
:10074000F000F1000100F400010001000100F300DD
:100750000100F5000100010001000100010000009E
:100760000100010010500000010000000100010024
:10077000010000000100000001000100A900AA0022
:10078000A800000001000100240021001E0001005B
:1007900001005400250022001F0062000C005500DB
:1007A00026002300200063000100560057000000CF
:1007B00058000100010001000100010001000100DA
:1007C0000000010001000100010001000000010023
:1007D00000000000000001000100000000004A00CD
:1007E00000000100010000004B004E00000001006D
:1007F0000100000000004D000000010001000100A8
:100800000000000000000000010001001050000086
:1008100001000000010001000100000001000000D3
:1008200001000100000000000000000001000000C5
:1008300000005000000001000100000052005100C3
:10084000000001000100000000004F000000010056
:100850000100010000000000000001000100010093
:100860000100010001000100000001000100010081
:100870000100010000000100010001000100010071
:100880000100010001000100010001000100010060
:100890000100010001000100010001000100010050
:1008A0000100010001000100010001000100000041
:1008B0000100010001000000010000000100010032
:1008C0000100000001000000010001000100010022
:1008D0000100000001000100240721071E0701009C
:1008E00001000100250722071F072707010001005B
:1008F0002607230720070100010001000100010075
:1009000001000100010001000100010001000100DF
:10091000000000000000000000002A2B280000005A
:10092000000000000000000000000000002900009E
:1009300000002C1E3420212224342627252E362D7B
:100940003738271E1F202122232425263333362E15
:1009500037381F0405060708090A0B0C0D0E0F1087
:100960001112131415161718191A1B1C1D2F3130CC
:10097000232D350405060708090A0B0C0D0E0F1070
:100980001112131415161718191A1B1C1D2F3130AC
:10099000354C0000000000000000000000000000D6
:1009A0000000000000000000000000000000000047
:1009B000000000010101010101000101010100002D
:1009C0000000000000000000000000000100010025
:1009D0000101010101010101010101010101010107
:1009E00001010101010101010101010101000000FA
:1009F00001010000000000000000000000000000F5
:100A000000000000000000000000000000010101E3
:100A100001000000000000010101010101010101CC
:100A2000020202020202020202030303030303039F
:100A3000030404040404040505050505060606066A
:100A40000607070707080808080909090A0A0A0A21
:100A50000B0B0B0C0C0C0D0D0D0E0E0F0F0F1010C1
:100A60001111111212131314141515161617171845
:100A70001819191A1A1B1C1C1D1D1E1F1F202021AE
:100A800022222324252526272728292A2B2B2C2DF3
:100A90002E2F2F30313233343536363738393A3B12
:100AA0003C3D3E3F4041424344464748494A4B4C07
:100AB0004D4F50515253555657585A5B5C5E5F60CC
:100AC0006263646667696A6C6D6E70717374767860
:100AD000797B7C7E8081838486888A8B8D8F9192BE
:100AE0009496989A9B9D9FA1A3A5A7A9ABADAFB1E2
:100AF000B3B5B7B9BBBDBFC1C4C6C8CACCCFD1D3CB
:100B0000D6D8DADCDFE1E4E6E8EBEDF0F2F5F7FA6F
:100B1000FCFF04033000000016034500720067006C
:100B20006F0044006F007800200045005A0000006C
:100B300016034500720067006F0044006F007800E4
:100B4000200045005A0000000403090409023B008C
:100B5000020100A0FA0904000001030101000921BB
:100B6000110100012240000705810308000A090461
:100B700001000103000000092111010001227100A0
:100B80000705820320000A1201100100000008ED91
:100B9000FE071301000102030105010980A101857F
:100BA000031601002603001A81002A8300751095A0
:100BB000018100C0050C0901A10185041601002670
:100BC0009C021A01002A9C02751095018100C00543
:100BD000010906A1018505050719E029E71500258A
:100BE000019508750181020508190129059505750A
:100BF0000191029501750391010507190029EF156F
:100C000000250195F075018102C005010906A101C9
:100C1000050719E029E715002501950875018102EE
:100C200095017508810105081901290595057501CA
:100C300091029501750391010507190029FF15001F
:100C400026FF00950675088100C011241FBECFEF56
:100C5000DAE0DEBFCDBF12E0A0E0B1E0E8ECF9E7FA
:100C600002C005900D92A03AB107D9F726E0A0EA9C
:100C7000B2E001C01D92A732B207E1F70E944833EB
:100C80000C94E23C0C94000080B38C7080BB81B368
:100C9000836F81BB089584B1807F84B985B1807FE3
:100CA00085B98AB1837F8AB98BB1837F8BB93E982E
:100CB00046980895CF93E82F873090F580910401EE
:100CC00090910501892B09F049C0CE2F64E670E0B0
:100CD00080E40E9482229093050180930401892B75
:100CE000D1F464E670E082E10E94D922909305017C
:100CF00080930401892B79F481E090E001C0880F92
:100D0000CA95EAF764E670E080950E94D922909334
:100D100005018093040184E690E0CF910C942E238A
:100D200090E0FC013797E730F105C0F4EA5AFF4F35
:100D30000C94F73B209A289811C0219A29980EC04C
:100D4000229A2A980BC0239A2B9808C0529A5A9834
:100D500005C0539A5B9802C03E9A4698CF91089579
:100D6000089508950C94B106CF93DF930E94430831
:100D700090E090930501809304010E944B060E942D
:100D80004406A5EFB2E021EA32E0E3E0F3E04EE012
:100D90004E0F11921D9280E090E0E901C80FD91F1B
:100DA0001882019686309105C1F72A5F3F4F4E1396
:100DB000F0CFDF91CF910C941A110E94430890E07C
:100DC00090930501809304010E944B060E94440603
:100DD000E3E0F3E08EE08E0F11928E13FDCF0895C5
:100DE000CF93DF93E62FF0E0EB50FD4F4081482793
:100DF000808386E0689FF0011124EF55FD4F20E0CD
:100E000030E080E061E070E050E0AAE0B22F908135
:100E1000992319F09150908307C0EB01022E01C075
:100E2000CC0F0A94EAF78C2BEA0102C0D595C7953E
:100E3000BA95E2F7C0FDA0832F5F3F4F3196263071
:100E4000310521F7DF91CF910895CF93DF93D82F0C
:100E5000873008F040C08091040190910501892BF2
:100E600009F042C064E670E080E40E948222909320
:100E7000050180930401892B11F0C0E027C064E6CE
:100E800070E083E10E94D9229093050180930401D0
:100E9000892B99F764E670E081E40E9482229093A6
:100EA000050180930401892B41F784E690E00E94BC
:100EB000092397FF05C09093050180930401DDCFBE
:100EC000C82FC095109205011092040184E690E0AD
:100ED0000E942E230AC09FB1CFB1C07FC695C69590
:100EE0009370C92BC09501C0C0E06D2F8C2F0E945C
:100EF000F006282F2095ED2FF0E0ED5FFC4F90815C
:100F000092238C23892BDF91CF910895EF92FF924A
:100F10000F931F93CF93DF9380910401909105016C
:100F2000892B91F08091A0028F5F8093A0028111A4
:100F30000BC00E94430890E0909305018093040148
:100F4000892B11F40E94D50783E0E82E83E0F82E68
:100F50000AE013E0C0E08C2F0E945A06D7E0DC0FB5
:100F60008D2F0E945A068C2F0E942507F70181932E
:100F70007F018D2F0E942507F80181938F010E9428
:100F80004B06CF5FC73039F70E94261181E0DF9111
:100F9000CF911F910F91FF90EF900895E82FF0E00F
:100FA000ED5FFC4F80810895089556985E982598CE
:100FB0002D9826982E9827982F988FEF90E0909351
:100FC00089008093880090938B0080938A0090938F
:100FD0008D0080938C00259A2D9A2FEF80E792E068
:100FE000215080409040E1F700C00000269A2E9AE0
:100FF0002FEF80E792E0215080409040E1F700C061
:101000000000279A2F9A2FEF80E792E0215080402E
:101010009040E1F700C0000025982D982FEF80E761
:1010200092E0215080409040E1F700C000002698F7
:101030002E982FEF80E792E0215080409040E1F71A
:1010400000C0000027982F9856985E9825982D98F4
:1010500026982E9827982F98089589EA80938000E3
:1010600089E08093810024982C983F988AB18F7CE6
:101070008AB96E98479A8BB180638BB9769A0E9431
:10108000D5070C94B00680E290E090930501809320
:1010900004018091110381110EC00E947C2281E025
:1010A000809311032FEF83ED90E321508040904017
:1010B000E1F700C0000064E670E080E40E94822254
:1010C0009093050180930401892B09F050C064E6D8
:1010D00070E080E00E94D922909305018093040182
:1010E000892B09F044C064E670E080E00E94D922B8
:1010F0009093050180930401892BC9F564E670E0A3
:101100008FE30E94D9229093050180930401892BDB
:1011100071F584E690E00E942E2364E670E080E49E
:101120000E9482229093050180930401892BF9F497
:1011300064E670E08CE00E94D922909305018093D0
:101140000401892BA1F464E670E080E00E94D922BA
:101150009093050180930401892B49F464E670E0C3
:101160008FE30E94D922909305018093040184E6C5
:1011700090E00E942E238091040108958530A8F408
:101180006A3098F4843029F4653010F46F5F01C040
:101190006150982F990F990F890F653018F4845E6C
:1011A000861B08958550860F089580E008952F923C
:1011B0003F924F925F926F927F928F929F92AF92E7
:1011C000BF92CF92DF92EF92FF920F931F93CF9334
:1011D000DF9300D000D000D0CDB7DEB77B018823ED
:1011E00089F0E9E6F3E0119211921192119223E055
:1011F000E139F207C1F7109268031092670381E0AA
:1012000080930701C0906703D0906803CE0CDF1C69
:1012100081EDC81687E0D80620F090EDC92E97E042
:10122000D92ED0926803C0926703B6010D2C000C32
:10123000880B990B0E94D13920E030E04AEF54E44A
:101240000E9427394B015C01109107011F3F51F4A7
:101250009B01AC0160E070E080E89FE30E94B03841
:101260004B015C0120E030E040E05FE3C501B401E8
:101270000E941D3918163CF0C501B4010E94543B70
:101280009B01AC0122C020E030E040E05FE3C501FB
:10129000B4010E94B0384B015C019B01AC010E947B
:1012A000B1382B013C01A501940160E070E080E8B9
:1012B0009FE30E94B0389B01AC01C301B2010E94C0
:1012C000DF3A20E030E040E05FE30E94B138E0ED3B
:1012D000CE16E7E0DE0639F4109268031092670339
:1012E00011951093070120E030E040E151E40E94A5
:1012F000DF3A69837A838B839C83B70180E090E037
:101300000E94CF399B01AC0160E070E08AEF94E469
:101310000E94B03820E030E04AEF54E40E942739C0
:101320002B013C0189E6282E83E0382E10E0612F46
:1013300070E080E090E00E94CF399B01AC016981B0
:101340007A818B819C810E94B0386B017C01E8948A
:10135000F7F8F1012081318142815381C301B2014B
:101360000E94DF3A4B015C0120E030E040E050E4B5
:10137000C701B6010E941D391816D4F0A7019601C5
:1013800060E070E080E090E40E94B03820E030E05F
:1013900040E05FE30E94DF3A9B01AC01C501B4016C
:1013A0000E940C3AF101608371838283938305C0AC
:1013B000F10180829182A282B3821F5FF4E02F0E3E
:1013C000311C1A3009F0B3CFD12C09E613E0E12C1F
:1013D00024E0D21204C08CEF8E0D823000F120E0A8
:1013E00030E04FE753E4F80160817181828193819D
:1013F0000E94DF3A0E94A039862F6AE47FEF0E94A4
:101400003817F62E282F6E2D8D2D2E837D830E946A
:10141000BE082E814D816F2D90E00E94ED17E39460
:101420000C5F1F4FFAE0EF12D3CFD39425E0D21216
:10143000CCCF26960FB6F894DEBF0FBECDBFDF919E
:10144000CF911F910F91FF90EF90DF90CF90BF90C1
:10145000AF909F908F907F906F905F904F903F9054
:101460002F9008952F923F924F925F926F927F92AA
:101470008F929F92AF92BF92CF92DF92EF92FF92A4
:101480000F931F93CF93DF9300D000D000D0CDB740
:10149000DEB79C838B838B010E94493C65E070E042
:1014A0000E94C13B3C010E94493C6AE070E00E94FE
:1014B000C13BE0E0F0E0B12C772425E0E22EF12CF6
:1014C0003AE0332E4C0199244AE0C42ED12CCF01AE
:1014D000860D971DB7010E94C13B389E2001399EA1
:1014E000500C1124400E511E282E20E030E0C9017E
:1014F000880D991DB6010E94C13BA201480F591FDA
:101500005E834D83DA01AC90AB81BC811296BC91B5
:10151000B983AB1649F06A2D70E0AAE0BA9FA0012A
:1015200011246417750731F4AD81BE811C92BB2074
:1015300029F016C0B11014C0A11014C0AB81BC8139
:101540002C9211968C93119713961C9213971596C3
:101550001C921E92149712968C91AD81BE818C9331
:10156000BB24B3942F5F3F4F2A30310509F0BFCF22
:101570003196E530F10509F0AACF26960FB6F8941A
:10158000DEBF0FBECDBFDF91CF911F910F91FF90B6
:10159000EF90DF90CF90BF90AF909F908F907F9013
:1015A0006F905F904F903F902F9008958530A8F4F2
:1015B0006A3098F4843021F49CEF960F923068F0F2
:1015C000FA019AE0899FE00DF11D1124E60FF11D4B
:1015D0009081915081E0943008F480E008959F92CA
:1015E000AF92BF92CF92DF92EF92FF920F931F9331
:1015F000CF93DF93EC017B010E94493C64E070E0F3
:101600000E94C13B8C0184E0C82ED12C94E0A92E0D
:10161000B12C0115110519F499809A9405C0013077
:10162000110559F499809394A701692D88810E942E
:10163000D60A8823B1F099821FC00230110519F42F
:1016400098809A9405C00330110559F498809394BA
:10165000A7016981892D0E94D60A882311F09882FA
:101660000BC0C8010196B5010E94C13B8C0181E00D
:10167000C81AD10871F680E0DF91CF911F910F91C8
:10168000FF90EF90DF90CF90BF90AF909F90089524
:101690000F931F93CF93DF938C01EB010E94EF0A0E
:1016A000882389F0D8019C9112968C91FE01BAE0B2
:1016B0009B9FE00DF11D1124D80111969C91E90F1B
:1016C000F11D80831CC081E0F801838315821482A0
:1016D000FE0195E0AF01465F5F4F8081D801129611
:1016E0002C91821306C0880F282F220F220F820F01
:1016F00080833196E417F50781F7915059F7DF9110
:10170000CF911F910F910895262F60E0813011F441
:101710006BE10BC0823011F46DE707C0833011F428
:1017200060E503C0843009F467ED7FEF822F0E94EB
:10173000381708959F92AF92BF92CF92DF92EF92A7
:10174000FF920F931F93CF93DF9300D0CDB7DEB7F7
:101750008B01882309F443C045E353E025E080E092
:1017600090E0FA01E80FF91F108201968A30910586
:10177000C1F72150465F5F4F2111F1CF40E2E42EC7
:1017800043E0F42EA12CB12C56E0D52ECC24C394EA
:10179000DA9CF001DB9CF00D1124E35EFC4FDF01CD
:1017A0002D2D1D922A95E9F7F701319781E08A0DD9
:1017B0008083D701CC9265E373E0C70103970E9451
:1017C000320ABFEFAB1ABB0AE6E0EE0EF11CF4E002
:1017D000AF16B104E9F610921C0310921B0380911E
:1017E0001B0390911C03800F911F823C21E0920704
:1017F00038F490931C0380931B03E0E2F3E037C0BE
:1018000010921C0310921B033DE1E32E33E0F32EF4
:101810005701D12CD50113968C91811106C065E337
:1018200073E0C5010E94480B09C0813039F4F5010D
:10183000848195818634954008F0D39426E0A20EE9
:10184000B11C85E3A81683E0B80621F794E0D9120D
:10185000D4CF65E373E0C7010E94320AA6E0EA0E26
:10186000F11CB5E3EB16B3E0FB0699F7C6CF808118
:10187000813061F481819281800F911F873425E04E
:10188000920710F086E495E092838183369683E098
:10189000E833F80761F785E3E82E83E0F82EA12C02
:1018A0009AE0C92E26E0D22E00E010E0B02E94E09F
:1018B000A91205C08CEF800F823008F45CC0F701DC
:1018C000E00FF11F8081882309F446C0853070F451
:1018D000282F30E021503109D29EF001D39EF00D27
:1018E0001124E35EFC4F6FEF828130C06C2D0E94AB
:1018F000A13B90E00197D89EF001D99EF00D1124F4
:10190000E35EFC4F9280648175816634A5E07A07BE
:10191000D8F480E090E00E94CF3920E030EC48EA33
:1019200054E40E9427399B01AC0160E070E080E83C
:101930009FE30E94B03820E030E04FE753E40E947C
:10194000DF3A0E94A03901C060E0892D0E94840B1B
:10195000962E472F282F03C020E040E0912C6B2DBE
:101960008A2D2A8349830E94BE082A814981692DD4
:1019700090E00E94ED170F5F1F4F0A30110509F02C
:1019800095CFA394BAE0EB0EF11CE5E0AE128CCF3C
:1019900060911B0370911C0380E090E00E94CF399E
:1019A00020E030E041EE53E40E94273920E030E0AF
:1019B0004FE753E40E94DF3A0E94A039D62E00E0A0
:1019C00010E0C801835E9C4F7C01DC0113968C9172
:1019D0001397811115C06D2D12968C910E94840B66
:1019E000962E282FF701618180812A8379830E94B6
:1019F000BE082A817981472F692D90E00E94ED175A
:101A00000A5F1F4F08311105E1F60F900F90DF912B
:101A1000CF911F910F91FF90EF90DF90CF90BF90EB
:101A2000AF909F900895AF92BF92CF92DF92EF92C6
:101A3000FF920F931F93CF93DF93EC0181E00E94FD
:101A4000302080E98C9F70018D9FF00C1124C0E044
:101A5000D0E000E010E0670182E0C80ED11C570121
:101A60008FEFA81AB80AF601EC0FFD1FEE53FE4FD8
:101A70008491FE01EE0DFF1DEE53FE4F6491F501C2
:101A8000EC0FFD1FEE53FE4F7491882319F08091E7
:101A9000A80401C080E00E943817472F282FC801F2
:101AA0000E94ED170F5F1F4F239600331105D9F6E3
:101AB000DF91CF911F910F91FF90EF90DF90CF902A
:101AC000BF90AF9008954F925F926F927F928F92E6
:101AD0009F92AF92BF92CF92DF92EF92FF920F93BD
:101AE0001F93CF93DF93CDB7DEB728970FB6F89447
:101AF000DEBF0FBECDBF182F0E94EC1E6B017C0114
:101B00008091AA049091AB040E94153190931A031E
:101B1000809319030E9409319093AB048093AA0427
:101B200020919203309193032130310509F0E2C0F6
:101B300043E0C422DD24EE24FF24CD28CE28CF2884
:101B400009F05FC0F090060100911703109118038F
:101B50000F0D111DF7FC1A9510931803009317032E
:101B6000B80180E090E00E94CF3920E030E04AE701
:101B700053E40E9427394B015C0120E030E040E053
:101B80005FE30E941D3918163CF0C501B4010E94A4
:101B9000543B9B01AC0122C020E030E040E05FE319
:101BA000C501B4010E94B0384B015C019B01AC013E
:101BB0000E94B1382B013C01A501940160E070E066
:101BC00080E89FE30E94B0389B01AC01C301B201E1
:101BD0000E94DF3A20E030E040E05FE30E94B1384D
:101BE000609313037093140380931503909316036B
:101BF00001501109093F110520F08F2D8195809327
:101C000006018091A504881F8827881F9091A6044B
:101C1000492F440F242F282B97FB332730F9C90174
:101C20008C549F4F68E671E00E94C13B821B930B6E
:101C30008038910514F09A9505C08138EFEF9E0722
:101C40000CF4939597FD03969595879595958795B3
:101C5000182F8091A704281B310937FF02C02D5F80
:101C60003F4F3595279535952795022FA090A804CD
:101C700029E1C22E21E0D22EE12CF12CF601B08018
:101C8000B2948FE0B82220E030E040EA52E4609164
:101C900013037091140380911503909116030E9411
:101CA000DF3A0E949939962F6091A504262F221FB2
:101CB0002227221F6091A604660F622B690FB19E36
:101CC000600D11247091A704B09E700D11248A2D0F
:101CD0000E943817472F282FC7010E94ED17FFEFEA
:101CE000EF1AFF0A44E0C40ED11C80E3E816F104A9
:101CF00029F6C2C02230310509F07EC0C701B60105
:101D000023E030E040E050E00E94D53B672B682B99
:101D1000692B29F4809112038F5F80931203E12CC9
:101D2000F12C1091A504912F991F9927991F1091BB
:101D3000A604110F192B6091A70470E080E090E0D9
:101D40000E94D1392DEC3CEC4CE45FE30E94DF3A79
:101D50000E94A039762F612F80E00E943817472F0C
:101D6000282FC7010E94ED179FEFE91AF90AE0E357
:101D7000EE16F104B1F660E082E00E94BE088983AD
:101D800061E082E00E94BE088A8362E082E00E94F5
:101D9000BE088B8363E082E00E94BE088C8366E00D
:101DA00082E00E94BE088D8367E082E00E94BE0848
:101DB0008E8368E082E00E94BE088F8369E082E043
:101DC0000E94BE088887CE0101967C0110E0F701D1
:101DD00001917F0180911203612F681B70EA8FEFE0
:101DE0000E943817472F282F802F90E00E94ED1770
:101DF0001E5E103961F740C023303105E9F460916F
:101E0000190370911A03812F28960FB6F894DEBF3C
:101E10000FBECDBFDF91CF911F910F91FF90EF903B
:101E2000DF90CF90BF90AF909F908F907F906F90FA
:101E30005F904F900C94D70824303105E9F46091FD
:101E4000190370911A03812F28960FB6F894DEBFFC
:101E50000FBECDBFDF91CF911F910F91FF90EF90FB
:101E6000DF90CF90BF90AF909F908F907F906F90BA
:101E70005F904F900C949A0B28960FB6F894DEBFA3
:101E80000FBECDBFDF91CF911F910F91FF90EF90CB
:101E9000DF90CF90BF90AF909F908F907F906F908A
:101EA0005F904F9008958091940381116AC0609172
:101EB00053047091540480915504909156040E94EB
:101EC0002B2F823009F450C030F4882369F0813020
:101ED00009F447C00895843009F44CC008F447C0A1
:101EE000853009F44AC0089580E190E00E94613C89
:101EF0006093A5047093A6048093A7049093A8040C
:101F00008091920390919303892BE9F48091A50429
:101F100086958F730E9430208091A504982F9E771C
:101F2000923079F1881F8827881F9091A604292F65
:101F3000220F97FB992790F94091A8046091A7047C
:101F4000822B0C94562081E00E94302080919103D6
:101F5000882321F01092910381E001C080E00C946D
:101F6000630D81E090E00BC082E090E008C083E068
:101F700090E005C084E090E002C085E090E00C9421
:101F8000130D0895611108C0FC018281882321F09E
:101F900088EA91E00E94171180E090E00895FC012A
:101FA000E15FFC45E730F10508F0B0C0DB01E35A22
:101FB000FF4F12969C910C94F73B91110E94F52FC4
:101FC00080E008959923E1F381E019C09923C1F3DA
:101FD00081E00E9421204FEF64E985EC90E009C088
:101FE000992371F381E00E9421204FEF69E787E890
:101FF00090E00E943F20E4CF992311F383E00E94F8
:102000002120DECF9923E1F280E190E00E94613C43
:102010006093A5047093A6048093A7049093A804EA
:102020000E94782E82722091A5049091A6048823A4
:1020300071F0822F881F8827881F392F330F432F75
:10204000482B97FB552750F9485051090DC0822F56
:10205000881F8827881F392F330F432F482B97FB62
:10206000552750F9485F5F4F40FB27F92093A5049F
:10207000842F86959078982B50FB97F99093A6041F
:102080008091A504482F441F4427441F9091A60423
:10209000592F550F252F242B97FB332730F92F3F2E
:1020A000310531F02CF08F778093A5041092A604AF
:1020B0004091A5045091A6046091A7047091A804D2
:1020C00080E190E00E947F3C7BCF992309F478CF98
:1020D0008091920390919303019690939303809340
:1020E000920381E0809391030E9409319093AB04A5
:1020F0008093AA048091920390919303059708F42A
:102100005FCF10929303109292035ACF81E008950B
:10211000CF92DF92EF92FF926B017C010E942B2FF6
:1021200056985E9825982D9826982E9827982F983F
:1021300090E0FC013197E730F105A8F4EC59FF4F2E
:102140000C94F73B259A2D9A0EC0259A2D9A269A23
:102150002E9A09C0259A2D9A04C0259A2D9A269A5E
:102160002E9A279A2F9AC701B601FF90EF90DF9021
:10217000CF90089581E008950C94CF0FCF93282F2E
:1021800030E0F901EE5EF64FC491F901EE56F64FDC
:102190002491222359F081EE0E94D5248C2F0E9495
:1021A000D5248C2F0E94EC2581EE04C08C2F0E9438
:1021B000D5248C2FCF910C94EC250F931F93CF93A4
:1021C000DF93EC01062FFE018491882359F19E01D3
:1021D0002F5F3F4F813041F4E901F9011491812FC4
:1021E0000E94D524812F0DC0823031F4E901F9011C
:1021F00084910E94D5240AC0833031F4E901F901A9
:1022000084910E94EC2502C00E94BE102196802F6E
:102210008823C9F2EFE9FFE03197F1F700C0000031
:102220008150F6CFDF91CF911F910F91089560E01B
:102230000C94DD100E947B2F811102C00E94F52FAB
:102240000E94BE1E0E9488160C942D080E94201E1B
:1022500080919503811102C00E94E8178091950337
:1022600090E001966BE070E00E94C13B8093950383
:102270000C94B206282F2F7041F0822F90E02A3064
:1022800010F44D9608950697089587E290E008951A
:1022900008950C9448110C94491108950E94C22885
:1022A0000E944D112FEF84E39CE02150804090402C
:1022B000E1F700C000000C946531FF920F931F936B
:1022C000CF93DF938C01FC01C081D1818091E30326
:1022D000811113C08281882349F0CE010E94F82D1C
:1022E000F82E682FCE010E949B2D04C0CE010E94C3
:1022F000CB2DF82EBE018F2D04C0CE010E94F82DEB
:10230000BE010E940014EC01B8010E94BC10882399
:1023100009F46EC2B801CE010E940317882309F4A4
:1023200067C2CC3CFCE5DF0741F4F80182818823D9
:1023300009F45EC20E9408205BC2CD3C8CE5D80740
:1023400008F01EC1C43C9CE5D90761F4F801828104
:10235000882309F44DC20E94782E8272E1F40E9413
:102360001D1F46C2C53CECE5DE0708F0C7C0C531FD
:10237000FCE5DF0798F0C23CFCE5DF0709F48CC000
:1023800008F492C0F8018281882309F431C20E94C6
:10239000782E827221F70E94031F2AC2C2308CE578
:1023A000D80708F452C0F8018281882309F459C083
:1023B0000E947B2F811102C00E94F52F0E948E2F58
:1023C00090E09093190680931806FE01E350FC45B7
:1023D000E231F10530F4E559FF4F809118060C9475
:1023E000F73B80911806816027C0826025C0846019
:1023F00023C0806121C080621FC080641DC08068CE
:102400001BC08460886018C08E7F16C08D7F14C08A
:102410008B7F12C08F7E10C08F7D0EC08F7B0CC053
:102420008F770AC08B7F877F07C087FB222720F921
:1024300091E0922790FB87F9809318068091180607
:102440000E94922F0E94C228D3C1C1159CE5D907D2
:1024500081F0C130DC45A9F081E080939B0380933B
:102460009C03C801DF91CF911F910F91FF900C94B5
:10247000BA10F8018281882309F4BAC10E944E1172
:10248000B7C1F8018281882309F4B2C18091800428
:10249000816080938004ACC1F8018281882309F4B3
:1024A000A7C10E94F51EA4C1C631DC45A9F60E9451
:1024B000782E282FF801828140910A0150910B015A
:1024C000882379F02A7A91E009F490E090939603BA
:1024D000911102C069E201C065E3CA010E945C304B
:1024E0000AC080919603811102C069E201C065E3D0
:1024F000CA010E9467300E94C72E7AC1F80182810A
:10250000C83CFCE5DF0731F4882309F471C10E945F
:10251000A91F6EC1C93C9CE5D907C8F4C63CECE5CF
:10252000DE0731F4882309F463C10E94631F60C190
:10253000C73CDC4530F4882309F45AC10E94371F98
:1025400057C1882309F454C10E94931F51C1CA3C4A
:102550009CE5D90731F4882309F44AC10E94D91FA8
:1025600047C1CB3CDC4530F4882309F441C10E94CB
:10257000C31F3EC1882309F43BC10E94F31F38C129
:10258000C43DFCE5DF0791F4F8018281882309F45A
:102590002FC10E943A20893128F00E943A208232CD
:1025A00008F4F9CE89E10E94212022C1C53D8CE5C5
:1025B000D80708F068C0F8018281C03DFCE5DF075C
:1025C00071F4882309F414C10E943A20893028F05C
:1025D0000E943A208E3008F4DECE89E0E4CFC13D7F
:1025E0009CE5D90740F5CE3CECE5DE0771F4882385
:1025F00009F4FEC00E943A20823028F00E943A205E
:10260000853008F4C8CE82E0CECFCF3CDC4528F43C
:10261000882309F4EDC081E0C6CF882309F4E8C01F
:102620000E943A20863028F00E943A20883008F430
:10263000B2CE86E0B8CFC23D9CE5D90771F48823BD
:1026400009F4D6C00E943A20853128F00E943A2031
:10265000873108F4A0CE85E1A6CFC33DDC4570F4F8
:10266000882309F4C5C00E943A208F3028F00E94C8
:102670003A20843108F48FCE8FE095CF882309F477
:10268000B7C088E190CFC93DFCE5DF0759F5F801F7
:102690008281882361F010929C030E9409319093FB
:1026A0009A038093990380E20E945326A1C08091EF
:1026B0009C03882321F080E20E945A2699C08091D1
:1026C000990390919A030E941531883C910598F7DF
:1026D00080E20E945A2688E20E94D52488E20E9465
:1026E000EC2586C0CA3D8CE5D80708F060C0C73D20
:1026F0009CE5D90761F5F8018281882351F0109299
:102700009B030E940931909398038093970382E082
:10271000CBCF0E94782E85FF05C081E080939B037C
:1027200080939C0380919B0381110FC0809197033C
:10273000909198030E941531883C910530F486E20F
:102740000E94D52486E20E94EC2582E0B5CFC83DE8
:10275000ECE5DE0710F1F801828181119CCF0E9427
:10276000782E81FF05C081E080939B0380939C03BA
:1027700080919C0381119FCF8091990390919A033E
:102780000E941531883C910508F095CF87E20E94A0
:10279000D52487E20E94EC258ECFC53DDC4509F0AB
:1027A0005BCEF8018281882319F183E2FCCECD3D16
:1027B0008CE5D80741F4F80182818823C9F082E0D2
:1027C0000E94E73315C0CE3D9CE5D90739F4F801E6
:1027D0008281882369F00E94F52F0AC0CC3DDC4538
:1027E00009F03ACEF8018281882311F080E0E8CF29
:1027F00080E0DF91CF911F910F91FF900895089590
:1028000096E0799FF001112494E5899FE00DF11D78
:102810001124E60FF11DEE0FFF1FEE5DFA4F8591BB
:1028200094910895880F991FFC01E254FE4F859101
:1028300094910895CF93DF930E9400140E94D115C4
:10284000EC01811520E59207F0F5811530E493073E
:1028500008F024C1883E910500F5803E910508F0FE
:102860009CC1883A910570F4853A910508F09FC0A3
:102870008130910509F491C108F442C1049708F030
:102880008CC13EC18F3B910508F49CC0803C9105F2
:1028900008F436C1805C9109F4C0811540E29407C8
:1028A00058F4C11581E0D80708F077C1C03FD105C1
:1028B00008F426C1D06571C1811520E3920708F0A4
:1028C000E4C09F70DEC0811535E5930708F044C071
:1028D000811544E5940708F0F8C0C11582E5D807D2
:1028E00008F5C11521E5D20708F0DBC08C2F8370F5
:1028F00021E030E002C0220F331F8A95E2F73C68E6
:10290000CE0174E0969587957A95E1F78370382B20
:10291000CF70C695C69580E2C89FE0011124C22BF6
:10292000D32B3BC12C2F26952695CE01837099275A
:10293000C115D34508F0BAC040E2249F900111248C
:10294000C1E0D0E002C0CC0FDD1F8A95E2F72C2B4E
:102950003D2BE901DC6821C1811549E59407A0F40C
:10296000C11588E5D80708F0B5C0C11526E5D2071E
:1029700008F0C6C08C2F0E944E168F71C82FD0E071
:10298000DC2FCC27D06209C181153AE5930708F402
:10299000A6C090568115904208F0B2C08D2F8F715D
:1029A0000E944E16DD27D0628F71D82BF6C0853A73
:1029B000910509F4A8C0863A910509F0A7C0C2E8BC
:1029C000D0E4EBC0883A910509F4A3C0893A910597
:1029D00009F4A2C08A3A910509F4A1C08B3A910585
:1029E00009F4A0C08C3A910509F49FC08B3B910576
:1029F00009F49EC08C3B910509F49DC08D3A910568
:102A000009F49CC0803B910509F49BC08E3A910566
:102A100009F49AC08F3A910509F499C0813B910558
:102A200009F498C0823B910509F497C0833B910556
:102A300009F496C0843B910509F495C0853B910546
:102A400009F494C0863B910509F493C0873B910536
:102A500009F492C0883B910509F491C0893B910526
:102A600009F490C08D3B910509F48FC08E3B910510
:102A700009F48EC08A3B910509F48DC0C0E0D4E40E
:102A80008CC00E941214EC0188C09927D3FF03C0A8
:102A9000EC01D86C82C0EC01D06C7FC0DF70D06AD2
:102AA0007CC0DC2FCC27C16FD06A77C040E2249F66
:102AB00090011124C1E0D0E002C0CC0FDD1F8A9547
:102AC000E2F7C22BD32BDA6868C0D82FCC27C46FAB
:102AD000D06A63C0DC2FCC27C06FD06A5EC08F7015
:102AE0000E944E1694E0D695C7959A95E1F7CF705F
:102AF000D0E0DC2FCC27D06A8F70806EC82B4DC001
:102B0000C0E0D0E04AC0C1E8D0E447C0C3E8D0E4A8
:102B100044C0C2EED4E441C0C9EED4E43EC0CAEE23
:102B2000D4E43BC0C5EBD4E438C0C6EBD4E435C034
:102B3000C3EBD4E432C0C4EBD4E42FC0C7EBD4E47D
:102B40002CC0CCECD4E429C0CDECD4E426C0C3E83E
:102B5000D5E423C0CAE8D5E420C0C2E9D5E41DC04D
:102B6000C4E9D5E41AC0C1E2D6E417C0C3E2D6E492
:102B700014C0C4E2D6E411C0C5E2D6E40EC0C6E279
:102B8000D6E40BC0C7E2D6E408C0CFE6D4E405C063
:102B9000C0E7D4E402C0CAE2D6E4CE01DF91CF910F
:102BA00008958238910549F1B0F48133910509F413
:102BB00058C048F48932910509F44EC08A32910513
:102BC00009F454C008958533910509F440C0893350
:102BD000910599F00895833E910529F138F4803EDE
:102BE000910591F0823E9105A1F00895863E9105F0
:102BF000F9F0873E910531F108952091180620FDE6
:102C00003AC021FD38C008958091180680FD35C076
:102C100032C08091180682FF32C08091180684FD70
:102C200030C083EE39C08091180682FD28C0F5CFF0
:102C30008091180683FF27C08091180684FD21C06B
:102C400087EE2AC08091180683FD1DC0F5CF8091C4
:102C5000180685FD1AC01BC08091180685FD17C097
:102C600014C08091180686FD14C015C08091180606
:102C700086FD11C00EC080EE0FC089E30DC082EE4C
:102C80000BC080E009C086EE07C089E205C085E37D
:102C900003C08AE201C081E390E008959091180694
:102CA00092FF0DC0282F2871283019F4877F846087
:102CB00006C0282F2471243011F48B7F886093FF85
:102CC0000DC0282F2871283119F4877E846106C031
:102CD000282F2471243111F48B7E886194FD877E26
:102CE0000895CF93DF93813020E8920768F0FB01CD
:102CF0002281222349F0EC010E949E16CE019F778B
:102D00000E94E6160E94D31681E0DF91CF910895CC
:102D10008CE090E00E94593C90E0A0E0B0E080930D
:102D2000AC049093AD04A093AE04B093AF040895A7
:102D30006091AC048CE090E00C946D3C0E94782E85
:102D400080939D030E948B2E8091AC04813071F0A2
:102D500048F08230D9F08430F9F486EE0E944B2698
:102D600088E118C082EE0E94D52416C080EE0E9431
:102D7000D52481EE0E94D52488E10E944B2681EE65
:102D80000E94EC2580EE0E94EC2506C082EE0E9497
:102D9000D52487E50E944B268FE39CE90197F1F744
:102DA00000C0000008958091AC04813021F038F01B
:102DB000823029F007C08CE20E944B2603C082EECD
:102DC0000E94EC2580919D030C94882E0F931F93F5
:102DD000CF93DF938C01CCE0D0E0C8010C2E02C071
:102DE000969587950A94E2F78F700E943A110E9497
:102DF0004B262497CC3F8FEFD80779F7DF91CF91FF
:102E00001F910F9108950F931F93CF93DF93EC01C0
:102E10008B01FB018281882319F1C33EFCE5DF07AA
:102E2000C1F050F4C13EECE5DE0781F0C23EFCE5A6
:102E3000DF07B1F481E010C0C43E8CE5D80759F03B
:102E4000C53EECE5DE0761F484E006C01092AC04F8
:102E500005C082E001C083E08093AC040E94981614
:102E6000B801CE01DF91CF911F910F910C94711693
:102E7000CF92DF92EF92FF920F931F93CF93DF9346
:102E8000E82FF82F711103C0682F782F7EC0062F0E
:102E900010E0C72FD0E0E82EF12CC8016BE270E003
:102EA0000E94AD3B9B0145ED4203B001439F700D75
:102EB0001124060F171F86E0809FB001819F700DBF
:102EC00011244FEF50E0CA018C1B9D0B8E9DD00149
:102ED0008F9DB00D9E9DB00D11248B2F6C9F800196
:102EE0006D9F100D7C9F100D1124012F11276A0179
:102EF000C01AD10ACE9C8001CF9C100DDE9C100D13
:102F000011246A01C61AD70ACC9EB001CD9E700D5D
:102F1000DC9E700D1124672F7727461B570B4E9DA3
:102F2000E0014F9DD00D5E9DD00D11247D2F2230EC
:102F3000310599F04CF421153105C9F021303105E6
:102F4000A1F47E2FE12F13C02330310551F024303E
:102F5000310559F4ED2F7B2F06C0EB2F8D2F7F2FDE
:102F600006C0712FEB2F8F2F02C07B2F812FF0E037
:102F7000EE5EF54F6491E72FF0E0EE5EF54F749151
:102F8000E82FF0E0EE5EF54F8491DF91CF911F9135
:102F90000F91FF90EF90DF90CF90089580E190E047
:102FA0000C94613CAB01BC0180E190E00C947F3C4F
:102FB000E5EAF4E08DE080831092A6048FEF82832F
:102FC0008383148260817181828193810C94D217F2
:102FD000E0919D02F0919E020994E0919902F09196
:102FE0009A020994E0919B02F0919C02099440E0BE
:102FF00060E080E00C94F217E5EAF4E06081862F4F
:10300000881F8827881F6091A604660F682B72812D
:1030100083810E943817962F672F482F892F0C9491
:10302000F217DF92EF92FF920F931F93CF93DF93EC
:103030008091A504881F8827881F9091A604492F96
:10304000440F242F282B97FB332730F9C9018C54C8
:103050009F4F68E671E00E94C13B821B930B803852
:10306000910514F09A9505C081384FEF94070CF440
:10307000939597FD03969595879595958795C82F78
:103080008091A704281B310937FF02C02D5F3F4FF5
:103090003595279535952795D22FD090A80499E19D
:1030A000E92E91E0F92E00E010E0F7012081229551
:1030B0002F706091A504962F991F9927991F6091F1
:1030C000A604660F692B2C9F600D11247091A70434
:1030D0002D9F700D11248D2D0E943817472F282FFA
:1030E000C8010E94ED170F5F1F4FF4E0EF0EF11CB7
:1030F00000331105D1F6DF91CF911F910F91FF9011
:10310000EF90DF900895AF92BF92CF92DF92EF924F
:10311000FF920F931F93CF93DF931F92CDB7DEB72C
:10312000D82E2091A504221F2227221F8091A604B9
:10313000982F990FB22EB92A87FB882780F9EB2D9B
:10314000F82FCF018C549F4F68E671E00E94C13B7D
:103150009C012E1B3F0B37FF02C02D5F3F4F359563
:10316000279535952795A22EC090A7040091A4031A
:103170001091A5032091A6033091A7039091A90473
:10318000992359F0692F70E08AE090E00E94C13BDA
:10319000CB01770FAA0BBB0B04C08AE090E0A0E044
:1031A000B0E080239123A223B323892B8A2B8B2B7E
:1031B00041F40E94493C60E370E00E94C13B082F4B
:1031C00001C00FEFE12CF12C10E0D11003C0E0168C
:1031D000F106A9F40E94493C83706B2D8A9D600D15
:1031E000112469830E94493C69817C2D8091A80447
:1031F0000E943817472F282FC7010E94ED178FEF25
:10320000E81AF80A80E3E816F104F9F60F90DF9166
:10321000CF911F910F91FF90EF90DF90CF90BF90D3
:10322000AF900895CF92DF92EF92FF921F93CF93CA
:10323000DF938091A4039091A503A091A603B09180
:10324000A7030090A90404C0880F991FAA1FBB1FE1
:103250000A94D2F7182F87E1C82E81E0D82EC0E05B
:10326000D0E09FE3E92EF12CF60180818F3FE1F061
:10327000FE01E055FB4F8081F4E08F9FC0011124D7
:103280008034910524F4B701681B790B02C060E01B
:1032900070E0610F7FEF8091A8040E943817472FDC
:1032A000282FCE010E94ED17219624E0C20ED11CDA
:1032B000C033D105C9F6DF91CF911F91FF90EF90F8
:1032C000DF90CF900895CF92DF92EF92FF920F930D
:1032D0001F93CF93DF938091A4039091A503A091B6
:1032E000A603B091A7030090A90404C0880F991FFA
:1032F000AA1FBB1F0A94D2F7D82EC090A80407E1DA
:1033000011E0C0E0D0E08FE3E82EF12CF8018081DD
:103310008F3FF9F0FE01E055FB4F2081F4E02F9F35
:1033200090011124203431052CF4C701821B930B2A
:103330009C0102C020E030E0F80161816D0D620F58
:103340007FEF8C2D0E943817472F282FCE010E9427
:10335000ED1721960C5F1F4FC033D105B9F6DF91F1
:10336000CF911F910F91FF90EF90DF90CF90089534
:10337000CF92DF92EF92FF920F931F93CF93DF9341
:103380008091A4039091A503A091A603B091A703F7
:103390000090A90404C0880F991FAA1FBB1F0A949C
:1033A000D2F7D82EC090A80407E111E0C0E0D0E029
:1033B0008FE3E82EF12CF80180818F3FF9F0FE01B8
:1033C000E055FB4F2081F4E02F9F90011124203421
:1033D00031052CF4C701821B930B9C0102C020E035
:1033E00030E0F80162816D0D620F7FEF8C2D0E943D
:1033F0003817472F282FCE010E94ED1721960C5F1A
:103400001F4FC033D105B9F6DF91CF911F910F91B6
:10341000FF90EF90DF90CF9008952F923F924F92C0
:103420005F926F927F928F929F92AF92BF92CF9254
:10343000DF92EF92FF920F931F93CF93DF93309021
:10344000A7042090A8046091A4037091A503809123
:10345000A6039091A7030E94CF392BED3FE049E4EA
:1034600050E40E94DF3A20E030E040E05CE30E945C
:10347000DF3A6B017C010E94223920E030E040E01D
:103480005DE30E94DF3A2B013C01C701B6010E94B7
:103490004C3B20E030E040EE52E40E9427394B01E3
:1034A0005C01C9E1D1E000E010E0688170E080E0FB
:1034B00090E00E94D13920E030E040E052E40E94E8
:1034C000B038A30192010E94DF3A6B017C01FE013A
:1034D0003197608170E080E090E00E94D13920E077
:1034E00030E040EE52E40E94B038A50194010E9401
:1034F000DF3A9B01AC01C701B6010E94B13820E060
:1035000030E044E353E40E94DF3A6B017C01809198
:10351000A504881F8827881F9091A604292F220FB1
:10352000622F682B97FB772770F9072E000C880B0A
:10353000990B0E94D1399B01AC01C701B6010E94D1
:10354000B1380E94A039732D822D0E943817472F61
:10355000282FC8010E94ED170F5F1F4F24960033DC
:10356000110509F0A2CFDF91CF911F910F91FF902C
:10357000EF90DF90CF90BF90AF909F908F907F9013
:103580006F905F904F903F902F9008952F923F92B1
:103590004F925F926F927F928F929F92AF92BF9263
:1035A000CF92DF92EF92FF920F931F93CF93DF930F
:1035B000CDB7DEB728970FB6F894DEBF0FBECDBFEC
:1035C0008091A7048D839091A8049E836091A403A9
:1035D0007091A5038091A6039091A7030E94CF3913
:1035E0002BED3FE049E450E40E94DF3A20E030E078
:1035F00040E05CE30E94DF3A6B017C010E942239CB
:103600002B013C01C701B6010E944C3B69837A83C0
:103610008B839C83E9E1F1E0F887EF8300E010E021
:10362000EF81F88531972080EF81F885B080309068
:10363000A904332079F0632D70E080E090E00E94CF
:10364000D13920E030E040EC5FE30E94DF3A6B01CB
:103650007C0106C0C12CD12C90ECE92E9FE3F92E01
:103660006B2D70E080E090E00E94D13920E030E0E6
:1036700040E052E40E94B0389B01AC01C701B601A2
:103680000E94DF3AA30192010E94DF3A4B015C01E4
:10369000332079F0632D70E080E090E00E94D13912
:1036A00020E030E040EC5FE30E94DF3A6B017C01F8
:1036B00006C0C12CD12C80ECE82E8FE3F82E622DB1
:1036C00070E080E090E00E94D13920E030E040EEF0
:1036D00052E40E94B0389B01AC01C701B6010E94C0
:1036E000DF3A29813A814B815C810E94DF3A9B015C
:1036F000AC01C501B4010E94B1386B017C0180911D
:10370000A504881F8827881F9091A604292F220FBF
:10371000622F682B97FB772770F9072E000C880B18
:10372000990B0E94D1399B01AC01C701B6010E94DF
:10373000B1380E94A0397D818E810E943817472FB1
:10374000282FC8010E94ED170F5F1F4F8F819885AA
:10375000049698878F830033110509F061CF28966E
:103760000FB6F894DEBF0FBECDBFDF91CF911F9192
:103770000F91FF90EF90DF90CF90BF90AF909F9010
:103780008F907F906F905F904F903F902F90089513
:103790002F923F924F925F926F927F928F929F9261
:1037A000AF92BF92CF92DF92EF92FF920F931F934F
:1037B000CF93DF9300D000D01F92CDB7DEB720911A
:1037C000A7042A838091A8048B836091A40370913D
:1037D000A5038091A6039091A7030E94CF392BEDFA
:1037E0003FE049E450E40E94DF3A20E030E040E06E
:1037F0005CE30E94DF3A6B017C010E9422392B01BD
:103800003C01C701B6010E944C3B4B015C01A9E1A0
:10381000B1E0BD83AC8300E010E0EC81FD81319725
:10382000B081B983EC81FD8130802090A9042220F1
:1038300069F0622D70E0660F771F072E000C880B71
:10384000990B0E94D1396B017C0105C0C12CD12C90
:10385000E12C20E4F22E632D70E080E090E00E94E5
:10386000D13920E030E040E052E40E94B0389B01C2
:10387000AC01C701B6010E94DF3AA30192010E9488
:10388000DF3A6B017C01222021F0312C220C331C09
:1038900003C082E0282E312CF9816F2F70E080E088
:1038A00090E00E94D13920E030E040EE52E40E94E6
:1038B000B0380E9499399B0177FF04C02227332733
:1038C000261B370B82E490E0821B930B289EB001ED
:1038D000299E700D389E700D1124072E000C880B48
:1038E000990B0E94D139A50194010E94DF3A9B01F6
:1038F000AC01C701B6010E94B1386B017C01809117
:10390000A504881F8827881F9091A604292F220FBD
:10391000622F682B97FB772770F9072E000C880B16
:10392000990B0E94D1399B01AC01C701B6010E94DD
:10393000B1380E94A0397A818B810E943817472FB5
:10394000282FC8010E94ED170F5F1F4F8C819D81AA
:1039500004969D838C830033110509F05ECF0F9090
:103960000F900F900F900F90DF91CF911F910F91BB
:10397000FF90EF90DF90CF90BF90AF909F908F908F
:103980007F906F905F904F903F902F9008952F926F
:103990003F924F925F926F927F928F929F92AF92DF
:1039A000BF92CF92DF92EF92FF920F931F93CF932C
:1039B000DF9300D01F92CDB7DEB72090A70480918F
:1039C000A80489836091A4037091A5038091A60344
:1039D0009091A7030E94CF3920E030E040E85BE3FC
:1039E0000E94DF3A20E030E040E653E40E94DF3AF4
:1039F0002B013C01E9E1F1E0FB83EA8300E010E008
:103A0000EA81FB8131973080EA81FB81E080F09090
:103A1000A904FF2079F06F2D70E080E090E00E9413
:103A2000D13920E030E040EC5FE30E94DF3A4B0107
:103A30005C0106C0812C912C90ECA92E9FE3B92E3D
:103A40006E2D70E080E090E00E94D13920E030E0FF
:103A500040E052E40E94B0380E9499399B0177FF00
:103A600004C022273327261B370BB901330F880BDD
:103A7000990B0E94D1399B01AC01C501B4010E9490
:103A8000DF3A2EE23DEB4BEB53EB0E94DF3A4B016A
:103A90005C01FF2079F06F2D70E080E090E00E94E3
:103AA000D13920E030E040EC5FE30E94DF3A6B0167
:103AB0007C0106C0C12CD12C80ECE82E8FE3F82EBF
:103AC000632D70E080E090E00E94D139A301920163
:103AD0000E94B0389B01AC01C701B6010E94DF3AD9
:103AE0009B01AC01C501B4010E94B0386B017C019F
:103AF0008091A504881F8827881F9091A604292FEC
:103B0000220F622F682B97FB772770F9072E000C86
:103B1000880B990B0E94D1399B01AC01C701B601FA
:103B20000E94B1380E94A039722D89810E943817F5
:103B3000472F282FC8010E94ED170F5F1F4F8A8162
:103B40009B8104969B838A830033110509F058CF2B
:103B50000F900F900F90DF91CF911F910F91FF90D9
:103B6000EF90DF90CF90BF90AF909F908F907F901D
:103B70006F905F904F903F902F900895CF92DF927B
:103B8000FF920F931F93CF93DF931F92CDB7DEB7B2
:103B9000F82E0091A4031091A5032091A603309163
:103BA000A7039091A904992359F0692F70E08AE046
:103BB00090E00E94C13BAB01770F660B770B04C00E
:103BC0004AE050E060E070E0402351236223732319
:103BD000452B462B472B39F40E94493C60E370E0AB
:103BE0000E94C13B01C08FEF00E010E0C82ED12C35
:103BF000F11003C00C151D0581F40E94493C898316
:103C00000E94493C782F69818091A8040E9438174E
:103C1000472F282FC8010E94ED170F5F1F4F003359
:103C2000110531F70F90DF91CF911F910F91FF9008
:103C3000DF90CF90089508950E941B1E0C94530F9F
:103C40004091A50440FD0AC00E94F7170E941C1E67
:103C50008091A504817080930901089580919E034D
:103C6000843120F48F5F80939E0308958091A40394
:103C70009091A503A091A603B091A7030196A11D61
:103C8000B11D8093A4039093A503A093A603B093C2
:103C9000A7038091A0039091A103A091A203B091EA
:103CA000A3038F3F2FEF9207A207B20759F00196A7
:103CB000A11DB11D8093A0039093A103A093A20323
:103CC000B093A30380919F03E0EBF4E090819F3FCA
:103CD00061F09E3F41F4282F30E02230310514F08E
:103CE000815001C080E09F5F9083319694E0E03E78
:103CF000F90761F780939F03E42FE695EF738091B6
:103D00000801E81307C081E090910901913019F48E
:103D100080E001C081E08170E093080191E0909320
:103D200009014E2F50E0FA013197EB30F10520F5F3
:103D3000E358FF4F0C94F73B0E94FC171DC00E94F4
:103D40000D1A1AC00E94111817C00E94831814C0BF
:103D50000E94121911C00E9463190EC00E94B81966
:103D60000BC00E94C61A08C00E94C81B05C00E9452
:103D7000C71C02C00E94BE1D0C941C1EE09197023D
:103D8000F09198020995E0EBF4E08FEF819394E0D5
:103D9000E03EF907D9F70E947B2F811104C00E94F1
:103DA000F52F0E94D8170E94CE176093A504709338
:103DB000A6048093A7049093A8046E7761F40E94F0
:103DC000D8170E94CE176093A5047093A604809321
:103DD000A7049093A80408956091A4037091A5038B
:103DE0008091A6039091A7030895E5EAF4E080810D
:103DF000982F909590FB80F98083608171818281FA
:103E000093810C94D2179091A504892F86958F5F8A
:103E10008F7391788C3018F4880F892B02C0892F0A
:103E200082608093A5046091A5047091A60480919E
:103E3000A7049091A8040C94D2179091A504892FFF
:103E40008695815C8F739178882319F0880F892B70
:103E500002C0892F86618093A5046091A5047091AA
:103E6000A6048091A7049091A8040C94D217809185
:103E7000A504982F991F9927991F8091A604880F50
:103E8000892B90E008968F3F910519F014F08FEF81
:103E900090E02091A50480FB27F92093A504282F0A
:103EA00026958091A6048078822B90FB87F98093D9
:103EB000A6046091A5047091A6048091A704909136
:103EC000A8040C94D2178091A504982F991F9927C4
:103ED000991F8091A604880F892B90E0089797FF7F
:103EE00002C080E090E08F3F910519F014F08FEF51
:103EF00090E02091A50480FB27F92093A504282FAA
:103F000026958091A6048078822B90FB87F9809378
:103F1000A6046091A5047091A6048091A7049091D5
:103F2000A8040C94D2178091A70490E008968F3FC4
:103F3000910519F014F08FEF90E08093A704609141
:103F4000A5047091A6048091A7049091A8040C94F4
:103F5000D2178091A70490E0089797FF02C080E0F5
:103F600090E08F3F910519F014F08FEF90E080936F
:103F7000A7046091A5047091A6048091A704909174
:103F8000A8040C94D2178091A80490E008968F3F63
:103F9000910519F014F08FEF90E08093A8046091E0
:103FA000A5047091A6048091A7049091A8040C9494
:103FB000D2178091A80490E0089797FF02C080E094
:103FC00090E08F3F910519F014F08FEF90E080930F
:103FD000A8046091A5047091A6048091A704909113
:103FE000A8040C94D2178091A90490E00196843023
:103FF000910514F083E090E08093A9046091A504FA
:104000007091A6048091A7049091A8040C94D217F3
:104010008091A90490E0019797FF02C080E090E0B2
:104020008430910514F083E090E08093A9046091BE
:10403000A5047091A6048091A7049091A8040C9403
:10404000D217E5EAF4E08F73982F990F8081817879
:10405000892B808360817181828193810C94D21736
:10406000E5EAF4E08F73982F990F80818178892B8E
:10407000808308958091A50486958F730895E5EA5D
:10408000F4E0208180FB27F92083A6EAB4E086953E
:104090002C912078822B90FB87F98C936283438349
:1040A00060817181828193810C94D217E5EAF4E0FA
:1040B000208180FB27F92083A6EAB4E086952C9125
:1040C0002078822B90FB87F98C9362834383089539
:1040D00067E784E70C943D22CF930E947C2284E71B
:1040E0000E94C22087E70E94C220C0E021E041E098
:1040F00061E08C2F0E945421CF5FC033B9F767E78E
:1041000084E7CF910C945022E0E0F6E06083418395
:1041100024E630E042E050E0BF01880F0C945223C7
:10412000EF92FF921F93CF93DF937B01182F110F14
:10413000C0E0D0E08C2F8C5D8093000620E030E062
:10414000F901EC0FFD1FEE0DFF1D8081F901E0501C
:10415000FA4F81832F5F3F4F2031310589F724E6E5
:1041600030E041E150E060E076E0812F0E94522390
:104170006096C039D105F1F6DF91CF911F91FF9084
:10418000EF900895CF93DF93C82F4BE06DEF0E941F
:10419000842040E06AE08C2F0E9484208FE39CE919
:1041A0000197F1F700C0000040E060E08C2F0E9412
:1041B000842040E061E08C2F0E94842040E066E093
:1041C0008C2F0E94842040E06DEF8C2F0E94842071
:1041D000D0E040E06D2F8C2F0E948420DF5FD23131
:1041E000C1F740E06D2F8C2F0E948420DF5FD43216
:1041F000C1F740E06D2F8C2F0E948420DF5FD43BFD
:10420000C1F74BE06DEF8C2F0E94842041E06AE003
:104210008C2F0E94842040E06DEF8C2FDF91CF9196
:104220000C9484208033910520F5880F991F880F06
:10423000991FFC01E952FE4F5281338180818370C6
:104240007181E0E98E9FC001112480529B4FFC01D7
:10425000E70FF11DB4976083FC01E50FF11DB497E2
:104260004083830F911DFC01B497208381E08093EC
:10427000CD030895FF920F931F93CF93DF93182FD1
:10428000062FF42EC0E0D0E02F2D402F612FCE015D
:104290000E9412212196C033D105B1F7DF91CF9151
:1042A0001F910F91FF9008954F925F927F928F928E
:1042B0009F92AF92BF92CF92DF92EF92FF920F93B5
:1042C0001F93CF93DF93362F54E0859FC0011124B5
:1042D000FC01E952FE4FA081A3707A2E618170E04B
:1042E000CB0184978C0197FF02C0095F1F4FA3E0A9
:1042F00015950795AA95E1F7628170E07B0154E27C
:10430000E51AF108E701F7FC279673E0D595C79504
:104310007A95E1F7638170E04B01E4E28E1A91082F
:10432000F40197FC37962F0153E0559447945A9522
:10433000E1F768E0A62EB12CB5010E94C13B6C01EB
:10434000C701B5010E94C13B7C01C401B5010E94B7
:10435000C13BA72DB0E01127DD243323A1F032E1CA
:104360003A9FB0013B9F700D1124060F171F075590
:104370001C4F61E070E001C0660FCA94EAF7F801D3
:104380003081632B14C032E13A9FB0013B9F700D26
:104390001124060F171F07551C4F61E070E001C084
:1043A000660FCA94EAF76095F80130816323608351
:1043B000DD27FF2432E1442391F03A9FA0013B9F87
:1043C000500D1124C40FD51FC755DC4F41E050E0FC
:1043D00001C0440FEA94EAF73881432B12C03A9F98
:1043E000A0013B9F500D1124C40FD51FC755DC4FB2
:1043F00041E050E001C0440FEA94EAF7409538816B
:1044000043234883A2015527992792E19A9FF001FF
:104410009B9FF00D1124E40FF51FE755FC4F22235D
:1044200061F021E030E0A90102C0440F551F8A95D8
:10443000E2F7CA019081892B0CC021E030E0A9018C
:1044400002C0440F551F8A95E2F7CA0180959081FA
:104450008923808381E08093A803DF91CF911F910E
:104460000F91FF90EF90DF90CF90BF90AF909F9013
:104470008F907F905F904F900895CF939091CD0350
:10448000992351F0C62F60EE74E00E94902060E7FF
:1044900075E08C2F0E9490201092CD03CF9108954B
:1044A000EF92FF920F931F93CF93DF939091A80306
:1044B0009923D9F0162F082F89EAE82E83E0F82EE9
:1044C000C0E0D0E0F70141917F016C2F802F0E9466
:1044D0008420FE01E755FC4F42896C2F812F0E94FA
:1044E00084202196C231D10569F7DF91CF911F91C8
:1044F0000F91FF90EF9008951092B9008CE0809397
:10450000B8000895EF92FF920F931F93CF93DF931C
:10451000182FEB011092BC0084EA8093BC000E942B
:1045200009317C019091BC0097FD0EC0CF3F8FEF09
:10453000D807C1F30E9409318E199F098C179D0776
:1045400088F38EEF9FEF2EC09091B900987F98303E
:1045500041F09091B900987F903119F08FEF9FEF63
:1045600021C01093BB0084E88093BC000E940931F5
:104570008C019091BC0097FD0CC0CF3F8FEFD80706
:10458000C1F30E940931801B910B8C179D0788F3A2
:10459000D8CF8091B900887F883111F08034F1F64E
:1045A00080E090E0DF91CF911F910F91FF90EF900D
:1045B00008950F931F93CF93DF93EB018093BB007C
:1045C00084E88093BC000E9409318C019091BC006A
:1045D00097FD0EC0CF3F8FEFD807C1F30E9409317E
:1045E000801B910B8C179D0788F38EEF9FEF0CC0FB
:1045F0002091B900287F81E090E0283211F480E01A
:1046000090E0919581959109DF91CF911F910F9144
:1046100008950F931F93CF93DF93EC0184E8809369
:10462000BC000E9409318C019091BC0097FD0EC026
:10463000CF3F8FEFD807C1F30E940931801B910B48
:104640008C179D0788F38EEF9FEF03C08091BB000E
:1046500090E0DF91CF911F910F9108950F931F93D9
:10466000CF93DF93EC0184E98093BC000E94093171
:104670008C019091BC0094FF0EC0CF3F8FEFD80704
:10468000C1F30E940931801B910B8C179D0788F3A1
:104690008EEF9FEF02C080E090E0DF91CF911F91FD
:1046A0000F910895CF92DF92EF92FF920F931F9395
:1046B000CF93DF936B017A018901B9010E948222B5
:1046C000FC01892BC9F4E601EC0CFD1CCE15DF05BD
:1046D00041F0B80189910E94D922FC01892BB1F3E4
:1046E0000BC0C801DF91CF911F910F91FF90EF9008
:1046F000DF90CF900C942E23CF01DF91CF911F91AB
:104700000F91FF90EF90DF90CF9008959093D30397
:104710008093D2030895E091D203F091D3033097B0
:1047200021F00190F081E02D099480E00895E0915E
:10473000D203F091D303309799F0209116012223F0
:1047400059F02091180627FF07C0DC012C91119623
:104750002C93119725E02C930280F381E02D09948E
:1047600008952091D0033091D1038217930771F0FF
:104770009093D1038093D003E091D203F091D303BF
:10478000309721F00680F781E02D0994089520915B
:10479000CE033091CF038217930771F09093CF032C
:1047A0008093CE03E091D203F091D303309721F0B0
:1047B0000084F185E02D0994089585B7806885BF50
:1047C00085B7806885BF0895089508950C94E52302
:1047D00008950C94E8230E94DD230E94E4230C94A6
:1047E000E62381E008950E9400310E94B4060E94F1
:1047F00097310C94E923CF92DF92EF92FF920F93BF
:104800001F93CF93DF93CDB7DEB72B970FB6F894F6
:10481000DEBF0FBECDBF0E9486070E94F12381112B
:1048200011C08FEF89838A831B820E9409318160C6
:10483000782F9D838C8349815A816B818D810E9461
:10484000A12456C085EDC82E83E0D82E00E010E0EC
:10485000E02E802F0E94CE07F60141916F01F42EC9
:10486000F82631F40F5F1F4F0E30110589F7D9CFAD
:104870009091800491FF04C08B870E94D4078B85A0
:1048800020E030E04F2D50E0922FBA01022E02C0FE
:10489000759567950A94E2F760FF24C02E83EF8236
:1048A00021E030E0690102C0CC0CDD1C9A95E2F7F2
:1048B00090E08C219D21892B09F420E028870E941B
:1048C00009318160782F9A8789874E815F81688559
:1048D0008A850E94A124F801EB52FC4F8081C826F2
:1048E000C08206C02F5F3F4F2630310569F6BACF30
:1048F0001091D4030E948B231817A1F00E948B23E0
:104900008093D4032B960FB6F894DEBF0FBECDBFB5
:10491000DF91CF911F910F91FF90EF90DF90CF909B
:104920000C944B112B960FB6F894DEBF0FBECDBF83
:10493000DF91CF911F910F91FF90EF90DF90CF907B
:104940000895CF93DF93CDB7DEB72B970FB6F894CA
:10495000DEBF0FBECDBF4F83588769877A878B87AD
:10496000DE01119686E0FD0111928A95E9F785E056
:10497000FE01379601900D928A95E1F749815A819F
:104980006B817C818D819E810E946C2B2B960FB652
:10499000F894DEBF0FBECDBFDF91CF910895FC012B
:1049A000808191810E94392E0895882309F413C1D2
:1049B000682F8238C1F40E948B2381FD0CC169E30A
:1049C00080910A0190910B010E945C300E94C72ED9
:1049D0002FEF81EE94E0215080409040E1F700C03D
:1049E000000069E319C08338F9F40E948B2380FD2D
:1049F000F2C063E580910A0190910B010E945C3046
:104A00000E94C72E2FEF81EE94E02150804090400D
:104A1000E1F700C0000063E580910A0190910B016D
:104A20000E9467300C94C72E8438C1F40E948B23F7
:104A300082FDD1C067E480910A0190910B010E9430
:104A40005C300E94C72E2FEF81EE94E02150804011
:104A50009040E1F700C0000067E4DECF8CEF860FE6
:104A6000813A38F480910A0190910B010E945C30E8
:104A7000D9CF80E2860F883048F4677081E001C0AA
:104A8000880F6A95EAF70E947B2ECCCF8BE5860FC4
:104A9000833070F4653A29F0663A31F083E890E0AB
:104AA00005C081E890E002C082E890E00C94B12358
:104AB00088E5860F873108F08EC0683A09F445C052
:104AC000693A09F445C06A3A09F445C06B3A09F4F9
:104AD00045C06C3A09F445C06B3B09F445C06C3BDA
:104AE00009F445C06D3A09F445C0603B09F445C07E
:104AF0006E3A09F445C06F3A09F445C0613B09F4C8
:104B000045C0623B09F445C0633B09F445C0643BC2
:104B100009F445C0653B09F445C0663B09F445C04E
:104B2000673B09F445C0683B09F445C0693B09F49B
:104B300045C06D3B09F445C06E3B09F445C06A3B76
:104B400009F445C080E090E044C082EE90E041C0AE
:104B500089EE90E03EC08AEE90E03BC085EB90E0AD
:104B600038C086EB90E035C083EB90E032C084EB38
:104B700090E02FC087EB90E02CC08CEC90E029C037
:104B80008DEC90E026C083E891E023C08AE891E0B4
:104B900020C082E991E01DC084E991E01AC081E261
:104BA00092E017C083E292E014C084E292E011C068
:104BB00085E292E00EC086E292E00BC087E292E0CE
:104BC00008C08FE690E005C080E790E002C08AE26E
:104BD00092E00C94C7230895882309F45BC0682FE2
:104BE000823879F40E948B2381FF54C069E380915D
:104BF0000A0190910B010E945C300E94C72E69E36C
:104C000010C08338B1F40E948B2380FF43C063E55A
:104C100080910A0190910B010E945C300E94C72E86
:104C200063E580910A0190910B010E9467300C941A
:104C3000C72E843879F40E948B2382FF2BC067E44F
:104C400080910A0190910B010E945C300E94C72E56
:104C500067E4E7CF8CEF860F813A18F380E2860F86
:104C6000883048F4677081E001C0880F6A95EAF7E0
:104C70000E94812EDCCF8BE5860F833020F480E00C
:104C800090E00C94B123685A673120F480E090E002
:104C90000C94C7230895CF93C82F0E94D5248C2F3E
:104CA000CF910C94EC25882321F00E947B2E0C944C
:104CB000C72E0895882321F00E94812E0C94C72EC0
:104CC00008958F929F92AF92BF92DF92EF92FF92E0
:104CD0000F931F93CF93DF937C01D62FC72FFC0137
:104CE000058102950F70128111110E949B2E0E9466
:104CF000712E882379F0112369F080E28D0F8830BE
:104D000048F082E00E94122F0E94712E91E0D82E6E
:104D1000D92601C0D12CAC2EA2948FE0A822B12CB0
:104D2000F501E857FF4F0C94F73B8C2F807FCF7035
:104D3000882311F0C295C07F112399F0CC2309F488
:104D400085C180E28D0F883010F0D11104C08C2F06
:104D50000E947B2E03C08C2F0E948E2E0E94C72E95
:104D600075C18D2F0E94EC25CC2309F494C180E2FB
:104D70008D0F883010F0D11104C08C2F0E94812E2D
:104D800003C08C2F0E94942E0E94C72E84C18C2FAA
:104D9000807FCF70803211F0C295C07FDD2319F083
:104DA000D130C9F021C0112371F0002341F001304E
:104DB00031F40E94AE2E8C2B0E94B42E6CC10E9446
:104DC000AE2E8C2BFDC0002319F0013009F463C115
:104DD0000E94BD2E11C0112321F0023008F05BC1EA
:104DE00007C0011158C108C0112321F001112EC1C3
:104DF0008C2FE6C001113BC18C2FE8C08C2F86950B
:104E00008695837090E0009719F0019761F043C197
:104E1000112321F08D2F9C2F937002C080E090E031
:104E20000E94B12348C1112321F08D2F9C2F937034
:104E300002C080E090E00E94C7233DC18C2F8370A8
:104E400009F050C0111133C18D2F8295869587705E
:104E5000880F880F9D2F9F70892E912CA12CB12C2B
:104E6000082E04C0880C991CAA1CBB1C0A94D2F7FB
:104E7000D4FF14C00FE010E020E030E0B901A80139
:104E800004C0440F551F661F771F8A95D2F7CB01C8
:104E9000BA01609570958095909503C060E070E0D0
:104EA000CB01C695C695C370D0E0C230D10561F084
:104EB000C330D10581F0682979298A299B29219756
:104EC00071F00E94B12CF3C0682979298A299B29A5
:104ED0000E94C32CECC00E94B12CC501B4010E94F9
:104EE0009F2CE5C0112319F08C2F817001C086958D
:104EF000882309F4DCC08D2F829586958770880FF2
:104F0000880F9D2F9F70892E912CA12CB12C082EDB
:104F100004C0880C991CAA1CBB1C0A94D2F7D4FFAD
:104F200014C00FE010E020E030E0B901A80104C097
:104F3000440F551F661F771F8A95D2F7CB01BA0120
:104F4000609570958095909503C060E070E0CB010E
:104F5000C695C695C3704C2F50E04230510569F09C
:104F60004330510589F0682979298A299B294130E4
:104F7000510571F00E94762D9AC0682979298A29F5
:104F80009B290E94882D93C00E94762DC501B401F3
:104F90000E94642D8CC08D2F90E0FC01E05EF10931
:104FA000E531F10508F04EC0E856FF4F0C94F73B91
:104FB000DF708C2F8F71112331F00E94FD2C8D2F0B
:104FC0000E94532668C00E941E2D8D2F0E945A26D3
:104FD00062C0112339F001115EC08C2F8F710E94C5
:104FE000432D59C0023008F056C0F7CF112339F0D5
:104FF0008C2F8F710E94FD2C4EC01123C9F38C2F72
:105000008F710E941E2D47C0112329F08C2F8F71A4
:105010000E94E82C40C00E94E32C3DC0112349F0BF
:10502000CF718C2F0E94FD2C63E08C2F0E94FD2EEF
:1050300032C081E00E94122F023068F182E00E94AB
:10504000122F29C0112331F0002391F28D2F0E94DD
:10505000D52421C0002399F2D93349F45FEF67EEDC
:1050600073E0515060407040E1F700C000008D2FA8
:105070000E94EC2510C04C2F4F706D2FC7010E946D
:10508000C20F0E94102C17C04C2F4F706D2FC701FC
:105090000E94FF1310C088E0A816B10441F05CF034
:1050A000EAE0AE1AB108F2E0AF16B10420F40E94B3
:1050B0008B230E944B11DD20E1F00E946D2E80FDBC
:1050C00018C0F70112820E94672E0E94FD2CC701B2
:1050D0000E9485280E94672EDF91CF911F910F912A
:1050E000FF90EF90DF90BF90AF909F908F900C94C7
:1050F0001E2DDF91CF911F910F91FF90EF90DF90C8
:10510000BF90AF909F908F9008950F931F93CF9370
:10511000DF93EC01888199812B813C81232BB9F0AD
:105120009F3F11F48F3F99F0CE010E945D118823BB
:1051300071F0688179818A810E94442E8C010E94DD
:105140009A2D0E949C2CB801CE010E946126DF910D
:10515000CF911F910F9108950E949B2E0E94AB2E1C
:105160000E94C72E80E090E00E94B12380E090E092
:105170000C94C72380910A0190910B010E94723018
:105180000C94AC280E948B2E0C94BA28E92FE2953F
:10519000EF70F0E03297EE30F105B0F4E355FF4FD9
:1051A0000C94F73B803F91F018F4803E68F40EC0F9
:1051B000843F51F40BC0803E48F0813F29F406C083
:1051C00093FB882780F9089580E0089581E0089591
:1051D0000E94392E0E94C6280895CF93DF9300D0F5
:1051E00000D01F92CDB7DEB70F900F900F900F90A9
:1051F0000F90DF91CF910895CF93DF9300D000D02F
:1052000000D0CDB7DEB726960FB6F894DEBF0FBE3E
:10521000CDBFDF91CF9108951F93CF93DF93C091BE
:10522000E40316E08091E503C81799F0D0E01C9FD5
:10523000F0011D9FF00D1124EA51FC4F4081518176
:1052400062817381848195810E94FC282196C770B8
:10525000E9CFDF91CF911F910895409116045091AD
:105260001704609118047091190480911A049091A8
:105270001B040C94FC2880911B0482958F7009F00C
:1052800054C080911804882309F44FC08091E4032E
:10529000A091E503609116047091170440911904E0
:1052A00050911A04B6E08A1709F43FC090E0411506
:1052B0005105C1F17F3F11F46F3FA1F1B89FF0019B
:1052C000B99FF00D1124EA51FC4F218172132AC0BD
:1052D0002081621327C02281211124C023813481BF
:1052E0002417350710F421503109241B350B283CB5
:1052F0003105C0F420911B042F70206120931B0402
:1053000026E0289FF001299FF00D1124E551FC4F64
:1053100080818F708061808386E194E00E9485287F
:105320000C940C2901968770BECF0895CF92DF921E
:10533000EF92FF920F931F93CF93DF93CDB7DEB71A
:1053400062970FB6F894DEBF0FBECDBF8C0185E02B
:10535000F801DE011D9601900D928A95E1F7D801C2
:105360004C9111965C91119712966C91129713962D
:10537000CD90DC90149730911604709117048091B1
:10538000190490911A04009709F46BC17F3F19F436
:105390003F3F09F466C1E0901804EE2009F4C0C054
:1053A00020911B04C816D90628F0F601E81BF90B5A
:1053B000CF0104C0809590958C0D9D1DFF24F39422
:1053C000883C910578F0F12C207F09F0C6C07C2D37
:1053D000D98AC88A89890E94ED2886E194E00E94D2
:1053E0008528B1C0822F807F09F046C0751314C094
:1053F000341312C0611110C02F70206120931B0460
:105400000E942D2986E194E00E94852880911B044A
:10541000D80115968C932EC0CD2819F15F3F11F459
:105420004F3FF9F0F62E61111CC08091E4032091EA
:10543000E50336E0821709F45AC090E0389FF00186
:10544000399FF00D1124EA51FC4F7181571306C0AA
:105450007081471303C07281711103C00196877078
:10546000E9CFF62E662309F427C180911B048160E1
:1054700080931B04F12C20C1751308C0341306C09F
:10548000611104C080911B04D801C3C04D875E87A1
:105490008D859E856A8B0E94E8286A898823E1F1C0
:1054A0006623D1F120911B04822F82958F7090E0AA
:1054B000029774F0809116049091170498878F8357
:1054C0001986DB86CA862C87CE0107960E9485281E
:1054D00086E0F801A6E1B4E001900D928A95E1F72B
:1054E0000E943B290E942D29FF24F394E5C04D879B
:1054F0005E878D859E850E94392E292F22952F70DB
:1055000030E0223031050CF0CBC09F7009F0C5C0EF
:10551000805E883008F4D0C0C8010E948528E4CF9E
:10552000C816D90608F453C0F601E81BF90BCF01E1
:10553000883C910508F450C0F12C7C2DD98AC88A8A
:1055400089890E94ED28E6E1F4E086E0DF011D9202
:105550008A95E9F70E942D29AFC0751314C0341342
:1055600012C0611110C080911B04F8018583C8012D
:105570000E94852886E0E6E1F4E0DF011D928A952D
:10558000E9F7FE2C99C04D875E878D859E856A8BD5
:105590000E94E8286A89882309F4BECF662309F4AB
:1055A000BBCF20911B04822F82958F7090E00297D1
:1055B0000CF48ECF80911604909117049A838983FE
:1055C0001B82DD82CC822E83CE0101967FCF809517
:1055D00090958C0D9D1DACCFF62E662309F49CCFC3
:1055E00075132EC034132CC020911B0420FD1FC046
:1055F000822F82958F70D9F0D80115962C9315972C
:105600008F3049F08F5F982F9295907F822F8F7007
:10561000892B15968C93C8010E94852886E0F80195
:10562000A6E1B4E001900D928A95E1F793CF86E070
:10563000F801A6E1B4E001900D928A95E1F73CC033
:105640004D875E878D859E850E94E828811140CF19
:1056500080911B04816080931B04C8010E948528EF
:105660002BC0662309F458CF4D875E878D859E85B4
:105670000E94E828F82E882309F44ECF86E0F8012E
:10568000A6E1B4E001900D928A95E1F786E194E0FD
:105690000E94CF240E943B295DCF811139CF0CC0DD
:1056A000243031050CF038CF9F7009F431CFF80168
:1056B0009581907F09F02CCF8F2D62960FB6F894CC
:1056C000DEBF0FBECDBFDF91CF911F910F91FF9035
:1056D000EF90DF90CF9008951F93CF93DF93CDB7D6
:1056E000DEB72C970FB6F894DEBF0FBECDBF4F8349
:1056F000588769877A878B879C87CE0107960E9497
:105700009629882369F08F8198852A853B85232BEC
:10571000F1F19F3F09F063C08F3F09F060C037C0CF
:1057200086E0FE013796DE01119601900D928A9572
:10573000E1F76F817885EA85FB85309741F17F3FFE
:1057400011F46F3F21F12091E50330E0C90101968A
:10575000877099274091E40350E08417950709F476
:1057600047C069837A83FD83EC8396E0929FD001E2
:10577000939FB00D1124AA51BC4FFE0131960190A8
:105780000D929A95E1F78093E5030E940C2916E0AB
:105790008091E4039091E5038917C1F1189FC0013E
:1057A00011248A519C4F0E949629882379F1E09117
:1057B000E4031E9FF0011124EA51FC4F4081518106
:1057C00062817381848195810E94FC288091E40329
:1057D00090E00196877099278093E403D9CF4F8199
:1057E000588569857A858B859C850E94FC28CFCF5A
:1057F0000E94C2281092E5031092E403E6E1F4E06F
:1058000086E0DF011D928A95E9F7C1CF2C960FB68D
:10581000F894DEBF0FBECDBFDF91CF911F910895E9
:10582000EF92FF920F931F93CF93DF938C01892BFD
:1058300009F46CC0F12CEE24E394E8012196F80100
:105840008491843740F4843008F051C0813081F075
:10585000823019F15BC0853709F444C0A8F19CE798
:10586000980F903708F052C08F770E94EC2541C006
:105870000E5F1F4FFE01C49180E28C0F883048F408
:10588000C7708E2D01C0880FCA95EAF70E949E2E20
:1058900014C08C2F0E94D5242DC00E5F1F4FFE0117
:1058A000C49180E28C0F883058F4C7708E2D01C0EF
:1058B000880FCA95EAF70E94A42E0E94C72E1AC02C
:1058C0008C2F0E94EC2516C00E5F1F4FFE01C49165
:1058D000CC2381F08FE99FE00197F1F700C0000031
:1058E000C150F6CF0E5F1F4FFE01F49003C00E941F
:1058F000D5248E018F2D882309F49FCFEFE9FFE097
:105900003197F1F700C000008150F5CFDF91CF91C2
:105910001F910F91FF90EF90089508950C948D2C96
:105920000E948E2C609357047093580480935904FE
:1059300090935A040C94AC2808950C94902C0F93D7
:105940001F930091570410915804209159043091ED
:105950005A04602B712B822B932B1F910F910C9467
:10596000902C0F931F93009157041091580420918D
:10597000590430915A0460237123822393231F9189
:105980000F910C94902C0F931F930091570410913A
:1059900058042091590430915A04602771278227B6
:1059A00093271F910F910C94902C0C9488100E94B7
:1059B000D52C6093530470935404809355049093B2
:1059C00056040C94AC2860E070E0CB010C94D72C0A
:1059D0000F931F9341E050E060E070E08A019B016B
:1059E00004C0000F111F221F331F8A95D2F7C9016F
:1059F000B8011F910F910C94D72C0F931F9341E086
:105A000050E060E070E004C0440F551F661F771F30
:105A10008A95D2F78091530490915404A091550433
:105A2000B09156048A019B01082B192B2A2B3B2B82
:105A3000C901B8011F910F910C94D72C0F931F939C
:105A400041E050E060E070E004C0440F551F661F65
:105A5000771F8A95D2F74095509560957095809103
:105A6000530490915404A0915504B09156048A01B6
:105A70009B01082319232A233B23C901B8011F9145
:105A80000F910C94D72C0F931F9341E050E060E0EE
:105A900070E004C0440F551F661F771F8A95D2F728
:105AA0008091530490915404A0915504B0915604F0
:105AB0008A019B01082719272A273B27C901B8011A
:105AC0001F910F910C94D72C0F931F9300915304A7
:105AD000109154042091550430915604602B712B81
