:100000000C9440070C945D070C945D070C945D07FD
:100010000C945D070C945D070C945D070C945D07D0
:100020000C945D070C945D070C9465110C94A7105B
:100030000C947F240C945D070C945D070C945D0771
:100040000C945D070C945D070C945D070C945D07A0
:100050000C945D070C946F120C945D070C945D0773
:100060000C945D070C945D070C945D070C945D0780
:100070000C945D070C945D070C945D070C945D0770
:100080000C945D070C945D070C945D070C945D0760
:100090000C945D070C945D070C945D070C945D0750
:1000A0000C945D070C945D070C945D07640A640A68
:1000B000960A960A000B1C0B470C470C270BB50B36
:1000C000C60BC60BBA0EE10E8F10E10E8F102D0F6E
:1000D000500F8F1045105510481C591C231CC61C6E
:1000E000B51CC41CC41CC21CC41C18261B262026FC
:1000F0002326262629262C26A027A527AF27A32797
:10010000A827AD27AB2758295B295E2961296429D7
:1001100067296A2905010980A101850319012AB708
:1001200000150126B700950175108100C0050C0966
:1001300001A101850419012AA002150126A002953A
:100140000175108100C005010906A101850605079A
:1001500019E029E7150025019508750181020507B9
:10016000190029EF1500250195F075018102050898
:1001700019012905950575019102950175039101F4
:10018000C005010902A1010901A100050919012900
:10019000081500250195087501810205010930093E
:1001A000311581257F95027508810609381581254D
:1001B0007F950175088106050C0A38021581257F97
:1001C000950175088106C0C00660FF0961A101099B
:1001D00062150026FF00952075088102096315004D
:1001E00026FF00952075089102C005010906A101AE
:1001F000050719E029E71500250195087501810219
:100200009501750881010507190029FF150026FFD2
:1002100000950675088100050819012905950575E1
:10022000019102950175039101C009027400040156
:1002300000A0FA09040000010301010009211101D5
:1002400000012240000705810308000109040100A4
:10025000020300000009211101000122220007050C
:1002600083032000010705040320000109040200A4
:1002700001030102000921110100012247000705C5
:1002800082030800010904030001030000000921A2
:1002900011010001226D00070585032000011201F4
:1002A00000020000000897327649010001020001B7
:1002B00020034500720067006F0044006F00780063
:1002C000200045005A00200047006C006F007700B6
:1002D000000028035A00530041002000540065002C
:1002E000630068006E006F006C006F0067007900AB
:1002F00020004C0061006200730000000403090448
:1003000029002B002A00E100350000001E00140027
:1003100004001D0034003B001F001A0015001B00E4
:10032000E00003512000090016000600E2002C0046
:100330002100130017001900E0003A0022000A0013
:10034000070005000000650004510100000007518E
:100350000000E30002530057000000070000E70020
:1003600023000D000B000E0000004C0024000F00C5
:100370001100100006513C0025001800080036004E
:100380000100280026001C000C0037000100055168
:10039000270033001200380001003D002D0031001D
:1003A0003400E5000100000001000100010001002F
:1003B0000100000001000100010001000100010036
:1003C0000100010001000100E00001000100010046
:1003D00001000100E2000100010001000100010034
:1003E000E300010001000100010001000000010024
:1003F00001000100000001000000010001000157A0
:1004000000000100000001000100010001000100E6
:1004100000000100010001000100010001000100D5
:1004200001000100010001000100010001000100C4
:1004300001000100010001000100010001000100B4
:1004400001000100010001000100010001000000A5
:100450000100010001000100010000001E00140065
:1004600004001D00010001001F001A0016001B00FF
:100470000100010020000800070006000100010043
:1004800021001500090019000100010022001700D9
:100490000A0005000000010001001000000001003A
:1004A0000000010001000100000001000000010047
:1004B00023001C000B0011000000010024001800A4
:1004C0000D0010000100010025000C000E00360098
:1004D00001000100260012000F003700010001009A
:1004E0002700130033003800010001000100010063
:1004F00001000100010000000100010001000100F5
:10050000010000003A00140704071D070100CB5C3E
:100510003B001A0716071B07010001003C000807F3
:1005200007070607010001003D0013070907190727
:100530000100CA5C3E000A070707050700003E00ED
:1005400001000000000001000000C45C0100240262
:10055000000001000000CD5C3F00250221022202C4
:100560000000CC5C40002F0226022F000100010099
:1005700041003002270230000100C65C42002D021B
:1005800056001F020100C75C43002E022E0020020D
:1005900001000100440045000100010001000000CD
:1005A0000100010001000100010000000100010044
:1005B0000100010001000100010001000100010033
:1005C00001000100010001003A00010001000100EA
:1005D0000100010001000100010001000100010013
:1005E0000100010000000100010001000000010005
:1005F00000000100010001000000010000000100F6
:1006000001000100010001000000010001005F0085
:100610005C00590062000100010060005D005A00AA
:1006200062000100010061005E005B00010001004A
:10063000010001002500010001000100010001008E
:1006400001000100010000000100010001000100A3
:100650000100000001000100010001000100010093
:10066000010001002900010001000100010001005A
:100670000100010001000100010001000100010072
:10068000F200010001000100010001000000010072
:100690000100010000000100000001000100010054
:1006A00000000100000001000100A900AA00A8004C
:1006B000000001000100240021001E006200010072
:1006C0005400250022001F0062000C005500260087
:1006D000230020006300010056005700000058006E
:1006E0000100010001000100010001000100000003
:1006F00001000100010001000100000001000000F4
:100700000000000001000100000000004A0000009D
:100710000100010000004B004E000000010001003C
:10072000000000004D000000010001000100000079
:1007300000000000000001000100010000000100B5
:1007400000000100010001000000010000000100A4
:100750000100000000000000000001000000000097
:100760005000000001000100000052005100000094
:1007700001000100000000004F0000000100010026
:100780000100000000000000010001000100010064
:100790000100010001000000010001000100010052
:1007A0000100000001000100010001000100010042
:1007B0000100010001000100010001000100010031
:1007C0000100010001000100010001000100010021
:1007D0000100010001000100010001000000010012
:1007E0000100010000000100000001000100010003
:1007F00000000100000001000100010001000100F3
:10080000000001000100240721071E07010001006C
:100810000100250722071F072707010001002607FF
:100820002307200701000100010001000100010071
:1008300001000100010001000100010001000000B1
:100840000001010101010101010102020202020293
:100850000202020303030303030303040404040466
:10086000040405050505050606060606070707072D
:100870000708080808090909090A0A0A0B0B0B0CE2
:100880000C0C0D0D0D0E0E0E0F0F0F10101111117F
:100890001212131314141515161617171818191900
:1008A0001A1A1B1B1C1D1D1E1E1F20202122222365
:1008B0002424252626272829292A2B2C2D2D2E2FA6
:1008C00030313232333435363738393A3B3C3D3EBD
:1008D0003F404142434445464748494A4C4D4E4FAC
:1008E00050515354555658595A5B5D5E5F6162646E
:1008F000656668696B6C6D6F7072737577787A7BFB
:100900007D7E8082838587888A8C8E8F9193959651
:10091000989A9C9EA0A2A3A5A7A9ABADAFB1B3B571
:10092000B7BABCBEC0C2C4C6C9CBCDCFD1D4D6D84D
:10093000DBDDDFE2E4E7E9EBEEF0F3F5F8FAFDFFEB
:1009400000443454007464840055456500857595F1
:100950000036264600665676009686A6003727475C
:100960000077678700382848008878980039294937
:1009700000695979009989A9003A2A4A006A5A7A85
:10098000003B2B4B006B5B7B004C3C5C007C6C8C1D
:10099000005D4D6D008D7D9D003E2E4E006E5E7E95
:1009A000014434540174648401554565018575958D
:1009B0000136264601665676019686A601372747F8
:1009C00001776787013828480188789801392949D3
:1009D00001695979019989A9013A2A4A016A5A7A21
:1009E000013B2B4B016B5B7B014C3C5C017C6C8CB9
:1009F000015D4D6D018D7D9D013E2E4E016E5E7E31
:100A000000000000000000000000000000000000E6
:100A100000000000000000000000000000000000D6
:100A200000000000000000000000000000000000C6
:100A300000000000000000000000000000000000B6
:100A400000000000000000000000000000000000A6
:100A50000000000000000000000000000000000096
:100A60000000000000000000000000000000000086
:100A70000000000000000000000000000000000076
:100A80000000000000000000000000000000000066
:100A9000DBFFFFDBFFFFDBFFFFDBFFFFDBFFFFBC5D
:100AA000FFFFBCFFFFBCFFFFBCFFFFBCFFFFBCFFA5
:100AB000FFBCFFFFBCFFFFBCFFFFBCFFFFBCFFFF95
:100AC000BCFFFFBCFFFFBCFFFFBCFFFFBCFFFFBCC8
:100AD000FFFFBCFFFFBCFFFFDBFFFFDBFFFFDBFF18
:100AE000FFDBFFFFDBFFFFBCFFFFBCFFFFBCFFFF27
:100AF000BCFFFFBCFFFFBCFFFFBCFFFFBCFFFFBC98
:100B0000FFFFBCFFFFBCFFFFBCFFFFBCFFFFBCFF44
:100B1000FFBCFFFF83FFFF83FFFF83FFFFBCFFFFDF
:100B20009AFFFF9AFFFF9AFFFF9AFFFF9AFFFF9A33
:100B3000FFFF9AFFFF9AFFFF9AFFFF9AFFFF9AFFBE
:100B4000FF9AFFFF9AFFFF9AFFFF9AFFFF9AFFFFAE
:100B5000CDFFFF9AFFFF9AFFFF9AFFFF9AFFFF9AD0
:100B6000FFFF9AFFFF9AFFFF9AFFFF9AFFFF9AFF8E
:100B7000FF9AFFFF9AFFFF9AFFFF9AFFFF9AFFFF7E
:100B800000CCFF9AFFFF9AFFFF9AFFFF00CCFF0007
:100B9000CCFF00CCFF9AFFFF9AFFFF9AFFFF9AFF5E
:100BA000FF9AFFFF9AFFFF9AFFFF9AFFFF9AFFFF4E
:100BB00069FFFF69FFFF69FFFF69FFFF69FFFF69C9
:100BC000FFFF69FFFF69FFFF69FFFF69FFFF69FF23
:100BD000FF69FFFF69FFFF69FFFF69FFFF69FFFF13
:100BE00069FFFF69FFFF69FFFF69FFFF0000000069
:100BF000000000000000000069FFFF69FFFF69FFBF
:100C0000FF69FFFF69FFFF000000000000F9E4FF3B
:100C1000000000000000F9E4FFF9E4FFF9E4FFF947
:100C2000E4FFF9E4FF000000000000F9E4FF000029
:100C300000000000000000000000000000000000B4
:100C400000000000000000000000000000000000A4
:100C5000000086FFD586FFD586FFD5000000000086
:100C60000086FFD586FFD586FFD500000000000076
:100C70004AFFFF86FFD586FFD5000000F9E4FFF9A3
:100C8000E4FF000000000000000000000000000081
:100C90000000000000000000000000000000000054
:100CA000000000000000000000000000F3DEEA0089
:100CB0000000000000000000000000000000000034
:100CC0000000000000000000000000000000000024
:100CD0000000000000000EFFFF0EFFFF0EFFFF6987
:100CE000FFFF23FFFF23FFFF23FFFF0EFFFF69FF2F
:100CF000FF23FFFF23FFFF23FFFF000000F9E4FFB6
:100D000023FFFF23FFFF23FFFF69FFFF00000023F6
:100D1000FFFF23FFFF0000000000000000000000B4
:100D200000000000000000000000000000000000C3
:100D300000000000000000000000000000000000B3
:100D400000000000000000000000000000000000A3
:100D50000000000000000000000000000000000093
:100D60000000000000000000000000000000000083
:100D70000000000000EAFFFF00000000000000008B
:100D800000EAFFFFEAFFFFEAFFFF000000000000AB
:100D90000000000000000000000000000000000053
:100DA0000000000000000000000000000000000043
:100DB000000000000000000000000000000EFFFF27
:100DC00000000000000000000069FFFF0EFFFF6947
:100DD000FFFF000000000000000000000000000015
:100DE0000000000000000000000000000000000003
:100DF00000000000000000000000000000000000F3
:100E0000000086FFD586FFD586FFD50000000000D4
:100E10000086FFD586FFD586FFD5000000000000C4
:100E200086FFD555CB9E86FFD50000000000000A46
:100E3000E1FF0000000000000000000000000000D2
:100E400000000000000000000000000000000000A2
:100E50000000000000000000000000000000000092
:100E60000000000000000000000000000000000082
:100E70000000000000000000000000000000000072
:100E800011241FBECFEFDAE0DEBFCDBF12E0A0E03D
:100E9000B1E0E8EDF5E602C005900D92AC37B10780
:100EA000D9F725E0ACE7B2E001C01D92A733B20745
:100EB000E1F70E94D5180C94EA320C940000A5E2E8
:100EC000B0E0E5E6F7E00C94B62EFC01808191815C
:100ED00023813481232B31F09F3F31F491E08F3F08
:100EE00019F403C091E001C090E090FD0FC57F01AF
:100EF00085E0DE01919601900D928A95E1F7D70188
:100F000012962C9189A19AA1222349F00E94DD29F1
:100F1000182F682F89A19AA10E94512A03C00E940C
:100F20001E2A182F69A17AA1812F0E94E9128C0133
:100F3000F70182818823E1F08091EE049091EF0423
:100F40000097B1F08017910799F0FEE08F9FC001E4
:100F50001124FC01E25EFE4F208124602083875E25
:100F60009E4FDC010D931C930E9427251092ED04E7
:100F700090912805F7018281992309F44DC08111D0
:100F8000B5C4E0917E02E330A0F481E08E0F80933F
:100F90007E02F0E0EE0FFF1FE259FC4FD7018D916A
:100FA0009C919183808382E08983CE0101960E9487
:100FB000532CBFEFE3EDF0E3B150E040F040E1F738
:100FC00000C0000080917E02833009F08FC410922F
:100FD0007E02E4E7F3E0AEE6B3E08AE793E0318136
:100FE00011962C91119732132EC030812C9132130F
:100FF0002AC0329612968E179F0789F784E089835C
:1010000081E0809329058EEF8A8310922805CE0116
:1010100001960E94532C6AC4909129059923C1F02E
:10102000882311F086E001C087E08983D7018C9185
:101030008A8311968C918B838EEF8C83CE010196DF
:101040000E94532C05C083E0898310922905DBCFD1
:10105000F7018281033BFDE51F07E1F5882309F4D1
:1010600040C090918C0381E0890F8770987F853014
:1010700020F4892B80938C0302C090938C03809181
:101080008C038770BFEF8B9FC001112495958795C6
:1010900095958795992790938900809388009093E0
:1010A0008B0080938A0090938D0080938C004091F8
:1010B0008C0350918D0360918E0370918F038FE0AC
:1010C00090E00E94912F80918A0390918B030E945F
:1010D000892707C0043B2DE5120709F096C081114E
:1010E00014C1F70182818111A1C0809189028272AD
:1010F0000B3CFCE51F0709F47CC098F5063C3CE579
:10110000130709F462C0B8F4043CACE51A0709F40B
:1011100052C008F055C0033CECE51E0709F086C13B
:1011200090912D0581E0892780932D0510923A0139
:1011300080912C053CC0083CFCE51F0709F44FC01A
:1011400008F448C0093C3CE5130709F44DC00A3CCB
:101150009CE5190709F06AC14AE054E267E174E2CC
:1011600051C00F3CACE51A0709F4C0C360F40D3C54
:10117000ECE51E0709F442C008F054C044E252E214
:1011800062E372E23FC0073D2CE5120738F4013DEF
:101190003CE5130708F0AAC384E045C00F358DE590
:1011A000180709F4A3C342C19FEF909332058160F1
:1011B00080932C059BC342E554E26CE574E222C0A7
:1011C0004CE554E262E574E21DC04EE354E268E48B
:1011D00074E218C048E454E26EE374E213C044E2DF
:1011E00054E261E374E20EC041E354E264E274E26B
:1011F00009C047E154E26AE074E204C042E352E20B
:1012000064E272E20E94632571C3033C3CE513076C
:1012100009F49AC0053BEDE51E0709F0AAC0882332
:1012200009F464C381E00E94102C60C30C359DE575
:10123000190709F464C060F40115BCE51B07A9F0A7
:101240000F3DECE51E0709F0F1C00E949E144CC052
:101250000E35FDE51F0709F44AC008F452C0093AEB
:101260003DE5130709F440C0E1C0109289020E94D5
:10127000112B8FEF94E3ACE081509040A040E1F758
:1012800000C00000F89481E08093E00080E2809349
:10129000D8001092C900EFE1FEE43197F1F700C0E9
:1012A00000001DBA109268001CBC10BE1FBA10923C
:1012B0007A0010926E0010926F00109271001092DE
:1012C00072001092C9001092BC0014B817B81AB876
:1012D0001DB810BA1092BC0015B818B81BB81EB8CB
:1012E00011BA0C94003F02C30E947127FFC2809183
:1012F000840282FB882780F991E0892703C081E07E
:1013000001C080E00E94951591C080918C0383FB01
:10131000222720F991E0922790FB83F980938C0398
:10132000992329F040E060E080E00E94D51D4091C3
:101330008C0350918D0360918E0370918F038FE029
:1013400090E00E94912FCDCE882309F4CFC29091D6
:10135000320580912C059F3F09F026CF109232056F
:10136000816080932C0540E060E080E00E94D51D04
:10137000BDC2980137552F3F310511F008F0B1CEAD
:101380005801BB242EE0029FF0011124DF01A75E6B
:10139000BE4F6D01E25EFE4F908180FB90F990831D
:1013A000F70182818823E1F10E94732490936C03FA
:1013B00080936B03D60112968C9112978F5F1296D1
:1013C0008C9312979091ED0480918902892B13964A
:1013D0008C9313978091300314968C9314971696E0
:1013E000ED91FC911797309731F01C966D917C919F
:1013F0001D97C60109958EE08A9DF0018B9DF00D29
:101400001124E25EFE4F808181FF03C090E080E006
:1014100002C0902F812F9093EE048093EF0461CE51
:1014200091FF5FCECD010E9409255BCED7011296B8
:101430008C9112970D911C91882349F0C8010E944C
:10144000DD29D82E682FC8010E94512A04C0C80186
:101450000E941E2AD82EB8018D2D0E94E9120E94EA
:1014600002138C01982EF701D280A580A2949FE0F0
:10147000A92280910F038770B9F0DD20A9F0812F98
:10148000807F803421F080E2800F883068F0809186
:10149000840282FF09C082E00E94781580910F03C8
:1014A0008770CC24C3948111C12CB12EB2948FE0EB
:1014B000B8228B2D90E08C30910508F0E8C1FC013A
:1014C000EA5AFF4F0C94B631812F807F1F7088231A
:1014D00011F01295107FDD20B9F0112309F4C5C178
:1014E00080E2800F883010F0911006C08091890250
:1014F000182B1093890205C08091ED04182B1093CE
:10150000ED040E942315B1C1802F0E94362B1123B8
:1015100009F4BDC1005E083078F1992069F1109599
:101520008091ED0418231093ED0429C0812F807F52
:101530001F70803211F01295107F992021F0F1E098
:101540009F16D9F147C08091840282FD1BC0DD2027
:1015500069F0112339F080918902182B10938902C8
:101560000E94231580E00E946B2B91C180E00E94B5
:10157000362B112309F48BC1812F0E941C150E9468
:10158000231585C1DD2081F080913003AA2051F020
:1015900021E0A21207C0182B181709F478C1109384
:1015A000300375C1812B10C0AA2021F031E0A316B1
:1015B00009F46DC10E9416151FC0DD2041F081E0C5
:1015C0008A1508F464C1812F0E942C2B60C1A110E0
:1015D0005EC112C0DD2019F0AA20A9F346C1AA20DD
:1015E00059F0093309F050C19FEFA7EEB3E09150D5
:1015F000A040B040E1F746C1812F0E94252B47C192
:10160000812F86958695837019F0813059F03FC1FE
:10161000DD2019F0C801937002C080E090E00E94C4
:10162000E6243BC1DD2019F0C801937002C080E0C0
:1016300090E00E94D02431C1802FDD2019F00E945B
:10164000A22102C00E94E8200E94FD2126C1812F14
:10165000837009F041C0D1101EC1302F32953695EC
:101660003770330F330F802F8F7090E0032E02C03E
:10167000880F991F0A94E2F704FF0BC04FE050E077
:1016800002C0440F551F3A95E2F79A012095309514
:1016900002C020E030E0169516951370123099F0D4
:1016A00068F44091310350913203113029F0822BBC
:1016B000932B8423952304C0842B952B822B932B6F
:1016C0000E94D32AE8C0822B932B209131033091C2
:1016D000320382279327F4CFDD2019F0812F817008
:1016E00001C08695882309F4D6C0302F32953695EF
:1016F0003770330F330F802F8F7090E0032E02C0AE
:10170000880F991F0A94E2F704FF0BC04FE050E0E6
:1017100002C0440F551F3A95E2F79A012095309583
:1017200002C020E030E0169516951370123079F063
:10173000B8F440918A0350918B03113029F0822B29
:10174000932B842395230EC0842B952B09C0822BC9
:10175000932B20918A0330918B038227932702C019
:10176000822B932B0E94852A96C01F70DD2039F0B2
:10177000812F0E94C32A802F0E942C2B8CC0802F87
:101780000E94252B812F0E94B12A85C0802FE2EF75
:101790009E1689F1E91538F0F0EF9F1659F021EF08
:1017A000921621F15EC033EF931661F194EF991612
:1017B000C9F057C0DD2089F0A11069C01F7181E018
:1017C00090E002C0880F991F1A95E2F720918A03D2
:1017D00030918B038227932722C0A1E0AA1508F439
:1017E00056C0ECCF8091840282FD1CC0DD2029F020
:1017F000812F8F7129C0DD20D9F3812F8F710E9435
:10180000B12A45C0DD2049F01F7181E090E002C09F
:10181000880F991F1A95E2F702C080E090E00E94BD
:10182000852A35C0DD2099F01F71812F0E94C32ABF
:101830008091840282FF07C0B8E01B9FC001112481
:10184000836080930F03812F0E94C32A20C081E010
:101850000E947815E1E0EA15D0F482E00E94781544
:1018600016C0DD2021F0AA2019F2802F7CCEAA20FC
:1018700021F2893349F4FFEF27EE33E0F1502040A5
:101880003040E1F700C00000802F0E94362B88EF27
:101890008B0D843010F40E94FC24CC20B1F0809198
:1018A0000F0380FD12C0D70112961C928595859575
:1018B00085950E94C32AC7010E945F0780910F038C
:1018C0008595859585950E94B12A85E0F701DE0111
:1018D000119601900D928A95E1F709811A81C8014C
:1018E0000E941E2AB8010E94E91210C080910F03C5
:1018F000877061F0D70112968C91882339F080911E
:10190000840282FF03C082E00E947815A596EBE076
:101910000C94D22E8091AF0287FF11C08091E80015
:1019200082FD05C080912B058111F8CF11C08091F7
:10193000E8008B770BC080912B05882349F08091BC
:10194000E80080FFF8CF8091E8008E778093E80070
:101950000895982F973068F59093E900981739F01B
:101960007091EC002091ED005091F00003C0242F05
:10197000762F50E021FD02C09F5FECCF3091EB004D
:101980003E7F3093EB003091ED003D7F3093ED00D2
:101990003091EB0031603093EB007093EC002093BA
:1019A000ED005093F0002091EE0027FDE5CF80E0A0
:1019B00008958F708093E90081E008952091B50229
:1019C0003091B6022617370748F06115710539F4D2
:1019D0002091E8002E772093E80001C0B901FC01B6
:1019E00020E06115710579F180912B058823F1F1D3
:1019F0008530F1F18091E80083FD3CC08091E800E2
:101A000082FD2EC08091E80080FFEBCF2091F30093
:101A10008091F20090E0922B6115710551F08830B1
:101A2000910538F421912093F100615071090196DC
:101A3000F3CF21E0089709F020E08091E8008E774D
:101A40008093E800CECF2111CFCF0AC080912B0523
:101A5000882361F0853061F08091E80083FD0AC041
:101A60008091E80082FFF2CF80E0089582E008953F
:101A700083E0089581E00895089580918B02089590
:101A800080938502709387026093860280912B0574
:101A9000843001F585E08093E9008FEF9091E800B4
:101AA000815095FD06C095ED9A95F1F700008111E2
:101AB000F5CF8091E80085FF0DC040E050E063E085
:101AC00070E085E892E00E94292C8091E8008E77F2
:101AD0008093E8000895BC0184E00E94400D0895C1
:101AE000BC0183E00E94400D089522E02093E900AC
:101AF0002FEF3091E800215035FD06C035ED3A95C5
:101B0000F1F700002111F5CF2091E80025FF0BC06F
:101B100040E050E065E070E00E94292C8091E800F0
:101B20008E778093E8000895CF93DF9320910A0188
:101B3000222339F02091830227FF03C060E225E0D1
:101B400002C068E021E02093E9002FEF3091E80027
:101B5000215035FD06C035ED3A95F1F70000211111
:101B6000F5CF2091E80025FF1DC0EC0180910A010E
:101B7000811105C040E050E068E070E003C070E013
:101B800040E050E0CE010E94292C8091E8008E7741
:101B90008093E80080E2FE01ACE8B2E001900D9293
:101BA0008A95E1F7DF91CF910895AAE2B0E0EBEDDD
:101BB000FDE00C94BE2EEFEAF2E087EB92E020917C
:101BC000F10021938E179F07D1F78091B0028330E7
:101BD00009F463C030F4813071F0823009F49FC0A1
:101BE000B6C08A3009F48BC08B3009F46EC08930DE
:101BF00009F0ADC020C08091AF02813A09F0A7C0C2
:101C00008091E800877F8093E8008091B3029091F3
:101C1000B402892B21F460E28CE892E003C060E01A
:101C200080E090E070E00E94DE0C8091E8008B770D
:101C30008093E8008CC08091AF02813209F087C0A8
:101C40008091B3029091B402009719F0039709F0C4
:101C50007EC08091E800877F8093E8008091E80053
:101C600082FD05C080912B058111F8CF70C02091B5
:101C7000F3008091F20090E0922B029731F4809172
:101C8000F100813011F0863021F48091F1008093D1
:101C90008B028091E8008B7756C08091AF02813A29
:101CA00009F055C08091B3029091B402892B09F0DC
:101CB0004EC08091E800877F8093E8008091E80023
:101CC00080FFFCCF80910A0139C08091AF02813240
:101CD000F1F58091B3029091B402892BC1F5809106
:101CE000E800877F8093E8000E948A0C8091B1020F
:101CF00080930A01109289020E94112B28C08091C2
:101D0000AF02813221F58091E800877F8093E8005F
:101D10000E948A0C8091B20280938A0218C080913E
:101D2000AF02813AA1F48091E800877F8093E800B8
:101D30008091E80080FFFCCF80918A028093F100BF
:101D40008091E8008E778093E8000E948A0C809151
:101D5000E80083FFE4C18091AF029091B002492F67
:101D600050E04A30510508F0DAC1FA01EE59FF4F50
:101D70000C94B631803821F0823809F0D0C108C007
:101D80008091AC029091AD02992389F082600FC0DE
:101D90008091B3028F70873008F0C1C18093E90051
:101DA0008091EB0085FB882780F91092E9009091E3
:101DB000E800977F9093E8008093F1001092F10083
:101DC00070C1282F2D7F09F0AAC1882319F0823015
:101DD00061F0A5C18091B102813009F0A0C19330BA
:101DE00009F080E08093AD022EC08091B102811194
:101DF0002AC08091B3028F702FEF280F263008F091
:101E00008EC18093E9002091EB0020FF1CC093302D
:101E100021F48091EB00806214C09091EB009061FE
:101E20009093EB0021E030E0A90102C0440F551F60
:101E30008A95E2F74093EA001092EA008091EB0065
:101E400088608093EB001092E9008091E800877F22
:101E50008093E8000E948A0C62C1811160C11091D8
:101E6000B1021F778091E3008078812B8093E3009B
:101E70008091E800877F8093E8000E948A0C80911F
:101E8000E80080FFFCCF8091E30080688093E3004E
:101E9000111102C082E001C083E080932B053FC195
:101EA0008058823008F03BC12091B1023091B202DB
:101EB0002C3D53E0350779F583E08A838AE28983F4
:101EC0004FB7F894DE01139620E03EE051E2E32F95
:101ED000F0E050935700E49120FF03C0E295EF70CB
:101EE0003F5FEF708E2F90E0EA3010F0C79601C090
:101EF000C0968D939D932F5F243149F74FBF8091FA
:101F0000E800877F8093E8006AE270E0CE010196E6
:101F10000E94DE0CB4C08091B3029091B402432FB2
:101F2000552743305105A9F068F44130510509F4B3
:101F300005C14230510509F0F2C084E790E0EAE2C1
:101F4000F2E04BC04132510529F14232510589F18D
:101F5000E6C0C901992781309105A1F058F0029798
:101F600009F0DDC0E0EBF2E0E4918E2F90E0E0EBD1
:101F7000F2E030C0ECEFF2E0E4918E2F90E0ECEF75
:101F8000F2E028C0E2EDF2E0E4918E2F90E0E2ED85
:101F9000F2E020C08430910508F0C1C0880F991F7D
:101FA000FC01E65BFE4F0190F081E02D89E090E0BE
:101FB00014C08430910508F0B2C0FC01EE0FFF1F81
:101FC000EE5BFE4F0190F081E02DDC01A25CBE4F84
:101FD0008C9190E0009709F4A2C02091E800277F3F
:101FE0002093E8002091B5023091B60228173907F6
:101FF00008F4C90140E0009789F120912B052223C4
:1020000009F43DC02530D9F12091E80023FD37C007
:102010002091E80022FD2FC02091E80020FFEBCFA7
:102020004091F3002091F20030E0342B009759F0FA
:102030002830310540F444914093F10031960197E6
:102040002F5F3F4FF3CF41E02830310509F040E0EA
:102050002091E8002E772093E800CDCF4111CDCF1D
:102060000AC080912B05882351F0853041F0809182
:10207000E80083FD04C08091E80082FFF2CF8091E8
:10208000E8008B778093E8004AC0803809F047C0A9
:102090008091E800877F8093E8008091AE02809372
:1020A000F1008091E8008E77D3CE811138C0809105
:1020B000B1029091B202992702978CF58091E800C5
:1020C000877F8093E8001091B1021093AE020E94C6
:1020D0008A0C111106C08091E30087FD02C081E0E7
:1020E00001C084E080932B0542E061EC81E00E9416
:1020F000A90C42E061EC82E00E94A90C42E261EC92
:1021000085E00E94A90C42E261EC83E00E94A90CE8
:1021100042E260EC84E00E94A90C80912B05809142
:10212000E80083FF10C08091E800877F8093E8007B
:102130008091EB0080628093EB0005C082E190E02B
:10214000EEE9F2E04ACFAA96E3E00C94DA2E1F9271
:102150000F920FB60F9211242F933F934F935F93DB
:102160006F937F938F939F93AF93BF93CF93DF939F
:10217000EF93FF93C091E900CF708091EC00D82FCE
:10218000D17080FDD0E81092E9008091F000877F47
:102190008093F00078940E94D50D1092E900809110
:1021A000F00088608093F000CD2BCF70C093E900E1
:1021B000FF91EF91DF91CF91BF91AF919F918F915F
:1021C0007F916F915F914F913F912F910F900FBE33
:1021D0000F901F901895E8EDF0E080818E7F80834E
:1021E0001092E2001092DA001092E100A0EEB0E04E
:1021F0008C9181608C9380818F77808319BCA7ED4F
:10220000B0E08C918E7F8C9380818F7E8083109242
:1022100088020895A0E0B0E0E0E1F1E10C94B92E6D
:10222000C8EDD0E088818F7E8883E7EDF0E0808183
:102230008160808384E082BF81E08093880288810E
:102240008E7F888302EE10E0F80110821092DA008F
:1022500081EEC82ED12CF601108288818F77888379
:1022600088818068888388818F7D888319BC1092DB
:102270002B051092AE021092AD021092AC0290EEBD
:10228000E92EF12CF70180818B7F8083888181602A
:10229000888342E060E080E00E94A90CF601808122
:1022A0008E7F8083F8018081816080838081886057
:1022B0008083F70180818E7F80838881806188831D
:1022C000CDB7DEB7E8E00C94D52E1F920F920FB673
:1022D0000F9211242F933F934F935F936F937F93AC
:1022E0008F939F93AF93BF93EF93FF938091E10000
:1022F00082FF09C08091E20082FF05C08091E10069
:102300008B7F8093E1008091DA0080FF2AC080916A
:10231000D80080FF26C08091DA008E7F8093DA009B
:102320008091D90080FF18C080E189BD82E189BD1C
:1023300009B400FEFDCF81E080932B0580918802D7
:1023400081110FC00E94EB100E940A118091E200DF
:1023500084608093E20005C019BC10922B05109296
:1023600088028091E10080FF17C08091E20080FF29
:1023700013C08091E2008E7F8093E2008091E200A2
:1023800080618093E2008091D80080628093D800C1
:1023900019BC85E080932B058091E10084FF30C05B
:1023A0008091E20084FF2CC080E189BD82E189BD7B
:1023B00009B400FEFDCF8091D8008F7D8093D800B6
:1023C0008091E1008F7E8093E1008091E2008F7E1A
:1023D0008093E2008091E20081608093E20080912E
:1023E000AE02882311F084E007C08091E30087FDEE
:1023F00002C081E001C083E080932B0580912B0512
:102400008091E10083FF27C08091E20083FF23C019
:102410008091E100877F8093E10082E080932B052B
:102420001092AE028091E1008E7F8093E100809156
:10243000E2008E7F8093E2008091E20080618093D1
:10244000E20042E060E080E00E94A90C8091F00090
:1024500088608093F000FF91EF91BF91AF919F91C1
:102460008F917F916F915F914F913F912F910F903D
:102470000FBE0F901F9018952091E4003091E50059
:1024800095E64091EC00842F817040FF23C080913D
:10249000E80080FD1DC080912B05882399F08530D0
:1024A00099F08091EB0085FD11C04091E4005091BE
:1024B000E5002417350729F3915011F09A01E1CF77
:1024C00084E0089582E0089583E0089581E008950E
:1024D00080E008954091E80042FFDDCF08957894B0
:1024E0001F920F920FB60F9211248F939F93AF9369
:1024F000BF9380917F0290918002A0918102B09160
:1025000082020196A11DB11D80937F0290938002EB
:10251000A0938102B0938202BF91AF919F918F915E
:102520000F900FBE0F901F9018959C014FB7F89415
:1025300080917F0290918002A0918102B0918202ED
:102540004FBF821B930B089580E008959091830202
:1025500092FF0DC0282F2871283019F4877F8460DE
:1025600006C0282F2471243011F48B7F886093FFDC
:102570000DC0282F2871283119F4877E846106C088
:10258000282F2471243111F48B7E886120918402DC
:1025900020FF0DC0382F3871383019F4877F8160E3
:1025A00006C0382F3171313011F48E7F886021FFE1
:1025B0000DC0282F2871283119F4877E816106C04B
:1025C000282F2171213111F48E7E886194FD877E40
:1025D00008957E30A0F4663090F494E5899FF00170
:1025E000112486E0789FE00DF11D1124E60FF11D06
:1025F000EE0FFF1FE050FD4F85919491089580E00C
:1026000090E00895CF93DF938238910569F1B0F49B
:102610008133910509F477C048F48932910509F4B2
:1026200069C08A32910509F473C092C0853391055F
:1026300009F45BC089339105B9F08AC0833E9105E6
:1026400091F138F4803E9105D1F0823E910531F14F
:102650007FC0863E9105D9F1873E9105E9F1843E20
:10266000910509F075C028C02091830220FD5BC050
:1026700021FD59C02091840223FD61C069C0809171
:10268000830280FD4AC08091840280FF4CC080910B
:10269000830284FD4EC183EE90E04DC180918302A0
:1026A00082FF3EC0F4CF8091830282FD39C08091C9
:1026B000840280FD38C0EBCF8091840281FF39C055
:1026C0008091830284FD35C187EE90E034C1809112
:1026D000830283FF2BC0F4CF8091830283FD26C049
:1026E0008091840281FD25C0EBCF8091830285FD1E
:1026F00026C022C08091830285FD1EC08091840285
:1027000083FF1DC00AC08091830286FD1BC01DC0CF
:102710008091830286FD19C015C089E390E00BC14A
:1027200082EE90E008C180EE90E005C186EE90E078
:1027300002C184EE90E0FFC085E390E0FCC089E236
:1027400090E0F9C08AE290E0F6C081E390E0F3C047
:10275000811531E5930708F061C0811520E59207E6
:10276000B0F09C012370332741E050E002C0440FD9
:10277000551F2A95E2F7282F2695269580E2289F57
:1027800090011124CA01822B932B9D68D4C0883EEE
:10279000910568F5803E910508F0CDC0883A910515
:1027A000B8F4853A910548F0855AE82FF0E0EE5AE2
:1027B000FE4F808190E09064BEC08130910509F4A5
:1027C000B5C008F4B6C08430910508F4B2C0B3C0F7
:1027D0008F3B910508F0ADC0885AE82FF0E0EE0F6E
:1027E000FF1FEB5AFE4F808191819464A4C0811534
:1027F00030E2930758F4811521E0920708F09BC05E
:102800008D3E910508F495C0906595C0811530E422
:10281000930708F48EC09F70906A8DC0811525E5DE
:10282000920708F042C0811534E5930728F0982FED
:102830008827846F906A7FC0811523E59207B0F0E6
:102840009C012370332741E050E002C0440F551F24
:102850002A95E2F7282F2695269580E2289F900159
:102860001124CA01822B932B9A6865C0811532E529
:10287000930728F4982F8827816F906A5CC09C0189
:102880002370332741E050E002C0440F551F2A95C2
:10289000E2F7282F2695269580E2289F90011124A3
:1028A000CA01822B932B9C6846C0EC01C11589E5B7
:1028B000D807B0F4C11528E5D20728F09C2F882747
:1028C000806F906A38C0C11536E5D30790F58C2F1C
:1028D0000E94A6128F7190E0982F882790622BC0DB
:1028E000C1158AE5D80790F48C2F8F700E94A6122C
:1028F00094E0D695C7959A95E1F7CF70D0E0DC2F9C
:10290000CC27D0699E01282BC90115C0CE01905655
:102910008115904270F48D2F8F710E94A612282F7E
:102920002F71CE0199279062922B05C081E090E033
:1029300002C080E090E0DF91CF91089568EE7EEFD5
:1029400080E090E00E949D2F60E082E090E00E9495
:102950007F2F60E083E090E00E947F2F109232038F
:102960001092310360E084E090E00E947F2F64E0E9
:1029700082E290E00E947F2F60E085E090E00E947C
:102980007F2F60E086E090E00E947F2F6FEF87E06E
:1029900090E00E947F2F40E050E0BA0188E090E094
:1029A0000E94912F60E08DE090E00E947F2F40E038
:1029B00050E0BA0188E190E00E94912F60E087E149
:1029C00090E00E947F2F40E050E0BA018CE190E05F
:1029D0000E94912F60E070E080E290E00E949D2FC5
:1029E00040E050E0BA0188E190E00E94912F1092FF
:1029F0008C0310928D0310928E0310928F0384E04B
:102A000080938C0340918C0350918D0360918E03D1
:102A100070918F038FE090E00E94912F40E050E092
:102A2000BA0183E190E00E94912F089580913003D4
:102A30008111109230030895809590918902892325
:102A4000809389020895909189028091ED04982BDA
:102A50009093B702809130038823D9F0892B80931B
:102A6000B70280910A01882331F08091830287FFA9
:102A700002C08EE101C086E0E9EBF2E090E0815017
:102A800028F021912223D9F39F5FF9CF91110E9461
:102A9000161540E250E060E173E087EB92E00E949F
:102AA000DD32892B21F180E2E7EBF2E0A0E1B3E037
:102AB00001900D928A95E1F7E091F204F091F30410
:102AC0003097A9F080910A01882359F08091830200
:102AD00087FF07C08091B7028093B80286E0809399
:102AE000B7020280F381E02D87EB92E0099508950B
:102AF00020910F038095822380930F03982F977066
:102B000099F430E0482F082E000C550B2417350798
:102B100059F09091840292FF07C08595859585951F
:102B20000E94B12A10920F030895CF93C09184029E
:102B3000C2FB992790F9981791F080FBC2F9C093D6
:102B400084026091830284E090E00E947F2F6C2FCA
:102B500082E290E00E947F2F82E00E947815CF9160
:102B6000089580910E039091DD02891719F08F5F0F
:102B70008770FBCF08950F931F93CF93DF938091BE
:102B8000DC0282958F7009F05AC08091D9028823A7
:102B900009F455C080910E031091DD026091D702B7
:102BA0007091D802C091DA02D091DB0291E06F3FC0
:102BB00009F090E0292F06E0811709F440C0209722
:102BC00021F07F3F21F030E003C031E001C0322F1F
:102BD00090E030FD31C0089FF001099FF00D1124F5
:102BE000DF01A252BD4F11963C911197371324C0BB
:102BF0003C91361321C012963C91129731111CC0A2
:102C000013964D915C9114974C1B5D0B483C5105FC
:102C100098F48091DC028F7080618093DC02ED512A
:102C2000FD4F80818F708061808387ED92E00E94EC
:102C30005F070E94B11503C001968770BDCFDF9179
:102C4000CF911F910F910895A1E1B0E0EAE2F6E182
:102C50000C94B62E8C0185E0F801DE011D960190E2
:102C60000D928A95E1F7F801E2809091D702609188
:102C7000D8024091DA025091DB024115510531F042
:102C80006F3F31F481E09F3F19F403C081E001C040
:102C900080E0F82FF1709F2E80FD1BC1F80130817C
:102CA0002181C380D48087EDA82E82E0B82EF090D9
:102CB000D902F601E41BF50BFF2009F4C7C080918F
:102CC000DC02E83CF10508F092C0482F407F09F093
:102CD00051C0621311C093130FC0FE2CE1100CC041
:102CE0008F7080618093DC02C5010E945F07809134
:102CF000DC02F80185832AC1C114D10431F02F3FD1
:102D000031F481E03F3F19F403C081E001C080E06D
:102D100080FD03C081E08E2502C080E090E0F82FA6
:102D2000F170FF2E80FF1CC080910E034091DD02E8
:102D300056E0841709F4E8C090E0589FF001599FCD
:102D4000F00D1124E252FD4F6181261306C060810F
:102D5000631303C06281E61203C001968770E9CF56
:102D6000FE2CEE2009F4F2C08091DC028160809399
:102D7000DC0249C0621306C0931304C0E11002C014
:102D8000F80186C0C8010E94DA2A882351F1EE209A
:102D900041F12091DC02822F82958F7090E00297A2
:102DA00074F08091D7029091D80298878F8319860A
:102DB000DB86CA862C87CE0107960E945F0786E0D5
:102DC000F801A7EDB2E001900D928A95E1F70E941B
:102DD000BB150AC06217C9F0C8010E94DA2A811126
:102DE0001EC0C8010E945F07FF24F394AFC0482FA4
:102DF000407F81F787ED92E00E945F0786E0F50152
:102E000011928A95E9F7F12CA1C09313E5CFE11057
:102E1000E3CFF8018583C8010E945F0754C0EE200C
:102E200001F32091DC02822F82958F7090E002974F
:102E300034F28091D7029091D8029A8389831B82C1
:102E4000DD82CC822E83CE010196B7CFE83CF1051E
:102E5000D0F5FE2CEE2029F2621327C0931325C073
:102E60002091DC0220FD18C0822F82958F70482FA0
:102E700050E04115510581F0F80125834F3051058F
:102E800041F08F5F982F9295907F822F8F70892BC2
:102E90008583C8010E945F0786E0F801A7EDB2E0D4
:102EA00001900D928A95E1F751C0C8010E94DA2A7B
:102EB000811185CF8091DC0281608093DC02C801A2
:102EC0000E945F0743C086E0F50111928A95E9F7F9
:102ED0003DC0EE2009F485CFC8010E94DA2AF82E01
:102EE000882309F47ECF86E0F801A7EDB2E00190D7
:102EF0000D928A95E1F78091D7029091D8020E94B5
:102F0000112A0E94BB1522C03D872E878D859E8584
:102F10000E94112A292F22952F70223028F49F70A9
:102F200039F0811105C00BC0243028F49F7049F49A
:102F3000805E883020F0C8010E945F079F2CF92C2A
:102F400005C0F8019581907F99F7F9CF8F2D619693
:102F5000EBE00C94D22EA0E0B0E0E1EBF7E10C94B2
:102F6000B92E8091170190911801892BA1F08091C1
:102F700033038F5F8093330381110DC00E94332888
:102F800090E09093180180931701892B21F40E94FF
:102F9000AA280E9477250EE313E07801D0E0C0E074
:102FA00087E0C82ECC0E8C2F0E941A298C2D0E94EF
:102FB0001A298C2F0E947D298F73F7019081891720
:102FC00021F08083DD24D39401C0D12C8C2D0E946C
:102FD0007D298F73F7019781891719F0878381E025
:102FE00001C080E0D82ADD290E946E29CF5FFFEF63
:102FF000EF1AFF0AC730A1F610923803C0913703C9
:10300000CC2309F4C8C00E94732420913503309169
:103010003603AC01421B530B9A0190933603809305
:1030200035034F3F510509F018F4452B19F102C043
:103030002FEF30E01092370310923403E0913C03FD
:10304000F0913D03AF01425F5F4F90E030E080813F
:10305000882341F0281718F010829C2F03C0821B90
:1030600080833C2F3196E417F50789F730933703B7
:1030700090933403DD2309F47FC0E0913C03F09189
:103080003D038091380390913703AEE4B3E0AF0184
:10309000425F5F4F68E2E80128813C91321779F086
:1030A000308131110CC060832C9398819227282F96
:1030B00030E0292B81E0232B09F480E091E0319668
:1030C00011960F5F1F4FE417F50729F78093380318
:1030D00090933703C09138032091280580913A03DB
:1030E00090913B032223D9F1892B31F425982D9817
:1030F00026982E9827982F9880913A0390913B0319
:103100009170892B79F480913903882319F02698DE
:103110002E9802C0269A2E9A9091390381E0892731
:103120008093390380913A0390913B038130984713
:1031300060F01092280580918A0390918B030E9481
:10314000892710923B0310923A0380913A039091A1
:103150003B03019690933B0380933A0320C0892B55
:10316000F1F010923B0310923A0380918A03909100
:103170008B030E94892713C081E090913403992327
:1031800009F4A8CF811179CF0E947324909336035C
:103190008093350372CFD111F7CF80E0EECF8C2F23
:1031A000CDB7DEB7E8E00C94D52EACE5B0E0EBEDA2
:1031B000F8E10C94B12E85B7806885BF85B780682B
:1031C00085BF84B7877F84BF0FB6F894A895809198
:1031D0006000886180936000109260000FBE90E0F4
:1031E00080E80FB6F89480936100909361000FBE61
:1031F00084EA92E190937D0280937C020E94EB101E
:103200000E940A118091E20084608093E200789429
:1032100080912B058823A1F01091E9001F709091F7
:10322000EC00892F817090FD80E8182B1092E90046
:103230008091E80083FD0E94D50D1F701093E90076
:1032400082E084BD93E095BD9AEF97BD80936E00B8
:103250000E94332890E090931801809317010E94F8
:103260006E290E94B429EEE3F3E0AEE4B3E01192DC
:103270001D9223E0EC34F207D1F78EE090E00E943B
:10328000BC3180933C0390933D03FC010E96119258
:10329000E817F907E1F789EA8093800089E08093D5
:1032A000810024982C983F988AB18F7C8AB96E98B7
:1032B000479A8BB180638BB9769A8FE090E00E9439
:1032C000632F60938C0370938D0380938E03909390
:1032D0008F0367703FEF639FB00111247595679569
:1032E0007595679577277093890060938800709330
:1032F0008B0060938A0070938D0060938C000E9415
:10330000AA2880E090E00E94692F883E9E4F11F02D
:103310000E949E1482E090E00E945B2F80935C03E9
:1033200084E090E00E945B2F182F82E290E00E94E0
:103330005B2F212F30E0382B3093840220938302BF
:1033400083E090E00E945B2F90E00E94D32A80915E
:103350008A0390918B030E9489270E9477250E94FF
:103360006A250E946A2580912C05816080932C0536
:103370008BE091E09093F3048093F20468E1462E91
:10338000512C7CE5672E73E0772E80912B058530DC
:1033900009F070C000E4FF24F39453E0E52E10E13F
:1033A00080912B05853009F05DC080912B0584301C
:1033B00009F436C00E9495258091900381110DC0BB
:1033C0000E94291F1092360180912D0583708093F1
:1033D00035010E94BC22E0923A01F09290031092D3
:1033E000F6040FB6F894A895409260000FBE0093C3
:1033F000600083B7817F846083BF83B7816083BFB0
:103400007894889583B78E7F83BF0FB6F894A8957C
:1034100080916000886180936000109260000FBE10
:103420008091AD02882309F4BBCF0E94332890E03D
:1034300090931801809317010E946E290E94B4296D
:10344000EEE4F3E0119283E0EC35F807D9F70E943F
:10345000AB17EEE4F3E0819181119CC26E167F06FA
:10346000D1F79ECF109289020E94112B0E94FC245A
:10347000109290030E94AB174DE5E42E43E0F42E2A
:10348000AEE4B3E0F70191918D91892793E0EB369B
:10349000F90719F08823B9F332C0811130C00E94B6
:1034A00073248C0180914C0390914D0308171907E8
:1034B00009F46AC08FEF64968FAF649765968FAFFB
:1034C000659766961FAE66970E9473248160782F79
:1034D00068969FAF8EAF689764964FAD6497659678
:1034E0005FAD659766966FAD669768968FAD689786
:1034F0000E94AC2610934D0300934C0345C03EE45C
:10350000C32E33E0D32E10E0F60191906F01F70146
:10351000A080A92481F100E0BB24B3948A2D8B21E3
:1035200021F169960FAF69976A961FAF6A9791E08C
:10353000892D8B2109F490E06B969FAF6B970E94C9
:1035400073248160782F6D969FAF8EAF6D976996CB
:103550004FAD69976A965FAD6A976B966FAD6B9743
:103560006D968FAD6D970E94AC260F5FBB0C063039
:10357000A9F6F70190821F5FFFEFEF1AFF0A1E30D6
:1035800009F0C2CF0E9467248091EE049091EF046D
:10359000892BC9F080916B0390916C030E94951266
:1035A000893C910580F08091EE042EE0829FC0015D
:1035B0001124FC01E25EFE4F208122FD04C0875EE3
:1035C0009E4F0E9427250E94952585E0E1E8F3E0C3
:1035D000DE01119601900D928A95E1F71092820317
:1035E0001092830310928403109285031A811111A3
:1035F00004C08B81882309F452C080917F0390918D
:1036000080030E9495129C0190917B03992309F4F9
:10361000DAC12531310508F442C09F3F19F09F5FA0
:1036200090937B03112361F00E947F21111614F403
:1036300091E001C09FEF899F802D11248093820328
:103640001B81112361F00E947F21111614F491E077
:1036500001C09FEF899F802D1124809383033091B7
:1036600082033323E1F0209183032223C1F045EB51
:103670003403C0011124992319F09093820303C0ED
:1036800081E08093820335EB2303C0011124992349
:1036900019F09093830303C081E0809383031C811E
:1036A000111104C08D81882309F452C080917D03DB
:1036B00090917E030E9495129C0190917A03992328
:1036C00009F485C12531310508F442C09F3F19F046
:1036D0009F5F90937A03112361F00E945F2111167E
:1036E00014F491E001C09FEF899F802D11248093F5
:1036F00084031D81112361F00E945F21111614F4CF
:1037000091E001C09FEF899F802D11248093850354
:10371000309184033323E1F0209185032223C1F00B
:1037200045EB3403C0011124992319F090938403CD
:1037300003C081E08093840335EB2303C00111248F
:10374000992319F09093850303C081E0809385034A
:1037500045E050E0BE016F5F7F4F81E893E00E943B
:10376000DD32892BA9F48091820381110FC08091F1
:10377000830381110BC080918403811107C081E014
:1037800090918503911103C080E001C081E080FD2C
:103790000E94FD2185E0FE013196A1E8B3E0019091
:1037A0000D928A95E1F70E94FC2490916D03891790
:1037B00021F080936D030E94672480912B05843053
:1037C00009F0E3CD8093E9008091E80082FFDDCD30
:1037D0008091E80085FF22C00E943C1281111CC02C
:1037E00000E210E07E0141E2E40EF11C08C080918D
:1037F000F100F70181937F010150110969F0809177
:10380000E80085FDF4CF8091E8008B778093E80095
:103810000E943C12882399F391E001C090E08091CE
:10382000E8008B778093E800992309F4AECDE9A1F5
:103830008E2F90E08930910508F0A8C0FC01E45972
:10384000FF4F0C94B6318BA19AA190936E03809395
:103850006F038DA19CA190937003809371038FA13E
:103860009EA1909372038093730342E150E063E260
:1038700070E0CE018F5B9F4F0E944B2F84E08983C5
:1038800081E0809329058EEF8A83109228050CC071
:1038900019828CE0E3E8F1E0DE01129601900D92CE
:1038A0008A95E1F78EEF8D87CE0101960E94532C09
:1038B0006CCD04E713E08AE7E82E83E0F82E96E06B
:1038C000A92EB12C2EE0C22ED12C0E94322F4C01F9
:1038D0000E94322F9C01C401B5010E94A231F8015F
:1038E0008083C901B6010E94A23181830E5F1F4F00
:1038F000E016F10651F781E08983909174039A8371
:10390000909175039B83909176039C8390917703AC
:103910009D83909178039E83909179039F839EEF7E
:10392000988780932805CE0101960E94532C42E18E
:1039300050E063E270E0CE0101960E944B2FFE0141
:10394000319682E183301CF09189928B01C0128AFA
:10395000815031978F3FB1F742E150E063E270E070
:10396000CE0101960E946F2F10CD809129058823EA
:1039700009F40BCD80E090E00E94852A8AA10E9484
:10398000C32A03CD85E003C084E001C08FEF0E940D
:103990005225FBCC19BD82E189BD09B400FEFDCFE3
:1039A0008091D8008F7D8093D8008091E000826064
:1039B0008093E0008091E00081FDFCCF10928902AD
:1039C0000E94112BEDCC232B09F029CE68CE213992
:1039D000314008F07DCEBCCE0F931F9310E0F8016C
:1039E000EE0FFF1FE551FE4F9081905797FD919587
:1039F000000F111FF801E451FE4FE081F0E0B09795
:103A0000DF01AA0FBB1F8D010E0F1F1F2003D00166
:103A1000219FB00D1124E8E3F0E0E91BF10997FDC7
:103A2000F3959F01220F331F89010E0F1F1F4003C3
:103A30009001419F300D11242A0F3B1F37FF02C018
:103A400021583F4F220F232F221F330B620F1F914C
:103A50000F9108950F931F93522F10E0F801EE0F6E
:103A6000FF1FE451FE4FE081F0E0B0979F01520349
:103A7000D001539FB00D1124000F111FF801E55123
:103A8000FE4F008110E00057110940039001419F53
:103A9000300D11242A0F3B1F37FF02C021583F4F22
:103AA000220F232F221F330B620F1F910F910895B6
:103AB000EF920F931F9393E0099F800111241595B6
:103AC00007956E2D600F1F910F91EF900895A22F13
:103AD00050E0FA01EE0FFF1FE451FE4F908190522B
:103AE00097FD9195440F551FFA01E551FE4F308126
:103AF000232F30E02A1B3109290F311D97FD3A95FC
:103B0000620F0895E42FF0E0EE0FFF1FE451FE4F27
:103B10006081621B0895E42FF0E0EE0FFF1FE55176
:103B2000FE4F6081621B0895EF920F93CF93DF9356
:103B3000D72FC82F0E192115310521F457FF2BC09F
:103B400080E82AC0F90137FF04C0EE27FF27E21BF7
:103B5000F30BBA016E0F7F1F57FD0CC04E1B5F0B9E
:103B6000CA01E5E0880F991FEA95E1F70E94A231AA
:103B700080E20CC0CB0165E0880F991F6A95E1F7E0
:103B8000BF01641B750B0E94A23180E6861B37FFC4
:103B900003C0819501C080E0602F681B7D2F8C2FB2
:103BA000DF91CF910F91EF9008950E947E220895AA
:103BB0000E9440220895EDE2F5E081E1808380914A
:103BC0003B0190913C01A0913D0181839283A383AD
:103BD0008CE384838FEF858346E050E06CE170E0F6
:103BE000CF010E946F2F10922C050895482F982F17
:103BF00046FD9095E92FEF739F7046FD9F5FE2951C
:103C0000EF70EE0FF0E0E157FE4F2181299F802DEC
:103C1000212D112482958F702295207F822B308157
:103C2000982F930F892F47FD8195805808950F9302
:103C30001F93CF93DF93D62F072F182FC42F822FD8
:103C40000E94F61DEC2FF0E0EE0FFF1FE551FE4F36
:103C500090819058890F87FD8195880F682F2CE0FF
:103C6000629F612D11246D0F702F812FDF91CF91F5
:103C70001F910F910895BC018230910508F40895B9
:103C8000613E8EE1780748F49B0195E036952795D3
:103C90009A95E1F748E0420F01C04FEF91E0242FE1
:103CA00030E0290F311D35952795229FF001239F84
:103CB000F00DF00D11246E177F0718F44FEF420F2F
:103CC00004C02F3F39F091E0920F491740F78FEF72
:103CD000890F08958FEF08950F93CF93DF93D72F18
:103CE000C82F47FD4195E8E3F0E0CF01841B91091F
:103CF00047FD9395889FB001899F700D700D112429
:103D0000229FC001239F900D900D1124860F971FB5
:103D10000E943B1E682F660F860F682F600F7D2F55
:103D20008C2FDF91CF910F91089520E030E0869F96
:103D3000212D969F200D311D1124C9010895A0E069
:103D4000B0E0E5EAFEE10C94B92EF62E472FE82FFD
:103D5000F0E0711106C0E05CF74F8491782F682F76
:103D600073C0272F30E0E05CF74FE491FE2F0E2F59
:103D700010E056E0659FC0011124CFEFD0E0BE01F6
:103D80000E949B2E5BEA5603C001579F900D1124A1
:103D90008F0D911D8F0D911D982F990F980F7E01FA
:103DA000E21AF30AE09ED001E19EB00DF09EB00D44
:103DB00011248B2F499FA0011124452F55277E01E7
:103DC000E41AF50AE09EA001E19E500DF09E500D10
:103DD00011246E01C91AD108C29E7001C39EF00C55
:103DE000D29EF00C11242F2D3327C21BD30BC09F62
:103DF0009001C19F300DD09F300D1124932F623060
:103E0000710591F048F461157105E1F061307105BB
:103E1000B9F49E2FE52F16C06430710569F040F0AB
:103E20006630710579F00CC09E2FEB2F832F0AC0EE
:103E3000EB2F8F2F952F06C09B2F8E2FE32F02C0C5
:103E40009B2F852F7E2F692FCDB7DEB7E8E00C942E
:103E5000D52EA0E0B0E0EFE2FFE10C94B82EC82F21
:103E6000809136018C130DC020912D05237030E018
:103E70004091350150E081E02417350719F480E0C6
:103E800001C081E081708093390180913205909169
:103E90003801981739F08093380140E060E080E005
:103EA0000E94D51DC63019F487E69DE10CC0C730CD
:103EB00008F0EFC0C23051F008F45FC0C43009F020
:103EC00096C08BE89DE10E947F2C2CC08091370129
:103ED000D82FDD0FDD0FD80FA5E0EA2EED0E80E321
:103EE0008E1510F4F0E3EF2E00912F0510913005A0
:103EF000F0902E056F2D702F812F0E949F1ED62EC1
:103F0000C72EB82E609131056F0D702F812F0E9442
:103F10009F1E162F072FF82EDE15C0F081E09FE2BE
:103F20009E15B0F1909137019F5F909337018111F9
:103F30004AC182E080933A0180913901811143C1E5
:103F4000C11141C183E080933A013DC18D2F90E0C2
:103F5000FC01E55BFD4F308120913801232359F0AE
:103F600030FF04C02F2D412F602F03C02B2D4D2D6E
:103F70006C2D0E94D81DDF5FCFCFC1110BC0809187
:103F80003901882329F040E060E080E00E94D51DDF
:103F900080E0C8CFC13009F04CC080913701D82FE4
:103FA000DD0FDD0FD80F15E01D0F113308F010E302
:103FB00060912E0570912F05809130050E949F1E03
:103FC000062FF72EE82ED11760F5ED2FF0E0DF0178
:103FD000A55BBD4F8C9190913801982331F02E2D27
:103FE000402F6F2DCF010E94D81DDF5FECCFC53071
:103FF00008F04CC080913701D82FDD0FDD0FD80FAE
:1040000015E01D0F113308F010E3D0902F05C0907C
:1040100030052091310500E4029F012D1124D117B4
:1040200070F081E0103308F47DCFB2CFCF3F09F4B8
:1040300099C0809137018F5F809337017ACFED2E41
:10404000F12CF701E55BFD4F9081809138018923C8
:10405000D9F0F701EE0FFF1FE551FE4F6081069F7B
:10406000B0011124E5E075956795EA95E1F7809137
:104070002E05680F7D2D8C2D0E949F1E462F282F08
:10408000672FC7010E94D81DDF5FC9CF82E89DE17D
:104090001ACFCA3051F48AE29DE104C0CC3030F628
:1040A0008CEE9CE10E94C92C3DCFCB3008F054C06F
:1040B000C83009F047C080913701D82FDD0FDD0FE0
:1040C000D80F15E01D0F113308F010E36091310592
:1040D000669580912405909125050E94951ED82E05
:1040E000D11708F09ECFED2EF12CF701E55BFD4FC7
:1040F000908180913801892319F1F701EE0FFF1F9C
:10410000E451FE4F208130E020523109F701EE0FDB
:10411000FF1FE551FE4F408150E04057510960912B
:104120002E0570912F05809130050D2D0E946C1E7B
:104130000E949F1E462F282F672FC7010E94D81D5F
:10414000DF5FCECFC93018F488E59DE102C084E975
:104150009DE10E941E2DE6CECC3009F09FCF87E175
:104160009EE1B1CE8091240590912505A091260570
:10417000B091270588279C70AA27BB272AE0B6950F
:10418000A795979587952A95D1F782309105A10536
:10419000B10571F083309105A105B10569F040E0EA
:1041A0000197A105B10511F060E008C064E102C00B
:1041B00044E160E080E003C044E164E184E10E9406
:1041C000D51D82E0C0CECDB7DEB7E9E00C94D42E89
:1041D0008D3E39F49091830397FF35C0109283038D
:1041E00059C08E3E29F4909183031916BCF32BC05D
:1041F000909182038F3E29F497FF25C0109282038D
:1042000049C0803F19F41916CCF31DC09091840366
:10421000893F29F41916BCF4109284033BC08A3FED
:1042200019F497FF10C0F8CF8B3F39F490918503B4
:1042300097FF09C0109285032DC08C3F21F4909107
:1042400085031916BCF39FE0980F983080F421E0A5
:1042500030E0A90102C0440F551F9A95E2F7CA0148
:1042600080959091810389238093810313C08D3FB2
:1042700021F480917C038E7F0BC08E3F21F48091CE
:104280007C038D7F05C08F3F29F480917C038B7F59
:1042900080937C0380918203811106C08091830307
:1042A000811102C010927B0380918403811106C0AA
:1042B00080918503811102C010927A030895809144
:1042C0007C0380FD18C081FD14C082FD16C0809162
:1042D0007A03882381F08C3380F427E0829FC00129
:1042E00011246CE370E00E94A231862F672B19F035
:1042F00005C083E0089581E0089587E008958091E6
:104300007C0380FD17C081FD17C082FD19C080911C
:104310007B03882399F08C3398F428E3829FC001B3
:1043200011246CE370E00E94A231862F672B49F4C0
:1043300081E008958EE008958CE1089588E0089565
:1043400088E308958D3E21F40E947F21819504C069
:104350008E3E29F40E947F218093830308958F3E2F
:1043600021F40E947F21819504C0803F29F40E949E
:104370007F21809382030895893F19F40E945F2171
:1043800005C08A3F31F40E945F21819580938403A8
:1043900008958B3F21F40E945F21819504C08C3FDA
:1043A00029F40E945F218093850308959FE0980F70
:1043B000983078F421E030E0A90102C0440F551F85
:1043C0009A95E2F7CA0190918103892B809381032A
:1043D00008958D3F21F480917C0381600BC08E3F56
:1043E00021F480917C03826005C08F3F29F4809185
:1043F0007C03846080937C0308950E947324209141
:104400008203211104C020918303222321F0909381
:10441000800380937F0320918403211104C02091A5
:104420008503222321F090937E0380937D03E09106
:10443000F204F091F304309731F00480F581E02D1F
:1044400081E893E009950895EDE2F5E0248130E1FB
:10445000231B08F420E0248380912C058160809345
:104460002C050895EDE2F5E0248130E1230F08F4F6
:104470002FEF248380912C05816080932C05089573
:10448000A4E0B0E0E6E4F2E20C94BC2E80339105A7
:1044900088F5122F042FF62EBC01660F771F660FCA
:1044A000771F605C764F44E050E0CE0101960E9499
:1044B000422F898183704A81282F30E050E9859FFF
:1044C000C001112489559C4FFC01E40FF11DB497E4
:1044D000F0824B81FC01E40FF11DB49700834C8105
:1044E000840F911DFC01B4971083F901EB55FC4F2B
:1044F00081E080832496E5E00C94D82EFF920F9300
:104500001F93CF93DF93182F062FF42EC0E0D0E037
:104510002F2D402F612FCE010E9440222196C033C3
:10452000D105B1F7CDB7DEB7E5E00C94D82E0F93E7
:104530001F93CF93DF93082F000FEB0114E210932A
:104540009103E2E9F3E0DE018D91819383E0E23AA9
:10455000F807D1F723E030E041E150E061E973E092
:10456000802F0E94762E105F6096143B41F7DF91FA
:10457000CF911F910F9108958091A503882329F071
:1045800067EA73E084E70E9497221092A503809166
:10459000A603882329F067E374E087E70E94972247
:1045A0001092A6030895E1E9F3E06083418323E0DC
:1045B00030E042E050E0BF01880F0E94762E08955F
:1045C000A0E0B0E0E6EEF2E20C94BA2E262F30E046
:1045D000A90145515B4F7A01FA019081911107C001
:1045E000F7011082CDB7DEB7E7E00C94D62ED82EB7
:1045F000F2E16F9FE001112400E010E0F801EC0F00
:10460000FD1FE953FB4F4081602F8D2D0E94D32267
:104610000F5F1F4F0231110589F7E2CFCF93DF9370
:10462000C82F4BE06DEF0E94D32240E06AE08C2F50
:104630000E94D3228FE39CE90197F1F700C00000AC
:1046400040E060E08C2F0E94D32240E061E08C2F9C
:104650000E94D32240E066E08C2F0E94D32240E0EB
:104660006DEF8C2F0E94D322D0E040E06D2F8C2F75
:104670000E94D322DF5FD231C1F740E06D2F8C2F33
:104680000E94D322DF5FD432C1F740E06D2F8C2F20
:104690000E94D322DF5FD43BC1F74BE06DEF8C2F3C
:1046A0000E94D32241E06AE08C2F0E94D32240E096
:1046B0006DEF8C2F0E94D322DF91CF910895A4E05B
:1046C000B0E0E5E6F3E20C94B32E0E94AA2D84E755
:1046D0000E940E2387E70E940E2300E419E072E196
:1046E000772EE8E0CE2ED12CEE24E394F12C662434
:1046F000639444E050E0B801CE0101960E94422F3D
:104700002A8130E0C9018497AB80B12C44E2A41A1D
:10471000B108EC81F0E0B497AC0197FF02C0495FAB
:104720005F4F63E0559547956A95E1F729812370BE
:1047300030E0729EB001739E700D112469537B4F5F
:104740004B01840E911CB6010E94A231D70102C018
:10475000AA0FBB1F8A95E2F7CD01D4019C91892B4A
:104760008C93C501B7FC079653E0959587955A95AC
:10477000E1F7729EA001739E500D112449535B4FC7
:104780004A01880E911CC501B6010E94A231A70101
:1047900002C0440F551F8A95E2F7CA01D4019C91CB
:1047A000892B8C93CF01F7FD079643E0959587956C
:1047B0004A95E1F7729EA001739E500D1124495352
:1047C0005B4F5A01A80EB11CCF01B6010E94A23165
:1047D000F70102C0EE0FFF1F8A95E2F7CF01D50166
:1047E0009C91892B8C93F901E551FB4F60820C5F02
:1047F0001F4FBAE000301B0709F07BCF60E084E771
:104800000E94E02261E087E70E94E0222496EEE029
:104810000C94CF2EEDE2F5E0438120E1421B08F439
:1048200040E08181628190E00E949A2D0895EDE23E
:10483000F5E0438120E1420F08F44FEF818162816E
:1048400090E00E949A2D0895EDE2F5E0628120E16A
:10485000621B08F460E08181438190E00E949A2D00
:104860000895EDE2F5E0628120E1620F08F46FEF58
:104870008181438190E00E949A2D0895EDE2F5E058
:10488000818190E04381628108970E949A2D08956A
:10489000EDE2F5E0818190E04381628108960E941B
:1048A0009A2D089580912D0586958695815009F45D
:1048B0008CE00E94102C089580912D058695869598
:1048C0008F5F8D3008F081E00E94102C08952FB783
:1048D000F89460917F0270918002809181029091A2
:1048E00082022FBF08952FB7F89480917F02909194
:1048F0008002A0918102B09182022FBF08951F9281
:104900000F920FB60F9211248F939F93AF93BF9383
:104910008091F604811113C080917F0290918002F2
:10492000A0918102B09182024196A11DB11D809398
:104930007F0290938002A0938102B0938202BF9184
:10494000AF919F918F910F900FBE0F901F90189570
:1049500020910A012223C9F02091830227FF15C06C
:10496000262F2695269526952E31C8F4FC01E20FB8
:10497000F11D677081E090E001C0880F6A95EAF749
:1049800080959281892382830895FC010696228175
:10499000621301C012823196E817F907C1F7089532
:1049A0002091F4043091F5042817390771F09093A1
:1049B000F5048093F404E091F204F091F30430974D
:1049C00021F00084F185E02D099508952091F004EF
:1049D0003091F1042817390771F09093F104809316
:1049E000F004E091F204F091F304309721F0068096
:1049F000F781E02D09950895E091F204F091F30418
:104A0000309729F00190F081E02D0995089580E01C
:104A10000895CF93DF93EC01EA85FB85309719F079
:104A20006C857D8509958B8180959091ED04892316
:104A30008093ED048C810E941C150E94231586E052
:104A4000FE0111928A95E9F7DF91CF910895CF93F6
:104A5000DF93EC018D8181FD18C082608D83909180
:104A6000ED048B81892B8093ED04909189028C81D8
:104A7000892B809389020E942315E885F985309758
:104A800021F06C857D85CE0109951092EF0410927E
:104A9000EE048D8180FD03C0CE010E940925DF91C7
:104AA000CF910895A0E2B0E0E8E5F5E20C94BF2EC6
:104AB0009FEF99838A83CE0101960E94532CA09682
:104AC000E2E00C94DB2E882311F0FA0101C0FB0117
:104AD0000995089580912D05837011F410923A0183
:104AE00080912D058C7F816080932D0508950E9413
:104AF0005F2380E090E00E94692F883E9E4F21F066
:104B00000E949E140E94DB1D46E050E06CE170E0C4
:104B10008DE295E00E944B2F10922C0580912D057F
:104B20008C7F11F40E94DB1D0895CF930E946724AF
:104B3000609386037093870380938803909389031F
:104B400020919003211108C0C0912D052C2F2370B6
:104B500019F0C695C69501C0C0E020913A012130F8
:104B6000A1F038F0223009F483C0233009F48DC05D
:104B7000B7C0109237016093240570932505809388
:104B800026059093270581E07DC08C2F0E94291F68
:104B9000CC2309F4A5C080918C0383FDA1C0409172
:104BA0008A0350918B0360E070E0BB27A72F962FFC
:104BB000852F0097A105B10521F4DB01CA01E0E0D2
:104BC00001C0E8E0AC01BD01F4E07695679557952A
:104BD0004795FA95D1F7411551056105710519F011
:104BE000EC5FDB01CA01AC01BD0132E0769567954F
:104BF000579547953A95D1F74115510561057105CE
:104C000019F0EE5FDB01CA01B695A79597958795D8
:104C1000892B8A2B8B2B09F0EF5F8E2F90E0FC0104
:104C20003197E730F105D8F4EB58FF4F0C94B631CB
:104C300081E090E002C082E090E00E94B52750C081
:104C400083E090E0FACF84E090E0F7CF85E090E059
:104C5000F4CF86E090E0F1CF87E090E0EECF809156
:104C6000320581113DC040E060E00E94D51D38C092
:104C7000C093360180912D058370809335010E9489
:104C8000BC2283E080933A012BC080912C058823BD
:104C900051F046E050E06CE170E08DE295E00E945A
:104CA0006F2F10922C05409124055091250560919D
:104CB0002605709127052FB7F89480917F02909177
:104CC0008002A0918102B09182022FBF841B950BBC
:104CD000A60BB70B4A97A105B10510F010923A0147
:104CE000CF910895FC018281813039F4958192FD44
:104CF00012C090FF10C082E00895823039F485819F
:104D000082FD06C080FD06C083E0089586E0089518
:104D100085E0089584E008958FE39CE90197F1F719
:104D200000C0000008958FE39CE90197F1F700C0EF
:104D3000000008950E947226833021F481E090E003
:104D40000E94852A08950E947226833021F482E011
:104D500090E00E94852A0895A7E1B0E0E2EBF6E238
:104D60000C94BE2E4B8B5C8B6D8B7E8B8F8B61116D
:104D70001092ED0486E09E01235F3F4FD901E82F9A
:104D80001D92EA95E9F795E0FE017396D90101902D
:104D90000D929A95E1F79C894E895F897B897D8781
:104DA0009E876F87598B488BF901DE01179601901A
:104DB0000D928A95E1F7CE0107960E942416811183
:104DC0003EC086E0FE013796DE01119601900D92FD
:104DD0008A95E1F7FF81E8856A857B856115710514
:104DE00031F0EF3F31F481E0FF3F19F403C081E07F
:104DF00001C080E080FD23C02091DD0230E0C901C8
:104E000001968770992740910E0350E0841795070B
:104E100079F1F983EA837D836C8396E0929FD001D8
:104E2000939FB00D1124A252BD4FFE013196019007
:104E30000D929A95E1F78093DD020E94B11516E07C
:104E400080910E039091DD02891709F1189FC0012E
:104E5000112482529D4F0E9424168823C1F0809114
:104E60000E0390E001968770992780930E03E8CF98
:104E7000109289020E94112B1092DD0210920E03F3
:104E8000E7EDF2E086E0DF011D928A95E9F767968B
:104E9000E3E00C94DA2E292F33272115310519F080
:104EA000C90148E001C040E09C0164E036952795C7
:104EB0006A95E1F72115310511F04C5FC9019C019C
:104EC00036952795369527952115310511F04E5FBA
:104ED000C9019C0136952795232B09F04F5F842F3C
:104EE0000895109289020E94112B2FEF84E39CE019
:104EF000215080409040E1F700C000009AE088E136
:104F00000FB6F894A895809360000FBE9093600050
:104F1000FFCFCF93DF93EC010E944B2756985E980A
:104F200025982D9826982E9827982F9890E0FC0188
:104F30003197E730F105A8F4E458FF4F0C94B631EF
:104F4000259A2D9A0EC0259A2D9A269A2E9A09C036
:104F5000259A2D9A04C0259A2D9A269A2E9A279A38
:104F60002F9ACE01DF91CF910895A0E0B0E0EBEB56
:104F7000F7E20C94B02E20E9289F7001299FF00CD5
:104F80001124C0E0D0E000E010E067018FEFC81A04
:104F9000D80A570182E0A80EB11CF701EC0FFD1FE3
:104FA000E050F64F6491F601EC0FFD1FE050F64F14
:104FB0007491F501EC0FFD1FE050F64F84916111E3
:104FC00007C0711105C0811103C020E040E03CC062
:104FD0000E949F1E962E372E882E6091300570E01D
:104FE00080E090E00E94A73020E030E04FE753E4FB
:104FF0000E9406302B013C01682D70E080E090E0BB
:105000000E94A930A30192010E9435310E9478309C
:10501000862E692D70E080E090E00E94A930A30107
:1050200092010E9435310E947830962E632D70E0F7
:1050300080E090E00E94A930A30192010E943531E6
:105040000E947830282D492DC8010E94D81D0F5F7D
:105050001F4F2396C039D10509F09FCFCDB7DEB7DA
:10506000E1E10C94CC2E80E290E0909318018093C3
:1050700017018091F70481110EC00E94AA2D81E0D2
:105080008093F7042FEF83ED90E321508040904010
:10509000E1F700C0000060E570E080E40E94B02D00
:1050A0009093180180931701892B09F04EC060E599
:1050B00070E080E00E94232E9093180180931701E6
:1050C000892B09F042C060E570E080E00E94232E49
:1050D0009093180180931701892BB9F560E570E072
:1050E0008FE30E94232E9093180180931701892B40
:1050F00061F50E94972E60E570E080E40E94B02D7B
:105100009093180180931701892BF9F460E570E002
:105110008CE00E94232E9093180180931701892B15
:10512000A1F460E570E080E00E94232E90931801C6
:1051300080931701892B49F460E570E08FE30E94AA
:10514000232E90931801809317010E94972E80912F
:1051500017010895CF93DF9356985E9825982D9860
:1051600026982E9827982F98C8E8D0E08FEF90E0E7
:1051700099838883AAE8B0E011969C938E93ECE81B
:10518000F0E091838083259A2D9A2FEF80E792E0BB
:10519000215080409040E1F700C00000269A2E9AEE
:1051A0002FEF80E792E0215080409040E1F700C06F
:1051B0000000279A2F9A2FEF80E792E0215080403D
:1051C0009040E1F700C0000025982D982FEF80E770
:1051D00092E0215080409040E1F700C00000269806
:1051E0002E982FEF80E792E0215080409040E1F729
:1051F00000C0000027982F9880918C0387702FEFB4
:10520000829FC0011124959587959595879599273B
:105210009983888311969C938E939183808356986B
:105220005E9825982D9826982E9827982F98DF918C
:10523000CF910895CF93E82F873080F580911701A3
:1052400090911801892B09F047C0CE2F60E570E0DE
:1052500080E40E94B02D9093180180931701892B50
:10526000D1F460E570E082E10E94232E9093180152
:1052700080931701892B79F481E090E001C0880FB9
:10528000CA95EAF760E570E080950E94232E90931E
:105290001801809317010E94972E1EC090E0FC0118
:1052A0003797E730F105C0F4ED57FF4F0C94B63156
:1052B000209A289811C0219A29980EC0229A2A98DB
:1052C0000BC0239A2B9808C0529A5A9805C0539A3B
:1052D0005B9802C03E9A4698CF91089520982898EE
:1052E0002198299822982A9823982B9852985A986E
:1052F00053985B983E9846980895CF93873040F531
:105300008091170190911801892B59F560E570E0A3
:1053100081E40E94B02D9093180180931701892B8E
:1053200011F0C0E011C080E590E00E94522E97FF7E
:1053300005C09093180180931701F3CFC82FC09533
:1053400010921801109217010E94972E8C2F0AC0FC
:105350009FB18FB1807F869586959370892B8095BC
:1053600001C080E0CF9108958098889A8198899AA9
:1053700084988C9A85988D9A86988E9A87988F9A19
:10538000089580E090E00E94E62480E090E00E9492
:10539000D0241092ED040E942315E1E8F3E085E0AB
:1053A000DF011D928A95E9F710927B0310927A0330
:1053B00010927C030E94FD210895A0E0B0E0E3EE8E
:1053C000F9E20C94B82E7C0100918A0310918B03B2
:1053D0008091310390913203082B192BCFE0D0E05C
:1053E000CC24C394D12CC6010C2E02C0880F991F67
:1053F0000A94E2F780239123892B21F4219798F7CF
:10540000B12C09C0BC2EB7018C2F0E94E9120E945A
:105410000213019799F38B2DCDB7DEB7E9E00C9419
:10542000D42ECF93DF93EC010E94DD29BE010E94B0
:10543000E9120E940213DF91CF9108959E3078F512
:10544000863068F5E82FF0E086E0989FE00DF11DCA
:1054500011249E2F977083E0F695E7958A95E1F7E2
:10546000EE0FFF1FEE0FFF1FE850FB4F40E050E034
:1054700080E0219130E0092E02C0369527950A94EC
:10548000E2F721703327042E01C0220F0A94EAF7B5
:10549000822B4F5F5F4F4430510559F7089580E0EC
:1054A00008959E3088F5863078F5E82FF0E086E0A4
:1054B000989FE00DF11D11248E2F877051E001C0DF
:1054C000550F8A95EAF783E0F695E7958A95E1F717
:1054D000EE0FFF1FEE0FFF1FE850FB4F20E030E004
:1054E00070E04081CB01022E02C0969587950A9408
:1054F000E2F78170819584278523842781932F5F2C
:105500003F4F2430310569F70895A0E2B0E0EBE8A1
:10551000FAE20C94BD2E0E9489278C018091290506
:105520008823A9F02FEF80E792E02150804090403F
:10553000E1F700C0000085E08983C8010E944B2785
:105540008A838EEF8B83CE0101960E94532C109399
:105550008B0300938A030E94C129A096E4E00C9477
:10556000D92E21E030E002C0220F331F8A95E2F7E6
:105570002095309580918A0390918B038223932309
:105580000E94852A089521E030E002C0220F331FD7
:105590008A95E2F780918A0390918B03822B932B5B
:1055A0000E94852A089590933203809331030E94CC
:1055B000C1290895CF93FC01808191812381348199
:1055C000232B31F09F3F31F491E08F3F19F403C05A
:1055D00091E001C090E0C92FC17090FD1CC0808196
:1055E00091810E94112A92959F70963079F010F463
:1055F000925001C09A50923088F4803F71F018F4B4
:10560000883E60F40AC0843F49F407C0883E28F011
:10561000813F21F402C0C0E001C0C1E08C2FCF91D6
:10562000089580910A01882331F08091830287FFD9
:1056300002C08EE101C086E0E9EBF2E0DF011D92DD
:105640008A95E9F70E94C1290895882321F00E94D4
:105650001C150E9423150895882339F09091890222
:10566000892B809389020E9423150895882391F144
:105670009CEF980F913A30F4682F87EB92E00E94EC
:10568000A8240DC090E2980F983060F4877091E0E4
:1056900001C0990F8A95EAF7892F0E941C150E9474
:1056A000231508959BE5980F933028F480E090E04F
:1056B0000E94E624089598E5980F973128F480E039
:1056C00090E00E94D02408958D3E20F00E94E820B2
:1056D0000E94FD210895CF93882309F49FC0C82F0D
:1056E0008CEF8C0F813A08F05BC080910A0188230F
:1056F000E1F08091830287FF18C0EC2FE695E695D4
:10570000E695F0E0E954FD4F8281282F30E04C2FE0
:10571000477081E090E002C0880F991F4A95E2F738
:1057200082239323892B59F411C0E9EBF2E0819194
:10573000C81729F082E0EF3BF807C9F707C06C2FC4
:1057400087EB92E00E94A8240E94231580910A0111
:105750008823B1F08091830287FF12C0EC2FE69579
:10576000E695E695F0E0E954FD4FC77081E090E0E2
:1057700001C0880FCA95EAF79281892B828320C0E5
:10578000A9EBB2E0EFEF80E09D91C917C9F0EF3FC0
:1057900019F4911101C0E82F8F5F8630A9F735C049
:1057A00080E28C0F883078F4C77081E090E001C00F
:1057B000880FCA95EAF790918902892B8093890214
:1057C0000E9423152BC0EBE5EC0FE33040F4F0E032
:1057D000EE5AFE4F808190E00E94E6241FC0E8E56B
:1057E000EC0FE73150F4F0E0EE0FFF1FEB5AFE4FE5
:1057F000808191810E94D02411C0CD3E78F08C2F01
:105800000E94A2210E94FD2109C0EF3FC9F20E2E85
:10581000000CFF0BE954FD4FC283D2CFCF91089506
:1058200090912D059370A1F0811102C0946007C082
:105830008D3010F0906303C0880F880F982B9093E1
:105840002D0510923A0180912C05816080932C05E2
:105850000895EF92FF920F931F93CF93DF937C01F4
:105860008B010E943C12811119C0E701011511053D
:10587000A1F08091E80085FD0AC08091E8008E7754
:105880008093E8000E943C12882381F307C089912D
:105890008093F10001501109E9CF80E0CDB7DEB768
:1058A000E6E00C94D72ECF9320912B05243029F5D8
:1058B000C091E900CF703091EC00232F217030FDB2
:1058C00020E8C22B23E02093E9002091E80020FF8C
:1058D00011C040E050E060E270E00E94292C882373
:1058E00021F010922805109229058091E8008E770A
:1058F0008093E800CF70C093E900CF910895A0E0B5
:10590000B0E0E5E8FCE20C94BA2E8C0180913701FE
:10591000C82FCC0FCC0FC80FD5E0DC0FD13308F067
:10592000D0E3609131056695669521E0620F08F439
:105930006FEF80912405909125050E94951ED82E29
:10594000CD17F0F4EC2EF12CF701E55BFD4F9081C3
:1059500080913801892391F060912E0570912F0577
:10596000809130052D2D4C2FF80109950E949F1E26
:10597000462F282F672FC7010E94D81DCF5FE0CF89
:1059800081E0D03308F080E0CDB7DEB7E7E00C94DB
:10599000D62EA0E0B0E0EFECFCE20C94B62E6C0149
:1059A00080913701C82FCC0FCC0FC80F15E01C0F0A
:1059B000113308F010E3609131056695669580918A
:1059C0002405909125050E94951ED82F80E48D0F07
:1059D0000E94F61D90E8F92EF80E8D2F0E94F61DFC
:1059E00020E8922E980EC11700F5AC2EB12CF501CF
:1059F000E55BFD4F9081809138018923A1F0609192
:105A00002E0570912F0580913005ED2E0C2F292D3C
:105A10004F2DF60109950E949F1E462F282F672FB4
:105A2000C5010E94D81DCF5FDECF81E0103308F0A2
:105A300080E0CDB7DEB7EBE00C94D22E6F927F9270
:105A40008F929F92AF92BF92CF92DF92EF920F937D
:105A50001F93CF93DF933C0180913701C82FCC0F68
:105A6000CC0FC80FD5E0DC0FD13308F0D0E3609144
:105A70003105669580912405909125050E94951E1B
:105A8000182FCD1708F044C08C2E912CF401E55B43
:105A9000FD4F9081809138018923C1F1F401EE0F0F
:105AA000FF1FE551FE4FC080D12C80E7C81AD108F6
:105AB000F401EE0FFF1FE451FE4FA080B12CE0E295
:105AC000AE1AB108CC9C9001CD9C300D300D112444
:105AD000AA9CC001AB9C900D900D1124820F931FC6
